{
  "_format": "hh-sol-artifact-1",
  "contractName": "ProjectTrade",
  "sourceName": "contracts/ProjectTrade.sol",
  "abi": [
    {
      "inputs": [
        {
          "internalType": "address",
          "name": "_YUSD",
          "type": "address"
        },
        {
          "internalType": "address",
          "name": "_treasury",
          "type": "address"
        }
      ],
      "stateMutability": "nonpayable",
      "type": "constructor"
    },
    {
      "anonymous": false,
      "inputs": [
        {
          "indexed": false,
          "internalType": "address",
          "name": "pToken",
          "type": "address"
        },
        {
          "indexed": false,
          "internalType": "uint256",
          "name": "timestamp",
          "type": "uint256"
        }
      ],
      "name": "AddNewProjectToken",
      "type": "event"
    },
    {
      "anonymous": false,
      "inputs": [
        {
          "indexed": false,
          "internalType": "address",
          "name": "pToken",
          "type": "address"
        },
        {
          "indexed": false,
          "internalType": "uint256",
          "name": "orderId",
          "type": "uint256"
        }
      ],
      "name": "CancelOrder",
      "type": "event"
    },
    {
      "anonymous": false,
      "inputs": [
        {
          "indexed": false,
          "internalType": "address",
          "name": "pToken",
          "type": "address"
        },
        {
          "indexed": false,
          "internalType": "address",
          "name": "owner",
          "type": "address"
        },
        {
          "indexed": true,
          "internalType": "uint256",
          "name": "orderId",
          "type": "uint256"
        },
        {
          "indexed": false,
          "internalType": "uint256",
          "name": "amount",
          "type": "uint256"
        },
        {
          "indexed": false,
          "internalType": "uint256",
          "name": "orderPrice",
          "type": "uint256"
        },
        {
          "indexed": false,
          "internalType": "bool",
          "name": "isBuy",
          "type": "bool"
        }
      ],
      "name": "OrderCreated",
      "type": "event"
    },
    {
      "anonymous": false,
      "inputs": [
        {
          "indexed": true,
          "internalType": "address",
          "name": "previousOwner",
          "type": "address"
        },
        {
          "indexed": true,
          "internalType": "address",
          "name": "newOwner",
          "type": "address"
        }
      ],
      "name": "OwnershipTransferred",
      "type": "event"
    },
    {
      "anonymous": false,
      "inputs": [
        {
          "indexed": false,
          "internalType": "address",
          "name": "pToken",
          "type": "address"
        },
        {
          "indexed": false,
          "internalType": "uint256",
          "name": "price",
          "type": "uint256"
        },
        {
          "indexed": false,
          "internalType": "uint256",
          "name": "timestamp",
          "type": "uint256"
        }
      ],
      "name": "SetPrice",
      "type": "event"
    },
    {
      "anonymous": false,
      "inputs": [
        {
          "indexed": false,
          "internalType": "address",
          "name": "pToken",
          "type": "address"
        },
        {
          "indexed": false,
          "internalType": "address",
          "name": "owner",
          "type": "address"
        },
        {
          "indexed": false,
          "internalType": "uint256",
          "name": "orderId",
          "type": "uint256"
        }
      ],
      "name": "TradeOrder",
      "type": "event"
    },
    {
      "anonymous": false,
      "inputs": [
        {
          "indexed": false,
          "internalType": "address",
          "name": "pToken",
          "type": "address"
        },
        {
          "indexed": false,
          "internalType": "uint256",
          "name": "amount",
          "type": "uint256"
        },
        {
          "indexed": false,
          "internalType": "uint256",
          "name": "tradePrice",
          "type": "uint256"
        },
        {
          "indexed": false,
          "internalType": "uint256",
          "name": "transactionId",
          "type": "uint256"
        },
        {
          "indexed": false,
          "internalType": "address",
          "name": "buyOwner",
          "type": "address"
        },
        {
          "indexed": false,
          "internalType": "address",
          "name": "sellOwner",
          "type": "address"
        },
        {
          "indexed": false,
          "internalType": "uint256",
          "name": "buyOrderId",
          "type": "uint256"
        },
        {
          "indexed": false,
          "internalType": "uint256",
          "name": "sellOrderId",
          "type": "uint256"
        },
        {
          "indexed": false,
          "internalType": "uint256",
          "name": "timestamp",
          "type": "uint256"
        }
      ],
      "name": "TradeTransaction",
      "type": "event"
    },
    {
      "inputs": [],
      "name": "FEE",
      "outputs": [
        {
          "internalType": "uint256",
          "name": "",
          "type": "uint256"
        }
      ],
      "stateMutability": "view",
      "type": "function"
    },
    {
      "inputs": [],
      "name": "PERCENT_PRECISION",
      "outputs": [
        {
          "internalType": "uint256",
          "name": "",
          "type": "uint256"
        }
      ],
      "stateMutability": "view",
      "type": "function"
    },
    {
      "inputs": [
        {
          "internalType": "uint256",
          "name": "",
          "type": "uint256"
        }
      ],
      "name": "PTokens",
      "outputs": [
        {
          "internalType": "address",
          "name": "",
          "type": "address"
        }
      ],
      "stateMutability": "view",
      "type": "function"
    },
    {
      "inputs": [],
      "name": "YUSD",
      "outputs": [
        {
          "internalType": "contract IERC20",
          "name": "",
          "type": "address"
        }
      ],
      "stateMutability": "view",
      "type": "function"
    },
    {
      "inputs": [
        {
          "internalType": "address",
          "name": "_address",
          "type": "address"
        }
      ],
      "name": "addressToString",
      "outputs": [
        {
          "internalType": "string",
          "name": "",
          "type": "string"
        }
      ],
      "stateMutability": "pure",
      "type": "function"
    },
    {
      "inputs": [
        {
          "internalType": "address",
          "name": "_pToken",
          "type": "address"
        },
        {
          "internalType": "uint256",
          "name": "_amount",
          "type": "uint256"
        },
        {
          "internalType": "uint256",
          "name": "_price",
          "type": "uint256"
        }
      ],
      "name": "buy",
      "outputs": [],
      "stateMutability": "nonpayable",
      "type": "function"
    },
    {
      "inputs": [
        {
          "internalType": "address",
          "name": "",
          "type": "address"
        },
        {
          "internalType": "uint256",
          "name": "",
          "type": "uint256"
        }
      ],
      "name": "buyOrders",
      "outputs": [
        {
          "internalType": "uint256",
          "name": "",
          "type": "uint256"
        }
      ],
      "stateMutability": "view",
      "type": "function"
    },
    {
      "inputs": [
        {
          "internalType": "bytes",
          "name": "_bytes",
          "type": "bytes"
        }
      ],
      "name": "bytesToHexString",
      "outputs": [
        {
          "internalType": "string",
          "name": "",
          "type": "string"
        }
      ],
      "stateMutability": "pure",
      "type": "function"
    },
    {
      "inputs": [
        {
          "internalType": "address",
          "name": "_pToken",
          "type": "address"
        },
        {
          "internalType": "uint256",
          "name": "_orderId",
          "type": "uint256"
        }
      ],
      "name": "cancelOrder",
      "outputs": [],
      "stateMutability": "nonpayable",
      "type": "function"
    },
    {
      "inputs": [
        {
          "internalType": "string",
          "name": "a",
          "type": "string"
        },
        {
          "internalType": "string",
          "name": "b",
          "type": "string"
        }
      ],
      "name": "concatStrings",
      "outputs": [
        {
          "internalType": "string",
          "name": "",
          "type": "string"
        }
      ],
      "stateMutability": "pure",
      "type": "function"
    },
    {
      "inputs": [
        {
          "internalType": "address",
          "name": "_pToken",
          "type": "address"
        }
      ],
      "name": "getBuyOrders",
      "outputs": [
        {
          "components": [
            {
              "internalType": "address",
              "name": "owner",
              "type": "address"
            },
            {
              "internalType": "uint256",
              "name": "totalAmount",
              "type": "uint256"
            },
            {
              "internalType": "uint256",
              "name": "orderPrice",
              "type": "uint256"
            },
            {
              "internalType": "uint256[]",
              "name": "transactionIds",
              "type": "uint256[]"
            },
            {
              "internalType": "uint256",
              "name": "remainingAmount",
              "type": "uint256"
            },
            {
              "internalType": "bool",
              "name": "isCancelled",
              "type": "bool"
            },
            {
              "internalType": "bool",
              "name": "isBuy",
              "type": "bool"
            },
            {
              "internalType": "uint256",
              "name": "timestamp",
              "type": "uint256"
            }
          ],
          "internalType": "struct ProjectTrade.Order[]",
          "name": "",
          "type": "tuple[]"
        }
      ],
      "stateMutability": "view",
      "type": "function"
    },
    {
      "inputs": [
        {
          "internalType": "address",
          "name": "_pToken",
          "type": "address"
        }
      ],
      "name": "getSellOrders",
      "outputs": [
        {
          "components": [
            {
              "internalType": "address",
              "name": "owner",
              "type": "address"
            },
            {
              "internalType": "uint256",
              "name": "totalAmount",
              "type": "uint256"
            },
            {
              "internalType": "uint256",
              "name": "orderPrice",
              "type": "uint256"
            },
            {
              "internalType": "uint256[]",
              "name": "transactionIds",
              "type": "uint256[]"
            },
            {
              "internalType": "uint256",
              "name": "remainingAmount",
              "type": "uint256"
            },
            {
              "internalType": "bool",
              "name": "isCancelled",
              "type": "bool"
            },
            {
              "internalType": "bool",
              "name": "isBuy",
              "type": "bool"
            },
            {
              "internalType": "uint256",
              "name": "timestamp",
              "type": "uint256"
            }
          ],
          "internalType": "struct ProjectTrade.Order[]",
          "name": "",
          "type": "tuple[]"
        }
      ],
      "stateMutability": "view",
      "type": "function"
    },
    {
      "inputs": [
        {
          "internalType": "address",
          "name": "_pToken",
          "type": "address"
        }
      ],
      "name": "getTransactions",
      "outputs": [
        {
          "components": [
            {
              "internalType": "uint256",
              "name": "amount",
              "type": "uint256"
            },
            {
              "internalType": "uint256",
              "name": "buyPrice",
              "type": "uint256"
            },
            {
              "internalType": "uint256",
              "name": "sellPrice",
              "type": "uint256"
            },
            {
              "internalType": "uint256",
              "name": "buyOrderId",
              "type": "uint256"
            },
            {
              "internalType": "uint256",
              "name": "sellOrderId",
              "type": "uint256"
            },
            {
              "internalType": "uint256",
              "name": "timestamp",
              "type": "uint256"
            },
            {
              "internalType": "bool",
              "name": "isCancelled",
              "type": "bool"
            }
          ],
          "internalType": "struct ProjectTrade.Transaction[]",
          "name": "transaction",
          "type": "tuple[]"
        }
      ],
      "stateMutability": "view",
      "type": "function"
    },
    {
      "inputs": [
        {
          "internalType": "address",
          "name": "",
          "type": "address"
        },
        {
          "internalType": "uint256",
          "name": "",
          "type": "uint256"
        }
      ],
      "name": "orders",
      "outputs": [
        {
          "internalType": "address",
          "name": "owner",
          "type": "address"
        },
        {
          "internalType": "uint256",
          "name": "totalAmount",
          "type": "uint256"
        },
        {
          "internalType": "uint256",
          "name": "orderPrice",
          "type": "uint256"
        },
        {
          "internalType": "uint256",
          "name": "remainingAmount",
          "type": "uint256"
        },
        {
          "internalType": "bool",
          "name": "isCancelled",
          "type": "bool"
        },
        {
          "internalType": "bool",
          "name": "isBuy",
          "type": "bool"
        },
        {
          "internalType": "uint256",
          "name": "timestamp",
          "type": "uint256"
        }
      ],
      "stateMutability": "view",
      "type": "function"
    },
    {
      "inputs": [],
      "name": "owner",
      "outputs": [
        {
          "internalType": "address",
          "name": "",
          "type": "address"
        }
      ],
      "stateMutability": "view",
      "type": "function"
    },
    {
      "inputs": [],
      "name": "renounceOwnership",
      "outputs": [],
      "stateMutability": "nonpayable",
      "type": "function"
    },
    {
      "inputs": [
        {
          "internalType": "uint256",
          "name": "a",
          "type": "uint256"
        },
        {
          "internalType": "uint256",
          "name": "b",
          "type": "uint256"
        }
      ],
      "name": "safeAdd",
      "outputs": [
        {
          "internalType": "uint256",
          "name": "c",
          "type": "uint256"
        }
      ],
      "stateMutability": "pure",
      "type": "function"
    },
    {
      "inputs": [
        {
          "internalType": "uint256",
          "name": "a",
          "type": "uint256"
        },
        {
          "internalType": "uint256",
          "name": "b",
          "type": "uint256"
        }
      ],
      "name": "safeDiv",
      "outputs": [
        {
          "internalType": "uint256",
          "name": "c",
          "type": "uint256"
        }
      ],
      "stateMutability": "pure",
      "type": "function"
    },
    {
      "inputs": [
        {
          "internalType": "uint256",
          "name": "a",
          "type": "uint256"
        },
        {
          "internalType": "uint256",
          "name": "b",
          "type": "uint256"
        }
      ],
      "name": "safeMul",
      "outputs": [
        {
          "internalType": "uint256",
          "name": "c",
          "type": "uint256"
        }
      ],
      "stateMutability": "pure",
      "type": "function"
    },
    {
      "inputs": [
        {
          "internalType": "uint256",
          "name": "a",
          "type": "uint256"
        },
        {
          "internalType": "uint256",
          "name": "b",
          "type": "uint256"
        }
      ],
      "name": "safeSub",
      "outputs": [
        {
          "internalType": "uint256",
          "name": "c",
          "type": "uint256"
        }
      ],
      "stateMutability": "pure",
      "type": "function"
    },
    {
      "inputs": [
        {
          "internalType": "address",
          "name": "_pToken",
          "type": "address"
        },
        {
          "internalType": "uint256",
          "name": "_amount",
          "type": "uint256"
        },
        {
          "internalType": "uint256",
          "name": "_price",
          "type": "uint256"
        }
      ],
      "name": "sell",
      "outputs": [],
      "stateMutability": "nonpayable",
      "type": "function"
    },
    {
      "inputs": [
        {
          "internalType": "address",
          "name": "",
          "type": "address"
        },
        {
          "internalType": "uint256",
          "name": "",
          "type": "uint256"
        }
      ],
      "name": "sellOrders",
      "outputs": [
        {
          "internalType": "uint256",
          "name": "",
          "type": "uint256"
        }
      ],
      "stateMutability": "view",
      "type": "function"
    },
    {
      "inputs": [
        {
          "internalType": "address",
          "name": "_pToken",
          "type": "address"
        },
        {
          "internalType": "uint256",
          "name": "_price",
          "type": "uint256"
        }
      ],
      "name": "setPriceByAdmin",
      "outputs": [],
      "stateMutability": "nonpayable",
      "type": "function"
    },
    {
      "inputs": [
        {
          "internalType": "address",
          "name": "",
          "type": "address"
        },
        {
          "internalType": "uint256",
          "name": "",
          "type": "uint256"
        }
      ],
      "name": "transactions",
      "outputs": [
        {
          "internalType": "uint256",
          "name": "amount",
          "type": "uint256"
        },
        {
          "internalType": "uint256",
          "name": "buyPrice",
          "type": "uint256"
        },
        {
          "internalType": "uint256",
          "name": "sellPrice",
          "type": "uint256"
        },
        {
          "internalType": "uint256",
          "name": "buyOrderId",
          "type": "uint256"
        },
        {
          "internalType": "uint256",
          "name": "sellOrderId",
          "type": "uint256"
        },
        {
          "internalType": "uint256",
          "name": "timestamp",
          "type": "uint256"
        },
        {
          "internalType": "bool",
          "name": "isCancelled",
          "type": "bool"
        }
      ],
      "stateMutability": "view",
      "type": "function"
    },
    {
      "inputs": [
        {
          "internalType": "address",
          "name": "newOwner",
          "type": "address"
        }
      ],
      "name": "transferOwnership",
      "outputs": [],
      "stateMutability": "nonpayable",
      "type": "function"
    },
    {
      "inputs": [],
      "name": "treasury",
      "outputs": [
        {
          "internalType": "address",
          "name": "",
          "type": "address"
        }
      ],
      "stateMutability": "view",
      "type": "function"
    }
  ],
  "bytecode": "0x60a060405260136003553480156200001657600080fd5b506040516200343b3803806200343b8339810160408190526200003991620000da565b62000044336200006d565b6001600160a01b03918216608052600180546001600160a01b0319169190921617905562000112565b600080546001600160a01b038381166001600160a01b0319831681178455604051919092169283917f8be0079c531659141344cd1fd0a4f28419497f9722a3daafe3b4186f6b6457e09190a35050565b80516001600160a01b0381168114620000d557600080fd5b919050565b60008060408385031215620000ee57600080fd5b620000f983620000bd565b91506200010960208401620000bd565b90509250929050565b6080516132ff6200013c60003960008181610273015281816112e101526123b401526132ff6000f3fe608060405234801561001057600080fd5b506004361061018e5760003560e01c80637c982796116100de578063c57981b511610097578063e97d574011610071578063e97d574014610404578063eac92f2a14610417578063f2fde38b1461042a578063ffe8e3721461043d57600080fd5b8063c57981b5146103d5578063d05c78da146103de578063e6cb9013146103f157600080fd5b80637c982796146103655780637d520c22146103785780638da5cb5b1461038b578063a293d1e81461039c578063a59ac6dd146103af578063b5931f7c146103c257600080fd5b80636190cefb1161014b5780636a272462116101255780636a272462146102d3578063715018a6146102e657806371d177cb146102ee578063793b8c6d1461030f57600080fd5b80636190cefb1461026e57806361d027b3146102ad5780636a206137146102c057600080fd5b80630f8cda201461019357806312600aa3146101bc57806314538128146101dc5780634142e8a914610226578063551f7a501461023b5780635e57966d1461025b575b600080fd5b6101a66101a1366004612cd9565b610446565b6040516101b39190612cf4565b60405180910390f35b6101cf6101ca366004612e24565b610500565b6040516101b39190612e88565b6101ef6101ea366004612edd565b61063e565b604080519788526020880196909652948601939093526060850191909152608084015260a0830152151560c082015260e0016101b3565b610239610234366004612edd565b61069b565b005b61024e610249366004612cd9565b6106b1565b6040516101b39190612f07565b6101cf610269366004612cd9565b610896565b6102957f000000000000000000000000000000000000000000000000000000000000000081565b6040516001600160a01b0390911681526020016101b3565b600154610295906001600160a01b031681565b6102396102ce366004612edd565b6108da565b6102396102e1366004612fed565b610a0c565b610239610f44565b6103016102fc366004612edd565b610f58565b6040519081526020016101b3565b61032261031d366004612edd565b610f89565b604080516001600160a01b039098168852602088019690965294860193909352606085019190915215156080840152151560a083015260c082015260e0016101b3565b610295610373366004613020565b610ff4565b6101cf610386366004613039565b61101e565b6000546001600160a01b0316610295565b6103016103aa36600461308a565b6111c3565b6102396103bd366004612fed565b6111dc565b6103016103d036600461308a565b6117d7565b61030160035481565b6103016103ec36600461308a565b6117ef565b6103016103ff36600461308a565b61181b565b610301610412366004612edd565b611836565b61024e610425366004612cd9565b611852565b610239610438366004612cd9565b611a30565b61030161271081565b6001600160a01b0381166000908152600560209081526040808320805482518185028101850190935280835260609492939192909184015b828210156104f55760008481526020908190206040805160e0810182526007860290920180548352600180820154848601526002820154928401929092526003810154606084015260048101546080840152600581015460a08401526006015460ff16151560c0830152908352909201910161047e565b505050509050919050565b805182516060918491849160009161051891906130c2565b67ffffffffffffffff81111561053057610530612d78565b6040519080825280601f01601f19166020018201604052801561055a576020820181803683370190505b50905060005b83518110156105c15783818151811061057b5761057b6130da565b602001015160f81c60f81b828281518110610598576105986130da565b60200101906001600160f81b031916908160001a905350806105b9816130f0565b915050610560565b5060005b8251811015610632578281815181106105e0576105e06130da565b602001015160f81c60f81b828286516105f991906130c2565b81518110610609576106096130da565b60200101906001600160f81b031916908160001a9053508061062a816130f0565b9150506105c5565b50925050505b92915050565b6005602052816000526040600020818154811061065a57600080fd5b600091825260209091206007909102018054600182015460028301546003840154600485015460058601546006909601549497509295509093909260ff1687565b6106a3611aa9565b6106ad8282611b03565b5050565b6001600160a01b0381166000908152600760205260408120546060919067ffffffffffffffff8111156106e6576106e6612d78565b60405190808252806020026020018201604052801561071f57816020015b61070c612c0b565b8152602001906001900390816107045790505b50905060005b6001600160a01b03841660009081526007602052604090205481101561088f576001600160a01b0384166000908152600660209081526040808320600790925290912080548390811061077a5761077a6130da565b906000526020600020015481548110610795576107956130da565b60009182526020918290206040805161010081018252600790930290910180546001600160a01b031683526001810154838501526002810154838301526003810180548351818702810187019094528084529394919360608601939283018282801561082057602002820191906000526020600020905b81548152602001906001019080831161080c575b505050918352505060048201546020820152600582015460ff8082161515604084015261010090910416151560608201526006909101546080909101528251839083908110610871576108716130da565b60200260200101819052508080610887906130f0565b915050610725565b5092915050565b604051606082811b6bffffffffffffffffffffffff191660208301529060009060340160405160208183030381529060405290506108d38161101e565b9392505050565b6001600160a01b0382166000908152600660205260409020805433919083908110610907576109076130da565b60009182526020909120600790910201546001600160a01b0316146109735760405162461bcd60e51b815260206004820152601e60248201527f596f7520617265206e6f74206f776e6572206f6620746865206f72646572000060448201526064015b60405180910390fd5b6001600160a01b0382166000908152600660205260409020805460019190839081106109a1576109a16130da565b600091825260209182902060079190910201600501805460ff191692151592909217909155604080516001600160a01b03851681529182018390527fc0e68d6b69f741c21e955cad2ae4d505b6f6735c7e7b278251b3f6283a5f07eb91015b60405180910390a15050565b60008211610a4d5760405162461bcd60e51b815260206004820152600e60248201526d1a5b9d985b1a5908185b5bdd5b9d60921b604482015260640161096a565b6040516323b872dd60e01b81526001600160a01b038416906323b872dd90610a7d9033903090879060040161310b565b6020604051808303816000875af1158015610a9c573d6000803e3d6000fd5b505050506040513d601f19601f82011682018060405250810190610ac0919061312f565b5060408051610100810182523381526020808201858152828401858152845160008082528185018752606086019182526080860189905260a0860181905260c086018190524260e08701526001600160a01b038a811682526006865296812080546001808201835591835291869020875160079093020180546001600160a01b03191692909816919091178755925192860192909255516002850155518051929384939092610b76926003850192910190612c5d565b506080820151600482015560a082015160058201805460c085015115156101000261ff00199315159390931661ffff199091161791909117905560e0909101516006909101556001600160a01b03841660008181526008602090815260408220805460018181018355828552928420018390559290915290541415610c7c57600480546001810182556000919091527f8a35acfbc15ff81a39ae7d344fd709f28e8600b4aa8c65c6b64bfe7fe36bd19b0180546001600160a01b0319166001600160a01b038616908117909155604080519182524260208301527f1df545e94802107a856bb8a484d7cd6203e369d7b4815120c873cebb2bfb252c910160405180910390a15b6001600160a01b038416600090815260086020526040812054610ca190600190613151565b6001600160a01b03861660009081526008602052604090205490915060011015610d8d576001600160a01b038516600090815260086020526040812054610cea90600290613151565b90505b6001600160a01b03861660009081526006602090815260408083206008909252909120805483908110610d2257610d226130da565b906000526020600020015481548110610d3d57610d3d6130da565b906000526020600020906007020160020154836040015110610d6b57610d648160016130c2565b9150610d8b565b80610d795760009150610d8b565b80610d8381613168565b915050610ced565b505b6001600160a01b038516600090815260086020526040812054610db290600190613151565b90505b81811115610e5a5780610dc757610e48565b6001600160a01b0386166000908152600860205260409020610dea600183613151565b81548110610dfa57610dfa6130da565b906000526020600020015460086000886001600160a01b03166001600160a01b031681526020019081526020016000208281548110610e3b57610e3b6130da565b6000918252602090912001555b80610e5281613168565b915050610db5565b506001600160a01b038516600090815260066020526040902054610e8090600190613151565b6001600160a01b0386166000908152600860205260409020805483908110610eaa57610eaa6130da565b60009182526020808320909101929092556001600160a01b038716815260069091526040902054610edd90600190613151565b604080516001600160a01b038816815233602082015290810186905260608101859052600060808201527fca886b3852c1c7992abfda91d86e8ed48f496dbc164332b3453bcb95cf25f3db9060a00160405180910390a2610f3d85611b5b565b5050505050565b610f4c611aa9565b610f566000612bbb565b565b60076020528160005260406000208181548110610f7457600080fd5b90600052602060002001600091509150505481565b60066020528160005260406000208181548110610fa557600080fd5b60009182526020909120600790910201805460018201546002830154600484015460058501546006909501546001600160a01b03909416965091945092909160ff808316926101009004169087565b6004818154811061100457600080fd5b6000918252602090912001546001600160a01b0316905081565b60408051808201909152601081526f181899199a1a9b1b9c1cb0b131b232b360811b602082015281516060919060009061105990600261317f565b67ffffffffffffffff81111561107157611071612d78565b6040519080825280601f01601f19166020018201604052801561109b576020820181803683370190505b50905060005b84518110156111bb578260048683815181106110bf576110bf6130da565b016020015182516001600160f81b031990911690911c60f81c9081106110e7576110e76130da565b01602001516001600160f81b0319168261110283600261317f565b81518110611112576111126130da565b60200101906001600160f81b031916908160001a9053508285828151811061113c5761113c6130da565b602091010151815160f89190911c600f1690811061115c5761115c6130da565b01602001516001600160f81b0319168261117783600261317f565b6111829060016130c2565b81518110611192576111926130da565b60200101906001600160f81b031916908160001a905350806111b3816130f0565b9150506110a1565b509392505050565b6000828211156111d257600080fd5b6108d38284613151565b6000821161121d5760405162461bcd60e51b815260206004820152600e60248201526d1a5b9d985b1a5908185b5bdd5b9d60921b604482015260640161096a565b600061271060035461271061123291906130c2565b856001600160a01b031663313ce5676040518163ffffffff1660e01b8152600401602060405180830381865afa158015611270573d6000803e3d6000fd5b505050506040513d601f19601f82011682018060405250810190611294919061319e565b61129f90600a61329b565b6112a9858761317f565b6112b391906132a7565b6112bd919061317f565b6112c791906132a7565b6040516323b872dd60e01b81529091506001600160a01b037f000000000000000000000000000000000000000000000000000000000000000016906323b872dd9061131a9033903090869060040161310b565b6020604051808303816000875af1158015611339573d6000803e3d6000fd5b505050506040513d601f19601f8201168201806040525081019061135d919061312f565b506040805161010081018252338152602080820186815282840186815284516000808252818501875260608601918252608086018a905260a08601819052600160c087018190524260e08801526001600160a01b038c81168352600687529782208054808301825590835291869020875160079093020180546001600160a01b03191692909816919091178755925192860192909255516002850155518051929384939092611413926003850192910190612c5d565b506080820151600482015560a082015160058201805460c085015115156101000261ff00199315159390931661ffff199091161791909117905560e0909101516006909101556001600160a01b0385166000818152600760209081526040822080546001818101835582855292842001839055929091529054141561151957600480546001810182556000919091527f8a35acfbc15ff81a39ae7d344fd709f28e8600b4aa8c65c6b64bfe7fe36bd19b0180546001600160a01b0319166001600160a01b038716908117909155604080519182524260208301527f1df545e94802107a856bb8a484d7cd6203e369d7b4815120c873cebb2bfb252c910160405180910390a15b6001600160a01b03851660009081526007602052604081205461153e90600190613151565b6001600160a01b0387166000908152600760205260409020549091506001101561162a576001600160a01b03861660009081526007602052604081205461158790600290613151565b90505b6001600160a01b038716600090815260066020908152604080832060079092529091208054839081106115bf576115bf6130da565b9060005260206000200154815481106115da576115da6130da565b906000526020600020906007020160020154836040015110611608576116018160016130c2565b9150611628565b806116165760009150611628565b8061162081613168565b91505061158a565b505b6001600160a01b03861660009081526007602052604081205461164f90600190613151565b90505b818111156116ec576001600160a01b038716600090815260076020526040902061167d600183613151565b8154811061168d5761168d6130da565b906000526020600020015460076000896001600160a01b03166001600160a01b0316815260200190815260200160002082815481106116ce576116ce6130da565b600091825260209091200155806116e481613168565b915050611652565b506001600160a01b03861660009081526006602052604090205461171290600190613151565b6001600160a01b038716600090815260076020526040902080548390811061173c5761173c6130da565b60009182526020808320909101929092556001600160a01b03881681526006909152604090205461176f90600190613151565b604080516001600160a01b038916815233602082015290810187905260608101869052600160808201527fca886b3852c1c7992abfda91d86e8ed48f496dbc164332b3453bcb95cf25f3db9060a00160405180910390a26117cf86611b5b565b505050505050565b60008082116117e557600080fd5b6108d382846132a7565b60006117fb828461317f565b905082158061181257508161181084836132a7565b145b61063857600080fd5b600061182782846130c2565b90508281101561063857600080fd5b60086020528160005260406000208181548110610f7457600080fd5b6001600160a01b0381166000908152600860205260408120546060919067ffffffffffffffff81111561188757611887612d78565b6040519080825280602002602001820160405280156118c057816020015b6118ad612c0b565b8152602001906001900390816118a55790505b50905060005b6001600160a01b03841660009081526008602052604090205481101561088f576001600160a01b0384166000908152600660209081526040808320600890925290912080548390811061191b5761191b6130da565b906000526020600020015481548110611936576119366130da565b60009182526020918290206040805161010081018252600790930290910180546001600160a01b03168352600181015483850152600281015483830152600381018054835181870281018701909452808452939491936060860193928301828280156119c157602002820191906000526020600020905b8154815260200190600101908083116119ad575b505050918352505060048201546020820152600582015460ff8082161515604084015261010090910416151560608201526006909101546080909101528251839083908110611a1257611a126130da565b60200260200101819052508080611a28906130f0565b9150506118c6565b611a38611aa9565b6001600160a01b038116611a9d5760405162461bcd60e51b815260206004820152602660248201527f4f776e61626c653a206e6577206f776e657220697320746865207a65726f206160448201526564647265737360d01b606482015260840161096a565b611aa681612bbb565b50565b6000546001600160a01b03163314610f565760405162461bcd60e51b815260206004820181905260248201527f4f776e61626c653a2063616c6c6572206973206e6f7420746865206f776e6572604482015260640161096a565b6001600160a01b0382166000818152600260209081526040918290208490558151928352820183905242908201527f5c43325359179f4471448fd5c0247053caeec2178ee6378a1a3eb4b2030d314690606001610a00565b60005b6001600160a01b0382166000908152600860205260409020548110156106ad576001600160a01b03821660009081526006602090815260408083206008909252909120805483908110611bb357611bb36130da565b906000526020600020015481548110611bce57611bce6130da565b600091825260209091206005600790920201015460ff16151560011480611c5657506001600160a01b03821660009081526006602090815260408083206008909252909120805483908110611c2557611c256130da565b906000526020600020015481548110611c4057611c406130da565b9060005260206000209060070201600401546000145b15611c6057612ba9565b60005b6001600160a01b038316600090815260076020526040902054811015612ba7576001600160a01b03831660009081526006602090815260408083206007909252909120805483908110611cb857611cb86130da565b906000526020600020015481548110611cd357611cd36130da565b600091825260209091206005600790920201015460ff16151560011480611d5b57506001600160a01b03831660009081526006602090815260408083206007909252909120805483908110611d2a57611d2a6130da565b906000526020600020015481548110611d4557611d456130da565b9060005260206000209060070201600401546000145b15611d6557612b95565b815b6001600160a01b038416600090815260086020526040902054811015612b93576001600160a01b03841660009081526006602090815260408083206008909252909120805483908110611dbc57611dbc6130da565b906000526020600020015481548110611dd757611dd76130da565b600091825260209091206005600790920201015460ff16151560011480611e5f57506001600160a01b03841660009081526006602090815260408083206008909252909120805483908110611e2e57611e2e6130da565b906000526020600020015481548110611e4957611e496130da565b9060005260206000209060070201600401546000145b80611ecb57506001600160a01b03841660009081526006602090815260408083206007909252909120805484908110611e9a57611e9a6130da565b906000526020600020015481548110611eb557611eb56130da565b9060005260206000209060070201600401546000145b15611ed557612b81565b6001600160a01b03841660009081526006602090815260408083206007909252909120805484908110611f0a57611f0a6130da565b906000526020600020015481548110611f2557611f256130da565b60009182526020808320600260079093020191909101546001600160a01b03871683526006825260408084206008909352909220805484908110611f6b57611f6b6130da565b906000526020600020015481548110611f8657611f866130da565b90600052602060002090600702016002015411612b7c576001600160a01b038416600090815260066020908152604080832060079092528220805485908110611fd157611fd16130da565b906000526020600020015481548110611fec57611fec6130da565b60009182526020808320600460079093020191909101546001600160a01b03881683526006825260408084206008909352909220805485908110612032576120326130da565b90600052602060002001548154811061204d5761204d6130da565b906000526020600020906007020160040154116120cd576001600160a01b03851660009081526006602090815260408083206008909252909120805484908110612099576120996130da565b9060005260206000200154815481106120b4576120b46130da565b9060005260206000209060070201600401549050612132565b6001600160a01b03851660009081526006602090815260408083206007909252909120805485908110612102576121026130da565b90600052602060002001548154811061211d5761211d6130da565b90600052602060002090600702016004015490505b6001600160a01b0385166000908152600660209081526040808320600890925290912080546121a192889290918690811061216f5761216f6130da565b90600052602060002001548154811061218a5761218a6130da565b906000526020600020906007020160020154611b03565b6001600160a01b03851660008181526006602090815260408083206007909252909120805463a9059cbb929190879081106121de576121de6130da565b9060005260206000200154815481106121f9576121f96130da565b600091825260209091206007909102015460405160e083901b6001600160e01b03191681526001600160a01b039091166004820152602481018490526044016020604051808303816000875af1158015612257573d6000803e3d6000fd5b505050506040513d601f19601f8201168201806040525081019061227b919061312f565b5060006127106003546127106122919190613151565b876001600160a01b031663313ce5676040518163ffffffff1660e01b8152600401602060405180830381865afa1580156122cf573d6000803e3d6000fd5b505050506040513d601f19601f820116820180604052508101906122f3919061319e565b6122fe90600a61329b565b6001600160a01b03891660009081526006602090815260408083206007909252909120805489908110612333576123336130da565b90600052602060002001548154811061234e5761234e6130da565b9060005260206000209060070201600201548561236b919061317f565b61237591906132a7565b61237f919061317f565b61238991906132a7565b6001600160a01b038781166000908152600660209081526040808320600890925290912080549394507f00000000000000000000000000000000000000000000000000000000000000009092169263a9059cbb9290879081106123ee576123ee6130da565b906000526020600020015481548110612409576124096130da565b600091825260209091206007909102015460405160e083901b6001600160e01b03191681526001600160a01b039091166004820152602481018490526044016020604051808303816000875af1158015612467573d6000803e3d6000fd5b505050506040513d601f19601f8201168201806040525081019061248b919061312f565b506001600160a01b03861660009081526006602090815260408083206008909252909120805484929190869081106124c5576124c56130da565b9060005260206000200154815481106124e0576124e06130da565b906000526020600020906007020160040160008282546125009190613151565b90915550506001600160a01b038616600090815260066020908152604080832060079092529091208054849291908790811061253e5761253e6130da565b906000526020600020015481548110612559576125596130da565b906000526020600020906007020160040160008282546125799190613151565b90915550506040805160e0810182528381526001600160a01b038816600090815260066020908152838220600782529382208054929491840192899081106125c3576125c36130da565b9060005260206000200154815481106125de576125de6130da565b600091825260208083206002600790930201919091015483526001600160a01b038b1682526006815260408083206008835292208054939091019288908110612629576126296130da565b906000526020600020015481548110612644576126446130da565b6000918252602080832060079283020160029081015485528482018b905260408086018b90524260608088019190915260809687018690526001600160a01b038f168087526005808652838820805460018082018355918a52878a208c51919099029098019788558a87015190880155898401519487019490945590880151600386015595870151600485015560a08701519184019190915560c08601516006938401805460ff19169115159190911790559383529081528282206008909152919020805492935090918690811061271e5761271e6130da565b906000526020600020015481548110612739576127396130da565b600091825260208083206001600160a01b038b168452600590915260409092205460036007909202909201019061277290600190613151565b815460018101835560009283526020808420909101919091556001600160a01b038916825260068152604080832060079092529091208054879081106127ba576127ba6130da565b9060005260206000200154815481106127d5576127d56130da565b600091825260208083206001600160a01b038b168452600590915260409092205460036007909202909201019061280e90600190613151565b815460018101835560009283526020808420909101919091556001600160a01b0389168252600681526040808320600890925290912080547fe218c3d1d8b1ec772927a9ce1f2298a05a485dac978259bdfe6db25bb4289bf6928a9290918890811061287c5761287c6130da565b906000526020600020015481548110612897576128976130da565b60009182526020909120600790910201546040516128c192916001600160a01b031690889061310b565b60405180910390a16001600160a01b0387166000908152600660209081526040808320600890925290912080547fb74ac5b7de6f52983dc4c6b6dd75959b128df961c258683a83e2e71816a3d42f928a92879289908110612924576129246130da565b90600052602060002001548154811061293f5761293f6130da565b60009182526020808320600260079093020191909101546001600160a01b038d168352600590915260409091205461297990600190613151565b6001600160a01b038c166000908152600660209081526040808320600890925290912080548b9081106129ae576129ae6130da565b9060005260206000200154815481106129c9576129c96130da565b906000526020600020906007020160000160009054906101000a90046001600160a01b0316600660008e6001600160a01b03166001600160a01b03168152602001908152602001600020600760008f6001600160a01b03166001600160a01b031681526020019081526020016000208c81548110612a4957612a496130da565b906000526020600020015481548110612a6457612a646130da565b600091825260209182902060079091020154604080516001600160a01b0398891681529283019690965294810193909352606083019190915283166080820152911660a082015260c0810186905260e08101879052426101008201526101200160405180910390a16001600160a01b0387166000908152600660209081526040808320600790925290912080547fe218c3d1d8b1ec772927a9ce1f2298a05a485dac978259bdfe6db25bb4289bf6928a92909189908110612b2757612b276130da565b906000526020600020015481548110612b4257612b426130da565b6000918252602090912060079091020154604051612b6c92916001600160a01b031690899061310b565b60405180910390a1505050612b81565b612b93565b80612b8b816130f0565b915050611d67565b505b80612b9f816130f0565b915050611c63565b505b80612bb3816130f0565b915050611b5e565b600080546001600160a01b038381166001600160a01b0319831681178455604051919092169283917f8be0079c531659141344cd1fd0a4f28419497f9722a3daafe3b4186f6b6457e09190a35050565b60405180610100016040528060006001600160a01b0316815260200160008152602001600081526020016060815260200160008152602001600015158152602001600015158152602001600081525090565b828054828255906000526020600020908101928215612c98579160200282015b82811115612c98578251825591602001919060010190612c7d565b50612ca4929150612ca8565b5090565b5b80821115612ca45760008155600101612ca9565b80356001600160a01b0381168114612cd457600080fd5b919050565b600060208284031215612ceb57600080fd5b6108d382612cbd565b602080825282518282018190526000919060409081850190868401855b82811015612d6b5781518051855286810151878601528581015186860152606080820151908601526080808201519086015260a0808201519086015260c09081015115159085015260e09093019290850190600101612d11565b5091979650505050505050565b634e487b7160e01b600052604160045260246000fd5b600067ffffffffffffffff80841115612da957612da9612d78565b604051601f8501601f19908116603f01168101908282118183101715612dd157612dd1612d78565b81604052809350858152868686011115612dea57600080fd5b858560208301376000602087830101525050509392505050565b600082601f830112612e1557600080fd5b6108d383833560208501612d8e565b60008060408385031215612e3757600080fd5b823567ffffffffffffffff80821115612e4f57600080fd5b612e5b86838701612e04565b93506020850135915080821115612e7157600080fd5b50612e7e85828601612e04565b9150509250929050565b600060208083528351808285015260005b81811015612eb557858101830151858201604001528201612e99565b81811115612ec7576000604083870101525b50601f01601f1916929092016040019392505050565b60008060408385031215612ef057600080fd5b612ef983612cbd565b946020939093013593505050565b60006020808301818452808551808352604092508286019150828160051b8701018488016000805b84811015612fde57898403603f19018652825180516001600160a01b03168552888101518986015287810151888601526060808201516101009187018290528051918701829052610120870191908b0190855b81811015612f9e5782518452928c0192918c0191600101612f82565b5050506080828101519087015260a08083015115159087015260c08083015115159087015260e09182015191909501529487019491870191600101612f2f565b50919998505050505050505050565b60008060006060848603121561300257600080fd5b61300b84612cbd565b95602085013595506040909401359392505050565b60006020828403121561303257600080fd5b5035919050565b60006020828403121561304b57600080fd5b813567ffffffffffffffff81111561306257600080fd5b8201601f8101841361307357600080fd5b61308284823560208401612d8e565b949350505050565b6000806040838503121561309d57600080fd5b50508035926020909101359150565b634e487b7160e01b600052601160045260246000fd5b600082198211156130d5576130d56130ac565b500190565b634e487b7160e01b600052603260045260246000fd5b6000600019821415613104576131046130ac565b5060010190565b6001600160a01b039384168152919092166020820152604081019190915260600190565b60006020828403121561314157600080fd5b815180151581146108d357600080fd5b600082821015613163576131636130ac565b500390565b600081613177576131776130ac565b506000190190565b6000816000190483118215151615613199576131996130ac565b500290565b6000602082840312156131b057600080fd5b5051919050565b600181815b808511156131f25781600019048211156131d8576131d86130ac565b808516156131e557918102915b93841c93908002906131bc565b509250929050565b60008261320957506001610638565b8161321657506000610638565b816001811461322c576002811461323657613252565b6001915050610638565b60ff841115613247576132476130ac565b50506001821b610638565b5060208310610133831016604e8410600b8410161715613275575081810a610638565b61327f83836131b7565b8060001904821115613293576132936130ac565b029392505050565b60006108d383836131fa565b6000826132c457634e487b7160e01b600052601260045260246000fd5b50049056fea2646970667358221220d494d465b3e8f4538fec5cae680ada2ba1fc7885b742136cfa0d33796bda803e64736f6c634300080a0033",
  "linkReferences": {},
  "deployedLinkReferences": {}
}