{
  "_format": "hh-sol-artifact-1",
  "contractName": "ProjectTrade",
  "sourceName": "contracts/ProjectTrade.sol",
  "abi": [
    {
      "inputs": [
        {
          "internalType": "address",
          "name": "_YUSD",
          "type": "address"
        },
        {
          "internalType": "address",
          "name": "_treasury",
          "type": "address"
        }
      ],
      "stateMutability": "nonpayable",
      "type": "constructor"
    },
    {
      "anonymous": false,
      "inputs": [
        {
          "indexed": false,
          "internalType": "address",
          "name": "pToken",
          "type": "address"
        },
        {
          "indexed": false,
          "internalType": "uint256",
          "name": "timestamp",
          "type": "uint256"
        }
      ],
      "name": "AddNewProjectToken",
      "type": "event"
    },
    {
      "anonymous": false,
      "inputs": [
        {
          "indexed": false,
          "internalType": "address",
          "name": "pToken",
          "type": "address"
        }
      ],
      "name": "CancelAllOrders",
      "type": "event"
    },
    {
      "anonymous": false,
      "inputs": [
        {
          "indexed": false,
          "internalType": "address",
          "name": "pToken",
          "type": "address"
        },
        {
          "indexed": false,
          "internalType": "uint256",
          "name": "orderId",
          "type": "uint256"
        }
      ],
      "name": "CancelOrder",
      "type": "event"
    },
    {
      "anonymous": false,
      "inputs": [
        {
          "indexed": false,
          "internalType": "address",
          "name": "pToken",
          "type": "address"
        },
        {
          "indexed": false,
          "internalType": "address",
          "name": "owner",
          "type": "address"
        },
        {
          "indexed": true,
          "internalType": "uint256",
          "name": "orderId",
          "type": "uint256"
        },
        {
          "indexed": false,
          "internalType": "uint256",
          "name": "amount",
          "type": "uint256"
        },
        {
          "indexed": false,
          "internalType": "uint256",
          "name": "orderPrice",
          "type": "uint256"
        },
        {
          "indexed": false,
          "internalType": "bool",
          "name": "isBuy",
          "type": "bool"
        }
      ],
      "name": "OrderCreated",
      "type": "event"
    },
    {
      "anonymous": false,
      "inputs": [
        {
          "indexed": true,
          "internalType": "address",
          "name": "previousOwner",
          "type": "address"
        },
        {
          "indexed": true,
          "internalType": "address",
          "name": "newOwner",
          "type": "address"
        }
      ],
      "name": "OwnershipTransferred",
      "type": "event"
    },
    {
      "anonymous": false,
      "inputs": [
        {
          "indexed": false,
          "internalType": "address",
          "name": "pToken",
          "type": "address"
        },
        {
          "indexed": false,
          "internalType": "bool",
          "name": "paused",
          "type": "bool"
        }
      ],
      "name": "Pause",
      "type": "event"
    },
    {
      "anonymous": false,
      "inputs": [
        {
          "indexed": false,
          "internalType": "address",
          "name": "pToken",
          "type": "address"
        }
      ],
      "name": "RemoveAllOrders",
      "type": "event"
    },
    {
      "anonymous": false,
      "inputs": [
        {
          "indexed": false,
          "internalType": "address",
          "name": "pToken",
          "type": "address"
        },
        {
          "indexed": false,
          "internalType": "uint256",
          "name": "price",
          "type": "uint256"
        },
        {
          "indexed": false,
          "internalType": "uint256",
          "name": "timestamp",
          "type": "uint256"
        }
      ],
      "name": "SetPrice",
      "type": "event"
    },
    {
      "anonymous": false,
      "inputs": [
        {
          "indexed": false,
          "internalType": "address",
          "name": "pToken",
          "type": "address"
        },
        {
          "indexed": false,
          "internalType": "address",
          "name": "owner",
          "type": "address"
        },
        {
          "indexed": false,
          "internalType": "uint256",
          "name": "orderId",
          "type": "uint256"
        }
      ],
      "name": "TradeOrder",
      "type": "event"
    },
    {
      "anonymous": false,
      "inputs": [
        {
          "indexed": false,
          "internalType": "address",
          "name": "pToken",
          "type": "address"
        },
        {
          "indexed": false,
          "internalType": "uint256",
          "name": "amount",
          "type": "uint256"
        },
        {
          "indexed": false,
          "internalType": "uint256",
          "name": "tradePrice",
          "type": "uint256"
        },
        {
          "indexed": false,
          "internalType": "uint256",
          "name": "transactionId",
          "type": "uint256"
        },
        {
          "indexed": false,
          "internalType": "address",
          "name": "buyOwner",
          "type": "address"
        },
        {
          "indexed": false,
          "internalType": "address",
          "name": "sellOwner",
          "type": "address"
        },
        {
          "indexed": false,
          "internalType": "uint256",
          "name": "buyOrderId",
          "type": "uint256"
        },
        {
          "indexed": false,
          "internalType": "uint256",
          "name": "sellOrderId",
          "type": "uint256"
        },
        {
          "indexed": false,
          "internalType": "uint256",
          "name": "timestamp",
          "type": "uint256"
        }
      ],
      "name": "TradeTransaction",
      "type": "event"
    },
    {
      "inputs": [],
      "name": "FEE",
      "outputs": [
        {
          "internalType": "uint256",
          "name": "",
          "type": "uint256"
        }
      ],
      "stateMutability": "view",
      "type": "function"
    },
    {
      "inputs": [],
      "name": "PERCENT_PRECISION",
      "outputs": [
        {
          "internalType": "uint256",
          "name": "",
          "type": "uint256"
        }
      ],
      "stateMutability": "view",
      "type": "function"
    },
    {
      "inputs": [
        {
          "internalType": "uint256",
          "name": "",
          "type": "uint256"
        }
      ],
      "name": "PTokens",
      "outputs": [
        {
          "internalType": "address",
          "name": "",
          "type": "address"
        }
      ],
      "stateMutability": "view",
      "type": "function"
    },
    {
      "inputs": [],
      "name": "YUSD",
      "outputs": [
        {
          "internalType": "contract IERC20",
          "name": "",
          "type": "address"
        }
      ],
      "stateMutability": "view",
      "type": "function"
    },
    {
      "inputs": [
        {
          "internalType": "address",
          "name": "",
          "type": "address"
        },
        {
          "internalType": "address",
          "name": "",
          "type": "address"
        }
      ],
      "name": "balanceOfUserInContract",
      "outputs": [
        {
          "internalType": "uint256",
          "name": "",
          "type": "uint256"
        }
      ],
      "stateMutability": "view",
      "type": "function"
    },
    {
      "inputs": [
        {
          "internalType": "address",
          "name": "_pToken",
          "type": "address"
        },
        {
          "internalType": "uint256",
          "name": "_amount",
          "type": "uint256"
        },
        {
          "internalType": "uint256",
          "name": "_price",
          "type": "uint256"
        }
      ],
      "name": "buy",
      "outputs": [],
      "stateMutability": "nonpayable",
      "type": "function"
    },
    {
      "inputs": [
        {
          "internalType": "address",
          "name": "",
          "type": "address"
        },
        {
          "internalType": "uint256",
          "name": "",
          "type": "uint256"
        }
      ],
      "name": "buyOrders",
      "outputs": [
        {
          "internalType": "uint256",
          "name": "",
          "type": "uint256"
        }
      ],
      "stateMutability": "view",
      "type": "function"
    },
    {
      "inputs": [
        {
          "internalType": "address",
          "name": "_pToken",
          "type": "address"
        },
        {
          "internalType": "uint256",
          "name": "_orderId",
          "type": "uint256"
        }
      ],
      "name": "cancelOrder",
      "outputs": [],
      "stateMutability": "nonpayable",
      "type": "function"
    },
    {
      "inputs": [
        {
          "internalType": "address",
          "name": "_pToken",
          "type": "address"
        }
      ],
      "name": "cancelOrders",
      "outputs": [],
      "stateMutability": "nonpayable",
      "type": "function"
    },
    {
      "inputs": [
        {
          "internalType": "address",
          "name": "_pToken",
          "type": "address"
        },
        {
          "internalType": "address",
          "name": "_user",
          "type": "address"
        }
      ],
      "name": "getBalanceOfUserInContact",
      "outputs": [
        {
          "internalType": "uint256",
          "name": "",
          "type": "uint256"
        }
      ],
      "stateMutability": "view",
      "type": "function"
    },
    {
      "inputs": [
        {
          "internalType": "address",
          "name": "_pToken",
          "type": "address"
        }
      ],
      "name": "getBuyOrders",
      "outputs": [
        {
          "components": [
            {
              "internalType": "address",
              "name": "owner",
              "type": "address"
            },
            {
              "internalType": "uint256",
              "name": "totalAmount",
              "type": "uint256"
            },
            {
              "internalType": "uint256",
              "name": "orderPrice",
              "type": "uint256"
            },
            {
              "internalType": "uint256[]",
              "name": "transactionIds",
              "type": "uint256[]"
            },
            {
              "internalType": "uint256",
              "name": "remainingAmount",
              "type": "uint256"
            },
            {
              "internalType": "bool",
              "name": "isCancelled",
              "type": "bool"
            },
            {
              "internalType": "bool",
              "name": "isBuy",
              "type": "bool"
            },
            {
              "internalType": "uint256",
              "name": "timestamp",
              "type": "uint256"
            }
          ],
          "internalType": "struct ProjectTrade.Order[]",
          "name": "",
          "type": "tuple[]"
        }
      ],
      "stateMutability": "view",
      "type": "function"
    },
    {
      "inputs": [
        {
          "internalType": "address",
          "name": "_pToken",
          "type": "address"
        }
      ],
      "name": "getSellOrders",
      "outputs": [
        {
          "components": [
            {
              "internalType": "address",
              "name": "owner",
              "type": "address"
            },
            {
              "internalType": "uint256",
              "name": "totalAmount",
              "type": "uint256"
            },
            {
              "internalType": "uint256",
              "name": "orderPrice",
              "type": "uint256"
            },
            {
              "internalType": "uint256[]",
              "name": "transactionIds",
              "type": "uint256[]"
            },
            {
              "internalType": "uint256",
              "name": "remainingAmount",
              "type": "uint256"
            },
            {
              "internalType": "bool",
              "name": "isCancelled",
              "type": "bool"
            },
            {
              "internalType": "bool",
              "name": "isBuy",
              "type": "bool"
            },
            {
              "internalType": "uint256",
              "name": "timestamp",
              "type": "uint256"
            }
          ],
          "internalType": "struct ProjectTrade.Order[]",
          "name": "",
          "type": "tuple[]"
        }
      ],
      "stateMutability": "view",
      "type": "function"
    },
    {
      "inputs": [
        {
          "internalType": "address",
          "name": "_pToken",
          "type": "address"
        }
      ],
      "name": "getTransactions",
      "outputs": [
        {
          "components": [
            {
              "internalType": "uint256",
              "name": "amount",
              "type": "uint256"
            },
            {
              "internalType": "uint256",
              "name": "price",
              "type": "uint256"
            },
            {
              "internalType": "uint256",
              "name": "buyOrderId",
              "type": "uint256"
            },
            {
              "internalType": "uint256",
              "name": "sellOrderId",
              "type": "uint256"
            },
            {
              "internalType": "uint256",
              "name": "timestamp",
              "type": "uint256"
            },
            {
              "internalType": "bool",
              "name": "isCancelled",
              "type": "bool"
            }
          ],
          "internalType": "struct ProjectTrade.Transaction[]",
          "name": "transaction",
          "type": "tuple[]"
        }
      ],
      "stateMutability": "view",
      "type": "function"
    },
    {
      "inputs": [
        {
          "internalType": "address",
          "name": "",
          "type": "address"
        },
        {
          "internalType": "uint256",
          "name": "",
          "type": "uint256"
        }
      ],
      "name": "orders",
      "outputs": [
        {
          "internalType": "address",
          "name": "owner",
          "type": "address"
        },
        {
          "internalType": "uint256",
          "name": "totalAmount",
          "type": "uint256"
        },
        {
          "internalType": "uint256",
          "name": "orderPrice",
          "type": "uint256"
        },
        {
          "internalType": "uint256",
          "name": "remainingAmount",
          "type": "uint256"
        },
        {
          "internalType": "bool",
          "name": "isCancelled",
          "type": "bool"
        },
        {
          "internalType": "bool",
          "name": "isBuy",
          "type": "bool"
        },
        {
          "internalType": "uint256",
          "name": "timestamp",
          "type": "uint256"
        }
      ],
      "stateMutability": "view",
      "type": "function"
    },
    {
      "inputs": [],
      "name": "owner",
      "outputs": [
        {
          "internalType": "address",
          "name": "",
          "type": "address"
        }
      ],
      "stateMutability": "view",
      "type": "function"
    },
    {
      "inputs": [
        {
          "internalType": "address",
          "name": "_pToken",
          "type": "address"
        }
      ],
      "name": "pause",
      "outputs": [],
      "stateMutability": "nonpayable",
      "type": "function"
    },
    {
      "inputs": [
        {
          "internalType": "address",
          "name": "",
          "type": "address"
        }
      ],
      "name": "paused",
      "outputs": [
        {
          "internalType": "bool",
          "name": "",
          "type": "bool"
        }
      ],
      "stateMutability": "view",
      "type": "function"
    },
    {
      "inputs": [
        {
          "internalType": "address",
          "name": "_pToken",
          "type": "address"
        }
      ],
      "name": "removeOrders",
      "outputs": [],
      "stateMutability": "nonpayable",
      "type": "function"
    },
    {
      "inputs": [],
      "name": "renounceOwnership",
      "outputs": [],
      "stateMutability": "nonpayable",
      "type": "function"
    },
    {
      "inputs": [
        {
          "internalType": "uint256",
          "name": "a",
          "type": "uint256"
        },
        {
          "internalType": "uint256",
          "name": "b",
          "type": "uint256"
        }
      ],
      "name": "safeAdd",
      "outputs": [
        {
          "internalType": "uint256",
          "name": "c",
          "type": "uint256"
        }
      ],
      "stateMutability": "pure",
      "type": "function"
    },
    {
      "inputs": [
        {
          "internalType": "uint256",
          "name": "a",
          "type": "uint256"
        },
        {
          "internalType": "uint256",
          "name": "b",
          "type": "uint256"
        }
      ],
      "name": "safeDiv",
      "outputs": [
        {
          "internalType": "uint256",
          "name": "c",
          "type": "uint256"
        }
      ],
      "stateMutability": "pure",
      "type": "function"
    },
    {
      "inputs": [
        {
          "internalType": "uint256",
          "name": "a",
          "type": "uint256"
        },
        {
          "internalType": "uint256",
          "name": "b",
          "type": "uint256"
        }
      ],
      "name": "safeMul",
      "outputs": [
        {
          "internalType": "uint256",
          "name": "c",
          "type": "uint256"
        }
      ],
      "stateMutability": "pure",
      "type": "function"
    },
    {
      "inputs": [
        {
          "internalType": "uint256",
          "name": "a",
          "type": "uint256"
        },
        {
          "internalType": "uint256",
          "name": "b",
          "type": "uint256"
        }
      ],
      "name": "safeSub",
      "outputs": [
        {
          "internalType": "uint256",
          "name": "c",
          "type": "uint256"
        }
      ],
      "stateMutability": "pure",
      "type": "function"
    },
    {
      "inputs": [
        {
          "internalType": "address",
          "name": "_pToken",
          "type": "address"
        },
        {
          "internalType": "uint256",
          "name": "_amount",
          "type": "uint256"
        },
        {
          "internalType": "uint256",
          "name": "_price",
          "type": "uint256"
        }
      ],
      "name": "sell",
      "outputs": [],
      "stateMutability": "nonpayable",
      "type": "function"
    },
    {
      "inputs": [
        {
          "internalType": "address",
          "name": "",
          "type": "address"
        },
        {
          "internalType": "uint256",
          "name": "",
          "type": "uint256"
        }
      ],
      "name": "sellOrders",
      "outputs": [
        {
          "internalType": "uint256",
          "name": "",
          "type": "uint256"
        }
      ],
      "stateMutability": "view",
      "type": "function"
    },
    {
      "inputs": [
        {
          "internalType": "address",
          "name": "_pToken",
          "type": "address"
        },
        {
          "internalType": "uint256",
          "name": "_price",
          "type": "uint256"
        }
      ],
      "name": "setPriceByAdmin",
      "outputs": [],
      "stateMutability": "nonpayable",
      "type": "function"
    },
    {
      "inputs": [
        {
          "internalType": "address",
          "name": "",
          "type": "address"
        },
        {
          "internalType": "uint256",
          "name": "",
          "type": "uint256"
        }
      ],
      "name": "transactions",
      "outputs": [
        {
          "internalType": "uint256",
          "name": "amount",
          "type": "uint256"
        },
        {
          "internalType": "uint256",
          "name": "price",
          "type": "uint256"
        },
        {
          "internalType": "uint256",
          "name": "buyOrderId",
          "type": "uint256"
        },
        {
          "internalType": "uint256",
          "name": "sellOrderId",
          "type": "uint256"
        },
        {
          "internalType": "uint256",
          "name": "timestamp",
          "type": "uint256"
        },
        {
          "internalType": "bool",
          "name": "isCancelled",
          "type": "bool"
        }
      ],
      "stateMutability": "view",
      "type": "function"
    },
    {
      "inputs": [
        {
          "internalType": "address",
          "name": "newOwner",
          "type": "address"
        }
      ],
      "name": "transferOwnership",
      "outputs": [],
      "stateMutability": "nonpayable",
      "type": "function"
    },
    {
      "inputs": [],
      "name": "treasury",
      "outputs": [
        {
          "internalType": "address",
          "name": "",
          "type": "address"
        }
      ],
      "stateMutability": "view",
      "type": "function"
    },
    {
      "inputs": [
        {
          "internalType": "address",
          "name": "_pToken",
          "type": "address"
        }
      ],
      "name": "unpause",
      "outputs": [],
      "stateMutability": "nonpayable",
      "type": "function"
    }
  ],
  "bytecode": "0x60a060405260136003553480156200001657600080fd5b5060405162003b4b38038062003b4b8339810160408190526200003991620000da565b62000044336200006d565b6001600160a01b03918216608052600180546001600160a01b0319169190921617905562000112565b600080546001600160a01b038381166001600160a01b0319831681178455604051919092169283917f8be0079c531659141344cd1fd0a4f28419497f9722a3daafe3b4186f6b6457e09190a35050565b80516001600160a01b0381168114620000d557600080fd5b919050565b60008060408385031215620000ee57600080fd5b620000f983620000bd565b91506200010960208401620000bd565b90509250929050565b6080516139f362000158600039600081816102ca01528181610b2d015281816118a001528181612871015281816129c001528181612b8b01526131f801526139f36000f3fe608060405234801561001057600080fd5b50600436106101da5760003560e01c80638d9615f811610104578063c57981b5116100a2578063e97d574011610071578063e97d5740146104bf578063eac92f2a146104d2578063f2fde38b146104e5578063ffe8e372146104f857600080fd5b8063c57981b51461047d578063cf61fdee14610486578063d05c78da14610499578063e6cb9013146104ac57600080fd5b8063a293d1e8116100de578063a293d1e814610431578063a59ac6dd14610444578063a6fc34fe14610457578063b5931f7c1461046a57600080fd5b80638d9615f8146103e25780638da5cb5b146103f55780639a1836af1461040657600080fd5b806361d027b31161017c57806371d177cb1161014b57806371d177cb1461034557806376a67a5114610366578063793b8c6d146103795780637c982796146103cf57600080fd5b806361d027b3146103045780636a206137146103175780636a2724621461032a578063715018a61461033d57600080fd5b80634142e8a9116101b85780634142e8a91461027d578063551f7a501461029257806357b001f9146102b25780636190cefb146102c557600080fd5b80630f8cda20146101df57806314538128146102085780632e48152c1461024a575b600080fd5b6101f26101ed36600461352b565b610501565b6040516101ff9190613546565b60405180910390f35b61021b6102163660046135c0565b6105b1565b6040805196875260208701959095529385019290925260608401526080830152151560a082015260c0016101ff565b61026d61025836600461352b565b600a6020526000908152604090205460ff1681565b60405190151581526020016101ff565b61029061028b3660046135c0565b610608565b005b6102a56102a036600461352b565b61061e565b6040516101ff91906135ea565b6102906102c036600461352b565b610803565b6102ec7f000000000000000000000000000000000000000000000000000000000000000081565b6040516001600160a01b0390911681526020016101ff565b6001546102ec906001600160a01b031681565b6102906103253660046135c0565b610869565b6102906103383660046136d0565b610d3b565b610290611520565b6103586103533660046135c0565b611534565b6040519081526020016101ff565b61029061037436600461352b565b611565565b61038c6103873660046135c0565b6115c8565b604080516001600160a01b039098168852602088019690965294860193909352606085019190915215156080840152151560a083015260c082015260e0016101ff565b6102ec6103dd366004613703565b611633565b6102906103f036600461352b565b61165d565b6000546001600160a01b03166102ec565b61035861041436600461371c565b600960209081526000928352604080842090915290825290205481565b61035861043f36600461374f565b61171b565b6102906104523660046136d0565b61173b565b61029061046536600461352b565b611fab565b61035861047836600461374f565b612087565b61035860035481565b61035861049436600461371c565b61209f565b6103586104a736600461374f565b6120cc565b6103586104ba36600461374f565b6120f8565b6103586104cd3660046135c0565b612113565b6102a56104e036600461352b565b61212f565b6102906104f336600461352b565b61230d565b61035861271081565b6001600160a01b0381166000908152600560209081526040808320805482518185028101850190935280835260609492939192909184015b828210156105a65760008481526020908190206040805160c08101825260068602909201805483526001808201548486015260028201549284019290925260038101546060840152600481015460808401526005015460ff16151560a08301529083529092019101610539565b505050509050919050565b600560205281600052604060002081815481106105cd57600080fd5b600091825260209091206006909102018054600182015460028301546003840154600485015460059095015493965091945092909160ff1686565b610610612386565b61061a82826123e0565b5050565b6001600160a01b0381166000908152600760205260408120546060919067ffffffffffffffff81111561065357610653613771565b60405190808252806020026020018201604052801561068c57816020015b6106796133cb565b8152602001906001900390816106715790505b50905060005b6001600160a01b0384166000908152600760205260409020548110156107fc576001600160a01b038416600090815260066020908152604080832060079092529091208054839081106106e7576106e7613787565b90600052602060002001548154811061070257610702613787565b60009182526020918290206040805161010081018252600790930290910180546001600160a01b031683526001810154838501526002810154838301526003810180548351818702810187019094528084529394919360608601939283018282801561078d57602002820191906000526020600020905b815481526020019060010190808311610779575b505050918352505060048201546020820152600582015460ff80821615156040840152610100909104161515606082015260069091015460809091015282518390839081106107de576107de613787565b602002602001018190525080806107f4906137b3565b915050610692565b5092915050565b61080b612386565b6001600160a01b0381166000818152600a60209081526040808320805460ff191690558051938452908301919091527f0d7fd1e314b29407db3d79c46ecf1fa3d2108961fab8d20584277358cac41e8991015b60405180910390a150565b6001600160a01b038216600090815260066020526040902080543391908390811061089657610896613787565b60009182526020909120600790910201546001600160a01b031614806108c657506000546001600160a01b031633145b6109175760405162461bcd60e51b815260206004820152601e60248201527f596f7520617265206e6f74206f776e6572206f6620746865206f72646572000060448201526064015b60405180910390fd5b6001600160a01b03821660009081526006602052604090208054600191908390811061094557610945613787565b60009182526020808320600792909202909101600501805460ff1916931515939093179092556001600160a01b038416815260069091526040812080548390811061099257610992613787565b9060005260206000209060070201600401541115610cfe576001600160a01b03821660009081526006602052604090208054829081106109d4576109d4613787565b600091825260209091206005600790920201015460ff61010090910416151560011415610c17576000612710600354612710610a1091906137ce565b846001600160a01b031663313ce5676040518163ffffffff1660e01b8152600401602060405180830381865afa158015610a4e573d6000803e3d6000fd5b505050506040513d601f19601f82011682018060405250810190610a7291906137e6565b610a7d90600a6138e3565b6001600160a01b0386166000908152600660205260409020805486908110610aa757610aa7613787565b90600052602060002090600702016002015460066000886001600160a01b03166001600160a01b031681526020019081526020016000208681548110610aef57610aef613787565b906000526020600020906007020160040154610b0b91906138ef565b610b15919061390e565b610b1f91906138ef565b610b29919061390e565b90507f00000000000000000000000000000000000000000000000000000000000000006001600160a01b031663a9059cbb60066000866001600160a01b03166001600160a01b031681526020019081526020016000208481548110610b9057610b90613787565b60009182526020909120600790910201546040516001600160e01b031960e084901b168152610bcd916001600160a01b0316908590600401613930565b6020604051808303816000875af1158015610bec573d6000803e3d6000fd5b505050506040513d601f19601f82011682018060405250810190610c109190613949565b5050610cfe565b6001600160a01b0382166000818152600660205260409020805463a9059cbb919084908110610c4857610c48613787565b600091825260208083206007909202909101546001600160a01b03878116845260069092526040909220805491909216919085908110610c8a57610c8a613787565b9060005260206000209060070201600401546040518363ffffffff1660e01b8152600401610cb9929190613930565b6020604051808303816000875af1158015610cd8573d6000803e3d6000fd5b505050506040513d601f19601f82011682018060405250810190610cfc9190613949565b505b7fc0e68d6b69f741c21e955cad2ae4d505b6f6735c7e7b278251b3f6283a5f07eb8282604051610d2f929190613930565b60405180910390a15050565b6001600160a01b0383166000908152600a6020526040902054839060ff1615610d9b5760405162461bcd60e51b815260206004820152601260248201527110dbdb9d1c9858dd081a5cc81c185d5cd95960721b604482015260640161090e565b60008311610ddc5760405162461bcd60e51b815260206004820152600e60248201526d1a5b9d985b1a5908185b5bdd5b9d60921b604482015260640161090e565b6040516323b872dd60e01b81526001600160a01b038516906323b872dd90610e0c9033903090889060040161396b565b6020604051808303816000875af1158015610e2b573d6000803e3d6000fd5b505050506040513d601f19601f82011682018060405250810190610e4f9190613949565b506001600160a01b038416600090815260096020908152604080832033845290915281208054859290610e839084906137ce565b90915550506040805161010081018252338152602080820186815282840186815284516000808252818501875260608601918252608086018a905260a0860181905260c086018190524260e08701526001600160a01b038b811682526006865296812080546001808201835591835291869020875160079093020180546001600160a01b03191692909816919091178755925192860192909255516002850155518051929384939092610f3d92600385019291019061341d565b506080820151600482015560a082015160058201805460c085015115156101000261ff00199315159390931661ffff199091161791909117905560e0909101516006909101556001600160a01b0385166000818152600860209081526040822080546001818101835582855292842001839055929091529054141561104257600480546001810182556000919091527f8a35acfbc15ff81a39ae7d344fd709f28e8600b4aa8c65c6b64bfe7fe36bd19b0180546001600160a01b0319166001600160a01b0387161790556040517f1df545e94802107a856bb8a484d7cd6203e369d7b4815120c873cebb2bfb252c906110399087904290613930565b60405180910390a15b6001600160a01b0385166000908152600860205260408120546110679060019061398f565b6001600160a01b03871660009081526008602052604090205490915060011015611153576001600160a01b0386166000908152600860205260408120546110b09060029061398f565b90505b6001600160a01b038716600090815260066020908152604080832060089092529091208054839081106110e8576110e8613787565b90600052602060002001548154811061110357611103613787565b9060005260206000209060070201600201548360400151106111315761112a8160016137ce565b9150611151565b8061113f5760009150611151565b80611149816139a6565b9150506110b3565b505b6001600160a01b0386166000908152600860205260408120546111789060019061398f565b90505b81811115611220578061118d5761120e565b6001600160a01b03871660009081526008602052604090206111b060018361398f565b815481106111c0576111c0613787565b906000526020600020015460086000896001600160a01b03166001600160a01b03168152602001908152602001600020828154811061120157611201613787565b6000918252602090912001555b80611218816139a6565b91505061117b565b506001600160a01b0386166000908152600660205260409020546112469060019061398f565b6001600160a01b038716600090815260086020526040902080548390811061127057611270613787565b60009182526020808320909101929092556001600160a01b0388168152600690915260409020546112a39060019061398f565b604080516001600160a01b038916815233602082015290810187905260608101869052600060808201527fca886b3852c1c7992abfda91d86e8ed48f496dbc164332b3453bcb95cf25f3db9060a00160405180910390a26001600160a01b03861660009081526006602052604081205481906113219060019061398f565b905060005b6001600160a01b038916600090815260076020526040902054811015611515576001600160a01b038916600090815260076020526040902080548290811061137057611370613787565b90600052602060002001549250600660008a6001600160a01b03166001600160a01b0316815260200190815260200160002083815481106113b3576113b3613787565b600091825260209091206005600790920201015460ff1615156001148061141557506001600160a01b03891660009081526006602052604090208054849081106113ff576113ff613787565b9060005260206000209060070201600401546000145b8061145b57506001600160a01b038916600090815260066020526040902080548390811061144557611445613787565b9060005260206000209060070201600401546000145b1561146557611503565b6001600160a01b038916600090815260066020526040902080548390811061148f5761148f613787565b906000526020600020906007020160020154600660008b6001600160a01b03166001600160a01b0316815260200190815260200160002084815481106114d7576114d7613787565b906000526020600020906007020160020154106114fe576114f9898484612438565b611503565b611515565b8061150d816137b3565b915050611326565b505050505050505050565b611528612386565b6115326000612ef0565b565b6007602052816000526040600020818154811061155057600080fd5b90600052602060002001600091509150505481565b61156d612386565b6001600160a01b0381166000818152600a6020908152604091829020805460ff191660019081179091558251938452908301527f0d7fd1e314b29407db3d79c46ecf1fa3d2108961fab8d20584277358cac41e89910161085e565b600660205281600052604060002081815481106115e457600080fd5b60009182526020909120600790910201805460018201546002830154600484015460058501546006909501546001600160a01b03909416965091945092909160ff808316926101009004169087565b6004818154811061164357600080fd5b6000918252602090912001546001600160a01b0316905081565b60005b6001600160a01b0382166000908152600660205260409020548110156116e1576001600160a01b03821660009081526006602052604090208054829081106116aa576116aa613787565b600091825260209091206005600790920201015460ff166116cf576116cf8282610869565b806116d9816137b3565b915050611660565b506040516001600160a01b03821681527f3cab4e2d2c607f12757ae45690b930ae60843210bf1e8930f483edb6e296cb589060200161085e565b60008282111561172a57600080fd5b611734828461398f565b9392505050565b6001600160a01b0383166000908152600a6020526040902054839060ff161561179b5760405162461bcd60e51b815260206004820152601260248201527110dbdb9d1c9858dd081a5cc81c185d5cd95960721b604482015260640161090e565b600083116117dc5760405162461bcd60e51b815260206004820152600e60248201526d1a5b9d985b1a5908185b5bdd5b9d60921b604482015260640161090e565b60006127106003546127106117f191906137ce565b866001600160a01b031663313ce5676040518163ffffffff1660e01b8152600401602060405180830381865afa15801561182f573d6000803e3d6000fd5b505050506040513d601f19601f8201168201806040525081019061185391906137e6565b61185e90600a6138e3565b61186886886138ef565b611872919061390e565b61187c91906138ef565b611886919061390e565b6040516323b872dd60e01b81529091506001600160a01b037f000000000000000000000000000000000000000000000000000000000000000016906323b872dd906118d99033903090869060040161396b565b6020604051808303816000875af11580156118f8573d6000803e3d6000fd5b505050506040513d601f19601f8201168201806040525081019061191c9190613949565b506040805161010081018252338152602080820187815282840187815284516000808252818501875260608601918252608086018b905260a08601819052600160c087018190524260e08801526001600160a01b038d81168352600687529782208054808301825590835291869020875160079093020180546001600160a01b031916929098169190911787559251928601929092555160028501555180519293849390926119d292600385019291019061341d565b506080820151600482015560a082015160058201805460c085015115156101000261ff00199315159390931661ffff199091161791909117905560e0909101516006909101556001600160a01b03861660008181526007602090815260408220805460018181018355828552928420018390559290915290541415611ad757600480546001810182556000919091527f8a35acfbc15ff81a39ae7d344fd709f28e8600b4aa8c65c6b64bfe7fe36bd19b0180546001600160a01b0319166001600160a01b0388161790556040517f1df545e94802107a856bb8a484d7cd6203e369d7b4815120c873cebb2bfb252c90611ace9088904290613930565b60405180910390a15b6001600160a01b038616600090815260076020526040812054611afc9060019061398f565b6001600160a01b03881660009081526007602052604090205490915060011015611be8576001600160a01b038716600090815260076020526040812054611b459060029061398f565b90505b6001600160a01b03881660009081526006602090815260408083206007909252909120805483908110611b7d57611b7d613787565b906000526020600020015481548110611b9857611b98613787565b906000526020600020906007020160020154836040015111611bc657611bbf8160016137ce565b9150611be6565b80611bd45760009150611be6565b80611bde816139a6565b915050611b48565b505b6001600160a01b038716600090815260076020526040812054611c0d9060019061398f565b90505b81811115611caa576001600160a01b0388166000908152600760205260409020611c3b60018361398f565b81548110611c4b57611c4b613787565b9060005260206000200154600760008a6001600160a01b03166001600160a01b031681526020019081526020016000208281548110611c8c57611c8c613787565b60009182526020909120015580611ca2816139a6565b915050611c10565b506001600160a01b038716600090815260066020526040902054611cd09060019061398f565b6001600160a01b0388166000908152600760205260409020805483908110611cfa57611cfa613787565b60009182526020808320909101929092556001600160a01b038916815260069091526040902054611d2d9060019061398f565b604080516001600160a01b038a16815233602082015290810188905260608101879052600160808201527fca886b3852c1c7992abfda91d86e8ed48f496dbc164332b3453bcb95cf25f3db9060a00160405180910390a26001600160a01b0387166000908152600660205260408120548190611dab9060019061398f565b905060005b6001600160a01b038a16600090815260086020526040902054811015611f9f576001600160a01b038a166000908152600860205260409020805482908110611dfa57611dfa613787565b90600052602060002001549250600660008b6001600160a01b03166001600160a01b031681526020019081526020016000208381548110611e3d57611e3d613787565b600091825260209091206005600790920201015460ff16151560011480611e9f57506001600160a01b038a166000908152600660205260409020805484908110611e8957611e89613787565b9060005260206000209060070201600401546000145b80611ee557506001600160a01b038a166000908152600660205260409020805483908110611ecf57611ecf613787565b9060005260206000209060070201600401546000145b15611eef57611f8d565b6001600160a01b038a166000908152600660205260409020805483908110611f1957611f19613787565b906000526020600020906007020160020154600660008c6001600160a01b03166001600160a01b031681526020019081526020016000208481548110611f6157611f61613787565b90600052602060002090600702016002015411611f8857611f838a8385612438565b611f8d565b611f9f565b80611f97816137b3565b915050611db0565b50505050505050505050565b60005b6001600160a01b038216600090815260066020526040902054811015611fea57611fd88282612f40565b80611fe2816137b3565b915050611fae565b506001600160a01b038116600090815260066020526040812061200c91613468565b6001600160a01b038116600090815260076020526040812061202d91613489565b6001600160a01b038116600090815260086020526040812061204e91613489565b6040516001600160a01b03821681527fe8a27effe48bbe0ab68e76eebc02e83f87e8672f94b5568d3e4c29a39af7e6249060200161085e565b600080821161209557600080fd5b611734828461390e565b6001600160a01b038083166000908152600960209081526040808320938516835292905220545b92915050565b60006120d882846138ef565b90508215806120ef5750816120ed848361390e565b145b6120c657600080fd5b600061210482846137ce565b9050828110156120c657600080fd5b6008602052816000526040600020818154811061155057600080fd5b6001600160a01b0381166000908152600860205260408120546060919067ffffffffffffffff81111561216457612164613771565b60405190808252806020026020018201604052801561219d57816020015b61218a6133cb565b8152602001906001900390816121825790505b50905060005b6001600160a01b0384166000908152600860205260409020548110156107fc576001600160a01b038416600090815260066020908152604080832060089092529091208054839081106121f8576121f8613787565b90600052602060002001548154811061221357612213613787565b60009182526020918290206040805161010081018252600790930290910180546001600160a01b031683526001810154838501526002810154838301526003810180548351818702810187019094528084529394919360608601939283018282801561229e57602002820191906000526020600020905b81548152602001906001019080831161228a575b505050918352505060048201546020820152600582015460ff80821615156040840152610100909104161515606082015260069091015460809091015282518390839081106122ef576122ef613787565b60200260200101819052508080612305906137b3565b9150506121a3565b612315612386565b6001600160a01b03811661237a5760405162461bcd60e51b815260206004820152602660248201527f4f776e61626c653a206e6577206f776e657220697320746865207a65726f206160448201526564647265737360d01b606482015260840161090e565b61238381612ef0565b50565b6000546001600160a01b031633146115325760405162461bcd60e51b815260206004820181905260248201527f4f776e61626c653a2063616c6c6572206973206e6f7420746865206f776e6572604482015260640161090e565b6001600160a01b0382166000818152600260209081526040918290208490558151928352820183905242908201527f5c43325359179f4471448fd5c0247053caeec2178ee6378a1a3eb4b2030d314690606001610d2f565b6001600160a01b038316600090815260066020526040812080548390811061246257612462613787565b90600052602060002090600702016004015460066000866001600160a01b03166001600160a01b0316815260200190815260200160002084815481106124aa576124aa613787565b90600052602060002090600702016004015411612504576001600160a01b03841660009081526006602052604090208054849081106124eb576124eb613787565b9060005260206000209060070201600401549050612543565b6001600160a01b038416600090815260066020526040902080548390811061252e5761252e613787565b90600052602060002090600702016004015490505b6001600160a01b038416600090815260066020526040812080548490811061256d5761256d613787565b600091825260208083206007909202909101546001600160a01b038881168452600690925260408320805492909116935090869081106125af576125af613787565b600091825260209091206007909102015460405163a9059cbb60e01b81526001600160a01b0391821692509087169063a9059cbb906125f49084908790600401613930565b6020604051808303816000875af1158015612613573d6000803e3d6000fd5b505050506040513d601f19601f820116820180604052508101906126379190613949565b506001600160a01b038616600090815260066020526040902080548491908790811061266557612665613787565b90600052602060002090600702016004016000828254612685919061398f565b90915550506001600160a01b03861660009081526006602052604090208054849190869081106126b7576126b7613787565b906000526020600020906007020160040160008282546126d7919061398f565b90915550506001600160a01b038616600090815260066020526040812080548690811061270657612706613787565b906000526020600020906007020160020154905060066000886001600160a01b03166001600160a01b03168152602001908152602001600020858154811061275057612750613787565b6000918252602080832060066007909302018201546001600160a01b038b168452919052604090912080548890811061278b5761278b613787565b90600052602060002090600702016006015410156128f2576127ad87826123e0565b60006127106003546127106127c2919061398f565b896001600160a01b031663313ce5676040518163ffffffff1660e01b8152600401602060405180830381865afa158015612800573d6000803e3d6000fd5b505050506040513d601f19601f8201168201806040525081019061282491906137e6565b61282f90600a6138e3565b61283985896138ef565b612843919061390e565b61284d91906138ef565b612857919061390e565b60405163a9059cbb60e01b81529091506001600160a01b037f0000000000000000000000000000000000000000000000000000000000000000169063a9059cbb906128a89087908590600401613930565b6020604051808303816000875af11580156128c7573d6000803e3d6000fd5b505050506040513d601f19601f820116820180604052508101906128eb9190613949565b5050612c0a565b6128fc87826123e0565b6000612710600354612710612911919061398f565b896001600160a01b031663313ce5676040518163ffffffff1660e01b8152600401602060405180830381865afa15801561294f573d6000803e3d6000fd5b505050506040513d601f19601f8201168201806040525081019061297391906137e6565b61297e90600a6138e3565b61298885896138ef565b612992919061390e565b61299c91906138ef565b6129a6919061390e565b60405163a9059cbb60e01b81529091506001600160a01b037f0000000000000000000000000000000000000000000000000000000000000000169063a9059cbb906129f79087908590600401613930565b6020604051808303816000875af1158015612a16573d6000803e3d6000fd5b505050506040513d601f19601f82011682018060405250810190612a3a9190613949565b506001600160a01b0388166000908152600660205260409020805488908110612a6557612a65613787565b906000526020600020906007020160020154821015612c08576000612710600354612710612a9391906137ce565b8a6001600160a01b031663313ce5676040518163ffffffff1660e01b8152600401602060405180830381865afa158015612ad1573d6000803e3d6000fd5b505050506040513d601f19601f82011682018060405250810190612af591906137e6565b612b0090600a6138e3565b6001600160a01b038c16600090815260066020526040902080548791908d908110612b2d57612b2d613787565b906000526020600020906007020160020154612b49919061398f565b612b53908a6138ef565b612b5d919061390e565b612b6791906138ef565b612b71919061390e565b60405163a9059cbb60e01b81529091506001600160a01b037f0000000000000000000000000000000000000000000000000000000000000000169063a9059cbb90612bc29087908590600401613930565b6020604051808303816000875af1158015612be1573d6000803e3d6000fd5b505050506040513d601f19601f82011682018060405250810190612c059190613949565b50505b505b60006040518060c0016040528086815260200183815260200188815260200187815260200142815260200160001515815250905060056000896001600160a01b03166001600160a01b03168152602001908152602001600020819080600181540180825580915050600190039060005260206000209060060201600090919091909150600082015181600001556020820151816001015560408201518160020155606082015181600301556080820151816004015560a08201518160050160006101000a81548160ff021916908315150217905550505060006001600560008b6001600160a01b03166001600160a01b0316815260200190815260200160002080549050612d18919061398f565b6001600160a01b038a16600090815260066020526040902080549192509089908110612d4657612d46613787565b600091825260208083206003600790930201919091018054600181018255908352818320018390556001600160a01b038b1682526006905260409020805488908110612d9457612d94613787565b6000918252602080832060036007909302019190910180546001810182559083529120018190556040517fe218c3d1d8b1ec772927a9ce1f2298a05a485dac978259bdfe6db25bb4289bf690612def908b9088908b9061396b565b60405180910390a16001600160a01b03808a16600090815260096020908152604080832093891683529290529081208054889290612e2e90849061398f565b90915550506040517fe218c3d1d8b1ec772927a9ce1f2298a05a485dac978259bdfe6db25bb4289bf690612e67908b9087908c9061396b565b60405180910390a1604080516001600160a01b038b8116825260208201899052818301869052606082018490528681166080830152871660a082015260c081018a905260e081018990524261010082015290517fb74ac5b7de6f52983dc4c6b6dd75959b128df961c258683a83e2e71816a3d42f918190036101200190a1505050505050505050565b600080546001600160a01b038381166001600160a01b0319831681178455604051919092169283917f8be0079c531659141344cd1fd0a4f28419497f9722a3daafe3b4186f6b6457e09190a35050565b6001600160a01b0382166000908152600660205260409020805433919083908110612f6d57612f6d613787565b60009182526020909120600790910201546001600160a01b03161480612f9d57506000546001600160a01b031633145b612fe95760405162461bcd60e51b815260206004820152601e60248201527f596f7520617265206e6f74206f776e6572206f6620746865206f726465720000604482015260640161090e565b6001600160a01b038216600090815260066020526040812080548390811061301357613013613787565b906000526020600020906007020160040154111561061a576001600160a01b038216600090815260066020526040902080548290811061305557613055613787565b600091825260209091206005600790920201015460ff1615613075575050565b6001600160a01b038216600090815260066020526040902080548290811061309f5761309f613787565b600091825260209091206005600790920201015460ff610100909104161515600114156132e15760006127106003546127106130db91906137ce565b846001600160a01b031663313ce5676040518163ffffffff1660e01b8152600401602060405180830381865afa158015613119573d6000803e3d6000fd5b505050506040513d601f19601f8201168201806040525081019061313d91906137e6565b61314890600a6138e3565b6001600160a01b038616600090815260066020526040902080548690811061317257613172613787565b90600052602060002090600702016002015460066000886001600160a01b03166001600160a01b0316815260200190815260200160002086815481106131ba576131ba613787565b9060005260206000209060070201600401546131d691906138ef565b6131e0919061390e565b6131ea91906138ef565b6131f4919061390e565b90507f00000000000000000000000000000000000000000000000000000000000000006001600160a01b031663a9059cbb60066000866001600160a01b03166001600160a01b03168152602001908152602001600020848154811061325b5761325b613787565b60009182526020909120600790910201546040516001600160e01b031960e084901b168152613298916001600160a01b0316908590600401613930565b6020604051808303816000875af11580156132b7573d6000803e3d6000fd5b505050506040513d601f19601f820116820180604052508101906132db9190613949565b50505050565b6001600160a01b0382166000818152600660205260409020805463a9059cbb91908490811061331257613312613787565b600091825260208083206007909202909101546001600160a01b0387811684526006909252604090922080549190921691908590811061335457613354613787565b9060005260206000209060070201600401546040518363ffffffff1660e01b8152600401613383929190613930565b6020604051808303816000875af11580156133a2573d6000803e3d6000fd5b505050506040513d601f19601f820116820180604052508101906133c69190613949565b505050565b60405180610100016040528060006001600160a01b0316815260200160008152602001600081526020016060815260200160008152602001600015158152602001600015158152602001600081525090565b828054828255906000526020600020908101928215613458579160200282015b8281111561345857825182559160200191906001019061343d565b506134649291506134a3565b5090565b508054600082556007029060005260206000209081019061238391906134b8565b508054600082559060005260206000209081019061238391905b5b8082111561346457600081556001016134a4565b808211156134645780546001600160a01b0319168155600060018201819055600282018190556134eb6003830182613489565b5060006004820181905560058201805461ffff1916905560068201556007016134b8565b80356001600160a01b038116811461352657600080fd5b919050565b60006020828403121561353d57600080fd5b6117348261350f565b602080825282518282018190526000919060409081850190868401855b828110156135b35781518051855286810151878601528581015186860152606080820151908601526080808201519086015260a09081015115159085015260c09093019290850190600101613563565b5091979650505050505050565b600080604083850312156135d357600080fd5b6135dc8361350f565b946020939093013593505050565b60006020808301818452808551808352604092508286019150828160051b8701018488016000805b848110156136c157898403603f19018652825180516001600160a01b03168552888101518986015287810151888601526060808201516101009187018290528051918701829052610120870191908b0190855b818110156136815782518452928c0192918c0191600101613665565b5050506080828101519087015260a08083015115159087015260c08083015115159087015260e09182015191909501529487019491870191600101613612565b50919998505050505050505050565b6000806000606084860312156136e557600080fd5b6136ee8461350f565b95602085013595506040909401359392505050565b60006020828403121561371557600080fd5b5035919050565b6000806040838503121561372f57600080fd5b6137388361350f565b91506137466020840161350f565b90509250929050565b6000806040838503121561376257600080fd5b50508035926020909101359150565b634e487b7160e01b600052604160045260246000fd5b634e487b7160e01b600052603260045260246000fd5b634e487b7160e01b600052601160045260246000fd5b60006000198214156137c7576137c761379d565b5060010190565b600082198211156137e1576137e161379d565b500190565b6000602082840312156137f857600080fd5b5051919050565b600181815b8085111561383a5781600019048211156138205761382061379d565b8085161561382d57918102915b93841c9390800290613804565b509250929050565b600082613851575060016120c6565b8161385e575060006120c6565b8160018114613874576002811461387e5761389a565b60019150506120c6565b60ff84111561388f5761388f61379d565b50506001821b6120c6565b5060208310610133831016604e8410600b84101617156138bd575081810a6120c6565b6138c783836137ff565b80600019048211156138db576138db61379d565b029392505050565b60006117348383613842565b60008160001904831182151516156139095761390961379d565b500290565b60008261392b57634e487b7160e01b600052601260045260246000fd5b500490565b6001600160a01b03929092168252602082015260400190565b60006020828403121561395b57600080fd5b8151801515811461173457600080fd5b6001600160a01b039384168152919092166020820152604081019190915260600190565b6000828210156139a1576139a161379d565b500390565b6000816139b5576139b561379d565b50600019019056fea2646970667358221220f958077f5bd6a10caf61750045abc3f3339b6f737a898f4dfc7d10fe882704b264736f6c634300080a0033",
  "linkReferences": {},
  "deployedLinkReferences": {}
}