{
  "_format": "hh-sol-artifact-1",
  "contractName": "ProjectTrade",
  "sourceName": "contracts/ProjectTrade.sol",
  "abi": [
    {
      "inputs": [
        {
          "internalType": "address",
          "name": "_YUSD",
          "type": "address"
        },
        {
          "internalType": "address",
          "name": "_treasury",
          "type": "address"
        }
      ],
      "stateMutability": "nonpayable",
      "type": "constructor"
    },
    {
      "anonymous": false,
      "inputs": [
        {
          "indexed": false,
          "internalType": "address",
          "name": "pToken",
          "type": "address"
        },
        {
          "indexed": false,
          "internalType": "uint256",
          "name": "timestamp",
          "type": "uint256"
        }
      ],
      "name": "AddProjectToken",
      "type": "event"
    },
    {
      "anonymous": false,
      "inputs": [
        {
          "indexed": false,
          "internalType": "address",
          "name": "pToken",
          "type": "address"
        },
        {
          "indexed": false,
          "internalType": "address",
          "name": "owner",
          "type": "address"
        },
        {
          "indexed": true,
          "internalType": "uint256",
          "name": "orderId",
          "type": "uint256"
        },
        {
          "indexed": false,
          "internalType": "uint256",
          "name": "amount",
          "type": "uint256"
        },
        {
          "indexed": false,
          "internalType": "uint256",
          "name": "orderPrice",
          "type": "uint256"
        },
        {
          "indexed": false,
          "internalType": "bool",
          "name": "isBuy",
          "type": "bool"
        }
      ],
      "name": "OrderCreated",
      "type": "event"
    },
    {
      "anonymous": false,
      "inputs": [
        {
          "indexed": true,
          "internalType": "address",
          "name": "previousOwner",
          "type": "address"
        },
        {
          "indexed": true,
          "internalType": "address",
          "name": "newOwner",
          "type": "address"
        }
      ],
      "name": "OwnershipTransferred",
      "type": "event"
    },
    {
      "anonymous": false,
      "inputs": [
        {
          "indexed": false,
          "internalType": "address",
          "name": "pToken",
          "type": "address"
        },
        {
          "indexed": false,
          "internalType": "uint256",
          "name": "price",
          "type": "uint256"
        },
        {
          "indexed": false,
          "internalType": "uint256",
          "name": "timestamp",
          "type": "uint256"
        }
      ],
      "name": "SetPrice",
      "type": "event"
    },
    {
      "anonymous": false,
      "inputs": [
        {
          "indexed": false,
          "internalType": "address",
          "name": "pToken",
          "type": "address"
        },
        {
          "indexed": false,
          "internalType": "address",
          "name": "owner",
          "type": "address"
        },
        {
          "indexed": false,
          "internalType": "uint256",
          "name": "orderId",
          "type": "uint256"
        }
      ],
      "name": "TradeOrder",
      "type": "event"
    },
    {
      "anonymous": false,
      "inputs": [
        {
          "indexed": false,
          "internalType": "address",
          "name": "pToken",
          "type": "address"
        },
        {
          "indexed": false,
          "internalType": "uint256",
          "name": "amount",
          "type": "uint256"
        },
        {
          "indexed": false,
          "internalType": "uint256",
          "name": "tradePrice",
          "type": "uint256"
        },
        {
          "indexed": false,
          "internalType": "uint256",
          "name": "transactionId",
          "type": "uint256"
        },
        {
          "indexed": false,
          "internalType": "address",
          "name": "buyOwner",
          "type": "address"
        },
        {
          "indexed": false,
          "internalType": "address",
          "name": "sellOwner",
          "type": "address"
        },
        {
          "indexed": false,
          "internalType": "uint256",
          "name": "buyOrderId",
          "type": "uint256"
        },
        {
          "indexed": false,
          "internalType": "uint256",
          "name": "sellOrderId",
          "type": "uint256"
        },
        {
          "indexed": false,
          "internalType": "uint256",
          "name": "timestamp",
          "type": "uint256"
        }
      ],
      "name": "TradeTransaction",
      "type": "event"
    },
    {
      "inputs": [],
      "name": "FEE",
      "outputs": [
        {
          "internalType": "uint256",
          "name": "",
          "type": "uint256"
        }
      ],
      "stateMutability": "view",
      "type": "function"
    },
    {
      "inputs": [],
      "name": "PERCENT_PRECISION",
      "outputs": [
        {
          "internalType": "uint256",
          "name": "",
          "type": "uint256"
        }
      ],
      "stateMutability": "view",
      "type": "function"
    },
    {
      "inputs": [
        {
          "internalType": "uint256",
          "name": "",
          "type": "uint256"
        }
      ],
      "name": "PTokens",
      "outputs": [
        {
          "internalType": "address",
          "name": "",
          "type": "address"
        }
      ],
      "stateMutability": "view",
      "type": "function"
    },
    {
      "inputs": [],
      "name": "YUSD",
      "outputs": [
        {
          "internalType": "contract IERC20",
          "name": "",
          "type": "address"
        }
      ],
      "stateMutability": "view",
      "type": "function"
    },
    {
      "inputs": [
        {
          "internalType": "address",
          "name": "_address",
          "type": "address"
        }
      ],
      "name": "addressToString",
      "outputs": [
        {
          "internalType": "string",
          "name": "",
          "type": "string"
        }
      ],
      "stateMutability": "pure",
      "type": "function"
    },
    {
      "inputs": [
        {
          "internalType": "address",
          "name": "_pToken",
          "type": "address"
        },
        {
          "internalType": "uint256",
          "name": "_amount",
          "type": "uint256"
        },
        {
          "internalType": "uint256",
          "name": "_price",
          "type": "uint256"
        }
      ],
      "name": "buy",
      "outputs": [],
      "stateMutability": "nonpayable",
      "type": "function"
    },
    {
      "inputs": [
        {
          "internalType": "address",
          "name": "",
          "type": "address"
        },
        {
          "internalType": "uint256",
          "name": "",
          "type": "uint256"
        }
      ],
      "name": "buyOrders",
      "outputs": [
        {
          "internalType": "uint256",
          "name": "",
          "type": "uint256"
        }
      ],
      "stateMutability": "view",
      "type": "function"
    },
    {
      "inputs": [
        {
          "internalType": "bytes",
          "name": "_bytes",
          "type": "bytes"
        }
      ],
      "name": "bytesToHexString",
      "outputs": [
        {
          "internalType": "string",
          "name": "",
          "type": "string"
        }
      ],
      "stateMutability": "pure",
      "type": "function"
    },
    {
      "inputs": [
        {
          "internalType": "string",
          "name": "a",
          "type": "string"
        },
        {
          "internalType": "string",
          "name": "b",
          "type": "string"
        }
      ],
      "name": "concatStrings",
      "outputs": [
        {
          "internalType": "string",
          "name": "",
          "type": "string"
        }
      ],
      "stateMutability": "pure",
      "type": "function"
    },
    {
      "inputs": [
        {
          "internalType": "address",
          "name": "_pToken",
          "type": "address"
        }
      ],
      "name": "getBuyOrders",
      "outputs": [
        {
          "components": [
            {
              "internalType": "address",
              "name": "owner",
              "type": "address"
            },
            {
              "internalType": "uint256",
              "name": "totalAmount",
              "type": "uint256"
            },
            {
              "internalType": "uint256",
              "name": "orderPrice",
              "type": "uint256"
            },
            {
              "internalType": "uint256[]",
              "name": "transactionIds",
              "type": "uint256[]"
            },
            {
              "internalType": "uint256",
              "name": "remainingAmount",
              "type": "uint256"
            },
            {
              "internalType": "bool",
              "name": "isCancelled",
              "type": "bool"
            },
            {
              "internalType": "uint256",
              "name": "timestamp",
              "type": "uint256"
            }
          ],
          "internalType": "struct ProjectTrade.Order[]",
          "name": "",
          "type": "tuple[]"
        }
      ],
      "stateMutability": "view",
      "type": "function"
    },
    {
      "inputs": [
        {
          "internalType": "address",
          "name": "_pToken",
          "type": "address"
        }
      ],
      "name": "getSellOrders",
      "outputs": [
        {
          "components": [
            {
              "internalType": "address",
              "name": "owner",
              "type": "address"
            },
            {
              "internalType": "uint256",
              "name": "totalAmount",
              "type": "uint256"
            },
            {
              "internalType": "uint256",
              "name": "orderPrice",
              "type": "uint256"
            },
            {
              "internalType": "uint256[]",
              "name": "transactionIds",
              "type": "uint256[]"
            },
            {
              "internalType": "uint256",
              "name": "remainingAmount",
              "type": "uint256"
            },
            {
              "internalType": "bool",
              "name": "isCancelled",
              "type": "bool"
            },
            {
              "internalType": "uint256",
              "name": "timestamp",
              "type": "uint256"
            }
          ],
          "internalType": "struct ProjectTrade.Order[]",
          "name": "",
          "type": "tuple[]"
        }
      ],
      "stateMutability": "view",
      "type": "function"
    },
    {
      "inputs": [
        {
          "internalType": "address",
          "name": "_pToken",
          "type": "address"
        }
      ],
      "name": "getTransactions",
      "outputs": [
        {
          "components": [
            {
              "internalType": "uint256",
              "name": "amount",
              "type": "uint256"
            },
            {
              "internalType": "uint256",
              "name": "buyPrice",
              "type": "uint256"
            },
            {
              "internalType": "uint256",
              "name": "sellPrice",
              "type": "uint256"
            },
            {
              "internalType": "uint256",
              "name": "buyOrderId",
              "type": "uint256"
            },
            {
              "internalType": "uint256",
              "name": "sellOrderId",
              "type": "uint256"
            },
            {
              "internalType": "uint256",
              "name": "timestamp",
              "type": "uint256"
            }
          ],
          "internalType": "struct ProjectTrade.Transaction[]",
          "name": "transaction",
          "type": "tuple[]"
        }
      ],
      "stateMutability": "view",
      "type": "function"
    },
    {
      "inputs": [
        {
          "internalType": "address",
          "name": "",
          "type": "address"
        },
        {
          "internalType": "uint256",
          "name": "",
          "type": "uint256"
        }
      ],
      "name": "orders",
      "outputs": [
        {
          "internalType": "address",
          "name": "owner",
          "type": "address"
        },
        {
          "internalType": "uint256",
          "name": "totalAmount",
          "type": "uint256"
        },
        {
          "internalType": "uint256",
          "name": "orderPrice",
          "type": "uint256"
        },
        {
          "internalType": "uint256",
          "name": "remainingAmount",
          "type": "uint256"
        },
        {
          "internalType": "bool",
          "name": "isCancelled",
          "type": "bool"
        },
        {
          "internalType": "uint256",
          "name": "timestamp",
          "type": "uint256"
        }
      ],
      "stateMutability": "view",
      "type": "function"
    },
    {
      "inputs": [],
      "name": "owner",
      "outputs": [
        {
          "internalType": "address",
          "name": "",
          "type": "address"
        }
      ],
      "stateMutability": "view",
      "type": "function"
    },
    {
      "inputs": [],
      "name": "renounceOwnership",
      "outputs": [],
      "stateMutability": "nonpayable",
      "type": "function"
    },
    {
      "inputs": [
        {
          "internalType": "uint256",
          "name": "a",
          "type": "uint256"
        },
        {
          "internalType": "uint256",
          "name": "b",
          "type": "uint256"
        }
      ],
      "name": "safeAdd",
      "outputs": [
        {
          "internalType": "uint256",
          "name": "c",
          "type": "uint256"
        }
      ],
      "stateMutability": "pure",
      "type": "function"
    },
    {
      "inputs": [
        {
          "internalType": "uint256",
          "name": "a",
          "type": "uint256"
        },
        {
          "internalType": "uint256",
          "name": "b",
          "type": "uint256"
        }
      ],
      "name": "safeDiv",
      "outputs": [
        {
          "internalType": "uint256",
          "name": "c",
          "type": "uint256"
        }
      ],
      "stateMutability": "pure",
      "type": "function"
    },
    {
      "inputs": [
        {
          "internalType": "uint256",
          "name": "a",
          "type": "uint256"
        },
        {
          "internalType": "uint256",
          "name": "b",
          "type": "uint256"
        }
      ],
      "name": "safeMul",
      "outputs": [
        {
          "internalType": "uint256",
          "name": "c",
          "type": "uint256"
        }
      ],
      "stateMutability": "pure",
      "type": "function"
    },
    {
      "inputs": [
        {
          "internalType": "uint256",
          "name": "a",
          "type": "uint256"
        },
        {
          "internalType": "uint256",
          "name": "b",
          "type": "uint256"
        }
      ],
      "name": "safeSub",
      "outputs": [
        {
          "internalType": "uint256",
          "name": "c",
          "type": "uint256"
        }
      ],
      "stateMutability": "pure",
      "type": "function"
    },
    {
      "inputs": [
        {
          "internalType": "address",
          "name": "_pToken",
          "type": "address"
        },
        {
          "internalType": "uint256",
          "name": "_amount",
          "type": "uint256"
        },
        {
          "internalType": "uint256",
          "name": "_price",
          "type": "uint256"
        }
      ],
      "name": "sell",
      "outputs": [],
      "stateMutability": "nonpayable",
      "type": "function"
    },
    {
      "inputs": [
        {
          "internalType": "address",
          "name": "",
          "type": "address"
        },
        {
          "internalType": "uint256",
          "name": "",
          "type": "uint256"
        }
      ],
      "name": "sellOrders",
      "outputs": [
        {
          "internalType": "uint256",
          "name": "",
          "type": "uint256"
        }
      ],
      "stateMutability": "view",
      "type": "function"
    },
    {
      "inputs": [
        {
          "internalType": "address",
          "name": "_pToken",
          "type": "address"
        },
        {
          "internalType": "uint256",
          "name": "_price",
          "type": "uint256"
        }
      ],
      "name": "setPriceByAdmin",
      "outputs": [],
      "stateMutability": "nonpayable",
      "type": "function"
    },
    {
      "inputs": [
        {
          "internalType": "address",
          "name": "",
          "type": "address"
        },
        {
          "internalType": "uint256",
          "name": "",
          "type": "uint256"
        }
      ],
      "name": "transactions",
      "outputs": [
        {
          "internalType": "uint256",
          "name": "amount",
          "type": "uint256"
        },
        {
          "internalType": "uint256",
          "name": "buyPrice",
          "type": "uint256"
        },
        {
          "internalType": "uint256",
          "name": "sellPrice",
          "type": "uint256"
        },
        {
          "internalType": "uint256",
          "name": "buyOrderId",
          "type": "uint256"
        },
        {
          "internalType": "uint256",
          "name": "sellOrderId",
          "type": "uint256"
        },
        {
          "internalType": "uint256",
          "name": "timestamp",
          "type": "uint256"
        }
      ],
      "stateMutability": "view",
      "type": "function"
    },
    {
      "inputs": [
        {
          "internalType": "address",
          "name": "newOwner",
          "type": "address"
        }
      ],
      "name": "transferOwnership",
      "outputs": [],
      "stateMutability": "nonpayable",
      "type": "function"
    },
    {
      "inputs": [],
      "name": "treasury",
      "outputs": [
        {
          "internalType": "address",
          "name": "",
          "type": "address"
        }
      ],
      "stateMutability": "view",
      "type": "function"
    }
  ],
  "bytecode": "0x60a060405260136003553480156200001657600080fd5b50604051620035b3380380620035b38339810160408190526200003991620000da565b62000044336200006d565b6001600160a01b03918216608052600180546001600160a01b0319169190921617905562000112565b600080546001600160a01b038381166001600160a01b0319831681178455604051919092169283917f8be0079c531659141344cd1fd0a4f28419497f9722a3daafe3b4186f6b6457e09190a35050565b80516001600160a01b0381168114620000d557600080fd5b919050565b60008060408385031215620000ee57600080fd5b620000f983620000bd565b91506200010960208401620000bd565b90509250929050565b6080516134776200013c6000396000818161024e01528181611117015261213f01526134776000f3fe608060405234801561001057600080fd5b50600436106101735760003560e01c80637c982796116100de578063c57981b511610097578063e97d574011610071578063e97d5740146103c2578063eac92f2a146103d5578063f2fde38b146103e8578063ffe8e372146103fb57600080fd5b8063c57981b514610393578063d05c78da1461039c578063e6cb9013146103af57600080fd5b80637c982796146103235780637d520c22146103365780638da5cb5b14610349578063a293d1e81461035a578063a59ac6dd1461036d578063b5931f7c1461038057600080fd5b80636190cefb116101305780636190cefb1461024957806361d027b3146102885780636a2724621461029b578063715018a6146102ae57806371d177cb146102b6578063793b8c6d146102d757600080fd5b80630f8cda201461017857806312600aa3146101a157806314538128146101c15780634142e8a914610201578063551f7a50146102165780635e57966d14610236575b600080fd5b61018b610186366004612e6a565b610404565b6040516101989190612e85565b60405180910390f35b6101b46101af366004612fa9565b6104b5565b604051610198919061300d565b6101d46101cf366004613062565b6105f3565b604080519687526020870195909552938501929092526060840152608083015260a082015260c001610198565b61021461020f366004613062565b610647565b005b610229610224366004612e6a565b61065d565b604051610198919061308c565b6101b4610244366004612e6a565b610831565b6102707f000000000000000000000000000000000000000000000000000000000000000081565b6040516001600160a01b039091168152602001610198565b600154610270906001600160a01b031681565b6102146102a9366004613165565b610875565b610214610d81565b6102c96102c4366004613062565b610d95565b604051908152602001610198565b6102ea6102e5366004613062565b610dc6565b604080516001600160a01b03909716875260208701959095529385019290925260608401521515608083015260a082015260c001610198565b610270610331366004613198565b610e2a565b6101b46103443660046131b1565b610e54565b6000546001600160a01b0316610270565b6102c9610368366004613202565b610ff9565b61021461037b366004613165565b611012565b6102c961038e366004613202565b6115da565b6102c960035481565b6102c96103aa366004613202565b6115f2565b6102c96103bd366004613202565b61161e565b6102c96103d0366004613062565b611639565b6102296103e3366004612e6a565b611655565b6102146103f6366004612e6a565b611822565b6102c961271081565b6001600160a01b0381166000908152600560209081526040808320805482518185028101850190935280835260609492939192909184015b828210156104aa57838290600052602060002090600602016040518060c001604052908160008201548152602001600182015481526020016002820154815260200160038201548152602001600482015481526020016005820154815250508152602001906001019061043c565b505050509050919050565b80518251606091849184916000916104cd919061323a565b67ffffffffffffffff8111156104e5576104e5612efd565b6040519080825280601f01601f19166020018201604052801561050f576020820181803683370190505b50905060005b83518110156105765783818151811061053057610530613252565b602001015160f81c60f81b82828151811061054d5761054d613252565b60200101906001600160f81b031916908160001a9053508061056e81613268565b915050610515565b5060005b82518110156105e75782818151811061059557610595613252565b602001015160f81c60f81b828286516105ae919061323a565b815181106105be576105be613252565b60200101906001600160f81b031916908160001a905350806105df81613268565b91505061057a565b50925050505b92915050565b6005602052816000526040600020818154811061060f57600080fd5b600091825260209091206006909102018054600182015460028301546003840154600485015460059095015493965091945092909186565b61064f61189b565b61065982826118f5565b5050565b6001600160a01b0381166000908152600760205260408120546060919067ffffffffffffffff81111561069257610692612efd565b6040519080825280602002602001820160405280156106cb57816020015b6106b8612da6565b8152602001906001900390816106b05790505b50905060005b6001600160a01b03841660009081526007602052604090205481101561082a576001600160a01b0384166000908152600660209081526040808320600790925290912080548390811061072657610726613252565b90600052602060002001548154811061074157610741613252565b60009182526020918290206040805160e081018252600790930290910180546001600160a01b03168352600181015483850152600281015483830152600381018054835181870281018701909452808452939491936060860193928301828280156107cb57602002820191906000526020600020905b8154815260200190600101908083116107b7575b505050918352505060048201546020820152600582015460ff1615156040820152600690910154606090910152825183908390811061080c5761080c613252565b6020026020010181905250808061082290613268565b9150506106d1565b5092915050565b604051606082811b6bffffffffffffffffffffffff1916602083015290600090603401604051602081830303815290604052905061086e81610e54565b9392505050565b600082116108bb5760405162461bcd60e51b815260206004820152600e60248201526d1a5b9d985b1a5908185b5bdd5b9d60921b60448201526064015b60405180910390fd5b6040516323b872dd60e01b81526001600160a01b038416906323b872dd906108eb90339030908790600401613283565b6020604051808303816000875af115801561090a573d6000803e3d6000fd5b505050506040513d601f19601f8201168201806040525081019061092e91906132a7565b506040805160e0810182523381526020808201858152828401858152845160008082528185018752606086019182526080860189905260a086018190524260c08701526001600160a01b038a811682526006865296812080546001808201835591835291869020875160079093020180546001600160a01b031916929098169190911787559251928601929092555160028501555180519293849390926109dc926003850192910190612dee565b506080820151600482015560a082015160058201805460ff191691151591909117905560c0909101516006909101556001600160a01b03841660008181526008602090815260408083208054600181810183559185528385200184905593835260079091529020541415610ad157600480546001810182556000919091527f8a35acfbc15ff81a39ae7d344fd709f28e8600b4aa8c65c6b64bfe7fe36bd19b0180546001600160a01b0319166001600160a01b038616908117909155604080519182524260208301527f5894d980051dfa7ce028fe224e6882b4d47978576cc5c7042c22151d52042719910160405180910390a15b6001600160a01b038416600090815260086020526040812054610af6906001906132c9565b6001600160a01b03861660009081526008602052604090205490915060011015610bde576001600160a01b038516600090815260086020526040812054610b3f906001906132c9565b90505b6001600160a01b03861660009081526006602090815260408083206008909252909120805483908110610b7757610b77613252565b906000526020600020015481548110610b9257610b92613252565b906000526020600020906007020160020154836040015110610bc057610bb981600161323a565b9150610bdc565b80610bca57600091505b80610bd4816132e0565b915050610b42565b505b6001600160a01b038516600090815260086020526040812054610c03906001906132c9565b90505b81811115610cab5780610c1857610c99565b6001600160a01b0386166000908152600860205260409020610c3b6001836132c9565b81548110610c4b57610c4b613252565b906000526020600020015460086000886001600160a01b03166001600160a01b031681526020019081526020016000208281548110610c8c57610c8c613252565b6000918252602090912001555b80610ca3816132e0565b915050610c06565b506001600160a01b038516600090815260066020526040902054610cd1906001906132c9565b6001600160a01b0386166000908152600860205260409020805483908110610cfb57610cfb613252565b60009182526020808320909101929092556001600160a01b038716808252600283526040808320548151928352339483019490945281018790526060810192909252608082015281907fca886b3852c1c7992abfda91d86e8ed48f496dbc164332b3453bcb95cf25f3db9060a00160405180910390a2610d7a85611952565b5050505050565b610d8961189b565b610d93600061292f565b565b60076020528160005260406000208181548110610db157600080fd5b90600052602060002001600091509150505481565b60066020528160005260406000208181548110610de257600080fd5b60009182526020909120600790910201805460018201546002830154600484015460058501546006909501546001600160a01b03909416965091945092909160ff9091169086565b60048181548110610e3a57600080fd5b6000918252602090912001546001600160a01b0316905081565b60408051808201909152601081526f181899199a1a9b1b9c1cb0b131b232b360811b6020820152815160609190600090610e8f9060026132f7565b67ffffffffffffffff811115610ea757610ea7612efd565b6040519080825280601f01601f191660200182016040528015610ed1576020820181803683370190505b50905060005b8451811015610ff157826004868381518110610ef557610ef5613252565b016020015182516001600160f81b031990911690911c60f81c908110610f1d57610f1d613252565b01602001516001600160f81b03191682610f388360026132f7565b81518110610f4857610f48613252565b60200101906001600160f81b031916908160001a90535082858281518110610f7257610f72613252565b602091010151815160f89190911c600f16908110610f9257610f92613252565b01602001516001600160f81b03191682610fad8360026132f7565b610fb890600161323a565b81518110610fc857610fc8613252565b60200101906001600160f81b031916908160001a90535080610fe981613268565b915050610ed7565b509392505050565b60008282111561100857600080fd5b61086e82846132c9565b600082116110535760405162461bcd60e51b815260206004820152600e60248201526d1a5b9d985b1a5908185b5bdd5b9d60921b60448201526064016108b2565b6000612710600354612710611068919061323a565b856001600160a01b031663313ce5676040518163ffffffff1660e01b8152600401602060405180830381865afa1580156110a6573d6000803e3d6000fd5b505050506040513d601f19601f820116820180604052508101906110ca9190613316565b6110d590600a613413565b6110df85876132f7565b6110e9919061341f565b6110f391906132f7565b6110fd919061341f565b6040516323b872dd60e01b81529091506001600160a01b037f000000000000000000000000000000000000000000000000000000000000000016906323b872dd9061115090339030908690600401613283565b6020604051808303816000875af115801561116f573d6000803e3d6000fd5b505050506040513d601f19601f8201168201806040525081019061119391906132a7565b506040805160e081018252338152602080820186815282840186815284516000808252818501875260608601918252608086018a905260a086018190524260c08701526001600160a01b038b811682526006865296812080546001808201835591835291869020875160079093020180546001600160a01b03191692909816919091178755925192860192909255516002850155518051929384939092611241926003850192910190612dee565b506080820151600482015560a082015160058201805460ff191691151591909117905560c0909101516006909101556001600160a01b0385166000818152600760209081526040822080546001818101835582855292842001839055929091529054141561133057600480546001810182556000919091527f8a35acfbc15ff81a39ae7d344fd709f28e8600b4aa8c65c6b64bfe7fe36bd19b0180546001600160a01b0319166001600160a01b038716908117909155604080519182524260208301527f5894d980051dfa7ce028fe224e6882b4d47978576cc5c7042c22151d52042719910160405180910390a15b6001600160a01b038516600090815260076020526040812054611355906001906132c9565b6001600160a01b0387166000908152600760205260409020549091506001101561143d576001600160a01b03861660009081526007602052604081205461139e906001906132c9565b90505b6001600160a01b038716600090815260066020908152604080832060079092529091208054839081106113d6576113d6613252565b9060005260206000200154815481106113f1576113f1613252565b90600052602060002090600702016002015483604001511061141f5761141881600161323a565b915061143b565b8061142957600091505b80611433816132e0565b9150506113a1565b505b6001600160a01b038616600090815260076020526040812054611462906001906132c9565b90505b818111156114ff576001600160a01b03871660009081526007602052604090206114906001836132c9565b815481106114a0576114a0613252565b906000526020600020015460076000896001600160a01b03166001600160a01b0316815260200190815260200160002082815481106114e1576114e1613252565b600091825260209091200155806114f7816132e0565b915050611465565b506001600160a01b038616600090815260066020526040902054611525906001906132c9565b6001600160a01b038716600090815260076020526040902080548390811061154f5761154f613252565b60009182526020808320909101929092556001600160a01b03881680825260028352604091829020548251918252339382019390935290810187905260608101919091526001608082015281907fca886b3852c1c7992abfda91d86e8ed48f496dbc164332b3453bcb95cf25f3db9060a00160405180910390a26115d286611952565b505050505050565b60008082116115e857600080fd5b61086e828461341f565b60006115fe82846132f7565b9050821580611615575081611613848361341f565b145b6105ed57600080fd5b600061162a828461323a565b9050828110156105ed57600080fd5b60086020528160005260406000208181548110610db157600080fd5b6001600160a01b0381166000908152600860205260408120546060919067ffffffffffffffff81111561168a5761168a612efd565b6040519080825280602002602001820160405280156116c357816020015b6116b0612da6565b8152602001906001900390816116a85790505b50905060005b6001600160a01b03841660009081526008602052604090205481101561082a576001600160a01b0384166000908152600660209081526040808320600890925290912080548390811061171e5761171e613252565b90600052602060002001548154811061173957611739613252565b60009182526020918290206040805160e081018252600790930290910180546001600160a01b03168352600181015483850152600281015483830152600381018054835181870281018701909452808452939491936060860193928301828280156117c357602002820191906000526020600020905b8154815260200190600101908083116117af575b505050918352505060048201546020820152600582015460ff1615156040820152600690910154606090910152825183908390811061180457611804613252565b6020026020010181905250808061181a90613268565b9150506116c9565b61182a61189b565b6001600160a01b03811661188f5760405162461bcd60e51b815260206004820152602660248201527f4f776e61626c653a206e6577206f776e657220697320746865207a65726f206160448201526564647265737360d01b60648201526084016108b2565b6118988161292f565b50565b6000546001600160a01b03163314610d935760405162461bcd60e51b815260206004820181905260248201527f4f776e61626c653a2063616c6c6572206973206e6f7420746865206f776e657260448201526064016108b2565b6001600160a01b038216600081815260026020908152604091829020849055815192835282018390524282820152517f5c43325359179f4471448fd5c0247053caeec2178ee6378a1a3eb4b2030d31469181900360600190a15050565b60005b6001600160a01b038216600090815260086020526040902054811015612925576001600160a01b038216600090815260066020908152604080832060089092529091208054839081106119aa576119aa613252565b9060005260206000200154815481106119c5576119c5613252565b600091825260209091206005600790920201015460ff16151560011480611a4d57506001600160a01b03821660009081526006602090815260408083206008909252909120805483908110611a1c57611a1c613252565b906000526020600020015481548110611a3757611a37613252565b9060005260206000209060070201600401546000145b15611a5757612913565b60005b6001600160a01b038316600090815260076020526040902054811015612911576001600160a01b03831660009081526006602090815260408083206007909252909120805483908110611aaf57611aaf613252565b906000526020600020015481548110611aca57611aca613252565b600091825260209091206005600790920201015460ff16151560011480611b5257506001600160a01b03831660009081526006602090815260408083206007909252909120805483908110611b2157611b21613252565b906000526020600020015481548110611b3c57611b3c613252565b9060005260206000209060070201600401546000145b15611b5c576128ff565b815b6001600160a01b0384166000908152600860205260409020548110156128fd576001600160a01b03841660009081526006602090815260408083206008909252909120805483908110611bb357611bb3613252565b906000526020600020015481548110611bce57611bce613252565b600091825260209091206005600790920201015460ff16151560011480611c5657506001600160a01b03841660009081526006602090815260408083206008909252909120805483908110611c2557611c25613252565b906000526020600020015481548110611c4057611c40613252565b9060005260206000209060070201600401546000145b15611c60576128eb565b6001600160a01b03841660009081526006602090815260408083206007909252909120805484908110611c9557611c95613252565b906000526020600020015481548110611cb057611cb0613252565b60009182526020808320600260079093020191909101546001600160a01b03871683526006825260408084206008909352909220805484908110611cf657611cf6613252565b906000526020600020015481548110611d1157611d11613252565b906000526020600020906007020160020154116128e6576001600160a01b038416600090815260066020908152604080832060079092528220805485908110611d5c57611d5c613252565b906000526020600020015481548110611d7757611d77613252565b60009182526020808320600460079093020191909101546001600160a01b03881683526006825260408084206008909352909220805485908110611dbd57611dbd613252565b906000526020600020015481548110611dd857611dd8613252565b90600052602060002090600702016004015411611e58576001600160a01b03851660009081526006602090815260408083206008909252909120805484908110611e2457611e24613252565b906000526020600020015481548110611e3f57611e3f613252565b9060005260206000209060070201600401549050611ebd565b6001600160a01b03851660009081526006602090815260408083206007909252909120805485908110611e8d57611e8d613252565b906000526020600020015481548110611ea857611ea8613252565b90600052602060002090600702016004015490505b6001600160a01b038516600090815260066020908152604080832060089092529091208054611f2c928892909186908110611efa57611efa613252565b906000526020600020015481548110611f1557611f15613252565b9060005260206000209060070201600201546118f5565b6001600160a01b03851660008181526006602090815260408083206007909252909120805463a9059cbb92919087908110611f6957611f69613252565b906000526020600020015481548110611f8457611f84613252565b600091825260209091206007909102015460405160e083901b6001600160e01b03191681526001600160a01b039091166004820152602481018490526044016020604051808303816000875af1158015611fe2573d6000803e3d6000fd5b505050506040513d601f19601f8201168201806040525081019061200691906132a7565b50600061271060035461271061201c91906132c9565b876001600160a01b031663313ce5676040518163ffffffff1660e01b8152600401602060405180830381865afa15801561205a573d6000803e3d6000fd5b505050506040513d601f19601f8201168201806040525081019061207e9190613316565b61208990600a613413565b6001600160a01b038916600090815260066020908152604080832060079092529091208054899081106120be576120be613252565b9060005260206000200154815481106120d9576120d9613252565b906000526020600020906007020160020154856120f691906132f7565b612100919061341f565b61210a91906132f7565b612114919061341f565b6001600160a01b038781166000908152600660209081526040808320600890925290912080549394507f00000000000000000000000000000000000000000000000000000000000000009092169263a9059cbb92908790811061217957612179613252565b90600052602060002001548154811061219457612194613252565b600091825260209091206007909102015460405160e083901b6001600160e01b03191681526001600160a01b039091166004820152602481018490526044016020604051808303816000875af11580156121f2573d6000803e3d6000fd5b505050506040513d601f19601f8201168201806040525081019061221691906132a7565b506001600160a01b038616600090815260066020908152604080832060089092529091208054849291908690811061225057612250613252565b90600052602060002001548154811061226b5761226b613252565b9060005260206000209060070201600401600082825461228b91906132c9565b90915550506001600160a01b03861660009081526006602090815260408083206007909252909120805484929190879081106122c9576122c9613252565b9060005260206000200154815481106122e4576122e4613252565b9060005260206000209060070201600401600082825461230491906132c9565b90915550506040805160c0810182528381526001600160a01b0388166000908152600660209081528382206007825293822080549294918401928990811061234e5761234e613252565b90600052602060002001548154811061236957612369613252565b600091825260208083206002600790930201919091015483526001600160a01b038b16825260068152604080832060088352922080549390910192889081106123b4576123b4613252565b9060005260206000200154815481106123cf576123cf613252565b60009182526020808320600260079093020182015484528381018a905260408085018a9052426060958601526001600160a01b038d1680855260058084528286208054600181810183559188528588208a5160069283029091019081558a8701519281019290925589850151968201969096559688015160038801556080880151600488015560a08801519601959095559383529081528282206008909152919020805492935090918690811061248857612488613252565b9060005260206000200154815481106124a3576124a3613252565b600091825260208083206001600160a01b038b16845260059091526040909220546003600790920290920101906124dc906001906132c9565b815460018101835560009283526020808420909101919091556001600160a01b0389168252600681526040808320600790925290912080548790811061252457612524613252565b90600052602060002001548154811061253f5761253f613252565b600091825260208083206001600160a01b038b1684526005909152604090922054600360079092029092010190612578906001906132c9565b815460018101835560009283526020808420909101919091556001600160a01b0389168252600681526040808320600890925290912080547fe218c3d1d8b1ec772927a9ce1f2298a05a485dac978259bdfe6db25bb4289bf6928a929091889081106125e6576125e6613252565b90600052602060002001548154811061260157612601613252565b600091825260209091206007909102015460405161262b92916001600160a01b0316908890613283565b60405180910390a16001600160a01b0387166000908152600660209081526040808320600890925290912080547fb74ac5b7de6f52983dc4c6b6dd75959b128df961c258683a83e2e71816a3d42f928a9287928990811061268e5761268e613252565b9060005260206000200154815481106126a9576126a9613252565b60009182526020808320600260079093020191909101546001600160a01b038d16835260059091526040909120546126e3906001906132c9565b6001600160a01b038c166000908152600660209081526040808320600890925290912080548b90811061271857612718613252565b90600052602060002001548154811061273357612733613252565b906000526020600020906007020160000160009054906101000a90046001600160a01b0316600660008e6001600160a01b03166001600160a01b03168152602001908152602001600020600760008f6001600160a01b03166001600160a01b031681526020019081526020016000208c815481106127b3576127b3613252565b9060005260206000200154815481106127ce576127ce613252565b600091825260209182902060079091020154604080516001600160a01b0398891681529283019690965294810193909352606083019190915283166080820152911660a082015260c0810186905260e08101879052426101008201526101200160405180910390a16001600160a01b0387166000908152600660209081526040808320600790925290912080547fe218c3d1d8b1ec772927a9ce1f2298a05a485dac978259bdfe6db25bb4289bf6928a9290918990811061289157612891613252565b9060005260206000200154815481106128ac576128ac613252565b60009182526020909120600790910201546040516128d692916001600160a01b0316908990613283565b60405180910390a15050506128eb565b6128fd565b806128f581613268565b915050611b5e565b505b8061290981613268565b915050611a5a565b505b8061291d81613268565b915050611955565b506118988161297f565b600080546001600160a01b038381166001600160a01b0319831681178455604051919092169283917f8be0079c531659141344cd1fd0a4f28419497f9722a3daafe3b4186f6b6457e09190a35050565b6000805b6001600160a01b038316600090815260076020526040902054811015612a2a576001600160a01b0383166000908152600660209081526040808320600790925282208054849081106129d7576129d7613252565b9060005260206000200154815481106129f2576129f2613252565b9060005260206000209060070201600401541115612a185781612a1481613268565b9250505b80612a2281613268565b915050612983565b506000808267ffffffffffffffff811115612a4757612a47612efd565b604051908082528060200260200182016040528015612a70578160200160208202803683370190505b50905060005b6001600160a01b038516600090815260076020526040902054811015612b63576001600160a01b038516600090815260066020908152604080832060079092528220805484908110612aca57612aca613252565b906000526020600020015481548110612ae557612ae5613252565b9060005260206000209060070201600401541115612b51576001600160a01b0385166000908152600760205260409020805482908110612b2757612b27613252565b9060005260206000200154828481518110612b4457612b44613252565b6020026020010181815250505b80612b5b81613268565b915050612a76565b506001600160a01b03841660009081526007602090815260409091208251612b8d92840190612dee565b506000805b6001600160a01b038616600090815260086020526040902054811015612c39576001600160a01b038616600090815260066020908152604080832060089092528220805484908110612be657612be6613252565b906000526020600020015481548110612c0157612c01613252565b9060005260206000209060070201600401541115612c275781612c2381613268565b9250505b80612c3181613268565b915050612b92565b506000808267ffffffffffffffff811115612c5657612c56612efd565b604051908082528060200260200182016040528015612c7f578160200160208202803683370190505b50905060005b6001600160a01b038816600090815260086020526040902054811015612d72576001600160a01b038816600090815260066020908152604080832060089092528220805484908110612cd957612cd9613252565b906000526020600020015481548110612cf457612cf4613252565b9060005260206000209060070201600401541115612d60576001600160a01b0388166000908152600860205260409020805482908110612d3657612d36613252565b9060005260206000200154828481518110612d5357612d53613252565b6020026020010181815250505b80612d6a81613268565b915050612c85565b506001600160a01b03871660009081526008602090815260409091208251612d9c92840190612dee565b5050505050505050565b6040518060e0016040528060006001600160a01b0316815260200160008152602001600081526020016060815260200160008152602001600015158152602001600081525090565b828054828255906000526020600020908101928215612e29579160200282015b82811115612e29578251825591602001919060010190612e0e565b50612e35929150612e39565b5090565b5b80821115612e355760008155600101612e3a565b80356001600160a01b0381168114612e6557600080fd5b919050565b600060208284031215612e7c57600080fd5b61086e82612e4e565b602080825282518282018190526000919060409081850190868401855b82811015612ef05781518051855286810151878601528581015186860152606080820151908601526080808201519086015260a0908101519085015260c09093019290850190600101612ea2565b5091979650505050505050565b634e487b7160e01b600052604160045260246000fd5b600067ffffffffffffffff80841115612f2e57612f2e612efd565b604051601f8501601f19908116603f01168101908282118183101715612f5657612f56612efd565b81604052809350858152868686011115612f6f57600080fd5b858560208301376000602087830101525050509392505050565b600082601f830112612f9a57600080fd5b61086e83833560208501612f13565b60008060408385031215612fbc57600080fd5b823567ffffffffffffffff80821115612fd457600080fd5b612fe086838701612f89565b93506020850135915080821115612ff657600080fd5b5061300385828601612f89565b9150509250929050565b600060208083528351808285015260005b8181101561303a5785810183015185820160400152820161301e565b8181111561304c576000604083870101525b50601f01601f1916929092016040019392505050565b6000806040838503121561307557600080fd5b61307e83612e4e565b946020939093013593505050565b60006020808301818452808551808352604092508286019150828160051b8701018488016000805b8481101561315657898403603f19018652825180516001600160a01b031685528881015189860152878101518886015260608082015160e09187018290528051918701829052610100870191908b0190855b818110156131225782518452928c0192918c0191600101613106565b5050506080828101519087015260a08083015115159087015260c091820151919095015294870194918701916001016130b4565b50919998505050505050505050565b60008060006060848603121561317a57600080fd5b61318384612e4e565b95602085013595506040909401359392505050565b6000602082840312156131aa57600080fd5b5035919050565b6000602082840312156131c357600080fd5b813567ffffffffffffffff8111156131da57600080fd5b8201601f810184136131eb57600080fd5b6131fa84823560208401612f13565b949350505050565b6000806040838503121561321557600080fd5b50508035926020909101359150565b634e487b7160e01b600052601160045260246000fd5b6000821982111561324d5761324d613224565b500190565b634e487b7160e01b600052603260045260246000fd5b600060001982141561327c5761327c613224565b5060010190565b6001600160a01b039384168152919092166020820152604081019190915260600190565b6000602082840312156132b957600080fd5b8151801515811461086e57600080fd5b6000828210156132db576132db613224565b500390565b6000816132ef576132ef613224565b506000190190565b600081600019048311821515161561331157613311613224565b500290565b60006020828403121561332857600080fd5b5051919050565b600181815b8085111561336a57816000190482111561335057613350613224565b8085161561335d57918102915b93841c9390800290613334565b509250929050565b600082613381575060016105ed565b8161338e575060006105ed565b81600181146133a457600281146133ae576133ca565b60019150506105ed565b60ff8411156133bf576133bf613224565b50506001821b6105ed565b5060208310610133831016604e8410600b84101617156133ed575081810a6105ed565b6133f7838361332f565b806000190482111561340b5761340b613224565b029392505050565b600061086e8383613372565b60008261343c57634e487b7160e01b600052601260045260246000fd5b50049056fea264697066735822122088a2b2fe39e0fb6f117cdfcf364e371c9b4b9588bd35887112d00b510a44c7a964736f6c634300080a0033",
  "linkReferences": {},
  "deployedLinkReferences": {}
}