{
  "_format": "hh-sol-artifact-1",
  "contractName": "ProjectTrade",
  "sourceName": "contracts/ProjectTrade.sol",
  "abi": [
    {
      "inputs": [
        {
          "internalType": "address",
          "name": "_YUSD",
          "type": "address"
        },
        {
          "internalType": "address",
          "name": "_treasury",
          "type": "address"
        }
      ],
      "stateMutability": "nonpayable",
      "type": "constructor"
    },
    {
      "anonymous": false,
      "inputs": [
        {
          "indexed": false,
          "internalType": "address",
          "name": "pToken",
          "type": "address"
        },
        {
          "indexed": false,
          "internalType": "uint256",
          "name": "timestamp",
          "type": "uint256"
        }
      ],
      "name": "AddNewProjectToken",
      "type": "event"
    },
    {
      "anonymous": false,
      "inputs": [
        {
          "indexed": false,
          "internalType": "address",
          "name": "pToken",
          "type": "address"
        }
      ],
      "name": "CancelAllOrders",
      "type": "event"
    },
    {
      "anonymous": false,
      "inputs": [
        {
          "indexed": false,
          "internalType": "address",
          "name": "pToken",
          "type": "address"
        },
        {
          "indexed": false,
          "internalType": "uint256",
          "name": "orderId",
          "type": "uint256"
        }
      ],
      "name": "CancelOrder",
      "type": "event"
    },
    {
      "anonymous": false,
      "inputs": [
        {
          "indexed": false,
          "internalType": "address",
          "name": "pToken",
          "type": "address"
        },
        {
          "indexed": false,
          "internalType": "address",
          "name": "owner",
          "type": "address"
        },
        {
          "indexed": true,
          "internalType": "uint256",
          "name": "orderId",
          "type": "uint256"
        },
        {
          "indexed": false,
          "internalType": "uint256",
          "name": "amount",
          "type": "uint256"
        },
        {
          "indexed": false,
          "internalType": "uint256",
          "name": "orderPrice",
          "type": "uint256"
        },
        {
          "indexed": false,
          "internalType": "bool",
          "name": "isBuy",
          "type": "bool"
        }
      ],
      "name": "OrderCreated",
      "type": "event"
    },
    {
      "anonymous": false,
      "inputs": [
        {
          "indexed": true,
          "internalType": "address",
          "name": "previousOwner",
          "type": "address"
        },
        {
          "indexed": true,
          "internalType": "address",
          "name": "newOwner",
          "type": "address"
        }
      ],
      "name": "OwnershipTransferred",
      "type": "event"
    },
    {
      "anonymous": false,
      "inputs": [
        {
          "indexed": false,
          "internalType": "address",
          "name": "pToken",
          "type": "address"
        }
      ],
      "name": "Pause",
      "type": "event"
    },
    {
      "anonymous": false,
      "inputs": [
        {
          "indexed": false,
          "internalType": "address",
          "name": "pToken",
          "type": "address"
        }
      ],
      "name": "RemoveAllOrders",
      "type": "event"
    },
    {
      "anonymous": false,
      "inputs": [
        {
          "indexed": false,
          "internalType": "address",
          "name": "pToken",
          "type": "address"
        },
        {
          "indexed": false,
          "internalType": "uint256",
          "name": "price",
          "type": "uint256"
        },
        {
          "indexed": false,
          "internalType": "uint256",
          "name": "timestamp",
          "type": "uint256"
        }
      ],
      "name": "SetPrice",
      "type": "event"
    },
    {
      "anonymous": false,
      "inputs": [
        {
          "indexed": false,
          "internalType": "address",
          "name": "pToken",
          "type": "address"
        },
        {
          "indexed": false,
          "internalType": "address",
          "name": "owner",
          "type": "address"
        },
        {
          "indexed": false,
          "internalType": "uint256",
          "name": "orderId",
          "type": "uint256"
        }
      ],
      "name": "TradeOrder",
      "type": "event"
    },
    {
      "anonymous": false,
      "inputs": [
        {
          "indexed": false,
          "internalType": "address",
          "name": "pToken",
          "type": "address"
        },
        {
          "indexed": false,
          "internalType": "uint256",
          "name": "amount",
          "type": "uint256"
        },
        {
          "indexed": false,
          "internalType": "uint256",
          "name": "tradePrice",
          "type": "uint256"
        },
        {
          "indexed": false,
          "internalType": "uint256",
          "name": "transactionId",
          "type": "uint256"
        },
        {
          "indexed": false,
          "internalType": "address",
          "name": "buyOwner",
          "type": "address"
        },
        {
          "indexed": false,
          "internalType": "address",
          "name": "sellOwner",
          "type": "address"
        },
        {
          "indexed": false,
          "internalType": "uint256",
          "name": "buyOrderId",
          "type": "uint256"
        },
        {
          "indexed": false,
          "internalType": "uint256",
          "name": "sellOrderId",
          "type": "uint256"
        },
        {
          "indexed": false,
          "internalType": "uint256",
          "name": "timestamp",
          "type": "uint256"
        }
      ],
      "name": "TradeTransaction",
      "type": "event"
    },
    {
      "inputs": [],
      "name": "FEE",
      "outputs": [
        {
          "internalType": "uint256",
          "name": "",
          "type": "uint256"
        }
      ],
      "stateMutability": "view",
      "type": "function"
    },
    {
      "inputs": [],
      "name": "PERCENT_PRECISION",
      "outputs": [
        {
          "internalType": "uint256",
          "name": "",
          "type": "uint256"
        }
      ],
      "stateMutability": "view",
      "type": "function"
    },
    {
      "inputs": [
        {
          "internalType": "uint256",
          "name": "",
          "type": "uint256"
        }
      ],
      "name": "PTokens",
      "outputs": [
        {
          "internalType": "address",
          "name": "",
          "type": "address"
        }
      ],
      "stateMutability": "view",
      "type": "function"
    },
    {
      "inputs": [],
      "name": "YUSD",
      "outputs": [
        {
          "internalType": "contract IERC20",
          "name": "",
          "type": "address"
        }
      ],
      "stateMutability": "view",
      "type": "function"
    },
    {
      "inputs": [
        {
          "internalType": "address",
          "name": "",
          "type": "address"
        },
        {
          "internalType": "address",
          "name": "",
          "type": "address"
        }
      ],
      "name": "balanceOfUserInContract",
      "outputs": [
        {
          "internalType": "uint256",
          "name": "",
          "type": "uint256"
        }
      ],
      "stateMutability": "view",
      "type": "function"
    },
    {
      "inputs": [
        {
          "internalType": "address",
          "name": "_pToken",
          "type": "address"
        },
        {
          "internalType": "uint256",
          "name": "_amount",
          "type": "uint256"
        },
        {
          "internalType": "uint256",
          "name": "_price",
          "type": "uint256"
        }
      ],
      "name": "buy",
      "outputs": [],
      "stateMutability": "nonpayable",
      "type": "function"
    },
    {
      "inputs": [
        {
          "internalType": "address",
          "name": "",
          "type": "address"
        },
        {
          "internalType": "uint256",
          "name": "",
          "type": "uint256"
        }
      ],
      "name": "buyOrders",
      "outputs": [
        {
          "internalType": "uint256",
          "name": "",
          "type": "uint256"
        }
      ],
      "stateMutability": "view",
      "type": "function"
    },
    {
      "inputs": [
        {
          "internalType": "address",
          "name": "_pToken",
          "type": "address"
        },
        {
          "internalType": "uint256",
          "name": "_orderId",
          "type": "uint256"
        }
      ],
      "name": "cancelOrder",
      "outputs": [],
      "stateMutability": "nonpayable",
      "type": "function"
    },
    {
      "inputs": [
        {
          "internalType": "address",
          "name": "_pToken",
          "type": "address"
        }
      ],
      "name": "cancelOrders",
      "outputs": [],
      "stateMutability": "nonpayable",
      "type": "function"
    },
    {
      "inputs": [
        {
          "internalType": "address",
          "name": "_pToken",
          "type": "address"
        },
        {
          "internalType": "address",
          "name": "_user",
          "type": "address"
        }
      ],
      "name": "getBalanceOfUserInContact",
      "outputs": [
        {
          "internalType": "uint256",
          "name": "",
          "type": "uint256"
        }
      ],
      "stateMutability": "view",
      "type": "function"
    },
    {
      "inputs": [
        {
          "internalType": "address",
          "name": "_pToken",
          "type": "address"
        }
      ],
      "name": "getBuyOrders",
      "outputs": [
        {
          "components": [
            {
              "internalType": "address",
              "name": "owner",
              "type": "address"
            },
            {
              "internalType": "uint256",
              "name": "totalAmount",
              "type": "uint256"
            },
            {
              "internalType": "uint256",
              "name": "orderPrice",
              "type": "uint256"
            },
            {
              "internalType": "uint256[]",
              "name": "transactionIds",
              "type": "uint256[]"
            },
            {
              "internalType": "uint256",
              "name": "remainingAmount",
              "type": "uint256"
            },
            {
              "internalType": "bool",
              "name": "isCancelled",
              "type": "bool"
            },
            {
              "internalType": "bool",
              "name": "isBuy",
              "type": "bool"
            },
            {
              "internalType": "uint256",
              "name": "timestamp",
              "type": "uint256"
            }
          ],
          "internalType": "struct ProjectTrade.Order[]",
          "name": "",
          "type": "tuple[]"
        }
      ],
      "stateMutability": "view",
      "type": "function"
    },
    {
      "inputs": [
        {
          "internalType": "address",
          "name": "_pToken",
          "type": "address"
        }
      ],
      "name": "getSellOrders",
      "outputs": [
        {
          "components": [
            {
              "internalType": "address",
              "name": "owner",
              "type": "address"
            },
            {
              "internalType": "uint256",
              "name": "totalAmount",
              "type": "uint256"
            },
            {
              "internalType": "uint256",
              "name": "orderPrice",
              "type": "uint256"
            },
            {
              "internalType": "uint256[]",
              "name": "transactionIds",
              "type": "uint256[]"
            },
            {
              "internalType": "uint256",
              "name": "remainingAmount",
              "type": "uint256"
            },
            {
              "internalType": "bool",
              "name": "isCancelled",
              "type": "bool"
            },
            {
              "internalType": "bool",
              "name": "isBuy",
              "type": "bool"
            },
            {
              "internalType": "uint256",
              "name": "timestamp",
              "type": "uint256"
            }
          ],
          "internalType": "struct ProjectTrade.Order[]",
          "name": "",
          "type": "tuple[]"
        }
      ],
      "stateMutability": "view",
      "type": "function"
    },
    {
      "inputs": [
        {
          "internalType": "address",
          "name": "_pToken",
          "type": "address"
        }
      ],
      "name": "getTransactions",
      "outputs": [
        {
          "components": [
            {
              "internalType": "uint256",
              "name": "amount",
              "type": "uint256"
            },
            {
              "internalType": "uint256",
              "name": "price",
              "type": "uint256"
            },
            {
              "internalType": "uint256",
              "name": "buyOrderId",
              "type": "uint256"
            },
            {
              "internalType": "uint256",
              "name": "sellOrderId",
              "type": "uint256"
            },
            {
              "internalType": "uint256",
              "name": "timestamp",
              "type": "uint256"
            },
            {
              "internalType": "bool",
              "name": "isCancelled",
              "type": "bool"
            }
          ],
          "internalType": "struct ProjectTrade.Transaction[]",
          "name": "transaction",
          "type": "tuple[]"
        }
      ],
      "stateMutability": "view",
      "type": "function"
    },
    {
      "inputs": [
        {
          "internalType": "address",
          "name": "",
          "type": "address"
        },
        {
          "internalType": "uint256",
          "name": "",
          "type": "uint256"
        }
      ],
      "name": "orders",
      "outputs": [
        {
          "internalType": "address",
          "name": "owner",
          "type": "address"
        },
        {
          "internalType": "uint256",
          "name": "totalAmount",
          "type": "uint256"
        },
        {
          "internalType": "uint256",
          "name": "orderPrice",
          "type": "uint256"
        },
        {
          "internalType": "uint256",
          "name": "remainingAmount",
          "type": "uint256"
        },
        {
          "internalType": "bool",
          "name": "isCancelled",
          "type": "bool"
        },
        {
          "internalType": "bool",
          "name": "isBuy",
          "type": "bool"
        },
        {
          "internalType": "uint256",
          "name": "timestamp",
          "type": "uint256"
        }
      ],
      "stateMutability": "view",
      "type": "function"
    },
    {
      "inputs": [],
      "name": "owner",
      "outputs": [
        {
          "internalType": "address",
          "name": "",
          "type": "address"
        }
      ],
      "stateMutability": "view",
      "type": "function"
    },
    {
      "inputs": [
        {
          "internalType": "address",
          "name": "_pToken",
          "type": "address"
        }
      ],
      "name": "pause",
      "outputs": [],
      "stateMutability": "nonpayable",
      "type": "function"
    },
    {
      "inputs": [
        {
          "internalType": "address",
          "name": "_pToken",
          "type": "address"
        }
      ],
      "name": "removeOrders",
      "outputs": [],
      "stateMutability": "nonpayable",
      "type": "function"
    },
    {
      "inputs": [],
      "name": "renounceOwnership",
      "outputs": [],
      "stateMutability": "nonpayable",
      "type": "function"
    },
    {
      "inputs": [
        {
          "internalType": "uint256",
          "name": "a",
          "type": "uint256"
        },
        {
          "internalType": "uint256",
          "name": "b",
          "type": "uint256"
        }
      ],
      "name": "safeAdd",
      "outputs": [
        {
          "internalType": "uint256",
          "name": "c",
          "type": "uint256"
        }
      ],
      "stateMutability": "pure",
      "type": "function"
    },
    {
      "inputs": [
        {
          "internalType": "uint256",
          "name": "a",
          "type": "uint256"
        },
        {
          "internalType": "uint256",
          "name": "b",
          "type": "uint256"
        }
      ],
      "name": "safeDiv",
      "outputs": [
        {
          "internalType": "uint256",
          "name": "c",
          "type": "uint256"
        }
      ],
      "stateMutability": "pure",
      "type": "function"
    },
    {
      "inputs": [
        {
          "internalType": "uint256",
          "name": "a",
          "type": "uint256"
        },
        {
          "internalType": "uint256",
          "name": "b",
          "type": "uint256"
        }
      ],
      "name": "safeMul",
      "outputs": [
        {
          "internalType": "uint256",
          "name": "c",
          "type": "uint256"
        }
      ],
      "stateMutability": "pure",
      "type": "function"
    },
    {
      "inputs": [
        {
          "internalType": "uint256",
          "name": "a",
          "type": "uint256"
        },
        {
          "internalType": "uint256",
          "name": "b",
          "type": "uint256"
        }
      ],
      "name": "safeSub",
      "outputs": [
        {
          "internalType": "uint256",
          "name": "c",
          "type": "uint256"
        }
      ],
      "stateMutability": "pure",
      "type": "function"
    },
    {
      "inputs": [
        {
          "internalType": "address",
          "name": "_pToken",
          "type": "address"
        },
        {
          "internalType": "uint256",
          "name": "_amount",
          "type": "uint256"
        },
        {
          "internalType": "uint256",
          "name": "_price",
          "type": "uint256"
        }
      ],
      "name": "sell",
      "outputs": [],
      "stateMutability": "nonpayable",
      "type": "function"
    },
    {
      "inputs": [
        {
          "internalType": "address",
          "name": "",
          "type": "address"
        },
        {
          "internalType": "uint256",
          "name": "",
          "type": "uint256"
        }
      ],
      "name": "sellOrders",
      "outputs": [
        {
          "internalType": "uint256",
          "name": "",
          "type": "uint256"
        }
      ],
      "stateMutability": "view",
      "type": "function"
    },
    {
      "inputs": [
        {
          "internalType": "address",
          "name": "_pToken",
          "type": "address"
        },
        {
          "internalType": "uint256",
          "name": "_price",
          "type": "uint256"
        }
      ],
      "name": "setPriceByAdmin",
      "outputs": [],
      "stateMutability": "nonpayable",
      "type": "function"
    },
    {
      "inputs": [
        {
          "internalType": "address",
          "name": "",
          "type": "address"
        },
        {
          "internalType": "uint256",
          "name": "",
          "type": "uint256"
        }
      ],
      "name": "transactions",
      "outputs": [
        {
          "internalType": "uint256",
          "name": "amount",
          "type": "uint256"
        },
        {
          "internalType": "uint256",
          "name": "price",
          "type": "uint256"
        },
        {
          "internalType": "uint256",
          "name": "buyOrderId",
          "type": "uint256"
        },
        {
          "internalType": "uint256",
          "name": "sellOrderId",
          "type": "uint256"
        },
        {
          "internalType": "uint256",
          "name": "timestamp",
          "type": "uint256"
        },
        {
          "internalType": "bool",
          "name": "isCancelled",
          "type": "bool"
        }
      ],
      "stateMutability": "view",
      "type": "function"
    },
    {
      "inputs": [
        {
          "internalType": "address",
          "name": "newOwner",
          "type": "address"
        }
      ],
      "name": "transferOwnership",
      "outputs": [],
      "stateMutability": "nonpayable",
      "type": "function"
    },
    {
      "inputs": [],
      "name": "treasury",
      "outputs": [
        {
          "internalType": "address",
          "name": "",
          "type": "address"
        }
      ],
      "stateMutability": "view",
      "type": "function"
    },
    {
      "inputs": [
        {
          "internalType": "address",
          "name": "_pToken",
          "type": "address"
        }
      ],
      "name": "unpause",
      "outputs": [],
      "stateMutability": "nonpayable",
      "type": "function"
    }
  ],
  "bytecode": "0x60a060405260136003553480156200001657600080fd5b5060405162003a0e38038062003a0e8339810160408190526200003991620000da565b62000044336200006d565b6001600160a01b03918216608052600180546001600160a01b0319169190921617905562000112565b600080546001600160a01b038381166001600160a01b0319831681178455604051919092169283917f8be0079c531659141344cd1fd0a4f28419497f9722a3daafe3b4186f6b6457e09190a35050565b80516001600160a01b0381168114620000d557600080fd5b919050565b60008060408385031215620000ee57600080fd5b620000f983620000bd565b91506200010960208401620000bd565b90509250929050565b6080516138b6620001586000396000818161028c01528181610ab201528181611764015281816127340152818161288301528181612a4e01526130bb01526138b66000f3fe608060405234801561001057600080fd5b50600436106101cf5760003560e01c80638d9615f811610104578063c57981b5116100a2578063e97d574011610071578063e97d574014610481578063eac92f2a14610494578063f2fde38b146104a7578063ffe8e372146104ba57600080fd5b8063c57981b51461043f578063cf61fdee14610448578063d05c78da1461045b578063e6cb90131461046e57600080fd5b8063a293d1e8116100de578063a293d1e8146103f3578063a59ac6dd14610406578063a6fc34fe14610419578063b5931f7c1461042c57600080fd5b80638d9615f8146103a45780638da5cb5b146103b75780639a1836af146103c857600080fd5b80636a2061371161017157806371d177cb1161014b57806371d177cb1461030757806376a67a5114610328578063793b8c6d1461033b5780637c9827961461039157600080fd5b80636a206137146102d95780636a272462146102ec578063715018a6146102ff57600080fd5b8063551f7a50116101ad578063551f7a501461025457806357b001f9146102745780636190cefb1461028757806361d027b3146102c657600080fd5b80630f8cda20146101d457806314538128146101fd5780634142e8a91461023f575b600080fd5b6101e76101e23660046133ee565b6104c3565b6040516101f49190613409565b60405180910390f35b61021061020b366004613483565b610573565b6040805196875260208701959095529385019290925260608401526080830152151560a082015260c0016101f4565b61025261024d366004613483565b6105ca565b005b6102676102623660046133ee565b6105e0565b6040516101f491906134ad565b6102526102823660046133ee565b6107c5565b6102ae7f000000000000000000000000000000000000000000000000000000000000000081565b6040516001600160a01b0390911681526020016101f4565b6001546102ae906001600160a01b031681565b6102526102e7366004613483565b6107ee565b6102526102fa366004613593565b610cc0565b610252611444565b61031a610315366004613483565b611458565b6040519081526020016101f4565b6102526103363660046133ee565b611489565b61034e610349366004613483565b6114ec565b604080516001600160a01b039098168852602088019690965294860193909352606085019190915215156080840152151560a083015260c082015260e0016101f4565b6102ae61039f3660046135c6565b611557565b6102526103b23660046133ee565b611581565b6000546001600160a01b03166102ae565b61031a6103d63660046135df565b600960209081526000928352604080842090915290825290205481565b61031a610401366004613612565b61163f565b610252610414366004613593565b61165f565b6102526104273660046133ee565b611e6e565b61031a61043a366004613612565b611f4a565b61031a60035481565b61031a6104563660046135df565b611f62565b61031a610469366004613612565b611f8f565b61031a61047c366004613612565b611fbb565b61031a61048f366004613483565b611fd6565b6102676104a23660046133ee565b611ff2565b6102526104b53660046133ee565b6121d0565b61031a61271081565b6001600160a01b0381166000908152600560209081526040808320805482518185028101850190935280835260609492939192909184015b828210156105685760008481526020908190206040805160c08101825260068602909201805483526001808201548486015260028201549284019290925260038101546060840152600481015460808401526005015460ff16151560a083015290835290920191016104fb565b505050509050919050565b6005602052816000526040600020818154811061058f57600080fd5b600091825260209091206006909102018054600182015460028301546003840154600485015460059095015493965091945092909160ff1686565b6105d2612249565b6105dc82826122a3565b5050565b6001600160a01b0381166000908152600760205260408120546060919067ffffffffffffffff81111561061557610615613634565b60405190808252806020026020018201604052801561064e57816020015b61063b61328e565b8152602001906001900390816106335790505b50905060005b6001600160a01b0384166000908152600760205260409020548110156107be576001600160a01b038416600090815260066020908152604080832060079092529091208054839081106106a9576106a961364a565b9060005260206000200154815481106106c4576106c461364a565b60009182526020918290206040805161010081018252600790930290910180546001600160a01b031683526001810154838501526002810154838301526003810180548351818702810187019094528084529394919360608601939283018282801561074f57602002820191906000526020600020905b81548152602001906001019080831161073b575b505050918352505060048201546020820152600582015460ff80821615156040840152610100909104161515606082015260069091015460809091015282518390839081106107a0576107a061364a565b602002602001018190525080806107b690613676565b915050610654565b5092915050565b6107cd612249565b6001600160a01b03166000908152600a60205260409020805460ff19169055565b6001600160a01b038216600090815260066020526040902080543391908390811061081b5761081b61364a565b60009182526020909120600790910201546001600160a01b0316148061084b57506000546001600160a01b031633145b61089c5760405162461bcd60e51b815260206004820152601e60248201527f596f7520617265206e6f74206f776e6572206f6620746865206f72646572000060448201526064015b60405180910390fd5b6001600160a01b0382166000908152600660205260409020805460019190839081106108ca576108ca61364a565b60009182526020808320600792909202909101600501805460ff1916931515939093179092556001600160a01b03841681526006909152604081208054839081106109175761091761364a565b9060005260206000209060070201600401541115610c83576001600160a01b03821660009081526006602052604090208054829081106109595761095961364a565b600091825260209091206005600790920201015460ff61010090910416151560011415610b9c5760006127106003546127106109959190613691565b846001600160a01b031663313ce5676040518163ffffffff1660e01b8152600401602060405180830381865afa1580156109d3573d6000803e3d6000fd5b505050506040513d601f19601f820116820180604052508101906109f791906136a9565b610a0290600a6137a6565b6001600160a01b0386166000908152600660205260409020805486908110610a2c57610a2c61364a565b90600052602060002090600702016002015460066000886001600160a01b03166001600160a01b031681526020019081526020016000208681548110610a7457610a7461364a565b906000526020600020906007020160040154610a9091906137b2565b610a9a91906137d1565b610aa491906137b2565b610aae91906137d1565b90507f00000000000000000000000000000000000000000000000000000000000000006001600160a01b031663a9059cbb60066000866001600160a01b03166001600160a01b031681526020019081526020016000208481548110610b1557610b1561364a565b60009182526020909120600790910201546040516001600160e01b031960e084901b168152610b52916001600160a01b03169085906004016137f3565b6020604051808303816000875af1158015610b71573d6000803e3d6000fd5b505050506040513d601f19601f82011682018060405250810190610b95919061380c565b5050610c83565b6001600160a01b0382166000818152600660205260409020805463a9059cbb919084908110610bcd57610bcd61364a565b600091825260208083206007909202909101546001600160a01b03878116845260069092526040909220805491909216919085908110610c0f57610c0f61364a565b9060005260206000209060070201600401546040518363ffffffff1660e01b8152600401610c3e9291906137f3565b6020604051808303816000875af1158015610c5d573d6000803e3d6000fd5b505050506040513d601f19601f82011682018060405250810190610c81919061380c565b505b7fc0e68d6b69f741c21e955cad2ae4d505b6f6735c7e7b278251b3f6283a5f07eb8282604051610cb49291906137f3565b60405180910390a15050565b60008211610d015760405162461bcd60e51b815260206004820152600e60248201526d1a5b9d985b1a5908185b5bdd5b9d60921b6044820152606401610893565b6040516323b872dd60e01b81526001600160a01b038416906323b872dd90610d319033903090879060040161382e565b6020604051808303816000875af1158015610d50573d6000803e3d6000fd5b505050506040513d601f19601f82011682018060405250810190610d74919061380c565b506001600160a01b038316600090815260096020908152604080832033845290915281208054849290610da8908490613691565b909155505060408051610100810182523381526020808201858152828401858152845160008082528185018752606086019182526080860189905260a0860181905260c086018190524260e08701526001600160a01b038a811682526006865296812080546001808201835591835291869020875160079093020180546001600160a01b03191692909816919091178755925192860192909255516002850155518051929384939092610e629260038501929101906132e0565b506080820151600482015560a082015160058201805460c085015115156101000261ff00199315159390931661ffff199091161791909117905560e0909101516006909101556001600160a01b03841660008181526008602090815260408220805460018181018355828552928420018390559290915290541415610f6757600480546001810182556000919091527f8a35acfbc15ff81a39ae7d344fd709f28e8600b4aa8c65c6b64bfe7fe36bd19b0180546001600160a01b0319166001600160a01b0386161790556040517f1df545e94802107a856bb8a484d7cd6203e369d7b4815120c873cebb2bfb252c90610f5e90869042906137f3565b60405180910390a15b6001600160a01b038416600090815260086020526040812054610f8c90600190613852565b6001600160a01b03861660009081526008602052604090205490915060011015611078576001600160a01b038516600090815260086020526040812054610fd590600290613852565b90505b6001600160a01b0386166000908152600660209081526040808320600890925290912080548390811061100d5761100d61364a565b9060005260206000200154815481106110285761102861364a565b9060005260206000209060070201600201548360400151106110565761104f816001613691565b9150611076565b806110645760009150611076565b8061106e81613869565b915050610fd8565b505b6001600160a01b03851660009081526008602052604081205461109d90600190613852565b90505b8181111561114557806110b257611133565b6001600160a01b03861660009081526008602052604090206110d5600183613852565b815481106110e5576110e561364a565b906000526020600020015460086000886001600160a01b03166001600160a01b0316815260200190815260200160002082815481106111265761112661364a565b6000918252602090912001555b8061113d81613869565b9150506110a0565b506001600160a01b03851660009081526006602052604090205461116b90600190613852565b6001600160a01b03861660009081526008602052604090208054839081106111955761119561364a565b60009182526020808320909101929092556001600160a01b0387168152600690915260409020546111c890600190613852565b604080516001600160a01b038816815233602082015290810186905260608101859052600060808201527fca886b3852c1c7992abfda91d86e8ed48f496dbc164332b3453bcb95cf25f3db9060a00160405180910390a26001600160a01b038516600090815260066020526040812054819061124690600190613852565b905060005b6001600160a01b03881660009081526007602052604090205481101561143a576001600160a01b03881660009081526007602052604090208054829081106112955761129561364a565b9060005260206000200154925060066000896001600160a01b03166001600160a01b0316815260200190815260200160002083815481106112d8576112d861364a565b600091825260209091206005600790920201015460ff1615156001148061133a57506001600160a01b03881660009081526006602052604090208054849081106113245761132461364a565b9060005260206000209060070201600401546000145b8061138057506001600160a01b038816600090815260066020526040902080548390811061136a5761136a61364a565b9060005260206000209060070201600401546000145b1561138a57611428565b6001600160a01b03881660009081526006602052604090208054839081106113b4576113b461364a565b906000526020600020906007020160020154600660008a6001600160a01b03166001600160a01b0316815260200190815260200160002084815481106113fc576113fc61364a565b906000526020600020906007020160020154106114235761141e8884846122fb565b611428565b61143a565b8061143281613676565b91505061124b565b5050505050505050565b61144c612249565b6114566000612db3565b565b6007602052816000526040600020818154811061147457600080fd5b90600052602060002001600091509150505481565b611491612249565b6001600160a01b0381166000818152600a6020908152604091829020805460ff1916600117905590519182527f5ee71a369c8672edded508e624ffc9257fa1ae6886ef32905c18e60196bca39991015b60405180910390a150565b6006602052816000526040600020818154811061150857600080fd5b60009182526020909120600790910201805460018201546002830154600484015460058501546006909501546001600160a01b03909416965091945092909160ff808316926101009004169087565b6004818154811061156757600080fd5b6000918252602090912001546001600160a01b0316905081565b60005b6001600160a01b038216600090815260066020526040902054811015611605576001600160a01b03821660009081526006602052604090208054829081106115ce576115ce61364a565b600091825260209091206005600790920201015460ff166115f3576115f382826107ee565b806115fd81613676565b915050611584565b506040516001600160a01b03821681527f3cab4e2d2c607f12757ae45690b930ae60843210bf1e8930f483edb6e296cb58906020016114e1565b60008282111561164e57600080fd5b6116588284613852565b9392505050565b600082116116a05760405162461bcd60e51b815260206004820152600e60248201526d1a5b9d985b1a5908185b5bdd5b9d60921b6044820152606401610893565b60006127106003546127106116b59190613691565b856001600160a01b031663313ce5676040518163ffffffff1660e01b8152600401602060405180830381865afa1580156116f3573d6000803e3d6000fd5b505050506040513d601f19601f8201168201806040525081019061171791906136a9565b61172290600a6137a6565b61172c85876137b2565b61173691906137d1565b61174091906137b2565b61174a91906137d1565b6040516323b872dd60e01b81529091506001600160a01b037f000000000000000000000000000000000000000000000000000000000000000016906323b872dd9061179d9033903090869060040161382e565b6020604051808303816000875af11580156117bc573d6000803e3d6000fd5b505050506040513d601f19601f820116820180604052508101906117e0919061380c565b506040805161010081018252338152602080820186815282840186815284516000808252818501875260608601918252608086018a905260a08601819052600160c087018190524260e08801526001600160a01b038c81168352600687529782208054808301825590835291869020875160079093020180546001600160a01b031916929098169190911787559251928601929092555160028501555180519293849390926118969260038501929101906132e0565b506080820151600482015560a082015160058201805460c085015115156101000261ff00199315159390931661ffff199091161791909117905560e0909101516006909101556001600160a01b0385166000818152600760209081526040822080546001818101835582855292842001839055929091529054141561199b57600480546001810182556000919091527f8a35acfbc15ff81a39ae7d344fd709f28e8600b4aa8c65c6b64bfe7fe36bd19b0180546001600160a01b0319166001600160a01b0387161790556040517f1df545e94802107a856bb8a484d7cd6203e369d7b4815120c873cebb2bfb252c9061199290879042906137f3565b60405180910390a15b6001600160a01b0385166000908152600760205260408120546119c090600190613852565b6001600160a01b03871660009081526007602052604090205490915060011015611aac576001600160a01b038616600090815260076020526040812054611a0990600290613852565b90505b6001600160a01b03871660009081526006602090815260408083206007909252909120805483908110611a4157611a4161364a565b906000526020600020015481548110611a5c57611a5c61364a565b906000526020600020906007020160020154836040015111611a8a57611a83816001613691565b9150611aaa565b80611a985760009150611aaa565b80611aa281613869565b915050611a0c565b505b6001600160a01b038616600090815260076020526040812054611ad190600190613852565b90505b81811115611b6e576001600160a01b0387166000908152600760205260409020611aff600183613852565b81548110611b0f57611b0f61364a565b906000526020600020015460076000896001600160a01b03166001600160a01b031681526020019081526020016000208281548110611b5057611b5061364a565b60009182526020909120015580611b6681613869565b915050611ad4565b506001600160a01b038616600090815260066020526040902054611b9490600190613852565b6001600160a01b0387166000908152600760205260409020805483908110611bbe57611bbe61364a565b60009182526020808320909101929092556001600160a01b038816815260069091526040902054611bf190600190613852565b604080516001600160a01b038916815233602082015290810187905260608101869052600160808201527fca886b3852c1c7992abfda91d86e8ed48f496dbc164332b3453bcb95cf25f3db9060a00160405180910390a26001600160a01b0386166000908152600660205260408120548190611c6f90600190613852565b905060005b6001600160a01b038916600090815260086020526040902054811015611e63576001600160a01b0389166000908152600860205260409020805482908110611cbe57611cbe61364a565b90600052602060002001549250600660008a6001600160a01b03166001600160a01b031681526020019081526020016000208381548110611d0157611d0161364a565b600091825260209091206005600790920201015460ff16151560011480611d6357506001600160a01b0389166000908152600660205260409020805484908110611d4d57611d4d61364a565b9060005260206000209060070201600401546000145b80611da957506001600160a01b0389166000908152600660205260409020805483908110611d9357611d9361364a565b9060005260206000209060070201600401546000145b15611db357611e51565b6001600160a01b0389166000908152600660205260409020805483908110611ddd57611ddd61364a565b906000526020600020906007020160020154600660008b6001600160a01b03166001600160a01b031681526020019081526020016000208481548110611e2557611e2561364a565b90600052602060002090600702016002015411611e4c57611e478983856122fb565b611e51565b611e63565b80611e5b81613676565b915050611c74565b505050505050505050565b60005b6001600160a01b038216600090815260066020526040902054811015611ead57611e9b8282612e03565b80611ea581613676565b915050611e71565b506001600160a01b0381166000908152600660205260408120611ecf9161332b565b6001600160a01b0381166000908152600760205260408120611ef09161334c565b6001600160a01b0381166000908152600860205260408120611f119161334c565b6040516001600160a01b03821681527fe8a27effe48bbe0ab68e76eebc02e83f87e8672f94b5568d3e4c29a39af7e624906020016114e1565b6000808211611f5857600080fd5b61165882846137d1565b6001600160a01b038083166000908152600960209081526040808320938516835292905220545b92915050565b6000611f9b82846137b2565b9050821580611fb2575081611fb084836137d1565b145b611f8957600080fd5b6000611fc78284613691565b905082811015611f8957600080fd5b6008602052816000526040600020818154811061147457600080fd5b6001600160a01b0381166000908152600860205260408120546060919067ffffffffffffffff81111561202757612027613634565b60405190808252806020026020018201604052801561206057816020015b61204d61328e565b8152602001906001900390816120455790505b50905060005b6001600160a01b0384166000908152600860205260409020548110156107be576001600160a01b038416600090815260066020908152604080832060089092529091208054839081106120bb576120bb61364a565b9060005260206000200154815481106120d6576120d661364a565b60009182526020918290206040805161010081018252600790930290910180546001600160a01b031683526001810154838501526002810154838301526003810180548351818702810187019094528084529394919360608601939283018282801561216157602002820191906000526020600020905b81548152602001906001019080831161214d575b505050918352505060048201546020820152600582015460ff80821615156040840152610100909104161515606082015260069091015460809091015282518390839081106121b2576121b261364a565b602002602001018190525080806121c890613676565b915050612066565b6121d8612249565b6001600160a01b03811661223d5760405162461bcd60e51b815260206004820152602660248201527f4f776e61626c653a206e6577206f776e657220697320746865207a65726f206160448201526564647265737360d01b6064820152608401610893565b61224681612db3565b50565b6000546001600160a01b031633146114565760405162461bcd60e51b815260206004820181905260248201527f4f776e61626c653a2063616c6c6572206973206e6f7420746865206f776e65726044820152606401610893565b6001600160a01b0382166000818152600260209081526040918290208490558151928352820183905242908201527f5c43325359179f4471448fd5c0247053caeec2178ee6378a1a3eb4b2030d314690606001610cb4565b6001600160a01b03831660009081526006602052604081208054839081106123255761232561364a565b90600052602060002090600702016004015460066000866001600160a01b03166001600160a01b03168152602001908152602001600020848154811061236d5761236d61364a565b906000526020600020906007020160040154116123c7576001600160a01b03841660009081526006602052604090208054849081106123ae576123ae61364a565b9060005260206000209060070201600401549050612406565b6001600160a01b03841660009081526006602052604090208054839081106123f1576123f161364a565b90600052602060002090600702016004015490505b6001600160a01b03841660009081526006602052604081208054849081106124305761243061364a565b600091825260208083206007909202909101546001600160a01b038881168452600690925260408320805492909116935090869081106124725761247261364a565b600091825260209091206007909102015460405163a9059cbb60e01b81526001600160a01b0391821692509087169063a9059cbb906124b790849087906004016137f3565b6020604051808303816000875af11580156124d6573d6000803e3d6000fd5b505050506040513d601f19601f820116820180604052508101906124fa919061380c565b506001600160a01b03861660009081526006602052604090208054849190879081106125285761252861364a565b906000526020600020906007020160040160008282546125489190613852565b90915550506001600160a01b038616600090815260066020526040902080548491908690811061257a5761257a61364a565b9060005260206000209060070201600401600082825461259a9190613852565b90915550506001600160a01b03861660009081526006602052604081208054869081106125c9576125c961364a565b906000526020600020906007020160020154905060066000886001600160a01b03166001600160a01b0316815260200190815260200160002085815481106126135761261361364a565b6000918252602080832060066007909302018201546001600160a01b038b168452919052604090912080548890811061264e5761264e61364a565b90600052602060002090600702016006015410156127b55761267087826122a3565b60006127106003546127106126859190613852565b896001600160a01b031663313ce5676040518163ffffffff1660e01b8152600401602060405180830381865afa1580156126c3573d6000803e3d6000fd5b505050506040513d601f19601f820116820180604052508101906126e791906136a9565b6126f290600a6137a6565b6126fc85896137b2565b61270691906137d1565b61271091906137b2565b61271a91906137d1565b60405163a9059cbb60e01b81529091506001600160a01b037f0000000000000000000000000000000000000000000000000000000000000000169063a9059cbb9061276b90879085906004016137f3565b6020604051808303816000875af115801561278a573d6000803e3d6000fd5b505050506040513d601f19601f820116820180604052508101906127ae919061380c565b5050612acd565b6127bf87826122a3565b60006127106003546127106127d49190613852565b896001600160a01b031663313ce5676040518163ffffffff1660e01b8152600401602060405180830381865afa158015612812573d6000803e3d6000fd5b505050506040513d601f19601f8201168201806040525081019061283691906136a9565b61284190600a6137a6565b61284b85896137b2565b61285591906137d1565b61285f91906137b2565b61286991906137d1565b60405163a9059cbb60e01b81529091506001600160a01b037f0000000000000000000000000000000000000000000000000000000000000000169063a9059cbb906128ba90879085906004016137f3565b6020604051808303816000875af11580156128d9573d6000803e3d6000fd5b505050506040513d601f19601f820116820180604052508101906128fd919061380c565b506001600160a01b03881660009081526006602052604090208054889081106129285761292861364a565b906000526020600020906007020160020154821015612acb5760006127106003546127106129569190613691565b8a6001600160a01b031663313ce5676040518163ffffffff1660e01b8152600401602060405180830381865afa158015612994573d6000803e3d6000fd5b505050506040513d601f19601f820116820180604052508101906129b891906136a9565b6129c390600a6137a6565b6001600160a01b038c16600090815260066020526040902080548791908d9081106129f0576129f061364a565b906000526020600020906007020160020154612a0c9190613852565b612a16908a6137b2565b612a2091906137d1565b612a2a91906137b2565b612a3491906137d1565b60405163a9059cbb60e01b81529091506001600160a01b037f0000000000000000000000000000000000000000000000000000000000000000169063a9059cbb90612a8590879085906004016137f3565b6020604051808303816000875af1158015612aa4573d6000803e3d6000fd5b505050506040513d601f19601f82011682018060405250810190612ac8919061380c565b50505b505b60006040518060c0016040528086815260200183815260200188815260200187815260200142815260200160001515815250905060056000896001600160a01b03166001600160a01b03168152602001908152602001600020819080600181540180825580915050600190039060005260206000209060060201600090919091909150600082015181600001556020820151816001015560408201518160020155606082015181600301556080820151816004015560a08201518160050160006101000a81548160ff021916908315150217905550505060006001600560008b6001600160a01b03166001600160a01b0316815260200190815260200160002080549050612bdb9190613852565b6001600160a01b038a16600090815260066020526040902080549192509089908110612c0957612c0961364a565b600091825260208083206003600790930201919091018054600181018255908352818320018390556001600160a01b038b1682526006905260409020805488908110612c5757612c5761364a565b6000918252602080832060036007909302019190910180546001810182559083529120018190556040517fe218c3d1d8b1ec772927a9ce1f2298a05a485dac978259bdfe6db25bb4289bf690612cb2908b9088908b9061382e565b60405180910390a16001600160a01b03808a16600090815260096020908152604080832093891683529290529081208054889290612cf1908490613852565b90915550506040517fe218c3d1d8b1ec772927a9ce1f2298a05a485dac978259bdfe6db25bb4289bf690612d2a908b9087908c9061382e565b60405180910390a1604080516001600160a01b038b8116825260208201899052818301869052606082018490528681166080830152871660a082015260c081018a905260e081018990524261010082015290517fb74ac5b7de6f52983dc4c6b6dd75959b128df961c258683a83e2e71816a3d42f918190036101200190a1505050505050505050565b600080546001600160a01b038381166001600160a01b0319831681178455604051919092169283917f8be0079c531659141344cd1fd0a4f28419497f9722a3daafe3b4186f6b6457e09190a35050565b6001600160a01b0382166000908152600660205260409020805433919083908110612e3057612e3061364a565b60009182526020909120600790910201546001600160a01b03161480612e6057506000546001600160a01b031633145b612eac5760405162461bcd60e51b815260206004820152601e60248201527f596f7520617265206e6f74206f776e6572206f6620746865206f7264657200006044820152606401610893565b6001600160a01b0382166000908152600660205260408120805483908110612ed657612ed661364a565b90600052602060002090600702016004015411156105dc576001600160a01b0382166000908152600660205260409020805482908110612f1857612f1861364a565b600091825260209091206005600790920201015460ff1615612f38575050565b6001600160a01b0382166000908152600660205260409020805482908110612f6257612f6261364a565b600091825260209091206005600790920201015460ff610100909104161515600114156131a4576000612710600354612710612f9e9190613691565b846001600160a01b031663313ce5676040518163ffffffff1660e01b8152600401602060405180830381865afa158015612fdc573d6000803e3d6000fd5b505050506040513d601f19601f8201168201806040525081019061300091906136a9565b61300b90600a6137a6565b6001600160a01b03861660009081526006602052604090208054869081106130355761303561364a565b90600052602060002090600702016002015460066000886001600160a01b03166001600160a01b03168152602001908152602001600020868154811061307d5761307d61364a565b90600052602060002090600702016004015461309991906137b2565b6130a391906137d1565b6130ad91906137b2565b6130b791906137d1565b90507f00000000000000000000000000000000000000000000000000000000000000006001600160a01b031663a9059cbb60066000866001600160a01b03166001600160a01b03168152602001908152602001600020848154811061311e5761311e61364a565b60009182526020909120600790910201546040516001600160e01b031960e084901b16815261315b916001600160a01b03169085906004016137f3565b6020604051808303816000875af115801561317a573d6000803e3d6000fd5b505050506040513d601f19601f8201168201806040525081019061319e919061380c565b50505050565b6001600160a01b0382166000818152600660205260409020805463a9059cbb9190849081106131d5576131d561364a565b600091825260208083206007909202909101546001600160a01b038781168452600690925260409092208054919092169190859081106132175761321761364a565b9060005260206000209060070201600401546040518363ffffffff1660e01b81526004016132469291906137f3565b6020604051808303816000875af1158015613265573d6000803e3d6000fd5b505050506040513d601f19601f82011682018060405250810190613289919061380c565b505050565b60405180610100016040528060006001600160a01b0316815260200160008152602001600081526020016060815260200160008152602001600015158152602001600015158152602001600081525090565b82805482825590600052602060002090810192821561331b579160200282015b8281111561331b578251825591602001919060010190613300565b50613327929150613366565b5090565b5080546000825560070290600052602060002090810190612246919061337b565b508054600082559060005260206000209081019061224691905b5b808211156133275760008155600101613367565b808211156133275780546001600160a01b0319168155600060018201819055600282018190556133ae600383018261334c565b5060006004820181905560058201805461ffff19169055600682015560070161337b565b80356001600160a01b03811681146133e957600080fd5b919050565b60006020828403121561340057600080fd5b611658826133d2565b602080825282518282018190526000919060409081850190868401855b828110156134765781518051855286810151878601528581015186860152606080820151908601526080808201519086015260a09081015115159085015260c09093019290850190600101613426565b5091979650505050505050565b6000806040838503121561349657600080fd5b61349f836133d2565b946020939093013593505050565b60006020808301818452808551808352604092508286019150828160051b8701018488016000805b8481101561358457898403603f19018652825180516001600160a01b03168552888101518986015287810151888601526060808201516101009187018290528051918701829052610120870191908b0190855b818110156135445782518452928c0192918c0191600101613528565b5050506080828101519087015260a08083015115159087015260c08083015115159087015260e091820151919095015294870194918701916001016134d5565b50919998505050505050505050565b6000806000606084860312156135a857600080fd5b6135b1846133d2565b95602085013595506040909401359392505050565b6000602082840312156135d857600080fd5b5035919050565b600080604083850312156135f257600080fd5b6135fb836133d2565b9150613609602084016133d2565b90509250929050565b6000806040838503121561362557600080fd5b50508035926020909101359150565b634e487b7160e01b600052604160045260246000fd5b634e487b7160e01b600052603260045260246000fd5b634e487b7160e01b600052601160045260246000fd5b600060001982141561368a5761368a613660565b5060010190565b600082198211156136a4576136a4613660565b500190565b6000602082840312156136bb57600080fd5b5051919050565b600181815b808511156136fd5781600019048211156136e3576136e3613660565b808516156136f057918102915b93841c93908002906136c7565b509250929050565b60008261371457506001611f89565b8161372157506000611f89565b816001811461373757600281146137415761375d565b6001915050611f89565b60ff84111561375257613752613660565b50506001821b611f89565b5060208310610133831016604e8410600b8410161715613780575081810a611f89565b61378a83836136c2565b806000190482111561379e5761379e613660565b029392505050565b60006116588383613705565b60008160001904831182151516156137cc576137cc613660565b500290565b6000826137ee57634e487b7160e01b600052601260045260246000fd5b500490565b6001600160a01b03929092168252602082015260400190565b60006020828403121561381e57600080fd5b8151801515811461165857600080fd5b6001600160a01b039384168152919092166020820152604081019190915260600190565b60008282101561386457613864613660565b500390565b60008161387857613878613660565b50600019019056fea264697066735822122011a77a2d71e519803cc075cbfedd1487750ea763e325b7c5970594bf1d5d2c2064736f6c634300080a0033",
  "linkReferences": {},
  "deployedLinkReferences": {}
}