{
  "_format": "hh-sol-artifact-1",
  "contractName": "ProjectTrade",
  "sourceName": "contracts/ProjectTrade.sol",
  "abi": [
    {
      "inputs": [
        {
          "internalType": "address",
          "name": "_YUSD",
          "type": "address"
        },
        {
          "internalType": "address",
          "name": "_treasury",
          "type": "address"
        }
      ],
      "stateMutability": "nonpayable",
      "type": "constructor"
    },
    {
      "anonymous": false,
      "inputs": [
        {
          "indexed": false,
          "internalType": "address",
          "name": "pToken",
          "type": "address"
        },
        {
          "indexed": false,
          "internalType": "uint256",
          "name": "timestamp",
          "type": "uint256"
        }
      ],
      "name": "AddNewProjectToken",
      "type": "event"
    },
    {
      "anonymous": false,
      "inputs": [
        {
          "indexed": false,
          "internalType": "address",
          "name": "pToken",
          "type": "address"
        },
        {
          "indexed": false,
          "internalType": "uint256",
          "name": "orderId",
          "type": "uint256"
        }
      ],
      "name": "CancelOrder",
      "type": "event"
    },
    {
      "anonymous": false,
      "inputs": [
        {
          "indexed": false,
          "internalType": "address",
          "name": "pToken",
          "type": "address"
        },
        {
          "indexed": false,
          "internalType": "address",
          "name": "owner",
          "type": "address"
        },
        {
          "indexed": true,
          "internalType": "uint256",
          "name": "orderId",
          "type": "uint256"
        },
        {
          "indexed": false,
          "internalType": "uint256",
          "name": "amount",
          "type": "uint256"
        },
        {
          "indexed": false,
          "internalType": "uint256",
          "name": "orderPrice",
          "type": "uint256"
        },
        {
          "indexed": false,
          "internalType": "bool",
          "name": "isBuy",
          "type": "bool"
        }
      ],
      "name": "OrderCreated",
      "type": "event"
    },
    {
      "anonymous": false,
      "inputs": [
        {
          "indexed": true,
          "internalType": "address",
          "name": "previousOwner",
          "type": "address"
        },
        {
          "indexed": true,
          "internalType": "address",
          "name": "newOwner",
          "type": "address"
        }
      ],
      "name": "OwnershipTransferred",
      "type": "event"
    },
    {
      "anonymous": false,
      "inputs": [
        {
          "indexed": false,
          "internalType": "address",
          "name": "pToken",
          "type": "address"
        },
        {
          "indexed": false,
          "internalType": "uint256",
          "name": "price",
          "type": "uint256"
        },
        {
          "indexed": false,
          "internalType": "uint256",
          "name": "timestamp",
          "type": "uint256"
        }
      ],
      "name": "SetPrice",
      "type": "event"
    },
    {
      "anonymous": false,
      "inputs": [
        {
          "indexed": false,
          "internalType": "address",
          "name": "pToken",
          "type": "address"
        },
        {
          "indexed": false,
          "internalType": "address",
          "name": "owner",
          "type": "address"
        },
        {
          "indexed": false,
          "internalType": "uint256",
          "name": "orderId",
          "type": "uint256"
        }
      ],
      "name": "TradeOrder",
      "type": "event"
    },
    {
      "anonymous": false,
      "inputs": [
        {
          "indexed": false,
          "internalType": "address",
          "name": "pToken",
          "type": "address"
        },
        {
          "indexed": false,
          "internalType": "uint256",
          "name": "amount",
          "type": "uint256"
        },
        {
          "indexed": false,
          "internalType": "uint256",
          "name": "tradePrice",
          "type": "uint256"
        },
        {
          "indexed": false,
          "internalType": "uint256",
          "name": "transactionId",
          "type": "uint256"
        },
        {
          "indexed": false,
          "internalType": "address",
          "name": "buyOwner",
          "type": "address"
        },
        {
          "indexed": false,
          "internalType": "address",
          "name": "sellOwner",
          "type": "address"
        },
        {
          "indexed": false,
          "internalType": "uint256",
          "name": "buyOrderId",
          "type": "uint256"
        },
        {
          "indexed": false,
          "internalType": "uint256",
          "name": "sellOrderId",
          "type": "uint256"
        },
        {
          "indexed": false,
          "internalType": "uint256",
          "name": "timestamp",
          "type": "uint256"
        }
      ],
      "name": "TradeTransaction",
      "type": "event"
    },
    {
      "inputs": [],
      "name": "FEE",
      "outputs": [
        {
          "internalType": "uint256",
          "name": "",
          "type": "uint256"
        }
      ],
      "stateMutability": "view",
      "type": "function"
    },
    {
      "inputs": [],
      "name": "PERCENT_PRECISION",
      "outputs": [
        {
          "internalType": "uint256",
          "name": "",
          "type": "uint256"
        }
      ],
      "stateMutability": "view",
      "type": "function"
    },
    {
      "inputs": [
        {
          "internalType": "uint256",
          "name": "",
          "type": "uint256"
        }
      ],
      "name": "PTokens",
      "outputs": [
        {
          "internalType": "address",
          "name": "",
          "type": "address"
        }
      ],
      "stateMutability": "view",
      "type": "function"
    },
    {
      "inputs": [],
      "name": "YUSD",
      "outputs": [
        {
          "internalType": "contract IERC20",
          "name": "",
          "type": "address"
        }
      ],
      "stateMutability": "view",
      "type": "function"
    },
    {
      "inputs": [
        {
          "internalType": "address",
          "name": "_address",
          "type": "address"
        }
      ],
      "name": "addressToString",
      "outputs": [
        {
          "internalType": "string",
          "name": "",
          "type": "string"
        }
      ],
      "stateMutability": "pure",
      "type": "function"
    },
    {
      "inputs": [
        {
          "internalType": "address",
          "name": "_pToken",
          "type": "address"
        },
        {
          "internalType": "uint256",
          "name": "_amount",
          "type": "uint256"
        },
        {
          "internalType": "uint256",
          "name": "_price",
          "type": "uint256"
        }
      ],
      "name": "buy",
      "outputs": [],
      "stateMutability": "nonpayable",
      "type": "function"
    },
    {
      "inputs": [
        {
          "internalType": "address",
          "name": "",
          "type": "address"
        },
        {
          "internalType": "uint256",
          "name": "",
          "type": "uint256"
        }
      ],
      "name": "buyOrders",
      "outputs": [
        {
          "internalType": "uint256",
          "name": "",
          "type": "uint256"
        }
      ],
      "stateMutability": "view",
      "type": "function"
    },
    {
      "inputs": [
        {
          "internalType": "bytes",
          "name": "_bytes",
          "type": "bytes"
        }
      ],
      "name": "bytesToHexString",
      "outputs": [
        {
          "internalType": "string",
          "name": "",
          "type": "string"
        }
      ],
      "stateMutability": "pure",
      "type": "function"
    },
    {
      "inputs": [
        {
          "internalType": "address",
          "name": "_pToken",
          "type": "address"
        },
        {
          "internalType": "uint256",
          "name": "_orderId",
          "type": "uint256"
        }
      ],
      "name": "cancelOrder",
      "outputs": [],
      "stateMutability": "nonpayable",
      "type": "function"
    },
    {
      "inputs": [
        {
          "internalType": "string",
          "name": "a",
          "type": "string"
        },
        {
          "internalType": "string",
          "name": "b",
          "type": "string"
        }
      ],
      "name": "concatStrings",
      "outputs": [
        {
          "internalType": "string",
          "name": "",
          "type": "string"
        }
      ],
      "stateMutability": "pure",
      "type": "function"
    },
    {
      "inputs": [
        {
          "internalType": "address",
          "name": "_pToken",
          "type": "address"
        }
      ],
      "name": "getBuyOrders",
      "outputs": [
        {
          "components": [
            {
              "internalType": "address",
              "name": "owner",
              "type": "address"
            },
            {
              "internalType": "uint256",
              "name": "totalAmount",
              "type": "uint256"
            },
            {
              "internalType": "uint256",
              "name": "orderPrice",
              "type": "uint256"
            },
            {
              "internalType": "uint256[]",
              "name": "transactionIds",
              "type": "uint256[]"
            },
            {
              "internalType": "uint256",
              "name": "remainingAmount",
              "type": "uint256"
            },
            {
              "internalType": "bool",
              "name": "isCancelled",
              "type": "bool"
            },
            {
              "internalType": "bool",
              "name": "isBuy",
              "type": "bool"
            },
            {
              "internalType": "uint256",
              "name": "timestamp",
              "type": "uint256"
            }
          ],
          "internalType": "struct ProjectTrade.Order[]",
          "name": "",
          "type": "tuple[]"
        }
      ],
      "stateMutability": "view",
      "type": "function"
    },
    {
      "inputs": [
        {
          "internalType": "address",
          "name": "_pToken",
          "type": "address"
        }
      ],
      "name": "getSellOrders",
      "outputs": [
        {
          "components": [
            {
              "internalType": "address",
              "name": "owner",
              "type": "address"
            },
            {
              "internalType": "uint256",
              "name": "totalAmount",
              "type": "uint256"
            },
            {
              "internalType": "uint256",
              "name": "orderPrice",
              "type": "uint256"
            },
            {
              "internalType": "uint256[]",
              "name": "transactionIds",
              "type": "uint256[]"
            },
            {
              "internalType": "uint256",
              "name": "remainingAmount",
              "type": "uint256"
            },
            {
              "internalType": "bool",
              "name": "isCancelled",
              "type": "bool"
            },
            {
              "internalType": "bool",
              "name": "isBuy",
              "type": "bool"
            },
            {
              "internalType": "uint256",
              "name": "timestamp",
              "type": "uint256"
            }
          ],
          "internalType": "struct ProjectTrade.Order[]",
          "name": "",
          "type": "tuple[]"
        }
      ],
      "stateMutability": "view",
      "type": "function"
    },
    {
      "inputs": [
        {
          "internalType": "address",
          "name": "_pToken",
          "type": "address"
        }
      ],
      "name": "getTransactions",
      "outputs": [
        {
          "components": [
            {
              "internalType": "uint256",
              "name": "amount",
              "type": "uint256"
            },
            {
              "internalType": "uint256",
              "name": "buyPrice",
              "type": "uint256"
            },
            {
              "internalType": "uint256",
              "name": "sellPrice",
              "type": "uint256"
            },
            {
              "internalType": "uint256",
              "name": "buyOrderId",
              "type": "uint256"
            },
            {
              "internalType": "uint256",
              "name": "sellOrderId",
              "type": "uint256"
            },
            {
              "internalType": "uint256",
              "name": "timestamp",
              "type": "uint256"
            },
            {
              "internalType": "bool",
              "name": "isCancelled",
              "type": "bool"
            }
          ],
          "internalType": "struct ProjectTrade.Transaction[]",
          "name": "transaction",
          "type": "tuple[]"
        }
      ],
      "stateMutability": "view",
      "type": "function"
    },
    {
      "inputs": [
        {
          "internalType": "address",
          "name": "",
          "type": "address"
        },
        {
          "internalType": "uint256",
          "name": "",
          "type": "uint256"
        }
      ],
      "name": "orders",
      "outputs": [
        {
          "internalType": "address",
          "name": "owner",
          "type": "address"
        },
        {
          "internalType": "uint256",
          "name": "totalAmount",
          "type": "uint256"
        },
        {
          "internalType": "uint256",
          "name": "orderPrice",
          "type": "uint256"
        },
        {
          "internalType": "uint256",
          "name": "remainingAmount",
          "type": "uint256"
        },
        {
          "internalType": "bool",
          "name": "isCancelled",
          "type": "bool"
        },
        {
          "internalType": "bool",
          "name": "isBuy",
          "type": "bool"
        },
        {
          "internalType": "uint256",
          "name": "timestamp",
          "type": "uint256"
        }
      ],
      "stateMutability": "view",
      "type": "function"
    },
    {
      "inputs": [],
      "name": "owner",
      "outputs": [
        {
          "internalType": "address",
          "name": "",
          "type": "address"
        }
      ],
      "stateMutability": "view",
      "type": "function"
    },
    {
      "inputs": [],
      "name": "renounceOwnership",
      "outputs": [],
      "stateMutability": "nonpayable",
      "type": "function"
    },
    {
      "inputs": [
        {
          "internalType": "uint256",
          "name": "a",
          "type": "uint256"
        },
        {
          "internalType": "uint256",
          "name": "b",
          "type": "uint256"
        }
      ],
      "name": "safeAdd",
      "outputs": [
        {
          "internalType": "uint256",
          "name": "c",
          "type": "uint256"
        }
      ],
      "stateMutability": "pure",
      "type": "function"
    },
    {
      "inputs": [
        {
          "internalType": "uint256",
          "name": "a",
          "type": "uint256"
        },
        {
          "internalType": "uint256",
          "name": "b",
          "type": "uint256"
        }
      ],
      "name": "safeDiv",
      "outputs": [
        {
          "internalType": "uint256",
          "name": "c",
          "type": "uint256"
        }
      ],
      "stateMutability": "pure",
      "type": "function"
    },
    {
      "inputs": [
        {
          "internalType": "uint256",
          "name": "a",
          "type": "uint256"
        },
        {
          "internalType": "uint256",
          "name": "b",
          "type": "uint256"
        }
      ],
      "name": "safeMul",
      "outputs": [
        {
          "internalType": "uint256",
          "name": "c",
          "type": "uint256"
        }
      ],
      "stateMutability": "pure",
      "type": "function"
    },
    {
      "inputs": [
        {
          "internalType": "uint256",
          "name": "a",
          "type": "uint256"
        },
        {
          "internalType": "uint256",
          "name": "b",
          "type": "uint256"
        }
      ],
      "name": "safeSub",
      "outputs": [
        {
          "internalType": "uint256",
          "name": "c",
          "type": "uint256"
        }
      ],
      "stateMutability": "pure",
      "type": "function"
    },
    {
      "inputs": [
        {
          "internalType": "address",
          "name": "_pToken",
          "type": "address"
        },
        {
          "internalType": "uint256",
          "name": "_amount",
          "type": "uint256"
        },
        {
          "internalType": "uint256",
          "name": "_price",
          "type": "uint256"
        }
      ],
      "name": "sell",
      "outputs": [],
      "stateMutability": "nonpayable",
      "type": "function"
    },
    {
      "inputs": [
        {
          "internalType": "address",
          "name": "",
          "type": "address"
        },
        {
          "internalType": "uint256",
          "name": "",
          "type": "uint256"
        }
      ],
      "name": "sellOrders",
      "outputs": [
        {
          "internalType": "uint256",
          "name": "",
          "type": "uint256"
        }
      ],
      "stateMutability": "view",
      "type": "function"
    },
    {
      "inputs": [
        {
          "internalType": "address",
          "name": "_pToken",
          "type": "address"
        },
        {
          "internalType": "uint256",
          "name": "_price",
          "type": "uint256"
        }
      ],
      "name": "setPriceByAdmin",
      "outputs": [],
      "stateMutability": "nonpayable",
      "type": "function"
    },
    {
      "inputs": [
        {
          "internalType": "address",
          "name": "",
          "type": "address"
        },
        {
          "internalType": "uint256",
          "name": "",
          "type": "uint256"
        }
      ],
      "name": "transactions",
      "outputs": [
        {
          "internalType": "uint256",
          "name": "amount",
          "type": "uint256"
        },
        {
          "internalType": "uint256",
          "name": "buyPrice",
          "type": "uint256"
        },
        {
          "internalType": "uint256",
          "name": "sellPrice",
          "type": "uint256"
        },
        {
          "internalType": "uint256",
          "name": "buyOrderId",
          "type": "uint256"
        },
        {
          "internalType": "uint256",
          "name": "sellOrderId",
          "type": "uint256"
        },
        {
          "internalType": "uint256",
          "name": "timestamp",
          "type": "uint256"
        },
        {
          "internalType": "bool",
          "name": "isCancelled",
          "type": "bool"
        }
      ],
      "stateMutability": "view",
      "type": "function"
    },
    {
      "inputs": [
        {
          "internalType": "address",
          "name": "newOwner",
          "type": "address"
        }
      ],
      "name": "transferOwnership",
      "outputs": [],
      "stateMutability": "nonpayable",
      "type": "function"
    },
    {
      "inputs": [],
      "name": "treasury",
      "outputs": [
        {
          "internalType": "address",
          "name": "",
          "type": "address"
        }
      ],
      "stateMutability": "view",
      "type": "function"
    }
  ],
  "bytecode": "0x60a060405260136003553480156200001657600080fd5b5060405162003d6838038062003d688339810160408190526200003991620000da565b62000044336200006d565b6001600160a01b03918216608052600180546001600160a01b0319169190921617905562000112565b600080546001600160a01b038381166001600160a01b0319831681178455604051919092169283917f8be0079c531659141344cd1fd0a4f28419497f9722a3daafe3b4186f6b6457e09190a35050565b80516001600160a01b0381168114620000d557600080fd5b919050565b60008060408385031215620000ee57600080fd5b620000f983620000bd565b91506200010960208401620000bd565b90509250929050565b608051613c1e6200014a6000396000818161027301528181610b890152818161168c0152818161275f0152612a980152613c1e6000f3fe608060405234801561001057600080fd5b506004361061018e5760003560e01c80637c982796116100de578063c57981b511610097578063e97d574011610071578063e97d574014610404578063eac92f2a14610417578063f2fde38b1461042a578063ffe8e3721461043d57600080fd5b8063c57981b5146103d5578063d05c78da146103de578063e6cb9013146103f157600080fd5b80637c982796146103655780637d520c22146103785780638da5cb5b1461038b578063a293d1e81461039c578063a59ac6dd146103af578063b5931f7c146103c257600080fd5b80636190cefb1161014b5780636a272462116101255780636a272462146102d3578063715018a6146102e657806371d177cb146102ee578063793b8c6d1461030f57600080fd5b80636190cefb1461026e57806361d027b3146102ad5780636a206137146102c057600080fd5b80630f8cda201461019357806312600aa3146101bc57806314538128146101dc5780634142e8a914610226578063551f7a501461023b5780635e57966d1461025b575b600080fd5b6101a66101a13660046135f8565b610446565b6040516101b39190613613565b60405180910390f35b6101cf6101ca366004613743565b610500565b6040516101b391906137a7565b6101ef6101ea3660046137fc565b61063e565b604080519788526020880196909652948601939093526060850191909152608084015260a0830152151560c082015260e0016101b3565b6102396102343660046137fc565b61069b565b005b61024e6102493660046135f8565b6106b1565b6040516101b39190613826565b6101cf6102693660046135f8565b610896565b6102957f000000000000000000000000000000000000000000000000000000000000000081565b6040516001600160a01b0390911681526020016101b3565b600154610295906001600160a01b031681565b6102396102ce3660046137fc565b6108da565b6102396102e136600461390c565b610db7565b6102396112ef565b6103016102fc3660046137fc565b611303565b6040519081526020016101b3565b61032261031d3660046137fc565b611334565b604080516001600160a01b039098168852602088019690965294860193909352606085019190915215156080840152151560a083015260c082015260e0016101b3565b61029561037336600461393f565b61139f565b6101cf610386366004613958565b6113c9565b6000546001600160a01b0316610295565b6103016103aa3660046139a9565b61156e565b6102396103bd36600461390c565b611587565b6103016103d03660046139a9565b611b82565b61030160035481565b6103016103ec3660046139a9565b611b9a565b6103016103ff3660046139a9565b611bc6565b6103016104123660046137fc565b611be1565b61024e6104253660046135f8565b611bfd565b6102396104383660046135f8565b611ddb565b61030161271081565b6001600160a01b0381166000908152600560209081526040808320805482518185028101850190935280835260609492939192909184015b828210156104f55760008481526020908190206040805160e0810182526007860290920180548352600180820154848601526002820154928401929092526003810154606084015260048101546080840152600581015460a08401526006015460ff16151560c0830152908352909201910161047e565b505050509050919050565b805182516060918491849160009161051891906139e1565b67ffffffffffffffff81111561053057610530613697565b6040519080825280601f01601f19166020018201604052801561055a576020820181803683370190505b50905060005b83518110156105c15783818151811061057b5761057b6139f9565b602001015160f81c60f81b828281518110610598576105986139f9565b60200101906001600160f81b031916908160001a905350806105b981613a0f565b915050610560565b5060005b8251811015610632578281815181106105e0576105e06139f9565b602001015160f81c60f81b828286516105f991906139e1565b81518110610609576106096139f9565b60200101906001600160f81b031916908160001a9053508061062a81613a0f565b9150506105c5565b50925050505b92915050565b6005602052816000526040600020818154811061065a57600080fd5b600091825260209091206007909102018054600182015460028301546003840154600485015460058601546006909601549497509295509093909260ff1687565b6106a3611e54565b6106ad8282611eae565b5050565b6001600160a01b0381166000908152600760205260408120546060919067ffffffffffffffff8111156106e6576106e6613697565b60405190808252806020026020018201604052801561071f57816020015b61070c61352a565b8152602001906001900390816107045790505b50905060005b6001600160a01b03841660009081526007602052604090205481101561088f576001600160a01b0384166000908152600660209081526040808320600790925290912080548390811061077a5761077a6139f9565b906000526020600020015481548110610795576107956139f9565b60009182526020918290206040805161010081018252600790930290910180546001600160a01b031683526001810154838501526002810154838301526003810180548351818702810187019094528084529394919360608601939283018282801561082057602002820191906000526020600020905b81548152602001906001019080831161080c575b505050918352505060048201546020820152600582015460ff8082161515604084015261010090910416151560608201526006909101546080909101528251839083908110610871576108716139f9565b6020026020010181905250808061088790613a0f565b915050610725565b5092915050565b604051606082811b6bffffffffffffffffffffffff191660208301529060009060340160405160208183030381529060405290506108d3816113c9565b9392505050565b6001600160a01b0382166000908152600660205260409020805433919083908110610907576109076139f9565b60009182526020909120600790910201546001600160a01b0316146109735760405162461bcd60e51b815260206004820152601e60248201527f596f7520617265206e6f74206f776e6572206f6620746865206f72646572000060448201526064015b60405180910390fd5b6001600160a01b0382166000908152600660205260409020805460019190839081106109a1576109a16139f9565b60009182526020808320600792909202909101600501805460ff1916931515939093179092556001600160a01b03841681526006909152604081208054839081106109ee576109ee6139f9565b9060005260206000209060070201600401541115610d70576001600160a01b0382166000908152600660205260409020805482908110610a3057610a306139f9565b600091825260209091206005600790920201015460ff61010090910416151560011415610c75576000612710600354612710610a6c91906139e1565b846001600160a01b031663313ce5676040518163ffffffff1660e01b8152600401602060405180830381865afa158015610aaa573d6000803e3d6000fd5b505050506040513d601f19601f82011682018060405250810190610ace9190613a2a565b610ad990600a613b27565b6001600160a01b0386166000908152600660205260409020805486908110610b0357610b036139f9565b90600052602060002090600702016002015460066000886001600160a01b03166001600160a01b031681526020019081526020016000208681548110610b4b57610b4b6139f9565b906000526020600020906007020160040154610b679190613b33565b610b719190613b52565b610b7b9190613b33565b610b859190613b52565b90507f00000000000000000000000000000000000000000000000000000000000000006001600160a01b031663a9059cbb60066000866001600160a01b03166001600160a01b031681526020019081526020016000208481548110610bec57610bec6139f9565b600091825260209091206007909102015460405160e083901b6001600160e01b03191681526001600160a01b039091166004820152602481018490526044016020604051808303816000875af1158015610c4a573d6000803e3d6000fd5b505050506040513d601f19601f82011682018060405250810190610c6e9190613b74565b5050610d70565b6001600160a01b0382166000818152600660205260409020805463a9059cbb919084908110610ca657610ca66139f9565b600091825260208083206007909202909101546001600160a01b03878116845260069092526040909220805491909216919085908110610ce857610ce86139f9565b9060005260206000209060070201600401546040518363ffffffff1660e01b8152600401610d2b9291906001600160a01b03929092168252602082015260400190565b6020604051808303816000875af1158015610d4a573d6000803e3d6000fd5b505050506040513d601f19601f82011682018060405250810190610d6e9190613b74565b505b604080516001600160a01b0384168152602081018390527fc0e68d6b69f741c21e955cad2ae4d505b6f6735c7e7b278251b3f6283a5f07eb91015b60405180910390a15050565b60008211610df85760405162461bcd60e51b815260206004820152600e60248201526d1a5b9d985b1a5908185b5bdd5b9d60921b604482015260640161096a565b6040516323b872dd60e01b81526001600160a01b038416906323b872dd90610e2890339030908790600401613b96565b6020604051808303816000875af1158015610e47573d6000803e3d6000fd5b505050506040513d601f19601f82011682018060405250810190610e6b9190613b74565b5060408051610100810182523381526020808201858152828401858152845160008082528185018752606086019182526080860189905260a0860181905260c086018190524260e08701526001600160a01b038a811682526006865296812080546001808201835591835291869020875160079093020180546001600160a01b03191692909816919091178755925192860192909255516002850155518051929384939092610f2192600385019291019061357c565b506080820151600482015560a082015160058201805460c085015115156101000261ff00199315159390931661ffff199091161791909117905560e0909101516006909101556001600160a01b0384166000818152600860209081526040822080546001818101835582855292842001839055929091529054141561102757600480546001810182556000919091527f8a35acfbc15ff81a39ae7d344fd709f28e8600b4aa8c65c6b64bfe7fe36bd19b0180546001600160a01b0319166001600160a01b038616908117909155604080519182524260208301527f1df545e94802107a856bb8a484d7cd6203e369d7b4815120c873cebb2bfb252c910160405180910390a15b6001600160a01b03841660009081526008602052604081205461104c90600190613bba565b6001600160a01b03861660009081526008602052604090205490915060011015611138576001600160a01b03851660009081526008602052604081205461109590600290613bba565b90505b6001600160a01b038616600090815260066020908152604080832060089092529091208054839081106110cd576110cd6139f9565b9060005260206000200154815481106110e8576110e86139f9565b9060005260206000209060070201600201548360400151106111165761110f8160016139e1565b9150611136565b806111245760009150611136565b8061112e81613bd1565b915050611098565b505b6001600160a01b03851660009081526008602052604081205461115d90600190613bba565b90505b818111156112055780611172576111f3565b6001600160a01b0386166000908152600860205260409020611195600183613bba565b815481106111a5576111a56139f9565b906000526020600020015460086000886001600160a01b03166001600160a01b0316815260200190815260200160002082815481106111e6576111e66139f9565b6000918252602090912001555b806111fd81613bd1565b915050611160565b506001600160a01b03851660009081526006602052604090205461122b90600190613bba565b6001600160a01b0386166000908152600860205260409020805483908110611255576112556139f9565b60009182526020808320909101929092556001600160a01b03871681526006909152604090205461128890600190613bba565b604080516001600160a01b038816815233602082015290810186905260608101859052600060808201527fca886b3852c1c7992abfda91d86e8ed48f496dbc164332b3453bcb95cf25f3db9060a00160405180910390a26112e885611f06565b5050505050565b6112f7611e54565b61130160006134da565b565b6007602052816000526040600020818154811061131f57600080fd5b90600052602060002001600091509150505481565b6006602052816000526040600020818154811061135057600080fd5b60009182526020909120600790910201805460018201546002830154600484015460058501546006909501546001600160a01b03909416965091945092909160ff808316926101009004169087565b600481815481106113af57600080fd5b6000918252602090912001546001600160a01b0316905081565b60408051808201909152601081526f181899199a1a9b1b9c1cb0b131b232b360811b6020820152815160609190600090611404906002613b33565b67ffffffffffffffff81111561141c5761141c613697565b6040519080825280601f01601f191660200182016040528015611446576020820181803683370190505b50905060005b84518110156115665782600486838151811061146a5761146a6139f9565b016020015182516001600160f81b031990911690911c60f81c908110611492576114926139f9565b01602001516001600160f81b031916826114ad836002613b33565b815181106114bd576114bd6139f9565b60200101906001600160f81b031916908160001a905350828582815181106114e7576114e76139f9565b602091010151815160f89190911c600f16908110611507576115076139f9565b01602001516001600160f81b03191682611522836002613b33565b61152d9060016139e1565b8151811061153d5761153d6139f9565b60200101906001600160f81b031916908160001a9053508061155e81613a0f565b91505061144c565b509392505050565b60008282111561157d57600080fd5b6108d38284613bba565b600082116115c85760405162461bcd60e51b815260206004820152600e60248201526d1a5b9d985b1a5908185b5bdd5b9d60921b604482015260640161096a565b60006127106003546127106115dd91906139e1565b856001600160a01b031663313ce5676040518163ffffffff1660e01b8152600401602060405180830381865afa15801561161b573d6000803e3d6000fd5b505050506040513d601f19601f8201168201806040525081019061163f9190613a2a565b61164a90600a613b27565b6116548587613b33565b61165e9190613b52565b6116689190613b33565b6116729190613b52565b6040516323b872dd60e01b81529091506001600160a01b037f000000000000000000000000000000000000000000000000000000000000000016906323b872dd906116c590339030908690600401613b96565b6020604051808303816000875af11580156116e4573d6000803e3d6000fd5b505050506040513d601f19601f820116820180604052508101906117089190613b74565b506040805161010081018252338152602080820186815282840186815284516000808252818501875260608601918252608086018a905260a08601819052600160c087018190524260e08801526001600160a01b038c81168352600687529782208054808301825590835291869020875160079093020180546001600160a01b031916929098169190911787559251928601929092555160028501555180519293849390926117be92600385019291019061357c565b506080820151600482015560a082015160058201805460c085015115156101000261ff00199315159390931661ffff199091161791909117905560e0909101516006909101556001600160a01b038516600081815260076020908152604082208054600181810183558285529284200183905592909152905414156118c457600480546001810182556000919091527f8a35acfbc15ff81a39ae7d344fd709f28e8600b4aa8c65c6b64bfe7fe36bd19b0180546001600160a01b0319166001600160a01b038716908117909155604080519182524260208301527f1df545e94802107a856bb8a484d7cd6203e369d7b4815120c873cebb2bfb252c910160405180910390a15b6001600160a01b0385166000908152600760205260408120546118e990600190613bba565b6001600160a01b038716600090815260076020526040902054909150600110156119d5576001600160a01b03861660009081526007602052604081205461193290600290613bba565b90505b6001600160a01b0387166000908152600660209081526040808320600790925290912080548390811061196a5761196a6139f9565b906000526020600020015481548110611985576119856139f9565b9060005260206000209060070201600201548360400151106119b3576119ac8160016139e1565b91506119d3565b806119c157600091506119d3565b806119cb81613bd1565b915050611935565b505b6001600160a01b0386166000908152600760205260408120546119fa90600190613bba565b90505b81811115611a97576001600160a01b0387166000908152600760205260409020611a28600183613bba565b81548110611a3857611a386139f9565b906000526020600020015460076000896001600160a01b03166001600160a01b031681526020019081526020016000208281548110611a7957611a796139f9565b60009182526020909120015580611a8f81613bd1565b9150506119fd565b506001600160a01b038616600090815260066020526040902054611abd90600190613bba565b6001600160a01b0387166000908152600760205260409020805483908110611ae757611ae76139f9565b60009182526020808320909101929092556001600160a01b038816815260069091526040902054611b1a90600190613bba565b604080516001600160a01b038916815233602082015290810187905260608101869052600160808201527fca886b3852c1c7992abfda91d86e8ed48f496dbc164332b3453bcb95cf25f3db9060a00160405180910390a2611b7a86611f06565b505050505050565b6000808211611b9057600080fd5b6108d38284613b52565b6000611ba68284613b33565b9050821580611bbd575081611bbb8483613b52565b145b61063857600080fd5b6000611bd282846139e1565b90508281101561063857600080fd5b6008602052816000526040600020818154811061131f57600080fd5b6001600160a01b0381166000908152600860205260408120546060919067ffffffffffffffff811115611c3257611c32613697565b604051908082528060200260200182016040528015611c6b57816020015b611c5861352a565b815260200190600190039081611c505790505b50905060005b6001600160a01b03841660009081526008602052604090205481101561088f576001600160a01b03841660009081526006602090815260408083206008909252909120805483908110611cc657611cc66139f9565b906000526020600020015481548110611ce157611ce16139f9565b60009182526020918290206040805161010081018252600790930290910180546001600160a01b0316835260018101548385015260028101548383015260038101805483518187028101870190945280845293949193606086019392830182828015611d6c57602002820191906000526020600020905b815481526020019060010190808311611d58575b505050918352505060048201546020820152600582015460ff8082161515604084015261010090910416151560608201526006909101546080909101528251839083908110611dbd57611dbd6139f9565b60200260200101819052508080611dd390613a0f565b915050611c71565b611de3611e54565b6001600160a01b038116611e485760405162461bcd60e51b815260206004820152602660248201527f4f776e61626c653a206e6577206f776e657220697320746865207a65726f206160448201526564647265737360d01b606482015260840161096a565b611e51816134da565b50565b6000546001600160a01b031633146113015760405162461bcd60e51b815260206004820181905260248201527f4f776e61626c653a2063616c6c6572206973206e6f7420746865206f776e6572604482015260640161096a565b6001600160a01b0382166000818152600260209081526040918290208490558151928352820183905242908201527f5c43325359179f4471448fd5c0247053caeec2178ee6378a1a3eb4b2030d314690606001610dab565b60005b6001600160a01b0382166000908152600860205260409020548110156106ad576001600160a01b03821660009081526006602090815260408083206008909252909120805483908110611f5e57611f5e6139f9565b906000526020600020015481548110611f7957611f796139f9565b600091825260209091206005600790920201015460ff1615156001148061200157506001600160a01b03821660009081526006602090815260408083206008909252909120805483908110611fd057611fd06139f9565b906000526020600020015481548110611feb57611feb6139f9565b9060005260206000209060070201600401546000145b1561200b576134c8565b60005b6001600160a01b0383166000908152600760205260409020548110156134c6576001600160a01b03831660009081526006602090815260408083206007909252909120805483908110612063576120636139f9565b90600052602060002001548154811061207e5761207e6139f9565b600091825260209091206005600790920201015460ff1615156001148061210657506001600160a01b038316600090815260066020908152604080832060079092529091208054839081106120d5576120d56139f9565b9060005260206000200154815481106120f0576120f06139f9565b9060005260206000209060070201600401546000145b15612110576134b4565b815b6001600160a01b0384166000908152600860205260409020548110156134b2576001600160a01b03841660009081526006602090815260408083206008909252909120805483908110612167576121676139f9565b906000526020600020015481548110612182576121826139f9565b600091825260209091206005600790920201015460ff1615156001148061220a57506001600160a01b038416600090815260066020908152604080832060089092529091208054839081106121d9576121d96139f9565b9060005260206000200154815481106121f4576121f46139f9565b9060005260206000209060070201600401546000145b8061227657506001600160a01b03841660009081526006602090815260408083206007909252909120805484908110612245576122456139f9565b906000526020600020015481548110612260576122606139f9565b9060005260206000209060070201600401546000145b15612280576134a0565b6001600160a01b038416600090815260066020908152604080832060079092529091208054849081106122b5576122b56139f9565b9060005260206000200154815481106122d0576122d06139f9565b60009182526020808320600260079093020191909101546001600160a01b03871683526006825260408084206008909352909220805484908110612316576123166139f9565b906000526020600020015481548110612331576123316139f9565b9060005260206000209060070201600201541161349b576001600160a01b03841660009081526006602090815260408083206007909252822080548590811061237c5761237c6139f9565b906000526020600020015481548110612397576123976139f9565b60009182526020808320600460079093020191909101546001600160a01b038816835260068252604080842060089093529092208054859081106123dd576123dd6139f9565b9060005260206000200154815481106123f8576123f86139f9565b90600052602060002090600702016004015411612478576001600160a01b03851660009081526006602090815260408083206008909252909120805484908110612444576124446139f9565b90600052602060002001548154811061245f5761245f6139f9565b90600052602060002090600702016004015490506124dd565b6001600160a01b038516600090815260066020908152604080832060079092529091208054859081106124ad576124ad6139f9565b9060005260206000200154815481106124c8576124c86139f9565b90600052602060002090600702016004015490505b6001600160a01b03851660009081526006602090815260408083206008909252909120805461254c92889290918690811061251a5761251a6139f9565b906000526020600020015481548110612535576125356139f9565b906000526020600020906007020160020154611eae565b6001600160a01b03851660008181526006602090815260408083206007909252909120805463a9059cbb92919087908110612589576125896139f9565b9060005260206000200154815481106125a4576125a46139f9565b600091825260209091206007909102015460405160e083901b6001600160e01b03191681526001600160a01b039091166004820152602481018490526044016020604051808303816000875af1158015612602573d6000803e3d6000fd5b505050506040513d601f19601f820116820180604052508101906126269190613b74565b50600061271060035461271061263c9190613bba565b876001600160a01b031663313ce5676040518163ffffffff1660e01b8152600401602060405180830381865afa15801561267a573d6000803e3d6000fd5b505050506040513d601f19601f8201168201806040525081019061269e9190613a2a565b6126a990600a613b27565b6001600160a01b038916600090815260066020908152604080832060089092529091208054889081106126de576126de6139f9565b9060005260206000200154815481106126f9576126f96139f9565b906000526020600020906007020160020154856127169190613b33565b6127209190613b52565b61272a9190613b33565b6127349190613b52565b6001600160a01b038781166000908152600660209081526040808320600890925290912080549394507f00000000000000000000000000000000000000000000000000000000000000009092169263a9059cbb929087908110612799576127996139f9565b9060005260206000200154815481106127b4576127b46139f9565b600091825260209091206007909102015460405160e083901b6001600160e01b03191681526001600160a01b039091166004820152602481018490526044016020604051808303816000875af1158015612812573d6000803e3d6000fd5b505050506040513d601f19601f820116820180604052508101906128369190613b74565b506001600160a01b0386166000908152600660209081526040808320600890925290912080548590811061286c5761286c6139f9565b906000526020600020015481548110612887576128876139f9565b60009182526020808320600792830201600201546001600160a01b038a1684526006825260408085209390925292208054879081106128c8576128c86139f9565b9060005260206000200154815481106128e3576128e36139f9565b9060005260206000209060070201600201541115612b7257600061271060035461271061291091906139e1565b886001600160a01b031663313ce5676040518163ffffffff1660e01b8152600401602060405180830381865afa15801561294e573d6000803e3d6000fd5b505050506040513d601f19601f820116820180604052508101906129729190613a2a565b61297d90600a613b27565b6001600160a01b038a16600090815260066020908152604080832060089092529091208054899081106129b2576129b26139f9565b9060005260206000200154815481106129cd576129cd6139f9565b60009182526020808320600792830201600201546001600160a01b038e16845260068252604080852093909252922080548b908110612a0e57612a0e6139f9565b906000526020600020015481548110612a2957612a296139f9565b906000526020600020906007020160020154612a459190613bba565b612a4f9087613b33565b612a599190613b52565b612a639190613b33565b612a6d9190613b52565b6001600160a01b038881166000908152600660209081526040808320600790925290912080549394507f00000000000000000000000000000000000000000000000000000000000000009092169263a9059cbb929089908110612ad257612ad26139f9565b906000526020600020015481548110612aed57612aed6139f9565b600091825260209091206007909102015460405160e083901b6001600160e01b03191681526001600160a01b039091166004820152602481018490526044016020604051808303816000875af1158015612b4b573d6000803e3d6000fd5b505050506040513d601f19601f82011682018060405250810190612b6f9190613b74565b50505b6001600160a01b0386166000908152600660209081526040808320600890925290912080548492919086908110612bab57612bab6139f9565b906000526020600020015481548110612bc657612bc66139f9565b90600052602060002090600702016004016000828254612be69190613bba565b90915550506001600160a01b0386166000908152600660209081526040808320600790925290912080548492919087908110612c2457612c246139f9565b906000526020600020015481548110612c3f57612c3f6139f9565b90600052602060002090600702016004016000828254612c5f9190613bba565b90915550506040805160e0810182528381526001600160a01b03881660009081526006602090815283822060078252938220805492949184019289908110612ca957612ca96139f9565b906000526020600020015481548110612cc457612cc46139f9565b600091825260208083206002600790930201919091015483526001600160a01b038b1682526006815260408083206008835292208054939091019288908110612d0f57612d0f6139f9565b906000526020600020015481548110612d2a57612d2a6139f9565b9060005260206000209060070201600201548152602001600760008a6001600160a01b03166001600160a01b031681526020019081526020016000208781548110612d7757612d776139f9565b90600052602060002001548152602001600860008a6001600160a01b03166001600160a01b031681526020019081526020016000208681548110612dbd57612dbd6139f9565b6000918252602080832091909101548352428382015260409283018290526001600160a01b038b16808352600580835284842080546001808201835591865284862088516007909202019081558785015191810191909155868601516002820155606087015160038201556080870151600482015560a08701519181019190915560c08601516006918201805460ff1916911515919091179055908352815282822060089091529190208054929350909186908110612e7e57612e7e6139f9565b906000526020600020015481548110612e9957612e996139f9565b600091825260208083206001600160a01b038b1684526005909152604090922054600360079092029092010190612ed290600190613bba565b815460018101835560009283526020808420909101919091556001600160a01b03891682526006815260408083206007909252909120805487908110612f1a57612f1a6139f9565b906000526020600020015481548110612f3557612f356139f9565b600091825260208083206001600160a01b038b1684526005909152604090922054600360079092029092010190612f6e90600190613bba565b815460018101835560009283526020808420909101919091556001600160a01b0389168252600681526040808320600890925290912080547fe218c3d1d8b1ec772927a9ce1f2298a05a485dac978259bdfe6db25bb4289bf6928a92909188908110612fdc57612fdc6139f9565b906000526020600020015481548110612ff757612ff76139f9565b600091825260208083206007909202909101546001600160a01b038c8116845260089092526040909220805491909216919088908110613039576130396139f9565b906000526020600020015460405161305393929190613b96565b60405180910390a16001600160a01b0387166000908152600760205260408120805487908110613085576130856139f9565b906000526020600020015490506000600860008a6001600160a01b03166001600160a01b0316815260200190815260200160002086815481106130ca576130ca6139f9565b906000526020600020015490506000600660008b6001600160a01b03166001600160a01b03168152602001908152602001600020838154811061310f5761310f6139f9565b600091825260208083206007909202909101546001600160a01b038d8116845260069092526040832080549290911693509084908110613151576131516139f9565b600091825260208083206007909202909101546001600160a01b038e81168452600590925260408320549116925061318b90600190613bba565b6001600160a01b038d16600090815260066020526040812080549293509091869081106131ba576131ba6139f9565b60009182526020918290206040805161010081018252600790930290910180546001600160a01b031683526001810154838501526002810154838301526003810180548351818702810187019094528084529394919360608601939283018282801561324557602002820191906000526020600020905b815481526020019060010190808311613231575b50505050508152602001600482015481526020016005820160009054906101000a900460ff161515151581526020016005820160019054906101000a900460ff1615151515815260200160068201548152505090506000600660008f6001600160a01b03166001600160a01b0316815260200190815260200160002087815481106132d2576132d26139f9565b60009182526020918290206040805161010081018252600790930290910180546001600160a01b031683526001810154838501526002810154838301526003810180548351818702810187019094528084529394919360608601939283018282801561335d57602002820191906000526020600020905b815481526020019060010190808311613349575b50505050508152602001600482015481526020016005820160009054906101000a900460ff161515151581526020016005820160019054906101000a900460ff1615151515815260200160068201548152505090507fb74ac5b7de6f52983dc4c6b6dd75959b128df961c258683a83e2e71816a3d42f8e8b84604001518689898d8d42604051613445999897969594939291906001600160a01b03998a168152602081019890985260408801969096526060870194909452918616608086015290941660a084015260c083019390935260e08201929092526101008101919091526101200190565b60405180910390a17fe218c3d1d8b1ec772927a9ce1f2298a05a485dac978259bdfe6db25bb4289bf68e82600001518960405161348493929190613b96565b60405180910390a1505050505050505050506134a0565b6134b2565b806134aa81613a0f565b915050612112565b505b806134be81613a0f565b91505061200e565b505b806134d281613a0f565b915050611f09565b600080546001600160a01b038381166001600160a01b0319831681178455604051919092169283917f8be0079c531659141344cd1fd0a4f28419497f9722a3daafe3b4186f6b6457e09190a35050565b60405180610100016040528060006001600160a01b0316815260200160008152602001600081526020016060815260200160008152602001600015158152602001600015158152602001600081525090565b8280548282559060005260206000209081019282156135b7579160200282015b828111156135b757825182559160200191906001019061359c565b506135c39291506135c7565b5090565b5b808211156135c357600081556001016135c8565b80356001600160a01b03811681146135f357600080fd5b919050565b60006020828403121561360a57600080fd5b6108d3826135dc565b602080825282518282018190526000919060409081850190868401855b8281101561368a5781518051855286810151878601528581015186860152606080820151908601526080808201519086015260a0808201519086015260c09081015115159085015260e09093019290850190600101613630565b5091979650505050505050565b634e487b7160e01b600052604160045260246000fd5b600067ffffffffffffffff808411156136c8576136c8613697565b604051601f8501601f19908116603f011681019082821181831017156136f0576136f0613697565b8160405280935085815286868601111561370957600080fd5b858560208301376000602087830101525050509392505050565b600082601f83011261373457600080fd5b6108d3838335602085016136ad565b6000806040838503121561375657600080fd5b823567ffffffffffffffff8082111561376e57600080fd5b61377a86838701613723565b9350602085013591508082111561379057600080fd5b5061379d85828601613723565b9150509250929050565b600060208083528351808285015260005b818110156137d4578581018301518582016040015282016137b8565b818111156137e6576000604083870101525b50601f01601f1916929092016040019392505050565b6000806040838503121561380f57600080fd5b613818836135dc565b946020939093013593505050565b60006020808301818452808551808352604092508286019150828160051b8701018488016000805b848110156138fd57898403603f19018652825180516001600160a01b03168552888101518986015287810151888601526060808201516101009187018290528051918701829052610120870191908b0190855b818110156138bd5782518452928c0192918c01916001016138a1565b5050506080828101519087015260a08083015115159087015260c08083015115159087015260e0918201519190950152948701949187019160010161384e565b50919998505050505050505050565b60008060006060848603121561392157600080fd5b61392a846135dc565b95602085013595506040909401359392505050565b60006020828403121561395157600080fd5b5035919050565b60006020828403121561396a57600080fd5b813567ffffffffffffffff81111561398157600080fd5b8201601f8101841361399257600080fd5b6139a1848235602084016136ad565b949350505050565b600080604083850312156139bc57600080fd5b50508035926020909101359150565b634e487b7160e01b600052601160045260246000fd5b600082198211156139f4576139f46139cb565b500190565b634e487b7160e01b600052603260045260246000fd5b6000600019821415613a2357613a236139cb565b5060010190565b600060208284031215613a3c57600080fd5b5051919050565b600181815b80851115613a7e578160001904821115613a6457613a646139cb565b80851615613a7157918102915b93841c9390800290613a48565b509250929050565b600082613a9557506001610638565b81613aa257506000610638565b8160018114613ab85760028114613ac257613ade565b6001915050610638565b60ff841115613ad357613ad36139cb565b50506001821b610638565b5060208310610133831016604e8410600b8410161715613b01575081810a610638565b613b0b8383613a43565b8060001904821115613b1f57613b1f6139cb565b029392505050565b60006108d38383613a86565b6000816000190483118215151615613b4d57613b4d6139cb565b500290565b600082613b6f57634e487b7160e01b600052601260045260246000fd5b500490565b600060208284031215613b8657600080fd5b815180151581146108d357600080fd5b6001600160a01b039384168152919092166020820152604081019190915260600190565b600082821015613bcc57613bcc6139cb565b500390565b600081613be057613be06139cb565b50600019019056fea2646970667358221220da8f834afcbc92e044e50104e7bec544b8532f788337125e9e85d633c57a895964736f6c634300080a0033",
  "linkReferences": {},
  "deployedLinkReferences": {}
}