{
  "_format": "hh-sol-artifact-1",
  "contractName": "ProjectTrade",
  "sourceName": "contracts/ProjectTrade.sol",
  "abi": [
    {
      "inputs": [
        {
          "internalType": "address",
          "name": "_YUSD",
          "type": "address"
        },
        {
          "internalType": "address",
          "name": "_treasury",
          "type": "address"
        }
      ],
      "stateMutability": "nonpayable",
      "type": "constructor"
    },
    {
      "anonymous": false,
      "inputs": [
        {
          "indexed": false,
          "internalType": "address",
          "name": "pToken",
          "type": "address"
        },
        {
          "indexed": false,
          "internalType": "uint256",
          "name": "timestamp",
          "type": "uint256"
        }
      ],
      "name": "AddNewProjectToken",
      "type": "event"
    },
    {
      "anonymous": false,
      "inputs": [
        {
          "indexed": false,
          "internalType": "address",
          "name": "pToken",
          "type": "address"
        }
      ],
      "name": "CancelAllOrders",
      "type": "event"
    },
    {
      "anonymous": false,
      "inputs": [
        {
          "indexed": false,
          "internalType": "address",
          "name": "pToken",
          "type": "address"
        },
        {
          "indexed": false,
          "internalType": "uint256",
          "name": "orderId",
          "type": "uint256"
        }
      ],
      "name": "CancelOrder",
      "type": "event"
    },
    {
      "anonymous": false,
      "inputs": [
        {
          "indexed": false,
          "internalType": "address",
          "name": "pToken",
          "type": "address"
        },
        {
          "indexed": false,
          "internalType": "address",
          "name": "owner",
          "type": "address"
        },
        {
          "indexed": true,
          "internalType": "uint256",
          "name": "orderId",
          "type": "uint256"
        },
        {
          "indexed": false,
          "internalType": "uint256",
          "name": "amount",
          "type": "uint256"
        },
        {
          "indexed": false,
          "internalType": "uint256",
          "name": "orderPrice",
          "type": "uint256"
        },
        {
          "indexed": false,
          "internalType": "bool",
          "name": "isBuy",
          "type": "bool"
        }
      ],
      "name": "OrderCreated",
      "type": "event"
    },
    {
      "anonymous": false,
      "inputs": [
        {
          "indexed": true,
          "internalType": "address",
          "name": "previousOwner",
          "type": "address"
        },
        {
          "indexed": true,
          "internalType": "address",
          "name": "newOwner",
          "type": "address"
        }
      ],
      "name": "OwnershipTransferred",
      "type": "event"
    },
    {
      "anonymous": false,
      "inputs": [
        {
          "indexed": false,
          "internalType": "address",
          "name": "pToken",
          "type": "address"
        },
        {
          "indexed": false,
          "internalType": "bool",
          "name": "paused",
          "type": "bool"
        }
      ],
      "name": "Pause",
      "type": "event"
    },
    {
      "anonymous": false,
      "inputs": [
        {
          "indexed": false,
          "internalType": "address",
          "name": "pToken",
          "type": "address"
        }
      ],
      "name": "RemoveAllOrders",
      "type": "event"
    },
    {
      "anonymous": false,
      "inputs": [
        {
          "indexed": false,
          "internalType": "address",
          "name": "pToken",
          "type": "address"
        },
        {
          "indexed": false,
          "internalType": "uint256",
          "name": "orderId",
          "type": "uint256"
        }
      ],
      "name": "RemoveOrder",
      "type": "event"
    },
    {
      "anonymous": false,
      "inputs": [
        {
          "indexed": false,
          "internalType": "address",
          "name": "pToken",
          "type": "address"
        },
        {
          "indexed": false,
          "internalType": "uint256",
          "name": "price",
          "type": "uint256"
        },
        {
          "indexed": false,
          "internalType": "uint256",
          "name": "timestamp",
          "type": "uint256"
        }
      ],
      "name": "SetPrice",
      "type": "event"
    },
    {
      "anonymous": false,
      "inputs": [
        {
          "indexed": false,
          "internalType": "address",
          "name": "pToken",
          "type": "address"
        },
        {
          "indexed": false,
          "internalType": "address",
          "name": "owner",
          "type": "address"
        },
        {
          "indexed": false,
          "internalType": "uint256",
          "name": "orderId",
          "type": "uint256"
        }
      ],
      "name": "TradeOrder",
      "type": "event"
    },
    {
      "anonymous": false,
      "inputs": [
        {
          "indexed": false,
          "internalType": "address",
          "name": "pToken",
          "type": "address"
        },
        {
          "indexed": false,
          "internalType": "uint256",
          "name": "amount",
          "type": "uint256"
        },
        {
          "indexed": false,
          "internalType": "uint256",
          "name": "tradePrice",
          "type": "uint256"
        },
        {
          "indexed": false,
          "internalType": "uint256",
          "name": "transactionId",
          "type": "uint256"
        },
        {
          "indexed": false,
          "internalType": "address",
          "name": "buyOwner",
          "type": "address"
        },
        {
          "indexed": false,
          "internalType": "address",
          "name": "sellOwner",
          "type": "address"
        },
        {
          "indexed": false,
          "internalType": "uint256",
          "name": "buyOrderId",
          "type": "uint256"
        },
        {
          "indexed": false,
          "internalType": "uint256",
          "name": "sellOrderId",
          "type": "uint256"
        },
        {
          "indexed": false,
          "internalType": "uint256",
          "name": "timestamp",
          "type": "uint256"
        }
      ],
      "name": "TradeTransaction",
      "type": "event"
    },
    {
      "inputs": [],
      "name": "FEE",
      "outputs": [
        {
          "internalType": "uint256",
          "name": "",
          "type": "uint256"
        }
      ],
      "stateMutability": "view",
      "type": "function"
    },
    {
      "inputs": [],
      "name": "PERCENT_PRECISION",
      "outputs": [
        {
          "internalType": "uint256",
          "name": "",
          "type": "uint256"
        }
      ],
      "stateMutability": "view",
      "type": "function"
    },
    {
      "inputs": [
        {
          "internalType": "uint256",
          "name": "",
          "type": "uint256"
        }
      ],
      "name": "PTokens",
      "outputs": [
        {
          "internalType": "address",
          "name": "",
          "type": "address"
        }
      ],
      "stateMutability": "view",
      "type": "function"
    },
    {
      "inputs": [],
      "name": "YUSD",
      "outputs": [
        {
          "internalType": "contract IERC20",
          "name": "",
          "type": "address"
        }
      ],
      "stateMutability": "view",
      "type": "function"
    },
    {
      "inputs": [
        {
          "internalType": "address",
          "name": "",
          "type": "address"
        },
        {
          "internalType": "address",
          "name": "",
          "type": "address"
        }
      ],
      "name": "balanceOfUserInContract",
      "outputs": [
        {
          "internalType": "uint256",
          "name": "",
          "type": "uint256"
        }
      ],
      "stateMutability": "view",
      "type": "function"
    },
    {
      "inputs": [
        {
          "internalType": "address",
          "name": "_pToken",
          "type": "address"
        },
        {
          "internalType": "uint256",
          "name": "_amount",
          "type": "uint256"
        },
        {
          "internalType": "uint256",
          "name": "_price",
          "type": "uint256"
        }
      ],
      "name": "buy",
      "outputs": [],
      "stateMutability": "nonpayable",
      "type": "function"
    },
    {
      "inputs": [
        {
          "internalType": "address",
          "name": "",
          "type": "address"
        },
        {
          "internalType": "uint256",
          "name": "",
          "type": "uint256"
        }
      ],
      "name": "buyOrders",
      "outputs": [
        {
          "internalType": "uint256",
          "name": "",
          "type": "uint256"
        }
      ],
      "stateMutability": "view",
      "type": "function"
    },
    {
      "inputs": [
        {
          "internalType": "address",
          "name": "_pToken",
          "type": "address"
        },
        {
          "internalType": "uint256",
          "name": "_orderId",
          "type": "uint256"
        }
      ],
      "name": "cancelOrder",
      "outputs": [],
      "stateMutability": "nonpayable",
      "type": "function"
    },
    {
      "inputs": [
        {
          "internalType": "address",
          "name": "_pToken",
          "type": "address"
        }
      ],
      "name": "cancelOrders",
      "outputs": [],
      "stateMutability": "nonpayable",
      "type": "function"
    },
    {
      "inputs": [
        {
          "internalType": "address",
          "name": "_pToken",
          "type": "address"
        },
        {
          "internalType": "address",
          "name": "_user",
          "type": "address"
        }
      ],
      "name": "getBalanceOfUserInContact",
      "outputs": [
        {
          "internalType": "uint256",
          "name": "",
          "type": "uint256"
        }
      ],
      "stateMutability": "view",
      "type": "function"
    },
    {
      "inputs": [
        {
          "internalType": "address",
          "name": "_pToken",
          "type": "address"
        }
      ],
      "name": "getBuyOrders",
      "outputs": [
        {
          "components": [
            {
              "internalType": "address",
              "name": "owner",
              "type": "address"
            },
            {
              "internalType": "uint256",
              "name": "totalAmount",
              "type": "uint256"
            },
            {
              "internalType": "uint256",
              "name": "orderPrice",
              "type": "uint256"
            },
            {
              "internalType": "uint256[]",
              "name": "transactionIds",
              "type": "uint256[]"
            },
            {
              "internalType": "uint256",
              "name": "remainingAmount",
              "type": "uint256"
            },
            {
              "internalType": "bool",
              "name": "isCancelled",
              "type": "bool"
            },
            {
              "internalType": "bool",
              "name": "isRemoved",
              "type": "bool"
            },
            {
              "internalType": "bool",
              "name": "isBuy",
              "type": "bool"
            },
            {
              "internalType": "uint256",
              "name": "timestamp",
              "type": "uint256"
            }
          ],
          "internalType": "struct ProjectTrade.Order[]",
          "name": "",
          "type": "tuple[]"
        }
      ],
      "stateMutability": "view",
      "type": "function"
    },
    {
      "inputs": [
        {
          "internalType": "address",
          "name": "_pToken",
          "type": "address"
        }
      ],
      "name": "getSellOrders",
      "outputs": [
        {
          "components": [
            {
              "internalType": "address",
              "name": "owner",
              "type": "address"
            },
            {
              "internalType": "uint256",
              "name": "totalAmount",
              "type": "uint256"
            },
            {
              "internalType": "uint256",
              "name": "orderPrice",
              "type": "uint256"
            },
            {
              "internalType": "uint256[]",
              "name": "transactionIds",
              "type": "uint256[]"
            },
            {
              "internalType": "uint256",
              "name": "remainingAmount",
              "type": "uint256"
            },
            {
              "internalType": "bool",
              "name": "isCancelled",
              "type": "bool"
            },
            {
              "internalType": "bool",
              "name": "isRemoved",
              "type": "bool"
            },
            {
              "internalType": "bool",
              "name": "isBuy",
              "type": "bool"
            },
            {
              "internalType": "uint256",
              "name": "timestamp",
              "type": "uint256"
            }
          ],
          "internalType": "struct ProjectTrade.Order[]",
          "name": "",
          "type": "tuple[]"
        }
      ],
      "stateMutability": "view",
      "type": "function"
    },
    {
      "inputs": [
        {
          "internalType": "address",
          "name": "_pToken",
          "type": "address"
        }
      ],
      "name": "getTransactions",
      "outputs": [
        {
          "components": [
            {
              "internalType": "uint256",
              "name": "amount",
              "type": "uint256"
            },
            {
              "internalType": "uint256",
              "name": "price",
              "type": "uint256"
            },
            {
              "internalType": "uint256",
              "name": "buyOrderId",
              "type": "uint256"
            },
            {
              "internalType": "uint256",
              "name": "sellOrderId",
              "type": "uint256"
            },
            {
              "internalType": "uint256",
              "name": "timestamp",
              "type": "uint256"
            },
            {
              "internalType": "bool",
              "name": "isCancelled",
              "type": "bool"
            }
          ],
          "internalType": "struct ProjectTrade.Transaction[]",
          "name": "transaction",
          "type": "tuple[]"
        }
      ],
      "stateMutability": "view",
      "type": "function"
    },
    {
      "inputs": [
        {
          "internalType": "address",
          "name": "",
          "type": "address"
        },
        {
          "internalType": "uint256",
          "name": "",
          "type": "uint256"
        }
      ],
      "name": "orders",
      "outputs": [
        {
          "internalType": "address",
          "name": "owner",
          "type": "address"
        },
        {
          "internalType": "uint256",
          "name": "totalAmount",
          "type": "uint256"
        },
        {
          "internalType": "uint256",
          "name": "orderPrice",
          "type": "uint256"
        },
        {
          "internalType": "uint256",
          "name": "remainingAmount",
          "type": "uint256"
        },
        {
          "internalType": "bool",
          "name": "isCancelled",
          "type": "bool"
        },
        {
          "internalType": "bool",
          "name": "isRemoved",
          "type": "bool"
        },
        {
          "internalType": "bool",
          "name": "isBuy",
          "type": "bool"
        },
        {
          "internalType": "uint256",
          "name": "timestamp",
          "type": "uint256"
        }
      ],
      "stateMutability": "view",
      "type": "function"
    },
    {
      "inputs": [],
      "name": "owner",
      "outputs": [
        {
          "internalType": "address",
          "name": "",
          "type": "address"
        }
      ],
      "stateMutability": "view",
      "type": "function"
    },
    {
      "inputs": [
        {
          "internalType": "address",
          "name": "_pToken",
          "type": "address"
        }
      ],
      "name": "pause",
      "outputs": [],
      "stateMutability": "nonpayable",
      "type": "function"
    },
    {
      "inputs": [
        {
          "internalType": "address",
          "name": "",
          "type": "address"
        }
      ],
      "name": "paused",
      "outputs": [
        {
          "internalType": "bool",
          "name": "",
          "type": "bool"
        }
      ],
      "stateMutability": "view",
      "type": "function"
    },
    {
      "inputs": [
        {
          "internalType": "address",
          "name": "_pToken",
          "type": "address"
        }
      ],
      "name": "removeOrders",
      "outputs": [],
      "stateMutability": "nonpayable",
      "type": "function"
    },
    {
      "inputs": [],
      "name": "renounceOwnership",
      "outputs": [],
      "stateMutability": "nonpayable",
      "type": "function"
    },
    {
      "inputs": [
        {
          "internalType": "uint256",
          "name": "a",
          "type": "uint256"
        },
        {
          "internalType": "uint256",
          "name": "b",
          "type": "uint256"
        }
      ],
      "name": "safeAdd",
      "outputs": [
        {
          "internalType": "uint256",
          "name": "c",
          "type": "uint256"
        }
      ],
      "stateMutability": "pure",
      "type": "function"
    },
    {
      "inputs": [
        {
          "internalType": "uint256",
          "name": "a",
          "type": "uint256"
        },
        {
          "internalType": "uint256",
          "name": "b",
          "type": "uint256"
        }
      ],
      "name": "safeDiv",
      "outputs": [
        {
          "internalType": "uint256",
          "name": "c",
          "type": "uint256"
        }
      ],
      "stateMutability": "pure",
      "type": "function"
    },
    {
      "inputs": [
        {
          "internalType": "uint256",
          "name": "a",
          "type": "uint256"
        },
        {
          "internalType": "uint256",
          "name": "b",
          "type": "uint256"
        }
      ],
      "name": "safeMul",
      "outputs": [
        {
          "internalType": "uint256",
          "name": "c",
          "type": "uint256"
        }
      ],
      "stateMutability": "pure",
      "type": "function"
    },
    {
      "inputs": [
        {
          "internalType": "uint256",
          "name": "a",
          "type": "uint256"
        },
        {
          "internalType": "uint256",
          "name": "b",
          "type": "uint256"
        }
      ],
      "name": "safeSub",
      "outputs": [
        {
          "internalType": "uint256",
          "name": "c",
          "type": "uint256"
        }
      ],
      "stateMutability": "pure",
      "type": "function"
    },
    {
      "inputs": [
        {
          "internalType": "address",
          "name": "_pToken",
          "type": "address"
        },
        {
          "internalType": "uint256",
          "name": "_amount",
          "type": "uint256"
        },
        {
          "internalType": "uint256",
          "name": "_price",
          "type": "uint256"
        }
      ],
      "name": "sell",
      "outputs": [],
      "stateMutability": "nonpayable",
      "type": "function"
    },
    {
      "inputs": [
        {
          "internalType": "address",
          "name": "",
          "type": "address"
        },
        {
          "internalType": "uint256",
          "name": "",
          "type": "uint256"
        }
      ],
      "name": "sellOrders",
      "outputs": [
        {
          "internalType": "uint256",
          "name": "",
          "type": "uint256"
        }
      ],
      "stateMutability": "view",
      "type": "function"
    },
    {
      "inputs": [
        {
          "internalType": "address",
          "name": "_pToken",
          "type": "address"
        },
        {
          "internalType": "uint256",
          "name": "_price",
          "type": "uint256"
        }
      ],
      "name": "setPriceByAdmin",
      "outputs": [],
      "stateMutability": "nonpayable",
      "type": "function"
    },
    {
      "inputs": [
        {
          "internalType": "address",
          "name": "",
          "type": "address"
        },
        {
          "internalType": "uint256",
          "name": "",
          "type": "uint256"
        }
      ],
      "name": "transactions",
      "outputs": [
        {
          "internalType": "uint256",
          "name": "amount",
          "type": "uint256"
        },
        {
          "internalType": "uint256",
          "name": "price",
          "type": "uint256"
        },
        {
          "internalType": "uint256",
          "name": "buyOrderId",
          "type": "uint256"
        },
        {
          "internalType": "uint256",
          "name": "sellOrderId",
          "type": "uint256"
        },
        {
          "internalType": "uint256",
          "name": "timestamp",
          "type": "uint256"
        },
        {
          "internalType": "bool",
          "name": "isCancelled",
          "type": "bool"
        }
      ],
      "stateMutability": "view",
      "type": "function"
    },
    {
      "inputs": [
        {
          "internalType": "address",
          "name": "newOwner",
          "type": "address"
        }
      ],
      "name": "transferOwnership",
      "outputs": [],
      "stateMutability": "nonpayable",
      "type": "function"
    },
    {
      "inputs": [],
      "name": "treasury",
      "outputs": [
        {
          "internalType": "address",
          "name": "",
          "type": "address"
        }
      ],
      "stateMutability": "view",
      "type": "function"
    },
    {
      "inputs": [
        {
          "internalType": "address",
          "name": "_pToken",
          "type": "address"
        }
      ],
      "name": "unpause",
      "outputs": [],
      "stateMutability": "nonpayable",
      "type": "function"
    }
  ],
  "bytecode": "0x60a060405260136003553480156200001657600080fd5b5060405162003c7a38038062003c7a8339810160408190526200003991620000da565b62000044336200006d565b6001600160a01b03918216608052600180546001600160a01b0319169190921617905562000112565b600080546001600160a01b038381166001600160a01b0319831681178455604051919092169283917f8be0079c531659141344cd1fd0a4f28419497f9722a3daafe3b4186f6b6457e09190a35050565b80516001600160a01b0381168114620000d557600080fd5b919050565b60008060408385031215620000ee57600080fd5b620000f983620000bd565b91506200010960208401620000bd565b90509250929050565b608051613b2262000158600039600081816102ca01528181610b48015281816118e3015281816128df01528181612a2e01528181612bf901526132c20152613b226000f3fe608060405234801561001057600080fd5b50600436106101da5760003560e01c80638d9615f811610104578063c57981b5116100a2578063e97d574011610071578063e97d5740146104c7578063eac92f2a146104da578063f2fde38b146104ed578063ffe8e3721461050057600080fd5b8063c57981b514610485578063cf61fdee1461048e578063d05c78da146104a1578063e6cb9013146104b457600080fd5b8063a293d1e8116100de578063a293d1e814610439578063a59ac6dd1461044c578063a6fc34fe1461045f578063b5931f7c1461047257600080fd5b80638d9615f8146103ea5780638da5cb5b146103fd5780639a1836af1461040e57600080fd5b806361d027b31161017c57806371d177cb1161014b57806371d177cb1461034557806376a67a5114610366578063793b8c6d146103795780637c982796146103d757600080fd5b806361d027b3146103045780636a206137146103175780636a2724621461032a578063715018a61461033d57600080fd5b80634142e8a9116101b85780634142e8a91461027d578063551f7a501461029257806357b001f9146102b25780636190cefb146102c557600080fd5b80630f8cda20146101df57806314538128146102085780632e48152c1461024a575b600080fd5b6101f26101ed36600461362e565b610509565b6040516101ff9190613649565b60405180910390f35b61021b6102163660046136c3565b6105b9565b6040805196875260208701959095529385019290925260608401526080830152151560a082015260c0016101ff565b61026d61025836600461362e565b600a6020526000908152604090205460ff1681565b60405190151581526020016101ff565b61029061028b3660046136c3565b610610565b005b6102a56102a036600461362e565b610626565b6040516101ff9190613728565b6102906102c036600461362e565b61081a565b6102ec7f000000000000000000000000000000000000000000000000000000000000000081565b6040516001600160a01b0390911681526020016101ff565b6001546102ec906001600160a01b031681565b6102906103253660046136c3565b610880565b6102906103383660046137ff565b610d56565b610290611557565b6103586103533660046136c3565b61156b565b6040519081526020016101ff565b61029061037436600461362e565b61159c565b61038c6103873660046136c3565b6115ff565b604080516001600160a01b039099168952602089019790975295870194909452606086019290925215156080850152151560a0840152151560c083015260e0820152610100016101ff565b6102ec6103e5366004613832565b611676565b6102906103f836600461362e565b6116a0565b6000546001600160a01b03166102ec565b61035861041c36600461384b565b600960209081526000928352604080842090915290825290205481565b61035861044736600461387e565b61175e565b61029061045a3660046137ff565b61177e565b61029061046d36600461362e565b61200a565b61035861048036600461387e565b6120e6565b61035860035481565b61035861049c36600461384b565b6120fe565b6103586104af36600461387e565b61212b565b6103586104c236600461387e565b612157565b6103586104d53660046136c3565b612172565b6102a56104e836600461362e565b61218e565b6102906104fb36600461362e565b61237b565b61035861271081565b6001600160a01b0381166000908152600560209081526040808320805482518185028101850190935280835260609492939192909184015b828210156105ae5760008481526020908190206040805160c08101825260068602909201805483526001808201548486015260028201549284019290925260038101546060840152600481015460808401526005015460ff16151560a08301529083529092019101610541565b505050509050919050565b600560205281600052604060002081815481106105d557600080fd5b600091825260209091206006909102018054600182015460028301546003840154600485015460059095015493965091945092909160ff1686565b6106186123f4565b610622828261244e565b5050565b6001600160a01b0381166000908152600760205260408120546060919067ffffffffffffffff81111561065b5761065b6138a0565b60405190808252806020026020018201604052801561069457816020015b6106816134c4565b8152602001906001900390816106795790505b50905060005b6001600160a01b038416600090815260076020526040902054811015610813576001600160a01b038416600090815260066020908152604080832060079092529091208054839081106106ef576106ef6138b6565b90600052602060002001548154811061070a5761070a6138b6565b60009182526020918290206040805161012081018252600790930290910180546001600160a01b031683526001810154838501526002810154838301526003810180548351818702810187019094528084529394919360608601939283018282801561079557602002820191906000526020600020905b815481526020019060010190808311610781575b505050918352505060048201546020820152600582015460ff80821615156040840152610100820481161515606084015262010000909104161515608082015260069091015460a09091015282518390839081106107f5576107f56138b6565b6020026020010181905250808061080b906138e2565b91505061069a565b5092915050565b6108226123f4565b6001600160a01b0381166000818152600a60209081526040808320805460ff191690558051938452908301919091527f0d7fd1e314b29407db3d79c46ecf1fa3d2108961fab8d20584277358cac41e8991015b60405180910390a150565b6001600160a01b03821660009081526006602052604090208054339190839081106108ad576108ad6138b6565b60009182526020909120600790910201546001600160a01b031614806108dd57506000546001600160a01b031633145b61092e5760405162461bcd60e51b815260206004820152601e60248201527f596f7520617265206e6f74206f776e6572206f6620746865206f72646572000060448201526064015b60405180910390fd5b6001600160a01b03821660009081526006602052604090208054600191908390811061095c5761095c6138b6565b60009182526020808320600792909202909101600501805460ff1916931515939093179092556001600160a01b03841681526006909152604081208054839081106109a9576109a96138b6565b9060005260206000209060070201600401541115610d19576001600160a01b03821660009081526006602052604090208054829081106109eb576109eb6138b6565b906000526020600020906007020160050160029054906101000a900460ff161515600115151415610c32576000612710600354612710610a2b91906138fd565b846001600160a01b031663313ce5676040518163ffffffff1660e01b8152600401602060405180830381865afa158015610a69573d6000803e3d6000fd5b505050506040513d601f19601f82011682018060405250810190610a8d9190613915565b610a9890600a613a12565b6001600160a01b0386166000908152600660205260409020805486908110610ac257610ac26138b6565b90600052602060002090600702016002015460066000886001600160a01b03166001600160a01b031681526020019081526020016000208681548110610b0a57610b0a6138b6565b906000526020600020906007020160040154610b269190613a1e565b610b309190613a3d565b610b3a9190613a1e565b610b449190613a3d565b90507f00000000000000000000000000000000000000000000000000000000000000006001600160a01b031663a9059cbb60066000866001600160a01b03166001600160a01b031681526020019081526020016000208481548110610bab57610bab6138b6565b60009182526020909120600790910201546040516001600160e01b031960e084901b168152610be8916001600160a01b0316908590600401613a5f565b6020604051808303816000875af1158015610c07573d6000803e3d6000fd5b505050506040513d601f19601f82011682018060405250810190610c2b9190613a78565b5050610d19565b6001600160a01b0382166000818152600660205260409020805463a9059cbb919084908110610c6357610c636138b6565b600091825260208083206007909202909101546001600160a01b03878116845260069092526040909220805491909216919085908110610ca557610ca56138b6565b9060005260206000209060070201600401546040518363ffffffff1660e01b8152600401610cd4929190613a5f565b6020604051808303816000875af1158015610cf3573d6000803e3d6000fd5b505050506040513d601f19601f82011682018060405250810190610d179190613a78565b505b7fc0e68d6b69f741c21e955cad2ae4d505b6f6735c7e7b278251b3f6283a5f07eb8282604051610d4a929190613a5f565b60405180910390a15050565b6001600160a01b0383166000908152600a6020526040902054839060ff1615610db65760405162461bcd60e51b815260206004820152601260248201527110dbdb9d1c9858dd081a5cc81c185d5cd95960721b6044820152606401610925565b60008311610df75760405162461bcd60e51b815260206004820152600e60248201526d1a5b9d985b1a5908185b5bdd5b9d60921b6044820152606401610925565b6040516323b872dd60e01b81526001600160a01b038516906323b872dd90610e2790339030908890600401613a9a565b6020604051808303816000875af1158015610e46573d6000803e3d6000fd5b505050506040513d601f19601f82011682018060405250810190610e6a9190613a78565b506001600160a01b038416600090815260096020908152604080832033845290915281208054859290610e9e9084906138fd565b90915550506040805161012081018252338152602080820186815282840186815284516000808252818501875260608601918252608086018a905260a0860181905260c0860181905260e08601819052426101008701526001600160a01b038b811682526006865296812080546001808201835591835291869020875160079093020180546001600160a01b03191692909816919091178755925192860192909255516002850155518051929384939092610f6092600385019291019061351f565b506080820151600482015560a082015160058201805460c085015160e086015161ffff1990921693151561ff0019169390931761010093151584021762ff000019166201000091151591909102179055909101516006909101556001600160a01b0385166000818152600860209081526040822080546001818101835582855292842001839055929091529054141561107957600480546001810182556000919091527f8a35acfbc15ff81a39ae7d344fd709f28e8600b4aa8c65c6b64bfe7fe36bd19b0180546001600160a01b0319166001600160a01b0387161790556040517f1df545e94802107a856bb8a484d7cd6203e369d7b4815120c873cebb2bfb252c906110709087904290613a5f565b60405180910390a15b6001600160a01b03851660009081526008602052604081205461109e90600190613abe565b6001600160a01b0387166000908152600860205260409020549091506001101561118a576001600160a01b0386166000908152600860205260408120546110e790600290613abe565b90505b6001600160a01b0387166000908152600660209081526040808320600890925290912080548390811061111f5761111f6138b6565b90600052602060002001548154811061113a5761113a6138b6565b906000526020600020906007020160020154836040015110611168576111618160016138fd565b9150611188565b806111765760009150611188565b8061118081613ad5565b9150506110ea565b505b6001600160a01b0386166000908152600860205260408120546111af90600190613abe565b90505b8181111561125757806111c457611245565b6001600160a01b03871660009081526008602052604090206111e7600183613abe565b815481106111f7576111f76138b6565b906000526020600020015460086000896001600160a01b03166001600160a01b031681526020019081526020016000208281548110611238576112386138b6565b6000918252602090912001555b8061124f81613ad5565b9150506111b2565b506001600160a01b03861660009081526006602052604090205461127d90600190613abe565b6001600160a01b03871660009081526008602052604090208054839081106112a7576112a76138b6565b60009182526020808320909101929092556001600160a01b0388168152600690915260409020546112da90600190613abe565b604080516001600160a01b038916815233602082015290810187905260608101869052600060808201527fca886b3852c1c7992abfda91d86e8ed48f496dbc164332b3453bcb95cf25f3db9060a00160405180910390a26001600160a01b038616600090815260066020526040812054819061135890600190613abe565b905060005b6001600160a01b03891660009081526007602052604090205481101561154c576001600160a01b03891660009081526007602052604090208054829081106113a7576113a76138b6565b90600052602060002001549250600660008a6001600160a01b03166001600160a01b0316815260200190815260200160002083815481106113ea576113ea6138b6565b600091825260209091206005600790920201015460ff1615156001148061144c57506001600160a01b0389166000908152600660205260409020805484908110611436576114366138b6565b9060005260206000209060070201600401546000145b8061149257506001600160a01b038916600090815260066020526040902080548390811061147c5761147c6138b6565b9060005260206000209060070201600401546000145b1561149c5761153a565b6001600160a01b03891660009081526006602052604090208054839081106114c6576114c66138b6565b906000526020600020906007020160020154600660008b6001600160a01b03166001600160a01b03168152602001908152602001600020848154811061150e5761150e6138b6565b90600052602060002090600702016002015410611535576115308984846124a6565b61153a565b61154c565b80611544816138e2565b91505061135d565b505050505050505050565b61155f6123f4565b6115696000612f5e565b565b6007602052816000526040600020818154811061158757600080fd5b90600052602060002001600091509150505481565b6115a46123f4565b6001600160a01b0381166000818152600a6020908152604091829020805460ff191660019081179091558251938452908301527f0d7fd1e314b29407db3d79c46ecf1fa3d2108961fab8d20584277358cac41e899101610875565b6006602052816000526040600020818154811061161b57600080fd5b60009182526020909120600790910201805460018201546002830154600484015460058501546006909501546001600160a01b03909416965091945092909160ff808316926101008104821692620100009091049091169088565b6004818154811061168657600080fd5b6000918252602090912001546001600160a01b0316905081565b60005b6001600160a01b038216600090815260066020526040902054811015611724576001600160a01b03821660009081526006602052604090208054829081106116ed576116ed6138b6565b600091825260209091206005600790920201015460ff16611712576117128282610880565b8061171c816138e2565b9150506116a3565b506040516001600160a01b03821681527f3cab4e2d2c607f12757ae45690b930ae60843210bf1e8930f483edb6e296cb5890602001610875565b60008282111561176d57600080fd5b6117778284613abe565b9392505050565b6001600160a01b0383166000908152600a6020526040902054839060ff16156117de5760405162461bcd60e51b815260206004820152601260248201527110dbdb9d1c9858dd081a5cc81c185d5cd95960721b6044820152606401610925565b6000831161181f5760405162461bcd60e51b815260206004820152600e60248201526d1a5b9d985b1a5908185b5bdd5b9d60921b6044820152606401610925565b600061271060035461271061183491906138fd565b866001600160a01b031663313ce5676040518163ffffffff1660e01b8152600401602060405180830381865afa158015611872573d6000803e3d6000fd5b505050506040513d601f19601f820116820180604052508101906118969190613915565b6118a190600a613a12565b6118ab8688613a1e565b6118b59190613a3d565b6118bf9190613a1e565b6118c99190613a3d565b6040516323b872dd60e01b81529091506001600160a01b037f000000000000000000000000000000000000000000000000000000000000000016906323b872dd9061191c90339030908690600401613a9a565b6020604051808303816000875af115801561193b573d6000803e3d6000fd5b505050506040513d601f19601f8201168201806040525081019061195f9190613a78565b506040805161012081018252338152602080820187815282840187815284516000808252818501875260608601918252608086018b905260a0860181905260c08601819052600160e08701819052426101008801526001600160a01b038d81168352600687529782208054808301825590835291869020875160079093020180546001600160a01b03191692909816919091178755925192860192909255516002850155518051929384939092611a1d92600385019291019061351f565b506080820151600482015560a082015160058201805460c085015160e086015161ffff1990921693151561ff0019169390931761010093151584021762ff000019166201000091151591909102179055909101516006909101556001600160a01b03861660008181526007602090815260408220805460018181018355828552928420018390559290915290541415611b3657600480546001810182556000919091527f8a35acfbc15ff81a39ae7d344fd709f28e8600b4aa8c65c6b64bfe7fe36bd19b0180546001600160a01b0319166001600160a01b0388161790556040517f1df545e94802107a856bb8a484d7cd6203e369d7b4815120c873cebb2bfb252c90611b2d9088904290613a5f565b60405180910390a15b6001600160a01b038616600090815260076020526040812054611b5b90600190613abe565b6001600160a01b03881660009081526007602052604090205490915060011015611c47576001600160a01b038716600090815260076020526040812054611ba490600290613abe565b90505b6001600160a01b03881660009081526006602090815260408083206007909252909120805483908110611bdc57611bdc6138b6565b906000526020600020015481548110611bf757611bf76138b6565b906000526020600020906007020160020154836040015111611c2557611c1e8160016138fd565b9150611c45565b80611c335760009150611c45565b80611c3d81613ad5565b915050611ba7565b505b6001600160a01b038716600090815260076020526040812054611c6c90600190613abe565b90505b81811115611d09576001600160a01b0388166000908152600760205260409020611c9a600183613abe565b81548110611caa57611caa6138b6565b9060005260206000200154600760008a6001600160a01b03166001600160a01b031681526020019081526020016000208281548110611ceb57611ceb6138b6565b60009182526020909120015580611d0181613ad5565b915050611c6f565b506001600160a01b038716600090815260066020526040902054611d2f90600190613abe565b6001600160a01b0388166000908152600760205260409020805483908110611d5957611d596138b6565b60009182526020808320909101929092556001600160a01b038916815260069091526040902054611d8c90600190613abe565b604080516001600160a01b038a16815233602082015290810188905260608101879052600160808201527fca886b3852c1c7992abfda91d86e8ed48f496dbc164332b3453bcb95cf25f3db9060a00160405180910390a26001600160a01b0387166000908152600660205260408120548190611e0a90600190613abe565b905060005b6001600160a01b038a16600090815260086020526040902054811015611ffe576001600160a01b038a166000908152600860205260409020805482908110611e5957611e596138b6565b90600052602060002001549250600660008b6001600160a01b03166001600160a01b031681526020019081526020016000208381548110611e9c57611e9c6138b6565b600091825260209091206005600790920201015460ff16151560011480611efe57506001600160a01b038a166000908152600660205260409020805484908110611ee857611ee86138b6565b9060005260206000209060070201600401546000145b80611f4457506001600160a01b038a166000908152600660205260409020805483908110611f2e57611f2e6138b6565b9060005260206000209060070201600401546000145b15611f4e57611fec565b6001600160a01b038a166000908152600660205260409020805483908110611f7857611f786138b6565b906000526020600020906007020160020154600660008c6001600160a01b03166001600160a01b031681526020019081526020016000208481548110611fc057611fc06138b6565b90600052602060002090600702016002015411611fe757611fe28a83856124a6565b611fec565b611ffe565b80611ff6816138e2565b915050611e0f565b50505050505050505050565b60005b6001600160a01b038216600090815260066020526040902054811015612049576120378282612fae565b80612041816138e2565b91505061200d565b506001600160a01b038116600090815260066020526040812061206b9161356a565b6001600160a01b038116600090815260076020526040812061208c9161358b565b6001600160a01b03811660009081526008602052604081206120ad9161358b565b6040516001600160a01b03821681527fe8a27effe48bbe0ab68e76eebc02e83f87e8672f94b5568d3e4c29a39af7e62490602001610875565b60008082116120f457600080fd5b6117778284613a3d565b6001600160a01b038083166000908152600960209081526040808320938516835292905220545b92915050565b60006121378284613a1e565b905082158061214e57508161214c8483613a3d565b145b61212557600080fd5b600061216382846138fd565b90508281101561212557600080fd5b6008602052816000526040600020818154811061158757600080fd5b6001600160a01b0381166000908152600860205260408120546060919067ffffffffffffffff8111156121c3576121c36138a0565b6040519080825280602002602001820160405280156121fc57816020015b6121e96134c4565b8152602001906001900390816121e15790505b50905060005b6001600160a01b038416600090815260086020526040902054811015610813576001600160a01b03841660009081526006602090815260408083206008909252909120805483908110612257576122576138b6565b906000526020600020015481548110612272576122726138b6565b60009182526020918290206040805161012081018252600790930290910180546001600160a01b03168352600181015483850152600281015483830152600381018054835181870281018701909452808452939491936060860193928301828280156122fd57602002820191906000526020600020905b8154815260200190600101908083116122e9575b505050918352505060048201546020820152600582015460ff80821615156040840152610100820481161515606084015262010000909104161515608082015260069091015460a090910152825183908390811061235d5761235d6138b6565b60200260200101819052508080612373906138e2565b915050612202565b6123836123f4565b6001600160a01b0381166123e85760405162461bcd60e51b815260206004820152602660248201527f4f776e61626c653a206e6577206f776e657220697320746865207a65726f206160448201526564647265737360d01b6064820152608401610925565b6123f181612f5e565b50565b6000546001600160a01b031633146115695760405162461bcd60e51b815260206004820181905260248201527f4f776e61626c653a2063616c6c6572206973206e6f7420746865206f776e65726044820152606401610925565b6001600160a01b0382166000818152600260209081526040918290208490558151928352820183905242908201527f5c43325359179f4471448fd5c0247053caeec2178ee6378a1a3eb4b2030d314690606001610d4a565b6001600160a01b03831660009081526006602052604081208054839081106124d0576124d06138b6565b90600052602060002090600702016004015460066000866001600160a01b03166001600160a01b031681526020019081526020016000208481548110612518576125186138b6565b90600052602060002090600702016004015411612572576001600160a01b0384166000908152600660205260409020805484908110612559576125596138b6565b90600052602060002090600702016004015490506125b1565b6001600160a01b038416600090815260066020526040902080548390811061259c5761259c6138b6565b90600052602060002090600702016004015490505b6001600160a01b03841660009081526006602052604081208054849081106125db576125db6138b6565b600091825260208083206007909202909101546001600160a01b0388811684526006909252604083208054929091169350908690811061261d5761261d6138b6565b600091825260209091206007909102015460405163a9059cbb60e01b81526001600160a01b0391821692509087169063a9059cbb906126629084908790600401613a5f565b6020604051808303816000875af1158015612681573d6000803e3d6000fd5b505050506040513d601f19601f820116820180604052508101906126a59190613a78565b506001600160a01b03861660009081526006602052604090208054849190879081106126d3576126d36138b6565b906000526020600020906007020160040160008282546126f39190613abe565b90915550506001600160a01b0386166000908152600660205260409020805484919086908110612725576127256138b6565b906000526020600020906007020160040160008282546127459190613abe565b90915550506001600160a01b0386166000908152600660205260408120805486908110612774576127746138b6565b906000526020600020906007020160020154905060066000886001600160a01b03166001600160a01b0316815260200190815260200160002085815481106127be576127be6138b6565b6000918252602080832060066007909302018201546001600160a01b038b16845291905260409091208054889081106127f9576127f96138b6565b90600052602060002090600702016006015410156129605761281b878261244e565b60006127106003546127106128309190613abe565b896001600160a01b031663313ce5676040518163ffffffff1660e01b8152600401602060405180830381865afa15801561286e573d6000803e3d6000fd5b505050506040513d601f19601f820116820180604052508101906128929190613915565b61289d90600a613a12565b6128a78589613a1e565b6128b19190613a3d565b6128bb9190613a1e565b6128c59190613a3d565b60405163a9059cbb60e01b81529091506001600160a01b037f0000000000000000000000000000000000000000000000000000000000000000169063a9059cbb906129169087908590600401613a5f565b6020604051808303816000875af1158015612935573d6000803e3d6000fd5b505050506040513d601f19601f820116820180604052508101906129599190613a78565b5050612c78565b61296a878261244e565b600061271060035461271061297f9190613abe565b896001600160a01b031663313ce5676040518163ffffffff1660e01b8152600401602060405180830381865afa1580156129bd573d6000803e3d6000fd5b505050506040513d601f19601f820116820180604052508101906129e19190613915565b6129ec90600a613a12565b6129f68589613a1e565b612a009190613a3d565b612a0a9190613a1e565b612a149190613a3d565b60405163a9059cbb60e01b81529091506001600160a01b037f0000000000000000000000000000000000000000000000000000000000000000169063a9059cbb90612a659087908590600401613a5f565b6020604051808303816000875af1158015612a84573d6000803e3d6000fd5b505050506040513d601f19601f82011682018060405250810190612aa89190613a78565b506001600160a01b0388166000908152600660205260409020805488908110612ad357612ad36138b6565b906000526020600020906007020160020154821015612c76576000612710600354612710612b0191906138fd565b8a6001600160a01b031663313ce5676040518163ffffffff1660e01b8152600401602060405180830381865afa158015612b3f573d6000803e3d6000fd5b505050506040513d601f19601f82011682018060405250810190612b639190613915565b612b6e90600a613a12565b6001600160a01b038c16600090815260066020526040902080548791908d908110612b9b57612b9b6138b6565b906000526020600020906007020160020154612bb79190613abe565b612bc1908a613a1e565b612bcb9190613a3d565b612bd59190613a1e565b612bdf9190613a3d565b60405163a9059cbb60e01b81529091506001600160a01b037f0000000000000000000000000000000000000000000000000000000000000000169063a9059cbb90612c309087908590600401613a5f565b6020604051808303816000875af1158015612c4f573d6000803e3d6000fd5b505050506040513d601f19601f82011682018060405250810190612c739190613a78565b50505b505b60006040518060c0016040528086815260200183815260200188815260200187815260200142815260200160001515815250905060056000896001600160a01b03166001600160a01b03168152602001908152602001600020819080600181540180825580915050600190039060005260206000209060060201600090919091909150600082015181600001556020820151816001015560408201518160020155606082015181600301556080820151816004015560a08201518160050160006101000a81548160ff021916908315150217905550505060006001600560008b6001600160a01b03166001600160a01b0316815260200190815260200160002080549050612d869190613abe565b6001600160a01b038a16600090815260066020526040902080549192509089908110612db457612db46138b6565b600091825260208083206003600790930201919091018054600181018255908352818320018390556001600160a01b038b1682526006905260409020805488908110612e0257612e026138b6565b6000918252602080832060036007909302019190910180546001810182559083529120018190556040517fe218c3d1d8b1ec772927a9ce1f2298a05a485dac978259bdfe6db25bb4289bf690612e5d908b9088908b90613a9a565b60405180910390a16001600160a01b03808a16600090815260096020908152604080832093891683529290529081208054889290612e9c908490613abe565b90915550506040517fe218c3d1d8b1ec772927a9ce1f2298a05a485dac978259bdfe6db25bb4289bf690612ed5908b9087908c90613a9a565b60405180910390a1604080516001600160a01b038b8116825260208201899052818301869052606082018490528681166080830152871660a082015260c081018a905260e081018990524261010082015290517fb74ac5b7de6f52983dc4c6b6dd75959b128df961c258683a83e2e71816a3d42f918190036101200190a1505050505050505050565b600080546001600160a01b038381166001600160a01b0319831681178455604051919092169283917f8be0079c531659141344cd1fd0a4f28419497f9722a3daafe3b4186f6b6457e09190a35050565b6001600160a01b0382166000908152600660205260409020805433919083908110612fdb57612fdb6138b6565b60009182526020909120600790910201546001600160a01b0316148061300b57506000546001600160a01b031633145b6130575760405162461bcd60e51b815260206004820152601e60248201527f596f7520617265206e6f74206f776e6572206f6620746865206f7264657200006044820152606401610925565b6001600160a01b038216600090815260066020526040902080546001919083908110613085576130856138b6565b6000918252602080832060056007909302019190910180549315156101000261ff0019909416939093179092556001600160a01b03841681526006909152604081208054839081106130d9576130d96138b6565b9060005260206000209060070201600401541115613493576001600160a01b038216600090815260066020526040902080548290811061311b5761311b6138b6565b600091825260209091206005600790920201015460ff161561313b575050565b6001600160a01b0382166000908152600660205260409020805482908110613165576131656138b6565b906000526020600020906007020160050160029054906101000a900460ff1615156001151514156133ac5760006127106003546127106131a591906138fd565b846001600160a01b031663313ce5676040518163ffffffff1660e01b8152600401602060405180830381865afa1580156131e3573d6000803e3d6000fd5b505050506040513d601f19601f820116820180604052508101906132079190613915565b61321290600a613a12565b6001600160a01b038616600090815260066020526040902080548690811061323c5761323c6138b6565b90600052602060002090600702016002015460066000886001600160a01b03166001600160a01b031681526020019081526020016000208681548110613284576132846138b6565b9060005260206000209060070201600401546132a09190613a1e565b6132aa9190613a3d565b6132b49190613a1e565b6132be9190613a3d565b90507f00000000000000000000000000000000000000000000000000000000000000006001600160a01b031663a9059cbb60066000866001600160a01b03166001600160a01b031681526020019081526020016000208481548110613325576133256138b6565b60009182526020909120600790910201546040516001600160e01b031960e084901b168152613362916001600160a01b0316908590600401613a5f565b6020604051808303816000875af1158015613381573d6000803e3d6000fd5b505050506040513d601f19601f820116820180604052508101906133a59190613a78565b5050613493565b6001600160a01b0382166000818152600660205260409020805463a9059cbb9190849081106133dd576133dd6138b6565b600091825260208083206007909202909101546001600160a01b0387811684526006909252604090922080549190921691908590811061341f5761341f6138b6565b9060005260206000209060070201600401546040518363ffffffff1660e01b815260040161344e929190613a5f565b6020604051808303816000875af115801561346d573d6000803e3d6000fd5b505050506040513d601f19601f820116820180604052508101906134919190613a78565b505b7fba7cf557ae8f5d3cf480c6398d832983c97fdec5e356fb883f54883b61d490418282604051610d4a929190613a5f565b60405180610120016040528060006001600160a01b0316815260200160008152602001600081526020016060815260200160008152602001600015158152602001600015158152602001600015158152602001600081525090565b82805482825590600052602060002090810192821561355a579160200282015b8281111561355a57825182559160200191906001019061353f565b506135669291506135a5565b5090565b50805460008255600702906000526020600020908101906123f191906135ba565b50805460008255906000526020600020908101906123f191905b5b8082111561356657600081556001016135a6565b808211156135665780546001600160a01b0319168155600060018201819055600282018190556135ed600383018261358b565b5060006004820181905560058201805462ffffff1916905560068201556007016135ba565b80356001600160a01b038116811461362957600080fd5b919050565b60006020828403121561364057600080fd5b61177782613612565b602080825282518282018190526000919060409081850190868401855b828110156136b65781518051855286810151878601528581015186860152606080820151908601526080808201519086015260a09081015115159085015260c09093019290850190600101613666565b5091979650505050505050565b600080604083850312156136d657600080fd5b6136df83613612565b946020939093013593505050565b600081518084526020808501945080840160005b8381101561371d57815187529582019590820190600101613701565b509495945050505050565b60006020808301818452808551808352604092508286019150828160051b87010184880160005b838110156137f157888303603f19018552815180516001600160a01b03168452610120888201518986015287820151888601526060808301518282880152613799838801826136ed565b92505050608080830151818701525060a0808301516137bb8288018215159052565b505060c08281015115159086015260e080830151151590860152610100918201519190940152938601939086019060010161374f565b509098975050505050505050565b60008060006060848603121561381457600080fd5b61381d84613612565b95602085013595506040909401359392505050565b60006020828403121561384457600080fd5b5035919050565b6000806040838503121561385e57600080fd5b61386783613612565b915061387560208401613612565b90509250929050565b6000806040838503121561389157600080fd5b50508035926020909101359150565b634e487b7160e01b600052604160045260246000fd5b634e487b7160e01b600052603260045260246000fd5b634e487b7160e01b600052601160045260246000fd5b60006000198214156138f6576138f66138cc565b5060010190565b60008219821115613910576139106138cc565b500190565b60006020828403121561392757600080fd5b5051919050565b600181815b8085111561396957816000190482111561394f5761394f6138cc565b8085161561395c57918102915b93841c9390800290613933565b509250929050565b60008261398057506001612125565b8161398d57506000612125565b81600181146139a357600281146139ad576139c9565b6001915050612125565b60ff8411156139be576139be6138cc565b50506001821b612125565b5060208310610133831016604e8410600b84101617156139ec575081810a612125565b6139f6838361392e565b8060001904821115613a0a57613a0a6138cc565b029392505050565b60006117778383613971565b6000816000190483118215151615613a3857613a386138cc565b500290565b600082613a5a57634e487b7160e01b600052601260045260246000fd5b500490565b6001600160a01b03929092168252602082015260400190565b600060208284031215613a8a57600080fd5b8151801515811461177757600080fd5b6001600160a01b039384168152919092166020820152604081019190915260600190565b600082821015613ad057613ad06138cc565b500390565b600081613ae457613ae46138cc565b50600019019056fea2646970667358221220252560b73e24bc7eb349b02a6bfc83bbe833a09552786e8e84041290fb0a44cb64736f6c634300080a0033",
  "linkReferences": {},
  "deployedLinkReferences": {}
}