{
  "_format": "hh-sol-artifact-1",
  "contractName": "ProjectDetail",
  "sourceName": "contracts/ProjectDetail.sol",
  "abi": [
    {
      "inputs": [],
      "stateMutability": "nonpayable",
      "type": "constructor"
    },
    {
      "inputs": [
        {
          "internalType": "contract IProject",
          "name": "project_",
          "type": "address"
        },
        {
          "internalType": "address",
          "name": "user_",
          "type": "address"
        }
      ],
      "name": "getProjectDetails",
      "outputs": [
        {
          "components": [
            {
              "components": [
                {
                  "internalType": "address",
                  "name": "tokenAddress",
                  "type": "address"
                },
                {
                  "internalType": "uint256",
                  "name": "decimals",
                  "type": "uint256"
                },
                {
                  "internalType": "string",
                  "name": "symbol",
                  "type": "string"
                },
                {
                  "internalType": "uint256",
                  "name": "totalSupply",
                  "type": "uint256"
                },
                {
                  "internalType": "uint256",
                  "name": "sellAmount",
                  "type": "uint256"
                },
                {
                  "internalType": "uint256",
                  "name": "allowance",
                  "type": "uint256"
                },
                {
                  "internalType": "uint256",
                  "name": "balance",
                  "type": "uint256"
                },
                {
                  "internalType": "uint256",
                  "name": "remainingBalanceOfProject",
                  "type": "uint256"
                }
              ],
              "internalType": "struct ProjectDetail.ShareTokenDetails",
              "name": "shareToken",
              "type": "tuple"
            },
            {
              "components": [
                {
                  "internalType": "address",
                  "name": "tokenAddress",
                  "type": "address"
                },
                {
                  "internalType": "uint256",
                  "name": "decimals",
                  "type": "uint256"
                },
                {
                  "internalType": "string",
                  "name": "symbol",
                  "type": "string"
                },
                {
                  "internalType": "uint256",
                  "name": "balance",
                  "type": "uint256"
                },
                {
                  "internalType": "uint256",
                  "name": "allowance",
                  "type": "uint256"
                },
                {
                  "internalType": "uint256",
                  "name": "balanceInTradeOrder",
                  "type": "uint256"
                }
              ],
              "internalType": "struct ProjectDetail.InvestTokenDetails",
              "name": "investToken",
              "type": "tuple"
            },
            {
              "components": [
                {
                  "internalType": "string",
                  "name": "title",
                  "type": "string"
                },
                {
                  "internalType": "string",
                  "name": "description",
                  "type": "string"
                },
                {
                  "internalType": "string",
                  "name": "category",
                  "type": "string"
                },
                {
                  "internalType": "string",
                  "name": "projectWebsite",
                  "type": "string"
                },
                {
                  "internalType": "string",
                  "name": "icon",
                  "type": "string"
                },
                {
                  "internalType": "string",
                  "name": "symbolImage",
                  "type": "string"
                },
                {
                  "internalType": "uint256",
                  "name": "shareTokenPrice",
                  "type": "uint256"
                },
                {
                  "internalType": "uint256",
                  "name": "roi",
                  "type": "uint256"
                },
                {
                  "internalType": "uint256",
                  "name": "startDate",
                  "type": "uint256"
                },
                {
                  "internalType": "uint256",
                  "name": "endDate",
                  "type": "uint256"
                },
                {
                  "internalType": "uint256",
                  "name": "ongoingPercent",
                  "type": "uint256"
                },
                {
                  "internalType": "uint256",
                  "name": "pId",
                  "type": "uint256"
                },
                {
                  "internalType": "uint256",
                  "name": "multiplier",
                  "type": "uint256"
                },
                {
                  "internalType": "address",
                  "name": "projectWallet",
                  "type": "address"
                },
                {
                  "internalType": "uint256",
                  "name": "investTotalAmount",
                  "type": "uint256"
                },
                {
                  "internalType": "bool",
                  "name": "tradePaused",
                  "type": "bool"
                }
              ],
              "internalType": "struct ProjectDetail.ProjectDetails",
              "name": "project",
              "type": "tuple"
            },
            {
              "components": [
                {
                  "internalType": "bool",
                  "name": "claimable",
                  "type": "bool"
                },
                {
                  "internalType": "uint256",
                  "name": "claimableAmount",
                  "type": "uint256"
                },
                {
                  "internalType": "bool",
                  "name": "joinState",
                  "type": "bool"
                },
                {
                  "internalType": "uint256",
                  "name": "investEarnAmount",
                  "type": "uint256"
                }
              ],
              "internalType": "struct ProjectDetail.ProfitDetails",
              "name": "profit",
              "type": "tuple"
            }
          ],
          "internalType": "struct ProjectDetail.Detail",
          "name": "",
          "type": "tuple"
        }
      ],
      "stateMutability": "view",
      "type": "function"
    },
    {
      "inputs": [
        {
          "internalType": "address",
          "name": "tokenAddr_",
          "type": "address"
        },
        {
          "internalType": "address[]",
          "name": "users_",
          "type": "address[]"
        }
      ],
      "name": "getTokenInfo",
      "outputs": [
        {
          "components": [
            {
              "internalType": "string",
              "name": "tokenName",
              "type": "string"
            },
            {
              "internalType": "address",
              "name": "owner",
              "type": "address"
            },
            {
              "internalType": "uint256",
              "name": "ownedBalance",
              "type": "uint256"
            }
          ],
          "internalType": "struct ProjectDetail.TokenDetail[]",
          "name": "",
          "type": "tuple[]"
        }
      ],
      "stateMutability": "view",
      "type": "function"
    }
  ],
  "bytecode": "0x608060405234801561001057600080fd5b506119f8806100206000396000f3fe608060405234801561001057600080fd5b50600436106100365760003560e01c806365b9b64a1461003b578063f861994d14610064575b600080fd5b61004e61004936600461138c565b610084565b60405161005b9190611597565b60405180910390f35b6100776100723660046116d2565b610f8b565b60405161005b9190611799565b61008c611217565b6000836001600160a01b0316636c9fa59e6040518163ffffffff1660e01b8152600401602060405180830381865afa1580156100cc573d6000803e3d6000fd5b505050506040513d601f19601f820116820180604052508101906100f09190611823565b90506000846001600160a01b031663badf822b6040518163ffffffff1660e01b8152600401602060405180830381865afa158015610132573d6000803e3d6000fd5b505050506040513d601f19601f820116820180604052508101906101569190611823565b90506000856001600160a01b031663fddf83796040518163ffffffff1660e01b8152600401602060405180830381865afa158015610198573d6000803e3d6000fd5b505050506040513d601f19601f820116820180604052508101906101bc9190611823565b90506101c6611217565b80516001600160a01b038516908190526040805163313ce56760e01b8152905163313ce567916004808201926020929091908290030181865afa158015610211573d6000803e3d6000fd5b505050506040513d601f19601f820116820180604052508101906102359190611847565b60ff1681600001516020018181525050836001600160a01b03166395d89b416040518163ffffffff1660e01b8152600401600060405180830381865afa158015610283573d6000803e3d6000fd5b505050506040513d6000823e601f3d908101601f191682016040526102ab919081019061186a565b816000015160400181905250836001600160a01b03166318160ddd6040518163ffffffff1660e01b8152600401602060405180830381865afa1580156102f5573d6000803e3d6000fd5b505050506040513d601f19601f8201168201806040525081019061031991906118fe565b81600001516060018181525050866001600160a01b0316633f407b846040518163ffffffff1660e01b8152600401602060405180830381865afa158015610364573d6000803e3d6000fd5b505050506040513d601f19601f8201168201806040525081019061038891906118fe565b8151608001526040516370a0823160e01b81526001600160a01b0388811660048301528516906370a0823190602401602060405180830381865afa1580156103d4573d6000803e3d6000fd5b505050506040513d601f19601f820116820180604052508101906103f891906118fe565b815160e001526020808201516001600160a01b038516908190526040805163313ce56760e01b81529051919263313ce567926004808401938290030181865afa158015610449573d6000803e3d6000fd5b505050506040513d601f19601f8201168201806040525081019061046d9190611847565b60ff1681602001516020018181525050826001600160a01b03166395d89b416040518163ffffffff1660e01b8152600401600060405180830381865afa1580156104bb573d6000803e3d6000fd5b505050506040513d6000823e601f3d908101601f191682016040526104e3919081019061186a565b816020015160400181905250866001600160a01b0316634a79d50c6040518163ffffffff1660e01b8152600401600060405180830381865afa15801561052d573d6000803e3d6000fd5b505050506040513d6000823e601f3d908101601f19168201604052610555919081019061186a565b816040015160000181905250866001600160a01b0316637284e4166040518163ffffffff1660e01b8152600401600060405180830381865afa15801561059f573d6000803e3d6000fd5b505050506040513d6000823e601f3d908101601f191682016040526105c7919081019061186a565b816040015160200181905250866001600160a01b031663ef430aa66040518163ffffffff1660e01b8152600401600060405180830381865afa158015610611573d6000803e3d6000fd5b505050506040513d6000823e601f3d908101601f19168201604052610639919081019061186a565b816040015160400181905250866001600160a01b03166303e5979d6040518163ffffffff1660e01b8152600401600060405180830381865afa158015610683573d6000803e3d6000fd5b505050506040513d6000823e601f3d908101601f191682016040526106ab919081019061186a565b816040015160600181905250866001600160a01b031663c557b9856040518163ffffffff1660e01b8152600401600060405180830381865afa1580156106f5573d6000803e3d6000fd5b505050506040513d6000823e601f3d908101601f1916820160405261071d919081019061186a565b816040015160800181905250866001600160a01b0316634a4ebc3d6040518163ffffffff1660e01b8152600401600060405180830381865afa158015610767573d6000803e3d6000fd5b505050506040513d6000823e601f3d908101601f1916820160405261078f919081019061186a565b816040015160a00181905250866001600160a01b03166327d0d52d6040518163ffffffff1660e01b8152600401602060405180830381865afa1580156107d9573d6000803e3d6000fd5b505050506040513d601f19601f820116820180604052508101906107fd91906118fe565b816040015160c0018181525050866001600160a01b0316634afdd0e76040518163ffffffff1660e01b8152600401602060405180830381865afa158015610848573d6000803e3d6000fd5b505050506040513d601f19601f8201168201806040525081019061086c91906118fe565b816040015160e0018181525050866001600160a01b0316630b97bc866040518163ffffffff1660e01b8152600401602060405180830381865afa1580156108b7573d6000803e3d6000fd5b505050506040513d601f19601f820116820180604052508101906108db91906118fe565b8160400151610100018181525050866001600160a01b031663c24a0f8b6040518163ffffffff1660e01b8152600401602060405180830381865afa158015610927573d6000803e3d6000fd5b505050506040513d601f19601f8201168201806040525081019061094b91906118fe565b8160400151610120018181525050866001600160a01b031663a5cb24406040518163ffffffff1660e01b8152600401602060405180830381865afa158015610997573d6000803e3d6000fd5b505050506040513d601f19601f820116820180604052508101906109bb91906118fe565b8160400151610140018181525050866001600160a01b0316630c6b87056040518163ffffffff1660e01b8152600401602060405180830381865afa158015610a07573d6000803e3d6000fd5b505050506040513d601f19601f82011682018060405250810190610a2b91906118fe565b8160400151610160018181525050866001600160a01b0316631b3ed7226040518163ffffffff1660e01b8152600401602060405180830381865afa158015610a77573d6000803e3d6000fd5b505050506040513d601f19601f82011682018060405250810190610a9b91906118fe565b8160400151610180018181525050866001600160a01b031663beb08ab96040518163ffffffff1660e01b8152600401602060405180830381865afa158015610ae7573d6000803e3d6000fd5b505050506040513d601f19601f82011682018060405250810190610b0b9190611823565b81604001516101a001906001600160a01b031690816001600160a01b031681525050866001600160a01b031663d71454456040518163ffffffff1660e01b8152600401602060405180830381865afa158015610b6b573d6000803e3d6000fd5b505050506040513d601f19601f82011682018060405250810190610b8f91906118fe565b6040828101516101c0019190915251630b92054b60e21b81526001600160a01b038881166004830152831690632e48152c90602401602060405180830381865afa158015610be1573d6000803e3d6000fd5b505050506040513d601f19601f82011682018060405250810190610c05919061192c565b60408201519015156101e0909101526001600160a01b03861615610f81576040516370a0823160e01b81526001600160a01b0387811660048301528516906370a0823190602401602060405180830381865afa158015610c69573d6000803e3d6000fd5b505050506040513d601f19601f82011682018060405250810190610c8d91906118fe565b815160c00152604051636eb1769f60e11b81526001600160a01b038781166004830152888116602483015285169063dd62ed3e90604401602060405180830381865afa158015610ce1573d6000803e3d6000fd5b505050506040513d601f19601f82011682018060405250810190610d0591906118fe565b815160a001526040516370a0823160e01b81526001600160a01b0387811660048301528416906370a0823190602401602060405180830381865afa158015610d51573d6000803e3d6000fd5b505050506040513d601f19601f82011682018060405250810190610d7591906118fe565b602082015160600152604051636eb1769f60e11b81526001600160a01b038781166004830152888116602483015284169063dd62ed3e90604401602060405180830381865afa158015610dcc573d6000803e3d6000fd5b505050506040513d601f19601f82011682018060405250810190610df091906118fe565b6020820151608001526040516367b0fef760e11b81526001600160a01b038881166004830152878116602483015283169063cf61fdee90604401602060405180830381865afa158015610e47573d6000803e3d6000fd5b505050506040513d601f19601f82011682018060405250810190610e6b91906118fe565b602082015160a00152604051634e77247960e01b81526001600160a01b03878116600483015260009182918291908b1690634e77247990602401606060405180830381865afa158015610ec2573d6000803e3d6000fd5b505050506040513d601f19601f82011682018060405250810190610ee69190611947565b60608701805184151590528051602001839052518115156040918201525163ce65868f60e01b81526001600160a01b038d81166004830152919650919450919250908b169063ce65868f90602401602060405180830381865afa158015610f51573d6000803e3d6000fd5b505050506040513d601f19601f82011682018060405250810190610f7591906118fe565b60608086015101525050505b9695505050505050565b80516060906001600160a01b038416610fe35760405162461bcd60e51b8152602060048201526015602482015274696e76616c696420746f6b656e206164647265737360581b60448201526064015b60405180910390fd5b6000811161101e5760405162461bcd60e51b81526020600482015260086024820152676e6f20757365727360c01b6044820152606401610fda565b60008167ffffffffffffffff8111156110395761103961168b565b60405190808252806020026020018201604052801561109757816020015b61108460405180606001604052806060815260200160006001600160a01b03168152602001600081525090565b8152602001906001900390816110575790505b5090508460005b8381101561120c576040518060600160405280836001600160a01b03166306fdde036040518163ffffffff1660e01b8152600401600060405180830381865afa1580156110ef573d6000803e3d6000fd5b505050506040513d6000823e601f3d908101601f19168201604052611117919081019061186a565b815260200187838151811061112e5761112e611983565b60200260200101516001600160a01b03168152602001836001600160a01b03166370a0823189858151811061116557611165611983565b60200260200101516040518263ffffffff1660e01b815260040161119891906001600160a01b0391909116815260200190565b602060405180830381865afa1580156111b5573d6000803e3d6000fd5b505050506040513d601f19601f820116820180604052508101906111d991906118fe565b8152508382815181106111ee576111ee611983565b6020026020010181905250808061120490611999565b91505061109e565b509095945050505050565b604051806080016040528061127360405180610100016040528060006001600160a01b03168152602001600081526020016060815260200160008152602001600081526020016000815260200160008152602001600081525090565b81526020016112ba6040518060c0016040528060006001600160a01b0316815260200160008152602001606081526020016000815260200160008152602001600081525090565b815260200161134a6040518061020001604052806060815260200160608152602001606081526020016060815260200160608152602001606081526020016000815260200160008152602001600081526020016000815260200160008152602001600081526020016000815260200160006001600160a01b03168152602001600081526020016000151581525090565b81526040805160808101825260008082526020828101829052928201819052606082015291015290565b6001600160a01b038116811461138957600080fd5b50565b6000806040838503121561139f57600080fd5b82356113aa81611374565b915060208301356113ba81611374565b809150509250929050565b60005b838110156113e05781810151838201526020016113c8565b838111156113ef576000848401525b50505050565b6000815180845261140d8160208601602086016113c5565b601f01601f19169290920160200192915050565b60018060a01b038151168252602081015160208301526000604082015160c0604085015261145260c08501826113f5565b9050606083015160608501526080830151608085015260a083015160a08501528091505092915050565b60006102008251818552611492828601826113f5565b915050602083015184820360208601526114ac82826113f5565b915050604083015184820360408601526114c682826113f5565b915050606083015184820360608601526114e082826113f5565b915050608083015184820360808601526114fa82826113f5565b91505060a083015184820360a086015261151482826113f5565b60c0858101519087015260e08086015190870152610100808601519087015261012080860151908701526101408086015190870152610160808601519087015261018080860151908701526101a0808601516001600160a01b0316908701526101c080860151908701526101e09485015115159490950193909352509192915050565b602081526000610100835160e0602085015260018060a01b038151168285015260208101516101208501526040810151826101408601526115dc6102008601826113f5565b9250506060810151610160850152608081015161018085015260a08101516101a085015260c08101516101c085015260e08101516101e0850152506020840151601f19808584030160408601526116338383611421565b9250604086015191508085840301606086015250611651828261147c565b606095860151805115156080870152602081015160a08701526040810151151560c08701529095015160e090940193909352509192915050565b634e487b7160e01b600052604160045260246000fd5b604051601f8201601f1916810167ffffffffffffffff811182821017156116ca576116ca61168b565b604052919050565b600080604083850312156116e557600080fd5b82356116f081611374565b915060208381013567ffffffffffffffff8082111561170e57600080fd5b818601915086601f83011261172257600080fd5b8135818111156117345761173461168b565b8060051b91506117458483016116a1565b818152918301840191848101908984111561175f57600080fd5b938501935b83851015611789578435925061177983611374565b8282529385019390850190611764565b8096505050505050509250929050565b60006020808301818452808551808352604092508286019150828160051b87010184880160005b8381101561181557603f198984030185528151606081518186526117e6828701826113f5565b838b01516001600160a01b0316878c0152928901519589019590955250948701949250908601906001016117c0565b509098975050505050505050565b60006020828403121561183557600080fd5b815161184081611374565b9392505050565b60006020828403121561185957600080fd5b815160ff8116811461184057600080fd5b60006020828403121561187c57600080fd5b815167ffffffffffffffff8082111561189457600080fd5b818401915084601f8301126118a857600080fd5b8151818111156118ba576118ba61168b565b6118cd601f8201601f19166020016116a1565b91508082528560208285010111156118e457600080fd5b6118f58160208401602086016113c5565b50949350505050565b60006020828403121561191057600080fd5b5051919050565b8051801515811461192757600080fd5b919050565b60006020828403121561193e57600080fd5b61184082611917565b60008060006060848603121561195c57600080fd5b61196584611917565b92506020840151915061197a60408501611917565b90509250925092565b634e487b7160e01b600052603260045260246000fd5b60006000198214156119bb57634e487b7160e01b600052601160045260246000fd5b506001019056fea2646970667358221220a88e03084a481f76e04ad164c93630ec382ff016f348fd2db10b60c037487c4564736f6c634300080a0033",
  "linkReferences": {},
  "deployedLinkReferences": {}
}