{
  "_format": "hh-sol-artifact-1",
  "contractName": "ProjectDetail",
  "sourceName": "contracts/ProjectDetail.sol",
  "abi": [
    {
      "inputs": [],
      "stateMutability": "nonpayable",
      "type": "constructor"
    },
    {
      "inputs": [
        {
          "internalType": "contract IProject",
          "name": "project_",
          "type": "address"
        },
        {
          "internalType": "address",
          "name": "user_",
          "type": "address"
        }
      ],
      "name": "getProjectDetails",
      "outputs": [
        {
          "components": [
            {
              "internalType": "address",
              "name": "shareToken",
              "type": "address"
            },
            {
              "internalType": "uint256",
              "name": "shareTokenDecimals",
              "type": "uint256"
            },
            {
              "internalType": "uint256",
              "name": "shareTokenSellAmount",
              "type": "uint256"
            },
            {
              "internalType": "uint256",
              "name": "shareTokenBalance",
              "type": "uint256"
            },
            {
              "internalType": "uint256",
              "name": "shareTokenBalanceTemp",
              "type": "uint256"
            },
            {
              "internalType": "uint256",
              "name": "shareTokenAllowance",
              "type": "uint256"
            },
            {
              "internalType": "address",
              "name": "investToken",
              "type": "address"
            },
            {
              "internalType": "uint256",
              "name": "investTokenDecimals",
              "type": "uint256"
            },
            {
              "internalType": "uint256",
              "name": "investTokenBalance",
              "type": "uint256"
            },
            {
              "internalType": "uint256",
              "name": "investTokenAllowance",
              "type": "uint256"
            },
            {
              "internalType": "string",
              "name": "title",
              "type": "string"
            },
            {
              "internalType": "string",
              "name": "description",
              "type": "string"
            },
            {
              "internalType": "string",
              "name": "category",
              "type": "string"
            },
            {
              "internalType": "string",
              "name": "projectWebsite",
              "type": "string"
            },
            {
              "internalType": "string",
              "name": "icon",
              "type": "string"
            },
            {
              "internalType": "string",
              "name": "symbolImage",
              "type": "string"
            },
            {
              "internalType": "uint256",
              "name": "shareTokenPrice",
              "type": "uint256"
            },
            {
              "internalType": "uint256",
              "name": "roi",
              "type": "uint256"
            },
            {
              "internalType": "uint256",
              "name": "apr",
              "type": "uint256"
            },
            {
              "internalType": "uint256",
              "name": "startDate",
              "type": "uint256"
            },
            {
              "internalType": "uint256",
              "name": "endDate",
              "type": "uint256"
            },
            {
              "internalType": "uint256",
              "name": "ongoingPercent",
              "type": "uint256"
            },
            {
              "internalType": "uint256",
              "name": "depositProfitAmount",
              "type": "uint256"
            },
            {
              "internalType": "uint256",
              "name": "originProfitAmount",
              "type": "uint256"
            },
            {
              "internalType": "uint256",
              "name": "sellAmount",
              "type": "uint256"
            },
            {
              "internalType": "uint256",
              "name": "investTotalAmount",
              "type": "uint256"
            },
            {
              "internalType": "bool",
              "name": "claimable",
              "type": "bool"
            },
            {
              "internalType": "uint256",
              "name": "claimableAmount",
              "type": "uint256"
            },
            {
              "internalType": "bool",
              "name": "joinState",
              "type": "bool"
            }
          ],
          "internalType": "struct ProjectDetail.Detail",
          "name": "",
          "type": "tuple"
        }
      ],
      "stateMutability": "view",
      "type": "function"
    },
    {
      "inputs": [
        {
          "internalType": "address",
          "name": "tokenAddr_",
          "type": "address"
        },
        {
          "internalType": "address[]",
          "name": "users_",
          "type": "address[]"
        }
      ],
      "name": "getTokenInfo",
      "outputs": [
        {
          "components": [
            {
              "internalType": "string",
              "name": "tokenName",
              "type": "string"
            },
            {
              "internalType": "address",
              "name": "owner",
              "type": "address"
            },
            {
              "internalType": "uint256",
              "name": "ownedBalance",
              "type": "uint256"
            }
          ],
          "internalType": "struct ProjectDetail.TokenDetail[]",
          "name": "",
          "type": "tuple[]"
        }
      ],
      "stateMutability": "view",
      "type": "function"
    }
  ],
  "bytecode": "0x608060405234801561001057600080fd5b506115dd806100206000396000f3fe608060405234801561001057600080fd5b50600436106100365760003560e01c806365b9b64a1461003b578063f861994d14610064575b600080fd5b61004e610049366004610fee565b610084565b60405161005b9190611083565b60405180910390f35b6100776100723660046112d2565b610d4a565b60405161005b9190611399565b610175604051806103a0016040528060006001600160a01b03168152602001600081526020016000815260200160008152602001600081526020016000815260200160006001600160a01b0316815260200160008152602001600081526020016000815260200160608152602001606081526020016060815260200160608152602001606081526020016060815260200160008152602001600081526020016000815260200160008152602001600081526020016000815260200160008152602001600081526020016000815260200160008152602001600015158152602001600081526020016000151581525090565b6000836001600160a01b0316636c9fa59e6040518163ffffffff1660e01b8152600401602060405180830381865afa1580156101b5573d6000803e3d6000fd5b505050506040513d601f19601f820116820180604052508101906101d99190611423565b90506000846001600160a01b031663badf822b6040518163ffffffff1660e01b8152600401602060405180830381865afa15801561021b573d6000803e3d6000fd5b505050506040513d601f19601f8201168201806040525081019061023f9190611423565b905060008080808080806001600160a01b038b16156104a7576040516370a0823160e01b81526001600160a01b038c811660048301528a16906370a0823190602401602060405180830381865afa15801561029e573d6000803e3d6000fd5b505050506040513d601f19601f820116820180604052508101906102c29190611447565b6040516370a0823160e01b81526001600160a01b038d81166004830152919850908916906370a0823190602401602060405180830381865afa15801561030c573d6000803e3d6000fd5b505050506040513d601f19601f820116820180604052508101906103309190611447565b604051634e77247960e01b81526001600160a01b038d81166004830152919750908d1690634e77247990602401606060405180830381865afa15801561037a573d6000803e3d6000fd5b505050506040513d601f19601f8201168201806040525081019061039e9190611475565b809450819750829350505050886001600160a01b031663dd62ed3e8c8e6040518363ffffffff1660e01b81526004016103ed9291906001600160a01b0392831681529116602082015260400190565b602060405180830381865afa15801561040a573d6000803e3d6000fd5b505050506040513d601f19601f8201168201806040525081019061042e9190611447565b604051636eb1769f60e11b81526001600160a01b038d811660048301528e811660248301529195509089169063dd62ed3e90604401602060405180830381865afa158015610480573d6000803e3d6000fd5b505050506040513d601f19601f820116820180604052508101906104a49190611447565b92505b6040516370a0823160e01b81526001600160a01b038d81166004830152600091908b16906370a0823190602401602060405180830381865afa1580156104f1573d6000803e3d6000fd5b505050506040513d601f19601f820116820180604052508101906105159190611447565b90506000604051806103a001604052808c6001600160a01b031681526020018c6001600160a01b031663313ce5676040518163ffffffff1660e01b8152600401602060405180830381865afa158015610572573d6000803e3d6000fd5b505050506040513d601f19601f8201168201806040525081019061059691906114b1565b60ff1681526020018c6001600160a01b0316633f407b846040518163ffffffff1660e01b8152600401602060405180830381865afa1580156105dc573d6000803e3d6000fd5b505050506040513d601f19601f820116820180604052508101906106009190611447565b81526020018a81526020018381526020018781526020018b6001600160a01b031681526020018b6001600160a01b031663313ce5676040518163ffffffff1660e01b8152600401602060405180830381865afa158015610664573d6000803e3d6000fd5b505050506040513d601f19601f8201168201806040525081019061068891906114b1565b60ff1681526020018981526020018681526020018f6001600160a01b0316634a79d50c6040518163ffffffff1660e01b8152600401600060405180830381865afa1580156106da573d6000803e3d6000fd5b505050506040513d6000823e601f3d908101601f1916820160405261070291908101906114d4565b81526020018f6001600160a01b0316637284e4166040518163ffffffff1660e01b8152600401600060405180830381865afa158015610745573d6000803e3d6000fd5b505050506040513d6000823e601f3d908101601f1916820160405261076d91908101906114d4565b81526020018f6001600160a01b031663ef430aa66040518163ffffffff1660e01b8152600401600060405180830381865afa1580156107b0573d6000803e3d6000fd5b505050506040513d6000823e601f3d908101601f191682016040526107d891908101906114d4565b81526020018f6001600160a01b03166303e5979d6040518163ffffffff1660e01b8152600401600060405180830381865afa15801561081b573d6000803e3d6000fd5b505050506040513d6000823e601f3d908101601f1916820160405261084391908101906114d4565b81526020018f6001600160a01b031663c557b9856040518163ffffffff1660e01b8152600401600060405180830381865afa158015610886573d6000803e3d6000fd5b505050506040513d6000823e601f3d908101601f191682016040526108ae91908101906114d4565b81526020018f6001600160a01b0316634a4ebc3d6040518163ffffffff1660e01b8152600401600060405180830381865afa1580156108f1573d6000803e3d6000fd5b505050506040513d6000823e601f3d908101601f1916820160405261091991908101906114d4565b81526020018f6001600160a01b03166327d0d52d6040518163ffffffff1660e01b8152600401602060405180830381865afa15801561095c573d6000803e3d6000fd5b505050506040513d601f19601f820116820180604052508101906109809190611447565b81526020018f6001600160a01b0316634afdd0e76040518163ffffffff1660e01b8152600401602060405180830381865afa1580156109c3573d6000803e3d6000fd5b505050506040513d601f19601f820116820180604052508101906109e79190611447565b81526020018f6001600160a01b03166357ded9c96040518163ffffffff1660e01b8152600401602060405180830381865afa158015610a2a573d6000803e3d6000fd5b505050506040513d601f19601f82011682018060405250810190610a4e9190611447565b81526020018f6001600160a01b0316630b97bc866040518163ffffffff1660e01b8152600401602060405180830381865afa158015610a91573d6000803e3d6000fd5b505050506040513d601f19601f82011682018060405250810190610ab59190611447565b81526020018f6001600160a01b031663c24a0f8b6040518163ffffffff1660e01b8152600401602060405180830381865afa158015610af8573d6000803e3d6000fd5b505050506040513d601f19601f82011682018060405250810190610b1c9190611447565b81526020018f6001600160a01b031663a5cb24406040518163ffffffff1660e01b8152600401602060405180830381865afa158015610b5f573d6000803e3d6000fd5b505050506040513d601f19601f82011682018060405250810190610b839190611447565b81526020018f6001600160a01b03166356975b846040518163ffffffff1660e01b8152600401602060405180830381865afa158015610bc6573d6000803e3d6000fd5b505050506040513d601f19601f82011682018060405250810190610bea9190611447565b81526020018f6001600160a01b03166328f8692b6040518163ffffffff1660e01b8152600401602060405180830381865afa158015610c2d573d6000803e3d6000fd5b505050506040513d601f19601f82011682018060405250810190610c519190611447565b81526020018f6001600160a01b0316633f407b846040518163ffffffff1660e01b8152600401602060405180830381865afa158015610c94573d6000803e3d6000fd5b505050506040513d601f19601f82011682018060405250810190610cb89190611447565b81526020018f6001600160a01b031663d71454456040518163ffffffff1660e01b8152600401602060405180830381865afa158015610cfb573d6000803e3d6000fd5b505050506040513d601f19601f82011682018060405250810190610d1f9190611447565b8152931515602085015260408401979097525050901515606090910152509098975050505050505050565b80516060906001600160a01b038416610da25760405162461bcd60e51b8152602060048201526015602482015274696e76616c696420746f6b656e206164647265737360581b60448201526064015b60405180910390fd5b60008111610ddd5760405162461bcd60e51b81526020600482015260086024820152676e6f20757365727360c01b6044820152606401610d99565b60008167ffffffffffffffff811115610df857610df861128b565b604051908082528060200260200182016040528015610e5657816020015b610e4360405180606001604052806060815260200160006001600160a01b03168152602001600081525090565b815260200190600190039081610e165790505b5090508460005b83811015610fcb576040518060600160405280836001600160a01b03166306fdde036040518163ffffffff1660e01b8152600401600060405180830381865afa158015610eae573d6000803e3d6000fd5b505050506040513d6000823e601f3d908101601f19168201604052610ed691908101906114d4565b8152602001878381518110610eed57610eed611568565b60200260200101516001600160a01b03168152602001836001600160a01b03166370a08231898581518110610f2457610f24611568565b60200260200101516040518263ffffffff1660e01b8152600401610f5791906001600160a01b0391909116815260200190565b602060405180830381865afa158015610f74573d6000803e3d6000fd5b505050506040513d601f19601f82011682018060405250810190610f989190611447565b815250838281518110610fad57610fad611568565b60200260200101819052508080610fc39061157e565b915050610e5d565b509095945050505050565b6001600160a01b0381168114610feb57600080fd5b50565b6000806040838503121561100157600080fd5b823561100c81610fd6565b9150602083013561101c81610fd6565b809150509250929050565b60005b8381101561104257818101518382015260200161102a565b83811115611051576000848401525b50505050565b6000815180845261106f816020860160208601611027565b601f01601f19169290920160200192915050565b6020815261109d6020820183516001600160a01b03169052565b602082015160408201526040820151606082015260608201516080820152608082015160a082015260a082015160c0820152600060c08301516110eb60e08401826001600160a01b03169052565b5060e08301516101008381019190915283015161012080840191909152830151610140808401919091528301516103a06101608085018290526111326103c0860184611057565b9250808601519050601f196101808187860301818801526111538584611057565b9450808801519250506101a08187860301818801526111728584611057565b9450808801519250506101c08187860301818801526111918584611057565b9450808801519250506101e08187860301818801526111b08584611057565b9450808801519250506102008187860301818801526111cf8584611057565b90880151610220888101919091528801516102408089019190915288015161026080890191909152880151610280808901919091528801516102a0808901919091528801516102c0808901919091528801516102e0808901919091528801516103008089019190915288015161032080890191909152880151610340808901919091528801519094509150610360905061126c8187018315159052565b8601516103808681019190915290950151151593019290925250919050565b634e487b7160e01b600052604160045260246000fd5b604051601f8201601f1916810167ffffffffffffffff811182821017156112ca576112ca61128b565b604052919050565b600080604083850312156112e557600080fd5b82356112f081610fd6565b915060208381013567ffffffffffffffff8082111561130e57600080fd5b818601915086601f83011261132257600080fd5b8135818111156113345761133461128b565b8060051b91506113458483016112a1565b818152918301840191848101908984111561135f57600080fd5b938501935b83851015611389578435925061137983610fd6565b8282529385019390850190611364565b8096505050505050509250929050565b60006020808301818452808551808352604092508286019150828160051b87010184880160005b8381101561141557603f198984030185528151606081518186526113e682870182611057565b838b01516001600160a01b0316878c0152928901519589019590955250948701949250908601906001016113c0565b509098975050505050505050565b60006020828403121561143557600080fd5b815161144081610fd6565b9392505050565b60006020828403121561145957600080fd5b5051919050565b8051801515811461147057600080fd5b919050565b60008060006060848603121561148a57600080fd5b61149384611460565b9250602084015191506114a860408501611460565b90509250925092565b6000602082840312156114c357600080fd5b815160ff8116811461144057600080fd5b6000602082840312156114e657600080fd5b815167ffffffffffffffff808211156114fe57600080fd5b818401915084601f83011261151257600080fd5b8151818111156115245761152461128b565b611537601f8201601f19166020016112a1565b915080825285602082850101111561154e57600080fd5b61155f816020840160208601611027565b50949350505050565b634e487b7160e01b600052603260045260246000fd5b60006000198214156115a057634e487b7160e01b600052601160045260246000fd5b506001019056fea2646970667358221220fb588343ba93693fc76b837e5b2e365273a2061c870d679def880b9d714d006e64736f6c634300080a0033",
  "linkReferences": {},
  "deployedLinkReferences": {}
}