{
  "_format": "hh-sol-artifact-1",
  "contractName": "Ownable",
  "sourceName": "contracts/YocFarming.sol",
  "abi": [
    {
      "inputs": [],
      "stateMutability": "nonpayable",
      "type": "constructor"
    },
    {
      "inputs": [
        {
          "internalType": "address",
          "name": "_address",
          "type": "address"
        }
      ],
      "name": "addAuthorized",
      "outputs": [],
      "stateMutability": "nonpayable",
      "type": "function"
    },
    {
      "inputs": [
        {
          "internalType": "address",
          "name": "",
          "type": "address"
        }
      ],
      "name": "authorized",
      "outputs": [
        {
          "internalType": "bool",
          "name": "",
          "type": "bool"
        }
      ],
      "stateMutability": "view",
      "type": "function"
    },
    {
      "inputs": [],
      "name": "owner",
      "outputs": [
        {
          "internalType": "address",
          "name": "",
          "type": "address"
        }
      ],
      "stateMutability": "view",
      "type": "function"
    },
    {
      "inputs": [
        {
          "internalType": "address",
          "name": "_address",
          "type": "address"
        }
      ],
      "name": "removeAuthorized",
      "outputs": [],
      "stateMutability": "nonpayable",
      "type": "function"
    }
  ],
  "bytecode": "0x608060405234801561001057600080fd5b50600080546001600160a01b03191633179055610278806100326000396000f3fe608060405234801561001057600080fd5b506004361061004c5760003560e01c8063485d7d94146100515780638da5cb5b14610066578063b918161114610096578063cf1c316a146100c9575b600080fd5b61006461005f3660046101b5565b6100dc565b005b600054610079906001600160a01b031681565b6040516001600160a01b0390911681526020015b60405180910390f35b6100b96100a43660046101b5565b60016020526000908152604090205460ff1681565b604051901515815260200161008d565b6100646100d73660046101b5565b61014a565b6000546001600160a01b031633148061010457503360009081526001602052604090205460ff165b6101295760405162461bcd60e51b8152600401610120906101e5565b60405180910390fd5b6001600160a01b03166000908152600160205260409020805460ff19169055565b6000546001600160a01b031633148061017257503360009081526001602052604090205460ff165b61018e5760405162461bcd60e51b8152600401610120906101e5565b6001600160a01b03166000908152600160208190526040909120805460ff19169091179055565b6000602082840312156101c757600080fd5b81356001600160a01b03811681146101de57600080fd5b9392505050565b60208082526039908201527f4f6e6c79206f776e6572206f7220617574686f72697a6564206164647265737360408201527f65732063616e2063616c6c20746869732066756e6374696f6e0000000000000060608201526080019056fea264697066735822122006c30082c9a61fd9db38cb1354320887a5a114529dce000a701b5015bcc6088564736f6c634300080a0033",
  "linkReferences": {},
  "deployedLinkReferences": {}
}