{
  "_format": "hh-sol-artifact-1",
  "contractName": "YOCMasterChef",
  "sourceName": "contracts/YocFarming.sol",
  "abi": [
    {
      "inputs": [
        {
          "internalType": "contract IYOC",
          "name": "_YOC",
          "type": "address"
        },
        {
          "internalType": "address",
          "name": "_treasury",
          "type": "address"
        }
      ],
      "stateMutability": "nonpayable",
      "type": "constructor"
    },
    {
      "anonymous": false,
      "inputs": [
        {
          "indexed": true,
          "internalType": "uint256",
          "name": "pid",
          "type": "uint256"
        },
        {
          "indexed": false,
          "internalType": "uint256",
          "name": "allocPoint",
          "type": "uint256"
        },
        {
          "indexed": true,
          "internalType": "contract IERC20",
          "name": "lpToken",
          "type": "address"
        },
        {
          "indexed": false,
          "internalType": "bool",
          "name": "isYocPool",
          "type": "bool"
        }
      ],
      "name": "AddPool",
      "type": "event"
    },
    {
      "anonymous": false,
      "inputs": [
        {
          "indexed": true,
          "internalType": "address",
          "name": "user",
          "type": "address"
        },
        {
          "indexed": true,
          "internalType": "uint256",
          "name": "pid",
          "type": "uint256"
        },
        {
          "indexed": false,
          "internalType": "uint256",
          "name": "amount",
          "type": "uint256"
        }
      ],
      "name": "Deposit",
      "type": "event"
    },
    {
      "anonymous": false,
      "inputs": [
        {
          "indexed": true,
          "internalType": "address",
          "name": "user",
          "type": "address"
        },
        {
          "indexed": true,
          "internalType": "uint256",
          "name": "pid",
          "type": "uint256"
        },
        {
          "indexed": false,
          "internalType": "uint256",
          "name": "amount",
          "type": "uint256"
        }
      ],
      "name": "EmergencyWithdraw",
      "type": "event"
    },
    {
      "anonymous": false,
      "inputs": [
        {
          "indexed": true,
          "internalType": "uint256",
          "name": "pid",
          "type": "uint256"
        },
        {
          "indexed": false,
          "internalType": "uint256",
          "name": "allocPoint",
          "type": "uint256"
        }
      ],
      "name": "SetPool",
      "type": "event"
    },
    {
      "anonymous": false,
      "inputs": [
        {
          "indexed": true,
          "internalType": "uint256",
          "name": "pid",
          "type": "uint256"
        },
        {
          "indexed": false,
          "internalType": "uint256",
          "name": "lastRewardBlock",
          "type": "uint256"
        },
        {
          "indexed": false,
          "internalType": "uint256",
          "name": "lpSupply",
          "type": "uint256"
        },
        {
          "indexed": false,
          "internalType": "uint256",
          "name": "accYocPerShare",
          "type": "uint256"
        }
      ],
      "name": "UpdatePool",
      "type": "event"
    },
    {
      "anonymous": false,
      "inputs": [
        {
          "indexed": true,
          "internalType": "address",
          "name": "user",
          "type": "address"
        },
        {
          "indexed": true,
          "internalType": "uint256",
          "name": "pid",
          "type": "uint256"
        },
        {
          "indexed": false,
          "internalType": "uint256",
          "name": "amount",
          "type": "uint256"
        },
        {
          "indexed": false,
          "internalType": "uint256",
          "name": "yocAmount",
          "type": "uint256"
        }
      ],
      "name": "Withdraw",
      "type": "event"
    },
    {
      "inputs": [],
      "name": "ACC_YOC_PRECISION",
      "outputs": [
        {
          "internalType": "uint256",
          "name": "",
          "type": "uint256"
        }
      ],
      "stateMutability": "view",
      "type": "function"
    },
    {
      "inputs": [],
      "name": "DEPOSIT_FEE",
      "outputs": [
        {
          "internalType": "uint256",
          "name": "",
          "type": "uint256"
        }
      ],
      "stateMutability": "view",
      "type": "function"
    },
    {
      "inputs": [],
      "name": "MASTERCHEF_YOC_PER_BLOCK",
      "outputs": [
        {
          "internalType": "uint256",
          "name": "",
          "type": "uint256"
        }
      ],
      "stateMutability": "view",
      "type": "function"
    },
    {
      "inputs": [],
      "name": "MIN_PERIOD",
      "outputs": [
        {
          "internalType": "uint256",
          "name": "",
          "type": "uint256"
        }
      ],
      "stateMutability": "view",
      "type": "function"
    },
    {
      "inputs": [],
      "name": "PERCENT_PRECISION",
      "outputs": [
        {
          "internalType": "uint256",
          "name": "",
          "type": "uint256"
        }
      ],
      "stateMutability": "view",
      "type": "function"
    },
    {
      "inputs": [],
      "name": "WITHDRAW_FEE",
      "outputs": [
        {
          "internalType": "uint256",
          "name": "",
          "type": "uint256"
        }
      ],
      "stateMutability": "view",
      "type": "function"
    },
    {
      "inputs": [],
      "name": "YOC",
      "outputs": [
        {
          "internalType": "contract IYOC",
          "name": "",
          "type": "address"
        }
      ],
      "stateMutability": "view",
      "type": "function"
    },
    {
      "inputs": [
        {
          "internalType": "address",
          "name": "_to",
          "type": "address"
        },
        {
          "internalType": "uint256",
          "name": "_amount",
          "type": "uint256"
        }
      ],
      "name": "_safeTransfer",
      "outputs": [],
      "stateMutability": "nonpayable",
      "type": "function"
    },
    {
      "inputs": [
        {
          "internalType": "uint256",
          "name": "_allocPoint",
          "type": "uint256"
        },
        {
          "internalType": "contract IERC20",
          "name": "_lpToken",
          "type": "address"
        },
        {
          "internalType": "bool",
          "name": "_isYocPool",
          "type": "bool"
        },
        {
          "internalType": "bool",
          "name": "_withUpdate",
          "type": "bool"
        }
      ],
      "name": "add",
      "outputs": [],
      "stateMutability": "nonpayable",
      "type": "function"
    },
    {
      "inputs": [
        {
          "internalType": "address",
          "name": "_address",
          "type": "address"
        }
      ],
      "name": "addAuthorized",
      "outputs": [],
      "stateMutability": "nonpayable",
      "type": "function"
    },
    {
      "inputs": [
        {
          "internalType": "address",
          "name": "",
          "type": "address"
        }
      ],
      "name": "authorized",
      "outputs": [
        {
          "internalType": "bool",
          "name": "",
          "type": "bool"
        }
      ],
      "stateMutability": "view",
      "type": "function"
    },
    {
      "inputs": [
        {
          "internalType": "uint256",
          "name": "_pid",
          "type": "uint256"
        },
        {
          "internalType": "uint256",
          "name": "_amount",
          "type": "uint256"
        }
      ],
      "name": "deposit",
      "outputs": [],
      "stateMutability": "nonpayable",
      "type": "function"
    },
    {
      "inputs": [
        {
          "internalType": "uint256",
          "name": "_pid",
          "type": "uint256"
        }
      ],
      "name": "emergencyWithdraw",
      "outputs": [],
      "stateMutability": "nonpayable",
      "type": "function"
    },
    {
      "inputs": [
        {
          "internalType": "uint256",
          "name": "",
          "type": "uint256"
        }
      ],
      "name": "lpToken",
      "outputs": [
        {
          "internalType": "contract IERC20",
          "name": "",
          "type": "address"
        }
      ],
      "stateMutability": "view",
      "type": "function"
    },
    {
      "inputs": [],
      "name": "massUpdatePools",
      "outputs": [],
      "stateMutability": "nonpayable",
      "type": "function"
    },
    {
      "inputs": [],
      "name": "owner",
      "outputs": [
        {
          "internalType": "address",
          "name": "",
          "type": "address"
        }
      ],
      "stateMutability": "view",
      "type": "function"
    },
    {
      "inputs": [
        {
          "internalType": "uint256",
          "name": "_pid",
          "type": "uint256"
        },
        {
          "internalType": "address",
          "name": "_user",
          "type": "address"
        }
      ],
      "name": "pendingYOC",
      "outputs": [
        {
          "internalType": "uint256",
          "name": "",
          "type": "uint256"
        }
      ],
      "stateMutability": "view",
      "type": "function"
    },
    {
      "inputs": [
        {
          "internalType": "uint256",
          "name": "",
          "type": "uint256"
        }
      ],
      "name": "poolInfo",
      "outputs": [
        {
          "internalType": "uint256",
          "name": "accYocPerShare",
          "type": "uint256"
        },
        {
          "internalType": "uint256",
          "name": "lastRewardBlock",
          "type": "uint256"
        },
        {
          "internalType": "uint256",
          "name": "allocPoint",
          "type": "uint256"
        },
        {
          "internalType": "uint256",
          "name": "totalShare",
          "type": "uint256"
        },
        {
          "internalType": "bool",
          "name": "isYocPool",
          "type": "bool"
        }
      ],
      "stateMutability": "view",
      "type": "function"
    },
    {
      "inputs": [],
      "name": "poolLength",
      "outputs": [
        {
          "internalType": "uint256",
          "name": "pools",
          "type": "uint256"
        }
      ],
      "stateMutability": "view",
      "type": "function"
    },
    {
      "inputs": [
        {
          "internalType": "address",
          "name": "_address",
          "type": "address"
        }
      ],
      "name": "removeAuthorized",
      "outputs": [],
      "stateMutability": "nonpayable",
      "type": "function"
    },
    {
      "inputs": [
        {
          "internalType": "uint256",
          "name": "_pid",
          "type": "uint256"
        },
        {
          "internalType": "uint256",
          "name": "_allocPoint",
          "type": "uint256"
        },
        {
          "internalType": "bool",
          "name": "_withUpdate",
          "type": "bool"
        }
      ],
      "name": "set",
      "outputs": [],
      "stateMutability": "nonpayable",
      "type": "function"
    },
    {
      "inputs": [
        {
          "internalType": "address",
          "name": "_treasury",
          "type": "address"
        }
      ],
      "name": "setTreasury",
      "outputs": [],
      "stateMutability": "nonpayable",
      "type": "function"
    },
    {
      "inputs": [],
      "name": "totalAllocPoint",
      "outputs": [
        {
          "internalType": "uint256",
          "name": "",
          "type": "uint256"
        }
      ],
      "stateMutability": "view",
      "type": "function"
    },
    {
      "inputs": [],
      "name": "treasury",
      "outputs": [
        {
          "internalType": "address",
          "name": "",
          "type": "address"
        }
      ],
      "stateMutability": "view",
      "type": "function"
    },
    {
      "inputs": [],
      "name": "treasuryFee",
      "outputs": [
        {
          "internalType": "uint256",
          "name": "",
          "type": "uint256"
        }
      ],
      "stateMutability": "view",
      "type": "function"
    },
    {
      "inputs": [
        {
          "internalType": "uint256",
          "name": "_pid",
          "type": "uint256"
        }
      ],
      "name": "updatePool",
      "outputs": [
        {
          "components": [
            {
              "internalType": "uint256",
              "name": "accYocPerShare",
              "type": "uint256"
            },
            {
              "internalType": "uint256",
              "name": "lastRewardBlock",
              "type": "uint256"
            },
            {
              "internalType": "uint256",
              "name": "allocPoint",
              "type": "uint256"
            },
            {
              "internalType": "uint256",
              "name": "totalShare",
              "type": "uint256"
            },
            {
              "internalType": "bool",
              "name": "isYocPool",
              "type": "bool"
            }
          ],
          "internalType": "struct YOCMasterChef.PoolInfo",
          "name": "pool",
          "type": "tuple"
        }
      ],
      "stateMutability": "nonpayable",
      "type": "function"
    },
    {
      "inputs": [
        {
          "internalType": "uint256",
          "name": "",
          "type": "uint256"
        },
        {
          "internalType": "address",
          "name": "",
          "type": "address"
        }
      ],
      "name": "userInfo",
      "outputs": [
        {
          "internalType": "uint256",
          "name": "amount",
          "type": "uint256"
        },
        {
          "internalType": "uint256",
          "name": "rewardDebt",
          "type": "uint256"
        },
        {
          "internalType": "uint256",
          "name": "lastDepositTimestamp",
          "type": "uint256"
        }
      ],
      "stateMutability": "view",
      "type": "function"
    },
    {
      "inputs": [
        {
          "internalType": "uint256",
          "name": "_pid",
          "type": "uint256"
        },
        {
          "internalType": "uint256",
          "name": "_amount",
          "type": "uint256"
        }
      ],
      "name": "withdraw",
      "outputs": [],
      "stateMutability": "nonpayable",
      "type": "function"
    },
    {
      "inputs": [
        {
          "internalType": "uint256",
          "name": "_pid",
          "type": "uint256"
        }
      ],
      "name": "withdrawAll",
      "outputs": [],
      "stateMutability": "nonpayable",
      "type": "function"
    }
  ],
  "bytecode": "0x60a06040523480156200001157600080fd5b5060405162001efb38038062001efb83398101604081905262000034916200008d565b600080546001600160a01b0319908116331790915560016002556001600160a01b03928316608052600680549290931691161790556014600755620000cc565b6001600160a01b03811681146200008a57600080fd5b50565b60008060408385031215620000a157600080fd5b8251620000ae8162000074565b6020840151909250620000c18162000074565b809150509250929050565b608051611e05620000f66000396000818161047301528181610d060152610e6b0152611e056000f3fe608060405234801561001057600080fd5b50600436106101cf5760003560e01c8063958e2d3111610104578063cc32d176116100a2578063e2bbb15811610071578063e2bbb15814610448578063f0f442601461045b578063fd01ea9f1461046e578063ffe8e3721461049557600080fd5b8063cc32d17614610419578063cf1c316a14610422578063d3c1e6ae14610435578063de363e651461039f57600080fd5b8063b9181611116100de578063b9181611146103b6578063bbccf154146103e9578063c4f8210e146103f3578063c507aeaa1461040657600080fd5b8063958e2d311461038c5780639bff5ddb1461039f578063b27ac6ca146103a757600080fd5b806361d027b31161017157806378ed5d1f1161014b57806378ed5d1f1461030957806384bc3c1c1461031c5780638da5cb5b1461032457806393f1a40b1461033757600080fd5b806361d027b3146102c3578063630b5ba1146102ee57806364482f79146102f657600080fd5b8063441a3e70116101ad578063441a3e7014610231578063485d7d941461024657806351eb05a6146102595780635312ea8e146102b057600080fd5b8063081e3eda146101d45780631526fe27146101eb57806317caf6f114610228575b600080fd5b6004545b6040519081526020015b60405180910390f35b6101fe6101f9366004611aa7565b61049e565b6040805195865260208601949094529284019190915260608301521515608082015260a0016101e2565b6101d860085481565b61024461023f366004611ac0565b6104e2565b005b610244610254366004611af7565b610787565b61026c610267366004611aa7565b6107ec565b6040516101e29190600060a0820190508251825260208301516020830152604083015160408301526060830151606083015260808301511515608083015292915050565b6102446102be366004611aa7565b6109f1565b6006546102d6906001600160a01b031681565b6040516001600160a01b0390911681526020016101e2565b610244610ace565b610244610304366004611b22565b610b66565b6102d6610317366004611aa7565b610c73565b6101d8610c9d565b6000546102d6906001600160a01b031681565b610371610345366004611b5b565b600560209081526000928352604080842090915290825290208054600182015460029092015490919083565b604080519384526020840192909252908201526060016101e2565b61024461039a366004611aa7565b610cb4565b6101d8601381565b6101d8670de0b6b3a764000081565b6103d96103c4366004611af7565b60016020526000908152604090205460ff1681565b60405190151581526020016101e2565b6101d862093a8081565b610244610401366004611b8b565b610cda565b610244610414366004611bb7565b610d78565b6101d860075481565b610244610430366004611af7565b6110b9565b6101d8610443366004611b5b565b611124565b610244610456366004611ac0565b611289565b610244610469366004611af7565b6115d4565b6102d67f000000000000000000000000000000000000000000000000000000000000000081565b6101d861271081565b600481815481106104ae57600080fd5b6000918252602090912060059091020180546001820154600283015460038401546004909401549294509092909160ff1685565b6104ea61163a565b60006104f5836107ec565b600084815260056020908152604080832033845290915290208054919250908311156105615760405162461bcd60e51b81526020600482015260166024820152751dda5d1a191c985dce88125b9cdd59999a58da595b9d60521b60448201526064015b60405180910390fd5b600061056d3386611692565b905083156106a75781546105819085611780565b8255600282015484906000906105979042611c20565b9050846080015180156105ac575062093a8081105b156106705760006105ca6127106105c4896013611793565b9061179f565b9050600388815481106105df576105df611c37565b60009182526020909120015460065460405163a9059cbb60e01b81526001600160a01b0391821660048201526024810184905291169063a9059cbb906044016020604051808303816000875af115801561063d573d6000803e3d6000fd5b505050506040513d601f19601f820116820180604052508101906106619190611c4d565b5061066c8782611780565b9250505b6106a4338360038a8154811061068857610688611c37565b6000918252602090912001546001600160a01b031691906117ab565b50505b825182546106c291670de0b6b3a7640000916105c491611793565b826001018190555061070184600487815481106106e1576106e1611c37565b90600052602060002090600502016003015461178090919063ffffffff16565b6004868154811061071457610714611c37565b90600052602060002090600502016003018190555084336001600160a01b03167f02f25270a4d87bea75db541cdfe559334a275b4a233520ed6c0a2429667cca94868460405161076e929190918252602082015260400190565b60405180910390a35050506107836001600255565b5050565b6000546001600160a01b03163314806107af57503360009081526001602052604090205460ff165b6107cb5760405162461bcd60e51b815260040161055890611c6a565b6001600160a01b03166000908152600160205260409020805460ff19169055565b6108206040518060a00160405280600081526020016000815260200160008152602001600081526020016000151581525090565b6004828154811061083357610833611c37565b60009182526020918290206040805160a0810182526005909302909101805483526001810154938301849052600281015491830191909152600381015460608301526004015460ff161515608082015291504311156109ec57606081015180158015906108a257506000600854115b156109375760006108c083602001514361178090919063ffffffff16565b905060006108f86008546105c486604001516108f2670de0b6b3a7640000614e206108eb9190611cc7565b8790611793565b90611793565b905061093261092a60646105c460075460646109149190611c20565b6108f2886105c488670de0b6b3a7640000611793565b85519061180e565b845250505b436020830152600480548391908590811061095457610954611c37565b6000918252602091829020835160059290920201908155828201516001820155604080840151600283015560608085015160038401556080909401516004909201805460ff19169215159290921790915584820151855182519182529281018590529081019190915284917f3be3541fc42237d611b30329040bfa4569541d156560acdbbae57640d20b8f46910160405180910390a2505b919050565b6109f961163a565b600060048281548110610a0e57610a0e611c37565b600091825260208083208584526005808352604080862033875290935291842080548582556001820195909555929091020160038101549093509091908110610a58576000610a67565b6003830154610a679082611780565b8360030181905550610a8733826003878154811061068857610688611c37565b604051818152849033907fbb757047c2b5f3974fe26b7c10f732e7bce710b0952a71082702781e62ae05959060200160405180910390a3505050610acb6001600255565b50565b60045460005b8181101561078357600060048281548110610af157610af1611c37565b60009182526020918290206040805160a08101825260059093029091018054835260018101549383019390935260028301549082018190526003830154606083015260049092015460ff1615156080820152915015610b5557610b53826107ec565b505b50610b5f81611ce6565b9050610ad4565b6000546001600160a01b0316331480610b8e57503360009081526001602052604090205460ff165b610baa5760405162461bcd60e51b815260040161055890611c6a565b610bb3836107ec565b508015610bc257610bc2610ace565b610c0582610bff60048681548110610bdc57610bdc611c37565b90600052602060002090600502016002015460085461178090919063ffffffff16565b9061180e565b6008819055508160048481548110610c1f57610c1f611c37565b906000526020600020906005020160020181905550827fc0cfd54d2de2b55f1e6e108d3ec53ff0a1abe6055401d32c61e9433b747ef9f883604051610c6691815260200190565b60405180910390a2505050565b60038181548110610c8357600080fd5b6000918252602090912001546001600160a01b0316905081565b610cb1670de0b6b3a7640000614e20611cc7565b81565b6000818152600560209081526040808320338452909152902080546107839083906104e2565b8015610783576040516340c10f1960e01b81526001600160a01b038381166004830152602482018390527f000000000000000000000000000000000000000000000000000000000000000016906340c10f19906044016020604051808303816000875af1158015610d4f573d6000803e3d6000fd5b505050506040513d601f19601f82011682018060405250810190610d739190611c4d565b505050565b6000546001600160a01b0316331480610da057503360009081526001602052604090205460ff165b610dbc5760405162461bcd60e51b815260040161055890611c6a565b6040516370a0823160e01b81523060048201526000906001600160a01b038516906370a0823190602401602060405180830381865afa158015610e03573d6000803e3d6000fd5b505050506040513d601f19601f82011682018060405250810190610e279190611d01565b1015610e695760405162461bcd60e51b81526020600482015260116024820152704e6f6e6520424550323020746f6b656e7360781b6044820152606401610558565b7f00000000000000000000000000000000000000000000000000000000000000006001600160a01b0316836001600160a01b03161415610efa5760405162461bcd60e51b815260206004820152602660248201527f594f4320746f6b656e2063616e277420626520616464656420746f206661726d60448201526520706f6f6c7360d01b6064820152608401610558565b8015610f0857610f08610ace565b600854610f15908561180e565b60085560038054600180820183557fc2575a0e9e593c00f959f8c92f12db2869c3395a3b0502d05e2516446f71f85b90910180546001600160a01b0319166001600160a01b0387169081179091556040805160a081018252600080825243602083019081529282018a8152606083018281528915156080850190815260048054808a018255945293517f8a35acfbc15ff81a39ae7d344fd709f28e8600b4aa8c65c6b64bfe7fe36bd19b6005949094029384015593517f8a35acfbc15ff81a39ae7d344fd709f28e8600b4aa8c65c6b64bfe7fe36bd19c830155517f8a35acfbc15ff81a39ae7d344fd709f28e8600b4aa8c65c6b64bfe7fe36bd19d82015591517f8a35acfbc15ff81a39ae7d344fd709f28e8600b4aa8c65c6b64bfe7fe36bd19e830155517f8a35acfbc15ff81a39ae7d344fd709f28e8600b4aa8c65c6b64bfe7fe36bd19f909101805460ff1916911515919091179055915461107991611780565b6040805187815285151560208201527f18caa0724a26384928efe604ae6ddc99c242548876259770fc88fcb7e719d8fa910160405180910390a350505050565b6000546001600160a01b03163314806110e157503360009081526001602052604090205460ff165b6110fd5760405162461bcd60e51b815260040161055890611c6a565b6001600160a01b03166000908152600160208190526040909120805460ff19169091179055565b6000806004848154811061113a5761113a611c37565b600091825260208083206040805160a081018252600594850290920180548352600180820154848601908152600280840154868601526003840154606080880191825260049095015460ff16151560808801528d8a529787528489206001600160a01b038d168a52875297849020845193840185528054845291820154958301959095529095015490850152805192519151909450431180156111dc57508015155b1561124d5760006111fa85602001514361178090919063ffffffff16565b905060006112256008546105c488604001516108f2670de0b6b3a7640000614e206108eb9190611cc7565b905061124861124160646105c460075460646109149190611c20565b859061180e565b935050505b61127e8360200151611278670de0b6b3a76400006105c486886000015161179390919063ffffffff16565b90611780565b979650505050505050565b61129161163a565b600061129c836107ec565b60008481526005602090815260408083203384529091529020805491925090156112cc576112ca3385611692565b505b821561150e576000600385815481106112e7576112e7611c37565b6000918252602090912001546040516370a0823160e01b81523060048201526001600160a01b03909116906370a0823190602401602060405180830381865afa158015611338573d6000803e3d6000fd5b505050506040513d601f19601f8201168201806040525081019061135c9190611d01565b90506113943330866003898154811061137757611377611c37565b6000918252602090912001546001600160a01b031692919061181a565b61142081600387815481106113ab576113ab611c37565b6000918252602090912001546040516370a0823160e01b81523060048201526001600160a01b03909116906370a0823190602401602060405180830381865afa1580156113fc573d6000803e3d6000fd5b505050506040513d601f19601f820116820180604052508101906112789190611d01565b935082608001516114e457600061143e6127106105c4876013611793565b90506003868154811061145357611453611c37565b60009182526020909120015460065460405163a9059cbb60e01b81526001600160a01b0391821660048201526024810184905291169063a9059cbb906044016020604051808303816000875af11580156114b1573d6000803e3d6000fd5b505050506040513d601f19601f820116820180604052508101906114d59190611c4d565b506114e08582611780565b9450505b81546114f0908561180e565b82554260028301556060830151611507908561180e565b6060840152505b8151815461152991670de0b6b3a7640000916105c491611793565b8160010181905550816004858154811061154557611545611c37565b60009182526020918290208351600592909202019081558282015160018201556040808401516002830155606084015160038301556080909301516004909101805460ff19169115159190911790559051848152859133917f90890809c654f11d6e72a28fa60149770a0d11ec6c92319d6ceb2bb0a4ea1a15910160405180910390a350506107836001600255565b6000546001600160a01b03163314806115fc57503360009081526001602052604090205460ff165b6116185760405162461bcd60e51b815260040161055890611c6a565b600680546001600160a01b0319166001600160a01b0392909216919091179055565b60028054141561168c5760405162461bcd60e51b815260206004820152601f60248201527f5265656e7472616e637947756172643a207265656e7472616e742063616c6c006044820152606401610558565b60028055565b60008181526005602090815260408083206001600160a01b03861684528252808320815160608101835281548152600182015493810193909352600201549082015260048054839161171591670de0b6b3a7640000916105c491889081106116fc576116fc611c37565b6000918252602090912060059091020154855190611793565b9050600061173083602001518361178090919063ffffffff16565b9050600061175460075460646117469190611c20565b6007546105c4908590611793565b90506117608783610cda565b600654611776906001600160a01b031682610cda565b5095945050505050565b600061178c8284611c20565b9392505050565b600061178c8284611cc7565b600061178c8284611d1a565b6040516001600160a01b038316602482015260448101829052610d7390849063a9059cbb60e01b906064015b60408051601f198184030181529190526020810180516001600160e01b03166001600160e01b031990931692909217909152611858565b600061178c8284611d3c565b6040516001600160a01b03808516602483015283166044820152606481018290526118529085906323b872dd60e01b906084016117d7565b50505050565b60006118ad826040518060400160405280602081526020017f5361666545524332303a206c6f772d6c6576656c2063616c6c206661696c6564815250856001600160a01b031661192a9092919063ffffffff16565b805190915015610d7357808060200190518101906118cb9190611c4d565b610d735760405162461bcd60e51b815260206004820152602a60248201527f5361666545524332303a204552433230206f7065726174696f6e20646964206e6044820152691bdd081cdd58d8d9595960b21b6064820152608401610558565b60606119398484600085611941565b949350505050565b6060824710156119a25760405162461bcd60e51b815260206004820152602660248201527f416464726573733a20696e73756666696369656e742062616c616e636520666f6044820152651c8818d85b1b60d21b6064820152608401610558565b600080866001600160a01b031685876040516119be9190611d80565b60006040518083038185875af1925050503d80600081146119fb576040519150601f19603f3d011682016040523d82523d6000602084013e611a00565b606091505b509150915061127e8783838760608315611a78578251611a71576001600160a01b0385163b611a715760405162461bcd60e51b815260206004820152601d60248201527f416464726573733a2063616c6c20746f206e6f6e2d636f6e74726163740000006044820152606401610558565b5081611939565b6119398383815115611a8d5781518083602001fd5b8060405162461bcd60e51b81526004016105589190611d9c565b600060208284031215611ab957600080fd5b5035919050565b60008060408385031215611ad357600080fd5b50508035926020909101359150565b6001600160a01b0381168114610acb57600080fd5b600060208284031215611b0957600080fd5b813561178c81611ae2565b8015158114610acb57600080fd5b600080600060608486031215611b3757600080fd5b83359250602084013591506040840135611b5081611b14565b809150509250925092565b60008060408385031215611b6e57600080fd5b823591506020830135611b8081611ae2565b809150509250929050565b60008060408385031215611b9e57600080fd5b8235611ba981611ae2565b946020939093013593505050565b60008060008060808587031215611bcd57600080fd5b843593506020850135611bdf81611ae2565b92506040850135611bef81611b14565b91506060850135611bff81611b14565b939692955090935050565b634e487b7160e01b600052601160045260246000fd5b600082821015611c3257611c32611c0a565b500390565b634e487b7160e01b600052603260045260246000fd5b600060208284031215611c5f57600080fd5b815161178c81611b14565b60208082526039908201527f4f6e6c79206f776e6572206f7220617574686f72697a6564206164647265737360408201527f65732063616e2063616c6c20746869732066756e6374696f6e00000000000000606082015260800190565b6000816000190483118215151615611ce157611ce1611c0a565b500290565b6000600019821415611cfa57611cfa611c0a565b5060010190565b600060208284031215611d1357600080fd5b5051919050565b600082611d3757634e487b7160e01b600052601260045260246000fd5b500490565b60008219821115611d4f57611d4f611c0a565b500190565b60005b83811015611d6f578181015183820152602001611d57565b838111156118525750506000910152565b60008251611d92818460208701611d54565b9190910192915050565b6020815260008251806020840152611dbb816040850160208701611d54565b601f01601f1916919091016040019291505056fea2646970667358221220b911faf148dbeda81302f8dd53b207c1ab49abca43972a2feaa3dfb89062471a64736f6c634300080a0033",
  "linkReferences": {},
  "deployedLinkReferences": {}
}