{
  "_format": "hh-sol-artifact-1",
  "contractName": "YOCMasterChef",
  "sourceName": "contracts/YocFarming.sol",
  "abi": [
    {
      "inputs": [
        {
          "internalType": "contract IERC20",
          "name": "_YOC",
          "type": "address"
        },
        {
          "internalType": "address",
          "name": "_treasury",
          "type": "address"
        }
      ],
      "stateMutability": "nonpayable",
      "type": "constructor"
    },
    {
      "anonymous": false,
      "inputs": [
        {
          "indexed": true,
          "internalType": "uint256",
          "name": "pid",
          "type": "uint256"
        },
        {
          "indexed": false,
          "internalType": "uint256",
          "name": "allocPoint",
          "type": "uint256"
        },
        {
          "indexed": true,
          "internalType": "contract IERC20",
          "name": "lpToken",
          "type": "address"
        },
        {
          "indexed": false,
          "internalType": "bool",
          "name": "isYocPool",
          "type": "bool"
        }
      ],
      "name": "AddPool",
      "type": "event"
    },
    {
      "anonymous": false,
      "inputs": [
        {
          "indexed": true,
          "internalType": "address",
          "name": "user",
          "type": "address"
        },
        {
          "indexed": true,
          "internalType": "uint256",
          "name": "pid",
          "type": "uint256"
        },
        {
          "indexed": false,
          "internalType": "uint256",
          "name": "amount",
          "type": "uint256"
        }
      ],
      "name": "Deposit",
      "type": "event"
    },
    {
      "anonymous": false,
      "inputs": [
        {
          "indexed": true,
          "internalType": "address",
          "name": "user",
          "type": "address"
        },
        {
          "indexed": true,
          "internalType": "uint256",
          "name": "pid",
          "type": "uint256"
        },
        {
          "indexed": false,
          "internalType": "uint256",
          "name": "amount",
          "type": "uint256"
        }
      ],
      "name": "EmergencyWithdraw",
      "type": "event"
    },
    {
      "anonymous": false,
      "inputs": [
        {
          "indexed": true,
          "internalType": "address",
          "name": "previousOwner",
          "type": "address"
        },
        {
          "indexed": true,
          "internalType": "address",
          "name": "newOwner",
          "type": "address"
        }
      ],
      "name": "OwnershipTransferred",
      "type": "event"
    },
    {
      "anonymous": false,
      "inputs": [
        {
          "indexed": true,
          "internalType": "uint256",
          "name": "pid",
          "type": "uint256"
        },
        {
          "indexed": false,
          "internalType": "uint256",
          "name": "allocPoint",
          "type": "uint256"
        }
      ],
      "name": "SetPool",
      "type": "event"
    },
    {
      "anonymous": false,
      "inputs": [
        {
          "indexed": true,
          "internalType": "uint256",
          "name": "pid",
          "type": "uint256"
        },
        {
          "indexed": false,
          "internalType": "uint256",
          "name": "lastRewardBlock",
          "type": "uint256"
        },
        {
          "indexed": false,
          "internalType": "uint256",
          "name": "lpSupply",
          "type": "uint256"
        },
        {
          "indexed": false,
          "internalType": "uint256",
          "name": "accYocPerShare",
          "type": "uint256"
        }
      ],
      "name": "UpdatePool",
      "type": "event"
    },
    {
      "anonymous": false,
      "inputs": [
        {
          "indexed": true,
          "internalType": "address",
          "name": "user",
          "type": "address"
        },
        {
          "indexed": true,
          "internalType": "uint256",
          "name": "pid",
          "type": "uint256"
        },
        {
          "indexed": false,
          "internalType": "uint256",
          "name": "amount",
          "type": "uint256"
        }
      ],
      "name": "Withdraw",
      "type": "event"
    },
    {
      "inputs": [],
      "name": "ACC_YOC_PRECISION",
      "outputs": [
        {
          "internalType": "uint256",
          "name": "",
          "type": "uint256"
        }
      ],
      "stateMutability": "view",
      "type": "function"
    },
    {
      "inputs": [],
      "name": "DEPOSIT_FEE",
      "outputs": [
        {
          "internalType": "uint256",
          "name": "",
          "type": "uint256"
        }
      ],
      "stateMutability": "view",
      "type": "function"
    },
    {
      "inputs": [],
      "name": "MASTERCHEF_YOC_PER_BLOCK",
      "outputs": [
        {
          "internalType": "uint256",
          "name": "",
          "type": "uint256"
        }
      ],
      "stateMutability": "view",
      "type": "function"
    },
    {
      "inputs": [],
      "name": "MIN_PERIOD",
      "outputs": [
        {
          "internalType": "uint256",
          "name": "",
          "type": "uint256"
        }
      ],
      "stateMutability": "view",
      "type": "function"
    },
    {
      "inputs": [],
      "name": "PERCENT_PRECISION",
      "outputs": [
        {
          "internalType": "uint256",
          "name": "",
          "type": "uint256"
        }
      ],
      "stateMutability": "view",
      "type": "function"
    },
    {
      "inputs": [],
      "name": "WITHDRAW_FEE",
      "outputs": [
        {
          "internalType": "uint256",
          "name": "",
          "type": "uint256"
        }
      ],
      "stateMutability": "view",
      "type": "function"
    },
    {
      "inputs": [],
      "name": "YOC",
      "outputs": [
        {
          "internalType": "contract IERC20",
          "name": "",
          "type": "address"
        }
      ],
      "stateMutability": "view",
      "type": "function"
    },
    {
      "inputs": [
        {
          "internalType": "uint256",
          "name": "_allocPoint",
          "type": "uint256"
        },
        {
          "internalType": "contract IERC20",
          "name": "_lpToken",
          "type": "address"
        },
        {
          "internalType": "bool",
          "name": "_isYocPool",
          "type": "bool"
        },
        {
          "internalType": "bool",
          "name": "_withUpdate",
          "type": "bool"
        }
      ],
      "name": "add",
      "outputs": [],
      "stateMutability": "nonpayable",
      "type": "function"
    },
    {
      "inputs": [
        {
          "internalType": "uint256",
          "name": "_pid",
          "type": "uint256"
        },
        {
          "internalType": "uint256",
          "name": "_amount",
          "type": "uint256"
        }
      ],
      "name": "deposit",
      "outputs": [],
      "stateMutability": "nonpayable",
      "type": "function"
    },
    {
      "inputs": [
        {
          "internalType": "uint256",
          "name": "_pid",
          "type": "uint256"
        }
      ],
      "name": "emergencyWithdraw",
      "outputs": [],
      "stateMutability": "nonpayable",
      "type": "function"
    },
    {
      "inputs": [
        {
          "internalType": "uint256",
          "name": "",
          "type": "uint256"
        }
      ],
      "name": "lpToken",
      "outputs": [
        {
          "internalType": "contract IERC20",
          "name": "",
          "type": "address"
        }
      ],
      "stateMutability": "view",
      "type": "function"
    },
    {
      "inputs": [],
      "name": "massUpdatePools",
      "outputs": [],
      "stateMutability": "nonpayable",
      "type": "function"
    },
    {
      "inputs": [],
      "name": "owner",
      "outputs": [
        {
          "internalType": "address",
          "name": "",
          "type": "address"
        }
      ],
      "stateMutability": "view",
      "type": "function"
    },
    {
      "inputs": [
        {
          "internalType": "uint256",
          "name": "_pid",
          "type": "uint256"
        },
        {
          "internalType": "address",
          "name": "_user",
          "type": "address"
        }
      ],
      "name": "pendingYOC",
      "outputs": [
        {
          "internalType": "uint256",
          "name": "",
          "type": "uint256"
        }
      ],
      "stateMutability": "view",
      "type": "function"
    },
    {
      "inputs": [
        {
          "internalType": "uint256",
          "name": "",
          "type": "uint256"
        }
      ],
      "name": "poolInfo",
      "outputs": [
        {
          "internalType": "uint256",
          "name": "accYocPerShare",
          "type": "uint256"
        },
        {
          "internalType": "uint256",
          "name": "lastRewardBlock",
          "type": "uint256"
        },
        {
          "internalType": "uint256",
          "name": "allocPoint",
          "type": "uint256"
        },
        {
          "internalType": "uint256",
          "name": "totalShare",
          "type": "uint256"
        },
        {
          "internalType": "bool",
          "name": "isYocPool",
          "type": "bool"
        }
      ],
      "stateMutability": "view",
      "type": "function"
    },
    {
      "inputs": [],
      "name": "poolLength",
      "outputs": [
        {
          "internalType": "uint256",
          "name": "pools",
          "type": "uint256"
        }
      ],
      "stateMutability": "view",
      "type": "function"
    },
    {
      "inputs": [],
      "name": "renounceOwnership",
      "outputs": [],
      "stateMutability": "nonpayable",
      "type": "function"
    },
    {
      "inputs": [
        {
          "internalType": "uint256",
          "name": "_pid",
          "type": "uint256"
        },
        {
          "internalType": "uint256",
          "name": "_allocPoint",
          "type": "uint256"
        },
        {
          "internalType": "bool",
          "name": "_withUpdate",
          "type": "bool"
        }
      ],
      "name": "set",
      "outputs": [],
      "stateMutability": "nonpayable",
      "type": "function"
    },
    {
      "inputs": [
        {
          "internalType": "address",
          "name": "_treasury",
          "type": "address"
        }
      ],
      "name": "setTreasury",
      "outputs": [],
      "stateMutability": "nonpayable",
      "type": "function"
    },
    {
      "inputs": [],
      "name": "totalAllocPoint",
      "outputs": [
        {
          "internalType": "uint256",
          "name": "",
          "type": "uint256"
        }
      ],
      "stateMutability": "view",
      "type": "function"
    },
    {
      "inputs": [
        {
          "internalType": "address",
          "name": "newOwner",
          "type": "address"
        }
      ],
      "name": "transferOwnership",
      "outputs": [],
      "stateMutability": "nonpayable",
      "type": "function"
    },
    {
      "inputs": [],
      "name": "treasury",
      "outputs": [
        {
          "internalType": "address",
          "name": "",
          "type": "address"
        }
      ],
      "stateMutability": "view",
      "type": "function"
    },
    {
      "inputs": [
        {
          "internalType": "uint256",
          "name": "_pid",
          "type": "uint256"
        }
      ],
      "name": "updatePool",
      "outputs": [
        {
          "components": [
            {
              "internalType": "uint256",
              "name": "accYocPerShare",
              "type": "uint256"
            },
            {
              "internalType": "uint256",
              "name": "lastRewardBlock",
              "type": "uint256"
            },
            {
              "internalType": "uint256",
              "name": "allocPoint",
              "type": "uint256"
            },
            {
              "internalType": "uint256",
              "name": "totalShare",
              "type": "uint256"
            },
            {
              "internalType": "bool",
              "name": "isYocPool",
              "type": "bool"
            }
          ],
          "internalType": "struct YOCMasterChef.PoolInfo",
          "name": "pool",
          "type": "tuple"
        }
      ],
      "stateMutability": "nonpayable",
      "type": "function"
    },
    {
      "inputs": [
        {
          "internalType": "uint256",
          "name": "",
          "type": "uint256"
        },
        {
          "internalType": "address",
          "name": "",
          "type": "address"
        }
      ],
      "name": "userInfo",
      "outputs": [
        {
          "internalType": "uint256",
          "name": "amount",
          "type": "uint256"
        },
        {
          "internalType": "uint256",
          "name": "rewardDebt",
          "type": "uint256"
        },
        {
          "internalType": "uint256",
          "name": "lastDepositTimestamp",
          "type": "uint256"
        }
      ],
      "stateMutability": "view",
      "type": "function"
    },
    {
      "inputs": [
        {
          "internalType": "uint256",
          "name": "_pid",
          "type": "uint256"
        },
        {
          "internalType": "uint256",
          "name": "_amount",
          "type": "uint256"
        }
      ],
      "name": "withdraw",
      "outputs": [],
      "stateMutability": "nonpayable",
      "type": "function"
    }
  ],
  "bytecode": "0x60a06040523480156200001157600080fd5b5060405162001d5138038062001d518339810160408190526200003491620000d5565b6200003f336200006c565b600180556001600160a01b03918216608052600580546001600160a01b0319169190921617905562000114565b600080546001600160a01b038381166001600160a01b0319831681178455604051919092169283917f8be0079c531659141344cd1fd0a4f28419497f9722a3daafe3b4186f6b6457e09190a35050565b6001600160a01b0381168114620000d257600080fd5b50565b60008060408385031215620000e957600080fd5b8251620000f681620000bc565b60208401519092506200010981620000bc565b809150509250929050565b608051611c0c62000145600039600081816103b001528181610bf30152818161163301526116c10152611c0c6000f3fe608060405234801561001057600080fd5b50600436106101735760003560e01c80638da5cb5b116100de578063d3c1e6ae11610097578063f0f4426011610071578063f0f4426014610385578063f2fde38b14610398578063fd01ea9f146103ab578063ffe8e372146103d257600080fd5b8063d3c1e6ae14610357578063de363e651461036a578063e2bbb1581461037257600080fd5b80638da5cb5b146102bd57806393f1a40b146102ce5780639bff5ddb14610323578063b27ac6ca1461032b578063bbccf1541461033a578063c507aeaa1461034457600080fd5b806361d027b31161013057806361d027b314610254578063630b5ba11461027f57806364482f7914610287578063715018a61461029a57806378ed5d1f146102a257806384bc3c1c146102b557600080fd5b8063081e3eda146101785780631526fe271461018f57806317caf6f1146101cc578063441a3e70146101d557806351eb05a6146101ea5780635312ea8e14610241575b600080fd5b6003545b6040519081526020015b60405180910390f35b6101a261019d366004611937565b6103db565b6040805195865260208601949094529284019190915260608301521515608082015260a001610186565b61017c60065481565b6101e86101e3366004611950565b61041f565b005b6101fd6101f8366004611937565b6106b5565b6040516101869190600060a0820190508251825260208301516020830152604083015160408301526060830151606083015260808301511515608083015292915050565b6101e861024f366004611937565b6108a2565b600554610267906001600160a01b031681565b6040516001600160a01b039091168152602001610186565b6101e861097f565b6101e8610295366004611980565b610a17565b6101e8610ae8565b6102676102b0366004611937565b610afc565b61017c610b26565b6000546001600160a01b0316610267565b6103086102dc3660046119ce565b600460209081526000928352604080842090915290825290208054600182015460029092015490919083565b60408051938452602084019290925290820152606001610186565b61017c600a81565b61017c670de0b6b3a764000081565b61017c62093a8081565b6101e86103523660046119fe565b610b3c565b61017c6103653660046119ce565b610e40565b61017c601981565b6101e8610380366004611950565b610fa7565b6101e8610393366004611a51565b6112e1565b6101e86103a6366004611a51565b61130b565b6102677f000000000000000000000000000000000000000000000000000000000000000081565b61017c6103e881565b600381815481106103eb57600080fd5b6000918252602090912060059091020180546001820154600283015460038401546004909401549294509092909160ff1685565b610427611381565b6000610432836106b5565b6000848152600460209081526040808320338452909152902080549192509083111561049e5760405162461bcd60e51b81526020600482015260166024820152751dda5d1a191c985dce88125b9cdd59999a58da595b9d60521b60448201526064015b60405180910390fd5b6104a833856113db565b82156105e05780546104ba908461148e565b8155600281015483906000906104d09042611a84565b9050836080015180156104e5575062093a8081105b156105a95760006105036103e86104fd88600a6114a1565b906114ad565b90506002878154811061051857610518611a9b565b60009182526020909120015460055460405163a9059cbb60e01b81526001600160a01b0391821660048201526024810184905291169063a9059cbb906044016020604051808303816000875af1158015610576573d6000803e3d6000fd5b505050506040513d601f19601f8201168201806040525081019061059a9190611ab1565b506105a5868261148e565b9250505b6105dd3383600289815481106105c1576105c1611a9b565b6000918252602090912001546001600160a01b031691906114b9565b50505b815181546105fb91670de0b6b3a7640000916104fd916114a1565b816001018190555061063a836003868154811061061a5761061a611a9b565b90600052602060002090600502016003015461148e90919063ffffffff16565b6003858154811061064d5761064d611a9b565b90600052602060002090600502016003018190555083336001600160a01b03167ff279e6a1f5e320cca91135676d9cb6e44ca8a08c0b88342bcdb1144f6511b5688560405161069e91815260200190565b60405180910390a350506106b160018055565b5050565b6106e96040518060a00160405280600081526020016000815260200160008152602001600081526020016000151581525090565b600382815481106106fc576106fc611a9b565b60009182526020918290206040805160a0810182526005909302909101805483526001810154938301849052600281015491830191909152600381015460608301526004015460ff1615156080820152915043111561089d576060810151801580159061076b57506000600654115b156107e857600061078983602001514361148e90919063ffffffff16565b905060006107c06006546104fd86604001516107ba670de0b6b3a764000060146107b39190611ace565b87906114a1565b906114a1565b90506107e36107db846104fd84670de0b6b3a76400006114a1565b855190611521565b845250505b436020830152600380548391908590811061080557610805611a9b565b6000918252602091829020835160059290920201908155828201516001820155604080840151600283015560608085015160038401556080909401516004909201805460ff19169215159290921790915584820151855182519182529281018590529081019190915284917f3be3541fc42237d611b30329040bfa4569541d156560acdbbae57640d20b8f46910160405180910390a2505b919050565b6108aa611381565b6000600382815481106108bf576108bf611a9b565b6000918252602080832085845260048252604080852033865290925290832080548482556001820194909455600592909202016003810154909350909190811061090a576000610919565b6003830154610919908261148e565b83600301819055506109393382600287815481106105c1576105c1611a9b565b604051818152849033907fbb757047c2b5f3974fe26b7c10f732e7bce710b0952a71082702781e62ae05959060200160405180910390a350505061097c60018055565b50565b60035460005b818110156106b1576000600382815481106109a2576109a2611a9b565b60009182526020918290206040805160a08101825260059093029091018054835260018101549383019390935260028301549082018190526003830154606083015260049092015460ff1615156080820152915015610a0657610a04826106b5565b505b50610a1081611aed565b9050610985565b610a1f61152d565b610a28836106b5565b508015610a3757610a3761097f565b610a7a82610a7460038681548110610a5157610a51611a9b565b90600052602060002090600502016002015460065461148e90919063ffffffff16565b90611521565b6006819055508160038481548110610a9457610a94611a9b565b906000526020600020906005020160020181905550827fc0cfd54d2de2b55f1e6e108d3ec53ff0a1abe6055401d32c61e9433b747ef9f883604051610adb91815260200190565b60405180910390a2505050565b610af061152d565b610afa6000611587565b565b60028181548110610b0c57600080fd5b6000918252602090912001546001600160a01b0316905081565b610b39670de0b6b3a76400006014611ace565b81565b610b4461152d565b6040516370a0823160e01b81523060048201526000906001600160a01b038516906370a0823190602401602060405180830381865afa158015610b8b573d6000803e3d6000fd5b505050506040513d601f19601f82011682018060405250810190610baf9190611b08565b1015610bf15760405162461bcd60e51b81526020600482015260116024820152704e6f6e6520424550323020746f6b656e7360781b6044820152606401610495565b7f00000000000000000000000000000000000000000000000000000000000000006001600160a01b0316836001600160a01b03161415610c825760405162461bcd60e51b815260206004820152602660248201527f594f4320746f6b656e2063616e277420626520616464656420746f206661726d60448201526520706f6f6c7360d01b6064820152608401610495565b8015610c9057610c9061097f565b600654610c9d9085611521565b60065560028054600180820183557f405787fa12a823e0f2b7631cc41b3ba8828b3321ca811111fa75cd3aa3bb5ace90910180546001600160a01b0319166001600160a01b0387169081179091556040805160a081018252600080825243602083019081529282018a8152606083018281528915156080850190815260038054808a018255945293517fc2575a0e9e593c00f959f8c92f12db2869c3395a3b0502d05e2516446f71f85b60059094029384015593517fc2575a0e9e593c00f959f8c92f12db2869c3395a3b0502d05e2516446f71f85c830155517fc2575a0e9e593c00f959f8c92f12db2869c3395a3b0502d05e2516446f71f85d82015591517fc2575a0e9e593c00f959f8c92f12db2869c3395a3b0502d05e2516446f71f85e830155517fc2575a0e9e593c00f959f8c92f12db2869c3395a3b0502d05e2516446f71f85f909101805460ff19169115159190911790559154610e009161148e565b6040805187815285151560208201527f18caa0724a26384928efe604ae6ddc99c242548876259770fc88fcb7e719d8fa910160405180910390a350505050565b60008060038481548110610e5657610e56611a9b565b600091825260208083206040805160a081018252600590940290910180548452600180820154858501908152600280840154878601526003840154606080890191825260049586015460ff16151560808a01528d8a529487528589206001600160a01b038d168a528752978590208551948501865280548552928301549584019590955293015491810191909152825193519151929450929143118015610efc57508015155b15610f6b576000610f1a85602001514361148e90919063ffffffff16565b90506000610f446006546104fd88604001516107ba670de0b6b3a764000060146107b39190611ace565b9050610f66610f5f846104fd84670de0b6b3a76400006114a1565b8590611521565b935050505b610f9c8360200151610f96670de0b6b3a76400006104fd8688600001516114a190919063ffffffff16565b9061148e565b979650505050505050565b610faf611381565b6000610fba836106b5565b6000848152600460209081526040808320338452909152902080549192509015610fe857610fe833856113db565b821561122a5760006002858154811061100357611003611a9b565b6000918252602090912001546040516370a0823160e01b81523060048201526001600160a01b03909116906370a0823190602401602060405180830381865afa158015611054573d6000803e3d6000fd5b505050506040513d601f19601f820116820180604052508101906110789190611b08565b90506110b03330866002898154811061109357611093611a9b565b6000918252602090912001546001600160a01b03169291906115d7565b61113c81600287815481106110c7576110c7611a9b565b6000918252602090912001546040516370a0823160e01b81523060048201526001600160a01b03909116906370a0823190602401602060405180830381865afa158015611118573d6000803e3d6000fd5b505050506040513d601f19601f82011682018060405250810190610f969190611b08565b9350826080015161120057600061115a6103e86104fd8760196114a1565b90506002868154811061116f5761116f611a9b565b60009182526020909120015460055460405163a9059cbb60e01b81526001600160a01b0391821660048201526024810184905291169063a9059cbb906044016020604051808303816000875af11580156111cd573d6000803e3d6000fd5b505050506040513d601f19601f820116820180604052508101906111f19190611ab1565b506111fc858261148e565b9450505b815461120c9085611521565b825542600283015560608301516112239085611521565b6060840152505b8151815461124591670de0b6b3a7640000916104fd916114a1565b8160010181905550816003858154811061126157611261611a9b565b60009182526020918290208351600592909202019081558282015160018201556040808401516002830155606084015160038301556080909301516004909101805460ff19169115159190911790559051848152859133917f90890809c654f11d6e72a28fa60149770a0d11ec6c92319d6ceb2bb0a4ea1a15910161069e565b6112e961152d565b600580546001600160a01b0319166001600160a01b0392909216919091179055565b61131361152d565b6001600160a01b0381166113785760405162461bcd60e51b815260206004820152602660248201527f4f776e61626c653a206e6577206f776e657220697320746865207a65726f206160448201526564647265737360d01b6064820152608401610495565b61097c81611587565b600260015414156113d45760405162461bcd60e51b815260206004820152601f60248201527f5265656e7472616e637947756172643a207265656e7472616e742063616c6c006044820152606401610495565b6002600155565b60008181526004602090815260408083206001600160a01b0386168452825280832081516060810183528154815260018201549381019390935260020154908201526003805491929161146091670de0b6b3a7640000916104fd91908790811061144757611447611a9b565b60009182526020909120600590910201548551906114a1565b9050600061147b83602001518361148e90919063ffffffff16565b90506114878582611615565b5050505050565b600061149a8284611a84565b9392505050565b600061149a8284611ace565b600061149a8284611b21565b6040516001600160a01b03831660248201526044810182905261151c90849063a9059cbb60e01b906064015b60408051601f198184030181529190526020810180516001600160e01b03166001600160e01b0319909316929092179091526116e8565b505050565b600061149a8284611b43565b6000546001600160a01b03163314610afa5760405162461bcd60e51b815260206004820181905260248201527f4f776e61626c653a2063616c6c6572206973206e6f7420746865206f776e65726044820152606401610495565b600080546001600160a01b038381166001600160a01b0319831681178455604051919092169283917f8be0079c531659141344cd1fd0a4f28419497f9722a3daafe3b4186f6b6457e09190a35050565b6040516001600160a01b038085166024830152831660448201526064810182905261160f9085906323b872dd60e01b906084016114e5565b50505050565b80156106b1576040516370a0823160e01b81523060048201526000907f00000000000000000000000000000000000000000000000000000000000000006001600160a01b0316906370a0823190602401602060405180830381865afa158015611682573d6000803e3d6000fd5b505050506040513d601f19601f820116820180604052508101906116a69190611b08565b9050818110156116b4578091505b61151c6001600160a01b037f00000000000000000000000000000000000000000000000000000000000000001684846114b9565b600061173d826040518060400160405280602081526020017f5361666545524332303a206c6f772d6c6576656c2063616c6c206661696c6564815250856001600160a01b03166117ba9092919063ffffffff16565b80519091501561151c578080602001905181019061175b9190611ab1565b61151c5760405162461bcd60e51b815260206004820152602a60248201527f5361666545524332303a204552433230206f7065726174696f6e20646964206e6044820152691bdd081cdd58d8d9595960b21b6064820152608401610495565b60606117c984846000856117d1565b949350505050565b6060824710156118325760405162461bcd60e51b815260206004820152602660248201527f416464726573733a20696e73756666696369656e742062616c616e636520666f6044820152651c8818d85b1b60d21b6064820152608401610495565b600080866001600160a01b0316858760405161184e9190611b87565b60006040518083038185875af1925050503d806000811461188b576040519150601f19603f3d011682016040523d82523d6000602084013e611890565b606091505b5091509150610f9c8783838760608315611908578251611901576001600160a01b0385163b6119015760405162461bcd60e51b815260206004820152601d60248201527f416464726573733a2063616c6c20746f206e6f6e2d636f6e74726163740000006044820152606401610495565b50816117c9565b6117c9838381511561191d5781518083602001fd5b8060405162461bcd60e51b81526004016104959190611ba3565b60006020828403121561194957600080fd5b5035919050565b6000806040838503121561196357600080fd5b50508035926020909101359150565b801515811461097c57600080fd5b60008060006060848603121561199557600080fd5b833592506020840135915060408401356119ae81611972565b809150509250925092565b6001600160a01b038116811461097c57600080fd5b600080604083850312156119e157600080fd5b8235915060208301356119f3816119b9565b809150509250929050565b60008060008060808587031215611a1457600080fd5b843593506020850135611a26816119b9565b92506040850135611a3681611972565b91506060850135611a4681611972565b939692955090935050565b600060208284031215611a6357600080fd5b813561149a816119b9565b634e487b7160e01b600052601160045260246000fd5b600082821015611a9657611a96611a6e565b500390565b634e487b7160e01b600052603260045260246000fd5b600060208284031215611ac357600080fd5b815161149a81611972565b6000816000190483118215151615611ae857611ae8611a6e565b500290565b6000600019821415611b0157611b01611a6e565b5060010190565b600060208284031215611b1a57600080fd5b5051919050565b600082611b3e57634e487b7160e01b600052601260045260246000fd5b500490565b60008219821115611b5657611b56611a6e565b500190565b60005b83811015611b76578181015183820152602001611b5e565b8381111561160f5750506000910152565b60008251611b99818460208701611b5b565b9190910192915050565b6020815260008251806020840152611bc2816040850160208701611b5b565b601f01601f1916919091016040019291505056fea2646970667358221220285dcb80cf55c9c29930901ccff63e7a732712ba3e32845e2d396b7718d5871b64736f6c634300080a0033",
  "linkReferences": {},
  "deployedLinkReferences": {}
}