{
  "_format": "hh-sol-artifact-1",
  "contractName": "YOCMasterChef",
  "sourceName": "contracts/YocFarming.sol",
  "abi": [
    {
      "inputs": [
        {
          "internalType": "contract IYOC",
          "name": "_YOC",
          "type": "address"
        },
        {
          "internalType": "address",
          "name": "_treasury",
          "type": "address"
        }
      ],
      "stateMutability": "nonpayable",
      "type": "constructor"
    },
    {
      "anonymous": false,
      "inputs": [
        {
          "indexed": true,
          "internalType": "uint256",
          "name": "pid",
          "type": "uint256"
        },
        {
          "indexed": false,
          "internalType": "uint256",
          "name": "allocPoint",
          "type": "uint256"
        },
        {
          "indexed": true,
          "internalType": "contract IERC20",
          "name": "lpToken",
          "type": "address"
        },
        {
          "indexed": false,
          "internalType": "bool",
          "name": "isYocPool",
          "type": "bool"
        }
      ],
      "name": "AddPool",
      "type": "event"
    },
    {
      "anonymous": false,
      "inputs": [
        {
          "indexed": false,
          "internalType": "address",
          "name": "user",
          "type": "address"
        },
        {
          "indexed": false,
          "internalType": "bool",
          "name": "isAuthorized",
          "type": "bool"
        }
      ],
      "name": "AuthorizationChanged",
      "type": "event"
    },
    {
      "anonymous": false,
      "inputs": [
        {
          "indexed": true,
          "internalType": "address",
          "name": "user",
          "type": "address"
        },
        {
          "indexed": true,
          "internalType": "uint256",
          "name": "pid",
          "type": "uint256"
        },
        {
          "indexed": false,
          "internalType": "uint256",
          "name": "amount",
          "type": "uint256"
        }
      ],
      "name": "Deposit",
      "type": "event"
    },
    {
      "anonymous": false,
      "inputs": [
        {
          "indexed": true,
          "internalType": "address",
          "name": "user",
          "type": "address"
        },
        {
          "indexed": true,
          "internalType": "uint256",
          "name": "pid",
          "type": "uint256"
        },
        {
          "indexed": false,
          "internalType": "uint256",
          "name": "amount",
          "type": "uint256"
        }
      ],
      "name": "EmergencyWithdraw",
      "type": "event"
    },
    {
      "anonymous": false,
      "inputs": [
        {
          "indexed": true,
          "internalType": "uint256",
          "name": "pid",
          "type": "uint256"
        },
        {
          "indexed": false,
          "internalType": "uint256",
          "name": "allocPoint",
          "type": "uint256"
        }
      ],
      "name": "SetPool",
      "type": "event"
    },
    {
      "anonymous": false,
      "inputs": [
        {
          "indexed": true,
          "internalType": "uint256",
          "name": "pid",
          "type": "uint256"
        },
        {
          "indexed": false,
          "internalType": "uint256",
          "name": "lastRewardBlock",
          "type": "uint256"
        },
        {
          "indexed": false,
          "internalType": "uint256",
          "name": "lpSupply",
          "type": "uint256"
        },
        {
          "indexed": false,
          "internalType": "uint256",
          "name": "accYocPerShare",
          "type": "uint256"
        }
      ],
      "name": "UpdatePool",
      "type": "event"
    },
    {
      "anonymous": false,
      "inputs": [
        {
          "indexed": true,
          "internalType": "address",
          "name": "user",
          "type": "address"
        },
        {
          "indexed": true,
          "internalType": "uint256",
          "name": "pid",
          "type": "uint256"
        },
        {
          "indexed": false,
          "internalType": "uint256",
          "name": "amount",
          "type": "uint256"
        },
        {
          "indexed": false,
          "internalType": "uint256",
          "name": "yocAmount",
          "type": "uint256"
        }
      ],
      "name": "Withdraw",
      "type": "event"
    },
    {
      "inputs": [],
      "name": "ACC_YOC_PRECISION",
      "outputs": [
        {
          "internalType": "uint256",
          "name": "",
          "type": "uint256"
        }
      ],
      "stateMutability": "view",
      "type": "function"
    },
    {
      "inputs": [],
      "name": "DEPOSIT_FEE",
      "outputs": [
        {
          "internalType": "uint256",
          "name": "",
          "type": "uint256"
        }
      ],
      "stateMutability": "view",
      "type": "function"
    },
    {
      "inputs": [],
      "name": "MASTERCHEF_YOC_PER_BLOCK",
      "outputs": [
        {
          "internalType": "uint256",
          "name": "",
          "type": "uint256"
        }
      ],
      "stateMutability": "view",
      "type": "function"
    },
    {
      "inputs": [],
      "name": "MIN_PERIOD",
      "outputs": [
        {
          "internalType": "uint256",
          "name": "",
          "type": "uint256"
        }
      ],
      "stateMutability": "view",
      "type": "function"
    },
    {
      "inputs": [],
      "name": "PERCENT_PRECISION",
      "outputs": [
        {
          "internalType": "uint256",
          "name": "",
          "type": "uint256"
        }
      ],
      "stateMutability": "view",
      "type": "function"
    },
    {
      "inputs": [],
      "name": "WITHDRAW_FEE",
      "outputs": [
        {
          "internalType": "uint256",
          "name": "",
          "type": "uint256"
        }
      ],
      "stateMutability": "view",
      "type": "function"
    },
    {
      "inputs": [],
      "name": "YOC",
      "outputs": [
        {
          "internalType": "contract IYOC",
          "name": "",
          "type": "address"
        }
      ],
      "stateMutability": "view",
      "type": "function"
    },
    {
      "inputs": [
        {
          "internalType": "address",
          "name": "_to",
          "type": "address"
        },
        {
          "internalType": "uint256",
          "name": "_amount",
          "type": "uint256"
        }
      ],
      "name": "_safeTransfer",
      "outputs": [],
      "stateMutability": "nonpayable",
      "type": "function"
    },
    {
      "inputs": [
        {
          "internalType": "uint256",
          "name": "_allocPoint",
          "type": "uint256"
        },
        {
          "internalType": "contract IERC20",
          "name": "_lpToken",
          "type": "address"
        },
        {
          "internalType": "bool",
          "name": "_isYocPool",
          "type": "bool"
        },
        {
          "internalType": "bool",
          "name": "_withUpdate",
          "type": "bool"
        }
      ],
      "name": "add",
      "outputs": [],
      "stateMutability": "nonpayable",
      "type": "function"
    },
    {
      "inputs": [
        {
          "internalType": "address",
          "name": "user",
          "type": "address"
        }
      ],
      "name": "addAuthorizedUser",
      "outputs": [],
      "stateMutability": "nonpayable",
      "type": "function"
    },
    {
      "inputs": [
        {
          "internalType": "address",
          "name": "",
          "type": "address"
        }
      ],
      "name": "authorizedUsers",
      "outputs": [
        {
          "internalType": "bool",
          "name": "",
          "type": "bool"
        }
      ],
      "stateMutability": "view",
      "type": "function"
    },
    {
      "inputs": [
        {
          "internalType": "uint256",
          "name": "_pid",
          "type": "uint256"
        },
        {
          "internalType": "uint256",
          "name": "_amount",
          "type": "uint256"
        }
      ],
      "name": "deposit",
      "outputs": [],
      "stateMutability": "nonpayable",
      "type": "function"
    },
    {
      "inputs": [
        {
          "internalType": "uint256",
          "name": "_pid",
          "type": "uint256"
        }
      ],
      "name": "emergencyWithdraw",
      "outputs": [],
      "stateMutability": "nonpayable",
      "type": "function"
    },
    {
      "inputs": [
        {
          "internalType": "uint256",
          "name": "",
          "type": "uint256"
        }
      ],
      "name": "lpToken",
      "outputs": [
        {
          "internalType": "contract IERC20",
          "name": "",
          "type": "address"
        }
      ],
      "stateMutability": "view",
      "type": "function"
    },
    {
      "inputs": [],
      "name": "massUpdatePools",
      "outputs": [],
      "stateMutability": "nonpayable",
      "type": "function"
    },
    {
      "inputs": [],
      "name": "owner",
      "outputs": [
        {
          "internalType": "address",
          "name": "",
          "type": "address"
        }
      ],
      "stateMutability": "view",
      "type": "function"
    },
    {
      "inputs": [
        {
          "internalType": "uint256",
          "name": "_pid",
          "type": "uint256"
        },
        {
          "internalType": "address",
          "name": "_user",
          "type": "address"
        }
      ],
      "name": "pendingYOC",
      "outputs": [
        {
          "internalType": "uint256",
          "name": "",
          "type": "uint256"
        }
      ],
      "stateMutability": "view",
      "type": "function"
    },
    {
      "inputs": [
        {
          "internalType": "uint256",
          "name": "",
          "type": "uint256"
        }
      ],
      "name": "poolInfo",
      "outputs": [
        {
          "internalType": "uint256",
          "name": "accYocPerShare",
          "type": "uint256"
        },
        {
          "internalType": "uint256",
          "name": "lastRewardBlock",
          "type": "uint256"
        },
        {
          "internalType": "uint256",
          "name": "allocPoint",
          "type": "uint256"
        },
        {
          "internalType": "uint256",
          "name": "totalShare",
          "type": "uint256"
        },
        {
          "internalType": "bool",
          "name": "isYocPool",
          "type": "bool"
        }
      ],
      "stateMutability": "view",
      "type": "function"
    },
    {
      "inputs": [],
      "name": "poolLength",
      "outputs": [
        {
          "internalType": "uint256",
          "name": "pools",
          "type": "uint256"
        }
      ],
      "stateMutability": "view",
      "type": "function"
    },
    {
      "inputs": [
        {
          "internalType": "address",
          "name": "user",
          "type": "address"
        }
      ],
      "name": "removeAuthorizedUser",
      "outputs": [],
      "stateMutability": "nonpayable",
      "type": "function"
    },
    {
      "inputs": [
        {
          "internalType": "uint256",
          "name": "_pid",
          "type": "uint256"
        },
        {
          "internalType": "uint256",
          "name": "_allocPoint",
          "type": "uint256"
        },
        {
          "internalType": "bool",
          "name": "_withUpdate",
          "type": "bool"
        }
      ],
      "name": "set",
      "outputs": [],
      "stateMutability": "nonpayable",
      "type": "function"
    },
    {
      "inputs": [
        {
          "internalType": "address",
          "name": "_treasury",
          "type": "address"
        }
      ],
      "name": "setTreasury",
      "outputs": [],
      "stateMutability": "nonpayable",
      "type": "function"
    },
    {
      "inputs": [],
      "name": "totalAllocPoint",
      "outputs": [
        {
          "internalType": "uint256",
          "name": "",
          "type": "uint256"
        }
      ],
      "stateMutability": "view",
      "type": "function"
    },
    {
      "inputs": [],
      "name": "treasury",
      "outputs": [
        {
          "internalType": "address",
          "name": "",
          "type": "address"
        }
      ],
      "stateMutability": "view",
      "type": "function"
    },
    {
      "inputs": [],
      "name": "treasuryFee",
      "outputs": [
        {
          "internalType": "uint256",
          "name": "",
          "type": "uint256"
        }
      ],
      "stateMutability": "view",
      "type": "function"
    },
    {
      "inputs": [
        {
          "internalType": "uint256",
          "name": "_pid",
          "type": "uint256"
        }
      ],
      "name": "updatePool",
      "outputs": [
        {
          "components": [
            {
              "internalType": "uint256",
              "name": "accYocPerShare",
              "type": "uint256"
            },
            {
              "internalType": "uint256",
              "name": "lastRewardBlock",
              "type": "uint256"
            },
            {
              "internalType": "uint256",
              "name": "allocPoint",
              "type": "uint256"
            },
            {
              "internalType": "uint256",
              "name": "totalShare",
              "type": "uint256"
            },
            {
              "internalType": "bool",
              "name": "isYocPool",
              "type": "bool"
            }
          ],
          "internalType": "struct YOCMasterChef.PoolInfo",
          "name": "pool",
          "type": "tuple"
        }
      ],
      "stateMutability": "nonpayable",
      "type": "function"
    },
    {
      "inputs": [
        {
          "internalType": "uint256",
          "name": "",
          "type": "uint256"
        },
        {
          "internalType": "address",
          "name": "",
          "type": "address"
        }
      ],
      "name": "userInfo",
      "outputs": [
        {
          "internalType": "uint256",
          "name": "amount",
          "type": "uint256"
        },
        {
          "internalType": "uint256",
          "name": "rewardDebt",
          "type": "uint256"
        },
        {
          "internalType": "uint256",
          "name": "lastDepositTimestamp",
          "type": "uint256"
        }
      ],
      "stateMutability": "view",
      "type": "function"
    },
    {
      "inputs": [
        {
          "internalType": "uint256",
          "name": "_pid",
          "type": "uint256"
        },
        {
          "internalType": "uint256",
          "name": "_amount",
          "type": "uint256"
        }
      ],
      "name": "withdraw",
      "outputs": [],
      "stateMutability": "nonpayable",
      "type": "function"
    },
    {
      "inputs": [
        {
          "internalType": "uint256",
          "name": "_pid",
          "type": "uint256"
        }
      ],
      "name": "withdrawAll",
      "outputs": [],
      "stateMutability": "nonpayable",
      "type": "function"
    }
  ],
  "bytecode": "0x60a06040523480156200001157600080fd5b5060405162001ee738038062001ee78339810160408190526200003491620000a7565b600080546001600160a01b03199081163390811783558252600160208190526040909220805460ff1916831790556002919091556001600160a01b03928316608052600680549290931691161790556014600755620000e6565b6001600160a01b0381168114620000a457600080fd5b50565b60008060408385031215620000bb57600080fd5b8251620000c8816200008e565b6020840151909250620000db816200008e565b809150509250929050565b608051611dd7620001106000396000818161047301528181610da20152610ef20152611dd76000f3fe608060405234801561001057600080fd5b50600436106101cf5760003560e01c80638da5cb5b11610104578063c507aeaa116100a2578063e2bbb15811610071578063e2bbb15814610448578063f0f442601461045b578063fd01ea9f1461046e578063ffe8e3721461049557600080fd5b8063c507aeaa14610419578063cc32d1761461042c578063d3c1e6ae14610435578063de363e65146103e557600080fd5b80639bff5ddb116100de5780639bff5ddb146103e5578063b27ac6ca146103ed578063bbccf154146103fc578063c4f8210e1461040657600080fd5b80638da5cb5b1461036a57806393f1a40b1461037d578063958e2d31146103d257600080fd5b80635312ea8e1161017157806364482f791161014b57806364482f791461032957806378ed5d1f1461033c57806384bc3c1c1461034f57806389fabc801461035757600080fd5b80635312ea8e146102e357806361d027b3146102f6578063630b5ba11461032157600080fd5b806317caf6f1116101ad57806317caf6f11461023d5780631828983a14610246578063441a3e701461027957806351eb05a61461028c57600080fd5b8063081e3eda146101d45780631526fe27146101eb578063177d2a7414610228575b600080fd5b6004545b6040519081526020015b60405180910390f35b6101fe6101f9366004611aae565b61049e565b6040805195865260208601949094529284019190915260608301521515608082015260a0016101e2565b61023b610236366004611adc565b6104e2565b005b6101d860085481565b610269610254366004611adc565b60016020526000908152604090205460ff1681565b60405190151581526020016101e2565b61023b610287366004611af9565b610577565b61029f61029a366004611aae565b610817565b6040516101e29190600060a0820190508251825260208301516020830152604083015160408301526060830151606083015260808301511515608083015292915050565b61023b6102f1366004611aae565b610a1c565b600654610309906001600160a01b031681565b6040516001600160a01b0390911681526020016101e2565b61023b610af9565b61023b610337366004611b29565b610b91565b61030961034a366004611aae565b610c89565b6101d8610cb3565b61023b610365366004611adc565b610cca565b600054610309906001600160a01b031681565b6103b761038b366004611b62565b600560209081526000928352604080842090915290825290208054600182015460029092015490919083565b604080519384526020840192909252908201526060016101e2565b61023b6103e0366004611aae565b610d50565b6101d8601381565b6101d8670de0b6b3a764000081565b6101d862093a8081565b61023b610414366004611b92565b610d76565b61023b610427366004611bbe565b610e14565b6101d860075481565b6101d8610443366004611b62565b611140565b61023b610456366004611af9565b6112a5565b61023b610469366004611adc565b6115f0565b6103097f000000000000000000000000000000000000000000000000000000000000000081565b6101d861271081565b600481815481106104ae57600080fd5b6000918252602090912060059091020180546001820154600283015460038401546004909401549294509092909160ff1685565b3360009081526001602052604090205460ff1661051a5760405162461bcd60e51b815260040161051190611c11565b60405180910390fd5b6001600160a01b038116600081815260016020818152604092839020805460ff19168317905582519384528301527f5fe3a0cb9aeae856eac34445ace9544f3e15c21fa6f9bffeca60d662a690ca1b91015b60405180910390a150565b61057f611641565b600061058a83610817565b600084815260056020908152604080832033845290915290208054919250908311156105f15760405162461bcd60e51b81526020600482015260166024820152751dda5d1a191c985dce88125b9cdd59999a58da595b9d60521b6044820152606401610511565b60006105fd3386611699565b905083156107375781546106119085611787565b8255600282015484906000906106279042611c4f565b90508460800151801561063c575062093a8081105b1561070057600061065a61271061065489601361179a565b906117a6565b90506003888154811061066f5761066f611c66565b60009182526020909120015460065460405163a9059cbb60e01b81526001600160a01b0391821660048201526024810184905291169063a9059cbb906044016020604051808303816000875af11580156106cd573d6000803e3d6000fd5b505050506040513d601f19601f820116820180604052508101906106f19190611c7c565b506106fc8782611787565b9250505b610734338360038a8154811061071857610718611c66565b6000918252602090912001546001600160a01b031691906117b2565b50505b8251825461075291670de0b6b3a7640000916106549161179a565b8260010181905550610791846004878154811061077157610771611c66565b90600052602060002090600502016003015461178790919063ffffffff16565b600486815481106107a4576107a4611c66565b90600052602060002090600502016003018190555084336001600160a01b03167f02f25270a4d87bea75db541cdfe559334a275b4a233520ed6c0a2429667cca9486846040516107fe929190918252602082015260400190565b60405180910390a35050506108136001600255565b5050565b61084b6040518060a00160405280600081526020016000815260200160008152602001600081526020016000151581525090565b6004828154811061085e5761085e611c66565b60009182526020918290206040805160a0810182526005909302909101805483526001810154938301849052600281015491830191909152600381015460608301526004015460ff16151560808201529150431115610a1757606081015180158015906108cd57506000600854115b156109625760006108eb83602001514361178790919063ffffffff16565b90506000610923600854610654866040015161091d670de0b6b3a7640000614e206109169190611c99565b879061179a565b9061179a565b905061095d6109556064610654600754606461093f9190611c4f565b61091d8861065488670de0b6b3a764000061179a565b855190611815565b845250505b436020830152600480548391908590811061097f5761097f611c66565b6000918252602091829020835160059290920201908155828201516001820155604080840151600283015560608085015160038401556080909401516004909201805460ff19169215159290921790915584820151855182519182529281018590529081019190915284917f3be3541fc42237d611b30329040bfa4569541d156560acdbbae57640d20b8f46910160405180910390a2505b919050565b610a24611641565b600060048281548110610a3957610a39611c66565b600091825260208083208584526005808352604080862033875290935291842080548582556001820195909555929091020160038101549093509091908110610a83576000610a92565b6003830154610a929082611787565b8360030181905550610ab233826003878154811061071857610718611c66565b604051818152849033907fbb757047c2b5f3974fe26b7c10f732e7bce710b0952a71082702781e62ae05959060200160405180910390a3505050610af66001600255565b50565b60045460005b8181101561081357600060048281548110610b1c57610b1c611c66565b60009182526020918290206040805160a08101825260059093029091018054835260018101549383019390935260028301549082018190526003830154606083015260049092015460ff1615156080820152915015610b8057610b7e82610817565b505b50610b8a81611cb8565b9050610aff565b3360009081526001602052604090205460ff16610bc05760405162461bcd60e51b815260040161051190611c11565b610bc983610817565b508015610bd857610bd8610af9565b610c1b82610c1560048681548110610bf257610bf2611c66565b90600052602060002090600502016002015460085461178790919063ffffffff16565b90611815565b6008819055508160048481548110610c3557610c35611c66565b906000526020600020906005020160020181905550827fc0cfd54d2de2b55f1e6e108d3ec53ff0a1abe6055401d32c61e9433b747ef9f883604051610c7c91815260200190565b60405180910390a2505050565b60038181548110610c9957600080fd5b6000918252602090912001546001600160a01b0316905081565b610cc7670de0b6b3a7640000614e20611c99565b81565b3360009081526001602052604090205460ff16610cf95760405162461bcd60e51b815260040161051190611c11565b6001600160a01b0381166000818152600160209081526040808320805460ff191690558051938452908301919091527f5fe3a0cb9aeae856eac34445ace9544f3e15c21fa6f9bffeca60d662a690ca1b910161056c565b600081815260056020908152604080832033845290915290208054610813908390610577565b8015610813576040516340c10f1960e01b81526001600160a01b038381166004830152602482018390527f000000000000000000000000000000000000000000000000000000000000000016906340c10f19906044016020604051808303816000875af1158015610deb573d6000803e3d6000fd5b505050506040513d601f19601f82011682018060405250810190610e0f9190611c7c565b505050565b3360009081526001602052604090205460ff16610e435760405162461bcd60e51b815260040161051190611c11565b6040516370a0823160e01b81523060048201526000906001600160a01b038516906370a0823190602401602060405180830381865afa158015610e8a573d6000803e3d6000fd5b505050506040513d601f19601f82011682018060405250810190610eae9190611cd3565b1015610ef05760405162461bcd60e51b81526020600482015260116024820152704e6f6e6520424550323020746f6b656e7360781b6044820152606401610511565b7f00000000000000000000000000000000000000000000000000000000000000006001600160a01b0316836001600160a01b03161415610f815760405162461bcd60e51b815260206004820152602660248201527f594f4320746f6b656e2063616e277420626520616464656420746f206661726d60448201526520706f6f6c7360d01b6064820152608401610511565b8015610f8f57610f8f610af9565b600854610f9c9085611815565b60085560038054600180820183557fc2575a0e9e593c00f959f8c92f12db2869c3395a3b0502d05e2516446f71f85b90910180546001600160a01b0319166001600160a01b0387169081179091556040805160a081018252600080825243602083019081529282018a8152606083018281528915156080850190815260048054808a018255945293517f8a35acfbc15ff81a39ae7d344fd709f28e8600b4aa8c65c6b64bfe7fe36bd19b6005949094029384015593517f8a35acfbc15ff81a39ae7d344fd709f28e8600b4aa8c65c6b64bfe7fe36bd19c830155517f8a35acfbc15ff81a39ae7d344fd709f28e8600b4aa8c65c6b64bfe7fe36bd19d82015591517f8a35acfbc15ff81a39ae7d344fd709f28e8600b4aa8c65c6b64bfe7fe36bd19e830155517f8a35acfbc15ff81a39ae7d344fd709f28e8600b4aa8c65c6b64bfe7fe36bd19f909101805460ff1916911515919091179055915461110091611787565b6040805187815285151560208201527f18caa0724a26384928efe604ae6ddc99c242548876259770fc88fcb7e719d8fa910160405180910390a350505050565b6000806004848154811061115657611156611c66565b600091825260208083206040805160a081018252600594850290920180548352600180820154848601908152600280840154868601526003840154606080880191825260049095015460ff16151560808801528d8a529787528489206001600160a01b038d168a52875297849020845193840185528054845291820154958301959095529095015490850152805192519151909450431180156111f857508015155b1561126957600061121685602001514361178790919063ffffffff16565b90506000611241600854610654886040015161091d670de0b6b3a7640000614e206109169190611c99565b905061126461125d6064610654600754606461093f9190611c4f565b8590611815565b935050505b61129a8360200151611294670de0b6b3a764000061065486886000015161179a90919063ffffffff16565b90611787565b979650505050505050565b6112ad611641565b60006112b883610817565b60008481526005602090815260408083203384529091529020805491925090156112e8576112e63385611699565b505b821561152a5760006003858154811061130357611303611c66565b6000918252602090912001546040516370a0823160e01b81523060048201526001600160a01b03909116906370a0823190602401602060405180830381865afa158015611354573d6000803e3d6000fd5b505050506040513d601f19601f820116820180604052508101906113789190611cd3565b90506113b03330866003898154811061139357611393611c66565b6000918252602090912001546001600160a01b0316929190611821565b61143c81600387815481106113c7576113c7611c66565b6000918252602090912001546040516370a0823160e01b81523060048201526001600160a01b03909116906370a0823190602401602060405180830381865afa158015611418573d6000803e3d6000fd5b505050506040513d601f19601f820116820180604052508101906112949190611cd3565b9350826080015161150057600061145a61271061065487601361179a565b90506003868154811061146f5761146f611c66565b60009182526020909120015460065460405163a9059cbb60e01b81526001600160a01b0391821660048201526024810184905291169063a9059cbb906044016020604051808303816000875af11580156114cd573d6000803e3d6000fd5b505050506040513d601f19601f820116820180604052508101906114f19190611c7c565b506114fc8582611787565b9450505b815461150c9085611815565b825542600283015560608301516115239085611815565b6060840152505b8151815461154591670de0b6b3a7640000916106549161179a565b8160010181905550816004858154811061156157611561611c66565b60009182526020918290208351600592909202019081558282015160018201556040808401516002830155606084015160038301556080909301516004909101805460ff19169115159190911790559051848152859133917f90890809c654f11d6e72a28fa60149770a0d11ec6c92319d6ceb2bb0a4ea1a15910160405180910390a350506108136001600255565b3360009081526001602052604090205460ff1661161f5760405162461bcd60e51b815260040161051190611c11565b600680546001600160a01b0319166001600160a01b0392909216919091179055565b6002805414156116935760405162461bcd60e51b815260206004820152601f60248201527f5265656e7472616e637947756172643a207265656e7472616e742063616c6c006044820152606401610511565b60028055565b60008181526005602090815260408083206001600160a01b03861684528252808320815160608101835281548152600182015493810193909352600201549082015260048054839161171c91670de0b6b3a764000091610654918890811061170357611703611c66565b600091825260209091206005909102015485519061179a565b9050600061173783602001518361178790919063ffffffff16565b9050600061175b600754606461174d9190611c4f565b60075461065490859061179a565b90506117678783610d76565b60065461177d906001600160a01b031682610d76565b5095945050505050565b60006117938284611c4f565b9392505050565b60006117938284611c99565b60006117938284611cec565b6040516001600160a01b038316602482015260448101829052610e0f90849063a9059cbb60e01b906064015b60408051601f198184030181529190526020810180516001600160e01b03166001600160e01b03199093169290921790915261185f565b60006117938284611d0e565b6040516001600160a01b03808516602483015283166044820152606481018290526118599085906323b872dd60e01b906084016117de565b50505050565b60006118b4826040518060400160405280602081526020017f5361666545524332303a206c6f772d6c6576656c2063616c6c206661696c6564815250856001600160a01b03166119319092919063ffffffff16565b805190915015610e0f57808060200190518101906118d29190611c7c565b610e0f5760405162461bcd60e51b815260206004820152602a60248201527f5361666545524332303a204552433230206f7065726174696f6e20646964206e6044820152691bdd081cdd58d8d9595960b21b6064820152608401610511565b60606119408484600085611948565b949350505050565b6060824710156119a95760405162461bcd60e51b815260206004820152602660248201527f416464726573733a20696e73756666696369656e742062616c616e636520666f6044820152651c8818d85b1b60d21b6064820152608401610511565b600080866001600160a01b031685876040516119c59190611d52565b60006040518083038185875af1925050503d8060008114611a02576040519150601f19603f3d011682016040523d82523d6000602084013e611a07565b606091505b509150915061129a8783838760608315611a7f578251611a78576001600160a01b0385163b611a785760405162461bcd60e51b815260206004820152601d60248201527f416464726573733a2063616c6c20746f206e6f6e2d636f6e74726163740000006044820152606401610511565b5081611940565b6119408383815115611a945781518083602001fd5b8060405162461bcd60e51b81526004016105119190611d6e565b600060208284031215611ac057600080fd5b5035919050565b6001600160a01b0381168114610af657600080fd5b600060208284031215611aee57600080fd5b813561179381611ac7565b60008060408385031215611b0c57600080fd5b50508035926020909101359150565b8015158114610af657600080fd5b600080600060608486031215611b3e57600080fd5b83359250602084013591506040840135611b5781611b1b565b809150509250925092565b60008060408385031215611b7557600080fd5b823591506020830135611b8781611ac7565b809150509250929050565b60008060408385031215611ba557600080fd5b8235611bb081611ac7565b946020939093013593505050565b60008060008060808587031215611bd457600080fd5b843593506020850135611be681611ac7565b92506040850135611bf681611b1b565b91506060850135611c0681611b1b565b939692955090935050565b6020808252600e908201526d139bdd08185d5d1a1bdc9a5e995960921b604082015260600190565b634e487b7160e01b600052601160045260246000fd5b600082821015611c6157611c61611c39565b500390565b634e487b7160e01b600052603260045260246000fd5b600060208284031215611c8e57600080fd5b815161179381611b1b565b6000816000190483118215151615611cb357611cb3611c39565b500290565b6000600019821415611ccc57611ccc611c39565b5060010190565b600060208284031215611ce557600080fd5b5051919050565b600082611d0957634e487b7160e01b600052601260045260246000fd5b500490565b60008219821115611d2157611d21611c39565b500190565b60005b83811015611d41578181015183820152602001611d29565b838111156118595750506000910152565b60008251611d64818460208701611d26565b9190910192915050565b6020815260008251806020840152611d8d816040850160208701611d26565b601f01601f1916919091016040019291505056fea2646970667358221220a8d372972db036e8e7e675ad3480e50a6a9534e1ed6bfdca41ffe5ff89ab612964736f6c634300080a0033",
  "linkReferences": {},
  "deployedLinkReferences": {}
}