{
  "_format": "hh-sol-artifact-1",
  "contractName": "YOCMasterChef",
  "sourceName": "contracts/YocFarming.sol",
  "abi": [
    {
      "inputs": [
        {
          "internalType": "contract IYOC",
          "name": "_YOC",
          "type": "address"
        },
        {
          "internalType": "address",
          "name": "_treasury",
          "type": "address"
        }
      ],
      "stateMutability": "nonpayable",
      "type": "constructor"
    },
    {
      "anonymous": false,
      "inputs": [
        {
          "indexed": true,
          "internalType": "uint256",
          "name": "pid",
          "type": "uint256"
        },
        {
          "indexed": false,
          "internalType": "uint256",
          "name": "allocPoint",
          "type": "uint256"
        },
        {
          "indexed": true,
          "internalType": "contract IERC20",
          "name": "lpToken",
          "type": "address"
        },
        {
          "indexed": false,
          "internalType": "bool",
          "name": "isYocPool",
          "type": "bool"
        }
      ],
      "name": "AddPool",
      "type": "event"
    },
    {
      "anonymous": false,
      "inputs": [
        {
          "indexed": true,
          "internalType": "address",
          "name": "user",
          "type": "address"
        },
        {
          "indexed": true,
          "internalType": "uint256",
          "name": "pid",
          "type": "uint256"
        },
        {
          "indexed": false,
          "internalType": "uint256",
          "name": "amount",
          "type": "uint256"
        }
      ],
      "name": "Deposit",
      "type": "event"
    },
    {
      "anonymous": false,
      "inputs": [
        {
          "indexed": true,
          "internalType": "address",
          "name": "user",
          "type": "address"
        },
        {
          "indexed": true,
          "internalType": "uint256",
          "name": "pid",
          "type": "uint256"
        },
        {
          "indexed": false,
          "internalType": "uint256",
          "name": "amount",
          "type": "uint256"
        }
      ],
      "name": "EmergencyWithdraw",
      "type": "event"
    },
    {
      "anonymous": false,
      "inputs": [
        {
          "indexed": true,
          "internalType": "address",
          "name": "previousOwner",
          "type": "address"
        },
        {
          "indexed": true,
          "internalType": "address",
          "name": "newOwner",
          "type": "address"
        }
      ],
      "name": "OwnershipTransferred",
      "type": "event"
    },
    {
      "anonymous": false,
      "inputs": [
        {
          "indexed": true,
          "internalType": "uint256",
          "name": "pid",
          "type": "uint256"
        },
        {
          "indexed": false,
          "internalType": "uint256",
          "name": "allocPoint",
          "type": "uint256"
        }
      ],
      "name": "SetPool",
      "type": "event"
    },
    {
      "anonymous": false,
      "inputs": [
        {
          "indexed": true,
          "internalType": "uint256",
          "name": "pid",
          "type": "uint256"
        },
        {
          "indexed": false,
          "internalType": "uint256",
          "name": "lastRewardBlock",
          "type": "uint256"
        },
        {
          "indexed": false,
          "internalType": "uint256",
          "name": "lpSupply",
          "type": "uint256"
        },
        {
          "indexed": false,
          "internalType": "uint256",
          "name": "accYocPerShare",
          "type": "uint256"
        }
      ],
      "name": "UpdatePool",
      "type": "event"
    },
    {
      "anonymous": false,
      "inputs": [
        {
          "indexed": true,
          "internalType": "address",
          "name": "user",
          "type": "address"
        },
        {
          "indexed": true,
          "internalType": "uint256",
          "name": "pid",
          "type": "uint256"
        },
        {
          "indexed": false,
          "internalType": "uint256",
          "name": "amount",
          "type": "uint256"
        },
        {
          "indexed": false,
          "internalType": "uint256",
          "name": "yocAmount",
          "type": "uint256"
        }
      ],
      "name": "Withdraw",
      "type": "event"
    },
    {
      "inputs": [],
      "name": "ACC_YOC_PRECISION",
      "outputs": [
        {
          "internalType": "uint256",
          "name": "",
          "type": "uint256"
        }
      ],
      "stateMutability": "view",
      "type": "function"
    },
    {
      "inputs": [],
      "name": "DEPOSIT_FEE",
      "outputs": [
        {
          "internalType": "uint256",
          "name": "",
          "type": "uint256"
        }
      ],
      "stateMutability": "view",
      "type": "function"
    },
    {
      "inputs": [],
      "name": "MASTERCHEF_YOC_PER_BLOCK",
      "outputs": [
        {
          "internalType": "uint256",
          "name": "",
          "type": "uint256"
        }
      ],
      "stateMutability": "view",
      "type": "function"
    },
    {
      "inputs": [],
      "name": "MIN_PERIOD",
      "outputs": [
        {
          "internalType": "uint256",
          "name": "",
          "type": "uint256"
        }
      ],
      "stateMutability": "view",
      "type": "function"
    },
    {
      "inputs": [],
      "name": "PERCENT_PRECISION",
      "outputs": [
        {
          "internalType": "uint256",
          "name": "",
          "type": "uint256"
        }
      ],
      "stateMutability": "view",
      "type": "function"
    },
    {
      "inputs": [],
      "name": "WITHDRAW_FEE",
      "outputs": [
        {
          "internalType": "uint256",
          "name": "",
          "type": "uint256"
        }
      ],
      "stateMutability": "view",
      "type": "function"
    },
    {
      "inputs": [],
      "name": "YOC",
      "outputs": [
        {
          "internalType": "contract IYOC",
          "name": "",
          "type": "address"
        }
      ],
      "stateMutability": "view",
      "type": "function"
    },
    {
      "inputs": [
        {
          "internalType": "address",
          "name": "_to",
          "type": "address"
        },
        {
          "internalType": "uint256",
          "name": "_amount",
          "type": "uint256"
        }
      ],
      "name": "_safeTransfer",
      "outputs": [],
      "stateMutability": "nonpayable",
      "type": "function"
    },
    {
      "inputs": [
        {
          "internalType": "uint256",
          "name": "_allocPoint",
          "type": "uint256"
        },
        {
          "internalType": "contract IERC20",
          "name": "_lpToken",
          "type": "address"
        },
        {
          "internalType": "bool",
          "name": "_isYocPool",
          "type": "bool"
        },
        {
          "internalType": "bool",
          "name": "_withUpdate",
          "type": "bool"
        }
      ],
      "name": "add",
      "outputs": [],
      "stateMutability": "nonpayable",
      "type": "function"
    },
    {
      "inputs": [
        {
          "internalType": "uint256",
          "name": "_pid",
          "type": "uint256"
        },
        {
          "internalType": "uint256",
          "name": "_amount",
          "type": "uint256"
        }
      ],
      "name": "deposit",
      "outputs": [],
      "stateMutability": "nonpayable",
      "type": "function"
    },
    {
      "inputs": [
        {
          "internalType": "uint256",
          "name": "_pid",
          "type": "uint256"
        }
      ],
      "name": "emergencyWithdraw",
      "outputs": [],
      "stateMutability": "nonpayable",
      "type": "function"
    },
    {
      "inputs": [
        {
          "internalType": "uint256",
          "name": "",
          "type": "uint256"
        }
      ],
      "name": "lpToken",
      "outputs": [
        {
          "internalType": "contract IERC20",
          "name": "",
          "type": "address"
        }
      ],
      "stateMutability": "view",
      "type": "function"
    },
    {
      "inputs": [],
      "name": "massUpdatePools",
      "outputs": [],
      "stateMutability": "nonpayable",
      "type": "function"
    },
    {
      "inputs": [],
      "name": "owner",
      "outputs": [
        {
          "internalType": "address",
          "name": "",
          "type": "address"
        }
      ],
      "stateMutability": "view",
      "type": "function"
    },
    {
      "inputs": [
        {
          "internalType": "uint256",
          "name": "_pid",
          "type": "uint256"
        },
        {
          "internalType": "address",
          "name": "_user",
          "type": "address"
        }
      ],
      "name": "pendingYOC",
      "outputs": [
        {
          "internalType": "uint256",
          "name": "",
          "type": "uint256"
        }
      ],
      "stateMutability": "view",
      "type": "function"
    },
    {
      "inputs": [
        {
          "internalType": "uint256",
          "name": "",
          "type": "uint256"
        }
      ],
      "name": "poolInfo",
      "outputs": [
        {
          "internalType": "uint256",
          "name": "accYocPerShare",
          "type": "uint256"
        },
        {
          "internalType": "uint256",
          "name": "lastRewardBlock",
          "type": "uint256"
        },
        {
          "internalType": "uint256",
          "name": "allocPoint",
          "type": "uint256"
        },
        {
          "internalType": "uint256",
          "name": "totalShare",
          "type": "uint256"
        },
        {
          "internalType": "bool",
          "name": "isYocPool",
          "type": "bool"
        }
      ],
      "stateMutability": "view",
      "type": "function"
    },
    {
      "inputs": [],
      "name": "poolLength",
      "outputs": [
        {
          "internalType": "uint256",
          "name": "pools",
          "type": "uint256"
        }
      ],
      "stateMutability": "view",
      "type": "function"
    },
    {
      "inputs": [],
      "name": "renounceOwnership",
      "outputs": [],
      "stateMutability": "nonpayable",
      "type": "function"
    },
    {
      "inputs": [
        {
          "internalType": "uint256",
          "name": "_pid",
          "type": "uint256"
        },
        {
          "internalType": "uint256",
          "name": "_allocPoint",
          "type": "uint256"
        },
        {
          "internalType": "bool",
          "name": "_withUpdate",
          "type": "bool"
        }
      ],
      "name": "set",
      "outputs": [],
      "stateMutability": "nonpayable",
      "type": "function"
    },
    {
      "inputs": [
        {
          "internalType": "address",
          "name": "_treasury",
          "type": "address"
        }
      ],
      "name": "setTreasury",
      "outputs": [],
      "stateMutability": "nonpayable",
      "type": "function"
    },
    {
      "inputs": [],
      "name": "totalAllocPoint",
      "outputs": [
        {
          "internalType": "uint256",
          "name": "",
          "type": "uint256"
        }
      ],
      "stateMutability": "view",
      "type": "function"
    },
    {
      "inputs": [
        {
          "internalType": "address",
          "name": "newOwner",
          "type": "address"
        }
      ],
      "name": "transferOwnership",
      "outputs": [],
      "stateMutability": "nonpayable",
      "type": "function"
    },
    {
      "inputs": [],
      "name": "treasury",
      "outputs": [
        {
          "internalType": "address",
          "name": "",
          "type": "address"
        }
      ],
      "stateMutability": "view",
      "type": "function"
    },
    {
      "inputs": [
        {
          "internalType": "uint256",
          "name": "_pid",
          "type": "uint256"
        }
      ],
      "name": "updatePool",
      "outputs": [
        {
          "components": [
            {
              "internalType": "uint256",
              "name": "accYocPerShare",
              "type": "uint256"
            },
            {
              "internalType": "uint256",
              "name": "lastRewardBlock",
              "type": "uint256"
            },
            {
              "internalType": "uint256",
              "name": "allocPoint",
              "type": "uint256"
            },
            {
              "internalType": "uint256",
              "name": "totalShare",
              "type": "uint256"
            },
            {
              "internalType": "bool",
              "name": "isYocPool",
              "type": "bool"
            }
          ],
          "internalType": "struct YOCMasterChef.PoolInfo",
          "name": "pool",
          "type": "tuple"
        }
      ],
      "stateMutability": "nonpayable",
      "type": "function"
    },
    {
      "inputs": [
        {
          "internalType": "uint256",
          "name": "",
          "type": "uint256"
        },
        {
          "internalType": "address",
          "name": "",
          "type": "address"
        }
      ],
      "name": "userInfo",
      "outputs": [
        {
          "internalType": "uint256",
          "name": "amount",
          "type": "uint256"
        },
        {
          "internalType": "uint256",
          "name": "rewardDebt",
          "type": "uint256"
        },
        {
          "internalType": "uint256",
          "name": "lastDepositTimestamp",
          "type": "uint256"
        }
      ],
      "stateMutability": "view",
      "type": "function"
    },
    {
      "inputs": [
        {
          "internalType": "uint256",
          "name": "_pid",
          "type": "uint256"
        },
        {
          "internalType": "uint256",
          "name": "_amount",
          "type": "uint256"
        }
      ],
      "name": "withdraw",
      "outputs": [],
      "stateMutability": "nonpayable",
      "type": "function"
    }
  ],
  "bytecode": "0x60a06040523480156200001157600080fd5b5060405162001d8338038062001d838339810160408190526200003491620000d5565b6200003f336200006c565b600180556001600160a01b03918216608052600580546001600160a01b0319169190921617905562000114565b600080546001600160a01b038381166001600160a01b0319831681178455604051919092169283917f8be0079c531659141344cd1fd0a4f28419497f9722a3daafe3b4186f6b6457e09190a35050565b6001600160a01b0381168114620000d257600080fd5b50565b60008060408385031215620000e957600080fd5b8251620000f681620000bc565b60208401519092506200010981620000bc565b809150509250929050565b608051611c456200013e600039600081816103d601528181610b9e0152610cc70152611c456000f3fe608060405234801561001057600080fd5b506004361061018e5760003560e01c806393f1a40b116100de578063d3c1e6ae11610097578063f0f4426011610071578063f0f44260146103ab578063f2fde38b146103be578063fd01ea9f146103d1578063ffe8e372146103f857600080fd5b8063d3c1e6ae14610385578063de363e651461033e578063e2bbb1581461039857600080fd5b806393f1a40b146102e95780639bff5ddb1461033e578063b27ac6ca14610346578063bbccf15414610355578063c4f8210e1461035f578063c507aeaa1461037257600080fd5b806361d027b31161014b578063715018a611610125578063715018a6146102b557806378ed5d1f146102bd57806384bc3c1c146102d05780638da5cb5b146102d857600080fd5b806361d027b31461026f578063630b5ba11461029a57806364482f79146102a257600080fd5b8063081e3eda146101935780631526fe27146101aa57806317caf6f1146101e7578063441a3e70146101f057806351eb05a6146102055780635312ea8e1461025c575b600080fd5b6003545b6040519081526020015b60405180910390f35b6101bd6101b8366004611944565b610401565b6040805195865260208601949094529284019190915260608301521515608082015260a0016101a1565b61019760065481565b6102036101fe36600461195d565b610445565b005b610218610213366004611944565b6106e9565b6040516101a19190600060a0820190508251825260208301516020830152604083015160408301526060830151606083015260808301511515608083015292915050565b61020361026a366004611944565b6108d7565b600554610282906001600160a01b031681565b6040516001600160a01b0390911681526020016101a1565b6102036109b4565b6102036102b036600461198d565b610a4c565b610203610b1d565b6102826102cb366004611944565b610b31565b610197610b5b565b6000546001600160a01b0316610282565b6103236102f73660046119db565b600460209081526000928352604080842090915290825290208054600182015460029092015490919083565b604080519384526020840192909252908201526060016101a1565b610197601381565b610197670de0b6b3a764000081565b61019762093a8081565b61020361036d366004611a0b565b610b72565b610203610380366004611a37565b610c10565b6101976103933660046119db565b610f14565b6102036103a636600461195d565b61107c565b6102036103b9366004611a8a565b6113c6565b6102036103cc366004611a8a565b6113f0565b6102827f000000000000000000000000000000000000000000000000000000000000000081565b61019761271081565b6003818154811061041157600080fd5b6000918252602090912060059091020180546001820154600283015460038401546004909401549294509092909160ff1685565b61044d611466565b6000610458836106e9565b600084815260046020908152604080832033845290915290208054919250908311156104c45760405162461bcd60e51b81526020600482015260166024820152751dda5d1a191c985dce88125b9cdd59999a58da595b9d60521b60448201526064015b60405180910390fd5b60006104d033866114c0565b9050831561060a5781546104e49085611573565b8255600282015484906000906104fa9042611abd565b90508460800151801561050f575062093a8081105b156105d357600061052d612710610527896013611586565b90611592565b90506002888154811061054257610542611ad4565b60009182526020909120015460055460405163a9059cbb60e01b81526001600160a01b0391821660048201526024810184905291169063a9059cbb906044016020604051808303816000875af11580156105a0573d6000803e3d6000fd5b505050506040513d601f19601f820116820180604052508101906105c49190611aea565b506105cf8782611573565b9250505b610607338360028a815481106105eb576105eb611ad4565b6000918252602090912001546001600160a01b0316919061159e565b50505b8251825461062591670de0b6b3a76400009161052791611586565b8260010181905550610664846003878154811061064457610644611ad4565b90600052602060002090600502016003015461157390919063ffffffff16565b6003868154811061067757610677611ad4565b90600052602060002090600502016003018190555084336001600160a01b03167f02f25270a4d87bea75db541cdfe559334a275b4a233520ed6c0a2429667cca9486846040516106d1929190918252602082015260400190565b60405180910390a35050506106e560018055565b5050565b61071d6040518060a00160405280600081526020016000815260200160008152602001600081526020016000151581525090565b6003828154811061073057610730611ad4565b60009182526020918290206040805160a0810182526005909302909101805483526001810154938301849052600281015491830191909152600381015460608301526004015460ff161515608082015291504311156108d2576060810151801580159061079f57506000600654115b1561081d5760006107bd83602001514361157390919063ffffffff16565b905060006107f560065461052786604001516107ef670de0b6b3a7640000614e206107e89190611b07565b8790611586565b90611586565b90506108186108108461052784670de0b6b3a7640000611586565b855190611601565b845250505b436020830152600380548391908590811061083a5761083a611ad4565b6000918252602091829020835160059290920201908155828201516001820155604080840151600283015560608085015160038401556080909401516004909201805460ff19169215159290921790915584820151855182519182529281018590529081019190915284917f3be3541fc42237d611b30329040bfa4569541d156560acdbbae57640d20b8f46910160405180910390a2505b919050565b6108df611466565b6000600382815481106108f4576108f4611ad4565b6000918252602080832085845260048252604080852033865290925290832080548482556001820194909455600592909202016003810154909350909190811061093f57600061094e565b600383015461094e9082611573565b836003018190555061096e3382600287815481106105eb576105eb611ad4565b604051818152849033907fbb757047c2b5f3974fe26b7c10f732e7bce710b0952a71082702781e62ae05959060200160405180910390a35050506109b160018055565b50565b60035460005b818110156106e5576000600382815481106109d7576109d7611ad4565b60009182526020918290206040805160a08101825260059093029091018054835260018101549383019390935260028301549082018190526003830154606083015260049092015460ff1615156080820152915015610a3b57610a39826106e9565b505b50610a4581611b26565b90506109ba565b610a5461160d565b610a5d836106e9565b508015610a6c57610a6c6109b4565b610aaf82610aa960038681548110610a8657610a86611ad4565b90600052602060002090600502016002015460065461157390919063ffffffff16565b90611601565b6006819055508160038481548110610ac957610ac9611ad4565b906000526020600020906005020160020181905550827fc0cfd54d2de2b55f1e6e108d3ec53ff0a1abe6055401d32c61e9433b747ef9f883604051610b1091815260200190565b60405180910390a2505050565b610b2561160d565b610b2f6000611667565b565b60028181548110610b4157600080fd5b6000918252602090912001546001600160a01b0316905081565b610b6f670de0b6b3a7640000614e20611b07565b81565b80156106e55760405163a6bb801960e01b81526001600160a01b038381166004830152602482018390527f0000000000000000000000000000000000000000000000000000000000000000169063a6bb8019906044016020604051808303816000875af1158015610be7573d6000803e3d6000fd5b505050506040513d601f19601f82011682018060405250810190610c0b9190611aea565b505050565b610c1861160d565b6040516370a0823160e01b81523060048201526000906001600160a01b038516906370a0823190602401602060405180830381865afa158015610c5f573d6000803e3d6000fd5b505050506040513d601f19601f82011682018060405250810190610c839190611b41565b1015610cc55760405162461bcd60e51b81526020600482015260116024820152704e6f6e6520424550323020746f6b656e7360781b60448201526064016104bb565b7f00000000000000000000000000000000000000000000000000000000000000006001600160a01b0316836001600160a01b03161415610d565760405162461bcd60e51b815260206004820152602660248201527f594f4320746f6b656e2063616e277420626520616464656420746f206661726d60448201526520706f6f6c7360d01b60648201526084016104bb565b8015610d6457610d646109b4565b600654610d719085611601565b60065560028054600180820183557f405787fa12a823e0f2b7631cc41b3ba8828b3321ca811111fa75cd3aa3bb5ace90910180546001600160a01b0319166001600160a01b0387169081179091556040805160a081018252600080825243602083019081529282018a8152606083018281528915156080850190815260038054808a018255945293517fc2575a0e9e593c00f959f8c92f12db2869c3395a3b0502d05e2516446f71f85b60059094029384015593517fc2575a0e9e593c00f959f8c92f12db2869c3395a3b0502d05e2516446f71f85c830155517fc2575a0e9e593c00f959f8c92f12db2869c3395a3b0502d05e2516446f71f85d82015591517fc2575a0e9e593c00f959f8c92f12db2869c3395a3b0502d05e2516446f71f85e830155517fc2575a0e9e593c00f959f8c92f12db2869c3395a3b0502d05e2516446f71f85f909101805460ff19169115159190911790559154610ed491611573565b6040805187815285151560208201527f18caa0724a26384928efe604ae6ddc99c242548876259770fc88fcb7e719d8fa910160405180910390a350505050565b60008060038481548110610f2a57610f2a611ad4565b600091825260208083206040805160a081018252600590940290910180548452600180820154858501908152600280840154878601526003840154606080890191825260049586015460ff16151560808a01528d8a529487528589206001600160a01b038d168a528752978590208551948501865280548552928301549584019590955293015491810191909152825193519151929450929143118015610fd057508015155b15611040576000610fee85602001514361157390919063ffffffff16565b9050600061101960065461052788604001516107ef670de0b6b3a7640000614e206107e89190611b07565b905061103b6110348461052784670de0b6b3a7640000611586565b8590611601565b935050505b611071836020015161106b670de0b6b3a764000061052786886000015161158690919063ffffffff16565b90611573565b979650505050505050565b611084611466565b600061108f836106e9565b60008481526004602090815260408083203384529091529020805491925090156110bf576110bd33856114c0565b505b8215611301576000600285815481106110da576110da611ad4565b6000918252602090912001546040516370a0823160e01b81523060048201526001600160a01b03909116906370a0823190602401602060405180830381865afa15801561112b573d6000803e3d6000fd5b505050506040513d601f19601f8201168201806040525081019061114f9190611b41565b90506111873330866002898154811061116a5761116a611ad4565b6000918252602090912001546001600160a01b03169291906116b7565b611213816002878154811061119e5761119e611ad4565b6000918252602090912001546040516370a0823160e01b81523060048201526001600160a01b03909116906370a0823190602401602060405180830381865afa1580156111ef573d6000803e3d6000fd5b505050506040513d601f19601f8201168201806040525081019061106b9190611b41565b935082608001516112d7576000611231612710610527876013611586565b90506002868154811061124657611246611ad4565b60009182526020909120015460055460405163a9059cbb60e01b81526001600160a01b0391821660048201526024810184905291169063a9059cbb906044016020604051808303816000875af11580156112a4573d6000803e3d6000fd5b505050506040513d601f19601f820116820180604052508101906112c89190611aea565b506112d38582611573565b9450505b81546112e39085611601565b825542600283015560608301516112fa9085611601565b6060840152505b8151815461131c91670de0b6b3a76400009161052791611586565b8160010181905550816003858154811061133857611338611ad4565b60009182526020918290208351600592909202019081558282015160018201556040808401516002830155606084015160038301556080909301516004909101805460ff19169115159190911790559051848152859133917f90890809c654f11d6e72a28fa60149770a0d11ec6c92319d6ceb2bb0a4ea1a15910160405180910390a350506106e560018055565b6113ce61160d565b600580546001600160a01b0319166001600160a01b0392909216919091179055565b6113f861160d565b6001600160a01b03811661145d5760405162461bcd60e51b815260206004820152602660248201527f4f776e61626c653a206e6577206f776e657220697320746865207a65726f206160448201526564647265737360d01b60648201526084016104bb565b6109b181611667565b600260015414156114b95760405162461bcd60e51b815260206004820152601f60248201527f5265656e7472616e637947756172643a207265656e7472616e742063616c6c0060448201526064016104bb565b6002600155565b60008181526004602090815260408083206001600160a01b03861684528252808320815160608101835281548152600182015493810193909352600201549082015260038054839161154391670de0b6b3a764000091610527918890811061152a5761152a611ad4565b6000918252602090912060059091020154855190611586565b9050600061155e83602001518361157390919063ffffffff16565b905061156a8682610b72565b95945050505050565b600061157f8284611abd565b9392505050565b600061157f8284611b07565b600061157f8284611b5a565b6040516001600160a01b038316602482015260448101829052610c0b90849063a9059cbb60e01b906064015b60408051601f198184030181529190526020810180516001600160e01b03166001600160e01b0319909316929092179091526116f5565b600061157f8284611b7c565b6000546001600160a01b03163314610b2f5760405162461bcd60e51b815260206004820181905260248201527f4f776e61626c653a2063616c6c6572206973206e6f7420746865206f776e657260448201526064016104bb565b600080546001600160a01b038381166001600160a01b0319831681178455604051919092169283917f8be0079c531659141344cd1fd0a4f28419497f9722a3daafe3b4186f6b6457e09190a35050565b6040516001600160a01b03808516602483015283166044820152606481018290526116ef9085906323b872dd60e01b906084016115ca565b50505050565b600061174a826040518060400160405280602081526020017f5361666545524332303a206c6f772d6c6576656c2063616c6c206661696c6564815250856001600160a01b03166117c79092919063ffffffff16565b805190915015610c0b57808060200190518101906117689190611aea565b610c0b5760405162461bcd60e51b815260206004820152602a60248201527f5361666545524332303a204552433230206f7065726174696f6e20646964206e6044820152691bdd081cdd58d8d9595960b21b60648201526084016104bb565b60606117d684846000856117de565b949350505050565b60608247101561183f5760405162461bcd60e51b815260206004820152602660248201527f416464726573733a20696e73756666696369656e742062616c616e636520666f6044820152651c8818d85b1b60d21b60648201526084016104bb565b600080866001600160a01b0316858760405161185b9190611bc0565b60006040518083038185875af1925050503d8060008114611898576040519150601f19603f3d011682016040523d82523d6000602084013e61189d565b606091505b5091509150611071878383876060831561191557825161190e576001600160a01b0385163b61190e5760405162461bcd60e51b815260206004820152601d60248201527f416464726573733a2063616c6c20746f206e6f6e2d636f6e747261637400000060448201526064016104bb565b50816117d6565b6117d6838381511561192a5781518083602001fd5b8060405162461bcd60e51b81526004016104bb9190611bdc565b60006020828403121561195657600080fd5b5035919050565b6000806040838503121561197057600080fd5b50508035926020909101359150565b80151581146109b157600080fd5b6000806000606084860312156119a257600080fd5b833592506020840135915060408401356119bb8161197f565b809150509250925092565b6001600160a01b03811681146109b157600080fd5b600080604083850312156119ee57600080fd5b823591506020830135611a00816119c6565b809150509250929050565b60008060408385031215611a1e57600080fd5b8235611a29816119c6565b946020939093013593505050565b60008060008060808587031215611a4d57600080fd5b843593506020850135611a5f816119c6565b92506040850135611a6f8161197f565b91506060850135611a7f8161197f565b939692955090935050565b600060208284031215611a9c57600080fd5b813561157f816119c6565b634e487b7160e01b600052601160045260246000fd5b600082821015611acf57611acf611aa7565b500390565b634e487b7160e01b600052603260045260246000fd5b600060208284031215611afc57600080fd5b815161157f8161197f565b6000816000190483118215151615611b2157611b21611aa7565b500290565b6000600019821415611b3a57611b3a611aa7565b5060010190565b600060208284031215611b5357600080fd5b5051919050565b600082611b7757634e487b7160e01b600052601260045260246000fd5b500490565b60008219821115611b8f57611b8f611aa7565b500190565b60005b83811015611baf578181015183820152602001611b97565b838111156116ef5750506000910152565b60008251611bd2818460208701611b94565b9190910192915050565b6020815260008251806020840152611bfb816040850160208701611b94565b601f01601f1916919091016040019291505056fea264697066735822122063acadfda3426fcae33ba387c45946fdfa48ca64bb212520a72e7748bd095a8364736f6c634300080a0033",
  "linkReferences": {},
  "deployedLinkReferences": {}
}