{
  "_format": "hh-sol-artifact-1",
  "contractName": "YOCMasterChef",
  "sourceName": "contracts/YocFarming.sol",
  "abi": [
    {
      "inputs": [
        {
          "internalType": "contract IERC20",
          "name": "_YOC",
          "type": "address"
        },
        {
          "internalType": "address",
          "name": "_treasury",
          "type": "address"
        }
      ],
      "stateMutability": "nonpayable",
      "type": "constructor"
    },
    {
      "anonymous": false,
      "inputs": [
        {
          "indexed": true,
          "internalType": "uint256",
          "name": "pid",
          "type": "uint256"
        },
        {
          "indexed": false,
          "internalType": "uint256",
          "name": "allocPoint",
          "type": "uint256"
        },
        {
          "indexed": true,
          "internalType": "contract IERC20",
          "name": "lpToken",
          "type": "address"
        },
        {
          "indexed": false,
          "internalType": "bool",
          "name": "isYocPool",
          "type": "bool"
        }
      ],
      "name": "AddPool",
      "type": "event"
    },
    {
      "anonymous": false,
      "inputs": [
        {
          "indexed": true,
          "internalType": "address",
          "name": "user",
          "type": "address"
        },
        {
          "indexed": true,
          "internalType": "uint256",
          "name": "pid",
          "type": "uint256"
        },
        {
          "indexed": false,
          "internalType": "uint256",
          "name": "amount",
          "type": "uint256"
        }
      ],
      "name": "Deposit",
      "type": "event"
    },
    {
      "anonymous": false,
      "inputs": [
        {
          "indexed": true,
          "internalType": "address",
          "name": "user",
          "type": "address"
        },
        {
          "indexed": true,
          "internalType": "uint256",
          "name": "pid",
          "type": "uint256"
        },
        {
          "indexed": false,
          "internalType": "uint256",
          "name": "amount",
          "type": "uint256"
        }
      ],
      "name": "EmergencyWithdraw",
      "type": "event"
    },
    {
      "anonymous": false,
      "inputs": [
        {
          "indexed": true,
          "internalType": "address",
          "name": "previousOwner",
          "type": "address"
        },
        {
          "indexed": true,
          "internalType": "address",
          "name": "newOwner",
          "type": "address"
        }
      ],
      "name": "OwnershipTransferred",
      "type": "event"
    },
    {
      "anonymous": false,
      "inputs": [
        {
          "indexed": true,
          "internalType": "uint256",
          "name": "pid",
          "type": "uint256"
        },
        {
          "indexed": false,
          "internalType": "uint256",
          "name": "allocPoint",
          "type": "uint256"
        }
      ],
      "name": "SetPool",
      "type": "event"
    },
    {
      "anonymous": false,
      "inputs": [
        {
          "indexed": true,
          "internalType": "uint256",
          "name": "pid",
          "type": "uint256"
        },
        {
          "indexed": false,
          "internalType": "uint256",
          "name": "lastRewardBlock",
          "type": "uint256"
        },
        {
          "indexed": false,
          "internalType": "uint256",
          "name": "lpSupply",
          "type": "uint256"
        },
        {
          "indexed": false,
          "internalType": "uint256",
          "name": "accYocPerShare",
          "type": "uint256"
        }
      ],
      "name": "UpdatePool",
      "type": "event"
    },
    {
      "anonymous": false,
      "inputs": [
        {
          "indexed": true,
          "internalType": "address",
          "name": "user",
          "type": "address"
        },
        {
          "indexed": true,
          "internalType": "uint256",
          "name": "pid",
          "type": "uint256"
        },
        {
          "indexed": false,
          "internalType": "uint256",
          "name": "amount",
          "type": "uint256"
        },
        {
          "indexed": false,
          "internalType": "uint256",
          "name": "yocAmount",
          "type": "uint256"
        }
      ],
      "name": "Withdraw",
      "type": "event"
    },
    {
      "inputs": [],
      "name": "ACC_YOC_PRECISION",
      "outputs": [
        {
          "internalType": "uint256",
          "name": "",
          "type": "uint256"
        }
      ],
      "stateMutability": "view",
      "type": "function"
    },
    {
      "inputs": [],
      "name": "DEPOSIT_FEE",
      "outputs": [
        {
          "internalType": "uint256",
          "name": "",
          "type": "uint256"
        }
      ],
      "stateMutability": "view",
      "type": "function"
    },
    {
      "inputs": [],
      "name": "MASTERCHEF_YOC_PER_BLOCK",
      "outputs": [
        {
          "internalType": "uint256",
          "name": "",
          "type": "uint256"
        }
      ],
      "stateMutability": "view",
      "type": "function"
    },
    {
      "inputs": [],
      "name": "MIN_PERIOD",
      "outputs": [
        {
          "internalType": "uint256",
          "name": "",
          "type": "uint256"
        }
      ],
      "stateMutability": "view",
      "type": "function"
    },
    {
      "inputs": [],
      "name": "PERCENT_PRECISION",
      "outputs": [
        {
          "internalType": "uint256",
          "name": "",
          "type": "uint256"
        }
      ],
      "stateMutability": "view",
      "type": "function"
    },
    {
      "inputs": [],
      "name": "WITHDRAW_FEE",
      "outputs": [
        {
          "internalType": "uint256",
          "name": "",
          "type": "uint256"
        }
      ],
      "stateMutability": "view",
      "type": "function"
    },
    {
      "inputs": [],
      "name": "YOC",
      "outputs": [
        {
          "internalType": "contract IERC20",
          "name": "",
          "type": "address"
        }
      ],
      "stateMutability": "view",
      "type": "function"
    },
    {
      "inputs": [
        {
          "internalType": "uint256",
          "name": "_allocPoint",
          "type": "uint256"
        },
        {
          "internalType": "contract IERC20",
          "name": "_lpToken",
          "type": "address"
        },
        {
          "internalType": "bool",
          "name": "_isYocPool",
          "type": "bool"
        },
        {
          "internalType": "bool",
          "name": "_withUpdate",
          "type": "bool"
        }
      ],
      "name": "add",
      "outputs": [],
      "stateMutability": "nonpayable",
      "type": "function"
    },
    {
      "inputs": [
        {
          "internalType": "uint256",
          "name": "_pid",
          "type": "uint256"
        },
        {
          "internalType": "uint256",
          "name": "_amount",
          "type": "uint256"
        }
      ],
      "name": "deposit",
      "outputs": [],
      "stateMutability": "nonpayable",
      "type": "function"
    },
    {
      "inputs": [
        {
          "internalType": "uint256",
          "name": "_pid",
          "type": "uint256"
        }
      ],
      "name": "emergencyWithdraw",
      "outputs": [],
      "stateMutability": "nonpayable",
      "type": "function"
    },
    {
      "inputs": [
        {
          "internalType": "uint256",
          "name": "",
          "type": "uint256"
        }
      ],
      "name": "lpToken",
      "outputs": [
        {
          "internalType": "contract IERC20",
          "name": "",
          "type": "address"
        }
      ],
      "stateMutability": "view",
      "type": "function"
    },
    {
      "inputs": [],
      "name": "massUpdatePools",
      "outputs": [],
      "stateMutability": "nonpayable",
      "type": "function"
    },
    {
      "inputs": [],
      "name": "owner",
      "outputs": [
        {
          "internalType": "address",
          "name": "",
          "type": "address"
        }
      ],
      "stateMutability": "view",
      "type": "function"
    },
    {
      "inputs": [
        {
          "internalType": "uint256",
          "name": "_pid",
          "type": "uint256"
        },
        {
          "internalType": "address",
          "name": "_user",
          "type": "address"
        }
      ],
      "name": "pendingYOC",
      "outputs": [
        {
          "internalType": "uint256",
          "name": "",
          "type": "uint256"
        }
      ],
      "stateMutability": "view",
      "type": "function"
    },
    {
      "inputs": [
        {
          "internalType": "uint256",
          "name": "",
          "type": "uint256"
        }
      ],
      "name": "poolInfo",
      "outputs": [
        {
          "internalType": "uint256",
          "name": "accYocPerShare",
          "type": "uint256"
        },
        {
          "internalType": "uint256",
          "name": "lastRewardBlock",
          "type": "uint256"
        },
        {
          "internalType": "uint256",
          "name": "allocPoint",
          "type": "uint256"
        },
        {
          "internalType": "uint256",
          "name": "totalShare",
          "type": "uint256"
        },
        {
          "internalType": "bool",
          "name": "isYocPool",
          "type": "bool"
        }
      ],
      "stateMutability": "view",
      "type": "function"
    },
    {
      "inputs": [],
      "name": "poolLength",
      "outputs": [
        {
          "internalType": "uint256",
          "name": "pools",
          "type": "uint256"
        }
      ],
      "stateMutability": "view",
      "type": "function"
    },
    {
      "inputs": [],
      "name": "renounceOwnership",
      "outputs": [],
      "stateMutability": "nonpayable",
      "type": "function"
    },
    {
      "inputs": [
        {
          "internalType": "uint256",
          "name": "_pid",
          "type": "uint256"
        },
        {
          "internalType": "uint256",
          "name": "_allocPoint",
          "type": "uint256"
        },
        {
          "internalType": "bool",
          "name": "_withUpdate",
          "type": "bool"
        }
      ],
      "name": "set",
      "outputs": [],
      "stateMutability": "nonpayable",
      "type": "function"
    },
    {
      "inputs": [
        {
          "internalType": "address",
          "name": "_treasury",
          "type": "address"
        }
      ],
      "name": "setTreasury",
      "outputs": [],
      "stateMutability": "nonpayable",
      "type": "function"
    },
    {
      "inputs": [],
      "name": "totalAllocPoint",
      "outputs": [
        {
          "internalType": "uint256",
          "name": "",
          "type": "uint256"
        }
      ],
      "stateMutability": "view",
      "type": "function"
    },
    {
      "inputs": [
        {
          "internalType": "address",
          "name": "newOwner",
          "type": "address"
        }
      ],
      "name": "transferOwnership",
      "outputs": [],
      "stateMutability": "nonpayable",
      "type": "function"
    },
    {
      "inputs": [],
      "name": "treasury",
      "outputs": [
        {
          "internalType": "address",
          "name": "",
          "type": "address"
        }
      ],
      "stateMutability": "view",
      "type": "function"
    },
    {
      "inputs": [
        {
          "internalType": "uint256",
          "name": "_pid",
          "type": "uint256"
        }
      ],
      "name": "updatePool",
      "outputs": [
        {
          "components": [
            {
              "internalType": "uint256",
              "name": "accYocPerShare",
              "type": "uint256"
            },
            {
              "internalType": "uint256",
              "name": "lastRewardBlock",
              "type": "uint256"
            },
            {
              "internalType": "uint256",
              "name": "allocPoint",
              "type": "uint256"
            },
            {
              "internalType": "uint256",
              "name": "totalShare",
              "type": "uint256"
            },
            {
              "internalType": "bool",
              "name": "isYocPool",
              "type": "bool"
            }
          ],
          "internalType": "struct YOCMasterChef.PoolInfo",
          "name": "pool",
          "type": "tuple"
        }
      ],
      "stateMutability": "nonpayable",
      "type": "function"
    },
    {
      "inputs": [
        {
          "internalType": "uint256",
          "name": "",
          "type": "uint256"
        },
        {
          "internalType": "address",
          "name": "",
          "type": "address"
        }
      ],
      "name": "userInfo",
      "outputs": [
        {
          "internalType": "uint256",
          "name": "amount",
          "type": "uint256"
        },
        {
          "internalType": "uint256",
          "name": "rewardDebt",
          "type": "uint256"
        },
        {
          "internalType": "uint256",
          "name": "lastDepositTimestamp",
          "type": "uint256"
        }
      ],
      "stateMutability": "view",
      "type": "function"
    },
    {
      "inputs": [
        {
          "internalType": "uint256",
          "name": "_pid",
          "type": "uint256"
        },
        {
          "internalType": "uint256",
          "name": "_amount",
          "type": "uint256"
        }
      ],
      "name": "withdraw",
      "outputs": [],
      "stateMutability": "nonpayable",
      "type": "function"
    }
  ],
  "bytecode": "0x60a06040523480156200001157600080fd5b5060405162001d6f38038062001d6f8339810160408190526200003491620000d5565b6200003f336200006c565b600180556001600160a01b03918216608052600580546001600160a01b0319169190921617905562000114565b600080546001600160a01b038381166001600160a01b0319831681178455604051919092169283917f8be0079c531659141344cd1fd0a4f28419497f9722a3daafe3b4186f6b6457e09190a35050565b6001600160a01b0381168114620000d257600080fd5b50565b60008060408385031215620000e957600080fd5b8251620000f681620000bc565b60208401519092506200010981620000bc565b809150509250929050565b608051611c2a62000145600039600081816103b001528181610c010152818161165101526116df0152611c2a6000f3fe608060405234801561001057600080fd5b50600436106101735760003560e01c80638da5cb5b116100de578063d3c1e6ae11610097578063f0f4426011610071578063f0f4426014610385578063f2fde38b14610398578063fd01ea9f146103ab578063ffe8e372146103d257600080fd5b8063d3c1e6ae14610357578063de363e651461036a578063e2bbb1581461037257600080fd5b80638da5cb5b146102bd57806393f1a40b146102ce5780639bff5ddb14610323578063b27ac6ca1461032b578063bbccf1541461033a578063c507aeaa1461034457600080fd5b806361d027b31161013057806361d027b314610254578063630b5ba11461027f57806364482f7914610287578063715018a61461029a57806378ed5d1f146102a257806384bc3c1c146102b557600080fd5b8063081e3eda146101785780631526fe271461018f57806317caf6f1146101cc578063441a3e70146101d557806351eb05a6146101ea5780635312ea8e14610241575b600080fd5b6003545b6040519081526020015b60405180910390f35b6101a261019d366004611955565b6103db565b6040805195865260208601949094529284019190915260608301521515608082015260a001610186565b61017c60065481565b6101e86101e336600461196e565b61041f565b005b6101fd6101f8366004611955565b6106c3565b6040516101869190600060a0820190508251825260208301516020830152604083015160408301526060830151606083015260808301511515608083015292915050565b6101e861024f366004611955565b6108b0565b600554610267906001600160a01b031681565b6040516001600160a01b039091168152602001610186565b6101e861098d565b6101e861029536600461199e565b610a25565b6101e8610af6565b6102676102b0366004611955565b610b0a565b61017c610b34565b6000546001600160a01b0316610267565b6103086102dc3660046119ec565b600460209081526000928352604080842090915290825290208054600182015460029092015490919083565b60408051938452602084019290925290820152606001610186565b61017c600a81565b61017c670de0b6b3a764000081565b61017c62093a8081565b6101e8610352366004611a1c565b610b4a565b61017c6103653660046119ec565b610e4e565b61017c601981565b6101e861038036600461196e565b610fb5565b6101e8610393366004611a6f565b6112ff565b6101e86103a6366004611a6f565b611329565b6102677f000000000000000000000000000000000000000000000000000000000000000081565b61017c6103e881565b600381815481106103eb57600080fd5b6000918252602090912060059091020180546001820154600283015460038401546004909401549294509092909160ff1685565b61042761139f565b6000610432836106c3565b6000848152600460209081526040808320338452909152902080549192509083111561049e5760405162461bcd60e51b81526020600482015260166024820152751dda5d1a191c985dce88125b9cdd59999a58da595b9d60521b60448201526064015b60405180910390fd5b60006104aa33866113f9565b905083156105e45781546104be90856114ac565b8255600282015484906000906104d49042611aa2565b9050846080015180156104e9575062093a8081105b156105ad5760006105076103e861050189600a6114bf565b906114cb565b90506002888154811061051c5761051c611ab9565b60009182526020909120015460055460405163a9059cbb60e01b81526001600160a01b0391821660048201526024810184905291169063a9059cbb906044016020604051808303816000875af115801561057a573d6000803e3d6000fd5b505050506040513d601f19601f8201168201806040525081019061059e9190611acf565b506105a987826114ac565b9250505b6105e1338360028a815481106105c5576105c5611ab9565b6000918252602090912001546001600160a01b031691906114d7565b50505b825182546105ff91670de0b6b3a764000091610501916114bf565b826001018190555061063e846003878154811061061e5761061e611ab9565b9060005260206000209060050201600301546114ac90919063ffffffff16565b6003868154811061065157610651611ab9565b90600052602060002090600502016003018190555084336001600160a01b03167f02f25270a4d87bea75db541cdfe559334a275b4a233520ed6c0a2429667cca9486846040516106ab929190918252602082015260400190565b60405180910390a35050506106bf60018055565b5050565b6106f76040518060a00160405280600081526020016000815260200160008152602001600081526020016000151581525090565b6003828154811061070a5761070a611ab9565b60009182526020918290206040805160a0810182526005909302909101805483526001810154938301849052600281015491830191909152600381015460608301526004015460ff161515608082015291504311156108ab576060810151801580159061077957506000600654115b156107f65760006107978360200151436114ac90919063ffffffff16565b905060006107ce60065461050186604001516107c8670de0b6b3a764000060146107c19190611aec565b87906114bf565b906114bf565b90506107f16107e98461050184670de0b6b3a76400006114bf565b85519061153f565b845250505b436020830152600380548391908590811061081357610813611ab9565b6000918252602091829020835160059290920201908155828201516001820155604080840151600283015560608085015160038401556080909401516004909201805460ff19169215159290921790915584820151855182519182529281018590529081019190915284917f3be3541fc42237d611b30329040bfa4569541d156560acdbbae57640d20b8f46910160405180910390a2505b919050565b6108b861139f565b6000600382815481106108cd576108cd611ab9565b60009182526020808320858452600482526040808520338652909252908320805484825560018201949094556005929092020160038101549093509091908110610918576000610927565b600383015461092790826114ac565b83600301819055506109473382600287815481106105c5576105c5611ab9565b604051818152849033907fbb757047c2b5f3974fe26b7c10f732e7bce710b0952a71082702781e62ae05959060200160405180910390a350505061098a60018055565b50565b60035460005b818110156106bf576000600382815481106109b0576109b0611ab9565b60009182526020918290206040805160a08101825260059093029091018054835260018101549383019390935260028301549082018190526003830154606083015260049092015460ff1615156080820152915015610a1457610a12826106c3565b505b50610a1e81611b0b565b9050610993565b610a2d61154b565b610a36836106c3565b508015610a4557610a4561098d565b610a8882610a8260038681548110610a5f57610a5f611ab9565b9060005260206000209060050201600201546006546114ac90919063ffffffff16565b9061153f565b6006819055508160038481548110610aa257610aa2611ab9565b906000526020600020906005020160020181905550827fc0cfd54d2de2b55f1e6e108d3ec53ff0a1abe6055401d32c61e9433b747ef9f883604051610ae991815260200190565b60405180910390a2505050565b610afe61154b565b610b0860006115a5565b565b60028181548110610b1a57600080fd5b6000918252602090912001546001600160a01b0316905081565b610b47670de0b6b3a76400006014611aec565b81565b610b5261154b565b6040516370a0823160e01b81523060048201526000906001600160a01b038516906370a0823190602401602060405180830381865afa158015610b99573d6000803e3d6000fd5b505050506040513d601f19601f82011682018060405250810190610bbd9190611b26565b1015610bff5760405162461bcd60e51b81526020600482015260116024820152704e6f6e6520424550323020746f6b656e7360781b6044820152606401610495565b7f00000000000000000000000000000000000000000000000000000000000000006001600160a01b0316836001600160a01b03161415610c905760405162461bcd60e51b815260206004820152602660248201527f594f4320746f6b656e2063616e277420626520616464656420746f206661726d60448201526520706f6f6c7360d01b6064820152608401610495565b8015610c9e57610c9e61098d565b600654610cab908561153f565b60065560028054600180820183557f405787fa12a823e0f2b7631cc41b3ba8828b3321ca811111fa75cd3aa3bb5ace90910180546001600160a01b0319166001600160a01b0387169081179091556040805160a081018252600080825243602083019081529282018a8152606083018281528915156080850190815260038054808a018255945293517fc2575a0e9e593c00f959f8c92f12db2869c3395a3b0502d05e2516446f71f85b60059094029384015593517fc2575a0e9e593c00f959f8c92f12db2869c3395a3b0502d05e2516446f71f85c830155517fc2575a0e9e593c00f959f8c92f12db2869c3395a3b0502d05e2516446f71f85d82015591517fc2575a0e9e593c00f959f8c92f12db2869c3395a3b0502d05e2516446f71f85e830155517fc2575a0e9e593c00f959f8c92f12db2869c3395a3b0502d05e2516446f71f85f909101805460ff19169115159190911790559154610e0e916114ac565b6040805187815285151560208201527f18caa0724a26384928efe604ae6ddc99c242548876259770fc88fcb7e719d8fa910160405180910390a350505050565b60008060038481548110610e6457610e64611ab9565b600091825260208083206040805160a081018252600590940290910180548452600180820154858501908152600280840154878601526003840154606080890191825260049586015460ff16151560808a01528d8a529487528589206001600160a01b038d168a528752978590208551948501865280548552928301549584019590955293015491810191909152825193519151929450929143118015610f0a57508015155b15610f79576000610f288560200151436114ac90919063ffffffff16565b90506000610f5260065461050188604001516107c8670de0b6b3a764000060146107c19190611aec565b9050610f74610f6d8461050184670de0b6b3a76400006114bf565b859061153f565b935050505b610faa8360200151610fa4670de0b6b3a76400006105018688600001516114bf90919063ffffffff16565b906114ac565b979650505050505050565b610fbd61139f565b6000610fc8836106c3565b6000848152600460209081526040808320338452909152902080549192509015610ff857610ff633856113f9565b505b821561123a5760006002858154811061101357611013611ab9565b6000918252602090912001546040516370a0823160e01b81523060048201526001600160a01b03909116906370a0823190602401602060405180830381865afa158015611064573d6000803e3d6000fd5b505050506040513d601f19601f820116820180604052508101906110889190611b26565b90506110c0333086600289815481106110a3576110a3611ab9565b6000918252602090912001546001600160a01b03169291906115f5565b61114c81600287815481106110d7576110d7611ab9565b6000918252602090912001546040516370a0823160e01b81523060048201526001600160a01b03909116906370a0823190602401602060405180830381865afa158015611128573d6000803e3d6000fd5b505050506040513d601f19601f82011682018060405250810190610fa49190611b26565b9350826080015161121057600061116a6103e86105018760196114bf565b90506002868154811061117f5761117f611ab9565b60009182526020909120015460055460405163a9059cbb60e01b81526001600160a01b0391821660048201526024810184905291169063a9059cbb906044016020604051808303816000875af11580156111dd573d6000803e3d6000fd5b505050506040513d601f19601f820116820180604052508101906112019190611acf565b5061120c85826114ac565b9450505b815461121c908561153f565b82554260028301556060830151611233908561153f565b6060840152505b8151815461125591670de0b6b3a764000091610501916114bf565b8160010181905550816003858154811061127157611271611ab9565b60009182526020918290208351600592909202019081558282015160018201556040808401516002830155606084015160038301556080909301516004909101805460ff19169115159190911790559051848152859133917f90890809c654f11d6e72a28fa60149770a0d11ec6c92319d6ceb2bb0a4ea1a15910160405180910390a350506106bf60018055565b61130761154b565b600580546001600160a01b0319166001600160a01b0392909216919091179055565b61133161154b565b6001600160a01b0381166113965760405162461bcd60e51b815260206004820152602660248201527f4f776e61626c653a206e6577206f776e657220697320746865207a65726f206160448201526564647265737360d01b6064820152608401610495565b61098a816115a5565b600260015414156113f25760405162461bcd60e51b815260206004820152601f60248201527f5265656e7472616e637947756172643a207265656e7472616e742063616c6c006044820152606401610495565b6002600155565b60008181526004602090815260408083206001600160a01b03861684528252808320815160608101835281548152600182015493810193909352600201549082015260038054839161147c91670de0b6b3a764000091610501918890811061146357611463611ab9565b60009182526020909120600590910201548551906114bf565b905060006114978360200151836114ac90919063ffffffff16565b90506114a38682611633565b95945050505050565b60006114b88284611aa2565b9392505050565b60006114b88284611aec565b60006114b88284611b3f565b6040516001600160a01b03831660248201526044810182905261153a90849063a9059cbb60e01b906064015b60408051601f198184030181529190526020810180516001600160e01b03166001600160e01b031990931692909217909152611706565b505050565b60006114b88284611b61565b6000546001600160a01b03163314610b085760405162461bcd60e51b815260206004820181905260248201527f4f776e61626c653a2063616c6c6572206973206e6f7420746865206f776e65726044820152606401610495565b600080546001600160a01b038381166001600160a01b0319831681178455604051919092169283917f8be0079c531659141344cd1fd0a4f28419497f9722a3daafe3b4186f6b6457e09190a35050565b6040516001600160a01b038085166024830152831660448201526064810182905261162d9085906323b872dd60e01b90608401611503565b50505050565b80156106bf576040516370a0823160e01b81523060048201526000907f00000000000000000000000000000000000000000000000000000000000000006001600160a01b0316906370a0823190602401602060405180830381865afa1580156116a0573d6000803e3d6000fd5b505050506040513d601f19601f820116820180604052508101906116c49190611b26565b9050818110156116d2578091505b61153a6001600160a01b037f00000000000000000000000000000000000000000000000000000000000000001684846114d7565b600061175b826040518060400160405280602081526020017f5361666545524332303a206c6f772d6c6576656c2063616c6c206661696c6564815250856001600160a01b03166117d89092919063ffffffff16565b80519091501561153a57808060200190518101906117799190611acf565b61153a5760405162461bcd60e51b815260206004820152602a60248201527f5361666545524332303a204552433230206f7065726174696f6e20646964206e6044820152691bdd081cdd58d8d9595960b21b6064820152608401610495565b60606117e784846000856117ef565b949350505050565b6060824710156118505760405162461bcd60e51b815260206004820152602660248201527f416464726573733a20696e73756666696369656e742062616c616e636520666f6044820152651c8818d85b1b60d21b6064820152608401610495565b600080866001600160a01b0316858760405161186c9190611ba5565b60006040518083038185875af1925050503d80600081146118a9576040519150601f19603f3d011682016040523d82523d6000602084013e6118ae565b606091505b5091509150610faa878383876060831561192657825161191f576001600160a01b0385163b61191f5760405162461bcd60e51b815260206004820152601d60248201527f416464726573733a2063616c6c20746f206e6f6e2d636f6e74726163740000006044820152606401610495565b50816117e7565b6117e7838381511561193b5781518083602001fd5b8060405162461bcd60e51b81526004016104959190611bc1565b60006020828403121561196757600080fd5b5035919050565b6000806040838503121561198157600080fd5b50508035926020909101359150565b801515811461098a57600080fd5b6000806000606084860312156119b357600080fd5b833592506020840135915060408401356119cc81611990565b809150509250925092565b6001600160a01b038116811461098a57600080fd5b600080604083850312156119ff57600080fd5b823591506020830135611a11816119d7565b809150509250929050565b60008060008060808587031215611a3257600080fd5b843593506020850135611a44816119d7565b92506040850135611a5481611990565b91506060850135611a6481611990565b939692955090935050565b600060208284031215611a8157600080fd5b81356114b8816119d7565b634e487b7160e01b600052601160045260246000fd5b600082821015611ab457611ab4611a8c565b500390565b634e487b7160e01b600052603260045260246000fd5b600060208284031215611ae157600080fd5b81516114b881611990565b6000816000190483118215151615611b0657611b06611a8c565b500290565b6000600019821415611b1f57611b1f611a8c565b5060010190565b600060208284031215611b3857600080fd5b5051919050565b600082611b5c57634e487b7160e01b600052601260045260246000fd5b500490565b60008219821115611b7457611b74611a8c565b500190565b60005b83811015611b94578181015183820152602001611b7c565b8381111561162d5750506000910152565b60008251611bb7818460208701611b79565b9190910192915050565b6020815260008251806020840152611be0816040850160208701611b79565b601f01601f1916919091016040019291505056fea26469706673582212209f36ca94b11fa707e451593dd80cb982cb17755a7b570352fe30ac9c4c2b5fa764736f6c634300080a0033",
  "linkReferences": {},
  "deployedLinkReferences": {}
}