{
  "_format": "hh-sol-artifact-1",
  "contractName": "ERC20_TOKEN",
  "sourceName": "contracts/ERC20_TOKEN.sol",
  "abi": [
    {
      "inputs": [
        {
          "internalType": "string",
          "name": "_name",
          "type": "string"
        },
        {
          "internalType": "string",
          "name": "_symbol",
          "type": "string"
        },
        {
          "internalType": "uint8",
          "name": "_decimals",
          "type": "uint8"
        }
      ],
      "stateMutability": "nonpayable",
      "type": "constructor"
    },
    {
      "anonymous": false,
      "inputs": [
        {
          "indexed": true,
          "internalType": "address",
          "name": "tokenOwner",
          "type": "address"
        },
        {
          "indexed": true,
          "internalType": "address",
          "name": "spender",
          "type": "address"
        },
        {
          "indexed": false,
          "internalType": "uint256",
          "name": "tokens",
          "type": "uint256"
        }
      ],
      "name": "Approval",
      "type": "event"
    },
    {
      "anonymous": false,
      "inputs": [
        {
          "indexed": true,
          "internalType": "address",
          "name": "from",
          "type": "address"
        },
        {
          "indexed": true,
          "internalType": "address",
          "name": "to",
          "type": "address"
        },
        {
          "indexed": false,
          "internalType": "uint256",
          "name": "tokens",
          "type": "uint256"
        }
      ],
      "name": "Transfer",
      "type": "event"
    },
    {
      "inputs": [],
      "name": "_totalSupply",
      "outputs": [
        {
          "internalType": "uint256",
          "name": "",
          "type": "uint256"
        }
      ],
      "stateMutability": "view",
      "type": "function"
    },
    {
      "inputs": [
        {
          "internalType": "address",
          "name": "tokenOwner",
          "type": "address"
        },
        {
          "internalType": "address",
          "name": "spender",
          "type": "address"
        }
      ],
      "name": "allowance",
      "outputs": [
        {
          "internalType": "uint256",
          "name": "remaining",
          "type": "uint256"
        }
      ],
      "stateMutability": "view",
      "type": "function"
    },
    {
      "inputs": [
        {
          "internalType": "address",
          "name": "spender",
          "type": "address"
        },
        {
          "internalType": "uint256",
          "name": "tokens",
          "type": "uint256"
        }
      ],
      "name": "approve",
      "outputs": [
        {
          "internalType": "bool",
          "name": "success",
          "type": "bool"
        }
      ],
      "stateMutability": "nonpayable",
      "type": "function"
    },
    {
      "inputs": [
        {
          "internalType": "address",
          "name": "tokenOwner",
          "type": "address"
        }
      ],
      "name": "balanceOf",
      "outputs": [
        {
          "internalType": "uint256",
          "name": "balance",
          "type": "uint256"
        }
      ],
      "stateMutability": "view",
      "type": "function"
    },
    {
      "inputs": [],
      "name": "decimals",
      "outputs": [
        {
          "internalType": "uint8",
          "name": "",
          "type": "uint8"
        }
      ],
      "stateMutability": "view",
      "type": "function"
    },
    {
      "inputs": [],
      "name": "name",
      "outputs": [
        {
          "internalType": "string",
          "name": "",
          "type": "string"
        }
      ],
      "stateMutability": "view",
      "type": "function"
    },
    {
      "inputs": [
        {
          "internalType": "uint256",
          "name": "a",
          "type": "uint256"
        },
        {
          "internalType": "uint256",
          "name": "b",
          "type": "uint256"
        }
      ],
      "name": "safeAdd",
      "outputs": [
        {
          "internalType": "uint256",
          "name": "c",
          "type": "uint256"
        }
      ],
      "stateMutability": "pure",
      "type": "function"
    },
    {
      "inputs": [
        {
          "internalType": "uint256",
          "name": "a",
          "type": "uint256"
        },
        {
          "internalType": "uint256",
          "name": "b",
          "type": "uint256"
        }
      ],
      "name": "safeDiv",
      "outputs": [
        {
          "internalType": "uint256",
          "name": "c",
          "type": "uint256"
        }
      ],
      "stateMutability": "pure",
      "type": "function"
    },
    {
      "inputs": [
        {
          "internalType": "uint256",
          "name": "a",
          "type": "uint256"
        },
        {
          "internalType": "uint256",
          "name": "b",
          "type": "uint256"
        }
      ],
      "name": "safeMul",
      "outputs": [
        {
          "internalType": "uint256",
          "name": "c",
          "type": "uint256"
        }
      ],
      "stateMutability": "pure",
      "type": "function"
    },
    {
      "inputs": [
        {
          "internalType": "uint256",
          "name": "a",
          "type": "uint256"
        },
        {
          "internalType": "uint256",
          "name": "b",
          "type": "uint256"
        }
      ],
      "name": "safeSub",
      "outputs": [
        {
          "internalType": "uint256",
          "name": "c",
          "type": "uint256"
        }
      ],
      "stateMutability": "pure",
      "type": "function"
    },
    {
      "inputs": [],
      "name": "symbol",
      "outputs": [
        {
          "internalType": "string",
          "name": "",
          "type": "string"
        }
      ],
      "stateMutability": "view",
      "type": "function"
    },
    {
      "inputs": [],
      "name": "totalSupply",
      "outputs": [
        {
          "internalType": "uint256",
          "name": "",
          "type": "uint256"
        }
      ],
      "stateMutability": "view",
      "type": "function"
    },
    {
      "inputs": [
        {
          "internalType": "address",
          "name": "to",
          "type": "address"
        },
        {
          "internalType": "uint256",
          "name": "tokens",
          "type": "uint256"
        }
      ],
      "name": "transfer",
      "outputs": [
        {
          "internalType": "bool",
          "name": "success",
          "type": "bool"
        }
      ],
      "stateMutability": "nonpayable",
      "type": "function"
    },
    {
      "inputs": [
        {
          "internalType": "address",
          "name": "from",
          "type": "address"
        },
        {
          "internalType": "address",
          "name": "to",
          "type": "address"
        },
        {
          "internalType": "uint256",
          "name": "tokens",
          "type": "uint256"
        }
      ],
      "name": "transferFrom",
      "outputs": [
        {
          "internalType": "bool",
          "name": "success",
          "type": "bool"
        }
      ],
      "stateMutability": "nonpayable",
      "type": "function"
    }
  ],
  "bytecode": "0x60806040523480156200001157600080fd5b5060405162000c9738038062000c97833981016040819052620000349162000254565b825162000049906000906020860190620000e1565b5081516200005f906001906020850190620000e1565b506002805460ff191660ff83161790556200007c81600a620003ee565b6200008b906298968062000406565b600381905533600081815260046020908152604080832085905551938452919290917fddf252ad1be2c89b69c2b068fc378daa952ba7f163c4a11628f55a4df523b3ef910160405180910390a350505062000465565b828054620000ef9062000428565b90600052602060002090601f0160209004810192826200011357600085556200015e565b82601f106200012e57805160ff19168380011785556200015e565b828001600101855582156200015e579182015b828111156200015e57825182559160200191906001019062000141565b506200016c92915062000170565b5090565b5b808211156200016c576000815560010162000171565b634e487b7160e01b600052604160045260246000fd5b600082601f830112620001af57600080fd5b81516001600160401b0380821115620001cc57620001cc62000187565b604051601f8301601f19908116603f01168101908282118183101715620001f757620001f762000187565b816040528381526020925086838588010111156200021457600080fd5b600091505b8382101562000238578582018301518183018401529082019062000219565b838211156200024a5760008385830101525b9695505050505050565b6000806000606084860312156200026a57600080fd5b83516001600160401b03808211156200028257600080fd5b62000290878388016200019d565b94506020860151915080821115620002a757600080fd5b50620002b6868287016200019d565b925050604084015160ff81168114620002ce57600080fd5b809150509250925092565b634e487b7160e01b600052601160045260246000fd5b600181815b8085111562000330578160001904821115620003145762000314620002d9565b808516156200032257918102915b93841c9390800290620002f4565b509250929050565b6000826200034957506001620003e8565b816200035857506000620003e8565b81600181146200037157600281146200037c576200039c565b6001915050620003e8565b60ff841115620003905762000390620002d9565b50506001821b620003e8565b5060208310610133831016604e8410600b8410161715620003c1575081810a620003e8565b620003cd8383620002ef565b8060001904821115620003e457620003e4620002d9565b0290505b92915050565b6000620003ff60ff84168362000338565b9392505050565b6000816000190483118215151615620004235762000423620002d9565b500290565b600181811c908216806200043d57607f821691505b602082108114156200045f57634e487b7160e01b600052602260045260246000fd5b50919050565b61082280620004756000396000f3fe608060405234801561001057600080fd5b50600436106100ea5760003560e01c806395d89b411161008c578063b5931f7c11610066578063b5931f7c146101d8578063d05c78da146101eb578063dd62ed3e146101fe578063e6cb90131461023757600080fd5b806395d89b41146101aa578063a293d1e8146101b2578063a9059cbb146101c557600080fd5b806323b872dd116100c857806323b872dd14610146578063313ce567146101595780633eaaf86b1461017857806370a082311461018157600080fd5b806306fdde03146100ef578063095ea7b31461010d57806318160ddd14610130575b600080fd5b6100f761024a565b60405161010491906105e4565b60405180910390f35b61012061011b366004610655565b6102d8565b6040519015158152602001610104565b610138610345565b604051908152602001610104565b61012061015436600461067f565b610383565b6002546101669060ff1681565b60405160ff9091168152602001610104565b61013860035481565b61013861018f3660046106bb565b6001600160a01b031660009081526004602052604090205490565b6100f7610481565b6101386101c03660046106d6565b61048e565b6101206101d3366004610655565b6104ee565b6101386101e63660046106d6565b610585565b6101386101f93660046106d6565b61059d565b61013861020c3660046106f8565b6001600160a01b03918216600090815260056020908152604080832093909416825291909152205490565b6101386102453660046106d6565b6105c9565b600080546102579061072b565b80601f01602080910402602001604051908101604052809291908181526020018280546102839061072b565b80156102d05780601f106102a5576101008083540402835291602001916102d0565b820191906000526020600020905b8154815290600101906020018083116102b357829003601f168201915b505050505081565b3360008181526005602090815260408083206001600160a01b038716808552925280832085905551919290917f8c5be1e5ebec7d5bd14f71427d1e84f3dd0314c0f7b2291e5b200ac8c7c3b925906103339086815260200190565b60405180910390a35060015b92915050565b600080805260046020527f17ef568e3e12ab5b9c7254a8d58478811de00f9e6eb34345acd53bf8fd09d3ec5460035461037e919061077c565b905090565b6001600160a01b0383166000908152600460205260408120546103a6908361048e565b6001600160a01b03851660009081526004602090815260408083209390935560058152828220338352905220546103dd908361048e565b6001600160a01b03808616600090815260056020908152604080832033845282528083209490945591861681526004909152205461041b90836105c9565b6001600160a01b0380851660008181526004602052604090819020939093559151908616907fddf252ad1be2c89b69c2b068fc378daa952ba7f163c4a11628f55a4df523b3ef9061046f9086815260200190565b60405180910390a35060019392505050565b600180546102579061072b565b6000828211156104dd5760405162461bcd60e51b8152602060048201526016602482015275209034b9903737ba103134b3b3b2b9103a3430b7103160511b604482015260640160405180910390fd5b6104e7828461077c565b9392505050565b33600090815260046020526040812054610508908361048e565b33600090815260046020526040808220929092556001600160a01b0385168152205461053490836105c9565b6001600160a01b0384166000818152600460205260409081902092909255905133907fddf252ad1be2c89b69c2b068fc378daa952ba7f163c4a11628f55a4df523b3ef906103339086815260200190565b600080821161059357600080fd5b6104e78284610793565b60006105a982846107b5565b90508215806105c05750816105be8483610793565b145b61033f57600080fd5b60006105d582846107d4565b90508281101561033f57600080fd5b600060208083528351808285015260005b81811015610611578581018301518582016040015282016105f5565b81811115610623576000604083870101525b50601f01601f1916929092016040019392505050565b80356001600160a01b038116811461065057600080fd5b919050565b6000806040838503121561066857600080fd5b61067183610639565b946020939093013593505050565b60008060006060848603121561069457600080fd5b61069d84610639565b92506106ab60208501610639565b9150604084013590509250925092565b6000602082840312156106cd57600080fd5b6104e782610639565b600080604083850312156106e957600080fd5b50508035926020909101359150565b6000806040838503121561070b57600080fd5b61071483610639565b915061072260208401610639565b90509250929050565b600181811c9082168061073f57607f821691505b6020821081141561076057634e487b7160e01b600052602260045260246000fd5b50919050565b634e487b7160e01b600052601160045260246000fd5b60008282101561078e5761078e610766565b500390565b6000826107b057634e487b7160e01b600052601260045260246000fd5b500490565b60008160001904831182151516156107cf576107cf610766565b500290565b600082198211156107e7576107e7610766565b50019056fea26469706673582212207b5abba55d6281eb9c5764dc02d0cb449cadf700337fb82b1b1dd74b94b777ba64736f6c634300080a0033",
  "linkReferences": {},
  "deployedLinkReferences": {}
}