{
  "_format": "hh-sol-artifact-1",
  "contractName": "TokenTemplate",
  "sourceName": "contracts/TokenTemplate.sol",
  "abi": [
    {
      "inputs": [
        {
          "internalType": "string",
          "name": "_name",
          "type": "string"
        },
        {
          "internalType": "string",
          "name": "_symbol",
          "type": "string"
        },
        {
          "internalType": "uint256",
          "name": "_total",
          "type": "uint256"
        },
        {
          "internalType": "uint8",
          "name": "_decimal",
          "type": "uint8"
        },
        {
          "internalType": "uint256",
          "name": "_sellAmount",
          "type": "uint256"
        },
        {
          "internalType": "address",
          "name": "treasury",
          "type": "address"
        }
      ],
      "stateMutability": "nonpayable",
      "type": "constructor"
    },
    {
      "anonymous": false,
      "inputs": [
        {
          "indexed": true,
          "internalType": "address",
          "name": "owner",
          "type": "address"
        },
        {
          "indexed": true,
          "internalType": "address",
          "name": "spender",
          "type": "address"
        },
        {
          "indexed": false,
          "internalType": "uint256",
          "name": "value",
          "type": "uint256"
        }
      ],
      "name": "Approval",
      "type": "event"
    },
    {
      "anonymous": false,
      "inputs": [
        {
          "indexed": false,
          "internalType": "uint256",
          "name": "id",
          "type": "uint256"
        }
      ],
      "name": "Snapshot",
      "type": "event"
    },
    {
      "anonymous": false,
      "inputs": [
        {
          "indexed": true,
          "internalType": "address",
          "name": "from",
          "type": "address"
        },
        {
          "indexed": true,
          "internalType": "address",
          "name": "to",
          "type": "address"
        },
        {
          "indexed": false,
          "internalType": "uint256",
          "name": "value",
          "type": "uint256"
        }
      ],
      "name": "Transfer",
      "type": "event"
    },
    {
      "inputs": [
        {
          "internalType": "address",
          "name": "owner",
          "type": "address"
        },
        {
          "internalType": "address",
          "name": "spender",
          "type": "address"
        }
      ],
      "name": "allowance",
      "outputs": [
        {
          "internalType": "uint256",
          "name": "",
          "type": "uint256"
        }
      ],
      "stateMutability": "view",
      "type": "function"
    },
    {
      "inputs": [
        {
          "internalType": "address",
          "name": "spender",
          "type": "address"
        },
        {
          "internalType": "uint256",
          "name": "amount",
          "type": "uint256"
        }
      ],
      "name": "approve",
      "outputs": [
        {
          "internalType": "bool",
          "name": "",
          "type": "bool"
        }
      ],
      "stateMutability": "nonpayable",
      "type": "function"
    },
    {
      "inputs": [
        {
          "internalType": "address",
          "name": "account",
          "type": "address"
        }
      ],
      "name": "balanceOf",
      "outputs": [
        {
          "internalType": "uint256",
          "name": "",
          "type": "uint256"
        }
      ],
      "stateMutability": "view",
      "type": "function"
    },
    {
      "inputs": [
        {
          "internalType": "address",
          "name": "account",
          "type": "address"
        },
        {
          "internalType": "uint256",
          "name": "snapshotId",
          "type": "uint256"
        }
      ],
      "name": "balanceOfAt",
      "outputs": [
        {
          "internalType": "uint256",
          "name": "",
          "type": "uint256"
        }
      ],
      "stateMutability": "view",
      "type": "function"
    },
    {
      "inputs": [],
      "name": "decimals",
      "outputs": [
        {
          "internalType": "uint8",
          "name": "",
          "type": "uint8"
        }
      ],
      "stateMutability": "view",
      "type": "function"
    },
    {
      "inputs": [
        {
          "internalType": "address",
          "name": "spender",
          "type": "address"
        },
        {
          "internalType": "uint256",
          "name": "subtractedValue",
          "type": "uint256"
        }
      ],
      "name": "decreaseAllowance",
      "outputs": [
        {
          "internalType": "bool",
          "name": "",
          "type": "bool"
        }
      ],
      "stateMutability": "nonpayable",
      "type": "function"
    },
    {
      "inputs": [],
      "name": "getCurrentSnapshotId",
      "outputs": [
        {
          "internalType": "uint256",
          "name": "",
          "type": "uint256"
        }
      ],
      "stateMutability": "view",
      "type": "function"
    },
    {
      "inputs": [
        {
          "internalType": "address",
          "name": "spender",
          "type": "address"
        },
        {
          "internalType": "uint256",
          "name": "addedValue",
          "type": "uint256"
        }
      ],
      "name": "increaseAllowance",
      "outputs": [
        {
          "internalType": "bool",
          "name": "",
          "type": "bool"
        }
      ],
      "stateMutability": "nonpayable",
      "type": "function"
    },
    {
      "inputs": [],
      "name": "name",
      "outputs": [
        {
          "internalType": "string",
          "name": "",
          "type": "string"
        }
      ],
      "stateMutability": "view",
      "type": "function"
    },
    {
      "inputs": [],
      "name": "sellAmount",
      "outputs": [
        {
          "internalType": "uint256",
          "name": "",
          "type": "uint256"
        }
      ],
      "stateMutability": "view",
      "type": "function"
    },
    {
      "inputs": [],
      "name": "snapshot",
      "outputs": [],
      "stateMutability": "nonpayable",
      "type": "function"
    },
    {
      "inputs": [],
      "name": "symbol",
      "outputs": [
        {
          "internalType": "string",
          "name": "",
          "type": "string"
        }
      ],
      "stateMutability": "view",
      "type": "function"
    },
    {
      "inputs": [],
      "name": "totalSupply",
      "outputs": [
        {
          "internalType": "uint256",
          "name": "",
          "type": "uint256"
        }
      ],
      "stateMutability": "view",
      "type": "function"
    },
    {
      "inputs": [
        {
          "internalType": "uint256",
          "name": "snapshotId",
          "type": "uint256"
        }
      ],
      "name": "totalSupplyAt",
      "outputs": [
        {
          "internalType": "uint256",
          "name": "",
          "type": "uint256"
        }
      ],
      "stateMutability": "view",
      "type": "function"
    },
    {
      "inputs": [
        {
          "internalType": "address",
          "name": "to",
          "type": "address"
        },
        {
          "internalType": "uint256",
          "name": "amount",
          "type": "uint256"
        }
      ],
      "name": "transfer",
      "outputs": [
        {
          "internalType": "bool",
          "name": "",
          "type": "bool"
        }
      ],
      "stateMutability": "nonpayable",
      "type": "function"
    },
    {
      "inputs": [
        {
          "internalType": "address",
          "name": "from",
          "type": "address"
        },
        {
          "internalType": "address",
          "name": "to",
          "type": "address"
        },
        {
          "internalType": "uint256",
          "name": "amount",
          "type": "uint256"
        }
      ],
      "name": "transferFrom",
      "outputs": [
        {
          "internalType": "bool",
          "name": "",
          "type": "bool"
        }
      ],
      "stateMutability": "nonpayable",
      "type": "function"
    }
  ],
  "bytecode": "0x60806040523480156200001157600080fd5b506040516200150d3803806200150d833981016040819052620000349162000623565b8551869086906200004d906003906020850190620004b0565b50805162000063906004906020840190620004b0565b50506009805460ff191660ff861617905550600a829055620000863085620000bd565b6200009330338462000181565b30600081815260208190526040902054620000b19190839062000181565b50505050505062000779565b6001600160a01b038216620001195760405162461bcd60e51b815260206004820152601f60248201527f45524332303a206d696e7420746f20746865207a65726f20616464726573730060448201526064015b60405180910390fd5b620001276000838362000328565b80600260008282546200013b9190620006f1565b90915550506001600160a01b03821660008181526020818152604080832080548601905551848152600080516020620014ed833981519152910160405180910390a35050565b6001600160a01b038316620001e75760405162461bcd60e51b815260206004820152602560248201527f45524332303a207472616e736665722066726f6d20746865207a65726f206164604482015264647265737360d81b606482015260840162000110565b6001600160a01b0382166200024b5760405162461bcd60e51b815260206004820152602360248201527f45524332303a207472616e7366657220746f20746865207a65726f206164647260448201526265737360e81b606482015260840162000110565b6200025883838362000328565b6001600160a01b03831660009081526020819052604090205481811015620002d25760405162461bcd60e51b815260206004820152602660248201527f45524332303a207472616e7366657220616d6f756e7420657863656564732062604482015265616c616e636560d01b606482015260840162000110565b6001600160a01b0384811660008181526020818152604080832087870390559387168083529184902080548701905592518581529092600080516020620014ed833981519152910160405180910390a350505050565b620003408383836200034560201b620004921760201c565b505050565b6200035d8383836200034060201b620004b11760201c565b6001600160a01b03831662000381576200037782620003ac565b62000340620003e4565b6001600160a01b0382166200039b576200037783620003ac565b620003a683620003ac565b62000340825b6001600160a01b03811660009081526005602090815260408083209183905290912054620003e19190620003f6565b620003f6565b50565b620003f46006620003db60025490565b565b60006200040262000445565b905080620004108462000463565b101562000340578254600180820185556000858152602080822090930193909355938401805494850181558252902090910155565b60006200045e6008620004ac60201b620004df1760201c565b905090565b80546000906200047557506000919050565b8154829062000487906001906200070c565b815481106200049a576200049a62000726565b90600052602060002001549050919050565b5490565b828054620004be906200073c565b90600052602060002090601f016020900481019282620004e257600085556200052d565b82601f10620004fd57805160ff19168380011785556200052d565b828001600101855582156200052d579182015b828111156200052d57825182559160200191906001019062000510565b506200053b9291506200053f565b5090565b5b808211156200053b576000815560010162000540565b634e487b7160e01b600052604160045260246000fd5b600082601f8301126200057e57600080fd5b81516001600160401b03808211156200059b576200059b62000556565b604051601f8301601f19908116603f01168101908282118183101715620005c657620005c662000556565b81604052838152602092508683858801011115620005e357600080fd5b600091505b83821015620006075785820183015181830184015290820190620005e8565b83821115620006195760008385830101525b9695505050505050565b60008060008060008060c087890312156200063d57600080fd5b86516001600160401b03808211156200065557600080fd5b620006638a838b016200056c565b975060208901519150808211156200067a57600080fd5b506200068989828a016200056c565b95505060408701519350606087015160ff81168114620006a857600080fd5b608088015160a089015191945092506001600160a01b0381168114620006cd57600080fd5b809150509295509295509295565b634e487b7160e01b600052601160045260246000fd5b60008219821115620007075762000707620006db565b500190565b600082821015620007215762000721620006db565b500390565b634e487b7160e01b600052603260045260246000fd5b600181811c908216806200075157607f821691505b602082108114156200077357634e487b7160e01b600052602260045260246000fd5b50919050565b610d6480620007896000396000f3fe608060405234801561001057600080fd5b50600436106101005760003560e01c80635439ad8611610097578063981b24d011610066578063981b24d0146101f2578063a457c2d714610205578063a9059cbb14610218578063dd62ed3e1461022b57600080fd5b80635439ad86146101af57806370a08231146101b757806395d89b41146101e05780639711715a146101e857600080fd5b8063313ce567116100d3578063313ce5671461016b57806339509351146101805780633f407b84146101935780634ee2cd7e1461019c57600080fd5b806306fdde0314610105578063095ea7b31461012357806318160ddd1461014657806323b872dd14610158575b600080fd5b61010d61023e565b60405161011a9190610b3d565b60405180910390f35b610136610131366004610ba9565b6102d0565b604051901515815260200161011a565b6002545b60405190815260200161011a565b610136610166366004610bd3565b6102ea565b60095460405160ff909116815260200161011a565b61013661018e366004610ba9565b61030e565b61014a600a5481565b61014a6101aa366004610ba9565b610330565b61014a610389565b61014a6101c5366004610c0f565b6001600160a01b031660009081526020819052604090205490565b61010d610394565b6101f06103a3565b005b61014a610200366004610c2a565b6103ae565b610136610213366004610ba9565b6103d9565b610136610226366004610ba9565b610459565b61014a610239366004610c43565b610467565b60606003805461024d90610c76565b80601f016020809104026020016040519081016040528092919081815260200182805461027990610c76565b80156102c65780601f1061029b576101008083540402835291602001916102c6565b820191906000526020600020905b8154815290600101906020018083116102a957829003601f168201915b5050505050905090565b6000336102de8185856104e3565b60019150505b92915050565b6000336102f8858285610607565b610303858585610681565b506001949350505050565b6000336102de8185856103218383610467565b61032b9190610cc7565b6104e3565b6001600160a01b038216600090815260056020526040812081908190610357908590610830565b915091508161037e576001600160a01b038516600090815260208190526040902054610380565b805b95945050505050565b6000806102e4610927565b60606004805461024d90610c76565b6103ab610937565b50565b60008060006103be846006610830565b91509150816103cf576002546103d1565b805b949350505050565b600033816103e78286610467565b90508381101561044c5760405162461bcd60e51b815260206004820152602560248201527f45524332303a2064656372656173656420616c6c6f77616e63652062656c6f77604482015264207a65726f60d81b60648201526084015b60405180910390fd5b61030382868684036104e3565b6000336102de818585610681565b6001600160a01b03918216600090815260016020908152604080832093909416825291909152205490565b6001600160a01b0383166104b6576104a982610991565b6104b16109c3565b505050565b6001600160a01b0382166104cd576104a983610991565b6104d683610991565b6104b182610991565b5490565b6001600160a01b0383166105455760405162461bcd60e51b8152602060048201526024808201527f45524332303a20617070726f76652066726f6d20746865207a65726f206164646044820152637265737360e01b6064820152608401610443565b6001600160a01b0382166105a65760405162461bcd60e51b815260206004820152602260248201527f45524332303a20617070726f766520746f20746865207a65726f206164647265604482015261737360f01b6064820152608401610443565b6001600160a01b0383811660008181526001602090815260408083209487168084529482529182902085905590518481527f8c5be1e5ebec7d5bd14f71427d1e84f3dd0314c0f7b2291e5b200ac8c7c3b925910160405180910390a3505050565b60006106138484610467565b9050600019811461067b578181101561066e5760405162461bcd60e51b815260206004820152601d60248201527f45524332303a20696e73756666696369656e7420616c6c6f77616e63650000006044820152606401610443565b61067b84848484036104e3565b50505050565b6001600160a01b0383166106e55760405162461bcd60e51b815260206004820152602560248201527f45524332303a207472616e736665722066726f6d20746865207a65726f206164604482015264647265737360d81b6064820152608401610443565b6001600160a01b0382166107475760405162461bcd60e51b815260206004820152602360248201527f45524332303a207472616e7366657220746f20746865207a65726f206164647260448201526265737360e81b6064820152608401610443565b6107528383836109d3565b6001600160a01b038316600090815260208190526040902054818110156107ca5760405162461bcd60e51b815260206004820152602660248201527f45524332303a207472616e7366657220616d6f756e7420657863656564732062604482015265616c616e636560d01b6064820152608401610443565b6001600160a01b03848116600081815260208181526040808320878703905593871680835291849020805487019055925185815290927fddf252ad1be2c89b69c2b068fc378daa952ba7f163c4a11628f55a4df523b3ef910160405180910390a361067b565b6000806000841161087c5760405162461bcd60e51b815260206004820152601660248201527504552433230536e617073686f743a20696420697320360541b6044820152606401610443565b610884610927565b8411156108d35760405162461bcd60e51b815260206004820152601d60248201527f4552433230536e617073686f743a206e6f6e6578697374656e742069640000006044820152606401610443565b60006108df84866109de565b84549091508114156108f8576000809250925050610920565b600184600101828154811061090f5761090f610cdf565b906000526020600020015492509250505b9250929050565b600061093260085490565b905090565b6000610947600880546001019055565b6000610951610927565b90507f8030e83b04d87bef53480e26263266d6ca66863aa8506aca6f2559d18aa1cb678160405161098491815260200190565b60405180910390a1919050565b6001600160a01b038116600090815260056020908152604080832091839052909120546103ab9190610a89565b610a89565b6109d160066109be60025490565b565b6104b1838383610492565b81546000906109ef575060006102e4565b82546000905b80821015610a3c576000610a098383610ad3565b60008781526020902090915085908201541115610a2857809150610a36565b610a33816001610cc7565b92505b506109f5565b600082118015610a68575083610a6586610a57600186610cf5565b600091825260209091200190565b54145b15610a8157610a78600183610cf5565b925050506102e4565b5090506102e4565b6000610a93610927565b905080610a9f84610af5565b10156104b1578254600180820185556000858152602080822090930193909355938401805494850181558252902090910155565b6000610ae26002848418610d0c565b610aee90848416610cc7565b9392505050565b8054600090610b0657506000919050565b81548290610b1690600190610cf5565b81548110610b2657610b26610cdf565b90600052602060002001549050919050565b919050565b600060208083528351808285015260005b81811015610b6a57858101830151858201604001528201610b4e565b81811115610b7c576000604083870101525b50601f01601f1916929092016040019392505050565b80356001600160a01b0381168114610b3857600080fd5b60008060408385031215610bbc57600080fd5b610bc583610b92565b946020939093013593505050565b600080600060608486031215610be857600080fd5b610bf184610b92565b9250610bff60208501610b92565b9150604084013590509250925092565b600060208284031215610c2157600080fd5b610aee82610b92565b600060208284031215610c3c57600080fd5b5035919050565b60008060408385031215610c5657600080fd5b610c5f83610b92565b9150610c6d60208401610b92565b90509250929050565b600181811c90821680610c8a57607f821691505b60208210811415610cab57634e487b7160e01b600052602260045260246000fd5b50919050565b634e487b7160e01b600052601160045260246000fd5b60008219821115610cda57610cda610cb1565b500190565b634e487b7160e01b600052603260045260246000fd5b600082821015610d0757610d07610cb1565b500390565b600082610d2957634e487b7160e01b600052601260045260246000fd5b50049056fea2646970667358221220dc44fe2f7f7d2326e28f840f1de77d6fd3d76a3d2d37f371cc93aed42c521b4564736f6c634300080a0033ddf252ad1be2c89b69c2b068fc378daa952ba7f163c4a11628f55a4df523b3ef",
  "linkReferences": {},
  "deployedLinkReferences": {}
}