{
  "_format": "hh-sol-artifact-1",
  "contractName": "SafeMath",
  "sourceName": "contracts/Token.sol",
  "abi": [
    {
      "inputs": [
        {
          "internalType": "uint256",
          "name": "a",
          "type": "uint256"
        },
        {
          "internalType": "uint256",
          "name": "b",
          "type": "uint256"
        }
      ],
      "name": "safeAdd",
      "outputs": [
        {
          "internalType": "uint256",
          "name": "c",
          "type": "uint256"
        }
      ],
      "stateMutability": "pure",
      "type": "function"
    },
    {
      "inputs": [
        {
          "internalType": "uint256",
          "name": "a",
          "type": "uint256"
        },
        {
          "internalType": "uint256",
          "name": "b",
          "type": "uint256"
        }
      ],
      "name": "safeDiv",
      "outputs": [
        {
          "internalType": "uint256",
          "name": "c",
          "type": "uint256"
        }
      ],
      "stateMutability": "pure",
      "type": "function"
    },
    {
      "inputs": [
        {
          "internalType": "uint256",
          "name": "a",
          "type": "uint256"
        },
        {
          "internalType": "uint256",
          "name": "b",
          "type": "uint256"
        }
      ],
      "name": "safeMul",
      "outputs": [
        {
          "internalType": "uint256",
          "name": "c",
          "type": "uint256"
        }
      ],
      "stateMutability": "pure",
      "type": "function"
    },
    {
      "inputs": [
        {
          "internalType": "uint256",
          "name": "a",
          "type": "uint256"
        },
        {
          "internalType": "uint256",
          "name": "b",
          "type": "uint256"
        }
      ],
      "name": "safeSub",
      "outputs": [
        {
          "internalType": "uint256",
          "name": "c",
          "type": "uint256"
        }
      ],
      "stateMutability": "pure",
      "type": "function"
    }
  ],
  "bytecode": "0x608060405234801561001057600080fd5b50610252806100206000396000f3fe608060405234801561001057600080fd5b506004361061004c5760003560e01c8063a293d1e814610051578063b5931f7c14610076578063d05c78da14610089578063e6cb90131461009c575b600080fd5b61006461005f366004610174565b6100af565b60405190815260200160405180910390f35b610064610084366004610174565b61010f565b610064610097366004610174565b610127565b6100646100aa366004610174565b610159565b6000828211156100fe5760405162461bcd60e51b8152602060048201526016602482015275209034b9903737ba103134b3b3b2b9103a3430b7103160511b604482015260640160405180910390fd5b61010882846101ac565b9392505050565b600080821161011d57600080fd5b61010882846101c3565b600061013382846101e5565b905082158061014a57508161014884836101c3565b145b61015357600080fd5b92915050565b60006101658284610204565b90508281101561015357600080fd5b6000806040838503121561018757600080fd5b50508035926020909101359150565b634e487b7160e01b600052601160045260246000fd5b6000828210156101be576101be610196565b500390565b6000826101e057634e487b7160e01b600052601260045260246000fd5b500490565b60008160001904831182151516156101ff576101ff610196565b500290565b6000821982111561021757610217610196565b50019056fea2646970667358221220c0342bc362a6cd609784a019a415461b7ab1f5397057f21ba9a31ced75631e8564736f6c634300080a0033",
  "linkReferences": {},
  "deployedLinkReferences": {}
}