{
  "_format": "hh-sol-artifact-1",
  "contractName": "Project",
  "sourceName": "contracts/Project.sol",
  "abi": [
    {
      "inputs": [
        {
          "internalType": "string[]",
          "name": "_infoST",
          "type": "string[]"
        },
        {
          "internalType": "uint256[]",
          "name": "_infoNB",
          "type": "uint256[]"
        },
        {
          "internalType": "address[]",
          "name": "_infoAD",
          "type": "address[]"
        },
        {
          "internalType": "uint256",
          "name": "_sellAmount",
          "type": "uint256"
        }
      ],
      "stateMutability": "nonpayable",
      "type": "constructor"
    },
    {
      "anonymous": false,
      "inputs": [
        {
          "indexed": false,
          "internalType": "address",
          "name": "",
          "type": "address"
        },
        {
          "indexed": false,
          "internalType": "uint256",
          "name": "",
          "type": "uint256"
        },
        {
          "indexed": false,
          "internalType": "address",
          "name": "",
          "type": "address"
        }
      ],
      "name": "Claimed",
      "type": "event"
    },
    {
      "anonymous": false,
      "inputs": [
        {
          "indexed": false,
          "internalType": "address",
          "name": "",
          "type": "address"
        },
        {
          "indexed": false,
          "internalType": "uint256",
          "name": "",
          "type": "uint256"
        },
        {
          "indexed": false,
          "internalType": "uint256",
          "name": "",
          "type": "uint256"
        },
        {
          "indexed": false,
          "internalType": "address",
          "name": "",
          "type": "address"
        }
      ],
      "name": "Participated",
      "type": "event"
    },
    {
      "anonymous": false,
      "inputs": [
        {
          "indexed": false,
          "internalType": "address",
          "name": "",
          "type": "address"
        },
        {
          "indexed": false,
          "internalType": "uint256",
          "name": "",
          "type": "uint256"
        },
        {
          "indexed": false,
          "internalType": "address",
          "name": "",
          "type": "address"
        }
      ],
      "name": "ProfitDeposited",
      "type": "event"
    },
    {
      "anonymous": false,
      "inputs": [
        {
          "indexed": false,
          "internalType": "address",
          "name": "",
          "type": "address"
        },
        {
          "indexed": false,
          "internalType": "uint256",
          "name": "",
          "type": "uint256"
        },
        {
          "indexed": false,
          "internalType": "uint256",
          "name": "",
          "type": "uint256"
        },
        {
          "indexed": false,
          "internalType": "address",
          "name": "",
          "type": "address"
        }
      ],
      "name": "Refund",
      "type": "event"
    },
    {
      "inputs": [],
      "name": "apr",
      "outputs": [
        {
          "internalType": "uint256",
          "name": "",
          "type": "uint256"
        }
      ],
      "stateMutability": "view",
      "type": "function"
    },
    {
      "inputs": [],
      "name": "category",
      "outputs": [
        {
          "internalType": "string",
          "name": "",
          "type": "string"
        }
      ],
      "stateMutability": "view",
      "type": "function"
    },
    {
      "inputs": [],
      "name": "claim",
      "outputs": [],
      "stateMutability": "nonpayable",
      "type": "function"
    },
    {
      "inputs": [],
      "name": "depositProfitAmount",
      "outputs": [
        {
          "internalType": "uint256",
          "name": "",
          "type": "uint256"
        }
      ],
      "stateMutability": "view",
      "type": "function"
    },
    {
      "inputs": [],
      "name": "description",
      "outputs": [
        {
          "internalType": "string",
          "name": "",
          "type": "string"
        }
      ],
      "stateMutability": "view",
      "type": "function"
    },
    {
      "inputs": [],
      "name": "endDate",
      "outputs": [
        {
          "internalType": "uint256",
          "name": "",
          "type": "uint256"
        }
      ],
      "stateMutability": "view",
      "type": "function"
    },
    {
      "inputs": [],
      "name": "icon",
      "outputs": [
        {
          "internalType": "string",
          "name": "",
          "type": "string"
        }
      ],
      "stateMutability": "view",
      "type": "function"
    },
    {
      "inputs": [],
      "name": "investToken",
      "outputs": [
        {
          "internalType": "contract IERC20",
          "name": "",
          "type": "address"
        }
      ],
      "stateMutability": "view",
      "type": "function"
    },
    {
      "inputs": [],
      "name": "investTotalAmount",
      "outputs": [
        {
          "internalType": "uint256",
          "name": "",
          "type": "uint256"
        }
      ],
      "stateMutability": "view",
      "type": "function"
    },
    {
      "inputs": [
        {
          "internalType": "uint256",
          "name": "amount",
          "type": "uint256"
        }
      ],
      "name": "makeDepositProfit",
      "outputs": [
        {
          "internalType": "bool",
          "name": "",
          "type": "bool"
        }
      ],
      "stateMutability": "nonpayable",
      "type": "function"
    },
    {
      "inputs": [],
      "name": "ongoingPercent",
      "outputs": [
        {
          "internalType": "uint256",
          "name": "",
          "type": "uint256"
        }
      ],
      "stateMutability": "view",
      "type": "function"
    },
    {
      "inputs": [],
      "name": "originProfitAmount",
      "outputs": [
        {
          "internalType": "uint256",
          "name": "",
          "type": "uint256"
        }
      ],
      "stateMutability": "view",
      "type": "function"
    },
    {
      "inputs": [
        {
          "internalType": "uint256",
          "name": "investAmount",
          "type": "uint256"
        },
        {
          "internalType": "uint256",
          "name": "shareAmount",
          "type": "uint256"
        }
      ],
      "name": "participate",
      "outputs": [],
      "stateMutability": "nonpayable",
      "type": "function"
    },
    {
      "inputs": [
        {
          "internalType": "address",
          "name": "_userAddr",
          "type": "address"
        }
      ],
      "name": "profitWalletAmountCheck",
      "outputs": [
        {
          "internalType": "bool",
          "name": "",
          "type": "bool"
        },
        {
          "internalType": "uint256",
          "name": "",
          "type": "uint256"
        },
        {
          "internalType": "bool",
          "name": "",
          "type": "bool"
        }
      ],
      "stateMutability": "view",
      "type": "function"
    },
    {
      "inputs": [],
      "name": "projectWebsite",
      "outputs": [
        {
          "internalType": "string",
          "name": "",
          "type": "string"
        }
      ],
      "stateMutability": "view",
      "type": "function"
    },
    {
      "inputs": [
        {
          "internalType": "uint256",
          "name": "shareAmount",
          "type": "uint256"
        },
        {
          "internalType": "uint256",
          "name": "investAmount",
          "type": "uint256"
        }
      ],
      "name": "refund",
      "outputs": [],
      "stateMutability": "nonpayable",
      "type": "function"
    },
    {
      "inputs": [],
      "name": "roi",
      "outputs": [
        {
          "internalType": "uint256",
          "name": "",
          "type": "uint256"
        }
      ],
      "stateMutability": "view",
      "type": "function"
    },
    {
      "inputs": [],
      "name": "sellAmount",
      "outputs": [
        {
          "internalType": "uint256",
          "name": "",
          "type": "uint256"
        }
      ],
      "stateMutability": "view",
      "type": "function"
    },
    {
      "inputs": [],
      "name": "shareToken",
      "outputs": [
        {
          "internalType": "contract IERC20",
          "name": "",
          "type": "address"
        }
      ],
      "stateMutability": "view",
      "type": "function"
    },
    {
      "inputs": [],
      "name": "shareTokenPrice",
      "outputs": [
        {
          "internalType": "uint256",
          "name": "",
          "type": "uint256"
        }
      ],
      "stateMutability": "view",
      "type": "function"
    },
    {
      "inputs": [],
      "name": "startDate",
      "outputs": [
        {
          "internalType": "uint256",
          "name": "",
          "type": "uint256"
        }
      ],
      "stateMutability": "view",
      "type": "function"
    },
    {
      "inputs": [],
      "name": "symbolImage",
      "outputs": [
        {
          "internalType": "string",
          "name": "",
          "type": "string"
        }
      ],
      "stateMutability": "view",
      "type": "function"
    },
    {
      "inputs": [],
      "name": "title",
      "outputs": [
        {
          "internalType": "string",
          "name": "",
          "type": "string"
        }
      ],
      "stateMutability": "view",
      "type": "function"
    }
  ],
  "bytecode": "0x608060405260006011553480156200001657600080fd5b506040516200169a3803806200169a83398101604081905262000039916200053d565b836000815181106200004f576200004f620006c9565b6020026020010151600290805190602001906200006e9291906200033c565b5083600181518110620000855762000085620006c9565b602002602001015160039080519060200190620000a49291906200033c565b5083600281518110620000bb57620000bb620006c9565b602002602001015160049080519060200190620000da9291906200033c565b5083600381518110620000f157620000f1620006c9565b602002602001015160059080519060200190620001109291906200033c565b5083600481518110620001275762000127620006c9565b602002602001015160069080519060200190620001469291906200033c565b50836005815181106200015d576200015d620006c9565b6020026020010151600790805190602001906200017c9291906200033c565b5082600081518110620001935762000193620006c9565b602002602001015160088190555082600181518110620001b757620001b7620006c9565b602002602001015160098190555082600281518110620001db57620001db620006c9565b6020026020010151600a8190555082600381518110620001ff57620001ff620006c9565b6020026020010151600b8190555082600481518110620002235762000223620006c9565b6020026020010151600c8190555082600581518110620002475762000247620006c9565b6020026020010151600d819055508060108190555081600081518110620002725762000272620006c9565b60200260200101516000806101000a8154816001600160a01b0302191690836001600160a01b0316021790555081600181518110620002b557620002b5620006c9565b6020908102919091010151600180546001600160a01b0319166001600160a01b039283161790556000805460408051634b88b8ad60e11b815290519190931692639711715a92600480830193919282900301818387803b1580156200031957600080fd5b505af11580156200032e573d6000803e3d6000fd5b50505050505050506200071c565b8280546200034a90620006df565b90600052602060002090601f0160209004810192826200036e5760008555620003b9565b82601f106200038957805160ff1916838001178555620003b9565b82800160010185558215620003b9579182015b82811115620003b95782518255916020019190600101906200039c565b50620003c7929150620003cb565b5090565b5b80821115620003c75760008155600101620003cc565b634e487b7160e01b600052604160045260246000fd5b604051601f8201601f191681016001600160401b0381118282101715620004235762000423620003e2565b604052919050565b60006001600160401b03821115620004475762000447620003e2565b5060051b60200190565b600082601f8301126200046357600080fd5b815160206200047c62000476836200042b565b620003f8565b82815260059290921b840181019181810190868411156200049c57600080fd5b8286015b84811015620004b95780518352918301918301620004a0565b509695505050505050565b600082601f830112620004d657600080fd5b81516020620004e962000476836200042b565b82815260059290921b840181019181810190868411156200050957600080fd5b8286015b84811015620004b95780516001600160a01b03811681146200052f5760008081fd5b83529183019183016200050d565b600080600080608085870312156200055457600080fd5b84516001600160401b03808211156200056c57600080fd5b818701915087601f8301126200058157600080fd5b815160206200059462000476836200042b565b82815260059290921b8401810191818101908b841115620005b457600080fd5b8286015b848110156200066957805186811115620005d157600080fd5b8701603f81018e13620005e357600080fd5b8481015187811115620005fa57620005fa620003e2565b6200060e601f8201601f19168701620003f8565b8181528f6040838501011115620006255760008081fd5b60005b82811015620006465783810160400151828201890152870162000628565b82811115620006585760008884840101525b5085525050918301918301620005b8565b50918a01519198509093505050808211156200068457600080fd5b620006928883890162000451565b94506040870151915080821115620006a957600080fd5b50620006b887828801620004c4565b606096909601519497939650505050565b634e487b7160e01b600052603260045260246000fd5b600181811c90821680620006f457607f821691505b602082108114156200071657634e487b7160e01b600052602260045260246000fd5b50919050565b610f6e806200072c6000396000f3fe608060405234801561001057600080fd5b506004361061014d5760003560e01c806356975b84116100c3578063badf822b1161007c578063badf822b1461026b578063c24a0f8b1461027e578063c557b98514610287578063d71454451461028f578063e3b4c0d114610298578063ef430aa6146102bb57600080fd5b806356975b841461020a57806357ded9c9146102135780635af36e3e1461021c5780636c9fa59e1461022f5780637284e4161461025a578063a5cb24401461026257600080fd5b80633f407b84116101155780633f407b84146101ae5780634a4ebc3d146101b75780634a79d50c146101bf5780634afdd0e7146101c75780634e71d92d146101d05780634e772479146101d857600080fd5b806303e5979d146101525780630b97bc8614610170578063129874aa1461018757806327d0d52d1461019c57806328f8692b146101a5575b600080fd5b61015a6102c3565b6040516101679190610d7c565b60405180910390f35b610179600b5481565b604051908152602001610167565b61019a610195366004610dd1565b610351565b005b61017960085481565b610179600f5481565b61017960105481565b61015a6105ae565b61015a6105bb565b61017960095481565b61019a6105c8565b6101eb6101e6366004610df3565b61078e565b6040805193151584526020840192909252151590820152606001610167565b610179600e5481565b610179600a5481565b61019a61022a366004610dd1565b6109cf565b600054610242906001600160a01b031681565b6040516001600160a01b039091168152602001610167565b61015a610b63565b610179600d5481565b600154610242906001600160a01b031681565b610179600c5481565b61015a610b70565b61017960115481565b6102ab6102a6366004610e23565b610b7d565b6040519015158152602001610167565b61015a610d6f565b600580546102d090610e3c565b80601f01602080910402602001604051908101604052809291908181526020018280546102fc90610e3c565b80156103495780601f1061031e57610100808354040283529160200191610349565b820191906000526020600020905b81548152906001019060200180831161032c57829003601f168201915b505050505081565b6000821161039d5760405162461bcd60e51b815260206004820152601460248201527353656e7420616d6f756e74206973207a65726f2160601b60448201526064015b60405180910390fd5b6103a9426103e8610e8d565b600b54106103f25760405162461bcd60e51b81526020600482015260166024820152754974206861736e27742073746172746564207965742160501b6044820152606401610394565b6103fe426103e8610e8d565b600c541161043c5760405162461bcd60e51b815260206004820152600b60248201526a54696d652069732075702160a81b6044820152606401610394565b6001546040516323b872dd60e01b8152336004820152306024820152604481018490526001600160a01b03909116906323b872dd906064016020604051808303816000875af1158015610493573d6000803e3d6000fd5b505050506040513d601f19601f820116820180604052508101906104b79190610eac565b5060005460405163a9059cbb60e01b8152336004820152602481018390526001600160a01b039091169063a9059cbb906044016020604051808303816000875af1158015610509573d6000803e3d6000fd5b505050506040513d601f19601f8201168201806040525081019061052d9190610eac565b5081601160008282546105409190610ece565b909155505033600081815260136020908152604091829020805460ff19166001179055815130815290810185905290810183905260608101919091527fff871a9ae5845a29b42a0cadf1d60e02e4ff529db54de46b045d457bdbc1a0e7906080015b60405180910390a15050565b600780546102d090610e3c565b600280546102d090610e3c565b6000806105d43361078e565b5091509150811580156105e75750600081115b6106225760405162461bcd60e51b815260206004820152600c60248201526b436c61696d204572726f722160a01b6044820152606401610394565b60015460405163a9059cbb60e01b8152336004820152602481018390526001600160a01b039091169063a9059cbb906044016020604051808303816000875af1158015610673573d6000803e3d6000fd5b505050506040513d601f19601f820116820180604052508101906106979190610eac565b5080600e60008282546106aa9190610ee6565b909155505033600090815260126020908152604080832083548251632a1cd6c360e11b81529251600195929492936001600160a01b0390921692635439ad8692600480820193918290030181865afa15801561070a573d6000803e3d6000fd5b505050506040513d601f19601f8201168201806040525081019061072e9190610efd565b81526020808201929092526040908101600020805460ff191693151593909317909255815130815290810183905233918101919091527f7e6632ca16a0ac6cf28448500b1a17d96c8b8163ad4c4a9b44ef5386cc02779e906060016105a2565b6001600160a01b03808216600090815260126020908152604080832083548251632a1cd6c360e11b815292519495869586958695869490931692635439ad8692600480830193928290030181865afa1580156107ee573d6000803e3d6000fd5b505050506040513d601f19601f820116820180604052508101906108129190610efd565b8152602081019190915260400160009081205460ff169150816109a6576000805460408051632a1cd6c360e11b815290516001600160a01b0390921691634ee2cd7e918a918491635439ad869160048083019260209291908290030181865afa158015610883573d6000803e3d6000fd5b505050506040513d601f19601f820116820180604052508101906108a79190610efd565b6040516001600160e01b031960e085901b1681526001600160a01b0390921660048301526024820152604401602060405180830381865afa1580156108f0573d6000803e3d6000fd5b505050506040513d601f19601f820116820180604052508101906109149190610efd565b905060008054906101000a90046001600160a01b03166001600160a01b03166318160ddd6040518163ffffffff1660e01b8152600401602060405180830381865afa158015610967573d6000803e3d6000fd5b505050506040513d601f19601f8201168201806040525081019061098b9190610efd565b600f546109989083610e8d565b6109a29190610f16565b9150505b6001600160a01b0395909516600090815260136020526040902054909560ff9091169350915050565b60008211610a165760405162461bcd60e51b815260206004820152601460248201527353656e7420616d6f756e74206973207a65726f2160601b6044820152606401610394565b6000546040516323b872dd60e01b8152336004820152306024820152604481018490526001600160a01b03909116906323b872dd906064016020604051808303816000875af1158015610a6d573d6000803e3d6000fd5b505050506040513d601f19601f82011682018060405250810190610a919190610eac565b5060015460405163a9059cbb60e01b8152336004820152602481018390526001600160a01b039091169063a9059cbb906044016020604051808303816000875af1158015610ae3573d6000803e3d6000fd5b505050506040513d601f19601f82011682018060405250810190610b079190610eac565b508060116000828254610b1a9190610ee6565b909155505060408051308152602081018390529081018390523360608201527f89adc23bf21dbf8bb4327dc5b14ecd94b350f7a3d641dfb559767f700e237872906080016105a2565b600380546102d090610e3c565b600680546102d090610e3c565b6000808211610bc55760405162461bcd60e51b815260206004820152601460248201527373656e7420616d6f756e74206973207a65726f2160601b6044820152606401610394565b600e5415610c4857600154600e5460405163a9059cbb60e01b815233600482015260248101919091526001600160a01b039091169063a9059cbb906044016020604051808303816000875af1158015610c22573d6000803e3d6000fd5b505050506040513d601f19601f82011682018060405250810190610c469190610eac565b505b6001546040516323b872dd60e01b8152336004820152306024820152604481018490526001600160a01b03909116906323b872dd906064016020604051808303816000875af1158015610c9f573d6000803e3d6000fd5b505050506040513d601f19601f82011682018060405250810190610cc39190610eac565b50600e829055600f8290556000805460408051634b88b8ad60e11b815290516001600160a01b0390921692639711715a9260048084019382900301818387803b158015610d0f57600080fd5b505af1158015610d23573d6000803e3d6000fd5b50506040805130815260208101869052338183015290517f1f333b8f778a40c6385546d263a84ef38c89f2ce5bfb25d8a1f4f66b53c96f349350908190036060019150a1506001919050565b600480546102d090610e3c565b600060208083528351808285015260005b81811015610da957858101830151858201604001528201610d8d565b81811115610dbb576000604083870101525b50601f01601f1916929092016040019392505050565b60008060408385031215610de457600080fd5b50508035926020909101359150565b600060208284031215610e0557600080fd5b81356001600160a01b0381168114610e1c57600080fd5b9392505050565b600060208284031215610e3557600080fd5b5035919050565b600181811c90821680610e5057607f821691505b60208210811415610e7157634e487b7160e01b600052602260045260246000fd5b50919050565b634e487b7160e01b600052601160045260246000fd5b6000816000190483118215151615610ea757610ea7610e77565b500290565b600060208284031215610ebe57600080fd5b81518015158114610e1c57600080fd5b60008219821115610ee157610ee1610e77565b500190565b600082821015610ef857610ef8610e77565b500390565b600060208284031215610f0f57600080fd5b5051919050565b600082610f3357634e487b7160e01b600052601260045260246000fd5b50049056fea2646970667358221220eabc5569d883b6252d8f4aa33812edf8125e0873f2a36c90dfbfa3727a28a86064736f6c634300080a0033",
  "linkReferences": {},
  "deployedLinkReferences": {}
}