{
  "_format": "hh-sol-artifact-1",
  "contractName": "Project",
  "sourceName": "contracts/Project.sol",
  "abi": [
    {
      "inputs": [
        {
          "internalType": "string[]",
          "name": "_infoST",
          "type": "string[]"
        },
        {
          "internalType": "uint256[]",
          "name": "_infoNB",
          "type": "uint256[]"
        },
        {
          "internalType": "address[]",
          "name": "_infoAD",
          "type": "address[]"
        },
        {
          "internalType": "uint256",
          "name": "_sellAmount",
          "type": "uint256"
        }
      ],
      "stateMutability": "nonpayable",
      "type": "constructor"
    },
    {
      "anonymous": false,
      "inputs": [
        {
          "indexed": false,
          "internalType": "address",
          "name": "",
          "type": "address"
        },
        {
          "indexed": false,
          "internalType": "uint256",
          "name": "",
          "type": "uint256"
        },
        {
          "indexed": false,
          "internalType": "uint256",
          "name": "",
          "type": "uint256"
        }
      ],
      "name": "Participated",
      "type": "event"
    },
    {
      "anonymous": false,
      "inputs": [
        {
          "indexed": false,
          "internalType": "address",
          "name": "",
          "type": "address"
        },
        {
          "indexed": false,
          "internalType": "uint256",
          "name": "",
          "type": "uint256"
        },
        {
          "indexed": false,
          "internalType": "uint256",
          "name": "",
          "type": "uint256"
        }
      ],
      "name": "Refund",
      "type": "event"
    },
    {
      "anonymous": false,
      "inputs": [
        {
          "indexed": false,
          "internalType": "address",
          "name": "",
          "type": "address"
        },
        {
          "indexed": false,
          "internalType": "uint256",
          "name": "",
          "type": "uint256"
        }
      ],
      "name": "claimed",
      "type": "event"
    },
    {
      "anonymous": false,
      "inputs": [
        {
          "indexed": false,
          "internalType": "address",
          "name": "",
          "type": "address"
        },
        {
          "indexed": false,
          "internalType": "uint256",
          "name": "",
          "type": "uint256"
        }
      ],
      "name": "profitDeposited",
      "type": "event"
    },
    {
      "inputs": [],
      "name": "apr",
      "outputs": [
        {
          "internalType": "uint256",
          "name": "",
          "type": "uint256"
        }
      ],
      "stateMutability": "view",
      "type": "function"
    },
    {
      "inputs": [],
      "name": "category",
      "outputs": [
        {
          "internalType": "string",
          "name": "",
          "type": "string"
        }
      ],
      "stateMutability": "view",
      "type": "function"
    },
    {
      "inputs": [],
      "name": "claim",
      "outputs": [],
      "stateMutability": "nonpayable",
      "type": "function"
    },
    {
      "inputs": [],
      "name": "depositProfitAmount",
      "outputs": [
        {
          "internalType": "uint256",
          "name": "",
          "type": "uint256"
        }
      ],
      "stateMutability": "view",
      "type": "function"
    },
    {
      "inputs": [],
      "name": "description",
      "outputs": [
        {
          "internalType": "string",
          "name": "",
          "type": "string"
        }
      ],
      "stateMutability": "view",
      "type": "function"
    },
    {
      "inputs": [],
      "name": "endDate",
      "outputs": [
        {
          "internalType": "uint256",
          "name": "",
          "type": "uint256"
        }
      ],
      "stateMutability": "view",
      "type": "function"
    },
    {
      "inputs": [],
      "name": "icon",
      "outputs": [
        {
          "internalType": "string",
          "name": "",
          "type": "string"
        }
      ],
      "stateMutability": "view",
      "type": "function"
    },
    {
      "inputs": [],
      "name": "investToken",
      "outputs": [
        {
          "internalType": "contract IERC20",
          "name": "",
          "type": "address"
        }
      ],
      "stateMutability": "view",
      "type": "function"
    },
    {
      "inputs": [],
      "name": "investTotalAmount",
      "outputs": [
        {
          "internalType": "uint256",
          "name": "",
          "type": "uint256"
        }
      ],
      "stateMutability": "view",
      "type": "function"
    },
    {
      "inputs": [
        {
          "internalType": "uint256",
          "name": "amount",
          "type": "uint256"
        }
      ],
      "name": "makeDepositProfit",
      "outputs": [
        {
          "internalType": "bool",
          "name": "",
          "type": "bool"
        }
      ],
      "stateMutability": "nonpayable",
      "type": "function"
    },
    {
      "inputs": [],
      "name": "ongoingPercent",
      "outputs": [
        {
          "internalType": "uint256",
          "name": "",
          "type": "uint256"
        }
      ],
      "stateMutability": "view",
      "type": "function"
    },
    {
      "inputs": [
        {
          "internalType": "uint256",
          "name": "investAmount",
          "type": "uint256"
        },
        {
          "internalType": "uint256",
          "name": "shareAmount",
          "type": "uint256"
        }
      ],
      "name": "participate",
      "outputs": [],
      "stateMutability": "nonpayable",
      "type": "function"
    },
    {
      "inputs": [
        {
          "internalType": "address",
          "name": "_userAddr",
          "type": "address"
        }
      ],
      "name": "profitWalletAmountCheck",
      "outputs": [
        {
          "internalType": "bool",
          "name": "",
          "type": "bool"
        },
        {
          "internalType": "uint256",
          "name": "",
          "type": "uint256"
        }
      ],
      "stateMutability": "view",
      "type": "function"
    },
    {
      "inputs": [],
      "name": "projectWebsite",
      "outputs": [
        {
          "internalType": "string",
          "name": "",
          "type": "string"
        }
      ],
      "stateMutability": "view",
      "type": "function"
    },
    {
      "inputs": [
        {
          "internalType": "uint256",
          "name": "shareAmount",
          "type": "uint256"
        },
        {
          "internalType": "uint256",
          "name": "investAmount",
          "type": "uint256"
        }
      ],
      "name": "refund",
      "outputs": [],
      "stateMutability": "nonpayable",
      "type": "function"
    },
    {
      "inputs": [],
      "name": "roi",
      "outputs": [
        {
          "internalType": "uint256",
          "name": "",
          "type": "uint256"
        }
      ],
      "stateMutability": "view",
      "type": "function"
    },
    {
      "inputs": [],
      "name": "sellAmount",
      "outputs": [
        {
          "internalType": "uint256",
          "name": "",
          "type": "uint256"
        }
      ],
      "stateMutability": "view",
      "type": "function"
    },
    {
      "inputs": [],
      "name": "shareToken",
      "outputs": [
        {
          "internalType": "contract IERC20",
          "name": "",
          "type": "address"
        }
      ],
      "stateMutability": "view",
      "type": "function"
    },
    {
      "inputs": [],
      "name": "shareTokenPrice",
      "outputs": [
        {
          "internalType": "uint256",
          "name": "",
          "type": "uint256"
        }
      ],
      "stateMutability": "view",
      "type": "function"
    },
    {
      "inputs": [],
      "name": "startDate",
      "outputs": [
        {
          "internalType": "uint256",
          "name": "",
          "type": "uint256"
        }
      ],
      "stateMutability": "view",
      "type": "function"
    },
    {
      "inputs": [],
      "name": "symbolImage",
      "outputs": [
        {
          "internalType": "string",
          "name": "",
          "type": "string"
        }
      ],
      "stateMutability": "view",
      "type": "function"
    },
    {
      "inputs": [],
      "name": "title",
      "outputs": [
        {
          "internalType": "string",
          "name": "",
          "type": "string"
        }
      ],
      "stateMutability": "view",
      "type": "function"
    }
  ],
  "bytecode": "0x608060405260006010553480156200001657600080fd5b506040516200163e3803806200163e83398101604081905262000039916200053d565b836000815181106200004f576200004f620006c9565b6020026020010151600290805190602001906200006e9291906200033c565b5083600181518110620000855762000085620006c9565b602002602001015160039080519060200190620000a49291906200033c565b5083600281518110620000bb57620000bb620006c9565b602002602001015160049080519060200190620000da9291906200033c565b5083600381518110620000f157620000f1620006c9565b602002602001015160059080519060200190620001109291906200033c565b5083600481518110620001275762000127620006c9565b602002602001015160069080519060200190620001469291906200033c565b50836005815181106200015d576200015d620006c9565b6020026020010151600790805190602001906200017c9291906200033c565b5082600081518110620001935762000193620006c9565b602002602001015160088190555082600181518110620001b757620001b7620006c9565b602002602001015160098190555082600281518110620001db57620001db620006c9565b6020026020010151600a8190555082600381518110620001ff57620001ff620006c9565b6020026020010151600b8190555082600481518110620002235762000223620006c9565b6020026020010151600c8190555082600581518110620002475762000247620006c9565b6020026020010151600d8190555080600f8190555081600081518110620002725762000272620006c9565b60200260200101516000806101000a8154816001600160a01b0302191690836001600160a01b0316021790555081600181518110620002b557620002b5620006c9565b6020908102919091010151600180546001600160a01b0319166001600160a01b039283161790556000805460408051634b88b8ad60e11b815290519190931692639711715a92600480830193919282900301818387803b1580156200031957600080fd5b505af11580156200032e573d6000803e3d6000fd5b50505050505050506200071c565b8280546200034a90620006df565b90600052602060002090601f0160209004810192826200036e5760008555620003b9565b82601f106200038957805160ff1916838001178555620003b9565b82800160010185558215620003b9579182015b82811115620003b95782518255916020019190600101906200039c565b50620003c7929150620003cb565b5090565b5b80821115620003c75760008155600101620003cc565b634e487b7160e01b600052604160045260246000fd5b604051601f8201601f191681016001600160401b0381118282101715620004235762000423620003e2565b604052919050565b60006001600160401b03821115620004475762000447620003e2565b5060051b60200190565b600082601f8301126200046357600080fd5b815160206200047c62000476836200042b565b620003f8565b82815260059290921b840181019181810190868411156200049c57600080fd5b8286015b84811015620004b95780518352918301918301620004a0565b509695505050505050565b600082601f830112620004d657600080fd5b81516020620004e962000476836200042b565b82815260059290921b840181019181810190868411156200050957600080fd5b8286015b84811015620004b95780516001600160a01b03811681146200052f5760008081fd5b83529183019183016200050d565b600080600080608085870312156200055457600080fd5b84516001600160401b03808211156200056c57600080fd5b818701915087601f8301126200058157600080fd5b815160206200059462000476836200042b565b82815260059290921b8401810191818101908b841115620005b457600080fd5b8286015b848110156200066957805186811115620005d157600080fd5b8701603f81018e13620005e357600080fd5b8481015187811115620005fa57620005fa620003e2565b6200060e601f8201601f19168701620003f8565b8181528f6040838501011115620006255760008081fd5b60005b82811015620006465783810160400151828201890152870162000628565b82811115620006585760008884840101525b5085525050918301918301620005b8565b50918a01519198509093505050808211156200068457600080fd5b620006928883890162000451565b94506040870151915080821115620006a957600080fd5b50620006b887828801620004c4565b606096909601519497939650505050565b634e487b7160e01b600052603260045260246000fd5b600181811c90821680620006f457607f821691505b602082108114156200071657634e487b7160e01b600052602260045260246000fd5b50919050565b610f12806200072c6000396000f3fe608060405234801561001057600080fd5b50600436106101425760003560e01c806357ded9c9116100b8578063badf822b1161007c578063badf822b1461024f578063c24a0f8b14610262578063c557b9851461026b578063d714544514610273578063e3b4c0d11461027c578063ef430aa61461029f57600080fd5b806357ded9c9146101f75780635af36e3e146102005780636c9fa59e146102135780637284e4161461023e578063a5cb24401461024657600080fd5b80634a4ebc3d1161010a5780634a4ebc3d146101a35780634a79d50c146101ab5780634afdd0e7146101b35780634e71d92d146101bc5780634e772479146101c457806356975b84146101ee57600080fd5b806303e5979d146101475780630b97bc8614610165578063129874aa1461017c57806327d0d52d146101915780633f407b841461019a575b600080fd5b61014f6102a7565b60405161015c9190610d20565b60405180910390f35b61016e600b5481565b60405190815260200161015c565b61018f61018a366004610d75565b610335565b005b61016e60085481565b61016e600f5481565b61014f61056f565b61014f61057c565b61016e60095481565b61018f610589565b6101d76101d2366004610d97565b610744565b60408051921515835260208301919091520161015c565b61016e600e5481565b61016e600a5481565b61018f61020e366004610d75565b610984565b600054610226906001600160a01b031681565b6040516001600160a01b03909116815260200161015c565b61014f610b12565b61016e600d5481565b600154610226906001600160a01b031681565b61016e600c5481565b61014f610b1f565b61016e60105481565b61028f61028a366004610dc7565b610b2c565b604051901515815260200161015c565b61014f610d13565b600580546102b490610de0565b80601f01602080910402602001604051908101604052809291908181526020018280546102e090610de0565b801561032d5780601f106103025761010080835404028352916020019161032d565b820191906000526020600020905b81548152906001019060200180831161031057829003601f168201915b505050505081565b600082116103815760405162461bcd60e51b815260206004820152601460248201527353656e7420616d6f756e74206973207a65726f2160601b60448201526064015b60405180910390fd5b61038d426103e8610e31565b600b54106103d65760405162461bcd60e51b81526020600482015260166024820152754974206861736e27742073746172746564207965742160501b6044820152606401610378565b6103e2426103e8610e31565b600c54116104205760405162461bcd60e51b815260206004820152600b60248201526a54696d652069732075702160a81b6044820152606401610378565b6001546040516323b872dd60e01b8152336004820152306024820152604481018490526001600160a01b03909116906323b872dd906064016020604051808303816000875af1158015610477573d6000803e3d6000fd5b505050506040513d601f19601f8201168201806040525081019061049b9190610e50565b5060005460405163a9059cbb60e01b8152336004820152602481018390526001600160a01b039091169063a9059cbb906044016020604051808303816000875af11580156104ed573d6000803e3d6000fd5b505050506040513d601f19601f820116820180604052508101906105119190610e50565b5081601060008282546105249190610e72565b909155505060408051308152602081018490529081018290527f64ceaa25376a606505a20223863437c73f24c3d44eca9912c49197b4aea536a4906060015b60405180910390a15050565b600780546102b490610de0565b600280546102b490610de0565b60008061059533610744565b91509150811580156105a75750600081115b6105e25760405162461bcd60e51b815260206004820152600c60248201526b436c61696d204572726f722160a01b6044820152606401610378565b60015460405163a9059cbb60e01b8152336004820152602481018390526001600160a01b039091169063a9059cbb906044016020604051808303816000875af1158015610633573d6000803e3d6000fd5b505050506040513d601f19601f820116820180604052508101906106579190610e50565b5080600e600082825461066a9190610e8a565b909155505033600090815260116020908152604080832083548251632a1cd6c360e11b81529251600195929492936001600160a01b0390921692635439ad8692600480820193918290030181865afa1580156106ca573d6000803e3d6000fd5b505050506040513d601f19601f820116820180604052508101906106ee9190610ea1565b81526020808201929092526040908101600020805460ff19169315159390931790925581513081529081018390527f4dd6c8de072db5939c4dc757de920d64bcbef063a41150ae51deb4f125032ddf9101610563565b600080600060116000856001600160a01b03166001600160a01b0316815260200190815260200160002060008060009054906101000a90046001600160a01b03166001600160a01b0316635439ad866040518163ffffffff1660e01b8152600401602060405180830381865afa1580156107c2573d6000803e3d6000fd5b505050506040513d601f19601f820116820180604052508101906107e69190610ea1565b8152602081019190915260400160009081205460ff1691508161097a576000805460408051632a1cd6c360e11b815290516001600160a01b0390921691634ee2cd7e9189918491635439ad869160048083019260209291908290030181865afa158015610857573d6000803e3d6000fd5b505050506040513d601f19601f8201168201806040525081019061087b9190610ea1565b6040516001600160e01b031960e085901b1681526001600160a01b0390921660048301526024820152604401602060405180830381865afa1580156108c4573d6000803e3d6000fd5b505050506040513d601f19601f820116820180604052508101906108e89190610ea1565b905060008054906101000a90046001600160a01b03166001600160a01b03166318160ddd6040518163ffffffff1660e01b8152600401602060405180830381865afa15801561093b573d6000803e3d6000fd5b505050506040513d601f19601f8201168201806040525081019061095f9190610ea1565b600e5461096c9083610e31565b6109769190610eba565b9150505b9094909350915050565b600082116109cb5760405162461bcd60e51b815260206004820152601460248201527353656e7420616d6f756e74206973207a65726f2160601b6044820152606401610378565b6000546040516323b872dd60e01b8152336004820152306024820152604481018490526001600160a01b03909116906323b872dd906064016020604051808303816000875af1158015610a22573d6000803e3d6000fd5b505050506040513d601f19601f82011682018060405250810190610a469190610e50565b5060015460405163a9059cbb60e01b8152336004820152602481018390526001600160a01b039091169063a9059cbb906044016020604051808303816000875af1158015610a98573d6000803e3d6000fd5b505050506040513d601f19601f82011682018060405250810190610abc9190610e50565b508060106000828254610acf9190610e8a565b909155505060408051308152602081018390529081018390527f73f04af9dcc582a923ec15d3eea990fe34adabfff2879e28d44572e01a54abb690606001610563565b600380546102b490610de0565b600680546102b490610de0565b6000808211610b745760405162461bcd60e51b815260206004820152601460248201527373656e7420616d6f756e74206973207a65726f2160601b6044820152606401610378565b600e5415610bf757600154600e5460405163a9059cbb60e01b815233600482015260248101919091526001600160a01b039091169063a9059cbb906044016020604051808303816000875af1158015610bd1573d6000803e3d6000fd5b505050506040513d601f19601f82011682018060405250810190610bf59190610e50565b505b6001546040516323b872dd60e01b8152336004820152306024820152604481018490526001600160a01b03909116906323b872dd906064016020604051808303816000875af1158015610c4e573d6000803e3d6000fd5b505050506040513d601f19601f82011682018060405250810190610c729190610e50565b50600e8290556000805460408051634b88b8ad60e11b815290516001600160a01b0390921692639711715a9260048084019382900301818387803b158015610cb957600080fd5b505af1158015610ccd573d6000803e3d6000fd5b505060408051308152602081018690527f4b7f2938295099ab0b6b02f81858c03c95a65051e2e030f8dc59ccbb40f50a0d935001905060405180910390a1506001919050565b600480546102b490610de0565b600060208083528351808285015260005b81811015610d4d57858101830151858201604001528201610d31565b81811115610d5f576000604083870101525b50601f01601f1916929092016040019392505050565b60008060408385031215610d8857600080fd5b50508035926020909101359150565b600060208284031215610da957600080fd5b81356001600160a01b0381168114610dc057600080fd5b9392505050565b600060208284031215610dd957600080fd5b5035919050565b600181811c90821680610df457607f821691505b60208210811415610e1557634e487b7160e01b600052602260045260246000fd5b50919050565b634e487b7160e01b600052601160045260246000fd5b6000816000190483118215151615610e4b57610e4b610e1b565b500290565b600060208284031215610e6257600080fd5b81518015158114610dc057600080fd5b60008219821115610e8557610e85610e1b565b500190565b600082821015610e9c57610e9c610e1b565b500390565b600060208284031215610eb357600080fd5b5051919050565b600082610ed757634e487b7160e01b600052601260045260246000fd5b50049056fea26469706673582212209431398c5509fe479218a508343e5f3cfead1a0010dcf899ebb3c312bfcd63ea64736f6c634300080a0033",
  "linkReferences": {},
  "deployedLinkReferences": {}
}