{
  "_format": "hh-sol-artifact-1",
  "contractName": "Project",
  "sourceName": "contracts/Project.sol",
  "abi": [
    {
      "inputs": [
        {
          "internalType": "string[]",
          "name": "_infoST",
          "type": "string[]"
        },
        {
          "internalType": "uint256[]",
          "name": "_infoNB",
          "type": "uint256[]"
        },
        {
          "internalType": "address[]",
          "name": "_infoAD",
          "type": "address[]"
        },
        {
          "internalType": "uint256",
          "name": "_sellAmount",
          "type": "uint256"
        }
      ],
      "stateMutability": "nonpayable",
      "type": "constructor"
    },
    {
      "anonymous": false,
      "inputs": [
        {
          "indexed": false,
          "internalType": "address",
          "name": "",
          "type": "address"
        },
        {
          "indexed": false,
          "internalType": "uint256",
          "name": "",
          "type": "uint256"
        },
        {
          "indexed": false,
          "internalType": "address",
          "name": "",
          "type": "address"
        }
      ],
      "name": "Claimed",
      "type": "event"
    },
    {
      "anonymous": false,
      "inputs": [
        {
          "indexed": false,
          "internalType": "address",
          "name": "",
          "type": "address"
        },
        {
          "indexed": false,
          "internalType": "uint256",
          "name": "",
          "type": "uint256"
        },
        {
          "indexed": false,
          "internalType": "uint256",
          "name": "",
          "type": "uint256"
        },
        {
          "indexed": false,
          "internalType": "address",
          "name": "",
          "type": "address"
        }
      ],
      "name": "Participated",
      "type": "event"
    },
    {
      "anonymous": false,
      "inputs": [
        {
          "indexed": false,
          "internalType": "address",
          "name": "",
          "type": "address"
        },
        {
          "indexed": false,
          "internalType": "uint256",
          "name": "",
          "type": "uint256"
        },
        {
          "indexed": false,
          "internalType": "address",
          "name": "",
          "type": "address"
        }
      ],
      "name": "ProfitDeposited",
      "type": "event"
    },
    {
      "anonymous": false,
      "inputs": [
        {
          "indexed": false,
          "internalType": "address",
          "name": "",
          "type": "address"
        },
        {
          "indexed": false,
          "internalType": "uint256",
          "name": "",
          "type": "uint256"
        },
        {
          "indexed": false,
          "internalType": "uint256",
          "name": "",
          "type": "uint256"
        },
        {
          "indexed": false,
          "internalType": "address",
          "name": "",
          "type": "address"
        }
      ],
      "name": "Refund",
      "type": "event"
    },
    {
      "inputs": [],
      "name": "apr",
      "outputs": [
        {
          "internalType": "uint256",
          "name": "",
          "type": "uint256"
        }
      ],
      "stateMutability": "view",
      "type": "function"
    },
    {
      "inputs": [],
      "name": "category",
      "outputs": [
        {
          "internalType": "string",
          "name": "",
          "type": "string"
        }
      ],
      "stateMutability": "view",
      "type": "function"
    },
    {
      "inputs": [],
      "name": "claim",
      "outputs": [],
      "stateMutability": "nonpayable",
      "type": "function"
    },
    {
      "inputs": [],
      "name": "depositProfitAmount",
      "outputs": [
        {
          "internalType": "uint256",
          "name": "",
          "type": "uint256"
        }
      ],
      "stateMutability": "view",
      "type": "function"
    },
    {
      "inputs": [],
      "name": "description",
      "outputs": [
        {
          "internalType": "string",
          "name": "",
          "type": "string"
        }
      ],
      "stateMutability": "view",
      "type": "function"
    },
    {
      "inputs": [],
      "name": "endDate",
      "outputs": [
        {
          "internalType": "uint256",
          "name": "",
          "type": "uint256"
        }
      ],
      "stateMutability": "view",
      "type": "function"
    },
    {
      "inputs": [],
      "name": "icon",
      "outputs": [
        {
          "internalType": "string",
          "name": "",
          "type": "string"
        }
      ],
      "stateMutability": "view",
      "type": "function"
    },
    {
      "inputs": [],
      "name": "investToken",
      "outputs": [
        {
          "internalType": "contract IERC20",
          "name": "",
          "type": "address"
        }
      ],
      "stateMutability": "view",
      "type": "function"
    },
    {
      "inputs": [],
      "name": "investTotalAmount",
      "outputs": [
        {
          "internalType": "uint256",
          "name": "",
          "type": "uint256"
        }
      ],
      "stateMutability": "view",
      "type": "function"
    },
    {
      "inputs": [
        {
          "internalType": "uint256",
          "name": "amount",
          "type": "uint256"
        }
      ],
      "name": "makeDepositProfit",
      "outputs": [
        {
          "internalType": "bool",
          "name": "",
          "type": "bool"
        }
      ],
      "stateMutability": "nonpayable",
      "type": "function"
    },
    {
      "inputs": [],
      "name": "ongoingPercent",
      "outputs": [
        {
          "internalType": "uint256",
          "name": "",
          "type": "uint256"
        }
      ],
      "stateMutability": "view",
      "type": "function"
    },
    {
      "inputs": [],
      "name": "originProfitAmount",
      "outputs": [
        {
          "internalType": "uint256",
          "name": "",
          "type": "uint256"
        }
      ],
      "stateMutability": "view",
      "type": "function"
    },
    {
      "inputs": [
        {
          "internalType": "uint256",
          "name": "investAmount",
          "type": "uint256"
        },
        {
          "internalType": "uint256",
          "name": "shareAmount",
          "type": "uint256"
        }
      ],
      "name": "participate",
      "outputs": [],
      "stateMutability": "nonpayable",
      "type": "function"
    },
    {
      "inputs": [
        {
          "internalType": "address",
          "name": "_userAddr",
          "type": "address"
        }
      ],
      "name": "profitWalletAmountCheck",
      "outputs": [
        {
          "internalType": "bool",
          "name": "",
          "type": "bool"
        },
        {
          "internalType": "uint256",
          "name": "",
          "type": "uint256"
        }
      ],
      "stateMutability": "view",
      "type": "function"
    },
    {
      "inputs": [],
      "name": "projectWebsite",
      "outputs": [
        {
          "internalType": "string",
          "name": "",
          "type": "string"
        }
      ],
      "stateMutability": "view",
      "type": "function"
    },
    {
      "inputs": [
        {
          "internalType": "uint256",
          "name": "shareAmount",
          "type": "uint256"
        },
        {
          "internalType": "uint256",
          "name": "investAmount",
          "type": "uint256"
        }
      ],
      "name": "refund",
      "outputs": [],
      "stateMutability": "nonpayable",
      "type": "function"
    },
    {
      "inputs": [],
      "name": "roi",
      "outputs": [
        {
          "internalType": "uint256",
          "name": "",
          "type": "uint256"
        }
      ],
      "stateMutability": "view",
      "type": "function"
    },
    {
      "inputs": [],
      "name": "sellAmount",
      "outputs": [
        {
          "internalType": "uint256",
          "name": "",
          "type": "uint256"
        }
      ],
      "stateMutability": "view",
      "type": "function"
    },
    {
      "inputs": [],
      "name": "shareToken",
      "outputs": [
        {
          "internalType": "contract IERC20",
          "name": "",
          "type": "address"
        }
      ],
      "stateMutability": "view",
      "type": "function"
    },
    {
      "inputs": [],
      "name": "shareTokenPrice",
      "outputs": [
        {
          "internalType": "uint256",
          "name": "",
          "type": "uint256"
        }
      ],
      "stateMutability": "view",
      "type": "function"
    },
    {
      "inputs": [],
      "name": "startDate",
      "outputs": [
        {
          "internalType": "uint256",
          "name": "",
          "type": "uint256"
        }
      ],
      "stateMutability": "view",
      "type": "function"
    },
    {
      "inputs": [],
      "name": "symbolImage",
      "outputs": [
        {
          "internalType": "string",
          "name": "",
          "type": "string"
        }
      ],
      "stateMutability": "view",
      "type": "function"
    },
    {
      "inputs": [],
      "name": "title",
      "outputs": [
        {
          "internalType": "string",
          "name": "",
          "type": "string"
        }
      ],
      "stateMutability": "view",
      "type": "function"
    }
  ],
  "bytecode": "0x608060405260006011553480156200001657600080fd5b50604051620016733803806200167383398101604081905262000039916200053d565b836000815181106200004f576200004f620006c9565b6020026020010151600290805190602001906200006e9291906200033c565b5083600181518110620000855762000085620006c9565b602002602001015160039080519060200190620000a49291906200033c565b5083600281518110620000bb57620000bb620006c9565b602002602001015160049080519060200190620000da9291906200033c565b5083600381518110620000f157620000f1620006c9565b602002602001015160059080519060200190620001109291906200033c565b5083600481518110620001275762000127620006c9565b602002602001015160069080519060200190620001469291906200033c565b50836005815181106200015d576200015d620006c9565b6020026020010151600790805190602001906200017c9291906200033c565b5082600081518110620001935762000193620006c9565b602002602001015160088190555082600181518110620001b757620001b7620006c9565b602002602001015160098190555082600281518110620001db57620001db620006c9565b6020026020010151600a8190555082600381518110620001ff57620001ff620006c9565b6020026020010151600b8190555082600481518110620002235762000223620006c9565b6020026020010151600c8190555082600581518110620002475762000247620006c9565b6020026020010151600d819055508060108190555081600081518110620002725762000272620006c9565b60200260200101516000806101000a8154816001600160a01b0302191690836001600160a01b0316021790555081600181518110620002b557620002b5620006c9565b6020908102919091010151600180546001600160a01b0319166001600160a01b039283161790556000805460408051634b88b8ad60e11b815290519190931692639711715a92600480830193919282900301818387803b1580156200031957600080fd5b505af11580156200032e573d6000803e3d6000fd5b50505050505050506200071c565b8280546200034a90620006df565b90600052602060002090601f0160209004810192826200036e5760008555620003b9565b82601f106200038957805160ff1916838001178555620003b9565b82800160010185558215620003b9579182015b82811115620003b95782518255916020019190600101906200039c565b50620003c7929150620003cb565b5090565b5b80821115620003c75760008155600101620003cc565b634e487b7160e01b600052604160045260246000fd5b604051601f8201601f191681016001600160401b0381118282101715620004235762000423620003e2565b604052919050565b60006001600160401b03821115620004475762000447620003e2565b5060051b60200190565b600082601f8301126200046357600080fd5b815160206200047c62000476836200042b565b620003f8565b82815260059290921b840181019181810190868411156200049c57600080fd5b8286015b84811015620004b95780518352918301918301620004a0565b509695505050505050565b600082601f830112620004d657600080fd5b81516020620004e962000476836200042b565b82815260059290921b840181019181810190868411156200050957600080fd5b8286015b84811015620004b95780516001600160a01b03811681146200052f5760008081fd5b83529183019183016200050d565b600080600080608085870312156200055457600080fd5b84516001600160401b03808211156200056c57600080fd5b818701915087601f8301126200058157600080fd5b815160206200059462000476836200042b565b82815260059290921b8401810191818101908b841115620005b457600080fd5b8286015b848110156200066957805186811115620005d157600080fd5b8701603f81018e13620005e357600080fd5b8481015187811115620005fa57620005fa620003e2565b6200060e601f8201601f19168701620003f8565b8181528f6040838501011115620006255760008081fd5b60005b82811015620006465783810160400151828201890152870162000628565b82811115620006585760008884840101525b5085525050918301918301620005b8565b50918a01519198509093505050808211156200068457600080fd5b620006928883890162000451565b94506040870151915080821115620006a957600080fd5b50620006b887828801620004c4565b606096909601519497939650505050565b634e487b7160e01b600052603260045260246000fd5b600181811c90821680620006f457607f821691505b602082108114156200071657634e487b7160e01b600052602260045260246000fd5b50919050565b610f47806200072c6000396000f3fe608060405234801561001057600080fd5b506004361061014d5760003560e01c806356975b84116100c3578063badf822b1161007c578063badf822b14610263578063c24a0f8b14610276578063c557b9851461027f578063d714544514610287578063e3b4c0d114610290578063ef430aa6146102b357600080fd5b806356975b841461020257806357ded9c91461020b5780635af36e3e146102145780636c9fa59e146102275780637284e41614610252578063a5cb24401461025a57600080fd5b80633f407b84116101155780633f407b84146101ae5780634a4ebc3d146101b75780634a79d50c146101bf5780634afdd0e7146101c75780634e71d92d146101d05780634e772479146101d857600080fd5b806303e5979d146101525780630b97bc8614610170578063129874aa1461018757806327d0d52d1461019c57806328f8692b146101a5575b600080fd5b61015a6102bb565b6040516101679190610d55565b60405180910390f35b610179600b5481565b604051908152602001610167565b61019a610195366004610daa565b610349565b005b61017960085481565b610179600f5481565b61017960105481565b61015a610589565b61015a610596565b61017960095481565b61019a6105a3565b6101eb6101e6366004610dcc565b610768565b604080519215158352602083019190915201610167565b610179600e5481565b610179600a5481565b61019a610222366004610daa565b6109a8565b60005461023a906001600160a01b031681565b6040516001600160a01b039091168152602001610167565b61015a610b3c565b610179600d5481565b60015461023a906001600160a01b031681565b610179600c5481565b61015a610b49565b61017960115481565b6102a361029e366004610dfc565b610b56565b6040519015158152602001610167565b61015a610d48565b600580546102c890610e15565b80601f01602080910402602001604051908101604052809291908181526020018280546102f490610e15565b80156103415780601f1061031657610100808354040283529160200191610341565b820191906000526020600020905b81548152906001019060200180831161032457829003601f168201915b505050505081565b600082116103955760405162461bcd60e51b815260206004820152601460248201527353656e7420616d6f756e74206973207a65726f2160601b60448201526064015b60405180910390fd5b6103a1426103e8610e66565b600b54106103ea5760405162461bcd60e51b81526020600482015260166024820152754974206861736e27742073746172746564207965742160501b604482015260640161038c565b6103f6426103e8610e66565b600c54116104345760405162461bcd60e51b815260206004820152600b60248201526a54696d652069732075702160a81b604482015260640161038c565b6001546040516323b872dd60e01b8152336004820152306024820152604481018490526001600160a01b03909116906323b872dd906064016020604051808303816000875af115801561048b573d6000803e3d6000fd5b505050506040513d601f19601f820116820180604052508101906104af9190610e85565b5060005460405163a9059cbb60e01b8152336004820152602481018390526001600160a01b039091169063a9059cbb906044016020604051808303816000875af1158015610501573d6000803e3d6000fd5b505050506040513d601f19601f820116820180604052508101906105259190610e85565b5081601160008282546105389190610ea7565b909155505060408051308152602081018490529081018290523360608201527fff871a9ae5845a29b42a0cadf1d60e02e4ff529db54de46b045d457bdbc1a0e7906080015b60405180910390a15050565b600780546102c890610e15565b600280546102c890610e15565b6000806105af33610768565b91509150811580156105c15750600081115b6105fc5760405162461bcd60e51b815260206004820152600c60248201526b436c61696d204572726f722160a01b604482015260640161038c565b60015460405163a9059cbb60e01b8152336004820152602481018390526001600160a01b039091169063a9059cbb906044016020604051808303816000875af115801561064d573d6000803e3d6000fd5b505050506040513d601f19601f820116820180604052508101906106719190610e85565b5080600e60008282546106849190610ebf565b909155505033600090815260126020908152604080832083548251632a1cd6c360e11b81529251600195929492936001600160a01b0390921692635439ad8692600480820193918290030181865afa1580156106e4573d6000803e3d6000fd5b505050506040513d601f19601f820116820180604052508101906107089190610ed6565b81526020808201929092526040908101600020805460ff191693151593909317909255815130815290810183905233918101919091527f7e6632ca16a0ac6cf28448500b1a17d96c8b8163ad4c4a9b44ef5386cc02779e9060600161057d565b600080600060126000856001600160a01b03166001600160a01b0316815260200190815260200160002060008060009054906101000a90046001600160a01b03166001600160a01b0316635439ad866040518163ffffffff1660e01b8152600401602060405180830381865afa1580156107e6573d6000803e3d6000fd5b505050506040513d601f19601f8201168201806040525081019061080a9190610ed6565b8152602081019190915260400160009081205460ff1691508161099e576000805460408051632a1cd6c360e11b815290516001600160a01b0390921691634ee2cd7e9189918491635439ad869160048083019260209291908290030181865afa15801561087b573d6000803e3d6000fd5b505050506040513d601f19601f8201168201806040525081019061089f9190610ed6565b6040516001600160e01b031960e085901b1681526001600160a01b0390921660048301526024820152604401602060405180830381865afa1580156108e8573d6000803e3d6000fd5b505050506040513d601f19601f8201168201806040525081019061090c9190610ed6565b905060008054906101000a90046001600160a01b03166001600160a01b03166318160ddd6040518163ffffffff1660e01b8152600401602060405180830381865afa15801561095f573d6000803e3d6000fd5b505050506040513d601f19601f820116820180604052508101906109839190610ed6565b600f546109909083610e66565b61099a9190610eef565b9150505b9094909350915050565b600082116109ef5760405162461bcd60e51b815260206004820152601460248201527353656e7420616d6f756e74206973207a65726f2160601b604482015260640161038c565b6000546040516323b872dd60e01b8152336004820152306024820152604481018490526001600160a01b03909116906323b872dd906064016020604051808303816000875af1158015610a46573d6000803e3d6000fd5b505050506040513d601f19601f82011682018060405250810190610a6a9190610e85565b5060015460405163a9059cbb60e01b8152336004820152602481018390526001600160a01b039091169063a9059cbb906044016020604051808303816000875af1158015610abc573d6000803e3d6000fd5b505050506040513d601f19601f82011682018060405250810190610ae09190610e85565b508060116000828254610af39190610ebf565b909155505060408051308152602081018390529081018390523360608201527f89adc23bf21dbf8bb4327dc5b14ecd94b350f7a3d641dfb559767f700e2378729060800161057d565b600380546102c890610e15565b600680546102c890610e15565b6000808211610b9e5760405162461bcd60e51b815260206004820152601460248201527373656e7420616d6f756e74206973207a65726f2160601b604482015260640161038c565b600e5415610c2157600154600e5460405163a9059cbb60e01b815233600482015260248101919091526001600160a01b039091169063a9059cbb906044016020604051808303816000875af1158015610bfb573d6000803e3d6000fd5b505050506040513d601f19601f82011682018060405250810190610c1f9190610e85565b505b6001546040516323b872dd60e01b8152336004820152306024820152604481018490526001600160a01b03909116906323b872dd906064016020604051808303816000875af1158015610c78573d6000803e3d6000fd5b505050506040513d601f19601f82011682018060405250810190610c9c9190610e85565b50600e829055600f8290556000805460408051634b88b8ad60e11b815290516001600160a01b0390921692639711715a9260048084019382900301818387803b158015610ce857600080fd5b505af1158015610cfc573d6000803e3d6000fd5b50506040805130815260208101869052338183015290517f1f333b8f778a40c6385546d263a84ef38c89f2ce5bfb25d8a1f4f66b53c96f349350908190036060019150a1506001919050565b600480546102c890610e15565b600060208083528351808285015260005b81811015610d8257858101830151858201604001528201610d66565b81811115610d94576000604083870101525b50601f01601f1916929092016040019392505050565b60008060408385031215610dbd57600080fd5b50508035926020909101359150565b600060208284031215610dde57600080fd5b81356001600160a01b0381168114610df557600080fd5b9392505050565b600060208284031215610e0e57600080fd5b5035919050565b600181811c90821680610e2957607f821691505b60208210811415610e4a57634e487b7160e01b600052602260045260246000fd5b50919050565b634e487b7160e01b600052601160045260246000fd5b6000816000190483118215151615610e8057610e80610e50565b500290565b600060208284031215610e9757600080fd5b81518015158114610df557600080fd5b60008219821115610eba57610eba610e50565b500190565b600082821015610ed157610ed1610e50565b500390565b600060208284031215610ee857600080fd5b5051919050565b600082610f0c57634e487b7160e01b600052601260045260246000fd5b50049056fea2646970667358221220e559a359f69b54065877a936f909852d595ab71cd5cd5f07148c10f12472107b64736f6c634300080a0033",
  "linkReferences": {},
  "deployedLinkReferences": {}
}