{
  "_format": "hh-sol-artifact-1",
  "contractName": "Project",
  "sourceName": "contracts/Project.sol",
  "abi": [
    {
      "inputs": [
        {
          "internalType": "string[]",
          "name": "_infoST",
          "type": "string[]"
        },
        {
          "internalType": "uint256[]",
          "name": "_infoNB",
          "type": "uint256[]"
        },
        {
          "internalType": "address[]",
          "name": "_infoAD",
          "type": "address[]"
        },
        {
          "internalType": "uint256",
          "name": "_sellAmount",
          "type": "uint256"
        }
      ],
      "stateMutability": "nonpayable",
      "type": "constructor"
    },
    {
      "anonymous": false,
      "inputs": [
        {
          "indexed": false,
          "internalType": "address",
          "name": "",
          "type": "address"
        },
        {
          "indexed": false,
          "internalType": "uint256",
          "name": "",
          "type": "uint256"
        },
        {
          "indexed": false,
          "internalType": "uint256",
          "name": "",
          "type": "uint256"
        }
      ],
      "name": "Participated",
      "type": "event"
    },
    {
      "anonymous": false,
      "inputs": [
        {
          "indexed": false,
          "internalType": "address",
          "name": "",
          "type": "address"
        },
        {
          "indexed": false,
          "internalType": "uint256",
          "name": "",
          "type": "uint256"
        },
        {
          "indexed": false,
          "internalType": "uint256",
          "name": "",
          "type": "uint256"
        }
      ],
      "name": "Refund",
      "type": "event"
    },
    {
      "anonymous": false,
      "inputs": [
        {
          "indexed": false,
          "internalType": "address",
          "name": "",
          "type": "address"
        },
        {
          "indexed": false,
          "internalType": "uint256",
          "name": "",
          "type": "uint256"
        }
      ],
      "name": "claimed",
      "type": "event"
    },
    {
      "anonymous": false,
      "inputs": [
        {
          "indexed": false,
          "internalType": "address",
          "name": "",
          "type": "address"
        },
        {
          "indexed": false,
          "internalType": "uint256",
          "name": "",
          "type": "uint256"
        }
      ],
      "name": "profitDeposited",
      "type": "event"
    },
    {
      "inputs": [],
      "name": "apr",
      "outputs": [
        {
          "internalType": "uint256",
          "name": "",
          "type": "uint256"
        }
      ],
      "stateMutability": "view",
      "type": "function"
    },
    {
      "inputs": [],
      "name": "category",
      "outputs": [
        {
          "internalType": "string",
          "name": "",
          "type": "string"
        }
      ],
      "stateMutability": "view",
      "type": "function"
    },
    {
      "inputs": [],
      "name": "claim",
      "outputs": [],
      "stateMutability": "nonpayable",
      "type": "function"
    },
    {
      "inputs": [],
      "name": "depositProfitAmount",
      "outputs": [
        {
          "internalType": "uint256",
          "name": "",
          "type": "uint256"
        }
      ],
      "stateMutability": "view",
      "type": "function"
    },
    {
      "inputs": [],
      "name": "description",
      "outputs": [
        {
          "internalType": "string",
          "name": "",
          "type": "string"
        }
      ],
      "stateMutability": "view",
      "type": "function"
    },
    {
      "inputs": [],
      "name": "endDate",
      "outputs": [
        {
          "internalType": "uint256",
          "name": "",
          "type": "uint256"
        }
      ],
      "stateMutability": "view",
      "type": "function"
    },
    {
      "inputs": [],
      "name": "icon",
      "outputs": [
        {
          "internalType": "string",
          "name": "",
          "type": "string"
        }
      ],
      "stateMutability": "view",
      "type": "function"
    },
    {
      "inputs": [],
      "name": "investToken",
      "outputs": [
        {
          "internalType": "contract IERC20",
          "name": "",
          "type": "address"
        }
      ],
      "stateMutability": "view",
      "type": "function"
    },
    {
      "inputs": [],
      "name": "investTotalAmount",
      "outputs": [
        {
          "internalType": "uint256",
          "name": "",
          "type": "uint256"
        }
      ],
      "stateMutability": "view",
      "type": "function"
    },
    {
      "inputs": [
        {
          "internalType": "uint256",
          "name": "amount",
          "type": "uint256"
        }
      ],
      "name": "makeDepositProfit",
      "outputs": [
        {
          "internalType": "bool",
          "name": "",
          "type": "bool"
        }
      ],
      "stateMutability": "nonpayable",
      "type": "function"
    },
    {
      "inputs": [
        {
          "internalType": "uint256",
          "name": "investAmount",
          "type": "uint256"
        },
        {
          "internalType": "uint256",
          "name": "shareAmount",
          "type": "uint256"
        }
      ],
      "name": "participate",
      "outputs": [],
      "stateMutability": "nonpayable",
      "type": "function"
    },
    {
      "inputs": [
        {
          "internalType": "address",
          "name": "_userAddr",
          "type": "address"
        }
      ],
      "name": "profitWalletAmountCheck",
      "outputs": [
        {
          "internalType": "bool",
          "name": "",
          "type": "bool"
        },
        {
          "internalType": "uint256",
          "name": "",
          "type": "uint256"
        }
      ],
      "stateMutability": "view",
      "type": "function"
    },
    {
      "inputs": [],
      "name": "projectWebsite",
      "outputs": [
        {
          "internalType": "string",
          "name": "",
          "type": "string"
        }
      ],
      "stateMutability": "view",
      "type": "function"
    },
    {
      "inputs": [
        {
          "internalType": "uint256",
          "name": "shareAmount",
          "type": "uint256"
        },
        {
          "internalType": "uint256",
          "name": "investAmount",
          "type": "uint256"
        }
      ],
      "name": "refund",
      "outputs": [],
      "stateMutability": "nonpayable",
      "type": "function"
    },
    {
      "inputs": [],
      "name": "roi",
      "outputs": [
        {
          "internalType": "uint256",
          "name": "",
          "type": "uint256"
        }
      ],
      "stateMutability": "view",
      "type": "function"
    },
    {
      "inputs": [],
      "name": "sellAmount",
      "outputs": [
        {
          "internalType": "uint256",
          "name": "",
          "type": "uint256"
        }
      ],
      "stateMutability": "view",
      "type": "function"
    },
    {
      "inputs": [],
      "name": "shareToken",
      "outputs": [
        {
          "internalType": "contract IERC20",
          "name": "",
          "type": "address"
        }
      ],
      "stateMutability": "view",
      "type": "function"
    },
    {
      "inputs": [],
      "name": "shareTokenPrice",
      "outputs": [
        {
          "internalType": "uint256",
          "name": "",
          "type": "uint256"
        }
      ],
      "stateMutability": "view",
      "type": "function"
    },
    {
      "inputs": [],
      "name": "startDate",
      "outputs": [
        {
          "internalType": "uint256",
          "name": "",
          "type": "uint256"
        }
      ],
      "stateMutability": "view",
      "type": "function"
    },
    {
      "inputs": [],
      "name": "symbolImage",
      "outputs": [
        {
          "internalType": "string",
          "name": "",
          "type": "string"
        }
      ],
      "stateMutability": "view",
      "type": "function"
    },
    {
      "inputs": [],
      "name": "title",
      "outputs": [
        {
          "internalType": "string",
          "name": "",
          "type": "string"
        }
      ],
      "stateMutability": "view",
      "type": "function"
    }
  ],
  "bytecode": "0x60806040526000600f553480156200001657600080fd5b506040516200160638038062001606833981016040819052620000399162000519565b836000815181106200004f576200004f620006a5565b6020026020010151600290805190602001906200006e92919062000318565b5083600181518110620000855762000085620006a5565b602002602001015160039080519060200190620000a492919062000318565b5083600281518110620000bb57620000bb620006a5565b602002602001015160049080519060200190620000da92919062000318565b5083600381518110620000f157620000f1620006a5565b6020026020010151600590805190602001906200011092919062000318565b5083600481518110620001275762000127620006a5565b6020026020010151600690805190602001906200014692919062000318565b50836005815181106200015d576200015d620006a5565b6020026020010151600790805190602001906200017c92919062000318565b5082600081518110620001935762000193620006a5565b602002602001015160088190555082600181518110620001b757620001b7620006a5565b602002602001015160098190555082600281518110620001db57620001db620006a5565b6020026020010151600a8190555082600381518110620001ff57620001ff620006a5565b6020026020010151600b8190555082600481518110620002235762000223620006a5565b6020026020010151600c8190555080600e81905550816000815181106200024e576200024e620006a5565b60200260200101516000806101000a8154816001600160a01b0302191690836001600160a01b0316021790555081600181518110620002915762000291620006a5565b6020908102919091010151600180546001600160a01b0319166001600160a01b039283161790556000805460408051634b88b8ad60e11b815290519190931692639711715a92600480830193919282900301818387803b158015620002f557600080fd5b505af11580156200030a573d6000803e3d6000fd5b5050505050505050620006f8565b8280546200032690620006bb565b90600052602060002090601f0160209004810192826200034a576000855562000395565b82601f106200036557805160ff191683800117855562000395565b8280016001018555821562000395579182015b828111156200039557825182559160200191906001019062000378565b50620003a3929150620003a7565b5090565b5b80821115620003a35760008155600101620003a8565b634e487b7160e01b600052604160045260246000fd5b604051601f8201601f191681016001600160401b0381118282101715620003ff57620003ff620003be565b604052919050565b60006001600160401b03821115620004235762000423620003be565b5060051b60200190565b600082601f8301126200043f57600080fd5b8151602062000458620004528362000407565b620003d4565b82815260059290921b840181019181810190868411156200047857600080fd5b8286015b848110156200049557805183529183019183016200047c565b509695505050505050565b600082601f830112620004b257600080fd5b81516020620004c5620004528362000407565b82815260059290921b84018101918181019086841115620004e557600080fd5b8286015b84811015620004955780516001600160a01b03811681146200050b5760008081fd5b8352918301918301620004e9565b600080600080608085870312156200053057600080fd5b84516001600160401b03808211156200054857600080fd5b818701915087601f8301126200055d57600080fd5b8151602062000570620004528362000407565b82815260059290921b8401810191818101908b8411156200059057600080fd5b8286015b848110156200064557805186811115620005ad57600080fd5b8701603f81018e13620005bf57600080fd5b8481015187811115620005d657620005d6620003be565b620005ea601f8201601f19168701620003d4565b8181528f6040838501011115620006015760008081fd5b60005b82811015620006225783810160400151828201890152870162000604565b82811115620006345760008884840101525b508552505091830191830162000594565b50918a01519198509093505050808211156200066057600080fd5b6200066e888389016200042d565b945060408701519150808211156200068557600080fd5b506200069487828801620004a0565b606096909601519497939650505050565b634e487b7160e01b600052603260045260246000fd5b600181811c90821680620006d057607f821691505b60208210811415620006f257634e487b7160e01b600052602260045260246000fd5b50919050565b610efe80620007086000396000f3fe608060405234801561001057600080fd5b50600436106101375760003560e01c806356975b84116100b8578063badf822b1161007c578063badf822b1461023b578063c24a0f8b1461024e578063c557b98514610257578063d71454451461025f578063e3b4c0d114610268578063ef430aa61461028b57600080fd5b806356975b84146101e357806357ded9c9146101ec5780635af36e3e146101f55780636c9fa59e146102085780637284e4161461023357600080fd5b80634a4ebc3d116100ff5780634a4ebc3d146101985780634a79d50c146101a05780634afdd0e7146101a85780634e71d92d146101b15780634e772479146101b957600080fd5b806303e5979d1461013c5780630b97bc861461015a578063129874aa1461017157806327d0d52d146101865780633f407b841461018f575b600080fd5b610144610293565b6040516101519190610d0c565b60405180910390f35b610163600b5481565b604051908152602001610151565b61018461017f366004610d61565b610321565b005b61016360085481565b610163600e5481565b61014461055b565b610144610568565b61016360095481565b610184610575565b6101cc6101c7366004610d83565b610730565b604080519215158352602083019190915201610151565b610163600d5481565b610163600a5481565b610184610203366004610d61565b610970565b60005461021b906001600160a01b031681565b6040516001600160a01b039091168152602001610151565b610144610afe565b60015461021b906001600160a01b031681565b610163600c5481565b610144610b0b565b610163600f5481565b61027b610276366004610db3565b610b18565b6040519015158152602001610151565b610144610cff565b600580546102a090610dcc565b80601f01602080910402602001604051908101604052809291908181526020018280546102cc90610dcc565b80156103195780601f106102ee57610100808354040283529160200191610319565b820191906000526020600020905b8154815290600101906020018083116102fc57829003601f168201915b505050505081565b6000821161036d5760405162461bcd60e51b815260206004820152601460248201527353656e7420616d6f756e74206973207a65726f2160601b60448201526064015b60405180910390fd5b610379426103e8610e1d565b600b54106103c25760405162461bcd60e51b81526020600482015260166024820152754974206861736e27742073746172746564207965742160501b6044820152606401610364565b6103ce426103e8610e1d565b600c541161040c5760405162461bcd60e51b815260206004820152600b60248201526a54696d652069732075702160a81b6044820152606401610364565b6001546040516323b872dd60e01b8152336004820152306024820152604481018490526001600160a01b03909116906323b872dd906064016020604051808303816000875af1158015610463573d6000803e3d6000fd5b505050506040513d601f19601f820116820180604052508101906104879190610e3c565b5060005460405163a9059cbb60e01b8152336004820152602481018390526001600160a01b039091169063a9059cbb906044016020604051808303816000875af11580156104d9573d6000803e3d6000fd5b505050506040513d601f19601f820116820180604052508101906104fd9190610e3c565b5081600f60008282546105109190610e5e565b909155505060408051308152602081018490529081018290527f64ceaa25376a606505a20223863437c73f24c3d44eca9912c49197b4aea536a4906060015b60405180910390a15050565b600780546102a090610dcc565b600280546102a090610dcc565b60008061058133610730565b91509150811580156105935750600081115b6105ce5760405162461bcd60e51b815260206004820152600c60248201526b436c61696d204572726f722160a01b6044820152606401610364565b60015460405163a9059cbb60e01b8152336004820152602481018390526001600160a01b039091169063a9059cbb906044016020604051808303816000875af115801561061f573d6000803e3d6000fd5b505050506040513d601f19601f820116820180604052508101906106439190610e3c565b5080600d60008282546106569190610e76565b909155505033600090815260106020908152604080832083548251632a1cd6c360e11b81529251600195929492936001600160a01b0390921692635439ad8692600480820193918290030181865afa1580156106b6573d6000803e3d6000fd5b505050506040513d601f19601f820116820180604052508101906106da9190610e8d565b81526020808201929092526040908101600020805460ff19169315159390931790925581513081529081018390527f4dd6c8de072db5939c4dc757de920d64bcbef063a41150ae51deb4f125032ddf910161054f565b600080600060106000856001600160a01b03166001600160a01b0316815260200190815260200160002060008060009054906101000a90046001600160a01b03166001600160a01b0316635439ad866040518163ffffffff1660e01b8152600401602060405180830381865afa1580156107ae573d6000803e3d6000fd5b505050506040513d601f19601f820116820180604052508101906107d29190610e8d565b8152602081019190915260400160009081205460ff16915081610966576000805460408051632a1cd6c360e11b815290516001600160a01b0390921691634ee2cd7e9189918491635439ad869160048083019260209291908290030181865afa158015610843573d6000803e3d6000fd5b505050506040513d601f19601f820116820180604052508101906108679190610e8d565b6040516001600160e01b031960e085901b1681526001600160a01b0390921660048301526024820152604401602060405180830381865afa1580156108b0573d6000803e3d6000fd5b505050506040513d601f19601f820116820180604052508101906108d49190610e8d565b905060008054906101000a90046001600160a01b03166001600160a01b03166318160ddd6040518163ffffffff1660e01b8152600401602060405180830381865afa158015610927573d6000803e3d6000fd5b505050506040513d601f19601f8201168201806040525081019061094b9190610e8d565b600d546109589083610e1d565b6109629190610ea6565b9150505b9094909350915050565b600082116109b75760405162461bcd60e51b815260206004820152601460248201527353656e7420616d6f756e74206973207a65726f2160601b6044820152606401610364565b6000546040516323b872dd60e01b8152336004820152306024820152604481018490526001600160a01b03909116906323b872dd906064016020604051808303816000875af1158015610a0e573d6000803e3d6000fd5b505050506040513d601f19601f82011682018060405250810190610a329190610e3c565b5060015460405163a9059cbb60e01b8152336004820152602481018390526001600160a01b039091169063a9059cbb906044016020604051808303816000875af1158015610a84573d6000803e3d6000fd5b505050506040513d601f19601f82011682018060405250810190610aa89190610e3c565b5080600f6000828254610abb9190610e76565b909155505060408051308152602081018390529081018390527f73f04af9dcc582a923ec15d3eea990fe34adabfff2879e28d44572e01a54abb69060600161054f565b600380546102a090610dcc565b600680546102a090610dcc565b6000808211610b605760405162461bcd60e51b815260206004820152601460248201527373656e7420616d6f756e74206973207a65726f2160601b6044820152606401610364565b600d5415610be357600154600d5460405163a9059cbb60e01b815233600482015260248101919091526001600160a01b039091169063a9059cbb906044016020604051808303816000875af1158015610bbd573d6000803e3d6000fd5b505050506040513d601f19601f82011682018060405250810190610be19190610e3c565b505b6001546040516323b872dd60e01b8152336004820152306024820152604481018490526001600160a01b03909116906323b872dd906064016020604051808303816000875af1158015610c3a573d6000803e3d6000fd5b505050506040513d601f19601f82011682018060405250810190610c5e9190610e3c565b50600d8290556000805460408051634b88b8ad60e11b815290516001600160a01b0390921692639711715a9260048084019382900301818387803b158015610ca557600080fd5b505af1158015610cb9573d6000803e3d6000fd5b505060408051308152602081018690527f4b7f2938295099ab0b6b02f81858c03c95a65051e2e030f8dc59ccbb40f50a0d935001905060405180910390a1506001919050565b600480546102a090610dcc565b600060208083528351808285015260005b81811015610d3957858101830151858201604001528201610d1d565b81811115610d4b576000604083870101525b50601f01601f1916929092016040019392505050565b60008060408385031215610d7457600080fd5b50508035926020909101359150565b600060208284031215610d9557600080fd5b81356001600160a01b0381168114610dac57600080fd5b9392505050565b600060208284031215610dc557600080fd5b5035919050565b600181811c90821680610de057607f821691505b60208210811415610e0157634e487b7160e01b600052602260045260246000fd5b50919050565b634e487b7160e01b600052601160045260246000fd5b6000816000190483118215151615610e3757610e37610e07565b500290565b600060208284031215610e4e57600080fd5b81518015158114610dac57600080fd5b60008219821115610e7157610e71610e07565b500190565b600082821015610e8857610e88610e07565b500390565b600060208284031215610e9f57600080fd5b5051919050565b600082610ec357634e487b7160e01b600052601260045260246000fd5b50049056fea2646970667358221220527fa102c283b55e36a1c90ed5ad5ef365b4770a19efb52604b2ad2b9952dee764736f6c634300080a0033",
  "linkReferences": {},
  "deployedLinkReferences": {}
}