{
  "_format": "hh-sol-artifact-1",
  "contractName": "Project",
  "sourceName": "contracts/Project.sol",
  "abi": [
    {
      "inputs": [
        {
          "internalType": "string[]",
          "name": "_infoST",
          "type": "string[]"
        },
        {
          "internalType": "uint256[]",
          "name": "_infoNB",
          "type": "uint256[]"
        },
        {
          "internalType": "address[]",
          "name": "_infoAD",
          "type": "address[]"
        },
        {
          "internalType": "uint256",
          "name": "_sellAmount",
          "type": "uint256"
        }
      ],
      "stateMutability": "nonpayable",
      "type": "constructor"
    },
    {
      "anonymous": false,
      "inputs": [
        {
          "indexed": false,
          "internalType": "address",
          "name": "user",
          "type": "address"
        },
        {
          "indexed": false,
          "internalType": "bool",
          "name": "isAuthorized",
          "type": "bool"
        }
      ],
      "name": "AuthorizationChanged",
      "type": "event"
    },
    {
      "anonymous": false,
      "inputs": [
        {
          "indexed": false,
          "internalType": "address",
          "name": "",
          "type": "address"
        },
        {
          "indexed": false,
          "internalType": "uint256",
          "name": "",
          "type": "uint256"
        },
        {
          "indexed": false,
          "internalType": "address",
          "name": "",
          "type": "address"
        }
      ],
      "name": "Claimed",
      "type": "event"
    },
    {
      "anonymous": false,
      "inputs": [
        {
          "indexed": false,
          "internalType": "address",
          "name": "",
          "type": "address"
        },
        {
          "indexed": false,
          "internalType": "uint256",
          "name": "",
          "type": "uint256"
        },
        {
          "indexed": false,
          "internalType": "uint256",
          "name": "",
          "type": "uint256"
        },
        {
          "indexed": false,
          "internalType": "address",
          "name": "",
          "type": "address"
        }
      ],
      "name": "Participated",
      "type": "event"
    },
    {
      "anonymous": false,
      "inputs": [
        {
          "indexed": false,
          "internalType": "address",
          "name": "",
          "type": "address"
        },
        {
          "indexed": false,
          "internalType": "uint256",
          "name": "",
          "type": "uint256"
        },
        {
          "indexed": false,
          "internalType": "address",
          "name": "",
          "type": "address"
        }
      ],
      "name": "ProfitDeposited",
      "type": "event"
    },
    {
      "anonymous": false,
      "inputs": [
        {
          "indexed": false,
          "internalType": "address",
          "name": "",
          "type": "address"
        },
        {
          "indexed": false,
          "internalType": "uint256",
          "name": "",
          "type": "uint256"
        },
        {
          "indexed": false,
          "internalType": "uint256",
          "name": "",
          "type": "uint256"
        },
        {
          "indexed": false,
          "internalType": "address",
          "name": "",
          "type": "address"
        }
      ],
      "name": "Refund",
      "type": "event"
    },
    {
      "inputs": [
        {
          "internalType": "address",
          "name": "user",
          "type": "address"
        }
      ],
      "name": "addAuthorizedUser",
      "outputs": [],
      "stateMutability": "nonpayable",
      "type": "function"
    },
    {
      "inputs": [
        {
          "internalType": "address",
          "name": "",
          "type": "address"
        }
      ],
      "name": "authorizedUsers",
      "outputs": [
        {
          "internalType": "bool",
          "name": "",
          "type": "bool"
        }
      ],
      "stateMutability": "view",
      "type": "function"
    },
    {
      "inputs": [],
      "name": "category",
      "outputs": [
        {
          "internalType": "string",
          "name": "",
          "type": "string"
        }
      ],
      "stateMutability": "view",
      "type": "function"
    },
    {
      "inputs": [],
      "name": "claim",
      "outputs": [],
      "stateMutability": "nonpayable",
      "type": "function"
    },
    {
      "inputs": [],
      "name": "claimInvestEarn",
      "outputs": [],
      "stateMutability": "nonpayable",
      "type": "function"
    },
    {
      "inputs": [],
      "name": "depositProfitAmount",
      "outputs": [
        {
          "internalType": "uint256",
          "name": "",
          "type": "uint256"
        }
      ],
      "stateMutability": "view",
      "type": "function"
    },
    {
      "inputs": [],
      "name": "description",
      "outputs": [
        {
          "internalType": "string",
          "name": "",
          "type": "string"
        }
      ],
      "stateMutability": "view",
      "type": "function"
    },
    {
      "inputs": [],
      "name": "endDate",
      "outputs": [
        {
          "internalType": "uint256",
          "name": "",
          "type": "uint256"
        }
      ],
      "stateMutability": "view",
      "type": "function"
    },
    {
      "inputs": [],
      "name": "icon",
      "outputs": [
        {
          "internalType": "string",
          "name": "",
          "type": "string"
        }
      ],
      "stateMutability": "view",
      "type": "function"
    },
    {
      "inputs": [],
      "name": "init",
      "outputs": [],
      "stateMutability": "nonpayable",
      "type": "function"
    },
    {
      "inputs": [
        {
          "internalType": "address",
          "name": "_userAddr",
          "type": "address"
        }
      ],
      "name": "investEarnAmountCheck",
      "outputs": [
        {
          "internalType": "uint256",
          "name": "",
          "type": "uint256"
        }
      ],
      "stateMutability": "view",
      "type": "function"
    },
    {
      "inputs": [],
      "name": "investToken",
      "outputs": [
        {
          "internalType": "contract IERC20",
          "name": "",
          "type": "address"
        }
      ],
      "stateMutability": "view",
      "type": "function"
    },
    {
      "inputs": [],
      "name": "investTotalAmount",
      "outputs": [
        {
          "internalType": "uint256",
          "name": "",
          "type": "uint256"
        }
      ],
      "stateMutability": "view",
      "type": "function"
    },
    {
      "inputs": [
        {
          "internalType": "uint256",
          "name": "amount",
          "type": "uint256"
        }
      ],
      "name": "makeDepositProfit",
      "outputs": [
        {
          "internalType": "bool",
          "name": "",
          "type": "bool"
        }
      ],
      "stateMutability": "nonpayable",
      "type": "function"
    },
    {
      "inputs": [],
      "name": "manualMoveTrade",
      "outputs": [],
      "stateMutability": "nonpayable",
      "type": "function"
    },
    {
      "inputs": [],
      "name": "masterchef",
      "outputs": [
        {
          "internalType": "contract IYOCMasterChef",
          "name": "",
          "type": "address"
        }
      ],
      "stateMutability": "view",
      "type": "function"
    },
    {
      "inputs": [],
      "name": "multiplier",
      "outputs": [
        {
          "internalType": "uint256",
          "name": "",
          "type": "uint256"
        }
      ],
      "stateMutability": "view",
      "type": "function"
    },
    {
      "inputs": [],
      "name": "ongoingPercent",
      "outputs": [
        {
          "internalType": "uint256",
          "name": "",
          "type": "uint256"
        }
      ],
      "stateMutability": "view",
      "type": "function"
    },
    {
      "inputs": [],
      "name": "originProfitAmount",
      "outputs": [
        {
          "internalType": "uint256",
          "name": "",
          "type": "uint256"
        }
      ],
      "stateMutability": "view",
      "type": "function"
    },
    {
      "inputs": [],
      "name": "owner",
      "outputs": [
        {
          "internalType": "address",
          "name": "",
          "type": "address"
        }
      ],
      "stateMutability": "view",
      "type": "function"
    },
    {
      "inputs": [],
      "name": "pId",
      "outputs": [
        {
          "internalType": "uint256",
          "name": "",
          "type": "uint256"
        }
      ],
      "stateMutability": "view",
      "type": "function"
    },
    {
      "inputs": [
        {
          "internalType": "uint256",
          "name": "investAmount",
          "type": "uint256"
        },
        {
          "internalType": "uint256",
          "name": "shareAmount",
          "type": "uint256"
        }
      ],
      "name": "participate",
      "outputs": [],
      "stateMutability": "nonpayable",
      "type": "function"
    },
    {
      "inputs": [
        {
          "internalType": "address",
          "name": "_userAddr",
          "type": "address"
        }
      ],
      "name": "profitWalletAmountCheck",
      "outputs": [
        {
          "internalType": "bool",
          "name": "",
          "type": "bool"
        },
        {
          "internalType": "uint256",
          "name": "",
          "type": "uint256"
        },
        {
          "internalType": "bool",
          "name": "",
          "type": "bool"
        }
      ],
      "stateMutability": "view",
      "type": "function"
    },
    {
      "inputs": [],
      "name": "projectTrade",
      "outputs": [
        {
          "internalType": "contract IProjectTrade",
          "name": "",
          "type": "address"
        }
      ],
      "stateMutability": "view",
      "type": "function"
    },
    {
      "inputs": [],
      "name": "projectWallet",
      "outputs": [
        {
          "internalType": "address",
          "name": "",
          "type": "address"
        }
      ],
      "stateMutability": "view",
      "type": "function"
    },
    {
      "inputs": [],
      "name": "projectWebsite",
      "outputs": [
        {
          "internalType": "string",
          "name": "",
          "type": "string"
        }
      ],
      "stateMutability": "view",
      "type": "function"
    },
    {
      "inputs": [
        {
          "internalType": "uint256",
          "name": "shareAmount",
          "type": "uint256"
        },
        {
          "internalType": "uint256",
          "name": "investAmount",
          "type": "uint256"
        }
      ],
      "name": "refund",
      "outputs": [],
      "stateMutability": "nonpayable",
      "type": "function"
    },
    {
      "inputs": [
        {
          "internalType": "address",
          "name": "user",
          "type": "address"
        }
      ],
      "name": "removeAuthorizedUser",
      "outputs": [],
      "stateMutability": "nonpayable",
      "type": "function"
    },
    {
      "inputs": [],
      "name": "roi",
      "outputs": [
        {
          "internalType": "uint256",
          "name": "",
          "type": "uint256"
        }
      ],
      "stateMutability": "view",
      "type": "function"
    },
    {
      "inputs": [],
      "name": "sellAmount",
      "outputs": [
        {
          "internalType": "uint256",
          "name": "",
          "type": "uint256"
        }
      ],
      "stateMutability": "view",
      "type": "function"
    },
    {
      "inputs": [],
      "name": "shareToken",
      "outputs": [
        {
          "internalType": "contract IERC20",
          "name": "",
          "type": "address"
        }
      ],
      "stateMutability": "view",
      "type": "function"
    },
    {
      "inputs": [],
      "name": "shareTokenPrice",
      "outputs": [
        {
          "internalType": "uint256",
          "name": "",
          "type": "uint256"
        }
      ],
      "stateMutability": "view",
      "type": "function"
    },
    {
      "inputs": [],
      "name": "startDate",
      "outputs": [
        {
          "internalType": "uint256",
          "name": "",
          "type": "uint256"
        }
      ],
      "stateMutability": "view",
      "type": "function"
    },
    {
      "inputs": [],
      "name": "status",
      "outputs": [
        {
          "internalType": "uint256",
          "name": "",
          "type": "uint256"
        }
      ],
      "stateMutability": "view",
      "type": "function"
    },
    {
      "inputs": [],
      "name": "symbolImage",
      "outputs": [
        {
          "internalType": "string",
          "name": "",
          "type": "string"
        }
      ],
      "stateMutability": "view",
      "type": "function"
    },
    {
      "inputs": [],
      "name": "title",
      "outputs": [
        {
          "internalType": "string",
          "name": "",
          "type": "string"
        }
      ],
      "stateMutability": "view",
      "type": "function"
    },
    {
      "inputs": [],
      "name": "totalRewardYocAmount",
      "outputs": [
        {
          "internalType": "uint256",
          "name": "",
          "type": "uint256"
        }
      ],
      "stateMutability": "view",
      "type": "function"
    },
    {
      "inputs": [
        {
          "internalType": "uint256",
          "name": "_multiplier",
          "type": "uint256"
        }
      ],
      "name": "updateMultiplier",
      "outputs": [
        {
          "internalType": "bool",
          "name": "",
          "type": "bool"
        }
      ],
      "stateMutability": "nonpayable",
      "type": "function"
    },
    {
      "inputs": [
        {
          "internalType": "address",
          "name": "_projectWallet",
          "type": "address"
        }
      ],
      "name": "updateProjectWallet",
      "outputs": [
        {
          "internalType": "bool",
          "name": "",
          "type": "bool"
        }
      ],
      "stateMutability": "nonpayable",
      "type": "function"
    }
  ],
  "bytecode": "0x608060405260006012553480156200001657600080fd5b50604051620037c2380380620037c283398101604081905262000039916200063c565b600080546001600160a01b03191633908117825581526001602081905260408220805460ff191690911790558451859190620000795762000079620007c8565b602002602001015160049080519060200190620000989291906200043b565b5083600181518110620000af57620000af620007c8565b602002602001015160059080519060200190620000ce9291906200043b565b5083600281518110620000e557620000e5620007c8565b602002602001015160069080519060200190620001049291906200043b565b50836003815181106200011b576200011b620007c8565b6020026020010151600790805190602001906200013a9291906200043b565b5083600481518110620001515762000151620007c8565b602002602001015160089080519060200190620001709291906200043b565b5083600581518110620001875762000187620007c8565b602002602001015160099080519060200190620001a69291906200043b565b5082600081518110620001bd57620001bd620007c8565b6020026020010151600a8190555082600181518110620001e157620001e1620007c8565b6020026020010151600b8190555082600281518110620002055762000205620007c8565b6020026020010151600c8190555082600381518110620002295762000229620007c8565b6020026020010151600d81905550826004815181106200024d576200024d620007c8565b6020026020010151600e8190555082600581518110620002715762000271620007c8565b602002602001015160138190555080601181905550816000815181106200029c576200029c620007c8565b6020026020010151600260006101000a8154816001600160a01b0302191690836001600160a01b0316021790555081600181518110620002e057620002e0620007c8565b6020026020010151600360006101000a8154816001600160a01b0302191690836001600160a01b0316021790555081600281518110620003245762000324620007c8565b6020026020010151601460006101000a8154816001600160a01b0302191690836001600160a01b0316021790555081600381518110620003685762000368620007c8565b6020026020010151601560006101000a8154816001600160a01b0302191690836001600160a01b0316021790555081600481518110620003ac57620003ac620007c8565b6020908102919091010151601680546001600160a01b0319166001600160a01b0392831617905560025460408051634b88b8ad60e11b815290519190921691639711715a91600480830192600092919082900301818387803b1580156200041257600080fd5b505af115801562000427573d6000803e3d6000fd5b50506000601955506200081b945050505050565b8280546200044990620007de565b90600052602060002090601f0160209004810192826200046d5760008555620004b8565b82601f106200048857805160ff1916838001178555620004b8565b82800160010185558215620004b8579182015b82811115620004b85782518255916020019190600101906200049b565b50620004c6929150620004ca565b5090565b5b80821115620004c65760008155600101620004cb565b634e487b7160e01b600052604160045260246000fd5b604051601f8201601f191681016001600160401b0381118282101715620005225762000522620004e1565b604052919050565b60006001600160401b03821115620005465762000546620004e1565b5060051b60200190565b600082601f8301126200056257600080fd5b815160206200057b62000575836200052a565b620004f7565b82815260059290921b840181019181810190868411156200059b57600080fd5b8286015b84811015620005b857805183529183019183016200059f565b509695505050505050565b600082601f830112620005d557600080fd5b81516020620005e862000575836200052a565b82815260059290921b840181019181810190868411156200060857600080fd5b8286015b84811015620005b85780516001600160a01b03811681146200062e5760008081fd5b83529183019183016200060c565b600080600080608085870312156200065357600080fd5b84516001600160401b03808211156200066b57600080fd5b818701915087601f8301126200068057600080fd5b815160206200069362000575836200052a565b82815260059290921b8401810191818101908b841115620006b357600080fd5b8286015b848110156200076857805186811115620006d057600080fd5b8701603f81018e13620006e257600080fd5b8481015187811115620006f957620006f9620004e1565b6200070d601f8201601f19168701620004f7565b8181528f6040838501011115620007245760008081fd5b60005b82811015620007455783810160400151828201890152870162000727565b82811115620007575760008884840101525b5085525050918301918301620006b7565b50918a01519198509093505050808211156200078357600080fd5b620007918883890162000550565b94506040870151915080821115620007a857600080fd5b50620007b787828801620005c3565b606096909601519497939650505050565b634e487b7160e01b600052603260045260246000fd5b600181811c90821680620007f357607f821691505b602082108114156200081557634e487b7160e01b600052602260045260246000fd5b50919050565b612f97806200082b6000396000f3fe60806040523480156200001157600080fd5b50600436106200026d5760003560e01c80635ffe61461162000155578063c557b98511620000c7578063e1c7392a1162000086578063e1c7392a14620004e5578063e3b4c0d114620004ef578063ef430aa61462000506578063fb1db2781462000510578063fddf8379146200052457600080fd5b8063c557b98514620004a6578063ce65868f14620004b0578063d29e902014620004c7578063d714544514620004d1578063db231e0014620004db57600080fd5b80638da5cb5b11620001145780638da5cb5b1462000456578063a5cb2440146200046a578063badf822b1462000474578063beb08ab91462000488578063c24a0f8b146200049c57600080fd5b80635ffe614614620003da5780636c9fa59e14620003f157806371927628146200041e5780637284e416146200043557806389fabc80146200043f57600080fd5b806327d0d52d11620001ef5780634afdd0e711620001ae5780634afdd0e7146200036e5780634e71d92d14620003785780634e772479146200038257806356975b8414620003b95780635af36e3e14620003c357600080fd5b806327d0d52d146200033c57806328f8692b14620003465780633f407b8414620003505780634a4ebc3d146200035a5780634a79d50c146200036457600080fd5b8063141ce1ed116200023c578063141ce1ed14620002d0578063177d2a7414620002da5780631828983a14620002f15780631b3ed7221462000328578063200d2ed2146200033257600080fd5b806303e5979d14620002725780630b97bc8614620002945780630c6b870514620002ad578063129874aa14620002b7575b600080fd5b6200027c62000538565b6040516200028b9190620021d1565b60405180910390f35b6200029e600c5481565b6040519081526020016200028b565b6200029e60175481565b620002ce620002c836600462002229565b620005ce565b005b620002ce62000ae9565b620002ce620002eb36600462002265565b62000d8a565b620003176200030236600462002265565b60016020526000908152604090205460ff1681565b60405190151581526020016200028b565b6200029e60135481565b6200029e60195481565b6200029e600a5481565b6200029e60105481565b6200029e60115481565b6200027c62000e13565b6200027c62000e22565b6200029e600b5481565b620002ce62000e31565b620003996200039336600462002265565b6200100f565b60408051931515845260208401929092521515908201526060016200028b565b6200029e600f5481565b620002ce620003d436600462002229565b620012f2565b62000317620003eb3660046200228c565b62001486565b60025462000405906001600160a01b031681565b6040516001600160a01b0390911681526020016200028b565b620003176200042f36600462002265565b620014c1565b6200027c62001518565b620002ce6200045036600462002265565b62001527565b60005462000405906001600160a01b031681565b6200029e600e5481565b60035462000405906001600160a01b031681565b60145462000405906001600160a01b031681565b6200029e600d5481565b6200027c620015b1565b6200029e620004c136600462002265565b620015c0565b620002ce6200191c565b6200029e60125481565b6200029e60185481565b620002ce62001d0f565b62000317620005003660046200228c565b62001fb2565b6200027c620021b4565b60165462000405906001600160a01b031681565b60155462000405906001600160a01b031681565b600780546200054790620022a6565b80601f01602080910402602001604051908101604052809291908181526020018280546200057590620022a6565b8015620005c65780601f106200059a57610100808354040283529160200191620005c6565b820191906000526020600020905b815481529060010190602001808311620005a857829003601f168201915b505050505081565b600082116200061b5760405162461bcd60e51b815260206004820152601460248201527353656e7420616d6f756e74206973207a65726f2160601b60448201526064015b60405180910390fd5b62000629426103e8620022f9565b600c5410620006745760405162461bcd60e51b81526020600482015260166024820152754974206861736e27742073746172746564207965742160501b604482015260640162000612565b62000682426103e8620022f9565b600d5411620006c25760405162461bcd60e51b815260206004820152600b60248201526a54696d652069732075702160a81b604482015260640162000612565b6003546040516323b872dd60e01b8152336004820152306024820152604481018490526001600160a01b03909116906323b872dd906064016020604051808303816000875af11580156200071a573d6000803e3d6000fd5b505050506040513d601f19601f820116820180604052508101906200074091906200231b565b5060025460405163a9059cbb60e01b81526001600160a01b039091169063a9059cbb906200077590339085906004016200233f565b6020604051808303816000875af115801562000795573d6000803e3d6000fd5b505050506040513d601f19601f82011682018060405250810190620007bb91906200231b565b508160126000828254620007d0919062002358565b9091555050336000818152601b602052604090819020805460ff19166001179055517fff871a9ae5845a29b42a0cadf1d60e02e4ff529db54de46b045d457bdbc1a0e79162000826913091869186919062002373565b60405180910390a16002546040516370a0823160e01b81523060048201526000916001600160a01b0316906370a0823190602401602060405180830381865afa15801562000878573d6000803e3d6000fd5b505050506040513d601f19601f820116820180604052508101906200089e91906200239e565b600e5460115491925090620008b48382620023b8565b620008c1906064620022f9565b620008cd9190620023d2565b10620008fe57600c54600d54620008e59190620023b8565b600d6000828254620008f8919062002358565b90915550505b8062000ae45760016019556016546017546040516369e0f35760e11b815260048101919091523060248201526001600160a01b039091169063d3c1e6ae90604401602060405180830381865afa1580156200095d573d6000803e3d6000fd5b505050506040513d601f19601f820116820180604052508101906200098391906200239e565b60185560165460175460405163958e2d3160e01b81526001600160a01b039092169163958e2d3191620009bc9160040190815260200190565b600060405180830381600087803b158015620009d757600080fd5b505af1158015620009ec573d6000803e3d6000fd5b50506016546017546040516364482f7960e01b8152600481019190915260006024820181905260448201526001600160a01b0390911692506364482f799150606401600060405180830381600087803b15801562000a4957600080fd5b505af115801562000a5e573d6000803e3d6000fd5b505060035460145460125460405163a9059cbb60e01b81526001600160a01b03938416955063a9059cbb945062000a9c93909216916004016200233f565b6020604051808303816000875af115801562000abc573d6000803e3d6000fd5b505050506040513d601f19601f8201168201806040525081019062000ae291906200231b565b505b505050565b3360009081526001602052604090205460ff1662000b1b5760405162461bcd60e51b81526004016200061290620023f5565b6002546040516370a0823160e01b81523060048201526000916001600160a01b0316906370a0823190602401602060405180830381865afa15801562000b65573d6000803e3d6000fd5b505050506040513d601f19601f8201168201806040525081019062000b8b91906200239e565b90506000811162000bdf5760405162461bcd60e51b815260206004820152601c60248201527f63616e27742063616c6c20696e207472616465642070726f6a65637400000000604482015260640162000612565b60025460145460405163a9059cbb60e01b81526001600160a01b039283169263a9059cbb9262000c179291169085906004016200233f565b6020604051808303816000875af115801562000c37573d6000803e3d6000fd5b505050506040513d601f19601f8201168201806040525081019062000c5d91906200231b565b50600e5460115462000c708382620023b8565b62000c7d906064620022f9565b62000c899190620023d2565b101562000cbb57600c54600d5462000ca29190620023b8565b600d600082825462000cb5919062002358565b90915550505b60035460145460125460405163a9059cbb60e01b81526001600160a01b039384169363a9059cbb9362000cf4939116916004016200233f565b6020604051808303816000875af115801562000d14573d6000803e3d6000fd5b505050506040513d601f19601f8201168201806040525081019062000d3a91906200231b565b506014546040517fff871a9ae5845a29b42a0cadf1d60e02e4ff529db54de46b045d457bdbc1a0e79162000d7f91309160009186916001600160a01b03169062002373565b60405180910390a150565b3360009081526001602052604090205460ff1662000dbc5760405162461bcd60e51b81526004016200061290620023f5565b6001600160a01b038116600081815260016020818152604092839020805460ff19168317905582519384528301527f5fe3a0cb9aeae856eac34445ace9544f3e15c21fa6f9bffeca60d662a690ca1b910162000d7f565b600980546200054790620022a6565b600480546200054790620022a6565b60008062000e3f336200100f565b50915091508115801562000e535750600081115b62000e905760405162461bcd60e51b815260206004820152600c60248201526b436c61696d204572726f722160a01b604482015260640162000612565b60035460405163a9059cbb60e01b81526001600160a01b039091169063a9059cbb9062000ec490339085906004016200233f565b6020604051808303816000875af115801562000ee4573d6000803e3d6000fd5b505050506040513d601f19601f8201168201806040525081019062000f0a91906200231b565b5080600f600082825462000f1f9190620023b8565b9091555050336000908152601a602090815260408083206002548251632a1cd6c360e11b81529251600195929492936001600160a01b0390921692635439ad8692600480820193918290030181865afa15801562000f81573d6000803e3d6000fd5b505050506040513d601f19601f8201168201806040525081019062000fa791906200239e565b81526020808201929092526040908101600020805460ff191693151593909317909255815130815290810183905233918101919091527f7e6632ca16a0ac6cf28448500b1a17d96c8b8163ad4c4a9b44ef5386cc02779e906060015b60405180910390a15050565b6001600160a01b038082166000908152601a602090815260408083206002548251632a1cd6c360e11b815292519495869586958695869490931692635439ad8692600480830193928290030181865afa15801562001071573d6000803e3d6000fd5b505050506040513d601f19601f820116820180604052508101906200109791906200239e565b81526020810191909152604090810160009081205460155492516367b0fef760e11b81523060048201526001600160a01b03898116602483015260ff90921694509192169063cf61fdee90604401602060405180830381865afa15801562001103573d6000803e3d6000fd5b505050506040513d601f19601f820116820180604052508101906200112991906200239e565b905080156200113757600191505b600082620012c75760025460408051632a1cd6c360e11b815290516000926001600160a01b031691634ee2cd7e918b918491635439ad86916004808201926020929091908290030181865afa15801562001195573d6000803e3d6000fd5b505050506040513d601f19601f82011682018060405250810190620011bb91906200239e565b6040518363ffffffff1660e01b8152600401620011da9291906200233f565b602060405180830381865afa158015620011f8573d6000803e3d6000fd5b505050506040513d601f19601f820116820180604052508101906200121e91906200239e565b90506200122c838262002358565b9050600260009054906101000a90046001600160a01b03166001600160a01b03166318160ddd6040518163ffffffff1660e01b8152600401602060405180830381865afa15801562001282573d6000803e3d6000fd5b505050506040513d601f19601f82011682018060405250810190620012a891906200239e565b601054620012b79083620022f9565b620012c39190620023d2565b9150505b6001600160a01b0387166000908152601b602052604090205492955093505060ff1690509193909250565b600082116200133b5760405162461bcd60e51b815260206004820152601460248201527353656e7420616d6f756e74206973207a65726f2160601b604482015260640162000612565b6002546040516323b872dd60e01b8152336004820152306024820152604481018490526001600160a01b03909116906323b872dd906064016020604051808303816000875af115801562001393573d6000803e3d6000fd5b505050506040513d601f19601f82011682018060405250810190620013b991906200231b565b5060035460405163a9059cbb60e01b81526001600160a01b039091169063a9059cbb90620013ee90339085906004016200233f565b6020604051808303816000875af11580156200140e573d6000803e3d6000fd5b505050506040513d601f19601f820116820180604052508101906200143491906200231b565b508060126000828254620014499190620023b8565b90915550506040517f89adc23bf21dbf8bb4327dc5b14ecd94b350f7a3d641dfb559767f700e237872906200100390309084908690339062002373565b3360009081526001602052604081205460ff16620014b85760405162461bcd60e51b81526004016200061290620023f5565b50601355600190565b3360009081526001602052604081205460ff16620014f35760405162461bcd60e51b81526004016200061290620023f5565b50601480546001600160a01b0383166001600160a01b03199091161790556001919050565b600580546200054790620022a6565b3360009081526001602052604090205460ff16620015595760405162461bcd60e51b81526004016200061290620023f5565b6001600160a01b0381166000818152600160209081526040808320805460ff191690558051938452908301919091527f5fe3a0cb9aeae856eac34445ace9544f3e15c21fa6f9bffeca60d662a690ca1b910162000d7f565b600880546200054790620022a6565b6001600160a01b0381166000908152601c602052604081205460ff16620019145760025460408051632a1cd6c360e11b815290516000926001600160a01b031691634ee2cd7e9186918491635439ad86916004808201926020929091908290030181865afa15801562001637573d6000803e3d6000fd5b505050506040513d601f19601f820116820180604052508101906200165d91906200239e565b6040518363ffffffff1660e01b81526004016200167c9291906200233f565b602060405180830381865afa1580156200169a573d6000803e3d6000fd5b505050506040513d601f19601f82011682018060405250810190620016c091906200239e565b6015546040516367b0fef760e11b81523060048201526001600160a01b0386811660248301529293506000929091169063cf61fdee90604401602060405180830381865afa15801562001717573d6000803e3d6000fd5b505050506040513d601f19601f820116820180604052508101906200173d91906200239e565b90506019546000141562001873576016546017546040516369e0f35760e11b815260048101919091523060248201526000916001600160a01b03169063d3c1e6ae90604401602060405180830381865afa158015620017a0573d6000803e3d6000fd5b505050506040513d601f19601f82011682018060405250810190620017c691906200239e565b90506000600260009054906101000a90046001600160a01b03166001600160a01b03166318160ddd6040518163ffffffff1660e01b8152600401602060405180830381865afa1580156200181e573d6000803e3d6000fd5b505050506040513d601f19601f820116820180604052508101906200184491906200239e565b8262001851858762002358565b6200185d9190620022f9565b620018699190620023d2565b9695505050505050565b600254604080516318160ddd60e01b815290516000926001600160a01b0316916318160ddd9160048083019260209291908290030181865afa158015620018be573d6000803e3d6000fd5b505050506040513d601f19601f82011682018060405250810190620018e491906200239e565b601854620018f3848662002358565b620018ff9190620022f9565b6200190b9190620023d2565b95945050505050565b506000919050565b601954600114620019965760405162461bcd60e51b815260206004820152603860248201527f596f752063616e20636c61696d2074686520726577617264207768656e20746860448201527f652070726f6a656374207265616368206f757420313030250000000000000000606482015260840162000612565b336000908152601c602052604090205460ff1615620019f85760405162461bcd60e51b815260206004820152601860248201527f596f75206861766520616c726561647920636c61696d65640000000000000000604482015260640162000612565b60025460408051632a1cd6c360e11b815290516000926001600160a01b031691634ee2cd7e9133918491635439ad86916004808201926020929091908290030181865afa15801562001a4e573d6000803e3d6000fd5b505050506040513d601f19601f8201168201806040525081019062001a7491906200239e565b6040518363ffffffff1660e01b815260040162001a939291906200233f565b602060405180830381865afa15801562001ab1573d6000803e3d6000fd5b505050506040513d601f19601f8201168201806040525081019062001ad791906200239e565b6015546040516367b0fef760e11b81523060048201523360248201529192506000916001600160a01b039091169063cf61fdee90604401602060405180830381865afa15801562001b2c573d6000803e3d6000fd5b505050506040513d601f19601f8201168201806040525081019062001b5291906200239e565b90506000601660009054906101000a90046001600160a01b03166001600160a01b031663fd01ea9f6040518163ffffffff1660e01b81526004016020604051808303816000875af115801562001bac573d6000803e3d6000fd5b505050506040513d601f19601f8201168201806040525081019062001bd291906200241d565b90506000600260009054906101000a90046001600160a01b03166001600160a01b03166318160ddd6040518163ffffffff1660e01b8152600401602060405180830381865afa15801562001c2a573d6000803e3d6000fd5b505050506040513d601f19601f8201168201806040525081019062001c5091906200239e565b60185462001c5f858762002358565b62001c6b9190620022f9565b62001c779190620023d2565b336000818152601c602052604090819020805460ff191660011790555163a9059cbb60e01b81529192506001600160a01b0384169163a9059cbb9162001cc29185906004016200233f565b6020604051808303816000875af115801562001ce2573d6000803e3d6000fd5b505050506040513d601f19601f8201168201806040525081019062001d0891906200231b565b5050505050565b6000546001600160a01b0316331462001d5b5760405162461bcd60e51b815260206004820152600d60248201526c2737ba103a34329037bbb732b960991b604482015260640162000612565b600060405162001d6b90620021c3565b604080825260079082015266054454d50204c560cc1b6060820152608060208201819052600390820152620544c560ec1b60a082015260c001604051809103906000f08015801562001dc1573d6000803e3d6000fd5b50601654601354604051636283d75560e11b815260048101919091526001600160a01b038084166024830152600060448301526001606483015292935091169063c507aeaa90608401600060405180830381600087803b15801562001e2557600080fd5b505af115801562001e3a573d6000803e3d6000fd5b505060165460405163095ea7b360e01b815267016345785d8a000093506001600160a01b03808616935063095ea7b39262001e7d9291169085906004016200233f565b6020604051808303816000875af115801562001e9d573d6000803e3d6000fd5b505050506040513d601f19601f8201168201806040525081019062001ec391906200231b565b506016546040805163040f1f6d60e11b815290516001926001600160a01b03169163081e3eda91600480830192602092919082900301816000875af115801562001f11573d6000803e3d6000fd5b505050506040513d601f19601f8201168201806040525081019062001f3791906200239e565b62001f439190620023b8565b6017819055601654604051631c57762b60e31b81526004810192909252602482018390526001600160a01b03169063e2bbb15890604401600060405180830381600087803b15801562001f9557600080fd5b505af115801562001faa573d6000803e3d6000fd5b505050505050565b600080821162001ffc5760405162461bcd60e51b815260206004820152601460248201527373656e7420616d6f756e74206973207a65726f2160601b604482015260640162000612565b600f54156200208357600354600f5460405163a9059cbb60e01b81526001600160a01b039092169163a9059cbb916200203b913391906004016200233f565b6020604051808303816000875af11580156200205b573d6000803e3d6000fd5b505050506040513d601f19601f820116820180604052508101906200208191906200231b565b505b6003546040516323b872dd60e01b8152336004820152306024820152604481018490526001600160a01b03909116906323b872dd906064016020604051808303816000875af1158015620020db573d6000803e3d6000fd5b505050506040513d601f19601f820116820180604052508101906200210191906200231b565b50600f829055601082905560025460408051634b88b8ad60e11b815290516001600160a01b0390921691639711715a9160048082019260009290919082900301818387803b1580156200215357600080fd5b505af115801562002168573d6000803e3d6000fd5b50506040805130815260208101869052338183015290517f1f333b8f778a40c6385546d263a84ef38c89f2ce5bfb25d8a1f4f66b53c96f349350908190036060019150a1506001919050565b600680546200054790620022a6565b610b24806200243e83390190565b600060208083528351808285015260005b818110156200220057858101830151858201604001528201620021e2565b8181111562002213576000604083870101525b50601f01601f1916929092016040019392505050565b600080604083850312156200223d57600080fd5b50508035926020909101359150565b6001600160a01b03811681146200226257600080fd5b50565b6000602082840312156200227857600080fd5b813562002285816200224c565b9392505050565b6000602082840312156200229f57600080fd5b5035919050565b600181811c90821680620022bb57607f821691505b60208210811415620022dd57634e487b7160e01b600052602260045260246000fd5b50919050565b634e487b7160e01b600052601160045260246000fd5b6000816000190483118215151615620023165762002316620022e3565b500290565b6000602082840312156200232e57600080fd5b815180151581146200228557600080fd5b6001600160a01b03929092168252602082015260400190565b600082198211156200236e576200236e620022e3565b500190565b6001600160a01b03948516815260208101939093526040830191909152909116606082015260800190565b600060208284031215620023b157600080fd5b5051919050565b600082821015620023cd57620023cd620022e3565b500390565b600082620023f057634e487b7160e01b600052601260045260246000fd5b500490565b6020808252600e908201526d139bdd08185d5d1a1bdc9a5e995960921b604082015260600190565b6000602082840312156200243057600080fd5b815162002285816200224c56fe60806040523480156200001157600080fd5b5060405162000b2438038062000b2483398101604081905262000034916200024b565b815162000049906000906020850190620000d8565b5080516200005f906001906020840190620000d8565b506002805460ff191660101790556c0c9f2c9cd04674edea4000000060038190553360008181526004602052604080822084905551919290917fddf252ad1be2c89b69c2b068fc378daa952ba7f163c4a11628f55a4df523b3ef91620000c89190815260200190565b60405180910390a35050620002f2565b828054620000e690620002b5565b90600052602060002090601f0160209004810192826200010a576000855562000155565b82601f106200012557805160ff191683800117855562000155565b8280016001018555821562000155579182015b828111156200015557825182559160200191906001019062000138565b506200016392915062000167565b5090565b5b8082111562000163576000815560010162000168565b634e487b7160e01b600052604160045260246000fd5b600082601f830112620001a657600080fd5b81516001600160401b0380821115620001c357620001c36200017e565b604051601f8301601f19908116603f01168101908282118183101715620001ee57620001ee6200017e565b816040528381526020925086838588010111156200020b57600080fd5b600091505b838210156200022f578582018301518183018401529082019062000210565b83821115620002415760008385830101525b9695505050505050565b600080604083850312156200025f57600080fd5b82516001600160401b03808211156200027757600080fd5b620002858683870162000194565b935060208501519150808211156200029c57600080fd5b50620002ab8582860162000194565b9150509250929050565b600181811c90821680620002ca57607f821691505b60208210811415620002ec57634e487b7160e01b600052602260045260246000fd5b50919050565b61082280620003026000396000f3fe608060405234801561001057600080fd5b50600436106100ea5760003560e01c806395d89b411161008c578063b5931f7c11610066578063b5931f7c146101d8578063d05c78da146101eb578063dd62ed3e146101fe578063e6cb90131461023757600080fd5b806395d89b41146101aa578063a293d1e8146101b2578063a9059cbb146101c557600080fd5b806323b872dd116100c857806323b872dd14610146578063313ce567146101595780633eaaf86b1461017857806370a082311461018157600080fd5b806306fdde03146100ef578063095ea7b31461010d57806318160ddd14610130575b600080fd5b6100f761024a565b60405161010491906105e4565b60405180910390f35b61012061011b366004610655565b6102d8565b6040519015158152602001610104565b610138610345565b604051908152602001610104565b61012061015436600461067f565b610383565b6002546101669060ff1681565b60405160ff9091168152602001610104565b61013860035481565b61013861018f3660046106bb565b6001600160a01b031660009081526004602052604090205490565b6100f7610481565b6101386101c03660046106d6565b61048e565b6101206101d3366004610655565b6104ee565b6101386101e63660046106d6565b610585565b6101386101f93660046106d6565b61059d565b61013861020c3660046106f8565b6001600160a01b03918216600090815260056020908152604080832093909416825291909152205490565b6101386102453660046106d6565b6105c9565b600080546102579061072b565b80601f01602080910402602001604051908101604052809291908181526020018280546102839061072b565b80156102d05780601f106102a5576101008083540402835291602001916102d0565b820191906000526020600020905b8154815290600101906020018083116102b357829003601f168201915b505050505081565b3360008181526005602090815260408083206001600160a01b038716808552925280832085905551919290917f8c5be1e5ebec7d5bd14f71427d1e84f3dd0314c0f7b2291e5b200ac8c7c3b925906103339086815260200190565b60405180910390a35060015b92915050565b600080805260046020527f17ef568e3e12ab5b9c7254a8d58478811de00f9e6eb34345acd53bf8fd09d3ec5460035461037e919061077c565b905090565b6001600160a01b0383166000908152600460205260408120546103a6908361048e565b6001600160a01b03851660009081526004602090815260408083209390935560058152828220338352905220546103dd908361048e565b6001600160a01b03808616600090815260056020908152604080832033845282528083209490945591861681526004909152205461041b90836105c9565b6001600160a01b0380851660008181526004602052604090819020939093559151908616907fddf252ad1be2c89b69c2b068fc378daa952ba7f163c4a11628f55a4df523b3ef9061046f9086815260200190565b60405180910390a35060019392505050565b600180546102579061072b565b6000828211156104dd5760405162461bcd60e51b8152602060048201526016602482015275209034b9903737ba103134b3b3b2b9103a3430b7103160511b604482015260640160405180910390fd5b6104e7828461077c565b9392505050565b33600090815260046020526040812054610508908361048e565b33600090815260046020526040808220929092556001600160a01b0385168152205461053490836105c9565b6001600160a01b0384166000818152600460205260409081902092909255905133907fddf252ad1be2c89b69c2b068fc378daa952ba7f163c4a11628f55a4df523b3ef906103339086815260200190565b600080821161059357600080fd5b6104e78284610793565b60006105a982846107b5565b90508215806105c05750816105be8483610793565b145b61033f57600080fd5b60006105d582846107d4565b90508281101561033f57600080fd5b600060208083528351808285015260005b81811015610611578581018301518582016040015282016105f5565b81811115610623576000604083870101525b50601f01601f1916929092016040019392505050565b80356001600160a01b038116811461065057600080fd5b919050565b6000806040838503121561066857600080fd5b61067183610639565b946020939093013593505050565b60008060006060848603121561069457600080fd5b61069d84610639565b92506106ab60208501610639565b9150604084013590509250925092565b6000602082840312156106cd57600080fd5b6104e782610639565b600080604083850312156106e957600080fd5b50508035926020909101359150565b6000806040838503121561070b57600080fd5b61071483610639565b915061072260208401610639565b90509250929050565b600181811c9082168061073f57607f821691505b6020821081141561076057634e487b7160e01b600052602260045260246000fd5b50919050565b634e487b7160e01b600052601160045260246000fd5b60008282101561078e5761078e610766565b500390565b6000826107b057634e487b7160e01b600052601260045260246000fd5b500490565b60008160001904831182151516156107cf576107cf610766565b500290565b600082198211156107e7576107e7610766565b50019056fea264697066735822122048e89f5464e57d6ee80243b6599e447f71a69a532595c1975f5da7f4b1eb690e64736f6c634300080a0033a2646970667358221220ea9bdae910b3be911fd5761ad30e240bb189c952839c444d2deab90823ba550864736f6c634300080a0033",
  "linkReferences": {},
  "deployedLinkReferences": {}
}