{
  "_format": "hh-sol-artifact-1",
  "contractName": "Project",
  "sourceName": "contracts/Project.sol",
  "abi": [
    {
      "inputs": [
        {
          "internalType": "string[]",
          "name": "_infoST",
          "type": "string[]"
        },
        {
          "internalType": "uint256[]",
          "name": "_infoNB",
          "type": "uint256[]"
        },
        {
          "internalType": "address[]",
          "name": "_infoAD",
          "type": "address[]"
        },
        {
          "internalType": "uint256",
          "name": "_sellAmount",
          "type": "uint256"
        }
      ],
      "stateMutability": "nonpayable",
      "type": "constructor"
    },
    {
      "anonymous": false,
      "inputs": [
        {
          "indexed": false,
          "internalType": "address",
          "name": "user",
          "type": "address"
        },
        {
          "indexed": false,
          "internalType": "bool",
          "name": "isAuthorized",
          "type": "bool"
        }
      ],
      "name": "AuthorizationChanged",
      "type": "event"
    },
    {
      "anonymous": false,
      "inputs": [
        {
          "indexed": false,
          "internalType": "address",
          "name": "",
          "type": "address"
        },
        {
          "indexed": false,
          "internalType": "uint256",
          "name": "",
          "type": "uint256"
        },
        {
          "indexed": false,
          "internalType": "address",
          "name": "",
          "type": "address"
        }
      ],
      "name": "ClaimInvestEarn",
      "type": "event"
    },
    {
      "anonymous": false,
      "inputs": [
        {
          "indexed": false,
          "internalType": "address",
          "name": "",
          "type": "address"
        },
        {
          "indexed": false,
          "internalType": "uint256",
          "name": "",
          "type": "uint256"
        },
        {
          "indexed": false,
          "internalType": "address",
          "name": "",
          "type": "address"
        }
      ],
      "name": "Claimed",
      "type": "event"
    },
    {
      "anonymous": false,
      "inputs": [
        {
          "indexed": false,
          "internalType": "address",
          "name": "",
          "type": "address"
        },
        {
          "indexed": false,
          "internalType": "uint256",
          "name": "",
          "type": "uint256"
        },
        {
          "indexed": false,
          "internalType": "uint256",
          "name": "",
          "type": "uint256"
        },
        {
          "indexed": false,
          "internalType": "address",
          "name": "",
          "type": "address"
        }
      ],
      "name": "Participated",
      "type": "event"
    },
    {
      "anonymous": false,
      "inputs": [
        {
          "indexed": false,
          "internalType": "address",
          "name": "",
          "type": "address"
        },
        {
          "indexed": false,
          "internalType": "uint256",
          "name": "",
          "type": "uint256"
        },
        {
          "indexed": false,
          "internalType": "address",
          "name": "",
          "type": "address"
        }
      ],
      "name": "ProfitDeposited",
      "type": "event"
    },
    {
      "anonymous": false,
      "inputs": [
        {
          "indexed": false,
          "internalType": "address",
          "name": "",
          "type": "address"
        },
        {
          "indexed": false,
          "internalType": "uint256",
          "name": "",
          "type": "uint256"
        },
        {
          "indexed": false,
          "internalType": "uint256",
          "name": "",
          "type": "uint256"
        },
        {
          "indexed": false,
          "internalType": "address",
          "name": "",
          "type": "address"
        }
      ],
      "name": "Refund",
      "type": "event"
    },
    {
      "inputs": [
        {
          "internalType": "address",
          "name": "user",
          "type": "address"
        }
      ],
      "name": "addAuthorizedUser",
      "outputs": [],
      "stateMutability": "nonpayable",
      "type": "function"
    },
    {
      "inputs": [
        {
          "internalType": "address",
          "name": "",
          "type": "address"
        }
      ],
      "name": "authorizedUsers",
      "outputs": [
        {
          "internalType": "bool",
          "name": "",
          "type": "bool"
        }
      ],
      "stateMutability": "view",
      "type": "function"
    },
    {
      "inputs": [],
      "name": "category",
      "outputs": [
        {
          "internalType": "string",
          "name": "",
          "type": "string"
        }
      ],
      "stateMutability": "view",
      "type": "function"
    },
    {
      "inputs": [],
      "name": "claim",
      "outputs": [],
      "stateMutability": "nonpayable",
      "type": "function"
    },
    {
      "inputs": [],
      "name": "claimInvestEarn",
      "outputs": [],
      "stateMutability": "nonpayable",
      "type": "function"
    },
    {
      "inputs": [],
      "name": "depositProfitAmount",
      "outputs": [
        {
          "internalType": "uint256",
          "name": "",
          "type": "uint256"
        }
      ],
      "stateMutability": "view",
      "type": "function"
    },
    {
      "inputs": [],
      "name": "description",
      "outputs": [
        {
          "internalType": "string",
          "name": "",
          "type": "string"
        }
      ],
      "stateMutability": "view",
      "type": "function"
    },
    {
      "inputs": [],
      "name": "endDate",
      "outputs": [
        {
          "internalType": "uint256",
          "name": "",
          "type": "uint256"
        }
      ],
      "stateMutability": "view",
      "type": "function"
    },
    {
      "inputs": [
        {
          "internalType": "address",
          "name": "_userAddr",
          "type": "address"
        }
      ],
      "name": "getUserClaimInvestState",
      "outputs": [
        {
          "internalType": "bool",
          "name": "",
          "type": "bool"
        }
      ],
      "stateMutability": "view",
      "type": "function"
    },
    {
      "inputs": [],
      "name": "icon",
      "outputs": [
        {
          "internalType": "string",
          "name": "",
          "type": "string"
        }
      ],
      "stateMutability": "view",
      "type": "function"
    },
    {
      "inputs": [],
      "name": "init",
      "outputs": [],
      "stateMutability": "nonpayable",
      "type": "function"
    },
    {
      "inputs": [
        {
          "internalType": "address",
          "name": "_userAddr",
          "type": "address"
        }
      ],
      "name": "investEarnAmountCheck",
      "outputs": [
        {
          "internalType": "uint256",
          "name": "",
          "type": "uint256"
        }
      ],
      "stateMutability": "view",
      "type": "function"
    },
    {
      "inputs": [],
      "name": "investToken",
      "outputs": [
        {
          "internalType": "contract IERC20",
          "name": "",
          "type": "address"
        }
      ],
      "stateMutability": "view",
      "type": "function"
    },
    {
      "inputs": [],
      "name": "investTotalAmount",
      "outputs": [
        {
          "internalType": "uint256",
          "name": "",
          "type": "uint256"
        }
      ],
      "stateMutability": "view",
      "type": "function"
    },
    {
      "inputs": [
        {
          "internalType": "uint256",
          "name": "amount",
          "type": "uint256"
        }
      ],
      "name": "makeDepositProfit",
      "outputs": [
        {
          "internalType": "bool",
          "name": "",
          "type": "bool"
        }
      ],
      "stateMutability": "nonpayable",
      "type": "function"
    },
    {
      "inputs": [],
      "name": "manualMoveTrade",
      "outputs": [],
      "stateMutability": "nonpayable",
      "type": "function"
    },
    {
      "inputs": [],
      "name": "masterchef",
      "outputs": [
        {
          "internalType": "contract IYOCMasterChef",
          "name": "",
          "type": "address"
        }
      ],
      "stateMutability": "view",
      "type": "function"
    },
    {
      "inputs": [],
      "name": "multiplier",
      "outputs": [
        {
          "internalType": "uint256",
          "name": "",
          "type": "uint256"
        }
      ],
      "stateMutability": "view",
      "type": "function"
    },
    {
      "inputs": [],
      "name": "ongoingPercent",
      "outputs": [
        {
          "internalType": "uint256",
          "name": "",
          "type": "uint256"
        }
      ],
      "stateMutability": "view",
      "type": "function"
    },
    {
      "inputs": [],
      "name": "originProfitAmount",
      "outputs": [
        {
          "internalType": "uint256",
          "name": "",
          "type": "uint256"
        }
      ],
      "stateMutability": "view",
      "type": "function"
    },
    {
      "inputs": [],
      "name": "owner",
      "outputs": [
        {
          "internalType": "address",
          "name": "",
          "type": "address"
        }
      ],
      "stateMutability": "view",
      "type": "function"
    },
    {
      "inputs": [],
      "name": "pId",
      "outputs": [
        {
          "internalType": "uint256",
          "name": "",
          "type": "uint256"
        }
      ],
      "stateMutability": "view",
      "type": "function"
    },
    {
      "inputs": [
        {
          "internalType": "uint256",
          "name": "investAmount",
          "type": "uint256"
        },
        {
          "internalType": "uint256",
          "name": "shareAmount",
          "type": "uint256"
        }
      ],
      "name": "participate",
      "outputs": [],
      "stateMutability": "nonpayable",
      "type": "function"
    },
    {
      "inputs": [
        {
          "internalType": "address",
          "name": "_userAddr",
          "type": "address"
        }
      ],
      "name": "profitWalletAmountCheck",
      "outputs": [
        {
          "internalType": "bool",
          "name": "",
          "type": "bool"
        },
        {
          "internalType": "uint256",
          "name": "",
          "type": "uint256"
        },
        {
          "internalType": "bool",
          "name": "",
          "type": "bool"
        }
      ],
      "stateMutability": "view",
      "type": "function"
    },
    {
      "inputs": [],
      "name": "projectTrade",
      "outputs": [
        {
          "internalType": "contract IProjectTrade",
          "name": "",
          "type": "address"
        }
      ],
      "stateMutability": "view",
      "type": "function"
    },
    {
      "inputs": [],
      "name": "projectWallet",
      "outputs": [
        {
          "internalType": "address",
          "name": "",
          "type": "address"
        }
      ],
      "stateMutability": "view",
      "type": "function"
    },
    {
      "inputs": [],
      "name": "projectWebsite",
      "outputs": [
        {
          "internalType": "string",
          "name": "",
          "type": "string"
        }
      ],
      "stateMutability": "view",
      "type": "function"
    },
    {
      "inputs": [
        {
          "internalType": "uint256",
          "name": "shareAmount",
          "type": "uint256"
        },
        {
          "internalType": "uint256",
          "name": "investAmount",
          "type": "uint256"
        }
      ],
      "name": "refund",
      "outputs": [],
      "stateMutability": "nonpayable",
      "type": "function"
    },
    {
      "inputs": [
        {
          "internalType": "address",
          "name": "user",
          "type": "address"
        }
      ],
      "name": "removeAuthorizedUser",
      "outputs": [],
      "stateMutability": "nonpayable",
      "type": "function"
    },
    {
      "inputs": [],
      "name": "roi",
      "outputs": [
        {
          "internalType": "uint256",
          "name": "",
          "type": "uint256"
        }
      ],
      "stateMutability": "view",
      "type": "function"
    },
    {
      "inputs": [],
      "name": "sellAmount",
      "outputs": [
        {
          "internalType": "uint256",
          "name": "",
          "type": "uint256"
        }
      ],
      "stateMutability": "view",
      "type": "function"
    },
    {
      "inputs": [],
      "name": "shareToken",
      "outputs": [
        {
          "internalType": "contract IERC20",
          "name": "",
          "type": "address"
        }
      ],
      "stateMutability": "view",
      "type": "function"
    },
    {
      "inputs": [],
      "name": "shareTokenPrice",
      "outputs": [
        {
          "internalType": "uint256",
          "name": "",
          "type": "uint256"
        }
      ],
      "stateMutability": "view",
      "type": "function"
    },
    {
      "inputs": [],
      "name": "startDate",
      "outputs": [
        {
          "internalType": "uint256",
          "name": "",
          "type": "uint256"
        }
      ],
      "stateMutability": "view",
      "type": "function"
    },
    {
      "inputs": [],
      "name": "status",
      "outputs": [
        {
          "internalType": "uint256",
          "name": "",
          "type": "uint256"
        }
      ],
      "stateMutability": "view",
      "type": "function"
    },
    {
      "inputs": [],
      "name": "symbolImage",
      "outputs": [
        {
          "internalType": "string",
          "name": "",
          "type": "string"
        }
      ],
      "stateMutability": "view",
      "type": "function"
    },
    {
      "inputs": [],
      "name": "title",
      "outputs": [
        {
          "internalType": "string",
          "name": "",
          "type": "string"
        }
      ],
      "stateMutability": "view",
      "type": "function"
    },
    {
      "inputs": [],
      "name": "totalRewardYocAmount",
      "outputs": [
        {
          "internalType": "uint256",
          "name": "",
          "type": "uint256"
        }
      ],
      "stateMutability": "view",
      "type": "function"
    },
    {
      "inputs": [
        {
          "internalType": "uint256",
          "name": "_multiplier",
          "type": "uint256"
        }
      ],
      "name": "updateMultiplier",
      "outputs": [
        {
          "internalType": "bool",
          "name": "",
          "type": "bool"
        }
      ],
      "stateMutability": "nonpayable",
      "type": "function"
    },
    {
      "inputs": [
        {
          "internalType": "address",
          "name": "_projectWallet",
          "type": "address"
        }
      ],
      "name": "updateProjectWallet",
      "outputs": [
        {
          "internalType": "bool",
          "name": "",
          "type": "bool"
        }
      ],
      "stateMutability": "nonpayable",
      "type": "function"
    }
  ],
  "bytecode": "0x608060405260006012553480156200001657600080fd5b50604051620037603803806200376083398101604081905262000039916200063c565b600080546001600160a01b03191633908117825581526001602081905260408220805460ff191690911790558451859190620000795762000079620007c8565b602002602001015160049080519060200190620000989291906200043b565b5083600181518110620000af57620000af620007c8565b602002602001015160059080519060200190620000ce9291906200043b565b5083600281518110620000e557620000e5620007c8565b602002602001015160069080519060200190620001049291906200043b565b50836003815181106200011b576200011b620007c8565b6020026020010151600790805190602001906200013a9291906200043b565b5083600481518110620001515762000151620007c8565b602002602001015160089080519060200190620001709291906200043b565b5083600581518110620001875762000187620007c8565b602002602001015160099080519060200190620001a69291906200043b565b5082600081518110620001bd57620001bd620007c8565b6020026020010151600a8190555082600181518110620001e157620001e1620007c8565b6020026020010151600b8190555082600281518110620002055762000205620007c8565b6020026020010151600c8190555082600381518110620002295762000229620007c8565b6020026020010151600d81905550826004815181106200024d576200024d620007c8565b6020026020010151600e8190555082600581518110620002715762000271620007c8565b602002602001015160138190555080601181905550816000815181106200029c576200029c620007c8565b6020026020010151600260006101000a8154816001600160a01b0302191690836001600160a01b0316021790555081600181518110620002e057620002e0620007c8565b6020026020010151600360006101000a8154816001600160a01b0302191690836001600160a01b0316021790555081600281518110620003245762000324620007c8565b6020026020010151601460006101000a8154816001600160a01b0302191690836001600160a01b0316021790555081600381518110620003685762000368620007c8565b6020026020010151601560006101000a8154816001600160a01b0302191690836001600160a01b0316021790555081600481518110620003ac57620003ac620007c8565b6020908102919091010151601680546001600160a01b0319166001600160a01b0392831617905560025460408051634b88b8ad60e11b815290519190921691639711715a91600480830192600092919082900301818387803b1580156200041257600080fd5b505af115801562000427573d6000803e3d6000fd5b50506000601955506200081b945050505050565b8280546200044990620007de565b90600052602060002090601f0160209004810192826200046d5760008555620004b8565b82601f106200048857805160ff1916838001178555620004b8565b82800160010185558215620004b8579182015b82811115620004b85782518255916020019190600101906200049b565b50620004c6929150620004ca565b5090565b5b80821115620004c65760008155600101620004cb565b634e487b7160e01b600052604160045260246000fd5b604051601f8201601f191681016001600160401b0381118282101715620005225762000522620004e1565b604052919050565b60006001600160401b03821115620005465762000546620004e1565b5060051b60200190565b600082601f8301126200056257600080fd5b815160206200057b62000575836200052a565b620004f7565b82815260059290921b840181019181810190868411156200059b57600080fd5b8286015b84811015620005b857805183529183019183016200059f565b509695505050505050565b600082601f830112620005d557600080fd5b81516020620005e862000575836200052a565b82815260059290921b840181019181810190868411156200060857600080fd5b8286015b84811015620005b85780516001600160a01b03811681146200062e5760008081fd5b83529183019183016200060c565b600080600080608085870312156200065357600080fd5b84516001600160401b03808211156200066b57600080fd5b818701915087601f8301126200068057600080fd5b815160206200069362000575836200052a565b82815260059290921b8401810191818101908b841115620006b357600080fd5b8286015b848110156200076857805186811115620006d057600080fd5b8701603f81018e13620006e257600080fd5b8481015187811115620006f957620006f9620004e1565b6200070d601f8201601f19168701620004f7565b8181528f6040838501011115620007245760008081fd5b60005b82811015620007455783810160400151828201890152870162000727565b82811115620007575760008884840101525b5085525050918301918301620006b7565b50918a01519198509093505050808211156200078357600080fd5b620007918883890162000550565b94506040870151915080821115620007a857600080fd5b50620007b787828801620005c3565b606096909601519497939650505050565b634e487b7160e01b600052603260045260246000fd5b600181811c90821680620007f357607f821691505b602082108114156200081557634e487b7160e01b600052602260045260246000fd5b50919050565b612f35806200082b6000396000f3fe60806040523480156200001157600080fd5b5060043610620002795760003560e01c80636c9fa59e1162000155578063c557b98511620000c7578063e1c7392a1162000086578063e1c7392a1462000520578063e3b4c0d1146200052a578063ef430aa61462000541578063fb1db278146200054b578063fddf8379146200055f57600080fd5b8063c557b98514620004e1578063ce65868f14620004eb578063d29e90201462000502578063d7145445146200050c578063db231e00146200051657600080fd5b80638da5cb5b11620001145780638da5cb5b1462000491578063a5cb244014620004a5578063badf822b14620004af578063beb08ab914620004c3578063c24a0f8b14620004d757600080fd5b80636c9fa59e14620003fd57806371927628146200042a5780637198413914620004415780637284e416146200047057806389fabc80146200047a57600080fd5b806328f8692b11620001ef5780634e71d92d11620001ae5780634e71d92d14620003845780634e772479146200038e57806356975b8414620003c55780635af36e3e14620003cf5780635ffe614614620003e657600080fd5b806328f8692b14620003525780633f407b84146200035c5780634a4ebc3d14620003665780634a79d50c14620003705780634afdd0e7146200037a57600080fd5b8063177d2a74116200023c578063177d2a7414620002e65780631828983a14620002fd5780631b3ed7221462000334578063200d2ed2146200033e57806327d0d52d146200034857600080fd5b806303e5979d146200027e5780630b97bc8614620002a05780630c6b870514620002b9578063129874aa14620002c3578063141ce1ed14620002dc575b600080fd5b6200028862000573565b6040516200029791906200216f565b60405180910390f35b620002aa600c5481565b60405190815260200162000297565b620002aa60175481565b620002da620002d4366004620021c7565b62000609565b005b620002da62000b24565b620002da620002f736600462002203565b62000dc5565b620003236200030e36600462002203565b60016020526000908152604090205460ff1681565b604051901515815260200162000297565b620002aa60135481565b620002aa60195481565b620002aa600a5481565b620002aa60105481565b620002aa60115481565b6200028862000e4e565b6200028862000e5d565b620002aa600b5481565b620002da62000e6c565b620003a56200039f36600462002203565b6200104a565b604080519315158452602084019290925215159082015260600162000297565b620002aa600f5481565b620002da620003e0366004620021c7565b6200132d565b62000323620003f73660046200222a565b620014c1565b60025462000411906001600160a01b031681565b6040516001600160a01b03909116815260200162000297565b620003236200043b36600462002203565b620014fc565b620003236200045236600462002203565b6001600160a01b03166000908152601c602052604090205460ff1690565b6200028862001553565b620002da6200048b36600462002203565b62001562565b60005462000411906001600160a01b031681565b620002aa600e5481565b60035462000411906001600160a01b031681565b60145462000411906001600160a01b031681565b620002aa600d5481565b62000288620015ec565b620002aa620004fc36600462002203565b620015fb565b620002da620018ea565b620002aa60125481565b620002aa60185481565b620002da62001cad565b620003236200053b3660046200222a565b62001f50565b6200028862002152565b60165462000411906001600160a01b031681565b60155462000411906001600160a01b031681565b60078054620005829062002244565b80601f0160208091040260200160405190810160405280929190818152602001828054620005b09062002244565b8015620006015780601f10620005d55761010080835404028352916020019162000601565b820191906000526020600020905b815481529060010190602001808311620005e357829003601f168201915b505050505081565b60008211620006565760405162461bcd60e51b815260206004820152601460248201527353656e7420616d6f756e74206973207a65726f2160601b60448201526064015b60405180910390fd5b62000664426103e862002297565b600c5410620006af5760405162461bcd60e51b81526020600482015260166024820152754974206861736e27742073746172746564207965742160501b60448201526064016200064d565b620006bd426103e862002297565b600d5411620006fd5760405162461bcd60e51b815260206004820152600b60248201526a54696d652069732075702160a81b60448201526064016200064d565b6003546040516323b872dd60e01b8152336004820152306024820152604481018490526001600160a01b03909116906323b872dd906064016020604051808303816000875af115801562000755573d6000803e3d6000fd5b505050506040513d601f19601f820116820180604052508101906200077b9190620022b9565b5060025460405163a9059cbb60e01b81526001600160a01b039091169063a9059cbb90620007b09033908590600401620022dd565b6020604051808303816000875af1158015620007d0573d6000803e3d6000fd5b505050506040513d601f19601f82011682018060405250810190620007f69190620022b9565b5081601260008282546200080b9190620022f6565b9091555050336000818152601b602052604090819020805460ff19166001179055517fff871a9ae5845a29b42a0cadf1d60e02e4ff529db54de46b045d457bdbc1a0e79162000861913091869186919062002311565b60405180910390a16002546040516370a0823160e01b81523060048201526000916001600160a01b0316906370a0823190602401602060405180830381865afa158015620008b3573d6000803e3d6000fd5b505050506040513d601f19601f82011682018060405250810190620008d991906200233c565b600e5460115491925090620008ef838262002356565b620008fc90606462002297565b62000908919062002370565b106200093957600c54600d5462000920919062002356565b600d6000828254620009339190620022f6565b90915550505b8062000b1f5760016019556016546017546040516369e0f35760e11b815260048101919091523060248201526001600160a01b039091169063d3c1e6ae90604401602060405180830381865afa15801562000998573d6000803e3d6000fd5b505050506040513d601f19601f82011682018060405250810190620009be91906200233c565b60185560165460175460405163958e2d3160e01b81526001600160a01b039092169163958e2d3191620009f79160040190815260200190565b600060405180830381600087803b15801562000a1257600080fd5b505af115801562000a27573d6000803e3d6000fd5b50506016546017546040516364482f7960e01b8152600481019190915260006024820181905260448201526001600160a01b0390911692506364482f799150606401600060405180830381600087803b15801562000a8457600080fd5b505af115801562000a99573d6000803e3d6000fd5b505060035460145460125460405163a9059cbb60e01b81526001600160a01b03938416955063a9059cbb945062000ad79390921691600401620022dd565b6020604051808303816000875af115801562000af7573d6000803e3d6000fd5b505050506040513d601f19601f8201168201806040525081019062000b1d9190620022b9565b505b505050565b3360009081526001602052604090205460ff1662000b565760405162461bcd60e51b81526004016200064d9062002393565b6002546040516370a0823160e01b81523060048201526000916001600160a01b0316906370a0823190602401602060405180830381865afa15801562000ba0573d6000803e3d6000fd5b505050506040513d601f19601f8201168201806040525081019062000bc691906200233c565b90506000811162000c1a5760405162461bcd60e51b815260206004820152601c60248201527f63616e27742063616c6c20696e207472616465642070726f6a6563740000000060448201526064016200064d565b60025460145460405163a9059cbb60e01b81526001600160a01b039283169263a9059cbb9262000c52929116908590600401620022dd565b6020604051808303816000875af115801562000c72573d6000803e3d6000fd5b505050506040513d601f19601f8201168201806040525081019062000c989190620022b9565b50600e5460115462000cab838262002356565b62000cb890606462002297565b62000cc4919062002370565b101562000cf657600c54600d5462000cdd919062002356565b600d600082825462000cf09190620022f6565b90915550505b60035460145460125460405163a9059cbb60e01b81526001600160a01b039384169363a9059cbb9362000d2f93911691600401620022dd565b6020604051808303816000875af115801562000d4f573d6000803e3d6000fd5b505050506040513d601f19601f8201168201806040525081019062000d759190620022b9565b506014546040517fff871a9ae5845a29b42a0cadf1d60e02e4ff529db54de46b045d457bdbc1a0e79162000dba91309160009186916001600160a01b03169062002311565b60405180910390a150565b3360009081526001602052604090205460ff1662000df75760405162461bcd60e51b81526004016200064d9062002393565b6001600160a01b038116600081815260016020818152604092839020805460ff19168317905582519384528301527f5fe3a0cb9aeae856eac34445ace9544f3e15c21fa6f9bffeca60d662a690ca1b910162000dba565b60098054620005829062002244565b60048054620005829062002244565b60008062000e7a336200104a565b50915091508115801562000e8e5750600081115b62000ecb5760405162461bcd60e51b815260206004820152600c60248201526b436c61696d204572726f722160a01b60448201526064016200064d565b60035460405163a9059cbb60e01b81526001600160a01b039091169063a9059cbb9062000eff9033908590600401620022dd565b6020604051808303816000875af115801562000f1f573d6000803e3d6000fd5b505050506040513d601f19601f8201168201806040525081019062000f459190620022b9565b5080600f600082825462000f5a919062002356565b9091555050336000908152601a602090815260408083206002548251632a1cd6c360e11b81529251600195929492936001600160a01b0390921692635439ad8692600480820193918290030181865afa15801562000fbc573d6000803e3d6000fd5b505050506040513d601f19601f8201168201806040525081019062000fe291906200233c565b81526020808201929092526040908101600020805460ff191693151593909317909255815130815290810183905233918101919091527f7e6632ca16a0ac6cf28448500b1a17d96c8b8163ad4c4a9b44ef5386cc02779e906060015b60405180910390a15050565b6001600160a01b038082166000908152601a602090815260408083206002548251632a1cd6c360e11b815292519495869586958695869490931692635439ad8692600480830193928290030181865afa158015620010ac573d6000803e3d6000fd5b505050506040513d601f19601f82011682018060405250810190620010d291906200233c565b81526020810191909152604090810160009081205460155492516367b0fef760e11b81523060048201526001600160a01b03898116602483015260ff90921694509192169063cf61fdee90604401602060405180830381865afa1580156200113e573d6000803e3d6000fd5b505050506040513d601f19601f820116820180604052508101906200116491906200233c565b905080156200117257600191505b600082620013025760025460408051632a1cd6c360e11b815290516000926001600160a01b031691634ee2cd7e918b918491635439ad86916004808201926020929091908290030181865afa158015620011d0573d6000803e3d6000fd5b505050506040513d601f19601f82011682018060405250810190620011f691906200233c565b6040518363ffffffff1660e01b815260040162001215929190620022dd565b602060405180830381865afa15801562001233573d6000803e3d6000fd5b505050506040513d601f19601f820116820180604052508101906200125991906200233c565b9050620012678382620022f6565b9050600260009054906101000a90046001600160a01b03166001600160a01b03166318160ddd6040518163ffffffff1660e01b8152600401602060405180830381865afa158015620012bd573d6000803e3d6000fd5b505050506040513d601f19601f82011682018060405250810190620012e391906200233c565b601054620012f2908362002297565b620012fe919062002370565b9150505b6001600160a01b0387166000908152601b602052604090205492955093505060ff1690509193909250565b60008211620013765760405162461bcd60e51b815260206004820152601460248201527353656e7420616d6f756e74206973207a65726f2160601b60448201526064016200064d565b6002546040516323b872dd60e01b8152336004820152306024820152604481018490526001600160a01b03909116906323b872dd906064016020604051808303816000875af1158015620013ce573d6000803e3d6000fd5b505050506040513d601f19601f82011682018060405250810190620013f49190620022b9565b5060035460405163a9059cbb60e01b81526001600160a01b039091169063a9059cbb90620014299033908590600401620022dd565b6020604051808303816000875af115801562001449573d6000803e3d6000fd5b505050506040513d601f19601f820116820180604052508101906200146f9190620022b9565b50806012600082825462001484919062002356565b90915550506040517f89adc23bf21dbf8bb4327dc5b14ecd94b350f7a3d641dfb559767f700e237872906200103e90309084908690339062002311565b3360009081526001602052604081205460ff16620014f35760405162461bcd60e51b81526004016200064d9062002393565b50601355600190565b3360009081526001602052604081205460ff166200152e5760405162461bcd60e51b81526004016200064d9062002393565b50601480546001600160a01b0383166001600160a01b03199091161790556001919050565b60058054620005829062002244565b3360009081526001602052604090205460ff16620015945760405162461bcd60e51b81526004016200064d9062002393565b6001600160a01b0381166000818152600160209081526040808320805460ff191690558051938452908301919091527f5fe3a0cb9aeae856eac34445ace9544f3e15c21fa6f9bffeca60d662a690ca1b910162000dba565b60088054620005829062002244565b6001600160a01b0381166000908152601c602052604081205460ff16620018e2576002546040516370a0823160e01b81526001600160a01b03848116600483015260009216906370a0823190602401602060405180830381865afa15801562001668573d6000803e3d6000fd5b505050506040513d601f19601f820116820180604052508101906200168e91906200233c565b6015546040516367b0fef760e11b81523060048201526001600160a01b0386811660248301529293506000929091169063cf61fdee90604401602060405180830381865afa158015620016e5573d6000803e3d6000fd5b505050506040513d601f19601f820116820180604052508101906200170b91906200233c565b90506019546000141562001841576016546017546040516369e0f35760e11b815260048101919091523060248201526000916001600160a01b03169063d3c1e6ae90604401602060405180830381865afa1580156200176e573d6000803e3d6000fd5b505050506040513d601f19601f820116820180604052508101906200179491906200233c565b90506000600260009054906101000a90046001600160a01b03166001600160a01b03166318160ddd6040518163ffffffff1660e01b8152600401602060405180830381865afa158015620017ec573d6000803e3d6000fd5b505050506040513d601f19601f820116820180604052508101906200181291906200233c565b826200181f8587620022f6565b6200182b919062002297565b62001837919062002370565b9695505050505050565b600254604080516318160ddd60e01b815290516000926001600160a01b0316916318160ddd9160048083019260209291908290030181865afa1580156200188c573d6000803e3d6000fd5b505050506040513d601f19601f82011682018060405250810190620018b291906200233c565b601854620018c18486620022f6565b620018cd919062002297565b620018d9919062002370565b95945050505050565b506000919050565b601954600114620019645760405162461bcd60e51b815260206004820152603860248201527f596f752063616e20636c61696d2074686520726577617264207768656e20746860448201527f652070726f6a656374207265616368206f75742031303025000000000000000060648201526084016200064d565b336000908152601c602052604090205460ff1615620019c65760405162461bcd60e51b815260206004820152601860248201527f596f75206861766520616c726561647920636c61696d6564000000000000000060448201526064016200064d565b6002546040516370a0823160e01b81523360048201526000916001600160a01b0316906370a0823190602401602060405180830381865afa15801562001a10573d6000803e3d6000fd5b505050506040513d601f19601f8201168201806040525081019062001a3691906200233c565b6015546040516367b0fef760e11b81523060048201523360248201529192506000916001600160a01b039091169063cf61fdee90604401602060405180830381865afa15801562001a8b573d6000803e3d6000fd5b505050506040513d601f19601f8201168201806040525081019062001ab191906200233c565b90506000601660009054906101000a90046001600160a01b03166001600160a01b031663fd01ea9f6040518163ffffffff1660e01b81526004016020604051808303816000875af115801562001b0b573d6000803e3d6000fd5b505050506040513d601f19601f8201168201806040525081019062001b319190620023bb565b90506000600260009054906101000a90046001600160a01b03166001600160a01b03166318160ddd6040518163ffffffff1660e01b8152600401602060405180830381865afa15801562001b89573d6000803e3d6000fd5b505050506040513d601f19601f8201168201806040525081019062001baf91906200233c565b60185462001bbe8587620022f6565b62001bca919062002297565b62001bd6919062002370565b336000818152601c602052604090819020805460ff191660011790555163a9059cbb60e01b81529192506001600160a01b0384169163a9059cbb9162001c21918590600401620022dd565b6020604051808303816000875af115801562001c41573d6000803e3d6000fd5b505050506040513d601f19601f8201168201806040525081019062001c679190620022b9565b506040805130815260208101839052338183015290517fcb6bfd105c15c6f1113e31fbad4f03348c62b2970066b99b4e88bc914c2aa22f9181900360600190a150505050565b6000546001600160a01b0316331462001cf95760405162461bcd60e51b815260206004820152600d60248201526c2737ba103a34329037bbb732b960991b60448201526064016200064d565b600060405162001d099062002161565b604080825260079082015266054454d50204c560cc1b6060820152608060208201819052600390820152620544c560ec1b60a082015260c001604051809103906000f08015801562001d5f573d6000803e3d6000fd5b50601654601354604051636283d75560e11b815260048101919091526001600160a01b038084166024830152600060448301526001606483015292935091169063c507aeaa90608401600060405180830381600087803b15801562001dc357600080fd5b505af115801562001dd8573d6000803e3d6000fd5b505060165460405163095ea7b360e01b815267016345785d8a000093506001600160a01b03808616935063095ea7b39262001e1b929116908590600401620022dd565b6020604051808303816000875af115801562001e3b573d6000803e3d6000fd5b505050506040513d601f19601f8201168201806040525081019062001e619190620022b9565b506016546040805163040f1f6d60e11b815290516001926001600160a01b03169163081e3eda91600480830192602092919082900301816000875af115801562001eaf573d6000803e3d6000fd5b505050506040513d601f19601f8201168201806040525081019062001ed591906200233c565b62001ee1919062002356565b6017819055601654604051631c57762b60e31b81526004810192909252602482018390526001600160a01b03169063e2bbb15890604401600060405180830381600087803b15801562001f3357600080fd5b505af115801562001f48573d6000803e3d6000fd5b505050505050565b600080821162001f9a5760405162461bcd60e51b815260206004820152601460248201527373656e7420616d6f756e74206973207a65726f2160601b60448201526064016200064d565b600f54156200202157600354600f5460405163a9059cbb60e01b81526001600160a01b039092169163a9059cbb9162001fd991339190600401620022dd565b6020604051808303816000875af115801562001ff9573d6000803e3d6000fd5b505050506040513d601f19601f820116820180604052508101906200201f9190620022b9565b505b6003546040516323b872dd60e01b8152336004820152306024820152604481018490526001600160a01b03909116906323b872dd906064016020604051808303816000875af115801562002079573d6000803e3d6000fd5b505050506040513d601f19601f820116820180604052508101906200209f9190620022b9565b50600f829055601082905560025460408051634b88b8ad60e11b815290516001600160a01b0390921691639711715a9160048082019260009290919082900301818387803b158015620020f157600080fd5b505af115801562002106573d6000803e3d6000fd5b50506040805130815260208101869052338183015290517f1f333b8f778a40c6385546d263a84ef38c89f2ce5bfb25d8a1f4f66b53c96f349350908190036060019150a1506001919050565b60068054620005829062002244565b610b2480620023dc83390190565b600060208083528351808285015260005b818110156200219e5785810183015185820160400152820162002180565b81811115620021b1576000604083870101525b50601f01601f1916929092016040019392505050565b60008060408385031215620021db57600080fd5b50508035926020909101359150565b6001600160a01b03811681146200220057600080fd5b50565b6000602082840312156200221657600080fd5b81356200222381620021ea565b9392505050565b6000602082840312156200223d57600080fd5b5035919050565b600181811c908216806200225957607f821691505b602082108114156200227b57634e487b7160e01b600052602260045260246000fd5b50919050565b634e487b7160e01b600052601160045260246000fd5b6000816000190483118215151615620022b457620022b462002281565b500290565b600060208284031215620022cc57600080fd5b815180151581146200222357600080fd5b6001600160a01b03929092168252602082015260400190565b600082198211156200230c576200230c62002281565b500190565b6001600160a01b03948516815260208101939093526040830191909152909116606082015260800190565b6000602082840312156200234f57600080fd5b5051919050565b6000828210156200236b576200236b62002281565b500390565b6000826200238e57634e487b7160e01b600052601260045260246000fd5b500490565b6020808252600e908201526d139bdd08185d5d1a1bdc9a5e995960921b604082015260600190565b600060208284031215620023ce57600080fd5b81516200222381620021ea56fe60806040523480156200001157600080fd5b5060405162000b2438038062000b2483398101604081905262000034916200024b565b815162000049906000906020850190620000d8565b5080516200005f906001906020840190620000d8565b506002805460ff191660101790556c0c9f2c9cd04674edea4000000060038190553360008181526004602052604080822084905551919290917fddf252ad1be2c89b69c2b068fc378daa952ba7f163c4a11628f55a4df523b3ef91620000c89190815260200190565b60405180910390a35050620002f2565b828054620000e690620002b5565b90600052602060002090601f0160209004810192826200010a576000855562000155565b82601f106200012557805160ff191683800117855562000155565b8280016001018555821562000155579182015b828111156200015557825182559160200191906001019062000138565b506200016392915062000167565b5090565b5b8082111562000163576000815560010162000168565b634e487b7160e01b600052604160045260246000fd5b600082601f830112620001a657600080fd5b81516001600160401b0380821115620001c357620001c36200017e565b604051601f8301601f19908116603f01168101908282118183101715620001ee57620001ee6200017e565b816040528381526020925086838588010111156200020b57600080fd5b600091505b838210156200022f578582018301518183018401529082019062000210565b83821115620002415760008385830101525b9695505050505050565b600080604083850312156200025f57600080fd5b82516001600160401b03808211156200027757600080fd5b620002858683870162000194565b935060208501519150808211156200029c57600080fd5b50620002ab8582860162000194565b9150509250929050565b600181811c90821680620002ca57607f821691505b60208210811415620002ec57634e487b7160e01b600052602260045260246000fd5b50919050565b61082280620003026000396000f3fe608060405234801561001057600080fd5b50600436106100ea5760003560e01c806395d89b411161008c578063b5931f7c11610066578063b5931f7c146101d8578063d05c78da146101eb578063dd62ed3e146101fe578063e6cb90131461023757600080fd5b806395d89b41146101aa578063a293d1e8146101b2578063a9059cbb146101c557600080fd5b806323b872dd116100c857806323b872dd14610146578063313ce567146101595780633eaaf86b1461017857806370a082311461018157600080fd5b806306fdde03146100ef578063095ea7b31461010d57806318160ddd14610130575b600080fd5b6100f761024a565b60405161010491906105e4565b60405180910390f35b61012061011b366004610655565b6102d8565b6040519015158152602001610104565b610138610345565b604051908152602001610104565b61012061015436600461067f565b610383565b6002546101669060ff1681565b60405160ff9091168152602001610104565b61013860035481565b61013861018f3660046106bb565b6001600160a01b031660009081526004602052604090205490565b6100f7610481565b6101386101c03660046106d6565b61048e565b6101206101d3366004610655565b6104ee565b6101386101e63660046106d6565b610585565b6101386101f93660046106d6565b61059d565b61013861020c3660046106f8565b6001600160a01b03918216600090815260056020908152604080832093909416825291909152205490565b6101386102453660046106d6565b6105c9565b600080546102579061072b565b80601f01602080910402602001604051908101604052809291908181526020018280546102839061072b565b80156102d05780601f106102a5576101008083540402835291602001916102d0565b820191906000526020600020905b8154815290600101906020018083116102b357829003601f168201915b505050505081565b3360008181526005602090815260408083206001600160a01b038716808552925280832085905551919290917f8c5be1e5ebec7d5bd14f71427d1e84f3dd0314c0f7b2291e5b200ac8c7c3b925906103339086815260200190565b60405180910390a35060015b92915050565b600080805260046020527f17ef568e3e12ab5b9c7254a8d58478811de00f9e6eb34345acd53bf8fd09d3ec5460035461037e919061077c565b905090565b6001600160a01b0383166000908152600460205260408120546103a6908361048e565b6001600160a01b03851660009081526004602090815260408083209390935560058152828220338352905220546103dd908361048e565b6001600160a01b03808616600090815260056020908152604080832033845282528083209490945591861681526004909152205461041b90836105c9565b6001600160a01b0380851660008181526004602052604090819020939093559151908616907fddf252ad1be2c89b69c2b068fc378daa952ba7f163c4a11628f55a4df523b3ef9061046f9086815260200190565b60405180910390a35060019392505050565b600180546102579061072b565b6000828211156104dd5760405162461bcd60e51b8152602060048201526016602482015275209034b9903737ba103134b3b3b2b9103a3430b7103160511b604482015260640160405180910390fd5b6104e7828461077c565b9392505050565b33600090815260046020526040812054610508908361048e565b33600090815260046020526040808220929092556001600160a01b0385168152205461053490836105c9565b6001600160a01b0384166000818152600460205260409081902092909255905133907fddf252ad1be2c89b69c2b068fc378daa952ba7f163c4a11628f55a4df523b3ef906103339086815260200190565b600080821161059357600080fd5b6104e78284610793565b60006105a982846107b5565b90508215806105c05750816105be8483610793565b145b61033f57600080fd5b60006105d582846107d4565b90508281101561033f57600080fd5b600060208083528351808285015260005b81811015610611578581018301518582016040015282016105f5565b81811115610623576000604083870101525b50601f01601f1916929092016040019392505050565b80356001600160a01b038116811461065057600080fd5b919050565b6000806040838503121561066857600080fd5b61067183610639565b946020939093013593505050565b60008060006060848603121561069457600080fd5b61069d84610639565b92506106ab60208501610639565b9150604084013590509250925092565b6000602082840312156106cd57600080fd5b6104e782610639565b600080604083850312156106e957600080fd5b50508035926020909101359150565b6000806040838503121561070b57600080fd5b61071483610639565b915061072260208401610639565b90509250929050565b600181811c9082168061073f57607f821691505b6020821081141561076057634e487b7160e01b600052602260045260246000fd5b50919050565b634e487b7160e01b600052601160045260246000fd5b60008282101561078e5761078e610766565b500390565b6000826107b057634e487b7160e01b600052601260045260246000fd5b500490565b60008160001904831182151516156107cf576107cf610766565b500290565b600082198211156107e7576107e7610766565b50019056fea264697066735822122048e89f5464e57d6ee80243b6599e447f71a69a532595c1975f5da7f4b1eb690e64736f6c634300080a0033a26469706673582212203d206a2670d7da64e3409e78cf0ff87f1434a7d6fe07f850e4222de3b35fcf4b64736f6c634300080a0033",
  "linkReferences": {},
  "deployedLinkReferences": {}
}