{
  "_format": "hh-sol-artifact-1",
  "contractName": "ProjectManage",
  "sourceName": "contracts/ProjectManage.sol",
  "abi": [
    {
      "inputs": [
        {
          "internalType": "address",
          "name": "_masterchef",
          "type": "address"
        },
        {
          "internalType": "address",
          "name": "_projectTrade",
          "type": "address"
        }
      ],
      "stateMutability": "nonpayable",
      "type": "constructor"
    },
    {
      "anonymous": false,
      "inputs": [
        {
          "indexed": false,
          "internalType": "address",
          "name": "founderAddress",
          "type": "address"
        },
        {
          "indexed": false,
          "internalType": "address",
          "name": "contractAddress",
          "type": "address"
        },
        {
          "indexed": false,
          "internalType": "address",
          "name": "tokenAddress",
          "type": "address"
        }
      ],
      "name": "DeployedNewProject",
      "type": "event"
    },
    {
      "anonymous": false,
      "inputs": [
        {
          "indexed": true,
          "internalType": "address",
          "name": "previousOwner",
          "type": "address"
        },
        {
          "indexed": true,
          "internalType": "address",
          "name": "newOwner",
          "type": "address"
        }
      ],
      "name": "OwnershipTransferred",
      "type": "event"
    },
    {
      "inputs": [
        {
          "internalType": "string",
          "name": "name",
          "type": "string"
        },
        {
          "internalType": "string",
          "name": "symbol",
          "type": "string"
        },
        {
          "internalType": "uint256",
          "name": "total",
          "type": "uint256"
        },
        {
          "internalType": "uint8",
          "name": "decimals",
          "type": "uint8"
        },
        {
          "internalType": "uint256",
          "name": "sellAmount",
          "type": "uint256"
        },
        {
          "internalType": "string[]",
          "name": "_infoST",
          "type": "string[]"
        },
        {
          "internalType": "uint256[]",
          "name": "_infoNB",
          "type": "uint256[]"
        },
        {
          "internalType": "address[]",
          "name": "_infoAddress",
          "type": "address[]"
        }
      ],
      "name": "createProject",
      "outputs": [
        {
          "internalType": "address",
          "name": "",
          "type": "address"
        },
        {
          "internalType": "address",
          "name": "",
          "type": "address"
        }
      ],
      "stateMutability": "nonpayable",
      "type": "function"
    },
    {
      "inputs": [],
      "name": "getAllFounders",
      "outputs": [
        {
          "internalType": "address[]",
          "name": "",
          "type": "address[]"
        }
      ],
      "stateMutability": "view",
      "type": "function"
    },
    {
      "inputs": [],
      "name": "getProjectAllContract",
      "outputs": [
        {
          "internalType": "address[]",
          "name": "",
          "type": "address[]"
        }
      ],
      "stateMutability": "view",
      "type": "function"
    },
    {
      "inputs": [
        {
          "internalType": "address",
          "name": "_owner",
          "type": "address"
        }
      ],
      "name": "getProjectContractOwner",
      "outputs": [
        {
          "internalType": "address[]",
          "name": "",
          "type": "address[]"
        }
      ],
      "stateMutability": "view",
      "type": "function"
    },
    {
      "inputs": [],
      "name": "masterchef",
      "outputs": [
        {
          "internalType": "contract IYOCMasterChef",
          "name": "",
          "type": "address"
        }
      ],
      "stateMutability": "view",
      "type": "function"
    },
    {
      "inputs": [],
      "name": "owner",
      "outputs": [
        {
          "internalType": "address",
          "name": "",
          "type": "address"
        }
      ],
      "stateMutability": "view",
      "type": "function"
    },
    {
      "inputs": [
        {
          "internalType": "address",
          "name": "",
          "type": "address"
        },
        {
          "internalType": "uint256",
          "name": "",
          "type": "uint256"
        }
      ],
      "name": "ownerToProjects",
      "outputs": [
        {
          "internalType": "address",
          "name": "",
          "type": "address"
        }
      ],
      "stateMutability": "view",
      "type": "function"
    },
    {
      "inputs": [],
      "name": "projectTrade",
      "outputs": [
        {
          "internalType": "contract IProjectTrade",
          "name": "",
          "type": "address"
        }
      ],
      "stateMutability": "view",
      "type": "function"
    },
    {
      "inputs": [],
      "name": "renounceOwnership",
      "outputs": [],
      "stateMutability": "nonpayable",
      "type": "function"
    },
    {
      "inputs": [
        {
          "internalType": "address",
          "name": "newOwner",
          "type": "address"
        }
      ],
      "name": "transferOwnership",
      "outputs": [],
      "stateMutability": "nonpayable",
      "type": "function"
    }
  ],
  "bytecode": "0x608060405234801561001057600080fd5b5060405162005b2438038062005b24833981016040819052610031916100d7565b61003a3361006b565b600480546001600160a01b039384166001600160a01b0319918216179091556005805492909316911617905561010a565b600080546001600160a01b038381166001600160a01b0319831681178455604051919092169283917f8be0079c531659141344cd1fd0a4f28419497f9722a3daafe3b4186f6b6457e09190a35050565b80516001600160a01b03811681146100d257600080fd5b919050565b600080604083850312156100ea57600080fd5b6100f3836100bb565b9150610101602084016100bb565b90509250929050565b615a0a806200011a6000396000f3fe60806040523480156200001157600080fd5b5060043610620000ab5760003560e01c8063b701fe9b116200006e578063b701fe9b1462000153578063d92ff494146200015d578063f2fde38b1462000174578063fb1db278146200018b578063fddf8379146200019f57600080fd5b806342915d6314620000b05780634800c0ae14620000df578063715018a614620001175780638da5cb5b1462000123578063b519f6e01462000149575b600080fd5b620000c7620000c136600462000ae3565b620001b3565b604051620000d6919062000b4e565b60405180910390f35b620000f6620000f036600462000dc5565b6200022b565b604080516001600160a01b03938416815292909116602083015201620000d6565b6200012162000730565b005b6000546001600160a01b03165b6040516001600160a01b039091168152602001620000d6565b620000c762000748565b620000c7620007ac565b620001306200016e36600462000ecd565b62000946565b620001216200018536600462000ae3565b6200097f565b60045462000130906001600160a01b031681565b60055462000130906001600160a01b031681565b6001600160a01b03811660009081526003602090815260408083208054825181850281018501909352808352606094938301828280156200021e57602002820191906000526020600020905b81546001600160a01b03168152600190910190602001808311620001ff575b5093979650505050505050565b60008060006001600160a01b0316836000815181106200024f576200024f62000efa565b60200260200101516001600160a01b03161415620002a65760405162461bcd60e51b815260206004820152600f60248201526e496e76616c6964206164647265737360881b60448201526064015b60405180910390fd5b33600090815260036020526040902054620002fe57600280546001810182556000919091527f405787fa12a823e0f2b7631cc41b3ba8828b3321ca811111fa75cd3aa3bb5ace0180546001600160a01b031916331790555b60408051600580825260c082019092526000916020820160a08036833701905050905060008b8b8b8b8b33604051620003379062000aaa565b620003489695949392919062000f60565b604051809103906000f08015801562000365573d6000803e3d6000fd5b50905080826000815181106200037f576200037f62000efa565b60200260200101906001600160a01b031690816001600160a01b03168152505084600081518110620003b557620003b562000efa565b602002602001015182600181518110620003d357620003d362000efa565b60200260200101906001600160a01b031690816001600160a01b0316815250508460018151811062000409576200040962000efa565b60200260200101518260028151811062000427576200042762000efa565b6001600160a01b0392831660209182029290920101526005548351911690839060039081106200045b576200045b62000efa565b6001600160a01b03928316602091820292909201015260048054845192169184919081106200048e576200048e62000efa565b60200260200101906001600160a01b031690816001600160a01b03168152505060008787848b604051620004c29062000ab8565b620004d1949392919062000fbb565b604051809103906000f080158015620004ee573d6000803e3d6000fd5b506004805460405163678e18b560e11b81526001600160a01b0380851693820193909352929350169063cf1c316a90602401600060405180830381600087803b1580156200053b57600080fd5b505af115801562000550573d6000803e3d6000fd5b50505050806001600160a01b031663e1c7392a6040518163ffffffff1660e01b8152600401600060405180830381600087803b1580156200059057600080fd5b505af1158015620005a5573d6000803e3d6000fd5b50506040516370a0823160e01b81523060048201526001600160a01b038516925063a9059cbb9150839083906370a0823190602401602060405180830381865afa158015620005f8573d6000803e3d6000fd5b505050506040513d601f19601f820116820180604052508101906200061e919062001079565b6040516001600160e01b031960e085901b1681526001600160a01b03909216600483015260248201526044016020604051808303816000875af11580156200066a573d6000803e3d6000fd5b505050506040513d601f19601f8201168201806040525081019062000690919062001093565b503360009081526003602090815260408220805460018082018355918452919092200180546001600160a01b0319166001600160a01b038416179055805481019055604080513381526001600160a01b0380841660208301528416918101919091527f1b4c53b94836fa026287c766e681094ea3f7cabdd599b2343b2aa694f7c08c379060600160405180910390a19c909b509950505050505050505050565b6200073a620009fe565b62000746600062000a5a565b565b60606002805480602002602001604051908101604052809291908181526020018280548015620007a257602002820191906000526020600020905b81546001600160a01b0316815260019091019060200180831162000783575b5050505050905090565b60606000620007ba60015490565b67ffffffffffffffff811115620007d557620007d562000b63565b604051908082528060200260200182016040528015620007ff578160200160208202803683370190505b5090506000805b6002548110156200093e57600060036000600284815481106200082d576200082d62000efa565b60009182526020808320909101546001600160a01b03168352828101939093526040918201902080548251818502810185019093528083529192909190830182828015620008a557602002820191906000526020600020905b81546001600160a01b0316815260019091019060200180831162000886575b5050505050905060005b81518110156200092657818181518110620008ce57620008ce62000efa565b6020026020010151858580620008e490620010b7565b965081518110620008f957620008f962000efa565b6001600160a01b0390921660209283029190910190910152806200091d81620010b7565b915050620008af565b505080806200093590620010b7565b91505062000806565b509092915050565b600360205281600052604060002081815481106200096357600080fd5b6000918252602090912001546001600160a01b03169150829050565b62000989620009fe565b6001600160a01b038116620009f05760405162461bcd60e51b815260206004820152602660248201527f4f776e61626c653a206e6577206f776e657220697320746865207a65726f206160448201526564647265737360d01b60648201526084016200029d565b620009fb8162000a5a565b50565b6000546001600160a01b03163314620007465760405162461bcd60e51b815260206004820181905260248201527f4f776e61626c653a2063616c6c6572206973206e6f7420746865206f776e657260448201526064016200029d565b600080546001600160a01b038381166001600160a01b0319831681178455604051919092169283917f8be0079c531659141344cd1fd0a4f28419497f9722a3daafe3b4186f6b6457e09190a35050565b61150d80620010e283390190565b6133e680620025ef83390190565b80356001600160a01b038116811462000ade57600080fd5b919050565b60006020828403121562000af657600080fd5b62000b018262000ac6565b9392505050565b600081518084526020808501945080840160005b8381101562000b435781516001600160a01b03168752958201959082019060010162000b1c565b509495945050505050565b60208152600062000b01602083018462000b08565b634e487b7160e01b600052604160045260246000fd5b604051601f8201601f1916810167ffffffffffffffff8111828210171562000ba55762000ba562000b63565b604052919050565b600082601f83011262000bbf57600080fd5b813567ffffffffffffffff81111562000bdc5762000bdc62000b63565b62000bf1601f8201601f191660200162000b79565b81815284602083860101111562000c0757600080fd5b816020850160208301376000918101602001919091529392505050565b803560ff8116811462000ade57600080fd5b600067ffffffffffffffff82111562000c535762000c5362000b63565b5060051b60200190565b600082601f83011262000c6f57600080fd5b8135602062000c8862000c828362000c36565b62000b79565b82815260059290921b8401810191818101908684111562000ca857600080fd5b8286015b8481101562000ced57803567ffffffffffffffff81111562000cce5760008081fd5b62000cde8986838b010162000bad565b84525091830191830162000cac565b509695505050505050565b600082601f83011262000d0a57600080fd5b8135602062000d1d62000c828362000c36565b82815260059290921b8401810191818101908684111562000d3d57600080fd5b8286015b8481101562000ced578035835291830191830162000d41565b600082601f83011262000d6c57600080fd5b8135602062000d7f62000c828362000c36565b82815260059290921b8401810191818101908684111562000d9f57600080fd5b8286015b8481101562000ced5762000db78162000ac6565b835291830191830162000da3565b600080600080600080600080610100898b03121562000de357600080fd5b883567ffffffffffffffff8082111562000dfc57600080fd5b62000e0a8c838d0162000bad565b995060208b013591508082111562000e2157600080fd5b62000e2f8c838d0162000bad565b985060408b0135975062000e4660608c0162000c24565b965060808b0135955060a08b013591508082111562000e6457600080fd5b62000e728c838d0162000c5d565b945060c08b013591508082111562000e8957600080fd5b62000e978c838d0162000cf8565b935060e08b013591508082111562000eae57600080fd5b5062000ebd8b828c0162000d5a565b9150509295985092959890939650565b6000806040838503121562000ee157600080fd5b62000eec8362000ac6565b946020939093013593505050565b634e487b7160e01b600052603260045260246000fd5b6000815180845260005b8181101562000f385760208185018101518683018201520162000f1a565b8181111562000f4b576000602083870101525b50601f01601f19169290920160200192915050565b60c08152600062000f7560c083018962000f10565b828103602084015262000f89818962000f10565b6040840197909752505060ff93909316606084015260808301919091526001600160a01b031660a09091015292915050565b6000608082016080835280875180835260a08501915060a08160051b86010192506020808a0160005b838110156200101657609f198887030185526200100386835162000f10565b9550938201939082019060010162000fe4565b50508584038187015288518085528982019482019350915060005b828110156200104f5784518452938101939281019260010162001031565b505050838103604085015262001066818762000b08565b9250505082606083015295945050505050565b6000602082840312156200108c57600080fd5b5051919050565b600060208284031215620010a657600080fd5b8151801515811462000b0157600080fd5b6000600019821415620010da57634e487b7160e01b600052601160045260246000fd5b506001019056fe60806040523480156200001157600080fd5b506040516200150d3803806200150d833981016040819052620000349162000623565b8551869086906200004d906003906020850190620004b0565b50805162000063906004906020840190620004b0565b50506009805460ff191660ff861617905550600a829055620000863085620000bd565b6200009330338462000181565b30600081815260208190526040902054620000b19190839062000181565b50505050505062000779565b6001600160a01b038216620001195760405162461bcd60e51b815260206004820152601f60248201527f45524332303a206d696e7420746f20746865207a65726f20616464726573730060448201526064015b60405180910390fd5b620001276000838362000328565b80600260008282546200013b9190620006f1565b90915550506001600160a01b03821660008181526020818152604080832080548601905551848152600080516020620014ed833981519152910160405180910390a35050565b6001600160a01b038316620001e75760405162461bcd60e51b815260206004820152602560248201527f45524332303a207472616e736665722066726f6d20746865207a65726f206164604482015264647265737360d81b606482015260840162000110565b6001600160a01b0382166200024b5760405162461bcd60e51b815260206004820152602360248201527f45524332303a207472616e7366657220746f20746865207a65726f206164647260448201526265737360e81b606482015260840162000110565b6200025883838362000328565b6001600160a01b03831660009081526020819052604090205481811015620002d25760405162461bcd60e51b815260206004820152602660248201527f45524332303a207472616e7366657220616d6f756e7420657863656564732062604482015265616c616e636560d01b606482015260840162000110565b6001600160a01b0384811660008181526020818152604080832087870390559387168083529184902080548701905592518581529092600080516020620014ed833981519152910160405180910390a350505050565b620003408383836200034560201b620004921760201c565b505050565b6200035d8383836200034060201b620004b11760201c565b6001600160a01b03831662000381576200037782620003ac565b62000340620003e4565b6001600160a01b0382166200039b576200037783620003ac565b620003a683620003ac565b62000340825b6001600160a01b03811660009081526005602090815260408083209183905290912054620003e19190620003f6565b620003f6565b50565b620003f46006620003db60025490565b565b60006200040262000445565b905080620004108462000463565b101562000340578254600180820185556000858152602080822090930193909355938401805494850181558252902090910155565b60006200045e6008620004ac60201b620004df1760201c565b905090565b80546000906200047557506000919050565b8154829062000487906001906200070c565b815481106200049a576200049a62000726565b90600052602060002001549050919050565b5490565b828054620004be906200073c565b90600052602060002090601f016020900481019282620004e257600085556200052d565b82601f10620004fd57805160ff19168380011785556200052d565b828001600101855582156200052d579182015b828111156200052d57825182559160200191906001019062000510565b506200053b9291506200053f565b5090565b5b808211156200053b576000815560010162000540565b634e487b7160e01b600052604160045260246000fd5b600082601f8301126200057e57600080fd5b81516001600160401b03808211156200059b576200059b62000556565b604051601f8301601f19908116603f01168101908282118183101715620005c657620005c662000556565b81604052838152602092508683858801011115620005e357600080fd5b600091505b83821015620006075785820183015181830184015290820190620005e8565b83821115620006195760008385830101525b9695505050505050565b60008060008060008060c087890312156200063d57600080fd5b86516001600160401b03808211156200065557600080fd5b620006638a838b016200056c565b975060208901519150808211156200067a57600080fd5b506200068989828a016200056c565b95505060408701519350606087015160ff81168114620006a857600080fd5b608088015160a089015191945092506001600160a01b0381168114620006cd57600080fd5b809150509295509295509295565b634e487b7160e01b600052601160045260246000fd5b60008219821115620007075762000707620006db565b500190565b600082821015620007215762000721620006db565b500390565b634e487b7160e01b600052603260045260246000fd5b600181811c908216806200075157607f821691505b602082108114156200077357634e487b7160e01b600052602260045260246000fd5b50919050565b610d6480620007896000396000f3fe608060405234801561001057600080fd5b50600436106101005760003560e01c80635439ad8611610097578063981b24d011610066578063981b24d0146101f2578063a457c2d714610205578063a9059cbb14610218578063dd62ed3e1461022b57600080fd5b80635439ad86146101af57806370a08231146101b757806395d89b41146101e05780639711715a146101e857600080fd5b8063313ce567116100d3578063313ce5671461016b57806339509351146101805780633f407b84146101935780634ee2cd7e1461019c57600080fd5b806306fdde0314610105578063095ea7b31461012357806318160ddd1461014657806323b872dd14610158575b600080fd5b61010d61023e565b60405161011a9190610b3d565b60405180910390f35b610136610131366004610ba9565b6102d0565b604051901515815260200161011a565b6002545b60405190815260200161011a565b610136610166366004610bd3565b6102ea565b60095460405160ff909116815260200161011a565b61013661018e366004610ba9565b61030e565b61014a600a5481565b61014a6101aa366004610ba9565b610330565b61014a610389565b61014a6101c5366004610c0f565b6001600160a01b031660009081526020819052604090205490565b61010d610394565b6101f06103a3565b005b61014a610200366004610c2a565b6103ae565b610136610213366004610ba9565b6103d9565b610136610226366004610ba9565b610459565b61014a610239366004610c43565b610467565b60606003805461024d90610c76565b80601f016020809104026020016040519081016040528092919081815260200182805461027990610c76565b80156102c65780601f1061029b576101008083540402835291602001916102c6565b820191906000526020600020905b8154815290600101906020018083116102a957829003601f168201915b5050505050905090565b6000336102de8185856104e3565b60019150505b92915050565b6000336102f8858285610607565b610303858585610681565b506001949350505050565b6000336102de8185856103218383610467565b61032b9190610cc7565b6104e3565b6001600160a01b038216600090815260056020526040812081908190610357908590610830565b915091508161037e576001600160a01b038516600090815260208190526040902054610380565b805b95945050505050565b6000806102e4610927565b60606004805461024d90610c76565b6103ab610937565b50565b60008060006103be846006610830565b91509150816103cf576002546103d1565b805b949350505050565b600033816103e78286610467565b90508381101561044c5760405162461bcd60e51b815260206004820152602560248201527f45524332303a2064656372656173656420616c6c6f77616e63652062656c6f77604482015264207a65726f60d81b60648201526084015b60405180910390fd5b61030382868684036104e3565b6000336102de818585610681565b6001600160a01b03918216600090815260016020908152604080832093909416825291909152205490565b6001600160a01b0383166104b6576104a982610991565b6104b16109c3565b505050565b6001600160a01b0382166104cd576104a983610991565b6104d683610991565b6104b182610991565b5490565b6001600160a01b0383166105455760405162461bcd60e51b8152602060048201526024808201527f45524332303a20617070726f76652066726f6d20746865207a65726f206164646044820152637265737360e01b6064820152608401610443565b6001600160a01b0382166105a65760405162461bcd60e51b815260206004820152602260248201527f45524332303a20617070726f766520746f20746865207a65726f206164647265604482015261737360f01b6064820152608401610443565b6001600160a01b0383811660008181526001602090815260408083209487168084529482529182902085905590518481527f8c5be1e5ebec7d5bd14f71427d1e84f3dd0314c0f7b2291e5b200ac8c7c3b925910160405180910390a3505050565b60006106138484610467565b9050600019811461067b578181101561066e5760405162461bcd60e51b815260206004820152601d60248201527f45524332303a20696e73756666696369656e7420616c6c6f77616e63650000006044820152606401610443565b61067b84848484036104e3565b50505050565b6001600160a01b0383166106e55760405162461bcd60e51b815260206004820152602560248201527f45524332303a207472616e736665722066726f6d20746865207a65726f206164604482015264647265737360d81b6064820152608401610443565b6001600160a01b0382166107475760405162461bcd60e51b815260206004820152602360248201527f45524332303a207472616e7366657220746f20746865207a65726f206164647260448201526265737360e81b6064820152608401610443565b6107528383836109d3565b6001600160a01b038316600090815260208190526040902054818110156107ca5760405162461bcd60e51b815260206004820152602660248201527f45524332303a207472616e7366657220616d6f756e7420657863656564732062604482015265616c616e636560d01b6064820152608401610443565b6001600160a01b03848116600081815260208181526040808320878703905593871680835291849020805487019055925185815290927fddf252ad1be2c89b69c2b068fc378daa952ba7f163c4a11628f55a4df523b3ef910160405180910390a361067b565b6000806000841161087c5760405162461bcd60e51b815260206004820152601660248201527504552433230536e617073686f743a20696420697320360541b6044820152606401610443565b610884610927565b8411156108d35760405162461bcd60e51b815260206004820152601d60248201527f4552433230536e617073686f743a206e6f6e6578697374656e742069640000006044820152606401610443565b60006108df84866109de565b84549091508114156108f8576000809250925050610920565b600184600101828154811061090f5761090f610cdf565b906000526020600020015492509250505b9250929050565b600061093260085490565b905090565b6000610947600880546001019055565b6000610951610927565b90507f8030e83b04d87bef53480e26263266d6ca66863aa8506aca6f2559d18aa1cb678160405161098491815260200190565b60405180910390a1919050565b6001600160a01b038116600090815260056020908152604080832091839052909120546103ab9190610a89565b610a89565b6109d160066109be60025490565b565b6104b1838383610492565b81546000906109ef575060006102e4565b82546000905b80821015610a3c576000610a098383610ad3565b60008781526020902090915085908201541115610a2857809150610a36565b610a33816001610cc7565b92505b506109f5565b600082118015610a68575083610a6586610a57600186610cf5565b600091825260209091200190565b54145b15610a8157610a78600183610cf5565b925050506102e4565b5090506102e4565b6000610a93610927565b905080610a9f84610af5565b10156104b1578254600180820185556000858152602080822090930193909355938401805494850181558252902090910155565b6000610ae26002848418610d0c565b610aee90848416610cc7565b9392505050565b8054600090610b0657506000919050565b81548290610b1690600190610cf5565b81548110610b2657610b26610cdf565b90600052602060002001549050919050565b919050565b600060208083528351808285015260005b81811015610b6a57858101830151858201604001528201610b4e565b81811115610b7c576000604083870101525b50601f01601f1916929092016040019392505050565b80356001600160a01b0381168114610b3857600080fd5b60008060408385031215610bbc57600080fd5b610bc583610b92565b946020939093013593505050565b600080600060608486031215610be857600080fd5b610bf184610b92565b9250610bff60208501610b92565b9150604084013590509250925092565b600060208284031215610c2157600080fd5b610aee82610b92565b600060208284031215610c3c57600080fd5b5035919050565b60008060408385031215610c5657600080fd5b610c5f83610b92565b9150610c6d60208401610b92565b90509250929050565b600181811c90821680610c8a57607f821691505b60208210811415610cab57634e487b7160e01b600052602260045260246000fd5b50919050565b634e487b7160e01b600052601160045260246000fd5b60008219821115610cda57610cda610cb1565b500190565b634e487b7160e01b600052603260045260246000fd5b600082821015610d0757610d07610cb1565b500390565b600082610d2957634e487b7160e01b600052601260045260246000fd5b50049056fea2646970667358221220dc44fe2f7f7d2326e28f840f1de77d6fd3d76a3d2d37f371cc93aed42c521b4564736f6c634300080a0033ddf252ad1be2c89b69c2b068fc378daa952ba7f163c4a11628f55a4df523b3ef608060405260006011553480156200001657600080fd5b50604051620033e6380380620033e683398101604081905262000039916200066d565b62000044336200041c565b836000815181106200005a576200005a620007f9565b602002602001015160039080519060200190620000799291906200046c565b5083600181518110620000905762000090620007f9565b602002602001015160049080519060200190620000af9291906200046c565b5083600281518110620000c657620000c6620007f9565b602002602001015160059080519060200190620000e59291906200046c565b5083600381518110620000fc57620000fc620007f9565b6020026020010151600690805190602001906200011b9291906200046c565b5083600481518110620001325762000132620007f9565b602002602001015160079080519060200190620001519291906200046c565b5083600581518110620001685762000168620007f9565b602002602001015160089080519060200190620001879291906200046c565b50826000815181106200019e576200019e620007f9565b602002602001015160098190555082600181518110620001c257620001c2620007f9565b6020026020010151600a8190555082600281518110620001e657620001e6620007f9565b6020026020010151600b81905550826003815181106200020a576200020a620007f9565b6020026020010151600c81905550826004815181106200022e576200022e620007f9565b6020026020010151600d8190555082600581518110620002525762000252620007f9565b602002602001015160128190555080601081905550816000815181106200027d576200027d620007f9565b6020026020010151600160006101000a8154816001600160a01b0302191690836001600160a01b0316021790555081600181518110620002c157620002c1620007f9565b6020026020010151600260006101000a8154816001600160a01b0302191690836001600160a01b0316021790555081600281518110620003055762000305620007f9565b6020026020010151601360006101000a8154816001600160a01b0302191690836001600160a01b0316021790555081600381518110620003495762000349620007f9565b6020026020010151601460006101000a8154816001600160a01b0302191690836001600160a01b03160217905550816004815181106200038d576200038d620007f9565b6020908102919091010151601580546001600160a01b0319166001600160a01b0392831617905560015460408051634b88b8ad60e11b815290519190921691639711715a91600480830192600092919082900301818387803b158015620003f357600080fd5b505af115801562000408573d6000803e3d6000fd5b50506000601855506200084c945050505050565b600080546001600160a01b038381166001600160a01b0319831681178455604051919092169283917f8be0079c531659141344cd1fd0a4f28419497f9722a3daafe3b4186f6b6457e09190a35050565b8280546200047a906200080f565b90600052602060002090601f0160209004810192826200049e5760008555620004e9565b82601f10620004b957805160ff1916838001178555620004e9565b82800160010185558215620004e9579182015b82811115620004e9578251825591602001919060010190620004cc565b50620004f7929150620004fb565b5090565b5b80821115620004f75760008155600101620004fc565b634e487b7160e01b600052604160045260246000fd5b604051601f8201601f191681016001600160401b038111828210171562000553576200055362000512565b604052919050565b60006001600160401b0382111562000577576200057762000512565b5060051b60200190565b600082601f8301126200059357600080fd5b81516020620005ac620005a6836200055b565b62000528565b82815260059290921b84018101918181019086841115620005cc57600080fd5b8286015b84811015620005e95780518352918301918301620005d0565b509695505050505050565b600082601f8301126200060657600080fd5b8151602062000619620005a6836200055b565b82815260059290921b840181019181810190868411156200063957600080fd5b8286015b84811015620005e95780516001600160a01b03811681146200065f5760008081fd5b83529183019183016200063d565b600080600080608085870312156200068457600080fd5b84516001600160401b03808211156200069c57600080fd5b818701915087601f830112620006b157600080fd5b81516020620006c4620005a6836200055b565b82815260059290921b8401810191818101908b841115620006e457600080fd5b8286015b8481101562000799578051868111156200070157600080fd5b8701603f81018e136200071357600080fd5b84810151878111156200072a576200072a62000512565b6200073e601f8201601f1916870162000528565b8181528f6040838501011115620007555760008081fd5b60005b82811015620007765783810160400151828201890152870162000758565b82811115620007885760008884840101525b5085525050918301918301620006e8565b50918a0151919850909350505080821115620007b457600080fd5b620007c28883890162000581565b94506040870151915080821115620007d957600080fd5b50620007e887828801620005f4565b606096909601519497939650505050565b634e487b7160e01b600052603260045260246000fd5b600181811c908216806200082457607f821691505b602082108114156200084657634e487b7160e01b600052602260045260246000fd5b50919050565b612b8a806200085c6000396000f3fe60806040523480156200001157600080fd5b5060043610620002555760003560e01c8063715018a61162000149578063ce65868f11620000c7578063e3b4c0d11162000086578063e3b4c0d11462000481578063ef430aa61462000498578063f2fde38b14620004a2578063fb1db27814620004b9578063fddf837914620004cd57600080fd5b8063ce65868f1462000442578063d29e90201462000459578063d71454451462000463578063db231e00146200046d578063e1c7392a146200047757600080fd5b8063a5cb24401162000114578063a5cb244014620003fc578063badf822b1462000406578063beb08ab9146200041a578063c24a0f8b146200042e578063c557b985146200043857600080fd5b8063715018a614620003bf5780637192762814620003c95780637284e41614620003e05780638da5cb5b14620003ea57600080fd5b80634a4ebc3d11620001d75780634e77247911620001a25780634e772479146200031257806356975b8414620003495780635af36e3e14620003535780635ffe6146146200036a5780636c9fa59e146200039257600080fd5b80634a4ebc3d14620002ea5780634a79d50c14620002f45780634afdd0e714620002fe5780634e71d92d146200030857600080fd5b80631b3ed72211620002245780631b3ed72214620002b8578063200d2ed214620002c257806327d0d52d14620002cc57806328f8692b14620002d65780633f407b8414620002e057600080fd5b806303e5979d146200025a5780630b97bc86146200027c5780630c6b87051462000295578063129874aa146200029f575b600080fd5b62000264620004e1565b60405162000273919062001e33565b60405180910390f35b62000286600b5481565b60405190815260200162000273565b6200028660165481565b620002b6620002b036600462001e8b565b62000577565b005b6200028660125481565b6200028660185481565b6200028660095481565b62000286600f5481565b6200028660105481565b6200026462000a1a565b6200026462000a29565b62000286600a5481565b620002b662000a38565b620003296200032336600462001ec4565b62000c13565b604080519315158452602084019290925215159082015260600162000273565b62000286600e5481565b620002b66200036436600462001e8b565b62000f03565b620003816200037b36600462001eeb565b620010a2565b604051901515815260200162000273565b600154620003a6906001600160a01b031681565b6040516001600160a01b03909116815260200162000273565b620002b6620010b7565b62000381620003da36600462001ec4565b620010cf565b6200026462001100565b6000546001600160a01b0316620003a6565b62000286600d5481565b600254620003a6906001600160a01b031681565b601354620003a6906001600160a01b031681565b62000286600c5481565b620002646200110f565b620002866200045336600462001ec4565b6200111e565b620002b662001487565b6200028660115481565b6200028660175481565b620002b662001889565b620003816200049236600462001eeb565b62001ae9565b6200026462001ceb565b620002b6620004b336600462001ec4565b62001cfa565b601554620003a6906001600160a01b031681565b601454620003a6906001600160a01b031681565b60068054620004f09062001f05565b80601f01602080910402602001604051908101604052809291908181526020018280546200051e9062001f05565b80156200056f5780601f1062000543576101008083540402835291602001916200056f565b820191906000526020600020905b8154815290600101906020018083116200055157829003601f168201915b505050505081565b60008211620005c45760405162461bcd60e51b815260206004820152601460248201527353656e7420616d6f756e74206973207a65726f2160601b60448201526064015b60405180910390fd5b620005d2426103e862001f58565b600b54106200061d5760405162461bcd60e51b81526020600482015260166024820152754974206861736e27742073746172746564207965742160501b6044820152606401620005bb565b6200062b426103e862001f58565b600c54116200066b5760405162461bcd60e51b815260206004820152600b60248201526a54696d652069732075702160a81b6044820152606401620005bb565b6002546040516323b872dd60e01b8152336004820152306024820152604481018490526001600160a01b03909116906323b872dd906064016020604051808303816000875af1158015620006c3573d6000803e3d6000fd5b505050506040513d601f19601f82011682018060405250810190620006e9919062001f7a565b5060015460405163a9059cbb60e01b8152336004820152602481018390526001600160a01b039091169063a9059cbb906044016020604051808303816000875af11580156200073c573d6000803e3d6000fd5b505050506040513d601f19601f8201168201806040525081019062000762919062001f7a565b50816011600082825462000777919062001f9e565b9091555050336000818152601a6020908152604091829020805460ff19166001179055815130815290810185905290810183905260608101919091527fff871a9ae5845a29b42a0cadf1d60e02e4ff529db54de46b045d457bdbc1a0e79060800160405180910390a16001546040516370a0823160e01b81523060048201526000916001600160a01b0316906370a0823190602401602060405180830381865afa1580156200082a573d6000803e3d6000fd5b505050506040513d601f19601f8201168201806040525081019062000850919062001fb9565b600d546010549192509062000866838262001fd3565b6200087390606462001f58565b6200087f919062001fed565b10620008b057600b54600c5462000897919062001fd3565b600c6000828254620008aa919062001f9e565b90915550505b8062000a155760016018556015546016546040516369e0f35760e11b815260048101919091523060248201526001600160a01b039091169063d3c1e6ae90604401602060405180830381865afa1580156200090f573d6000803e3d6000fd5b505050506040513d601f19601f8201168201806040525081019062000935919062001fb9565b60175560155460165460405163958e2d3160e01b81526001600160a01b039092169163958e2d31916200096e9160040190815260200190565b600060405180830381600087803b1580156200098957600080fd5b505af11580156200099e573d6000803e3d6000fd5b50506015546016546040516364482f7960e01b8152600481019190915260006024820181905260448201526001600160a01b0390911692506364482f799150606401600060405180830381600087803b158015620009fb57600080fd5b505af115801562000a10573d6000803e3d6000fd5b505050505b505050565b60088054620004f09062001f05565b60038054620004f09062001f05565b60008062000a463362000c13565b50915091508115801562000a5a5750600081115b62000a975760405162461bcd60e51b815260206004820152600c60248201526b436c61696d204572726f722160a01b6044820152606401620005bb565b60025460405163a9059cbb60e01b8152336004820152602481018390526001600160a01b039091169063a9059cbb906044016020604051808303816000875af115801562000ae9573d6000803e3d6000fd5b505050506040513d601f19601f8201168201806040525081019062000b0f919062001f7a565b5080600e600082825462000b24919062001fd3565b9091555050336000908152601960209081526040808320600180548351632a1cd6c360e11b815293519195929492936001600160a01b0390911692635439ad86926004808401938290030181865afa15801562000b85573d6000803e3d6000fd5b505050506040513d601f19601f8201168201806040525081019062000bab919062001fb9565b81526020808201929092526040908101600020805460ff191693151593909317909255815130815290810183905233918101919091527f7e6632ca16a0ac6cf28448500b1a17d96c8b8163ad4c4a9b44ef5386cc02779e906060015b60405180910390a15050565b6001600160a01b0380821660009081526019602090815260408083206001548251632a1cd6c360e11b815292519495869586958695869490931692635439ad8692600480830193928290030181865afa15801562000c75573d6000803e3d6000fd5b505050506040513d601f19601f8201168201806040525081019062000c9b919062001fb9565b81526020810191909152604090810160009081205460145492516367b0fef760e11b81523060048201526001600160a01b03898116602483015260ff90921694509192169063cf61fdee90604401602060405180830381865afa15801562000d07573d6000803e3d6000fd5b505050506040513d601f19601f8201168201806040525081019062000d2d919062001fb9565b9050801562000d3b57600191505b60008262000ed85760015460408051632a1cd6c360e11b815290516000926001600160a01b031691634ee2cd7e918b918491635439ad86916004808201926020929091908290030181865afa15801562000d99573d6000803e3d6000fd5b505050506040513d601f19601f8201168201806040525081019062000dbf919062001fb9565b6040516001600160e01b031960e085901b1681526001600160a01b0390921660048301526024820152604401602060405180830381865afa15801562000e09573d6000803e3d6000fd5b505050506040513d601f19601f8201168201806040525081019062000e2f919062001fb9565b905062000e3d838262001f9e565b9050600160009054906101000a90046001600160a01b03166001600160a01b03166318160ddd6040518163ffffffff1660e01b8152600401602060405180830381865afa15801562000e93573d6000803e3d6000fd5b505050506040513d601f19601f8201168201806040525081019062000eb9919062001fb9565b600f5462000ec8908362001f58565b62000ed4919062001fed565b9150505b6001600160a01b0387166000908152601a602052604090205492955093505060ff1690509193909250565b6000821162000f4c5760405162461bcd60e51b815260206004820152601460248201527353656e7420616d6f756e74206973207a65726f2160601b6044820152606401620005bb565b6001546040516323b872dd60e01b8152336004820152306024820152604481018490526001600160a01b03909116906323b872dd906064016020604051808303816000875af115801562000fa4573d6000803e3d6000fd5b505050506040513d601f19601f8201168201806040525081019062000fca919062001f7a565b5060025460405163a9059cbb60e01b8152336004820152602481018390526001600160a01b039091169063a9059cbb906044016020604051808303816000875af11580156200101d573d6000803e3d6000fd5b505050506040513d601f19601f8201168201806040525081019062001043919062001f7a565b50806011600082825462001058919062001fd3565b909155505060408051308152602081018390529081018390523360608201527f89adc23bf21dbf8bb4327dc5b14ecd94b350f7a3d641dfb559767f700e2378729060800162000c07565b6000620010ae62001d79565b50601255600190565b620010c162001d79565b620010cd600062001dd5565b565b6000620010db62001d79565b50601380546001600160a01b0383166001600160a01b03199091161790556001919050565b60048054620004f09062001f05565b60078054620004f09062001f05565b6001600160a01b0381166000908152601b602052604081205460ff166200147f5760015460408051632a1cd6c360e11b815290516000926001600160a01b031691634ee2cd7e9186918491635439ad86916004808201926020929091908290030181865afa15801562001195573d6000803e3d6000fd5b505050506040513d601f19601f82011682018060405250810190620011bb919062001fb9565b6040516001600160e01b031960e085901b1681526001600160a01b0390921660048301526024820152604401602060405180830381865afa15801562001205573d6000803e3d6000fd5b505050506040513d601f19601f820116820180604052508101906200122b919062001fb9565b6014546040516367b0fef760e11b81523060048201526001600160a01b0386811660248301529293506000929091169063cf61fdee90604401602060405180830381865afa15801562001282573d6000803e3d6000fd5b505050506040513d601f19601f82011682018060405250810190620012a8919062001fb9565b905060185460001415620013de576015546016546040516369e0f35760e11b815260048101919091523060248201526000916001600160a01b03169063d3c1e6ae90604401602060405180830381865afa1580156200130b573d6000803e3d6000fd5b505050506040513d601f19601f8201168201806040525081019062001331919062001fb9565b90506000600160009054906101000a90046001600160a01b03166001600160a01b03166318160ddd6040518163ffffffff1660e01b8152600401602060405180830381865afa15801562001389573d6000803e3d6000fd5b505050506040513d601f19601f82011682018060405250810190620013af919062001fb9565b82620013bc858762001f9e565b620013c8919062001f58565b620013d4919062001fed565b9695505050505050565b600154604080516318160ddd60e01b815290516000926001600160a01b0316916318160ddd9160048083019260209291908290030181865afa15801562001429573d6000803e3d6000fd5b505050506040513d601f19601f820116820180604052508101906200144f919062001fb9565b6017546200145e848662001f9e565b6200146a919062001f58565b62001476919062001fed565b95945050505050565b506000919050565b601854600114620015015760405162461bcd60e51b815260206004820152603860248201527f596f752063616e20636c61696d2074686520726577617264207768656e20746860448201527f652070726f6a656374207265616368206f7574203130302500000000000000006064820152608401620005bb565b336000908152601b602052604090205460ff1615620015635760405162461bcd60e51b815260206004820152601860248201527f596f75206861766520616c726561647920636c61696d656400000000000000006044820152606401620005bb565b60015460408051632a1cd6c360e11b815290516000926001600160a01b031691634ee2cd7e9133918491635439ad86916004808201926020929091908290030181865afa158015620015b9573d6000803e3d6000fd5b505050506040513d601f19601f82011682018060405250810190620015df919062001fb9565b6040516001600160e01b031960e085901b1681526001600160a01b0390921660048301526024820152604401602060405180830381865afa15801562001629573d6000803e3d6000fd5b505050506040513d601f19601f820116820180604052508101906200164f919062001fb9565b6014546040516367b0fef760e11b81523060048201523360248201529192506000916001600160a01b039091169063cf61fdee90604401602060405180830381865afa158015620016a4573d6000803e3d6000fd5b505050506040513d601f19601f82011682018060405250810190620016ca919062001fb9565b90506000601560009054906101000a90046001600160a01b03166001600160a01b031663fd01ea9f6040518163ffffffff1660e01b81526004016020604051808303816000875af115801562001724573d6000803e3d6000fd5b505050506040513d601f19601f820116820180604052508101906200174a919062002010565b90506000600160009054906101000a90046001600160a01b03166001600160a01b03166318160ddd6040518163ffffffff1660e01b8152600401602060405180830381865afa158015620017a2573d6000803e3d6000fd5b505050506040513d601f19601f82011682018060405250810190620017c8919062001fb9565b601754620017d7858762001f9e565b620017e3919062001f58565b620017ef919062001fed565b336000818152601b602052604090819020805460ff191660011790555163a9059cbb60e01b81526004810191909152602481018290529091506001600160a01b0383169063a9059cbb906044016020604051808303816000875af11580156200185c573d6000803e3d6000fd5b505050506040513d601f19601f8201168201806040525081019062001882919062001f7a565b5050505050565b6200189362001d79565b6000604051620018a39062001e25565b604080825260079082015266054454d50204c560cc1b6060820152608060208201819052600390820152620544c560ec1b60a082015260c001604051809103906000f080158015620018f9573d6000803e3d6000fd5b50601554601254604051636283d75560e11b815260048101919091526001600160a01b038084166024830152600060448301526001606483015292935091169063c507aeaa90608401600060405180830381600087803b1580156200195d57600080fd5b505af115801562001972573d6000803e3d6000fd5b505060155460405163095ea7b360e01b81526001600160a01b03918216600482015267016345785d8a0000602482018190529350908416915063095ea7b3906044016020604051808303816000875af1158015620019d4573d6000803e3d6000fd5b505050506040513d601f19601f82011682018060405250810190620019fa919062001f7a565b506015546040805163040f1f6d60e11b815290516001926001600160a01b03169163081e3eda91600480830192602092919082900301816000875af115801562001a48573d6000803e3d6000fd5b505050506040513d601f19601f8201168201806040525081019062001a6e919062001fb9565b62001a7a919062001fd3565b6016819055601554604051631c57762b60e31b81526004810192909252602482018390526001600160a01b03169063e2bbb15890604401600060405180830381600087803b15801562001acc57600080fd5b505af115801562001ae1573d6000803e3d6000fd5b505050505050565b600080821162001b335760405162461bcd60e51b815260206004820152601460248201527373656e7420616d6f756e74206973207a65726f2160601b6044820152606401620005bb565b600e541562001bba57600254600e5460405163a9059cbb60e01b815233600482015260248101919091526001600160a01b039091169063a9059cbb906044016020604051808303816000875af115801562001b92573d6000803e3d6000fd5b505050506040513d601f19601f8201168201806040525081019062001bb8919062001f7a565b505b6002546040516323b872dd60e01b8152336004820152306024820152604481018490526001600160a01b03909116906323b872dd906064016020604051808303816000875af115801562001c12573d6000803e3d6000fd5b505050506040513d601f19601f8201168201806040525081019062001c38919062001f7a565b50600e829055600f82905560015460408051634b88b8ad60e11b815290516001600160a01b0390921691639711715a9160048082019260009290919082900301818387803b15801562001c8a57600080fd5b505af115801562001c9f573d6000803e3d6000fd5b50506040805130815260208101869052338183015290517f1f333b8f778a40c6385546d263a84ef38c89f2ce5bfb25d8a1f4f66b53c96f349350908190036060019150a1506001919050565b60058054620004f09062001f05565b62001d0462001d79565b6001600160a01b03811662001d6b5760405162461bcd60e51b815260206004820152602660248201527f4f776e61626c653a206e6577206f776e657220697320746865207a65726f206160448201526564647265737360d01b6064820152608401620005bb565b62001d768162001dd5565b50565b6000546001600160a01b03163314620010cd5760405162461bcd60e51b815260206004820181905260248201527f4f776e61626c653a2063616c6c6572206973206e6f7420746865206f776e65726044820152606401620005bb565b600080546001600160a01b038381166001600160a01b0319831681178455604051919092169283917f8be0079c531659141344cd1fd0a4f28419497f9722a3daafe3b4186f6b6457e09190a35050565b610b24806200203183390190565b600060208083528351808285015260005b8181101562001e625785810183015185820160400152820162001e44565b8181111562001e75576000604083870101525b50601f01601f1916929092016040019392505050565b6000806040838503121562001e9f57600080fd5b50508035926020909101359150565b6001600160a01b038116811462001d7657600080fd5b60006020828403121562001ed757600080fd5b813562001ee48162001eae565b9392505050565b60006020828403121562001efe57600080fd5b5035919050565b600181811c9082168062001f1a57607f821691505b6020821081141562001f3c57634e487b7160e01b600052602260045260246000fd5b50919050565b634e487b7160e01b600052601160045260246000fd5b600081600019048311821515161562001f755762001f7562001f42565b500290565b60006020828403121562001f8d57600080fd5b8151801515811462001ee457600080fd5b6000821982111562001fb45762001fb462001f42565b500190565b60006020828403121562001fcc57600080fd5b5051919050565b60008282101562001fe85762001fe862001f42565b500390565b6000826200200b57634e487b7160e01b600052601260045260246000fd5b500490565b6000602082840312156200202357600080fd5b815162001ee48162001eae56fe60806040523480156200001157600080fd5b5060405162000b2438038062000b2483398101604081905262000034916200024b565b815162000049906000906020850190620000d8565b5080516200005f906001906020840190620000d8565b506002805460ff191660101790556c0c9f2c9cd04674edea4000000060038190553360008181526004602052604080822084905551919290917fddf252ad1be2c89b69c2b068fc378daa952ba7f163c4a11628f55a4df523b3ef91620000c89190815260200190565b60405180910390a35050620002f2565b828054620000e690620002b5565b90600052602060002090601f0160209004810192826200010a576000855562000155565b82601f106200012557805160ff191683800117855562000155565b8280016001018555821562000155579182015b828111156200015557825182559160200191906001019062000138565b506200016392915062000167565b5090565b5b8082111562000163576000815560010162000168565b634e487b7160e01b600052604160045260246000fd5b600082601f830112620001a657600080fd5b81516001600160401b0380821115620001c357620001c36200017e565b604051601f8301601f19908116603f01168101908282118183101715620001ee57620001ee6200017e565b816040528381526020925086838588010111156200020b57600080fd5b600091505b838210156200022f578582018301518183018401529082019062000210565b83821115620002415760008385830101525b9695505050505050565b600080604083850312156200025f57600080fd5b82516001600160401b03808211156200027757600080fd5b620002858683870162000194565b935060208501519150808211156200029c57600080fd5b50620002ab8582860162000194565b9150509250929050565b600181811c90821680620002ca57607f821691505b60208210811415620002ec57634e487b7160e01b600052602260045260246000fd5b50919050565b61082280620003026000396000f3fe608060405234801561001057600080fd5b50600436106100ea5760003560e01c806395d89b411161008c578063b5931f7c11610066578063b5931f7c146101d8578063d05c78da146101eb578063dd62ed3e146101fe578063e6cb90131461023757600080fd5b806395d89b41146101aa578063a293d1e8146101b2578063a9059cbb146101c557600080fd5b806323b872dd116100c857806323b872dd14610146578063313ce567146101595780633eaaf86b1461017857806370a082311461018157600080fd5b806306fdde03146100ef578063095ea7b31461010d57806318160ddd14610130575b600080fd5b6100f761024a565b60405161010491906105e4565b60405180910390f35b61012061011b366004610655565b6102d8565b6040519015158152602001610104565b610138610345565b604051908152602001610104565b61012061015436600461067f565b610383565b6002546101669060ff1681565b60405160ff9091168152602001610104565b61013860035481565b61013861018f3660046106bb565b6001600160a01b031660009081526004602052604090205490565b6100f7610481565b6101386101c03660046106d6565b61048e565b6101206101d3366004610655565b6104ee565b6101386101e63660046106d6565b610585565b6101386101f93660046106d6565b61059d565b61013861020c3660046106f8565b6001600160a01b03918216600090815260056020908152604080832093909416825291909152205490565b6101386102453660046106d6565b6105c9565b600080546102579061072b565b80601f01602080910402602001604051908101604052809291908181526020018280546102839061072b565b80156102d05780601f106102a5576101008083540402835291602001916102d0565b820191906000526020600020905b8154815290600101906020018083116102b357829003601f168201915b505050505081565b3360008181526005602090815260408083206001600160a01b038716808552925280832085905551919290917f8c5be1e5ebec7d5bd14f71427d1e84f3dd0314c0f7b2291e5b200ac8c7c3b925906103339086815260200190565b60405180910390a35060015b92915050565b600080805260046020527f17ef568e3e12ab5b9c7254a8d58478811de00f9e6eb34345acd53bf8fd09d3ec5460035461037e919061077c565b905090565b6001600160a01b0383166000908152600460205260408120546103a6908361048e565b6001600160a01b03851660009081526004602090815260408083209390935560058152828220338352905220546103dd908361048e565b6001600160a01b03808616600090815260056020908152604080832033845282528083209490945591861681526004909152205461041b90836105c9565b6001600160a01b0380851660008181526004602052604090819020939093559151908616907fddf252ad1be2c89b69c2b068fc378daa952ba7f163c4a11628f55a4df523b3ef9061046f9086815260200190565b60405180910390a35060019392505050565b600180546102579061072b565b6000828211156104dd5760405162461bcd60e51b8152602060048201526016602482015275209034b9903737ba103134b3b3b2b9103a3430b7103160511b604482015260640160405180910390fd5b6104e7828461077c565b9392505050565b33600090815260046020526040812054610508908361048e565b33600090815260046020526040808220929092556001600160a01b0385168152205461053490836105c9565b6001600160a01b0384166000818152600460205260409081902092909255905133907fddf252ad1be2c89b69c2b068fc378daa952ba7f163c4a11628f55a4df523b3ef906103339086815260200190565b600080821161059357600080fd5b6104e78284610793565b60006105a982846107b5565b90508215806105c05750816105be8483610793565b145b61033f57600080fd5b60006105d582846107d4565b90508281101561033f57600080fd5b600060208083528351808285015260005b81811015610611578581018301518582016040015282016105f5565b81811115610623576000604083870101525b50601f01601f1916929092016040019392505050565b80356001600160a01b038116811461065057600080fd5b919050565b6000806040838503121561066857600080fd5b61067183610639565b946020939093013593505050565b60008060006060848603121561069457600080fd5b61069d84610639565b92506106ab60208501610639565b9150604084013590509250925092565b6000602082840312156106cd57600080fd5b6104e782610639565b600080604083850312156106e957600080fd5b50508035926020909101359150565b6000806040838503121561070b57600080fd5b61071483610639565b915061072260208401610639565b90509250929050565b600181811c9082168061073f57607f821691505b6020821081141561076057634e487b7160e01b600052602260045260246000fd5b50919050565b634e487b7160e01b600052601160045260246000fd5b60008282101561078e5761078e610766565b500390565b6000826107b057634e487b7160e01b600052601260045260246000fd5b500490565b60008160001904831182151516156107cf576107cf610766565b500290565b600082198211156107e7576107e7610766565b50019056fea264697066735822122048e89f5464e57d6ee80243b6599e447f71a69a532595c1975f5da7f4b1eb690e64736f6c634300080a0033a2646970667358221220d8b25c21dd06585dc16a6dd33ed6cad29eaaef7bdfa44b623a24fc53f71aaf6264736f6c634300080a0033a2646970667358221220cc1efd8afe8bb5d4d88d2cb8acaa19e5645f7580311d04133e09a5c1a5dfae4564736f6c634300080a0033",
  "linkReferences": {},
  "deployedLinkReferences": {}
}