{
  "_format": "hh-sol-artifact-1",
  "contractName": "ProjectManage",
  "sourceName": "contracts/ProjectManage.sol",
  "abi": [
    {
      "inputs": [
        {
          "internalType": "address",
          "name": "_masterchef",
          "type": "address"
        },
        {
          "internalType": "address",
          "name": "_projectTrade",
          "type": "address"
        }
      ],
      "stateMutability": "nonpayable",
      "type": "constructor"
    },
    {
      "anonymous": false,
      "inputs": [
        {
          "indexed": false,
          "internalType": "address",
          "name": "user",
          "type": "address"
        },
        {
          "indexed": false,
          "internalType": "bool",
          "name": "isAuthorized",
          "type": "bool"
        }
      ],
      "name": "AuthorizationChanged",
      "type": "event"
    },
    {
      "anonymous": false,
      "inputs": [
        {
          "indexed": false,
          "internalType": "address",
          "name": "founderAddress",
          "type": "address"
        },
        {
          "indexed": false,
          "internalType": "address",
          "name": "contractAddress",
          "type": "address"
        },
        {
          "indexed": false,
          "internalType": "address",
          "name": "tokenAddress",
          "type": "address"
        }
      ],
      "name": "DeployedNewProject",
      "type": "event"
    },
    {
      "inputs": [
        {
          "internalType": "address",
          "name": "user",
          "type": "address"
        }
      ],
      "name": "addAuthorizedUser",
      "outputs": [],
      "stateMutability": "nonpayable",
      "type": "function"
    },
    {
      "inputs": [
        {
          "internalType": "address",
          "name": "",
          "type": "address"
        }
      ],
      "name": "authorizedUsers",
      "outputs": [
        {
          "internalType": "bool",
          "name": "",
          "type": "bool"
        }
      ],
      "stateMutability": "view",
      "type": "function"
    },
    {
      "inputs": [
        {
          "internalType": "string",
          "name": "name",
          "type": "string"
        },
        {
          "internalType": "string",
          "name": "symbol",
          "type": "string"
        },
        {
          "internalType": "uint256",
          "name": "total",
          "type": "uint256"
        },
        {
          "internalType": "uint8",
          "name": "decimals",
          "type": "uint8"
        },
        {
          "internalType": "uint256",
          "name": "sellAmount",
          "type": "uint256"
        },
        {
          "internalType": "string[]",
          "name": "_infoST",
          "type": "string[]"
        },
        {
          "internalType": "uint256[]",
          "name": "_infoNB",
          "type": "uint256[]"
        },
        {
          "internalType": "address[]",
          "name": "_infoAddress",
          "type": "address[]"
        }
      ],
      "name": "createProject",
      "outputs": [
        {
          "internalType": "address",
          "name": "",
          "type": "address"
        },
        {
          "internalType": "address",
          "name": "",
          "type": "address"
        }
      ],
      "stateMutability": "nonpayable",
      "type": "function"
    },
    {
      "inputs": [],
      "name": "getAllFounders",
      "outputs": [
        {
          "internalType": "address[]",
          "name": "",
          "type": "address[]"
        }
      ],
      "stateMutability": "view",
      "type": "function"
    },
    {
      "inputs": [],
      "name": "getProjectAllContract",
      "outputs": [
        {
          "internalType": "address[]",
          "name": "",
          "type": "address[]"
        }
      ],
      "stateMutability": "view",
      "type": "function"
    },
    {
      "inputs": [
        {
          "internalType": "address",
          "name": "_owner",
          "type": "address"
        }
      ],
      "name": "getProjectContractOwner",
      "outputs": [
        {
          "internalType": "address[]",
          "name": "",
          "type": "address[]"
        }
      ],
      "stateMutability": "view",
      "type": "function"
    },
    {
      "inputs": [],
      "name": "masterchef",
      "outputs": [
        {
          "internalType": "contract IYOCMasterChef",
          "name": "",
          "type": "address"
        }
      ],
      "stateMutability": "view",
      "type": "function"
    },
    {
      "inputs": [],
      "name": "owner",
      "outputs": [
        {
          "internalType": "address",
          "name": "",
          "type": "address"
        }
      ],
      "stateMutability": "view",
      "type": "function"
    },
    {
      "inputs": [
        {
          "internalType": "address",
          "name": "",
          "type": "address"
        },
        {
          "internalType": "uint256",
          "name": "",
          "type": "uint256"
        }
      ],
      "name": "ownerToProjects",
      "outputs": [
        {
          "internalType": "address",
          "name": "",
          "type": "address"
        }
      ],
      "stateMutability": "view",
      "type": "function"
    },
    {
      "inputs": [],
      "name": "projectTrade",
      "outputs": [
        {
          "internalType": "contract IProjectTrade",
          "name": "",
          "type": "address"
        }
      ],
      "stateMutability": "view",
      "type": "function"
    },
    {
      "inputs": [
        {
          "internalType": "address",
          "name": "user",
          "type": "address"
        }
      ],
      "name": "removeAuthorizedUser",
      "outputs": [],
      "stateMutability": "nonpayable",
      "type": "function"
    }
  ],
  "bytecode": "0x608060405234801561001057600080fd5b5060405162005f9338038062005f93833981016040819052610031916100a3565b60008054336001600160a01b0319918216811783558252600160208190526040909220805460ff19169092179091556005805482166001600160a01b0394851617905560068054909116919092161790556100d6565b80516001600160a01b038116811461009e57600080fd5b919050565b600080604083850312156100b657600080fd5b6100bf83610087565b91506100cd60208401610087565b90509250929050565b615ead80620000e66000396000f3fe60806040523480156200001157600080fd5b5060043610620000b75760003560e01c80638da5cb5b116200007a5780638da5cb5b1462000185578063b519f6e014620001b2578063b701fe9b14620001bc578063d92ff49414620001c6578063fb1db27814620001dd578063fddf837914620001f157600080fd5b8063177d2a7414620000bc5780631828983a14620000d557806342915d6314620001105780634800c0ae146200013657806389fabc80146200016e575b600080fd5b620000d3620000cd36600462000baa565b62000205565b005b620000fb620000e636600462000baa565b60016020526000908152604090205460ff1681565b60405190151581526020015b60405180910390f35b620001276200012136600462000baa565b620002b8565b60405162000107919062000c15565b6200014d6200014736600462000e8c565b62000330565b604080516001600160a01b0393841681529290911660208301520162000107565b620000d36200017f36600462000baa565b62000890565b60005462000199906001600160a01b031681565b6040516001600160a01b03909116815260200162000107565b620001276200093a565b620001276200099e565b62000199620001d736600462000f94565b62000b38565b60055462000199906001600160a01b031681565b60065462000199906001600160a01b031681565b3360009081526001602052604090205460ff166200025b5760405162461bcd60e51b815260206004820152600e60248201526d139bdd08185d5d1a1bdc9a5e995960921b60448201526064015b60405180910390fd5b6001600160a01b038116600081815260016020818152604092839020805460ff19168317905582519384528301527f5fe3a0cb9aeae856eac34445ace9544f3e15c21fa6f9bffeca60d662a690ca1b91015b60405180910390a150565b6001600160a01b03811660009081526004602090815260408083208054825181850281018501909352808352606094938301828280156200032357602002820191906000526020600020905b81546001600160a01b0316815260019091019060200180831162000304575b5093979650505050505050565b60008060006001600160a01b03168360008151811062000354576200035462000fc1565b60200260200101516001600160a01b03161415620003a75760405162461bcd60e51b815260206004820152600f60248201526e496e76616c6964206164647265737360881b604482015260640162000252565b33600090815260046020526040902054620003ff57600380546001810182556000919091527fc2575a0e9e593c00f959f8c92f12db2869c3395a3b0502d05e2516446f71f85b0180546001600160a01b031916331790555b60408051600580825260c082019092526000916020820160a08036833701905050905060008b8b8b8b8b33604051620004389062000b71565b620004499695949392919062001027565b604051809103906000f08015801562000466573d6000803e3d6000fd5b509050808260008151811062000480576200048062000fc1565b60200260200101906001600160a01b031690816001600160a01b03168152505084600081518110620004b657620004b662000fc1565b602002602001015182600181518110620004d457620004d462000fc1565b60200260200101906001600160a01b031690816001600160a01b031681525050846001815181106200050a576200050a62000fc1565b60200260200101518260028151811062000528576200052862000fc1565b6001600160a01b0392831660209182029290920101526006548351911690839060039081106200055c576200055c62000fc1565b6001600160a01b03928316602091820292909201015260055483519116908390600490811062000590576200059062000fc1565b60200260200101906001600160a01b031690816001600160a01b03168152505060008787848b604051620005c49062000b7f565b620005d3949392919062001082565b604051809103906000f080158015620005f0573d6000803e3d6000fd5b506040516305df4a9d60e21b81523360048201529091506001600160a01b0382169063177d2a7490602401600060405180830381600087803b1580156200063657600080fd5b505af11580156200064b573d6000803e3d6000fd5b50506005546040516305df4a9d60e21b81526001600160a01b038581166004830152909116925063177d2a749150602401600060405180830381600087803b1580156200069757600080fd5b505af1158015620006ac573d6000803e3d6000fd5b50505050806001600160a01b031663e1c7392a6040518163ffffffff1660e01b8152600401600060405180830381600087803b158015620006ec57600080fd5b505af115801562000701573d6000803e3d6000fd5b50506040516370a0823160e01b81523060048201526001600160a01b038516925063a9059cbb9150839083906370a0823190602401602060405180830381865afa15801562000754573d6000803e3d6000fd5b505050506040513d601f19601f820116820180604052508101906200077a919062001140565b6040516001600160e01b031960e085901b1681526001600160a01b03909216600483015260248201526044016020604051808303816000875af1158015620007c6573d6000803e3d6000fd5b505050506040513d601f19601f82011682018060405250810190620007ec91906200115a565b503360009081526004602090815260408220805460018101825590835291200180546001600160a01b0383166001600160a01b031990911617905562000836600280546001019055565b604080513381526001600160a01b03838116602083015284168183015290517f1b4c53b94836fa026287c766e681094ea3f7cabdd599b2343b2aa694f7c08c379181900360600190a19c909b509950505050505050505050565b3360009081526001602052604090205460ff16620008e25760405162461bcd60e51b815260206004820152600e60248201526d139bdd08185d5d1a1bdc9a5e995960921b604482015260640162000252565b6001600160a01b0381166000818152600160209081526040808320805460ff191690558051938452908301919091527f5fe3a0cb9aeae856eac34445ace9544f3e15c21fa6f9bffeca60d662a690ca1b9101620002ad565b606060038054806020026020016040519081016040528092919081815260200182805480156200099457602002820191906000526020600020905b81546001600160a01b0316815260019091019060200180831162000975575b5050505050905090565b60606000620009ac60025490565b67ffffffffffffffff811115620009c757620009c762000c2a565b604051908082528060200260200182016040528015620009f1578160200160208202803683370190505b5090506000805b60035481101562000b30576000600460006003848154811062000a1f5762000a1f62000fc1565b60009182526020808320909101546001600160a01b0316835282810193909352604091820190208054825181850281018501909352808352919290919083018282801562000a9757602002820191906000526020600020905b81546001600160a01b0316815260019091019060200180831162000a78575b5050505050905060005b815181101562000b185781818151811062000ac05762000ac062000fc1565b602002602001015185858062000ad6906200117e565b96508151811062000aeb5762000aeb62000fc1565b6001600160a01b03909216602092830291909101909101528062000b0f816200117e565b91505062000aa1565b5050808062000b27906200117e565b915050620009f8565b509092915050565b6004602052816000526040600020818154811062000b5557600080fd5b6000918252602090912001546001600160a01b03169150829050565b61150d80620011a983390190565b6137c280620026b683390190565b80356001600160a01b038116811462000ba557600080fd5b919050565b60006020828403121562000bbd57600080fd5b62000bc88262000b8d565b9392505050565b600081518084526020808501945080840160005b8381101562000c0a5781516001600160a01b03168752958201959082019060010162000be3565b509495945050505050565b60208152600062000bc8602083018462000bcf565b634e487b7160e01b600052604160045260246000fd5b604051601f8201601f1916810167ffffffffffffffff8111828210171562000c6c5762000c6c62000c2a565b604052919050565b600082601f83011262000c8657600080fd5b813567ffffffffffffffff81111562000ca35762000ca362000c2a565b62000cb8601f8201601f191660200162000c40565b81815284602083860101111562000cce57600080fd5b816020850160208301376000918101602001919091529392505050565b803560ff8116811462000ba557600080fd5b600067ffffffffffffffff82111562000d1a5762000d1a62000c2a565b5060051b60200190565b600082601f83011262000d3657600080fd5b8135602062000d4f62000d498362000cfd565b62000c40565b82815260059290921b8401810191818101908684111562000d6f57600080fd5b8286015b8481101562000db457803567ffffffffffffffff81111562000d955760008081fd5b62000da58986838b010162000c74565b84525091830191830162000d73565b509695505050505050565b600082601f83011262000dd157600080fd5b8135602062000de462000d498362000cfd565b82815260059290921b8401810191818101908684111562000e0457600080fd5b8286015b8481101562000db4578035835291830191830162000e08565b600082601f83011262000e3357600080fd5b8135602062000e4662000d498362000cfd565b82815260059290921b8401810191818101908684111562000e6657600080fd5b8286015b8481101562000db45762000e7e8162000b8d565b835291830191830162000e6a565b600080600080600080600080610100898b03121562000eaa57600080fd5b883567ffffffffffffffff8082111562000ec357600080fd5b62000ed18c838d0162000c74565b995060208b013591508082111562000ee857600080fd5b62000ef68c838d0162000c74565b985060408b0135975062000f0d60608c0162000ceb565b965060808b0135955060a08b013591508082111562000f2b57600080fd5b62000f398c838d0162000d24565b945060c08b013591508082111562000f5057600080fd5b62000f5e8c838d0162000dbf565b935060e08b013591508082111562000f7557600080fd5b5062000f848b828c0162000e21565b9150509295985092959890939650565b6000806040838503121562000fa857600080fd5b62000fb38362000b8d565b946020939093013593505050565b634e487b7160e01b600052603260045260246000fd5b6000815180845260005b8181101562000fff5760208185018101518683018201520162000fe1565b8181111562001012576000602083870101525b50601f01601f19169290920160200192915050565b60c0815260006200103c60c083018962000fd7565b828103602084015262001050818962000fd7565b6040840197909752505060ff93909316606084015260808301919091526001600160a01b031660a09091015292915050565b6000608082016080835280875180835260a08501915060a08160051b86010192506020808a0160005b83811015620010dd57609f19888703018552620010ca86835162000fd7565b95509382019390820190600101620010ab565b50508584038187015288518085528982019482019350915060005b828110156200111657845184529381019392810192600101620010f8565b50505083810360408501526200112d818762000bcf565b9250505082606083015295945050505050565b6000602082840312156200115357600080fd5b5051919050565b6000602082840312156200116d57600080fd5b8151801515811462000bc857600080fd5b6000600019821415620011a157634e487b7160e01b600052601160045260246000fd5b506001019056fe60806040523480156200001157600080fd5b506040516200150d3803806200150d833981016040819052620000349162000623565b8551869086906200004d906003906020850190620004b0565b50805162000063906004906020840190620004b0565b50506009805460ff191660ff861617905550600a829055620000863085620000bd565b6200009330338462000181565b30600081815260208190526040902054620000b19190839062000181565b50505050505062000779565b6001600160a01b038216620001195760405162461bcd60e51b815260206004820152601f60248201527f45524332303a206d696e7420746f20746865207a65726f20616464726573730060448201526064015b60405180910390fd5b620001276000838362000328565b80600260008282546200013b9190620006f1565b90915550506001600160a01b03821660008181526020818152604080832080548601905551848152600080516020620014ed833981519152910160405180910390a35050565b6001600160a01b038316620001e75760405162461bcd60e51b815260206004820152602560248201527f45524332303a207472616e736665722066726f6d20746865207a65726f206164604482015264647265737360d81b606482015260840162000110565b6001600160a01b0382166200024b5760405162461bcd60e51b815260206004820152602360248201527f45524332303a207472616e7366657220746f20746865207a65726f206164647260448201526265737360e81b606482015260840162000110565b6200025883838362000328565b6001600160a01b03831660009081526020819052604090205481811015620002d25760405162461bcd60e51b815260206004820152602660248201527f45524332303a207472616e7366657220616d6f756e7420657863656564732062604482015265616c616e636560d01b606482015260840162000110565b6001600160a01b0384811660008181526020818152604080832087870390559387168083529184902080548701905592518581529092600080516020620014ed833981519152910160405180910390a350505050565b620003408383836200034560201b620004921760201c565b505050565b6200035d8383836200034060201b620004b11760201c565b6001600160a01b03831662000381576200037782620003ac565b62000340620003e4565b6001600160a01b0382166200039b576200037783620003ac565b620003a683620003ac565b62000340825b6001600160a01b03811660009081526005602090815260408083209183905290912054620003e19190620003f6565b620003f6565b50565b620003f46006620003db60025490565b565b60006200040262000445565b905080620004108462000463565b101562000340578254600180820185556000858152602080822090930193909355938401805494850181558252902090910155565b60006200045e6008620004ac60201b620004df1760201c565b905090565b80546000906200047557506000919050565b8154829062000487906001906200070c565b815481106200049a576200049a62000726565b90600052602060002001549050919050565b5490565b828054620004be906200073c565b90600052602060002090601f016020900481019282620004e257600085556200052d565b82601f10620004fd57805160ff19168380011785556200052d565b828001600101855582156200052d579182015b828111156200052d57825182559160200191906001019062000510565b506200053b9291506200053f565b5090565b5b808211156200053b576000815560010162000540565b634e487b7160e01b600052604160045260246000fd5b600082601f8301126200057e57600080fd5b81516001600160401b03808211156200059b576200059b62000556565b604051601f8301601f19908116603f01168101908282118183101715620005c657620005c662000556565b81604052838152602092508683858801011115620005e357600080fd5b600091505b83821015620006075785820183015181830184015290820190620005e8565b83821115620006195760008385830101525b9695505050505050565b60008060008060008060c087890312156200063d57600080fd5b86516001600160401b03808211156200065557600080fd5b620006638a838b016200056c565b975060208901519150808211156200067a57600080fd5b506200068989828a016200056c565b95505060408701519350606087015160ff81168114620006a857600080fd5b608088015160a089015191945092506001600160a01b0381168114620006cd57600080fd5b809150509295509295509295565b634e487b7160e01b600052601160045260246000fd5b60008219821115620007075762000707620006db565b500190565b600082821015620007215762000721620006db565b500390565b634e487b7160e01b600052603260045260246000fd5b600181811c908216806200075157607f821691505b602082108114156200077357634e487b7160e01b600052602260045260246000fd5b50919050565b610d6480620007896000396000f3fe608060405234801561001057600080fd5b50600436106101005760003560e01c80635439ad8611610097578063981b24d011610066578063981b24d0146101f2578063a457c2d714610205578063a9059cbb14610218578063dd62ed3e1461022b57600080fd5b80635439ad86146101af57806370a08231146101b757806395d89b41146101e05780639711715a146101e857600080fd5b8063313ce567116100d3578063313ce5671461016b57806339509351146101805780633f407b84146101935780634ee2cd7e1461019c57600080fd5b806306fdde0314610105578063095ea7b31461012357806318160ddd1461014657806323b872dd14610158575b600080fd5b61010d61023e565b60405161011a9190610b3d565b60405180910390f35b610136610131366004610ba9565b6102d0565b604051901515815260200161011a565b6002545b60405190815260200161011a565b610136610166366004610bd3565b6102ea565b60095460405160ff909116815260200161011a565b61013661018e366004610ba9565b61030e565b61014a600a5481565b61014a6101aa366004610ba9565b610330565b61014a610389565b61014a6101c5366004610c0f565b6001600160a01b031660009081526020819052604090205490565b61010d610394565b6101f06103a3565b005b61014a610200366004610c2a565b6103ae565b610136610213366004610ba9565b6103d9565b610136610226366004610ba9565b610459565b61014a610239366004610c43565b610467565b60606003805461024d90610c76565b80601f016020809104026020016040519081016040528092919081815260200182805461027990610c76565b80156102c65780601f1061029b576101008083540402835291602001916102c6565b820191906000526020600020905b8154815290600101906020018083116102a957829003601f168201915b5050505050905090565b6000336102de8185856104e3565b60019150505b92915050565b6000336102f8858285610607565b610303858585610681565b506001949350505050565b6000336102de8185856103218383610467565b61032b9190610cc7565b6104e3565b6001600160a01b038216600090815260056020526040812081908190610357908590610830565b915091508161037e576001600160a01b038516600090815260208190526040902054610380565b805b95945050505050565b6000806102e4610927565b60606004805461024d90610c76565b6103ab610937565b50565b60008060006103be846006610830565b91509150816103cf576002546103d1565b805b949350505050565b600033816103e78286610467565b90508381101561044c5760405162461bcd60e51b815260206004820152602560248201527f45524332303a2064656372656173656420616c6c6f77616e63652062656c6f77604482015264207a65726f60d81b60648201526084015b60405180910390fd5b61030382868684036104e3565b6000336102de818585610681565b6001600160a01b03918216600090815260016020908152604080832093909416825291909152205490565b6001600160a01b0383166104b6576104a982610991565b6104b16109c3565b505050565b6001600160a01b0382166104cd576104a983610991565b6104d683610991565b6104b182610991565b5490565b6001600160a01b0383166105455760405162461bcd60e51b8152602060048201526024808201527f45524332303a20617070726f76652066726f6d20746865207a65726f206164646044820152637265737360e01b6064820152608401610443565b6001600160a01b0382166105a65760405162461bcd60e51b815260206004820152602260248201527f45524332303a20617070726f766520746f20746865207a65726f206164647265604482015261737360f01b6064820152608401610443565b6001600160a01b0383811660008181526001602090815260408083209487168084529482529182902085905590518481527f8c5be1e5ebec7d5bd14f71427d1e84f3dd0314c0f7b2291e5b200ac8c7c3b925910160405180910390a3505050565b60006106138484610467565b9050600019811461067b578181101561066e5760405162461bcd60e51b815260206004820152601d60248201527f45524332303a20696e73756666696369656e7420616c6c6f77616e63650000006044820152606401610443565b61067b84848484036104e3565b50505050565b6001600160a01b0383166106e55760405162461bcd60e51b815260206004820152602560248201527f45524332303a207472616e736665722066726f6d20746865207a65726f206164604482015264647265737360d81b6064820152608401610443565b6001600160a01b0382166107475760405162461bcd60e51b815260206004820152602360248201527f45524332303a207472616e7366657220746f20746865207a65726f206164647260448201526265737360e81b6064820152608401610443565b6107528383836109d3565b6001600160a01b038316600090815260208190526040902054818110156107ca5760405162461bcd60e51b815260206004820152602660248201527f45524332303a207472616e7366657220616d6f756e7420657863656564732062604482015265616c616e636560d01b6064820152608401610443565b6001600160a01b03848116600081815260208181526040808320878703905593871680835291849020805487019055925185815290927fddf252ad1be2c89b69c2b068fc378daa952ba7f163c4a11628f55a4df523b3ef910160405180910390a361067b565b6000806000841161087c5760405162461bcd60e51b815260206004820152601660248201527504552433230536e617073686f743a20696420697320360541b6044820152606401610443565b610884610927565b8411156108d35760405162461bcd60e51b815260206004820152601d60248201527f4552433230536e617073686f743a206e6f6e6578697374656e742069640000006044820152606401610443565b60006108df84866109de565b84549091508114156108f8576000809250925050610920565b600184600101828154811061090f5761090f610cdf565b906000526020600020015492509250505b9250929050565b600061093260085490565b905090565b6000610947600880546001019055565b6000610951610927565b90507f8030e83b04d87bef53480e26263266d6ca66863aa8506aca6f2559d18aa1cb678160405161098491815260200190565b60405180910390a1919050565b6001600160a01b038116600090815260056020908152604080832091839052909120546103ab9190610a89565b610a89565b6109d160066109be60025490565b565b6104b1838383610492565b81546000906109ef575060006102e4565b82546000905b80821015610a3c576000610a098383610ad3565b60008781526020902090915085908201541115610a2857809150610a36565b610a33816001610cc7565b92505b506109f5565b600082118015610a68575083610a6586610a57600186610cf5565b600091825260209091200190565b54145b15610a8157610a78600183610cf5565b925050506102e4565b5090506102e4565b6000610a93610927565b905080610a9f84610af5565b10156104b1578254600180820185556000858152602080822090930193909355938401805494850181558252902090910155565b6000610ae26002848418610d0c565b610aee90848416610cc7565b9392505050565b8054600090610b0657506000919050565b81548290610b1690600190610cf5565b81548110610b2657610b26610cdf565b90600052602060002001549050919050565b919050565b600060208083528351808285015260005b81811015610b6a57858101830151858201604001528201610b4e565b81811115610b7c576000604083870101525b50601f01601f1916929092016040019392505050565b80356001600160a01b0381168114610b3857600080fd5b60008060408385031215610bbc57600080fd5b610bc583610b92565b946020939093013593505050565b600080600060608486031215610be857600080fd5b610bf184610b92565b9250610bff60208501610b92565b9150604084013590509250925092565b600060208284031215610c2157600080fd5b610aee82610b92565b600060208284031215610c3c57600080fd5b5035919050565b60008060408385031215610c5657600080fd5b610c5f83610b92565b9150610c6d60208401610b92565b90509250929050565b600181811c90821680610c8a57607f821691505b60208210811415610cab57634e487b7160e01b600052602260045260246000fd5b50919050565b634e487b7160e01b600052601160045260246000fd5b60008219821115610cda57610cda610cb1565b500190565b634e487b7160e01b600052603260045260246000fd5b600082821015610d0757610d07610cb1565b500390565b600082610d2957634e487b7160e01b600052601260045260246000fd5b50049056fea2646970667358221220dc44fe2f7f7d2326e28f840f1de77d6fd3d76a3d2d37f371cc93aed42c521b4564736f6c634300080a0033ddf252ad1be2c89b69c2b068fc378daa952ba7f163c4a11628f55a4df523b3ef608060405260006012553480156200001657600080fd5b50604051620037c2380380620037c283398101604081905262000039916200063c565b600080546001600160a01b03191633908117825581526001602081905260408220805460ff191690911790558451859190620000795762000079620007c8565b602002602001015160049080519060200190620000989291906200043b565b5083600181518110620000af57620000af620007c8565b602002602001015160059080519060200190620000ce9291906200043b565b5083600281518110620000e557620000e5620007c8565b602002602001015160069080519060200190620001049291906200043b565b50836003815181106200011b576200011b620007c8565b6020026020010151600790805190602001906200013a9291906200043b565b5083600481518110620001515762000151620007c8565b602002602001015160089080519060200190620001709291906200043b565b5083600581518110620001875762000187620007c8565b602002602001015160099080519060200190620001a69291906200043b565b5082600081518110620001bd57620001bd620007c8565b6020026020010151600a8190555082600181518110620001e157620001e1620007c8565b6020026020010151600b8190555082600281518110620002055762000205620007c8565b6020026020010151600c8190555082600381518110620002295762000229620007c8565b6020026020010151600d81905550826004815181106200024d576200024d620007c8565b6020026020010151600e8190555082600581518110620002715762000271620007c8565b602002602001015160138190555080601181905550816000815181106200029c576200029c620007c8565b6020026020010151600260006101000a8154816001600160a01b0302191690836001600160a01b0316021790555081600181518110620002e057620002e0620007c8565b6020026020010151600360006101000a8154816001600160a01b0302191690836001600160a01b0316021790555081600281518110620003245762000324620007c8565b6020026020010151601460006101000a8154816001600160a01b0302191690836001600160a01b0316021790555081600381518110620003685762000368620007c8565b6020026020010151601560006101000a8154816001600160a01b0302191690836001600160a01b0316021790555081600481518110620003ac57620003ac620007c8565b6020908102919091010151601680546001600160a01b0319166001600160a01b0392831617905560025460408051634b88b8ad60e11b815290519190921691639711715a91600480830192600092919082900301818387803b1580156200041257600080fd5b505af115801562000427573d6000803e3d6000fd5b50506000601955506200081b945050505050565b8280546200044990620007de565b90600052602060002090601f0160209004810192826200046d5760008555620004b8565b82601f106200048857805160ff1916838001178555620004b8565b82800160010185558215620004b8579182015b82811115620004b85782518255916020019190600101906200049b565b50620004c6929150620004ca565b5090565b5b80821115620004c65760008155600101620004cb565b634e487b7160e01b600052604160045260246000fd5b604051601f8201601f191681016001600160401b0381118282101715620005225762000522620004e1565b604052919050565b60006001600160401b03821115620005465762000546620004e1565b5060051b60200190565b600082601f8301126200056257600080fd5b815160206200057b62000575836200052a565b620004f7565b82815260059290921b840181019181810190868411156200059b57600080fd5b8286015b84811015620005b857805183529183019183016200059f565b509695505050505050565b600082601f830112620005d557600080fd5b81516020620005e862000575836200052a565b82815260059290921b840181019181810190868411156200060857600080fd5b8286015b84811015620005b85780516001600160a01b03811681146200062e5760008081fd5b83529183019183016200060c565b600080600080608085870312156200065357600080fd5b84516001600160401b03808211156200066b57600080fd5b818701915087601f8301126200068057600080fd5b815160206200069362000575836200052a565b82815260059290921b8401810191818101908b841115620006b357600080fd5b8286015b848110156200076857805186811115620006d057600080fd5b8701603f81018e13620006e257600080fd5b8481015187811115620006f957620006f9620004e1565b6200070d601f8201601f19168701620004f7565b8181528f6040838501011115620007245760008081fd5b60005b82811015620007455783810160400151828201890152870162000727565b82811115620007575760008884840101525b5085525050918301918301620006b7565b50918a01519198509093505050808211156200078357600080fd5b620007918883890162000550565b94506040870151915080821115620007a857600080fd5b50620007b787828801620005c3565b606096909601519497939650505050565b634e487b7160e01b600052603260045260246000fd5b600181811c90821680620007f357607f821691505b602082108114156200081557634e487b7160e01b600052602260045260246000fd5b50919050565b612f97806200082b6000396000f3fe60806040523480156200001157600080fd5b50600436106200026d5760003560e01c80635ffe61461162000155578063c557b98511620000c7578063e1c7392a1162000086578063e1c7392a14620004e5578063e3b4c0d114620004ef578063ef430aa61462000506578063fb1db2781462000510578063fddf8379146200052457600080fd5b8063c557b98514620004a6578063ce65868f14620004b0578063d29e902014620004c7578063d714544514620004d1578063db231e0014620004db57600080fd5b80638da5cb5b11620001145780638da5cb5b1462000456578063a5cb2440146200046a578063badf822b1462000474578063beb08ab91462000488578063c24a0f8b146200049c57600080fd5b80635ffe614614620003da5780636c9fa59e14620003f157806371927628146200041e5780637284e416146200043557806389fabc80146200043f57600080fd5b806327d0d52d11620001ef5780634afdd0e711620001ae5780634afdd0e7146200036e5780634e71d92d14620003785780634e772479146200038257806356975b8414620003b95780635af36e3e14620003c357600080fd5b806327d0d52d146200033c57806328f8692b14620003465780633f407b8414620003505780634a4ebc3d146200035a5780634a79d50c146200036457600080fd5b8063141ce1ed116200023c578063141ce1ed14620002d0578063177d2a7414620002da5780631828983a14620002f15780631b3ed7221462000328578063200d2ed2146200033257600080fd5b806303e5979d14620002725780630b97bc8614620002945780630c6b870514620002ad578063129874aa14620002b7575b600080fd5b6200027c62000538565b6040516200028b9190620021d1565b60405180910390f35b6200029e600c5481565b6040519081526020016200028b565b6200029e60175481565b620002ce620002c836600462002229565b620005ce565b005b620002ce62000ae9565b620002ce620002eb36600462002265565b62000d8a565b620003176200030236600462002265565b60016020526000908152604090205460ff1681565b60405190151581526020016200028b565b6200029e60135481565b6200029e60195481565b6200029e600a5481565b6200029e60105481565b6200029e60115481565b6200027c62000e13565b6200027c62000e22565b6200029e600b5481565b620002ce62000e31565b620003996200039336600462002265565b6200100f565b60408051931515845260208401929092521515908201526060016200028b565b6200029e600f5481565b620002ce620003d436600462002229565b620012f2565b62000317620003eb3660046200228c565b62001486565b60025462000405906001600160a01b031681565b6040516001600160a01b0390911681526020016200028b565b620003176200042f36600462002265565b620014c1565b6200027c62001518565b620002ce6200045036600462002265565b62001527565b60005462000405906001600160a01b031681565b6200029e600e5481565b60035462000405906001600160a01b031681565b60145462000405906001600160a01b031681565b6200029e600d5481565b6200027c620015b1565b6200029e620004c136600462002265565b620015c0565b620002ce6200191c565b6200029e60125481565b6200029e60185481565b620002ce62001d0f565b62000317620005003660046200228c565b62001fb2565b6200027c620021b4565b60165462000405906001600160a01b031681565b60155462000405906001600160a01b031681565b600780546200054790620022a6565b80601f01602080910402602001604051908101604052809291908181526020018280546200057590620022a6565b8015620005c65780601f106200059a57610100808354040283529160200191620005c6565b820191906000526020600020905b815481529060010190602001808311620005a857829003601f168201915b505050505081565b600082116200061b5760405162461bcd60e51b815260206004820152601460248201527353656e7420616d6f756e74206973207a65726f2160601b60448201526064015b60405180910390fd5b62000629426103e8620022f9565b600c5410620006745760405162461bcd60e51b81526020600482015260166024820152754974206861736e27742073746172746564207965742160501b604482015260640162000612565b62000682426103e8620022f9565b600d5411620006c25760405162461bcd60e51b815260206004820152600b60248201526a54696d652069732075702160a81b604482015260640162000612565b6003546040516323b872dd60e01b8152336004820152306024820152604481018490526001600160a01b03909116906323b872dd906064016020604051808303816000875af11580156200071a573d6000803e3d6000fd5b505050506040513d601f19601f820116820180604052508101906200074091906200231b565b5060025460405163a9059cbb60e01b81526001600160a01b039091169063a9059cbb906200077590339085906004016200233f565b6020604051808303816000875af115801562000795573d6000803e3d6000fd5b505050506040513d601f19601f82011682018060405250810190620007bb91906200231b565b508160126000828254620007d0919062002358565b9091555050336000818152601b602052604090819020805460ff19166001179055517fff871a9ae5845a29b42a0cadf1d60e02e4ff529db54de46b045d457bdbc1a0e79162000826913091869186919062002373565b60405180910390a16002546040516370a0823160e01b81523060048201526000916001600160a01b0316906370a0823190602401602060405180830381865afa15801562000878573d6000803e3d6000fd5b505050506040513d601f19601f820116820180604052508101906200089e91906200239e565b600e5460115491925090620008b48382620023b8565b620008c1906064620022f9565b620008cd9190620023d2565b10620008fe57600c54600d54620008e59190620023b8565b600d6000828254620008f8919062002358565b90915550505b8062000ae45760016019556016546017546040516369e0f35760e11b815260048101919091523060248201526001600160a01b039091169063d3c1e6ae90604401602060405180830381865afa1580156200095d573d6000803e3d6000fd5b505050506040513d601f19601f820116820180604052508101906200098391906200239e565b60185560165460175460405163958e2d3160e01b81526001600160a01b039092169163958e2d3191620009bc9160040190815260200190565b600060405180830381600087803b158015620009d757600080fd5b505af1158015620009ec573d6000803e3d6000fd5b50506016546017546040516364482f7960e01b8152600481019190915260006024820181905260448201526001600160a01b0390911692506364482f799150606401600060405180830381600087803b15801562000a4957600080fd5b505af115801562000a5e573d6000803e3d6000fd5b505060035460145460125460405163a9059cbb60e01b81526001600160a01b03938416955063a9059cbb945062000a9c93909216916004016200233f565b6020604051808303816000875af115801562000abc573d6000803e3d6000fd5b505050506040513d601f19601f8201168201806040525081019062000ae291906200231b565b505b505050565b3360009081526001602052604090205460ff1662000b1b5760405162461bcd60e51b81526004016200061290620023f5565b6002546040516370a0823160e01b81523060048201526000916001600160a01b0316906370a0823190602401602060405180830381865afa15801562000b65573d6000803e3d6000fd5b505050506040513d601f19601f8201168201806040525081019062000b8b91906200239e565b90506000811162000bdf5760405162461bcd60e51b815260206004820152601c60248201527f63616e27742063616c6c20696e207472616465642070726f6a65637400000000604482015260640162000612565b60025460145460405163a9059cbb60e01b81526001600160a01b039283169263a9059cbb9262000c179291169085906004016200233f565b6020604051808303816000875af115801562000c37573d6000803e3d6000fd5b505050506040513d601f19601f8201168201806040525081019062000c5d91906200231b565b50600e5460115462000c708382620023b8565b62000c7d906064620022f9565b62000c899190620023d2565b101562000cbb57600c54600d5462000ca29190620023b8565b600d600082825462000cb5919062002358565b90915550505b60035460145460125460405163a9059cbb60e01b81526001600160a01b039384169363a9059cbb9362000cf4939116916004016200233f565b6020604051808303816000875af115801562000d14573d6000803e3d6000fd5b505050506040513d601f19601f8201168201806040525081019062000d3a91906200231b565b506014546040517fff871a9ae5845a29b42a0cadf1d60e02e4ff529db54de46b045d457bdbc1a0e79162000d7f91309160009186916001600160a01b03169062002373565b60405180910390a150565b3360009081526001602052604090205460ff1662000dbc5760405162461bcd60e51b81526004016200061290620023f5565b6001600160a01b038116600081815260016020818152604092839020805460ff19168317905582519384528301527f5fe3a0cb9aeae856eac34445ace9544f3e15c21fa6f9bffeca60d662a690ca1b910162000d7f565b600980546200054790620022a6565b600480546200054790620022a6565b60008062000e3f336200100f565b50915091508115801562000e535750600081115b62000e905760405162461bcd60e51b815260206004820152600c60248201526b436c61696d204572726f722160a01b604482015260640162000612565b60035460405163a9059cbb60e01b81526001600160a01b039091169063a9059cbb9062000ec490339085906004016200233f565b6020604051808303816000875af115801562000ee4573d6000803e3d6000fd5b505050506040513d601f19601f8201168201806040525081019062000f0a91906200231b565b5080600f600082825462000f1f9190620023b8565b9091555050336000908152601a602090815260408083206002548251632a1cd6c360e11b81529251600195929492936001600160a01b0390921692635439ad8692600480820193918290030181865afa15801562000f81573d6000803e3d6000fd5b505050506040513d601f19601f8201168201806040525081019062000fa791906200239e565b81526020808201929092526040908101600020805460ff191693151593909317909255815130815290810183905233918101919091527f7e6632ca16a0ac6cf28448500b1a17d96c8b8163ad4c4a9b44ef5386cc02779e906060015b60405180910390a15050565b6001600160a01b038082166000908152601a602090815260408083206002548251632a1cd6c360e11b815292519495869586958695869490931692635439ad8692600480830193928290030181865afa15801562001071573d6000803e3d6000fd5b505050506040513d601f19601f820116820180604052508101906200109791906200239e565b81526020810191909152604090810160009081205460155492516367b0fef760e11b81523060048201526001600160a01b03898116602483015260ff90921694509192169063cf61fdee90604401602060405180830381865afa15801562001103573d6000803e3d6000fd5b505050506040513d601f19601f820116820180604052508101906200112991906200239e565b905080156200113757600191505b600082620012c75760025460408051632a1cd6c360e11b815290516000926001600160a01b031691634ee2cd7e918b918491635439ad86916004808201926020929091908290030181865afa15801562001195573d6000803e3d6000fd5b505050506040513d601f19601f82011682018060405250810190620011bb91906200239e565b6040518363ffffffff1660e01b8152600401620011da9291906200233f565b602060405180830381865afa158015620011f8573d6000803e3d6000fd5b505050506040513d601f19601f820116820180604052508101906200121e91906200239e565b90506200122c838262002358565b9050600260009054906101000a90046001600160a01b03166001600160a01b03166318160ddd6040518163ffffffff1660e01b8152600401602060405180830381865afa15801562001282573d6000803e3d6000fd5b505050506040513d601f19601f82011682018060405250810190620012a891906200239e565b601054620012b79083620022f9565b620012c39190620023d2565b9150505b6001600160a01b0387166000908152601b602052604090205492955093505060ff1690509193909250565b600082116200133b5760405162461bcd60e51b815260206004820152601460248201527353656e7420616d6f756e74206973207a65726f2160601b604482015260640162000612565b6002546040516323b872dd60e01b8152336004820152306024820152604481018490526001600160a01b03909116906323b872dd906064016020604051808303816000875af115801562001393573d6000803e3d6000fd5b505050506040513d601f19601f82011682018060405250810190620013b991906200231b565b5060035460405163a9059cbb60e01b81526001600160a01b039091169063a9059cbb90620013ee90339085906004016200233f565b6020604051808303816000875af11580156200140e573d6000803e3d6000fd5b505050506040513d601f19601f820116820180604052508101906200143491906200231b565b508060126000828254620014499190620023b8565b90915550506040517f89adc23bf21dbf8bb4327dc5b14ecd94b350f7a3d641dfb559767f700e237872906200100390309084908690339062002373565b3360009081526001602052604081205460ff16620014b85760405162461bcd60e51b81526004016200061290620023f5565b50601355600190565b3360009081526001602052604081205460ff16620014f35760405162461bcd60e51b81526004016200061290620023f5565b50601480546001600160a01b0383166001600160a01b03199091161790556001919050565b600580546200054790620022a6565b3360009081526001602052604090205460ff16620015595760405162461bcd60e51b81526004016200061290620023f5565b6001600160a01b0381166000818152600160209081526040808320805460ff191690558051938452908301919091527f5fe3a0cb9aeae856eac34445ace9544f3e15c21fa6f9bffeca60d662a690ca1b910162000d7f565b600880546200054790620022a6565b6001600160a01b0381166000908152601c602052604081205460ff16620019145760025460408051632a1cd6c360e11b815290516000926001600160a01b031691634ee2cd7e9186918491635439ad86916004808201926020929091908290030181865afa15801562001637573d6000803e3d6000fd5b505050506040513d601f19601f820116820180604052508101906200165d91906200239e565b6040518363ffffffff1660e01b81526004016200167c9291906200233f565b602060405180830381865afa1580156200169a573d6000803e3d6000fd5b505050506040513d601f19601f82011682018060405250810190620016c091906200239e565b6015546040516367b0fef760e11b81523060048201526001600160a01b0386811660248301529293506000929091169063cf61fdee90604401602060405180830381865afa15801562001717573d6000803e3d6000fd5b505050506040513d601f19601f820116820180604052508101906200173d91906200239e565b90506019546000141562001873576016546017546040516369e0f35760e11b815260048101919091523060248201526000916001600160a01b03169063d3c1e6ae90604401602060405180830381865afa158015620017a0573d6000803e3d6000fd5b505050506040513d601f19601f82011682018060405250810190620017c691906200239e565b90506000600260009054906101000a90046001600160a01b03166001600160a01b03166318160ddd6040518163ffffffff1660e01b8152600401602060405180830381865afa1580156200181e573d6000803e3d6000fd5b505050506040513d601f19601f820116820180604052508101906200184491906200239e565b8262001851858762002358565b6200185d9190620022f9565b620018699190620023d2565b9695505050505050565b600254604080516318160ddd60e01b815290516000926001600160a01b0316916318160ddd9160048083019260209291908290030181865afa158015620018be573d6000803e3d6000fd5b505050506040513d601f19601f82011682018060405250810190620018e491906200239e565b601854620018f3848662002358565b620018ff9190620022f9565b6200190b9190620023d2565b95945050505050565b506000919050565b601954600114620019965760405162461bcd60e51b815260206004820152603860248201527f596f752063616e20636c61696d2074686520726577617264207768656e20746860448201527f652070726f6a656374207265616368206f757420313030250000000000000000606482015260840162000612565b336000908152601c602052604090205460ff1615620019f85760405162461bcd60e51b815260206004820152601860248201527f596f75206861766520616c726561647920636c61696d65640000000000000000604482015260640162000612565b60025460408051632a1cd6c360e11b815290516000926001600160a01b031691634ee2cd7e9133918491635439ad86916004808201926020929091908290030181865afa15801562001a4e573d6000803e3d6000fd5b505050506040513d601f19601f8201168201806040525081019062001a7491906200239e565b6040518363ffffffff1660e01b815260040162001a939291906200233f565b602060405180830381865afa15801562001ab1573d6000803e3d6000fd5b505050506040513d601f19601f8201168201806040525081019062001ad791906200239e565b6015546040516367b0fef760e11b81523060048201523360248201529192506000916001600160a01b039091169063cf61fdee90604401602060405180830381865afa15801562001b2c573d6000803e3d6000fd5b505050506040513d601f19601f8201168201806040525081019062001b5291906200239e565b90506000601660009054906101000a90046001600160a01b03166001600160a01b031663fd01ea9f6040518163ffffffff1660e01b81526004016020604051808303816000875af115801562001bac573d6000803e3d6000fd5b505050506040513d601f19601f8201168201806040525081019062001bd291906200241d565b90506000600260009054906101000a90046001600160a01b03166001600160a01b03166318160ddd6040518163ffffffff1660e01b8152600401602060405180830381865afa15801562001c2a573d6000803e3d6000fd5b505050506040513d601f19601f8201168201806040525081019062001c5091906200239e565b60185462001c5f858762002358565b62001c6b9190620022f9565b62001c779190620023d2565b336000818152601c602052604090819020805460ff191660011790555163a9059cbb60e01b81529192506001600160a01b0384169163a9059cbb9162001cc29185906004016200233f565b6020604051808303816000875af115801562001ce2573d6000803e3d6000fd5b505050506040513d601f19601f8201168201806040525081019062001d0891906200231b565b5050505050565b6000546001600160a01b0316331462001d5b5760405162461bcd60e51b815260206004820152600d60248201526c2737ba103a34329037bbb732b960991b604482015260640162000612565b600060405162001d6b90620021c3565b604080825260079082015266054454d50204c560cc1b6060820152608060208201819052600390820152620544c560ec1b60a082015260c001604051809103906000f08015801562001dc1573d6000803e3d6000fd5b50601654601354604051636283d75560e11b815260048101919091526001600160a01b038084166024830152600060448301526001606483015292935091169063c507aeaa90608401600060405180830381600087803b15801562001e2557600080fd5b505af115801562001e3a573d6000803e3d6000fd5b505060165460405163095ea7b360e01b815267016345785d8a000093506001600160a01b03808616935063095ea7b39262001e7d9291169085906004016200233f565b6020604051808303816000875af115801562001e9d573d6000803e3d6000fd5b505050506040513d601f19601f8201168201806040525081019062001ec391906200231b565b506016546040805163040f1f6d60e11b815290516001926001600160a01b03169163081e3eda91600480830192602092919082900301816000875af115801562001f11573d6000803e3d6000fd5b505050506040513d601f19601f8201168201806040525081019062001f3791906200239e565b62001f439190620023b8565b6017819055601654604051631c57762b60e31b81526004810192909252602482018390526001600160a01b03169063e2bbb15890604401600060405180830381600087803b15801562001f9557600080fd5b505af115801562001faa573d6000803e3d6000fd5b505050505050565b600080821162001ffc5760405162461bcd60e51b815260206004820152601460248201527373656e7420616d6f756e74206973207a65726f2160601b604482015260640162000612565b600f54156200208357600354600f5460405163a9059cbb60e01b81526001600160a01b039092169163a9059cbb916200203b913391906004016200233f565b6020604051808303816000875af11580156200205b573d6000803e3d6000fd5b505050506040513d601f19601f820116820180604052508101906200208191906200231b565b505b6003546040516323b872dd60e01b8152336004820152306024820152604481018490526001600160a01b03909116906323b872dd906064016020604051808303816000875af1158015620020db573d6000803e3d6000fd5b505050506040513d601f19601f820116820180604052508101906200210191906200231b565b50600f829055601082905560025460408051634b88b8ad60e11b815290516001600160a01b0390921691639711715a9160048082019260009290919082900301818387803b1580156200215357600080fd5b505af115801562002168573d6000803e3d6000fd5b50506040805130815260208101869052338183015290517f1f333b8f778a40c6385546d263a84ef38c89f2ce5bfb25d8a1f4f66b53c96f349350908190036060019150a1506001919050565b600680546200054790620022a6565b610b24806200243e83390190565b600060208083528351808285015260005b818110156200220057858101830151858201604001528201620021e2565b8181111562002213576000604083870101525b50601f01601f1916929092016040019392505050565b600080604083850312156200223d57600080fd5b50508035926020909101359150565b6001600160a01b03811681146200226257600080fd5b50565b6000602082840312156200227857600080fd5b813562002285816200224c565b9392505050565b6000602082840312156200229f57600080fd5b5035919050565b600181811c90821680620022bb57607f821691505b60208210811415620022dd57634e487b7160e01b600052602260045260246000fd5b50919050565b634e487b7160e01b600052601160045260246000fd5b6000816000190483118215151615620023165762002316620022e3565b500290565b6000602082840312156200232e57600080fd5b815180151581146200228557600080fd5b6001600160a01b03929092168252602082015260400190565b600082198211156200236e576200236e620022e3565b500190565b6001600160a01b03948516815260208101939093526040830191909152909116606082015260800190565b600060208284031215620023b157600080fd5b5051919050565b600082821015620023cd57620023cd620022e3565b500390565b600082620023f057634e487b7160e01b600052601260045260246000fd5b500490565b6020808252600e908201526d139bdd08185d5d1a1bdc9a5e995960921b604082015260600190565b6000602082840312156200243057600080fd5b815162002285816200224c56fe60806040523480156200001157600080fd5b5060405162000b2438038062000b2483398101604081905262000034916200024b565b815162000049906000906020850190620000d8565b5080516200005f906001906020840190620000d8565b506002805460ff191660101790556c0c9f2c9cd04674edea4000000060038190553360008181526004602052604080822084905551919290917fddf252ad1be2c89b69c2b068fc378daa952ba7f163c4a11628f55a4df523b3ef91620000c89190815260200190565b60405180910390a35050620002f2565b828054620000e690620002b5565b90600052602060002090601f0160209004810192826200010a576000855562000155565b82601f106200012557805160ff191683800117855562000155565b8280016001018555821562000155579182015b828111156200015557825182559160200191906001019062000138565b506200016392915062000167565b5090565b5b8082111562000163576000815560010162000168565b634e487b7160e01b600052604160045260246000fd5b600082601f830112620001a657600080fd5b81516001600160401b0380821115620001c357620001c36200017e565b604051601f8301601f19908116603f01168101908282118183101715620001ee57620001ee6200017e565b816040528381526020925086838588010111156200020b57600080fd5b600091505b838210156200022f578582018301518183018401529082019062000210565b83821115620002415760008385830101525b9695505050505050565b600080604083850312156200025f57600080fd5b82516001600160401b03808211156200027757600080fd5b620002858683870162000194565b935060208501519150808211156200029c57600080fd5b50620002ab8582860162000194565b9150509250929050565b600181811c90821680620002ca57607f821691505b60208210811415620002ec57634e487b7160e01b600052602260045260246000fd5b50919050565b61082280620003026000396000f3fe608060405234801561001057600080fd5b50600436106100ea5760003560e01c806395d89b411161008c578063b5931f7c11610066578063b5931f7c146101d8578063d05c78da146101eb578063dd62ed3e146101fe578063e6cb90131461023757600080fd5b806395d89b41146101aa578063a293d1e8146101b2578063a9059cbb146101c557600080fd5b806323b872dd116100c857806323b872dd14610146578063313ce567146101595780633eaaf86b1461017857806370a082311461018157600080fd5b806306fdde03146100ef578063095ea7b31461010d57806318160ddd14610130575b600080fd5b6100f761024a565b60405161010491906105e4565b60405180910390f35b61012061011b366004610655565b6102d8565b6040519015158152602001610104565b610138610345565b604051908152602001610104565b61012061015436600461067f565b610383565b6002546101669060ff1681565b60405160ff9091168152602001610104565b61013860035481565b61013861018f3660046106bb565b6001600160a01b031660009081526004602052604090205490565b6100f7610481565b6101386101c03660046106d6565b61048e565b6101206101d3366004610655565b6104ee565b6101386101e63660046106d6565b610585565b6101386101f93660046106d6565b61059d565b61013861020c3660046106f8565b6001600160a01b03918216600090815260056020908152604080832093909416825291909152205490565b6101386102453660046106d6565b6105c9565b600080546102579061072b565b80601f01602080910402602001604051908101604052809291908181526020018280546102839061072b565b80156102d05780601f106102a5576101008083540402835291602001916102d0565b820191906000526020600020905b8154815290600101906020018083116102b357829003601f168201915b505050505081565b3360008181526005602090815260408083206001600160a01b038716808552925280832085905551919290917f8c5be1e5ebec7d5bd14f71427d1e84f3dd0314c0f7b2291e5b200ac8c7c3b925906103339086815260200190565b60405180910390a35060015b92915050565b600080805260046020527f17ef568e3e12ab5b9c7254a8d58478811de00f9e6eb34345acd53bf8fd09d3ec5460035461037e919061077c565b905090565b6001600160a01b0383166000908152600460205260408120546103a6908361048e565b6001600160a01b03851660009081526004602090815260408083209390935560058152828220338352905220546103dd908361048e565b6001600160a01b03808616600090815260056020908152604080832033845282528083209490945591861681526004909152205461041b90836105c9565b6001600160a01b0380851660008181526004602052604090819020939093559151908616907fddf252ad1be2c89b69c2b068fc378daa952ba7f163c4a11628f55a4df523b3ef9061046f9086815260200190565b60405180910390a35060019392505050565b600180546102579061072b565b6000828211156104dd5760405162461bcd60e51b8152602060048201526016602482015275209034b9903737ba103134b3b3b2b9103a3430b7103160511b604482015260640160405180910390fd5b6104e7828461077c565b9392505050565b33600090815260046020526040812054610508908361048e565b33600090815260046020526040808220929092556001600160a01b0385168152205461053490836105c9565b6001600160a01b0384166000818152600460205260409081902092909255905133907fddf252ad1be2c89b69c2b068fc378daa952ba7f163c4a11628f55a4df523b3ef906103339086815260200190565b600080821161059357600080fd5b6104e78284610793565b60006105a982846107b5565b90508215806105c05750816105be8483610793565b145b61033f57600080fd5b60006105d582846107d4565b90508281101561033f57600080fd5b600060208083528351808285015260005b81811015610611578581018301518582016040015282016105f5565b81811115610623576000604083870101525b50601f01601f1916929092016040019392505050565b80356001600160a01b038116811461065057600080fd5b919050565b6000806040838503121561066857600080fd5b61067183610639565b946020939093013593505050565b60008060006060848603121561069457600080fd5b61069d84610639565b92506106ab60208501610639565b9150604084013590509250925092565b6000602082840312156106cd57600080fd5b6104e782610639565b600080604083850312156106e957600080fd5b50508035926020909101359150565b6000806040838503121561070b57600080fd5b61071483610639565b915061072260208401610639565b90509250929050565b600181811c9082168061073f57607f821691505b6020821081141561076057634e487b7160e01b600052602260045260246000fd5b50919050565b634e487b7160e01b600052601160045260246000fd5b60008282101561078e5761078e610766565b500390565b6000826107b057634e487b7160e01b600052601260045260246000fd5b500490565b60008160001904831182151516156107cf576107cf610766565b500290565b600082198211156107e7576107e7610766565b50019056fea264697066735822122048e89f5464e57d6ee80243b6599e447f71a69a532595c1975f5da7f4b1eb690e64736f6c634300080a0033a2646970667358221220ea9bdae910b3be911fd5761ad30e240bb189c952839c444d2deab90823ba550864736f6c634300080a0033a264697066735822122093896c09ca6fd3bbef7a549c05bc750b434825778690eca9e4814e6cadf4278e64736f6c634300080a0033",
  "linkReferences": {},
  "deployedLinkReferences": {}
}