{
  "_format": "hh-sol-artifact-1",
  "contractName": "ProjectManage",
  "sourceName": "contracts/ProjectManage.sol",
  "abi": [
    {
      "inputs": [],
      "stateMutability": "nonpayable",
      "type": "constructor"
    },
    {
      "anonymous": false,
      "inputs": [
        {
          "indexed": false,
          "internalType": "address",
          "name": "founderAddress",
          "type": "address"
        },
        {
          "indexed": false,
          "internalType": "address",
          "name": "contractAddress",
          "type": "address"
        },
        {
          "indexed": false,
          "internalType": "address",
          "name": "tokenAddress",
          "type": "address"
        }
      ],
      "name": "DeployedNewProject",
      "type": "event"
    },
    {
      "anonymous": false,
      "inputs": [
        {
          "indexed": true,
          "internalType": "address",
          "name": "previousOwner",
          "type": "address"
        },
        {
          "indexed": true,
          "internalType": "address",
          "name": "newOwner",
          "type": "address"
        }
      ],
      "name": "OwnershipTransferred",
      "type": "event"
    },
    {
      "inputs": [
        {
          "internalType": "string",
          "name": "name",
          "type": "string"
        },
        {
          "internalType": "string",
          "name": "symbol",
          "type": "string"
        },
        {
          "internalType": "uint256",
          "name": "total",
          "type": "uint256"
        },
        {
          "internalType": "uint8",
          "name": "decimal",
          "type": "uint8"
        },
        {
          "internalType": "uint256",
          "name": "sellAmount",
          "type": "uint256"
        },
        {
          "internalType": "string[]",
          "name": "_infoST",
          "type": "string[]"
        },
        {
          "internalType": "uint256[]",
          "name": "_infoNB",
          "type": "uint256[]"
        },
        {
          "internalType": "address",
          "name": "_investToken",
          "type": "address"
        }
      ],
      "name": "createProject",
      "outputs": [
        {
          "internalType": "address",
          "name": "",
          "type": "address"
        },
        {
          "internalType": "address",
          "name": "",
          "type": "address"
        }
      ],
      "stateMutability": "nonpayable",
      "type": "function"
    },
    {
      "inputs": [],
      "name": "getAllFounders",
      "outputs": [
        {
          "internalType": "address[]",
          "name": "",
          "type": "address[]"
        }
      ],
      "stateMutability": "view",
      "type": "function"
    },
    {
      "inputs": [],
      "name": "getProjectAllContract",
      "outputs": [
        {
          "internalType": "address[]",
          "name": "",
          "type": "address[]"
        }
      ],
      "stateMutability": "view",
      "type": "function"
    },
    {
      "inputs": [
        {
          "internalType": "address",
          "name": "_owner",
          "type": "address"
        }
      ],
      "name": "getProjectContractOwner",
      "outputs": [
        {
          "internalType": "address[]",
          "name": "",
          "type": "address[]"
        }
      ],
      "stateMutability": "view",
      "type": "function"
    },
    {
      "inputs": [],
      "name": "owner",
      "outputs": [
        {
          "internalType": "address",
          "name": "",
          "type": "address"
        }
      ],
      "stateMutability": "view",
      "type": "function"
    },
    {
      "inputs": [
        {
          "internalType": "address",
          "name": "",
          "type": "address"
        },
        {
          "internalType": "uint256",
          "name": "",
          "type": "uint256"
        }
      ],
      "name": "ownerToProjects",
      "outputs": [
        {
          "internalType": "address",
          "name": "",
          "type": "address"
        }
      ],
      "stateMutability": "view",
      "type": "function"
    },
    {
      "inputs": [],
      "name": "renounceOwnership",
      "outputs": [],
      "stateMutability": "nonpayable",
      "type": "function"
    },
    {
      "inputs": [
        {
          "internalType": "address",
          "name": "newOwner",
          "type": "address"
        }
      ],
      "name": "transferOwnership",
      "outputs": [],
      "stateMutability": "nonpayable",
      "type": "function"
    }
  ],
  "bytecode": "0x608060405234801561001057600080fd5b5061001a3361001f565b61006f565b600080546001600160a01b038381166001600160a01b0319831681178455604051919092169283917f8be0079c531659141344cd1fd0a4f28419497f9722a3daafe3b4186f6b6457e09190a35050565b6139ac8061007e6000396000f3fe60806040523480156200001157600080fd5b5060043610620000935760003560e01c8063b519f6e01162000062578063b519f6e0146200012c578063b701fe9b1462000136578063d92ff4941462000140578063f2fde38b146200015757600080fd5b80633706b96b146200009857806342915d6314620000d4578063715018a614620000fa5780638da5cb5b1462000106575b600080fd5b620000af620000a936600462000adc565b6200016e565b604080516001600160a01b039384168152929091166020830152015b60405180910390f35b620000eb620000e536600462000bcf565b620004ba565b604051620000cb919062000c3a565b6200010462000532565b005b6000546001600160a01b03165b6040516001600160a01b039091168152602001620000cb565b620000eb6200054a565b620000eb620005ae565b620001136200015136600462000c4f565b62000748565b620001046200016836600462000bcf565b62000781565b6000806001600160a01b038316620001bf5760405162461bcd60e51b815260206004820152600f60248201526e496e76616c6964206164647265737360881b60448201526064015b60405180910390fd5b336000908152600360205260409020546200021757600280546001810182556000919091527f405787fa12a823e0f2b7631cc41b3ba8828b3321ca811111fa75cd3aa3bb5ace0180546001600160a01b031916331790555b604080516003808252608082019092526000916020820160608036833701905050905060008b8b8b8b8b336040516200025090620008ac565b620002619695949392919062000ccc565b604051809103906000f0801580156200027e573d6000803e3d6000fd5b509050808260008151811062000298576200029862000d27565b60200260200101906001600160a01b031690816001600160a01b0316815250508482600181518110620002cf57620002cf62000d27565b60200260200101906001600160a01b031690816001600160a01b03168152505060008787848b6040516200030390620008ba565b62000312949392919062000d3d565b604051809103906000f0801580156200032f573d6000803e3d6000fd5b506040516370a0823160e01b81523060048201529091506001600160a01b0383169063a9059cbb90839083906370a0823190602401602060405180830381865afa15801562000382573d6000803e3d6000fd5b505050506040513d601f19601f82011682018060405250810190620003a8919062000dfb565b6040516001600160e01b031960e085901b1681526001600160a01b03909216600483015260248201526044016020604051808303816000875af1158015620003f4573d6000803e3d6000fd5b505050506040513d601f19601f820116820180604052508101906200041a919062000e15565b503360009081526003602090815260408220805460018082018355918452919092200180546001600160a01b0319166001600160a01b038416179055805481019055604080513381526001600160a01b0380841660208301528416918101919091527f1b4c53b94836fa026287c766e681094ea3f7cabdd599b2343b2aa694f7c08c379060600160405180910390a19c909b509950505050505050505050565b6001600160a01b03811660009081526003602090815260408083208054825181850281018501909352808352606094938301828280156200052557602002820191906000526020600020905b81546001600160a01b0316815260019091019060200180831162000506575b5093979650505050505050565b6200053c62000800565b6200054860006200085c565b565b60606002805480602002602001604051908101604052809291908181526020018280548015620005a457602002820191906000526020600020905b81546001600160a01b0316815260019091019060200180831162000585575b5050505050905090565b60606000620005bc60015490565b67ffffffffffffffff811115620005d757620005d7620008c8565b60405190808252806020026020018201604052801562000601578160200160208202803683370190505b5090506000805b6002548110156200074057600060036000600284815481106200062f576200062f62000d27565b60009182526020808320909101546001600160a01b03168352828101939093526040918201902080548251818502810185019093528083529192909190830182828015620006a757602002820191906000526020600020905b81546001600160a01b0316815260019091019060200180831162000688575b5050505050905060005b81518110156200072857818181518110620006d057620006d062000d27565b6020026020010151858580620006e69062000e39565b965081518110620006fb57620006fb62000d27565b6001600160a01b0390921660209283029190910190910152806200071f8162000e39565b915050620006b1565b50508080620007379062000e39565b91505062000608565b509092915050565b600360205281600052604060002081815481106200076557600080fd5b6000918252602090912001546001600160a01b03169150829050565b6200078b62000800565b6001600160a01b038116620007f25760405162461bcd60e51b815260206004820152602660248201527f4f776e61626c653a206e6577206f776e657220697320746865207a65726f206160448201526564647265737360d01b6064820152608401620001b6565b620007fd816200085c565b50565b6000546001600160a01b03163314620005485760405162461bcd60e51b815260206004820181905260248201527f4f776e61626c653a2063616c6c6572206973206e6f7420746865206f776e65726044820152606401620001b6565b600080546001600160a01b038381166001600160a01b0319831681178455604051919092169283917f8be0079c531659141344cd1fd0a4f28419497f9722a3daafe3b4186f6b6457e09190a35050565b61150d8062000e6483390190565b611606806200237183390190565b634e487b7160e01b600052604160045260246000fd5b604051601f8201601f1916810167ffffffffffffffff811182821017156200090a576200090a620008c8565b604052919050565b600082601f8301126200092457600080fd5b813567ffffffffffffffff811115620009415762000941620008c8565b62000956601f8201601f1916602001620008de565b8181528460208386010111156200096c57600080fd5b816020850160208301376000918101602001919091529392505050565b803560ff811681146200099b57600080fd5b919050565b600067ffffffffffffffff821115620009bd57620009bd620008c8565b5060051b60200190565b600082601f830112620009d957600080fd5b81356020620009f2620009ec83620009a0565b620008de565b82815260059290921b8401810191818101908684111562000a1257600080fd5b8286015b8481101562000a5757803567ffffffffffffffff81111562000a385760008081fd5b62000a488986838b010162000912565b84525091830191830162000a16565b509695505050505050565b600082601f83011262000a7457600080fd5b8135602062000a87620009ec83620009a0565b82815260059290921b8401810191818101908684111562000aa757600080fd5b8286015b8481101562000a57578035835291830191830162000aab565b80356001600160a01b03811681146200099b57600080fd5b600080600080600080600080610100898b03121562000afa57600080fd5b883567ffffffffffffffff8082111562000b1357600080fd5b62000b218c838d0162000912565b995060208b013591508082111562000b3857600080fd5b62000b468c838d0162000912565b985060408b0135975062000b5d60608c0162000989565b965060808b0135955060a08b013591508082111562000b7b57600080fd5b62000b898c838d01620009c7565b945060c08b013591508082111562000ba057600080fd5b5062000baf8b828c0162000a62565b92505062000bc060e08a0162000ac4565b90509295985092959890939650565b60006020828403121562000be257600080fd5b62000bed8262000ac4565b9392505050565b600081518084526020808501945080840160005b8381101562000c2f5781516001600160a01b03168752958201959082019060010162000c08565b509495945050505050565b60208152600062000bed602083018462000bf4565b6000806040838503121562000c6357600080fd5b62000c6e8362000ac4565b946020939093013593505050565b6000815180845260005b8181101562000ca45760208185018101518683018201520162000c86565b8181111562000cb7576000602083870101525b50601f01601f19169290920160200192915050565b60c08152600062000ce160c083018962000c7c565b828103602084015262000cf5818962000c7c565b6040840197909752505060ff93909316606084015260808301919091526001600160a01b031660a09091015292915050565b634e487b7160e01b600052603260045260246000fd5b6000608082016080835280875180835260a08501915060a08160051b86010192506020808a0160005b8381101562000d9857609f1988870301855262000d8586835162000c7c565b9550938201939082019060010162000d66565b50508584038187015288518085528982019482019350915060005b8281101562000dd15784518452938101939281019260010162000db3565b505050838103604085015262000de8818762000bf4565b9250505082606083015295945050505050565b60006020828403121562000e0e57600080fd5b5051919050565b60006020828403121562000e2857600080fd5b8151801515811462000bed57600080fd5b600060001982141562000e5c57634e487b7160e01b600052601160045260246000fd5b506001019056fe60806040523480156200001157600080fd5b506040516200150d3803806200150d833981016040819052620000349162000623565b8551869086906200004d906003906020850190620004b0565b50805162000063906004906020840190620004b0565b50506009805460ff191660ff861617905550600a829055620000863085620000bd565b6200009330338462000181565b30600081815260208190526040902054620000b19190839062000181565b50505050505062000779565b6001600160a01b038216620001195760405162461bcd60e51b815260206004820152601f60248201527f45524332303a206d696e7420746f20746865207a65726f20616464726573730060448201526064015b60405180910390fd5b620001276000838362000328565b80600260008282546200013b9190620006f1565b90915550506001600160a01b03821660008181526020818152604080832080548601905551848152600080516020620014ed833981519152910160405180910390a35050565b6001600160a01b038316620001e75760405162461bcd60e51b815260206004820152602560248201527f45524332303a207472616e736665722066726f6d20746865207a65726f206164604482015264647265737360d81b606482015260840162000110565b6001600160a01b0382166200024b5760405162461bcd60e51b815260206004820152602360248201527f45524332303a207472616e7366657220746f20746865207a65726f206164647260448201526265737360e81b606482015260840162000110565b6200025883838362000328565b6001600160a01b03831660009081526020819052604090205481811015620002d25760405162461bcd60e51b815260206004820152602660248201527f45524332303a207472616e7366657220616d6f756e7420657863656564732062604482015265616c616e636560d01b606482015260840162000110565b6001600160a01b0384811660008181526020818152604080832087870390559387168083529184902080548701905592518581529092600080516020620014ed833981519152910160405180910390a350505050565b620003408383836200034560201b620004921760201c565b505050565b6200035d8383836200034060201b620004b11760201c565b6001600160a01b03831662000381576200037782620003ac565b62000340620003e4565b6001600160a01b0382166200039b576200037783620003ac565b620003a683620003ac565b62000340825b6001600160a01b03811660009081526005602090815260408083209183905290912054620003e19190620003f6565b620003f6565b50565b620003f46006620003db60025490565b565b60006200040262000445565b905080620004108462000463565b101562000340578254600180820185556000858152602080822090930193909355938401805494850181558252902090910155565b60006200045e6008620004ac60201b620004df1760201c565b905090565b80546000906200047557506000919050565b8154829062000487906001906200070c565b815481106200049a576200049a62000726565b90600052602060002001549050919050565b5490565b828054620004be906200073c565b90600052602060002090601f016020900481019282620004e257600085556200052d565b82601f10620004fd57805160ff19168380011785556200052d565b828001600101855582156200052d579182015b828111156200052d57825182559160200191906001019062000510565b506200053b9291506200053f565b5090565b5b808211156200053b576000815560010162000540565b634e487b7160e01b600052604160045260246000fd5b600082601f8301126200057e57600080fd5b81516001600160401b03808211156200059b576200059b62000556565b604051601f8301601f19908116603f01168101908282118183101715620005c657620005c662000556565b81604052838152602092508683858801011115620005e357600080fd5b600091505b83821015620006075785820183015181830184015290820190620005e8565b83821115620006195760008385830101525b9695505050505050565b60008060008060008060c087890312156200063d57600080fd5b86516001600160401b03808211156200065557600080fd5b620006638a838b016200056c565b975060208901519150808211156200067a57600080fd5b506200068989828a016200056c565b95505060408701519350606087015160ff81168114620006a857600080fd5b608088015160a089015191945092506001600160a01b0381168114620006cd57600080fd5b809150509295509295509295565b634e487b7160e01b600052601160045260246000fd5b60008219821115620007075762000707620006db565b500190565b600082821015620007215762000721620006db565b500390565b634e487b7160e01b600052603260045260246000fd5b600181811c908216806200075157607f821691505b602082108114156200077357634e487b7160e01b600052602260045260246000fd5b50919050565b610d6480620007896000396000f3fe608060405234801561001057600080fd5b50600436106101005760003560e01c80635439ad8611610097578063981b24d011610066578063981b24d0146101f2578063a457c2d714610205578063a9059cbb14610218578063dd62ed3e1461022b57600080fd5b80635439ad86146101af57806370a08231146101b757806395d89b41146101e05780639711715a146101e857600080fd5b8063313ce567116100d3578063313ce5671461016b57806339509351146101805780633f407b84146101935780634ee2cd7e1461019c57600080fd5b806306fdde0314610105578063095ea7b31461012357806318160ddd1461014657806323b872dd14610158575b600080fd5b61010d61023e565b60405161011a9190610b3d565b60405180910390f35b610136610131366004610ba9565b6102d0565b604051901515815260200161011a565b6002545b60405190815260200161011a565b610136610166366004610bd3565b6102ea565b60095460405160ff909116815260200161011a565b61013661018e366004610ba9565b61030e565b61014a600a5481565b61014a6101aa366004610ba9565b610330565b61014a610389565b61014a6101c5366004610c0f565b6001600160a01b031660009081526020819052604090205490565b61010d610394565b6101f06103a3565b005b61014a610200366004610c2a565b6103ae565b610136610213366004610ba9565b6103d9565b610136610226366004610ba9565b610459565b61014a610239366004610c43565b610467565b60606003805461024d90610c76565b80601f016020809104026020016040519081016040528092919081815260200182805461027990610c76565b80156102c65780601f1061029b576101008083540402835291602001916102c6565b820191906000526020600020905b8154815290600101906020018083116102a957829003601f168201915b5050505050905090565b6000336102de8185856104e3565b60019150505b92915050565b6000336102f8858285610607565b610303858585610681565b506001949350505050565b6000336102de8185856103218383610467565b61032b9190610cc7565b6104e3565b6001600160a01b038216600090815260056020526040812081908190610357908590610830565b915091508161037e576001600160a01b038516600090815260208190526040902054610380565b805b95945050505050565b6000806102e4610927565b60606004805461024d90610c76565b6103ab610937565b50565b60008060006103be846006610830565b91509150816103cf576002546103d1565b805b949350505050565b600033816103e78286610467565b90508381101561044c5760405162461bcd60e51b815260206004820152602560248201527f45524332303a2064656372656173656420616c6c6f77616e63652062656c6f77604482015264207a65726f60d81b60648201526084015b60405180910390fd5b61030382868684036104e3565b6000336102de818585610681565b6001600160a01b03918216600090815260016020908152604080832093909416825291909152205490565b6001600160a01b0383166104b6576104a982610991565b6104b16109c3565b505050565b6001600160a01b0382166104cd576104a983610991565b6104d683610991565b6104b182610991565b5490565b6001600160a01b0383166105455760405162461bcd60e51b8152602060048201526024808201527f45524332303a20617070726f76652066726f6d20746865207a65726f206164646044820152637265737360e01b6064820152608401610443565b6001600160a01b0382166105a65760405162461bcd60e51b815260206004820152602260248201527f45524332303a20617070726f766520746f20746865207a65726f206164647265604482015261737360f01b6064820152608401610443565b6001600160a01b0383811660008181526001602090815260408083209487168084529482529182902085905590518481527f8c5be1e5ebec7d5bd14f71427d1e84f3dd0314c0f7b2291e5b200ac8c7c3b925910160405180910390a3505050565b60006106138484610467565b9050600019811461067b578181101561066e5760405162461bcd60e51b815260206004820152601d60248201527f45524332303a20696e73756666696369656e7420616c6c6f77616e63650000006044820152606401610443565b61067b84848484036104e3565b50505050565b6001600160a01b0383166106e55760405162461bcd60e51b815260206004820152602560248201527f45524332303a207472616e736665722066726f6d20746865207a65726f206164604482015264647265737360d81b6064820152608401610443565b6001600160a01b0382166107475760405162461bcd60e51b815260206004820152602360248201527f45524332303a207472616e7366657220746f20746865207a65726f206164647260448201526265737360e81b6064820152608401610443565b6107528383836109d3565b6001600160a01b038316600090815260208190526040902054818110156107ca5760405162461bcd60e51b815260206004820152602660248201527f45524332303a207472616e7366657220616d6f756e7420657863656564732062604482015265616c616e636560d01b6064820152608401610443565b6001600160a01b03848116600081815260208181526040808320878703905593871680835291849020805487019055925185815290927fddf252ad1be2c89b69c2b068fc378daa952ba7f163c4a11628f55a4df523b3ef910160405180910390a361067b565b6000806000841161087c5760405162461bcd60e51b815260206004820152601660248201527504552433230536e617073686f743a20696420697320360541b6044820152606401610443565b610884610927565b8411156108d35760405162461bcd60e51b815260206004820152601d60248201527f4552433230536e617073686f743a206e6f6e6578697374656e742069640000006044820152606401610443565b60006108df84866109de565b84549091508114156108f8576000809250925050610920565b600184600101828154811061090f5761090f610cdf565b906000526020600020015492509250505b9250929050565b600061093260085490565b905090565b6000610947600880546001019055565b6000610951610927565b90507f8030e83b04d87bef53480e26263266d6ca66863aa8506aca6f2559d18aa1cb678160405161098491815260200190565b60405180910390a1919050565b6001600160a01b038116600090815260056020908152604080832091839052909120546103ab9190610a89565b610a89565b6109d160066109be60025490565b565b6104b1838383610492565b81546000906109ef575060006102e4565b82546000905b80821015610a3c576000610a098383610ad3565b60008781526020902090915085908201541115610a2857809150610a36565b610a33816001610cc7565b92505b506109f5565b600082118015610a68575083610a6586610a57600186610cf5565b600091825260209091200190565b54145b15610a8157610a78600183610cf5565b925050506102e4565b5090506102e4565b6000610a93610927565b905080610a9f84610af5565b10156104b1578254600180820185556000858152602080822090930193909355938401805494850181558252902090910155565b6000610ae26002848418610d0c565b610aee90848416610cc7565b9392505050565b8054600090610b0657506000919050565b81548290610b1690600190610cf5565b81548110610b2657610b26610cdf565b90600052602060002001549050919050565b919050565b600060208083528351808285015260005b81811015610b6a57858101830151858201604001528201610b4e565b81811115610b7c576000604083870101525b50601f01601f1916929092016040019392505050565b80356001600160a01b0381168114610b3857600080fd5b60008060408385031215610bbc57600080fd5b610bc583610b92565b946020939093013593505050565b600080600060608486031215610be857600080fd5b610bf184610b92565b9250610bff60208501610b92565b9150604084013590509250925092565b600060208284031215610c2157600080fd5b610aee82610b92565b600060208284031215610c3c57600080fd5b5035919050565b60008060408385031215610c5657600080fd5b610c5f83610b92565b9150610c6d60208401610b92565b90509250929050565b600181811c90821680610c8a57607f821691505b60208210811415610cab57634e487b7160e01b600052602260045260246000fd5b50919050565b634e487b7160e01b600052601160045260246000fd5b60008219821115610cda57610cda610cb1565b500190565b634e487b7160e01b600052603260045260246000fd5b600082821015610d0757610d07610cb1565b500390565b600082610d2957634e487b7160e01b600052601260045260246000fd5b50049056fea2646970667358221220dc44fe2f7f7d2326e28f840f1de77d6fd3d76a3d2d37f371cc93aed42c521b4564736f6c634300080a0033ddf252ad1be2c89b69c2b068fc378daa952ba7f163c4a11628f55a4df523b3ef60806040526000600f553480156200001657600080fd5b506040516200160638038062001606833981016040819052620000399162000519565b836000815181106200004f576200004f620006a5565b6020026020010151600290805190602001906200006e92919062000318565b5083600181518110620000855762000085620006a5565b602002602001015160039080519060200190620000a492919062000318565b5083600281518110620000bb57620000bb620006a5565b602002602001015160049080519060200190620000da92919062000318565b5083600381518110620000f157620000f1620006a5565b6020026020010151600590805190602001906200011092919062000318565b5083600481518110620001275762000127620006a5565b6020026020010151600690805190602001906200014692919062000318565b50836005815181106200015d576200015d620006a5565b6020026020010151600790805190602001906200017c92919062000318565b5082600081518110620001935762000193620006a5565b602002602001015160088190555082600181518110620001b757620001b7620006a5565b602002602001015160098190555082600281518110620001db57620001db620006a5565b6020026020010151600a8190555082600381518110620001ff57620001ff620006a5565b6020026020010151600b8190555082600481518110620002235762000223620006a5565b6020026020010151600c8190555080600e81905550816000815181106200024e576200024e620006a5565b60200260200101516000806101000a8154816001600160a01b0302191690836001600160a01b0316021790555081600181518110620002915762000291620006a5565b6020908102919091010151600180546001600160a01b0319166001600160a01b039283161790556000805460408051634b88b8ad60e11b815290519190931692639711715a92600480830193919282900301818387803b158015620002f557600080fd5b505af11580156200030a573d6000803e3d6000fd5b5050505050505050620006f8565b8280546200032690620006bb565b90600052602060002090601f0160209004810192826200034a576000855562000395565b82601f106200036557805160ff191683800117855562000395565b8280016001018555821562000395579182015b828111156200039557825182559160200191906001019062000378565b50620003a3929150620003a7565b5090565b5b80821115620003a35760008155600101620003a8565b634e487b7160e01b600052604160045260246000fd5b604051601f8201601f191681016001600160401b0381118282101715620003ff57620003ff620003be565b604052919050565b60006001600160401b03821115620004235762000423620003be565b5060051b60200190565b600082601f8301126200043f57600080fd5b8151602062000458620004528362000407565b620003d4565b82815260059290921b840181019181810190868411156200047857600080fd5b8286015b848110156200049557805183529183019183016200047c565b509695505050505050565b600082601f830112620004b257600080fd5b81516020620004c5620004528362000407565b82815260059290921b84018101918181019086841115620004e557600080fd5b8286015b84811015620004955780516001600160a01b03811681146200050b5760008081fd5b8352918301918301620004e9565b600080600080608085870312156200053057600080fd5b84516001600160401b03808211156200054857600080fd5b818701915087601f8301126200055d57600080fd5b8151602062000570620004528362000407565b82815260059290921b8401810191818101908b8411156200059057600080fd5b8286015b848110156200064557805186811115620005ad57600080fd5b8701603f81018e13620005bf57600080fd5b8481015187811115620005d657620005d6620003be565b620005ea601f8201601f19168701620003d4565b8181528f6040838501011115620006015760008081fd5b60005b82811015620006225783810160400151828201890152870162000604565b82811115620006345760008884840101525b508552505091830191830162000594565b50918a01519198509093505050808211156200066057600080fd5b6200066e888389016200042d565b945060408701519150808211156200068557600080fd5b506200069487828801620004a0565b606096909601519497939650505050565b634e487b7160e01b600052603260045260246000fd5b600181811c90821680620006d057607f821691505b60208210811415620006f257634e487b7160e01b600052602260045260246000fd5b50919050565b610efe80620007086000396000f3fe608060405234801561001057600080fd5b50600436106101375760003560e01c806356975b84116100b8578063badf822b1161007c578063badf822b1461023b578063c24a0f8b1461024e578063c557b98514610257578063d71454451461025f578063e3b4c0d114610268578063ef430aa61461028b57600080fd5b806356975b84146101e357806357ded9c9146101ec5780635af36e3e146101f55780636c9fa59e146102085780637284e4161461023357600080fd5b80634a4ebc3d116100ff5780634a4ebc3d146101985780634a79d50c146101a05780634afdd0e7146101a85780634e71d92d146101b15780634e772479146101b957600080fd5b806303e5979d1461013c5780630b97bc861461015a578063129874aa1461017157806327d0d52d146101865780633f407b841461018f575b600080fd5b610144610293565b6040516101519190610d0c565b60405180910390f35b610163600b5481565b604051908152602001610151565b61018461017f366004610d61565b610321565b005b61016360085481565b610163600e5481565b61014461055b565b610144610568565b61016360095481565b610184610575565b6101cc6101c7366004610d83565b610730565b604080519215158352602083019190915201610151565b610163600d5481565b610163600a5481565b610184610203366004610d61565b610970565b60005461021b906001600160a01b031681565b6040516001600160a01b039091168152602001610151565b610144610afe565b60015461021b906001600160a01b031681565b610163600c5481565b610144610b0b565b610163600f5481565b61027b610276366004610db3565b610b18565b6040519015158152602001610151565b610144610cff565b600580546102a090610dcc565b80601f01602080910402602001604051908101604052809291908181526020018280546102cc90610dcc565b80156103195780601f106102ee57610100808354040283529160200191610319565b820191906000526020600020905b8154815290600101906020018083116102fc57829003601f168201915b505050505081565b6000821161036d5760405162461bcd60e51b815260206004820152601460248201527353656e7420616d6f756e74206973207a65726f2160601b60448201526064015b60405180910390fd5b610379426103e8610e1d565b600b54106103c25760405162461bcd60e51b81526020600482015260166024820152754974206861736e27742073746172746564207965742160501b6044820152606401610364565b6103ce426103e8610e1d565b600c541161040c5760405162461bcd60e51b815260206004820152600b60248201526a54696d652069732075702160a81b6044820152606401610364565b6001546040516323b872dd60e01b8152336004820152306024820152604481018490526001600160a01b03909116906323b872dd906064016020604051808303816000875af1158015610463573d6000803e3d6000fd5b505050506040513d601f19601f820116820180604052508101906104879190610e3c565b5060005460405163a9059cbb60e01b8152336004820152602481018390526001600160a01b039091169063a9059cbb906044016020604051808303816000875af11580156104d9573d6000803e3d6000fd5b505050506040513d601f19601f820116820180604052508101906104fd9190610e3c565b5081600f60008282546105109190610e5e565b909155505060408051308152602081018490529081018290527f64ceaa25376a606505a20223863437c73f24c3d44eca9912c49197b4aea536a4906060015b60405180910390a15050565b600780546102a090610dcc565b600280546102a090610dcc565b60008061058133610730565b91509150811580156105935750600081115b6105ce5760405162461bcd60e51b815260206004820152600c60248201526b436c61696d204572726f722160a01b6044820152606401610364565b60015460405163a9059cbb60e01b8152336004820152602481018390526001600160a01b039091169063a9059cbb906044016020604051808303816000875af115801561061f573d6000803e3d6000fd5b505050506040513d601f19601f820116820180604052508101906106439190610e3c565b5080600d60008282546106569190610e76565b909155505033600090815260106020908152604080832083548251632a1cd6c360e11b81529251600195929492936001600160a01b0390921692635439ad8692600480820193918290030181865afa1580156106b6573d6000803e3d6000fd5b505050506040513d601f19601f820116820180604052508101906106da9190610e8d565b81526020808201929092526040908101600020805460ff19169315159390931790925581513081529081018390527f4dd6c8de072db5939c4dc757de920d64bcbef063a41150ae51deb4f125032ddf910161054f565b600080600060106000856001600160a01b03166001600160a01b0316815260200190815260200160002060008060009054906101000a90046001600160a01b03166001600160a01b0316635439ad866040518163ffffffff1660e01b8152600401602060405180830381865afa1580156107ae573d6000803e3d6000fd5b505050506040513d601f19601f820116820180604052508101906107d29190610e8d565b8152602081019190915260400160009081205460ff16915081610966576000805460408051632a1cd6c360e11b815290516001600160a01b0390921691634ee2cd7e9189918491635439ad869160048083019260209291908290030181865afa158015610843573d6000803e3d6000fd5b505050506040513d601f19601f820116820180604052508101906108679190610e8d565b6040516001600160e01b031960e085901b1681526001600160a01b0390921660048301526024820152604401602060405180830381865afa1580156108b0573d6000803e3d6000fd5b505050506040513d601f19601f820116820180604052508101906108d49190610e8d565b905060008054906101000a90046001600160a01b03166001600160a01b03166318160ddd6040518163ffffffff1660e01b8152600401602060405180830381865afa158015610927573d6000803e3d6000fd5b505050506040513d601f19601f8201168201806040525081019061094b9190610e8d565b600d546109589083610e1d565b6109629190610ea6565b9150505b9094909350915050565b600082116109b75760405162461bcd60e51b815260206004820152601460248201527353656e7420616d6f756e74206973207a65726f2160601b6044820152606401610364565b6000546040516323b872dd60e01b8152336004820152306024820152604481018490526001600160a01b03909116906323b872dd906064016020604051808303816000875af1158015610a0e573d6000803e3d6000fd5b505050506040513d601f19601f82011682018060405250810190610a329190610e3c565b5060015460405163a9059cbb60e01b8152336004820152602481018390526001600160a01b039091169063a9059cbb906044016020604051808303816000875af1158015610a84573d6000803e3d6000fd5b505050506040513d601f19601f82011682018060405250810190610aa89190610e3c565b5080600f6000828254610abb9190610e76565b909155505060408051308152602081018390529081018390527f73f04af9dcc582a923ec15d3eea990fe34adabfff2879e28d44572e01a54abb69060600161054f565b600380546102a090610dcc565b600680546102a090610dcc565b6000808211610b605760405162461bcd60e51b815260206004820152601460248201527373656e7420616d6f756e74206973207a65726f2160601b6044820152606401610364565b600d5415610be357600154600d5460405163a9059cbb60e01b815233600482015260248101919091526001600160a01b039091169063a9059cbb906044016020604051808303816000875af1158015610bbd573d6000803e3d6000fd5b505050506040513d601f19601f82011682018060405250810190610be19190610e3c565b505b6001546040516323b872dd60e01b8152336004820152306024820152604481018490526001600160a01b03909116906323b872dd906064016020604051808303816000875af1158015610c3a573d6000803e3d6000fd5b505050506040513d601f19601f82011682018060405250810190610c5e9190610e3c565b50600d8290556000805460408051634b88b8ad60e11b815290516001600160a01b0390921692639711715a9260048084019382900301818387803b158015610ca557600080fd5b505af1158015610cb9573d6000803e3d6000fd5b505060408051308152602081018690527f4b7f2938295099ab0b6b02f81858c03c95a65051e2e030f8dc59ccbb40f50a0d935001905060405180910390a1506001919050565b600480546102a090610dcc565b600060208083528351808285015260005b81811015610d3957858101830151858201604001528201610d1d565b81811115610d4b576000604083870101525b50601f01601f1916929092016040019392505050565b60008060408385031215610d7457600080fd5b50508035926020909101359150565b600060208284031215610d9557600080fd5b81356001600160a01b0381168114610dac57600080fd5b9392505050565b600060208284031215610dc557600080fd5b5035919050565b600181811c90821680610de057607f821691505b60208210811415610e0157634e487b7160e01b600052602260045260246000fd5b50919050565b634e487b7160e01b600052601160045260246000fd5b6000816000190483118215151615610e3757610e37610e07565b500290565b600060208284031215610e4e57600080fd5b81518015158114610dac57600080fd5b60008219821115610e7157610e71610e07565b500190565b600082821015610e8857610e88610e07565b500390565b600060208284031215610e9f57600080fd5b5051919050565b600082610ec357634e487b7160e01b600052601260045260246000fd5b50049056fea2646970667358221220527fa102c283b55e36a1c90ed5ad5ef365b4770a19efb52604b2ad2b9952dee764736f6c634300080a0033a2646970667358221220762c739ae254617eb4280c3541e918e6eec217d1a7523dfc0d1413ac584fead864736f6c634300080a0033",
  "linkReferences": {},
  "deployedLinkReferences": {}
}