{
  "_format": "hh-sol-artifact-1",
  "contractName": "TokenStaking",
  "sourceName": "contracts/TokenStaking.sol",
  "abi": [
    {
      "inputs": [
        {
          "internalType": "contract IERC20",
          "name": "_token",
          "type": "address"
        },
        {
          "internalType": "contract IERC20",
          "name": "_YOC",
          "type": "address"
        },
        {
          "internalType": "contract IYOCMasterChef",
          "name": "_masterchef",
          "type": "address"
        },
        {
          "internalType": "address",
          "name": "_treasury",
          "type": "address"
        },
        {
          "internalType": "uint256",
          "name": "_pid",
          "type": "uint256"
        }
      ],
      "stateMutability": "nonpayable",
      "type": "constructor"
    },
    {
      "anonymous": false,
      "inputs": [
        {
          "indexed": true,
          "internalType": "address",
          "name": "sender",
          "type": "address"
        },
        {
          "indexed": false,
          "internalType": "uint256",
          "name": "amount",
          "type": "uint256"
        },
        {
          "indexed": false,
          "internalType": "uint256",
          "name": "lastDepositedTime",
          "type": "uint256"
        }
      ],
      "name": "Deposit",
      "type": "event"
    },
    {
      "anonymous": false,
      "inputs": [
        {
          "indexed": true,
          "internalType": "address",
          "name": "user",
          "type": "address"
        },
        {
          "indexed": false,
          "internalType": "uint256",
          "name": "amount",
          "type": "uint256"
        }
      ],
      "name": "EmergencyWithdraw",
      "type": "event"
    },
    {
      "anonymous": false,
      "inputs": [
        {
          "indexed": true,
          "internalType": "address",
          "name": "sender",
          "type": "address"
        },
        {
          "indexed": false,
          "internalType": "uint256",
          "name": "amount",
          "type": "uint256"
        }
      ],
      "name": "Harvest",
      "type": "event"
    },
    {
      "anonymous": false,
      "inputs": [],
      "name": "Init",
      "type": "event"
    },
    {
      "anonymous": false,
      "inputs": [
        {
          "indexed": false,
          "internalType": "address",
          "name": "treasury",
          "type": "address"
        }
      ],
      "name": "NewTreasury",
      "type": "event"
    },
    {
      "anonymous": false,
      "inputs": [
        {
          "indexed": true,
          "internalType": "address",
          "name": "previousOwner",
          "type": "address"
        },
        {
          "indexed": true,
          "internalType": "address",
          "name": "newOwner",
          "type": "address"
        }
      ],
      "name": "OwnershipTransferred",
      "type": "event"
    },
    {
      "anonymous": false,
      "inputs": [],
      "name": "Pause",
      "type": "event"
    },
    {
      "anonymous": false,
      "inputs": [
        {
          "indexed": false,
          "internalType": "address",
          "name": "account",
          "type": "address"
        }
      ],
      "name": "Paused",
      "type": "event"
    },
    {
      "anonymous": false,
      "inputs": [],
      "name": "Unpause",
      "type": "event"
    },
    {
      "anonymous": false,
      "inputs": [
        {
          "indexed": false,
          "internalType": "address",
          "name": "account",
          "type": "address"
        }
      ],
      "name": "Unpaused",
      "type": "event"
    },
    {
      "anonymous": false,
      "inputs": [
        {
          "indexed": true,
          "internalType": "address",
          "name": "sender",
          "type": "address"
        },
        {
          "indexed": false,
          "internalType": "uint256",
          "name": "amount",
          "type": "uint256"
        }
      ],
      "name": "Withdraw",
      "type": "event"
    },
    {
      "inputs": [],
      "name": "ACC_YOC_PRECISION",
      "outputs": [
        {
          "internalType": "uint256",
          "name": "",
          "type": "uint256"
        }
      ],
      "stateMutability": "view",
      "type": "function"
    },
    {
      "inputs": [],
      "name": "DEPOSIT_FEE",
      "outputs": [
        {
          "internalType": "uint256",
          "name": "",
          "type": "uint256"
        }
      ],
      "stateMutability": "view",
      "type": "function"
    },
    {
      "inputs": [],
      "name": "PERCENT_PRECISION",
      "outputs": [
        {
          "internalType": "uint256",
          "name": "",
          "type": "uint256"
        }
      ],
      "stateMutability": "view",
      "type": "function"
    },
    {
      "inputs": [],
      "name": "YOC",
      "outputs": [
        {
          "internalType": "contract IERC20",
          "name": "",
          "type": "address"
        }
      ],
      "stateMutability": "view",
      "type": "function"
    },
    {
      "inputs": [],
      "name": "accYocPerShare",
      "outputs": [
        {
          "internalType": "uint256",
          "name": "",
          "type": "uint256"
        }
      ],
      "stateMutability": "view",
      "type": "function"
    },
    {
      "inputs": [],
      "name": "balanceOf",
      "outputs": [
        {
          "internalType": "uint256",
          "name": "",
          "type": "uint256"
        }
      ],
      "stateMutability": "view",
      "type": "function"
    },
    {
      "inputs": [],
      "name": "calculateTotalPendingYOCRewards",
      "outputs": [
        {
          "internalType": "uint256",
          "name": "",
          "type": "uint256"
        }
      ],
      "stateMutability": "view",
      "type": "function"
    },
    {
      "inputs": [
        {
          "internalType": "uint256",
          "name": "_amount",
          "type": "uint256"
        }
      ],
      "name": "deposit",
      "outputs": [],
      "stateMutability": "nonpayable",
      "type": "function"
    },
    {
      "inputs": [],
      "name": "emergencyWithdraw",
      "outputs": [],
      "stateMutability": "nonpayable",
      "type": "function"
    },
    {
      "inputs": [
        {
          "internalType": "address",
          "name": "_token",
          "type": "address"
        }
      ],
      "name": "inCaseTokensGetStuck",
      "outputs": [],
      "stateMutability": "nonpayable",
      "type": "function"
    },
    {
      "inputs": [
        {
          "internalType": "contract IERC20",
          "name": "dummyToken",
          "type": "address"
        }
      ],
      "name": "init",
      "outputs": [],
      "stateMutability": "nonpayable",
      "type": "function"
    },
    {
      "inputs": [],
      "name": "masterchef",
      "outputs": [
        {
          "internalType": "contract IYOCMasterChef",
          "name": "",
          "type": "address"
        }
      ],
      "stateMutability": "view",
      "type": "function"
    },
    {
      "inputs": [],
      "name": "owner",
      "outputs": [
        {
          "internalType": "address",
          "name": "",
          "type": "address"
        }
      ],
      "stateMutability": "view",
      "type": "function"
    },
    {
      "inputs": [],
      "name": "pause",
      "outputs": [],
      "stateMutability": "nonpayable",
      "type": "function"
    },
    {
      "inputs": [],
      "name": "paused",
      "outputs": [
        {
          "internalType": "bool",
          "name": "",
          "type": "bool"
        }
      ],
      "stateMutability": "view",
      "type": "function"
    },
    {
      "inputs": [
        {
          "internalType": "address",
          "name": "_user",
          "type": "address"
        }
      ],
      "name": "pendingReward",
      "outputs": [
        {
          "internalType": "uint256",
          "name": "",
          "type": "uint256"
        }
      ],
      "stateMutability": "view",
      "type": "function"
    },
    {
      "inputs": [],
      "name": "renounceOwnership",
      "outputs": [],
      "stateMutability": "nonpayable",
      "type": "function"
    },
    {
      "inputs": [
        {
          "internalType": "address",
          "name": "_treasury",
          "type": "address"
        }
      ],
      "name": "setTreasury",
      "outputs": [],
      "stateMutability": "nonpayable",
      "type": "function"
    },
    {
      "inputs": [],
      "name": "token",
      "outputs": [
        {
          "internalType": "contract IERC20",
          "name": "",
          "type": "address"
        }
      ],
      "stateMutability": "view",
      "type": "function"
    },
    {
      "inputs": [],
      "name": "totalShares",
      "outputs": [
        {
          "internalType": "uint256",
          "name": "",
          "type": "uint256"
        }
      ],
      "stateMutability": "view",
      "type": "function"
    },
    {
      "inputs": [
        {
          "internalType": "address",
          "name": "newOwner",
          "type": "address"
        }
      ],
      "name": "transferOwnership",
      "outputs": [],
      "stateMutability": "nonpayable",
      "type": "function"
    },
    {
      "inputs": [],
      "name": "treasury",
      "outputs": [
        {
          "internalType": "address",
          "name": "",
          "type": "address"
        }
      ],
      "stateMutability": "view",
      "type": "function"
    },
    {
      "inputs": [],
      "name": "unpause",
      "outputs": [],
      "stateMutability": "nonpayable",
      "type": "function"
    },
    {
      "inputs": [],
      "name": "updatePool",
      "outputs": [],
      "stateMutability": "nonpayable",
      "type": "function"
    },
    {
      "inputs": [
        {
          "internalType": "address",
          "name": "",
          "type": "address"
        }
      ],
      "name": "userInfo",
      "outputs": [
        {
          "internalType": "uint256",
          "name": "amount",
          "type": "uint256"
        },
        {
          "internalType": "uint256",
          "name": "rewardDebt",
          "type": "uint256"
        },
        {
          "internalType": "uint256",
          "name": "lastDepositTimestamp",
          "type": "uint256"
        }
      ],
      "stateMutability": "view",
      "type": "function"
    },
    {
      "inputs": [
        {
          "internalType": "uint256",
          "name": "_amount",
          "type": "uint256"
        }
      ],
      "name": "withdraw",
      "outputs": [],
      "stateMutability": "nonpayable",
      "type": "function"
    },
    {
      "inputs": [],
      "name": "yocPoolPID",
      "outputs": [
        {
          "internalType": "uint256",
          "name": "",
          "type": "uint256"
        }
      ],
      "stateMutability": "view",
      "type": "function"
    }
  ],
  "bytecode": "0x60e060405260136007553480156200001657600080fd5b5060405162001c3938038062001c398339810160408190526200003991620000f7565b62000044336200008e565b6000805460ff60a01b19169055600180556001600160a01b0394851660805292841660a05290831660c052600580546001600160a01b03191691909316179091556006556200016b565b600080546001600160a01b038381166001600160a01b0319831681178455604051919092169283917f8be0079c531659141344cd1fd0a4f28419497f9722a3daafe3b4186f6b6457e09190a35050565b6001600160a01b0381168114620000f457600080fd5b50565b600080600080600060a086880312156200011057600080fd5b85516200011d81620000de565b60208701519095506200013081620000de565b60408701519094506200014381620000de565b60608701519093506200015681620000de565b80925050608086015190509295509295909350565b60805160a05160c051611a35620002046000396000818161035a015281816104be0152818161055c01528181610b830152818161111b01526111c40152600081816103a801528181610798015281816114f901526115a001526000818161038101528181610688015281816108cc0152818161094e0152818161099901528181610a5501528181610c480152610cb90152611a356000f3fe608060405234801561001057600080fd5b50600436106101a95760003560e01c8063b6b55f25116100f9578063f0f4426011610097578063fb1db27811610071578063fb1db27814610355578063fc0c546a1461037c578063fd01ea9f146103a3578063ffe8e372146103ca57600080fd5b8063f0f442601461031c578063f2fde38b1461032f578063f40f0f521461034257600080fd5b8063db2e21bc116100d3578063db2e21bc146102f0578063de363e65146102f8578063def68a9c14610301578063e3161ddd1461031457600080fd5b8063b6b55f25146102cc578063ca590f02146102df578063cef5f290146102e757600080fd5b80635c975abb11610166578063722713f711610140578063722713f71461029c5780638456cb59146102a45780638da5cb5b146102ac578063b27ac6ca146102bd57600080fd5b80635c975abb1461024c57806361d027b314610269578063715018a61461029457600080fd5b80631959a002146101ae57806319ab453c146101fc5780632e1a7d4d146102115780633043443b146102245780633a98ef391461023b5780633f4ba83a14610244575b600080fd5b6101dc6101bc36600461188d565b600260208190526000918252604090912080546001820154919092015483565b604080519384526020840192909252908201526060015b60405180910390f35b61020f61020a36600461188d565b6103d3565b005b61020f61021f3660046118aa565b6105ed565b61022d60065481565b6040519081526020016101f3565b61022d60035481565b61020f610729565b600054600160a01b900460ff1660405190151581526020016101f3565b60055461027c906001600160a01b031681565b6040516001600160a01b0390911681526020016101f3565b61020f61076c565b61022d610780565b61020f610810565b6000546001600160a01b031661027c565b61022d670de0b6b3a764000081565b61020f6102da3660046118aa565b610853565b61022d610b56565b61022d60045481565b61020f610bf4565b61022d60075481565b61020f61030f36600461188d565b610caf565b61020f610dcc565b61020f61032a36600461188d565b610e0d565b61020f61033d36600461188d565b610eb8565b61022d61035036600461188d565b610f2e565b61027c7f000000000000000000000000000000000000000000000000000000000000000081565b61027c7f000000000000000000000000000000000000000000000000000000000000000081565b61027c7f000000000000000000000000000000000000000000000000000000000000000081565b61022d61271081565b6103db610fd3565b6040516370a0823160e01b81523360048201526000906001600160a01b038316906370a0823190602401602060405180830381865afa158015610422573d6000803e3d6000fd5b505050506040513d601f19601f8201168201806040525081019061044691906118c3565b9050806104925760405162461bcd60e51b8152602060048201526015602482015274042616c616e6365206d75737420657863656564203605c1b60448201526064015b60405180910390fd5b6104a76001600160a01b03831633308461102d565b60405163095ea7b360e01b81526001600160a01b037f0000000000000000000000000000000000000000000000000000000000000000811660048301526024820183905283169063095ea7b3906044016020604051808303816000875af1158015610516573d6000803e3d6000fd5b505050506040513d601f19601f8201168201806040525081019061053a91906118dc565b50600654604051631c57762b60e31b81526004810191909152602481018290527f00000000000000000000000000000000000000000000000000000000000000006001600160a01b03169063e2bbb15890604401600060405180830381600087803b1580156105a857600080fd5b505af11580156105bc573d6000803e3d6000fd5b50506040517f57a86f7d14ccde89e22870afe839e3011216827daa9b24e18629f0a1e9d6cc14925060009150a15050565b6105f561109e565b6105fd6110f8565b610605610dcc565b336000908152600260205260409020805482111561065e5760405162461bcd60e51b81526020600482015260166024820152751dda5d1a191c985dce88125b9cdd59999a58da595b9d60521b6044820152606401610489565b61066733611276565b81156106af57805461067990836112f6565b81556106af6001600160a01b037f0000000000000000000000000000000000000000000000000000000000000000163384611309565b60045481546106d191670de0b6b3a7640000916106cb9161133e565b9061134a565b60018201556003546106e390836112f6565b60035560405182815233907f884edad9ce6fa2440d8a54cc123490eb96d2768479d49ff9c7366125a9424364906020015b60405180910390a25061072660018055565b50565b610731610fd3565b610739611356565b6107416113a6565b6040517f7805862f689e2f13df9f062ff482ad3ad112aca9e0847911ed832e158c525b3390600090a1565b610774610fd3565b61077e60006113fb565b565b6040516370a0823160e01b81523060048201526000907f00000000000000000000000000000000000000000000000000000000000000006001600160a01b0316906370a0823190602401602060405180830381865afa1580156107e7573d6000803e3d6000fd5b505050506040513d601f19601f8201168201806040525081019061080b91906118c3565b905090565b610818610fd3565b61082061144b565b610828611498565b6040517f6985a02210a168e66602d3235cb6db0e70f92b3ba4d376a33c0f3d9434bff62590600090a1565b61085b61109e565b6108636110f8565b60035461088757600554610887906001600160a01b0316610882610780565b6114db565b61088f610dcc565b3360009081526002602052604090208054156108ae576108ae33611276565b8115610af7576040516370a0823160e01b81523060048201526000907f00000000000000000000000000000000000000000000000000000000000000006001600160a01b0316906370a0823190602401602060405180830381865afa15801561091b573d6000803e3d6000fd5b505050506040513d601f19601f8201168201806040525081019061093f91906118c3565b90506109766001600160a01b037f00000000000000000000000000000000000000000000000000000000000000001633308661102d565b6040516370a0823160e01b8152306004820152610a0a9082906001600160a01b037f000000000000000000000000000000000000000000000000000000000000000016906370a0823190602401602060405180830381865afa1580156109e0573d6000803e3d6000fd5b505050506040513d601f19601f82011682018060405250810190610a0491906118c3565b906112f6565b92506000610a296127106106cb6007548761133e90919063ffffffff16565b60055460405163a9059cbb60e01b81526001600160a01b039182166004820152602481018390529192507f0000000000000000000000000000000000000000000000000000000000000000169063a9059cbb906044016020604051808303816000875af1158015610a9e573d6000803e3d6000fd5b505050506040513d601f19601f82011682018060405250810190610ac291906118dc565b50610acd84826112f6565b8354909450610adc908561160d565b8355426002840155600354610af1908561160d565b60035550505b6004548154610b1391670de0b6b3a7640000916106cb9161133e565b6001820155600281015460405133917f90890809c654f11d6e72a28fa60149770a0d11ec6c92319d6ceb2bb0a4ea1a159161071491868252602082015260400190565b6006546040516369e0f35760e11b8152600481019190915230602482015260009081906001600160a01b037f0000000000000000000000000000000000000000000000000000000000000000169063d3c1e6ae90604401602060405180830381865afa158015610bca573d6000803e3d6000fd5b505050506040513d601f19601f82011682018060405250810190610bee91906118c3565b92915050565b610bfc61109e565b336000908152600260205260408120805482825560018201929092556003549091908110610c2b576000610c38565b600354610c3890826112f6565b600355610c6f6001600160a01b037f0000000000000000000000000000000000000000000000000000000000000000163383611309565b60405181815233907f5fafa99d0643513820be26656b45130b01e1c03062e1266bf36f88cbd3bd96959060200160405180910390a2505061077e60018055565b610cb7610fd3565b7f00000000000000000000000000000000000000000000000000000000000000006001600160a01b0316816001600160a01b03161415610d475760405162461bcd60e51b815260206004820152602560248201527f546f6b656e2063616e6e6f742062652073616d65206173206465706f736974206044820152643a37b5b2b760d91b6064820152608401610489565b6040516370a0823160e01b81523060048201526000906001600160a01b038316906370a0823190602401602060405180830381865afa158015610d8e573d6000803e3d6000fd5b505050506040513d601f19601f82011682018060405250810190610db291906118c3565b9050610dc86001600160a01b0383163383611309565b5050565b6000610dd6610780565b6003549091501561072657600354610e0790610dfe906106cb84670de0b6b3a764000061133e565b6004549061160d565b60045550565b610e15610fd3565b6001600160a01b038116610e645760405162461bcd60e51b815260206004820152601660248201527543616e6e6f74206265207a65726f206164647265737360501b6044820152606401610489565b600580546001600160a01b0319166001600160a01b0383169081179091556040519081527fafa147634b29e2c7bd53ce194256b9f41cfb9ba3036f2b822fdd1d965beea0869060200160405180910390a150565b610ec0610fd3565b6001600160a01b038116610f255760405162461bcd60e51b815260206004820152602660248201527f4f776e61626c653a206e6577206f776e657220697320746865207a65726f206160448201526564647265737360d01b6064820152608401610489565b610726816113fb565b6001600160a01b0381166000908152600260208181526040808420815160608101835281548152600182015493810193909352909201549181019190915281610f75610b56565b90506000610f9d610dfe6003546106cb670de0b6b3a76400008661133e90919063ffffffff16565b9050610fca8360200151610a04670de0b6b3a76400006106cb85886000015161133e90919063ffffffff16565b95945050505050565b6000546001600160a01b0316331461077e5760405162461bcd60e51b815260206004820181905260248201527f4f776e61626c653a2063616c6c6572206973206e6f7420746865206f776e65726044820152606401610489565b6040516001600160a01b03808516602483015283166044820152606481018290526110989085906323b872dd60e01b906084015b60408051601f198184030181529190526020810180516001600160e01b03166001600160e01b031990931692909217909152611619565b50505050565b600260015414156110f15760405162461bcd60e51b815260206004820152601f60248201527f5265656e7472616e637947756172643a207265656e7472616e742063616c6c006044820152606401610489565b6002600155565b6006546040516369e0f35760e11b815260048101919091523060248201526000907f00000000000000000000000000000000000000000000000000000000000000006001600160a01b03169063d3c1e6ae90604401602060405180830381865afa15801561116a573d6000803e3d6000fd5b505050506040513d601f19601f8201168201806040525081019061118e91906118c3565b905080156107265760006111a0610780565b600654604051630441a3e760e41b81526004810191909152600060248201529091507f00000000000000000000000000000000000000000000000000000000000000006001600160a01b03169063441a3e7090604401600060405180830381600087803b15801561121057600080fd5b505af1158015611224573d6000803e3d6000fd5b505050506000611232610780565b9050337fc9695243a805adb74c91f28311176c65b417e842d5699893cef56d18bfa48cba6112608484611914565b60405190815260200160405180910390a2505050565b6001600160a01b038116600090815260026020818152604080842081516060810183528154808252600183015494820194909452930154908301526004549192916112cf91670de0b6b3a7640000916106cb919061133e565b905060006112ea8360200151836112f690919063ffffffff16565b905061109884826114db565b60006113028284611914565b9392505050565b6040516001600160a01b03831660248201526044810182905261133990849063a9059cbb60e01b90606401611061565b505050565b6000611302828461192b565b6000611302828461194a565b600054600160a01b900460ff1661077e5760405162461bcd60e51b815260206004820152601460248201527314185d5cd8589b194e881b9bdd081c185d5cd95960621b6044820152606401610489565b6113ae611356565b6000805460ff60a01b191690557f5db9ee0a495bf2e6ff9c91a7834c1ba4fdd244a5e8aa4e537bd38aeae4b073aa335b6040516001600160a01b03909116815260200160405180910390a1565b600080546001600160a01b038381166001600160a01b0319831681178455604051919092169283917f8be0079c531659141344cd1fd0a4f28419497f9722a3daafe3b4186f6b6457e09190a35050565b600054600160a01b900460ff161561077e5760405162461bcd60e51b815260206004820152601060248201526f14185d5cd8589b194e881c185d5cd95960821b6044820152606401610489565b6114a061144b565b6000805460ff60a01b1916600160a01b1790557f62e78cea01bee320cd4e420270b5ea74000d11b0c9f74754ebdbfc544b05a2586113de3390565b8015610dc8576040516370a0823160e01b81523060048201526000907f00000000000000000000000000000000000000000000000000000000000000006001600160a01b0316906370a0823190602401602060405180830381865afa158015611548573d6000803e3d6000fd5b505050506040513d601f19601f8201168201806040525081019061156c91906118c3565b90508181101561157a578091505b60405163a9059cbb60e01b81526001600160a01b038481166004830152602482018490527f0000000000000000000000000000000000000000000000000000000000000000169063a9059cbb906044016020604051808303816000875af11580156115e9573d6000803e3d6000fd5b505050506040513d601f19601f8201168201806040525081019061109891906118dc565b6000611302828461196c565b600061166e826040518060400160405280602081526020017f5361666545524332303a206c6f772d6c6576656c2063616c6c206661696c6564815250856001600160a01b03166116eb9092919063ffffffff16565b805190915015611339578080602001905181019061168c91906118dc565b6113395760405162461bcd60e51b815260206004820152602a60248201527f5361666545524332303a204552433230206f7065726174696f6e20646964206e6044820152691bdd081cdd58d8d9595960b21b6064820152608401610489565b60606116fa8484600085611702565b949350505050565b6060824710156117635760405162461bcd60e51b815260206004820152602660248201527f416464726573733a20696e73756666696369656e742062616c616e636520666f6044820152651c8818d85b1b60d21b6064820152608401610489565b600080866001600160a01b0316858760405161177f91906119b0565b60006040518083038185875af1925050503d80600081146117bc576040519150601f19603f3d011682016040523d82523d6000602084013e6117c1565b606091505b50915091506117d2878383876117dd565b979650505050505050565b60608315611849578251611842576001600160a01b0385163b6118425760405162461bcd60e51b815260206004820152601d60248201527f416464726573733a2063616c6c20746f206e6f6e2d636f6e74726163740000006044820152606401610489565b50816116fa565b6116fa838381511561185e5781518083602001fd5b8060405162461bcd60e51b815260040161048991906119cc565b6001600160a01b038116811461072657600080fd5b60006020828403121561189f57600080fd5b813561130281611878565b6000602082840312156118bc57600080fd5b5035919050565b6000602082840312156118d557600080fd5b5051919050565b6000602082840312156118ee57600080fd5b8151801515811461130257600080fd5b634e487b7160e01b600052601160045260246000fd5b600082821015611926576119266118fe565b500390565b6000816000190483118215151615611945576119456118fe565b500290565b60008261196757634e487b7160e01b600052601260045260246000fd5b500490565b6000821982111561197f5761197f6118fe565b500190565b60005b8381101561199f578181015183820152602001611987565b838111156110985750506000910152565b600082516119c2818460208701611984565b9190910192915050565b60208152600082518060208401526119eb816040850160208701611984565b601f01601f1916919091016040019291505056fea2646970667358221220736c26358c36311590998d9d62e2046237a0c45718a362b13f777610bf3d86c164736f6c634300080a0033",
  "linkReferences": {},
  "deployedLinkReferences": {}
}