{
  "_format": "hh-sol-artifact-1",
  "contractName": "YOC",
  "sourceName": "contracts/YOC.sol",
  "abi": [
    {
      "inputs": [
        {
          "internalType": "string",
          "name": "_name",
          "type": "string"
        },
        {
          "internalType": "string",
          "name": "_symbol",
          "type": "string"
        },
        {
          "internalType": "uint8",
          "name": "_decimals",
          "type": "uint8"
        }
      ],
      "stateMutability": "nonpayable",
      "type": "constructor"
    },
    {
      "anonymous": false,
      "inputs": [
        {
          "indexed": true,
          "internalType": "address",
          "name": "tokenOwner",
          "type": "address"
        },
        {
          "indexed": true,
          "internalType": "address",
          "name": "spender",
          "type": "address"
        },
        {
          "indexed": false,
          "internalType": "uint256",
          "name": "tokens",
          "type": "uint256"
        }
      ],
      "name": "Approval",
      "type": "event"
    },
    {
      "anonymous": false,
      "inputs": [
        {
          "indexed": true,
          "internalType": "address",
          "name": "previousOwner",
          "type": "address"
        },
        {
          "indexed": true,
          "internalType": "address",
          "name": "newOwner",
          "type": "address"
        }
      ],
      "name": "OwnershipTransferred",
      "type": "event"
    },
    {
      "anonymous": false,
      "inputs": [
        {
          "indexed": true,
          "internalType": "address",
          "name": "from",
          "type": "address"
        },
        {
          "indexed": true,
          "internalType": "address",
          "name": "to",
          "type": "address"
        },
        {
          "indexed": false,
          "internalType": "uint256",
          "name": "tokens",
          "type": "uint256"
        }
      ],
      "name": "Transfer",
      "type": "event"
    },
    {
      "inputs": [],
      "name": "MINT_AMOUNT_PER",
      "outputs": [
        {
          "internalType": "uint256",
          "name": "",
          "type": "uint256"
        }
      ],
      "stateMutability": "view",
      "type": "function"
    },
    {
      "inputs": [],
      "name": "MINT_INTERVAL",
      "outputs": [
        {
          "internalType": "uint256",
          "name": "",
          "type": "uint256"
        }
      ],
      "stateMutability": "view",
      "type": "function"
    },
    {
      "inputs": [],
      "name": "_totalSupply",
      "outputs": [
        {
          "internalType": "uint256",
          "name": "",
          "type": "uint256"
        }
      ],
      "stateMutability": "view",
      "type": "function"
    },
    {
      "inputs": [
        {
          "internalType": "address",
          "name": "owner",
          "type": "address"
        },
        {
          "internalType": "address",
          "name": "spender",
          "type": "address"
        }
      ],
      "name": "allowance",
      "outputs": [
        {
          "internalType": "uint256",
          "name": "",
          "type": "uint256"
        }
      ],
      "stateMutability": "view",
      "type": "function"
    },
    {
      "inputs": [
        {
          "internalType": "address",
          "name": "spender",
          "type": "address"
        },
        {
          "internalType": "uint256",
          "name": "amount",
          "type": "uint256"
        }
      ],
      "name": "approve",
      "outputs": [
        {
          "internalType": "bool",
          "name": "",
          "type": "bool"
        }
      ],
      "stateMutability": "nonpayable",
      "type": "function"
    },
    {
      "inputs": [
        {
          "internalType": "address",
          "name": "account",
          "type": "address"
        }
      ],
      "name": "balanceOf",
      "outputs": [
        {
          "internalType": "uint256",
          "name": "",
          "type": "uint256"
        }
      ],
      "stateMutability": "view",
      "type": "function"
    },
    {
      "inputs": [],
      "name": "decimals",
      "outputs": [
        {
          "internalType": "uint8",
          "name": "",
          "type": "uint8"
        }
      ],
      "stateMutability": "view",
      "type": "function"
    },
    {
      "inputs": [
        {
          "internalType": "address",
          "name": "",
          "type": "address"
        }
      ],
      "name": "isAddressForTransferToThere",
      "outputs": [
        {
          "internalType": "bool",
          "name": "",
          "type": "bool"
        }
      ],
      "stateMutability": "view",
      "type": "function"
    },
    {
      "inputs": [],
      "name": "lastMintTime",
      "outputs": [
        {
          "internalType": "uint256",
          "name": "",
          "type": "uint256"
        }
      ],
      "stateMutability": "view",
      "type": "function"
    },
    {
      "inputs": [],
      "name": "mint",
      "outputs": [
        {
          "internalType": "bool",
          "name": "success",
          "type": "bool"
        }
      ],
      "stateMutability": "nonpayable",
      "type": "function"
    },
    {
      "inputs": [
        {
          "internalType": "address",
          "name": "recipient",
          "type": "address"
        },
        {
          "internalType": "uint256",
          "name": "amount",
          "type": "uint256"
        }
      ],
      "name": "mintAndTransferToThere",
      "outputs": [
        {
          "internalType": "bool",
          "name": "success",
          "type": "bool"
        }
      ],
      "stateMutability": "nonpayable",
      "type": "function"
    },
    {
      "inputs": [],
      "name": "name",
      "outputs": [
        {
          "internalType": "string",
          "name": "",
          "type": "string"
        }
      ],
      "stateMutability": "view",
      "type": "function"
    },
    {
      "inputs": [],
      "name": "owner",
      "outputs": [
        {
          "internalType": "address",
          "name": "",
          "type": "address"
        }
      ],
      "stateMutability": "view",
      "type": "function"
    },
    {
      "inputs": [],
      "name": "renounceOwnership",
      "outputs": [],
      "stateMutability": "nonpayable",
      "type": "function"
    },
    {
      "inputs": [
        {
          "internalType": "uint256",
          "name": "a",
          "type": "uint256"
        },
        {
          "internalType": "uint256",
          "name": "b",
          "type": "uint256"
        }
      ],
      "name": "safeAdd",
      "outputs": [
        {
          "internalType": "uint256",
          "name": "c",
          "type": "uint256"
        }
      ],
      "stateMutability": "pure",
      "type": "function"
    },
    {
      "inputs": [
        {
          "internalType": "uint256",
          "name": "a",
          "type": "uint256"
        },
        {
          "internalType": "uint256",
          "name": "b",
          "type": "uint256"
        }
      ],
      "name": "safeDiv",
      "outputs": [
        {
          "internalType": "uint256",
          "name": "c",
          "type": "uint256"
        }
      ],
      "stateMutability": "pure",
      "type": "function"
    },
    {
      "inputs": [
        {
          "internalType": "uint256",
          "name": "a",
          "type": "uint256"
        },
        {
          "internalType": "uint256",
          "name": "b",
          "type": "uint256"
        }
      ],
      "name": "safeMul",
      "outputs": [
        {
          "internalType": "uint256",
          "name": "c",
          "type": "uint256"
        }
      ],
      "stateMutability": "pure",
      "type": "function"
    },
    {
      "inputs": [
        {
          "internalType": "uint256",
          "name": "a",
          "type": "uint256"
        },
        {
          "internalType": "uint256",
          "name": "b",
          "type": "uint256"
        }
      ],
      "name": "safeSub",
      "outputs": [
        {
          "internalType": "uint256",
          "name": "c",
          "type": "uint256"
        }
      ],
      "stateMutability": "pure",
      "type": "function"
    },
    {
      "inputs": [
        {
          "internalType": "address",
          "name": "_address",
          "type": "address"
        },
        {
          "internalType": "bool",
          "name": "value",
          "type": "bool"
        }
      ],
      "name": "setAddressForTransferToThere",
      "outputs": [
        {
          "internalType": "bool",
          "name": "success",
          "type": "bool"
        }
      ],
      "stateMutability": "nonpayable",
      "type": "function"
    },
    {
      "inputs": [],
      "name": "symbol",
      "outputs": [
        {
          "internalType": "string",
          "name": "",
          "type": "string"
        }
      ],
      "stateMutability": "view",
      "type": "function"
    },
    {
      "inputs": [],
      "name": "totalSupply",
      "outputs": [
        {
          "internalType": "uint256",
          "name": "",
          "type": "uint256"
        }
      ],
      "stateMutability": "view",
      "type": "function"
    },
    {
      "inputs": [
        {
          "internalType": "address",
          "name": "recipient",
          "type": "address"
        },
        {
          "internalType": "uint256",
          "name": "amount",
          "type": "uint256"
        }
      ],
      "name": "transfer",
      "outputs": [
        {
          "internalType": "bool",
          "name": "success",
          "type": "bool"
        }
      ],
      "stateMutability": "nonpayable",
      "type": "function"
    },
    {
      "inputs": [
        {
          "internalType": "address",
          "name": "sender",
          "type": "address"
        },
        {
          "internalType": "address",
          "name": "recipient",
          "type": "address"
        },
        {
          "internalType": "uint256",
          "name": "amount",
          "type": "uint256"
        }
      ],
      "name": "transferFrom",
      "outputs": [
        {
          "internalType": "bool",
          "name": "success",
          "type": "bool"
        }
      ],
      "stateMutability": "nonpayable",
      "type": "function"
    },
    {
      "inputs": [
        {
          "internalType": "address",
          "name": "newOwner",
          "type": "address"
        }
      ],
      "name": "transferOwnership",
      "outputs": [],
      "stateMutability": "nonpayable",
      "type": "function"
    }
  ],
  "bytecode": "0x60806040523480156200001157600080fd5b50604051620011643803806200116483398101604081905262000034916200024e565b6200003f336200008b565b825162000054906001906020860190620000db565b5081516200006a906002906020850190620000db565b506003805460ff191660ff9290921691909117905550504260055562000310565b600080546001600160a01b038381166001600160a01b0319831681178455604051919092169283917f8be0079c531659141344cd1fd0a4f28419497f9722a3daafe3b4186f6b6457e09190a35050565b828054620000e990620002d3565b90600052602060002090601f0160209004810192826200010d576000855562000158565b82601f106200012857805160ff191683800117855562000158565b8280016001018555821562000158579182015b82811115620001585782518255916020019190600101906200013b565b50620001669291506200016a565b5090565b5b808211156200016657600081556001016200016b565b634e487b7160e01b600052604160045260246000fd5b600082601f830112620001a957600080fd5b81516001600160401b0380821115620001c657620001c662000181565b604051601f8301601f19908116603f01168101908282118183101715620001f157620001f162000181565b816040528381526020925086838588010111156200020e57600080fd5b600091505b8382101562000232578582018301518183018401529082019062000213565b83821115620002445760008385830101525b9695505050505050565b6000806000606084860312156200026457600080fd5b83516001600160401b03808211156200027c57600080fd5b6200028a8783880162000197565b94506020860151915080821115620002a157600080fd5b50620002b08682870162000197565b925050604084015160ff81168114620002c857600080fd5b809150509250925092565b600181811c90821680620002e857607f821691505b602082108114156200030a57634e487b7160e01b600052602260045260246000fd5b50919050565b610e4480620003206000396000f3fe608060405234801561001057600080fd5b50600436106101585760003560e01c806395d89b41116100c3578063d05c78da1161007c578063d05c78da146102b9578063dd62ed3e146102cc578063e6cb901314610305578063ecc6d96f14610318578063edc1053d1461033b578063f2fde38b1461034557600080fd5b806395d89b411461025c5780639d46352014610264578063a293d1e81461026d578063a6bb801914610280578063a9059cbb14610293578063b5931f7c146102a657600080fd5b8063313ce56711610115578063313ce567146101de5780633eaaf86b146101fd57806370a0823114610206578063715018a61461022f57806384e7e3d3146102395780638da5cb5b1461024157600080fd5b806306fdde031461015d578063095ea7b31461017b5780631249c58b1461019e57806318160ddd146101a65780631a1244c4146101b857806323b872dd146101cb575b600080fd5b610165610358565b6040516101729190610ab7565b60405180910390f35b61018e610189366004610b28565b6103e6565b6040519015158152602001610172565b61018e6104d1565b6004545b604051908152602001610172565b61018e6101c6366004610b52565b61055f565b61018e6101d9366004610b8e565b610598565b6003546101eb9060ff1681565b60405160ff9091168152602001610172565b6101aa60045481565b6101aa610214366004610bca565b6001600160a01b031660009081526007602052604090205490565b610237610684565b005b6101aa600181565b6000546040516001600160a01b039091168152602001610172565b610165610698565b6101aa60055481565b6101aa61027b366004610be5565b6106a5565b61018e61028e366004610b28565b6106c5565b61018e6102a1366004610b28565b61079d565b6101aa6102b4366004610be5565b610886565b6101aa6102c7366004610be5565b61089e565b6101aa6102da366004610c07565b6001600160a01b03918216600090815260086020908152604080832093909416825291909152205490565b6101aa610313366004610be5565b6108ca565b61018e610326366004610bca565b60066020526000908152604090205460ff1681565b6101aa620f424081565b610237610353366004610bca565b6108e5565b6001805461036590610c3a565b80601f016020809104026020016040519081016040528092919081815260200182805461039190610c3a565b80156103de5780601f106103b3576101008083540402835291602001916103de565b820191906000526020600020905b8154815290600101906020018083116103c157829003601f168201915b505050505081565b60006001600160a01b03831661044e5760405162461bcd60e51b815260206004820152602260248201527f45524332303a20617070726f766520746f20746865207a65726f206164647265604482015261737360f01b60648201526084015b60405180910390fd5b3360009081526008602090815260408083206001600160a01b038716845290915281208054849290610481908490610c8b565b90915550506040518281526001600160a01b0384169033907f8c5be1e5ebec7d5bd14f71427d1e84f3dd0314c0f7b2291e5b200ac8c7c3b925906020015b60405180910390a35060015b92915050565b600080600554426104e29190610ca3565b90506000620f42406104f5600184610cba565b6104ff9190610cdc565b9050801561055a5760035461052d90309061051e9060ff16600a610ddf565b6105289084610cdc565b61095e565b60016105398184610cba565b6105439190610cdc565b600560008282546105549190610c8b565b90915550505b505090565b6000610569610a0d565b506001600160a01b0382166000908152600660205260409020805482151560ff19909116179055600192915050565b6001600160a01b03831660009081526008602090815260408083203384529091528120546105c690836106a5565b6001600160a01b03851660008181526008602090815260408083203384528252808320949094559181526007909152205461060190836106a5565b6001600160a01b03808616600090815260076020526040808220939093559085168152205461063090836108ca565b6001600160a01b038085166000818152600760205260409081902093909355915190861690600080516020610def833981519152906106729086815260200190565b60405180910390a35060019392505050565b61068c610a0d565b6106966000610a67565b565b6002805461036590610c3a565b6000828211156106b457600080fd5b6106be8284610ca3565b9392505050565b3360009081526006602052604081205460ff1615156001146107405760405162461bcd60e51b815260206004820152602e60248201527f546869732066756374696f6e2069732061626c6520746f2063616c6c2062792060448201526d3a34329026b0b9ba32b921b432b360911b6064820152608401610445565b6107486104d1565b503060008181526008602090815260408083203384529091529020839055610771908484610598565b506040518281526001600160a01b038416903090600080516020610def833981519152906020016104bf565b60006001600160a01b0383166108015760405162461bcd60e51b815260206004820152602360248201527f45524332303a207472616e7366657220746f20746865207a65726f206164647260448201526265737360e81b6064820152608401610445565b3360009081526007602052604090205461081b90836106a5565b33600090815260076020526040808220929092556001600160a01b0385168152205461084790836108ca565b6001600160a01b038416600081815260076020526040908190209290925590513390600080516020610def833981519152906104bf9086815260200190565b600080821161089457600080fd5b6106be8284610cba565b60006108aa8284610cdc565b90508215806108c15750816108bf8483610cba565b145b6104cb57600080fd5b60006108d68284610c8b565b9050828110156104cb57600080fd5b6108ed610a0d565b6001600160a01b0381166109525760405162461bcd60e51b815260206004820152602660248201527f4f776e61626c653a206e6577206f776e657220697320746865207a65726f206160448201526564647265737360d01b6064820152608401610445565b61095b81610a67565b50565b6001600160a01b0382166109b45760405162461bcd60e51b815260206004820152601f60248201527f45524332303a206d696e7420746f20746865207a65726f2061646472657373006044820152606401610445565b80600460008282546109c69190610c8b565b90915550506001600160a01b038216600081815260076020908152604080832080548601905551848152600080516020610def833981519152910160405180910390a35050565b6000546001600160a01b031633146106965760405162461bcd60e51b815260206004820181905260248201527f4f776e61626c653a2063616c6c6572206973206e6f7420746865206f776e65726044820152606401610445565b600080546001600160a01b038381166001600160a01b0319831681178455604051919092169283917f8be0079c531659141344cd1fd0a4f28419497f9722a3daafe3b4186f6b6457e09190a35050565b600060208083528351808285015260005b81811015610ae457858101830151858201604001528201610ac8565b81811115610af6576000604083870101525b50601f01601f1916929092016040019392505050565b80356001600160a01b0381168114610b2357600080fd5b919050565b60008060408385031215610b3b57600080fd5b610b4483610b0c565b946020939093013593505050565b60008060408385031215610b6557600080fd5b610b6e83610b0c565b915060208301358015158114610b8357600080fd5b809150509250929050565b600080600060608486031215610ba357600080fd5b610bac84610b0c565b9250610bba60208501610b0c565b9150604084013590509250925092565b600060208284031215610bdc57600080fd5b6106be82610b0c565b60008060408385031215610bf857600080fd5b50508035926020909101359150565b60008060408385031215610c1a57600080fd5b610c2383610b0c565b9150610c3160208401610b0c565b90509250929050565b600181811c90821680610c4e57607f821691505b60208210811415610c6f57634e487b7160e01b600052602260045260246000fd5b50919050565b634e487b7160e01b600052601160045260246000fd5b60008219821115610c9e57610c9e610c75565b500190565b600082821015610cb557610cb5610c75565b500390565b600082610cd757634e487b7160e01b600052601260045260246000fd5b500490565b6000816000190483118215151615610cf657610cf6610c75565b500290565b600181815b80851115610d36578160001904821115610d1c57610d1c610c75565b80851615610d2957918102915b93841c9390800290610d00565b509250929050565b600082610d4d575060016104cb565b81610d5a575060006104cb565b8160018114610d705760028114610d7a57610d96565b60019150506104cb565b60ff841115610d8b57610d8b610c75565b50506001821b6104cb565b5060208310610133831016604e8410600b8410161715610db9575081810a6104cb565b610dc38383610cfb565b8060001904821115610dd757610dd7610c75565b029392505050565b60006106be60ff841683610d3e56feddf252ad1be2c89b69c2b068fc378daa952ba7f163c4a11628f55a4df523b3efa26469706673582212206e4e7aa712c9242d03fa955c432b48f3747c680ed942cb2e98fe6c00c63cb73964736f6c634300080a0033",
  "linkReferences": {},
  "deployedLinkReferences": {}
}