{
  "_format": "hh-sol-artifact-1",
  "contractName": "YOC",
  "sourceName": "contracts/YOC.sol",
  "abi": [
    {
      "inputs": [
        {
          "internalType": "string",
          "name": "_name",
          "type": "string"
        },
        {
          "internalType": "string",
          "name": "_symbol",
          "type": "string"
        },
        {
          "internalType": "uint8",
          "name": "_decimals",
          "type": "uint8"
        }
      ],
      "stateMutability": "nonpayable",
      "type": "constructor"
    },
    {
      "anonymous": false,
      "inputs": [
        {
          "indexed": true,
          "internalType": "address",
          "name": "tokenOwner",
          "type": "address"
        },
        {
          "indexed": true,
          "internalType": "address",
          "name": "spender",
          "type": "address"
        },
        {
          "indexed": false,
          "internalType": "uint256",
          "name": "tokens",
          "type": "uint256"
        }
      ],
      "name": "Approval",
      "type": "event"
    },
    {
      "anonymous": false,
      "inputs": [
        {
          "indexed": true,
          "internalType": "address",
          "name": "previousOwner",
          "type": "address"
        },
        {
          "indexed": true,
          "internalType": "address",
          "name": "newOwner",
          "type": "address"
        }
      ],
      "name": "OwnershipTransferred",
      "type": "event"
    },
    {
      "anonymous": false,
      "inputs": [
        {
          "indexed": true,
          "internalType": "address",
          "name": "from",
          "type": "address"
        },
        {
          "indexed": true,
          "internalType": "address",
          "name": "to",
          "type": "address"
        },
        {
          "indexed": false,
          "internalType": "uint256",
          "name": "tokens",
          "type": "uint256"
        }
      ],
      "name": "Transfer",
      "type": "event"
    },
    {
      "inputs": [],
      "name": "MINT_AMOUNT_PER",
      "outputs": [
        {
          "internalType": "uint256",
          "name": "",
          "type": "uint256"
        }
      ],
      "stateMutability": "view",
      "type": "function"
    },
    {
      "inputs": [],
      "name": "MINT_INTERVAL",
      "outputs": [
        {
          "internalType": "uint256",
          "name": "",
          "type": "uint256"
        }
      ],
      "stateMutability": "view",
      "type": "function"
    },
    {
      "inputs": [],
      "name": "_totalSupply",
      "outputs": [
        {
          "internalType": "uint256",
          "name": "",
          "type": "uint256"
        }
      ],
      "stateMutability": "view",
      "type": "function"
    },
    {
      "inputs": [
        {
          "internalType": "address",
          "name": "user",
          "type": "address"
        }
      ],
      "name": "addSpecialUser",
      "outputs": [],
      "stateMutability": "nonpayable",
      "type": "function"
    },
    {
      "inputs": [
        {
          "internalType": "address",
          "name": "owner",
          "type": "address"
        },
        {
          "internalType": "address",
          "name": "spender",
          "type": "address"
        }
      ],
      "name": "allowance",
      "outputs": [
        {
          "internalType": "uint256",
          "name": "",
          "type": "uint256"
        }
      ],
      "stateMutability": "view",
      "type": "function"
    },
    {
      "inputs": [
        {
          "internalType": "address",
          "name": "spender",
          "type": "address"
        },
        {
          "internalType": "uint256",
          "name": "amount",
          "type": "uint256"
        }
      ],
      "name": "approve",
      "outputs": [
        {
          "internalType": "bool",
          "name": "",
          "type": "bool"
        }
      ],
      "stateMutability": "nonpayable",
      "type": "function"
    },
    {
      "inputs": [
        {
          "internalType": "address",
          "name": "account",
          "type": "address"
        }
      ],
      "name": "balanceOf",
      "outputs": [
        {
          "internalType": "uint256",
          "name": "",
          "type": "uint256"
        }
      ],
      "stateMutability": "view",
      "type": "function"
    },
    {
      "inputs": [],
      "name": "decimals",
      "outputs": [
        {
          "internalType": "uint8",
          "name": "",
          "type": "uint8"
        }
      ],
      "stateMutability": "view",
      "type": "function"
    },
    {
      "inputs": [
        {
          "internalType": "address",
          "name": "user",
          "type": "address"
        }
      ],
      "name": "isSpecialUser",
      "outputs": [
        {
          "internalType": "bool",
          "name": "",
          "type": "bool"
        }
      ],
      "stateMutability": "view",
      "type": "function"
    },
    {
      "inputs": [],
      "name": "lastMintTime",
      "outputs": [
        {
          "internalType": "uint256",
          "name": "",
          "type": "uint256"
        }
      ],
      "stateMutability": "view",
      "type": "function"
    },
    {
      "inputs": [
        {
          "internalType": "address",
          "name": "recipient",
          "type": "address"
        },
        {
          "internalType": "uint256",
          "name": "amount",
          "type": "uint256"
        }
      ],
      "name": "mint",
      "outputs": [
        {
          "internalType": "bool",
          "name": "success",
          "type": "bool"
        }
      ],
      "stateMutability": "nonpayable",
      "type": "function"
    },
    {
      "inputs": [],
      "name": "name",
      "outputs": [
        {
          "internalType": "string",
          "name": "",
          "type": "string"
        }
      ],
      "stateMutability": "view",
      "type": "function"
    },
    {
      "inputs": [],
      "name": "owner",
      "outputs": [
        {
          "internalType": "address",
          "name": "",
          "type": "address"
        }
      ],
      "stateMutability": "view",
      "type": "function"
    },
    {
      "inputs": [
        {
          "internalType": "address",
          "name": "user",
          "type": "address"
        }
      ],
      "name": "removeSpecialUser",
      "outputs": [],
      "stateMutability": "nonpayable",
      "type": "function"
    },
    {
      "inputs": [],
      "name": "renounceOwnership",
      "outputs": [],
      "stateMutability": "nonpayable",
      "type": "function"
    },
    {
      "inputs": [
        {
          "internalType": "uint256",
          "name": "a",
          "type": "uint256"
        },
        {
          "internalType": "uint256",
          "name": "b",
          "type": "uint256"
        }
      ],
      "name": "safeAdd",
      "outputs": [
        {
          "internalType": "uint256",
          "name": "c",
          "type": "uint256"
        }
      ],
      "stateMutability": "pure",
      "type": "function"
    },
    {
      "inputs": [
        {
          "internalType": "uint256",
          "name": "a",
          "type": "uint256"
        },
        {
          "internalType": "uint256",
          "name": "b",
          "type": "uint256"
        }
      ],
      "name": "safeDiv",
      "outputs": [
        {
          "internalType": "uint256",
          "name": "c",
          "type": "uint256"
        }
      ],
      "stateMutability": "pure",
      "type": "function"
    },
    {
      "inputs": [
        {
          "internalType": "uint256",
          "name": "a",
          "type": "uint256"
        },
        {
          "internalType": "uint256",
          "name": "b",
          "type": "uint256"
        }
      ],
      "name": "safeMul",
      "outputs": [
        {
          "internalType": "uint256",
          "name": "c",
          "type": "uint256"
        }
      ],
      "stateMutability": "pure",
      "type": "function"
    },
    {
      "inputs": [
        {
          "internalType": "uint256",
          "name": "a",
          "type": "uint256"
        },
        {
          "internalType": "uint256",
          "name": "b",
          "type": "uint256"
        }
      ],
      "name": "safeSub",
      "outputs": [
        {
          "internalType": "uint256",
          "name": "c",
          "type": "uint256"
        }
      ],
      "stateMutability": "pure",
      "type": "function"
    },
    {
      "inputs": [
        {
          "internalType": "address",
          "name": "",
          "type": "address"
        }
      ],
      "name": "specialUsers",
      "outputs": [
        {
          "internalType": "bool",
          "name": "",
          "type": "bool"
        }
      ],
      "stateMutability": "view",
      "type": "function"
    },
    {
      "inputs": [],
      "name": "symbol",
      "outputs": [
        {
          "internalType": "string",
          "name": "",
          "type": "string"
        }
      ],
      "stateMutability": "view",
      "type": "function"
    },
    {
      "inputs": [],
      "name": "totalSupply",
      "outputs": [
        {
          "internalType": "uint256",
          "name": "",
          "type": "uint256"
        }
      ],
      "stateMutability": "view",
      "type": "function"
    },
    {
      "inputs": [
        {
          "internalType": "address",
          "name": "recipient",
          "type": "address"
        },
        {
          "internalType": "uint256",
          "name": "amount",
          "type": "uint256"
        }
      ],
      "name": "transfer",
      "outputs": [
        {
          "internalType": "bool",
          "name": "success",
          "type": "bool"
        }
      ],
      "stateMutability": "nonpayable",
      "type": "function"
    },
    {
      "inputs": [
        {
          "internalType": "address",
          "name": "sender",
          "type": "address"
        },
        {
          "internalType": "address",
          "name": "recipient",
          "type": "address"
        },
        {
          "internalType": "uint256",
          "name": "amount",
          "type": "uint256"
        }
      ],
      "name": "transferFrom",
      "outputs": [
        {
          "internalType": "bool",
          "name": "success",
          "type": "bool"
        }
      ],
      "stateMutability": "nonpayable",
      "type": "function"
    },
    {
      "inputs": [
        {
          "internalType": "address",
          "name": "newOwner",
          "type": "address"
        }
      ],
      "name": "transferOwnership",
      "outputs": [],
      "stateMutability": "nonpayable",
      "type": "function"
    }
  ],
  "bytecode": "0x60806040523480156200001157600080fd5b506040516200111a3803806200111a833981016040819052620000349162000266565b6200003f33620000a3565b825162000054906001906020860190620000f3565b5081516200006a906002906020850190620000f3565b506003805460ff90921660ff19928316179055426005553360009081526006602052604090208054909116600117905550620003289050565b600080546001600160a01b038381166001600160a01b0319831681178455604051919092169283917f8be0079c531659141344cd1fd0a4f28419497f9722a3daafe3b4186f6b6457e09190a35050565b8280546200010190620002eb565b90600052602060002090601f01602090048101928262000125576000855562000170565b82601f106200014057805160ff191683800117855562000170565b8280016001018555821562000170579182015b828111156200017057825182559160200191906001019062000153565b506200017e92915062000182565b5090565b5b808211156200017e576000815560010162000183565b634e487b7160e01b600052604160045260246000fd5b600082601f830112620001c157600080fd5b81516001600160401b0380821115620001de57620001de62000199565b604051601f8301601f19908116603f0116810190828211818310171562000209576200020962000199565b816040528381526020925086838588010111156200022657600080fd5b600091505b838210156200024a57858201830151818301840152908201906200022b565b838211156200025c5760008385830101525b9695505050505050565b6000806000606084860312156200027c57600080fd5b83516001600160401b03808211156200029457600080fd5b620002a287838801620001af565b94506020860151915080821115620002b957600080fd5b50620002c886828701620001af565b925050604084015160ff81168114620002e057600080fd5b809150509250925092565b600181811c908216806200030057607f821691505b602082108114156200032257634e487b7160e01b600052602260045260246000fd5b50919050565b610de280620003386000396000f3fe608060405234801561001057600080fd5b50600436106101735760003560e01c8063715018a6116100de578063a9059cbb11610097578063dd62ed3e11610071578063dd62ed3e14610341578063e6cb90131461037a578063edc1053d1461038d578063f2fde38b1461039757600080fd5b8063a9059cbb14610308578063b5931f7c1461031b578063d05c78da1461032e57600080fd5b8063715018a6146102b957806384e7e3d3146102c15780638da5cb5b146102c957806395d89b41146102e45780639d463520146102ec578063a293d1e8146102f557600080fd5b806340c10f191161013057806340c10f191461020657806358a0ab3d146102195780636226f45c1461023c5780636716c248146102515780636757564d1461027d57806370a082311461029057600080fd5b806306fdde0314610178578063095ea7b31461019657806318160ddd146101b957806323b872dd146101cb578063313ce567146101de5780633eaaf86b146101fd575b600080fd5b6101806103aa565b60405161018d9190610b42565b60405180910390f35b6101a96101a4366004610bb3565b610438565b604051901515815260200161018d565b6004545b60405190815260200161018d565b6101a96101d9366004610bdd565b610523565b6003546101eb9060ff1681565b60405160ff909116815260200161018d565b6101bd60045481565b6101a9610214366004610bb3565b61060f565b6101a9610227366004610c19565b60066020526000908152604090205460ff1681565b61024f61024a366004610c19565b610673565b005b6101a961025f366004610c19565b6001600160a01b031660009081526006602052604090205460ff1690565b61024f61028b366004610c19565b61072b565b6101bd61029e366004610c19565b6001600160a01b031660009081526007602052604090205490565b61024f6107e7565b6101bd600181565b6000546040516001600160a01b03909116815260200161018d565b6101806107fb565b6101bd60055481565b6101bd610303366004610c34565b610808565b6101a9610316366004610bb3565b610828565b6101bd610329366004610c34565b610911565b6101bd61033c366004610c34565b610929565b6101bd61034f366004610c56565b6001600160a01b03918216600090815260086020908152604080832093909416825291909152205490565b6101bd610388366004610c34565b610955565b6101bd620f424081565b61024f6103a5366004610c19565b610970565b600180546103b790610c89565b80601f01602080910402602001604051908101604052809291908181526020018280546103e390610c89565b80156104305780601f1061040557610100808354040283529160200191610430565b820191906000526020600020905b81548152906001019060200180831161041357829003601f168201915b505050505081565b60006001600160a01b0383166104a05760405162461bcd60e51b815260206004820152602260248201527f45524332303a20617070726f766520746f20746865207a65726f206164647265604482015261737360f01b60648201526084015b60405180910390fd5b3360009081526008602090815260408083206001600160a01b0387168452909152812080548492906104d3908490610cda565b90915550506040518281526001600160a01b0384169033907f8c5be1e5ebec7d5bd14f71427d1e84f3dd0314c0f7b2291e5b200ac8c7c3b925906020015b60405180910390a35060015b92915050565b6001600160a01b03831660009081526008602090815260408083203384529091528120546105519083610808565b6001600160a01b03851660008181526008602090815260408083203384528252808320949094559181526007909152205461058c9083610808565b6001600160a01b0380861660009081526007602052604080822093909355908516815220546105bb9083610955565b6001600160a01b038085166000818152600760205260409081902093909355915190861690600080516020610d8d833981519152906105fd9086815260200190565b60405180910390a35060019392505050565b3360009081526006602052604081205460ff1661063e5760405162461bcd60e51b815260040161049790610cf2565b61064883836109e9565b6040518281526001600160a01b038416903090600080516020610d8d83398151915290602001610511565b3360009081526006602052604090205460ff166106a25760405162461bcd60e51b815260040161049790610cf2565b6001600160a01b03811660009081526006602052604090205460ff1661070a5760405162461bcd60e51b815260206004820152601a60248201527f55736572206973206e6f742061207370656369616c20757365720000000000006044820152606401610497565b6001600160a01b03166000908152600660205260409020805460ff19169055565b3360009081526006602052604090205460ff1661075a5760405162461bcd60e51b815260040161049790610cf2565b6001600160a01b03811660009081526006602052604090205460ff16156107c35760405162461bcd60e51b815260206004820152601e60248201527f5573657220697320616c72656164792061207370656369616c207573657200006044820152606401610497565b6001600160a01b03166000908152600660205260409020805460ff19166001179055565b6107ef610a98565b6107f96000610af2565b565b600280546103b790610c89565b60008282111561081757600080fd5b6108218284610d34565b9392505050565b60006001600160a01b03831661088c5760405162461bcd60e51b815260206004820152602360248201527f45524332303a207472616e7366657220746f20746865207a65726f206164647260448201526265737360e81b6064820152608401610497565b336000908152600760205260409020546108a69083610808565b33600090815260076020526040808220929092556001600160a01b038516815220546108d29083610955565b6001600160a01b038416600081815260076020526040908190209290925590513390600080516020610d8d833981519152906105119086815260200190565b600080821161091f57600080fd5b6108218284610d4b565b60006109358284610d6d565b905082158061094c57508161094a8483610d4b565b145b61051d57600080fd5b60006109618284610cda565b90508281101561051d57600080fd5b610978610a98565b6001600160a01b0381166109dd5760405162461bcd60e51b815260206004820152602660248201527f4f776e61626c653a206e6577206f776e657220697320746865207a65726f206160448201526564647265737360d01b6064820152608401610497565b6109e681610af2565b50565b6001600160a01b038216610a3f5760405162461bcd60e51b815260206004820152601f60248201527f45524332303a206d696e7420746f20746865207a65726f2061646472657373006044820152606401610497565b8060046000828254610a519190610cda565b90915550506001600160a01b038216600081815260076020908152604080832080548601905551848152600080516020610d8d833981519152910160405180910390a35050565b6000546001600160a01b031633146107f95760405162461bcd60e51b815260206004820181905260248201527f4f776e61626c653a2063616c6c6572206973206e6f7420746865206f776e65726044820152606401610497565b600080546001600160a01b038381166001600160a01b0319831681178455604051919092169283917f8be0079c531659141344cd1fd0a4f28419497f9722a3daafe3b4186f6b6457e09190a35050565b600060208083528351808285015260005b81811015610b6f57858101830151858201604001528201610b53565b81811115610b81576000604083870101525b50601f01601f1916929092016040019392505050565b80356001600160a01b0381168114610bae57600080fd5b919050565b60008060408385031215610bc657600080fd5b610bcf83610b97565b946020939093013593505050565b600080600060608486031215610bf257600080fd5b610bfb84610b97565b9250610c0960208501610b97565b9150604084013590509250925092565b600060208284031215610c2b57600080fd5b61082182610b97565b60008060408385031215610c4757600080fd5b50508035926020909101359150565b60008060408385031215610c6957600080fd5b610c7283610b97565b9150610c8060208401610b97565b90509250929050565b600181811c90821680610c9d57607f821691505b60208210811415610cbe57634e487b7160e01b600052602260045260246000fd5b50919050565b634e487b7160e01b600052601160045260246000fd5b60008219821115610ced57610ced610cc4565b500190565b60208082526022908201527f4f6e6c79207370656369616c2075736572732063616e206d696e7420746f6b656040820152616e7360f01b606082015260800190565b600082821015610d4657610d46610cc4565b500390565b600082610d6857634e487b7160e01b600052601260045260246000fd5b500490565b6000816000190483118215151615610d8757610d87610cc4565b50029056feddf252ad1be2c89b69c2b068fc378daa952ba7f163c4a11628f55a4df523b3efa2646970667358221220ea0787006c5e48eceeed8f400f8dec2d121326dfc1a4d912d41f16088a1304f964736f6c634300080a0033",
  "linkReferences": {},
  "deployedLinkReferences": {}
}