{
  "_format": "hh-sol-artifact-1",
  "contractName": "YOC",
  "sourceName": "contracts/YOC.sol",
  "abi": [
    {
      "inputs": [
        {
          "internalType": "string",
          "name": "_name",
          "type": "string"
        },
        {
          "internalType": "string",
          "name": "_symbol",
          "type": "string"
        },
        {
          "internalType": "uint8",
          "name": "_decimals",
          "type": "uint8"
        }
      ],
      "stateMutability": "nonpayable",
      "type": "constructor"
    },
    {
      "anonymous": false,
      "inputs": [
        {
          "indexed": true,
          "internalType": "address",
          "name": "tokenOwner",
          "type": "address"
        },
        {
          "indexed": true,
          "internalType": "address",
          "name": "spender",
          "type": "address"
        },
        {
          "indexed": false,
          "internalType": "uint256",
          "name": "tokens",
          "type": "uint256"
        }
      ],
      "name": "Approval",
      "type": "event"
    },
    {
      "anonymous": false,
      "inputs": [
        {
          "indexed": true,
          "internalType": "address",
          "name": "previousOwner",
          "type": "address"
        },
        {
          "indexed": true,
          "internalType": "address",
          "name": "newOwner",
          "type": "address"
        }
      ],
      "name": "OwnershipTransferred",
      "type": "event"
    },
    {
      "anonymous": false,
      "inputs": [
        {
          "indexed": true,
          "internalType": "address",
          "name": "from",
          "type": "address"
        },
        {
          "indexed": true,
          "internalType": "address",
          "name": "to",
          "type": "address"
        },
        {
          "indexed": false,
          "internalType": "uint256",
          "name": "tokens",
          "type": "uint256"
        }
      ],
      "name": "Transfer",
      "type": "event"
    },
    {
      "anonymous": false,
      "inputs": [
        {
          "indexed": false,
          "internalType": "address",
          "name": "masterChefAddress",
          "type": "address"
        }
      ],
      "name": "UpdateMasterChef",
      "type": "event"
    },
    {
      "inputs": [],
      "name": "MINT_AMOUNT_PER",
      "outputs": [
        {
          "internalType": "uint256",
          "name": "",
          "type": "uint256"
        }
      ],
      "stateMutability": "view",
      "type": "function"
    },
    {
      "inputs": [],
      "name": "MINT_INTERVAL",
      "outputs": [
        {
          "internalType": "uint256",
          "name": "",
          "type": "uint256"
        }
      ],
      "stateMutability": "view",
      "type": "function"
    },
    {
      "inputs": [],
      "name": "MasterChef",
      "outputs": [
        {
          "internalType": "address",
          "name": "",
          "type": "address"
        }
      ],
      "stateMutability": "view",
      "type": "function"
    },
    {
      "inputs": [],
      "name": "_totalSupply",
      "outputs": [
        {
          "internalType": "uint256",
          "name": "",
          "type": "uint256"
        }
      ],
      "stateMutability": "view",
      "type": "function"
    },
    {
      "inputs": [
        {
          "internalType": "address",
          "name": "owner",
          "type": "address"
        },
        {
          "internalType": "address",
          "name": "spender",
          "type": "address"
        }
      ],
      "name": "allowance",
      "outputs": [
        {
          "internalType": "uint256",
          "name": "",
          "type": "uint256"
        }
      ],
      "stateMutability": "view",
      "type": "function"
    },
    {
      "inputs": [
        {
          "internalType": "address",
          "name": "spender",
          "type": "address"
        },
        {
          "internalType": "uint256",
          "name": "amount",
          "type": "uint256"
        }
      ],
      "name": "approve",
      "outputs": [
        {
          "internalType": "bool",
          "name": "",
          "type": "bool"
        }
      ],
      "stateMutability": "nonpayable",
      "type": "function"
    },
    {
      "inputs": [
        {
          "internalType": "address",
          "name": "account",
          "type": "address"
        }
      ],
      "name": "balanceOf",
      "outputs": [
        {
          "internalType": "uint256",
          "name": "",
          "type": "uint256"
        }
      ],
      "stateMutability": "view",
      "type": "function"
    },
    {
      "inputs": [],
      "name": "decimals",
      "outputs": [
        {
          "internalType": "uint8",
          "name": "",
          "type": "uint8"
        }
      ],
      "stateMutability": "view",
      "type": "function"
    },
    {
      "inputs": [],
      "name": "lastMintTime",
      "outputs": [
        {
          "internalType": "uint256",
          "name": "",
          "type": "uint256"
        }
      ],
      "stateMutability": "view",
      "type": "function"
    },
    {
      "inputs": [],
      "name": "mint",
      "outputs": [
        {
          "internalType": "bool",
          "name": "success",
          "type": "bool"
        }
      ],
      "stateMutability": "nonpayable",
      "type": "function"
    },
    {
      "inputs": [
        {
          "internalType": "address",
          "name": "recipient",
          "type": "address"
        },
        {
          "internalType": "uint256",
          "name": "amount",
          "type": "uint256"
        }
      ],
      "name": "mintToMasterChef",
      "outputs": [
        {
          "internalType": "bool",
          "name": "success",
          "type": "bool"
        }
      ],
      "stateMutability": "nonpayable",
      "type": "function"
    },
    {
      "inputs": [],
      "name": "name",
      "outputs": [
        {
          "internalType": "string",
          "name": "",
          "type": "string"
        }
      ],
      "stateMutability": "view",
      "type": "function"
    },
    {
      "inputs": [],
      "name": "owner",
      "outputs": [
        {
          "internalType": "address",
          "name": "",
          "type": "address"
        }
      ],
      "stateMutability": "view",
      "type": "function"
    },
    {
      "inputs": [],
      "name": "renounceOwnership",
      "outputs": [],
      "stateMutability": "nonpayable",
      "type": "function"
    },
    {
      "inputs": [
        {
          "internalType": "uint256",
          "name": "a",
          "type": "uint256"
        },
        {
          "internalType": "uint256",
          "name": "b",
          "type": "uint256"
        }
      ],
      "name": "safeAdd",
      "outputs": [
        {
          "internalType": "uint256",
          "name": "c",
          "type": "uint256"
        }
      ],
      "stateMutability": "pure",
      "type": "function"
    },
    {
      "inputs": [
        {
          "internalType": "uint256",
          "name": "a",
          "type": "uint256"
        },
        {
          "internalType": "uint256",
          "name": "b",
          "type": "uint256"
        }
      ],
      "name": "safeDiv",
      "outputs": [
        {
          "internalType": "uint256",
          "name": "c",
          "type": "uint256"
        }
      ],
      "stateMutability": "pure",
      "type": "function"
    },
    {
      "inputs": [
        {
          "internalType": "uint256",
          "name": "a",
          "type": "uint256"
        },
        {
          "internalType": "uint256",
          "name": "b",
          "type": "uint256"
        }
      ],
      "name": "safeMul",
      "outputs": [
        {
          "internalType": "uint256",
          "name": "c",
          "type": "uint256"
        }
      ],
      "stateMutability": "pure",
      "type": "function"
    },
    {
      "inputs": [
        {
          "internalType": "uint256",
          "name": "a",
          "type": "uint256"
        },
        {
          "internalType": "uint256",
          "name": "b",
          "type": "uint256"
        }
      ],
      "name": "safeSub",
      "outputs": [
        {
          "internalType": "uint256",
          "name": "c",
          "type": "uint256"
        }
      ],
      "stateMutability": "pure",
      "type": "function"
    },
    {
      "inputs": [
        {
          "internalType": "address",
          "name": "masterChefAddress",
          "type": "address"
        }
      ],
      "name": "setMasterChef",
      "outputs": [
        {
          "internalType": "bool",
          "name": "success",
          "type": "bool"
        }
      ],
      "stateMutability": "nonpayable",
      "type": "function"
    },
    {
      "inputs": [],
      "name": "symbol",
      "outputs": [
        {
          "internalType": "string",
          "name": "",
          "type": "string"
        }
      ],
      "stateMutability": "view",
      "type": "function"
    },
    {
      "inputs": [],
      "name": "totalSupply",
      "outputs": [
        {
          "internalType": "uint256",
          "name": "",
          "type": "uint256"
        }
      ],
      "stateMutability": "view",
      "type": "function"
    },
    {
      "inputs": [
        {
          "internalType": "address",
          "name": "recipient",
          "type": "address"
        },
        {
          "internalType": "uint256",
          "name": "amount",
          "type": "uint256"
        }
      ],
      "name": "transfer",
      "outputs": [
        {
          "internalType": "bool",
          "name": "success",
          "type": "bool"
        }
      ],
      "stateMutability": "nonpayable",
      "type": "function"
    },
    {
      "inputs": [
        {
          "internalType": "address",
          "name": "sender",
          "type": "address"
        },
        {
          "internalType": "address",
          "name": "recipient",
          "type": "address"
        },
        {
          "internalType": "uint256",
          "name": "amount",
          "type": "uint256"
        }
      ],
      "name": "transferFrom",
      "outputs": [
        {
          "internalType": "bool",
          "name": "success",
          "type": "bool"
        }
      ],
      "stateMutability": "nonpayable",
      "type": "function"
    },
    {
      "inputs": [
        {
          "internalType": "address",
          "name": "newOwner",
          "type": "address"
        }
      ],
      "name": "transferOwnership",
      "outputs": [],
      "stateMutability": "nonpayable",
      "type": "function"
    }
  ],
  "bytecode": "0x60806040523480156200001157600080fd5b506040516200110a3803806200110a83398101604081905262000034916200024e565b6200003f336200008b565b825162000054906001906020860190620000db565b5081516200006a906002906020850190620000db565b506003805460ff191660ff9290921691909117905550504260055562000310565b600080546001600160a01b038381166001600160a01b0319831681178455604051919092169283917f8be0079c531659141344cd1fd0a4f28419497f9722a3daafe3b4186f6b6457e09190a35050565b828054620000e990620002d3565b90600052602060002090601f0160209004810192826200010d576000855562000158565b82601f106200012857805160ff191683800117855562000158565b8280016001018555821562000158579182015b82811115620001585782518255916020019190600101906200013b565b50620001669291506200016a565b5090565b5b808211156200016657600081556001016200016b565b634e487b7160e01b600052604160045260246000fd5b600082601f830112620001a957600080fd5b81516001600160401b0380821115620001c657620001c662000181565b604051601f8301601f19908116603f01168101908282118183101715620001f157620001f162000181565b816040528381526020925086838588010111156200020e57600080fd5b600091505b8382101562000232578582018301518183018401529082019062000213565b83821115620002445760008385830101525b9695505050505050565b6000806000606084860312156200026457600080fd5b83516001600160401b03808211156200027c57600080fd5b6200028a8783880162000197565b94506020860151915080821115620002a157600080fd5b50620002b08682870162000197565b925050604084015160ff81168114620002c857600080fd5b809150509250925092565b600181811c90821680620002e857607f821691505b602082108114156200030a57634e487b7160e01b600052602260045260246000fd5b50919050565b610dea80620003206000396000f3fe608060405234801561001057600080fd5b50600436106101585760003560e01c806395d89b41116100c3578063d05c78da1161007c578063d05c78da146102c3578063dd62ed3e146102d6578063e6cb90131461030f578063e9ea46c714610322578063edc1053d14610335578063f2fde38b1461033d57600080fd5b806395d89b41146102665780639d4635201461026e578063a293d1e814610277578063a2d9f4dc1461028a578063a9059cbb1461029d578063b5931f7c146102b057600080fd5b80633eaaf86b116101155780633eaaf86b146101ea5780634b8b6f49146101f357806370a0823114610206578063715018a61461022f57806384e7e3d3146102395780638da5cb5b1461024157600080fd5b806306fdde031461015d578063095ea7b31461017b5780631249c58b1461019e57806318160ddd146101a657806323b872dd146101b8578063313ce567146101cb575b600080fd5b610165610350565b6040516101729190610a9e565b60405180910390f35b61018e610189366004610b0a565b6103de565b6040519015158152602001610172565b61018e610489565b6004545b604051908152602001610172565b61018e6101c6366004610b34565b610515565b6003546101d89060ff1681565b60405160ff9091168152602001610172565b6101aa60045481565b61018e610201366004610b0a565b610601565b6101aa610214366004610b70565b6001600160a01b031660009081526007602052604090205490565b6102376106df565b005b6101aa600181565b6000546001600160a01b03165b6040516001600160a01b039091168152602001610172565b6101656106f3565b6101aa60055481565b6101aa610285366004610b8b565b610700565b61018e610298366004610b70565b610720565b61018e6102ab366004610b0a565b610784565b6101aa6102be366004610b8b565b61086d565b6101aa6102d1366004610b8b565b610885565b6101aa6102e4366004610bad565b6001600160a01b03918216600090815260086020908152604080832093909416825291909152205490565b6101aa61031d366004610b8b565b6108b1565b60065461024e906001600160a01b031681565b6101aa606481565b61023761034b366004610b70565b6108cc565b6001805461035d90610be0565b80601f016020809104026020016040519081016040528092919081815260200182805461038990610be0565b80156103d65780601f106103ab576101008083540402835291602001916103d6565b820191906000526020600020905b8154815290600101906020018083116103b957829003601f168201915b505050505081565b60006001600160a01b0383166104465760405162461bcd60e51b815260206004820152602260248201527f45524332303a20617070726f766520746f20746865207a65726f206164647265604482015261737360f01b60648201526084015b60405180910390fd5b3360009081526008602090815260408083206001600160a01b038716845290915281208054849290610479908490610c31565b9091555060019150505b92915050565b6000806005544261049a9190610c49565b9050600060646104ab600184610c60565b6104b59190610c82565b90508015610510576003546104e39030906104d49060ff16600a610d85565b6104de9084610c82565b610945565b60016104ef8184610c60565b6104f99190610c82565b6005600082825461050a9190610c31565b90915550505b505090565b6001600160a01b03831660009081526008602090815260408083203384529091528120546105439083610700565b6001600160a01b03851660008181526008602090815260408083203384528252808320949094559181526007909152205461057e9083610700565b6001600160a01b0380861660009081526007602052604080822093909355908516815220546105ad90836108b1565b6001600160a01b038085166000818152600760205260409081902093909355915190861690600080516020610d95833981519152906105ef9086815260200190565b60405180910390a35060019392505050565b6006546000906001600160a01b031633146106755760405162461bcd60e51b815260206004820152602e60248201527f546869732066756374696f6e2069732061626c6520746f2063616c6c2062792060448201526d3a34329026b0b9ba32b921b432b360911b606482015260840161043d565b61067d610489565b5030600081815260086020908152604080832033845290915290208390556106a6908484610515565b506040518281526001600160a01b038416903090600080516020610d95833981519152906020015b60405180910390a350600192915050565b6106e76109f4565b6106f16000610a4e565b565b6002805461035d90610be0565b60008282111561070f57600080fd5b6107198284610c49565b9392505050565b600061072a6109f4565b600680546001600160a01b0319166001600160a01b0384169081179091556040519081527f6f322dbd39e457046ae29978ebab00f11e6e59d6c1ad690c6d773b6de2b93e479060200160405180910390a15060015b919050565b60006001600160a01b0383166107e85760405162461bcd60e51b815260206004820152602360248201527f45524332303a207472616e7366657220746f20746865207a65726f206164647260448201526265737360e81b606482015260840161043d565b336000908152600760205260409020546108029083610700565b33600090815260076020526040808220929092556001600160a01b0385168152205461082e90836108b1565b6001600160a01b038416600081815260076020526040908190209290925590513390600080516020610d95833981519152906106ce9086815260200190565b600080821161087b57600080fd5b6107198284610c60565b60006108918284610c82565b90508215806108a85750816108a68483610c60565b145b61048357600080fd5b60006108bd8284610c31565b90508281101561048357600080fd5b6108d46109f4565b6001600160a01b0381166109395760405162461bcd60e51b815260206004820152602660248201527f4f776e61626c653a206e6577206f776e657220697320746865207a65726f206160448201526564647265737360d01b606482015260840161043d565b61094281610a4e565b50565b6001600160a01b03821661099b5760405162461bcd60e51b815260206004820152601f60248201527f45524332303a206d696e7420746f20746865207a65726f206164647265737300604482015260640161043d565b80600460008282546109ad9190610c31565b90915550506001600160a01b038216600081815260076020908152604080832080548601905551848152600080516020610d95833981519152910160405180910390a35050565b6000546001600160a01b031633146106f15760405162461bcd60e51b815260206004820181905260248201527f4f776e61626c653a2063616c6c6572206973206e6f7420746865206f776e6572604482015260640161043d565b600080546001600160a01b038381166001600160a01b0319831681178455604051919092169283917f8be0079c531659141344cd1fd0a4f28419497f9722a3daafe3b4186f6b6457e09190a35050565b600060208083528351808285015260005b81811015610acb57858101830151858201604001528201610aaf565b81811115610add576000604083870101525b50601f01601f1916929092016040019392505050565b80356001600160a01b038116811461077f57600080fd5b60008060408385031215610b1d57600080fd5b610b2683610af3565b946020939093013593505050565b600080600060608486031215610b4957600080fd5b610b5284610af3565b9250610b6060208501610af3565b9150604084013590509250925092565b600060208284031215610b8257600080fd5b61071982610af3565b60008060408385031215610b9e57600080fd5b50508035926020909101359150565b60008060408385031215610bc057600080fd5b610bc983610af3565b9150610bd760208401610af3565b90509250929050565b600181811c90821680610bf457607f821691505b60208210811415610c1557634e487b7160e01b600052602260045260246000fd5b50919050565b634e487b7160e01b600052601160045260246000fd5b60008219821115610c4457610c44610c1b565b500190565b600082821015610c5b57610c5b610c1b565b500390565b600082610c7d57634e487b7160e01b600052601260045260246000fd5b500490565b6000816000190483118215151615610c9c57610c9c610c1b565b500290565b600181815b80851115610cdc578160001904821115610cc257610cc2610c1b565b80851615610ccf57918102915b93841c9390800290610ca6565b509250929050565b600082610cf357506001610483565b81610d0057506000610483565b8160018114610d165760028114610d2057610d3c565b6001915050610483565b60ff841115610d3157610d31610c1b565b50506001821b610483565b5060208310610133831016604e8410600b8410161715610d5f575081810a610483565b610d698383610ca1565b8060001904821115610d7d57610d7d610c1b565b029392505050565b600061071960ff841683610ce456feddf252ad1be2c89b69c2b068fc378daa952ba7f163c4a11628f55a4df523b3efa26469706673582212203d608b51e9b61c886f28522d85d278382bf58b30c4c8ec1d8ed3d6c09041301964736f6c634300080a0033",
  "linkReferences": {},
  "deployedLinkReferences": {}
}