{
  "_format": "hh-sol-artifact-1",
  "contractName": "YOC",
  "sourceName": "contracts/YOC.sol",
  "abi": [
    {
      "inputs": [
        {
          "internalType": "string",
          "name": "_name",
          "type": "string"
        },
        {
          "internalType": "string",
          "name": "_symbol",
          "type": "string"
        },
        {
          "internalType": "uint8",
          "name": "_decimals",
          "type": "uint8"
        }
      ],
      "stateMutability": "nonpayable",
      "type": "constructor"
    },
    {
      "anonymous": false,
      "inputs": [
        {
          "indexed": true,
          "internalType": "address",
          "name": "tokenOwner",
          "type": "address"
        },
        {
          "indexed": true,
          "internalType": "address",
          "name": "spender",
          "type": "address"
        },
        {
          "indexed": false,
          "internalType": "uint256",
          "name": "tokens",
          "type": "uint256"
        }
      ],
      "name": "Approval",
      "type": "event"
    },
    {
      "anonymous": false,
      "inputs": [
        {
          "indexed": true,
          "internalType": "address",
          "name": "previousOwner",
          "type": "address"
        },
        {
          "indexed": true,
          "internalType": "address",
          "name": "newOwner",
          "type": "address"
        }
      ],
      "name": "OwnershipTransferred",
      "type": "event"
    },
    {
      "anonymous": false,
      "inputs": [
        {
          "indexed": true,
          "internalType": "address",
          "name": "from",
          "type": "address"
        },
        {
          "indexed": true,
          "internalType": "address",
          "name": "to",
          "type": "address"
        },
        {
          "indexed": false,
          "internalType": "uint256",
          "name": "tokens",
          "type": "uint256"
        }
      ],
      "name": "Transfer",
      "type": "event"
    },
    {
      "inputs": [],
      "name": "MINT_AMOUNT_PER",
      "outputs": [
        {
          "internalType": "uint256",
          "name": "",
          "type": "uint256"
        }
      ],
      "stateMutability": "view",
      "type": "function"
    },
    {
      "inputs": [],
      "name": "MINT_INTERVAL",
      "outputs": [
        {
          "internalType": "uint256",
          "name": "",
          "type": "uint256"
        }
      ],
      "stateMutability": "view",
      "type": "function"
    },
    {
      "inputs": [],
      "name": "_totalSupply",
      "outputs": [
        {
          "internalType": "uint256",
          "name": "",
          "type": "uint256"
        }
      ],
      "stateMutability": "view",
      "type": "function"
    },
    {
      "inputs": [
        {
          "internalType": "address",
          "name": "_address",
          "type": "address"
        }
      ],
      "name": "addressToString",
      "outputs": [
        {
          "internalType": "string",
          "name": "",
          "type": "string"
        }
      ],
      "stateMutability": "pure",
      "type": "function"
    },
    {
      "inputs": [
        {
          "internalType": "address",
          "name": "owner",
          "type": "address"
        },
        {
          "internalType": "address",
          "name": "spender",
          "type": "address"
        }
      ],
      "name": "allowance",
      "outputs": [
        {
          "internalType": "uint256",
          "name": "",
          "type": "uint256"
        }
      ],
      "stateMutability": "view",
      "type": "function"
    },
    {
      "inputs": [
        {
          "internalType": "address",
          "name": "spender",
          "type": "address"
        },
        {
          "internalType": "uint256",
          "name": "amount",
          "type": "uint256"
        }
      ],
      "name": "approve",
      "outputs": [
        {
          "internalType": "bool",
          "name": "",
          "type": "bool"
        }
      ],
      "stateMutability": "nonpayable",
      "type": "function"
    },
    {
      "inputs": [
        {
          "internalType": "address",
          "name": "account",
          "type": "address"
        }
      ],
      "name": "balanceOf",
      "outputs": [
        {
          "internalType": "uint256",
          "name": "",
          "type": "uint256"
        }
      ],
      "stateMutability": "view",
      "type": "function"
    },
    {
      "inputs": [
        {
          "internalType": "bytes",
          "name": "_bytes",
          "type": "bytes"
        }
      ],
      "name": "bytesToHexString",
      "outputs": [
        {
          "internalType": "string",
          "name": "",
          "type": "string"
        }
      ],
      "stateMutability": "pure",
      "type": "function"
    },
    {
      "inputs": [
        {
          "internalType": "string",
          "name": "a",
          "type": "string"
        },
        {
          "internalType": "string",
          "name": "b",
          "type": "string"
        }
      ],
      "name": "concatStrings",
      "outputs": [
        {
          "internalType": "string",
          "name": "",
          "type": "string"
        }
      ],
      "stateMutability": "pure",
      "type": "function"
    },
    {
      "inputs": [],
      "name": "decimals",
      "outputs": [
        {
          "internalType": "uint8",
          "name": "",
          "type": "uint8"
        }
      ],
      "stateMutability": "view",
      "type": "function"
    },
    {
      "inputs": [
        {
          "internalType": "address",
          "name": "",
          "type": "address"
        }
      ],
      "name": "isAddressForTransferToThere",
      "outputs": [
        {
          "internalType": "bool",
          "name": "",
          "type": "bool"
        }
      ],
      "stateMutability": "view",
      "type": "function"
    },
    {
      "inputs": [],
      "name": "lastMintTime",
      "outputs": [
        {
          "internalType": "uint256",
          "name": "",
          "type": "uint256"
        }
      ],
      "stateMutability": "view",
      "type": "function"
    },
    {
      "inputs": [],
      "name": "mint",
      "outputs": [
        {
          "internalType": "bool",
          "name": "success",
          "type": "bool"
        }
      ],
      "stateMutability": "nonpayable",
      "type": "function"
    },
    {
      "inputs": [
        {
          "internalType": "address",
          "name": "recipient",
          "type": "address"
        },
        {
          "internalType": "uint256",
          "name": "amount",
          "type": "uint256"
        }
      ],
      "name": "mintAndTransferToThere",
      "outputs": [
        {
          "internalType": "bool",
          "name": "success",
          "type": "bool"
        }
      ],
      "stateMutability": "nonpayable",
      "type": "function"
    },
    {
      "inputs": [],
      "name": "name",
      "outputs": [
        {
          "internalType": "string",
          "name": "",
          "type": "string"
        }
      ],
      "stateMutability": "view",
      "type": "function"
    },
    {
      "inputs": [],
      "name": "owner",
      "outputs": [
        {
          "internalType": "address",
          "name": "",
          "type": "address"
        }
      ],
      "stateMutability": "view",
      "type": "function"
    },
    {
      "inputs": [],
      "name": "renounceOwnership",
      "outputs": [],
      "stateMutability": "nonpayable",
      "type": "function"
    },
    {
      "inputs": [
        {
          "internalType": "uint256",
          "name": "a",
          "type": "uint256"
        },
        {
          "internalType": "uint256",
          "name": "b",
          "type": "uint256"
        }
      ],
      "name": "safeAdd",
      "outputs": [
        {
          "internalType": "uint256",
          "name": "c",
          "type": "uint256"
        }
      ],
      "stateMutability": "pure",
      "type": "function"
    },
    {
      "inputs": [
        {
          "internalType": "uint256",
          "name": "a",
          "type": "uint256"
        },
        {
          "internalType": "uint256",
          "name": "b",
          "type": "uint256"
        }
      ],
      "name": "safeDiv",
      "outputs": [
        {
          "internalType": "uint256",
          "name": "c",
          "type": "uint256"
        }
      ],
      "stateMutability": "pure",
      "type": "function"
    },
    {
      "inputs": [
        {
          "internalType": "uint256",
          "name": "a",
          "type": "uint256"
        },
        {
          "internalType": "uint256",
          "name": "b",
          "type": "uint256"
        }
      ],
      "name": "safeMul",
      "outputs": [
        {
          "internalType": "uint256",
          "name": "c",
          "type": "uint256"
        }
      ],
      "stateMutability": "pure",
      "type": "function"
    },
    {
      "inputs": [
        {
          "internalType": "uint256",
          "name": "a",
          "type": "uint256"
        },
        {
          "internalType": "uint256",
          "name": "b",
          "type": "uint256"
        }
      ],
      "name": "safeSub",
      "outputs": [
        {
          "internalType": "uint256",
          "name": "c",
          "type": "uint256"
        }
      ],
      "stateMutability": "pure",
      "type": "function"
    },
    {
      "inputs": [
        {
          "internalType": "address",
          "name": "_address",
          "type": "address"
        },
        {
          "internalType": "bool",
          "name": "value",
          "type": "bool"
        }
      ],
      "name": "setAddressForTransferToThere",
      "outputs": [
        {
          "internalType": "bool",
          "name": "success",
          "type": "bool"
        }
      ],
      "stateMutability": "nonpayable",
      "type": "function"
    },
    {
      "inputs": [],
      "name": "symbol",
      "outputs": [
        {
          "internalType": "string",
          "name": "",
          "type": "string"
        }
      ],
      "stateMutability": "view",
      "type": "function"
    },
    {
      "inputs": [],
      "name": "totalSupply",
      "outputs": [
        {
          "internalType": "uint256",
          "name": "",
          "type": "uint256"
        }
      ],
      "stateMutability": "view",
      "type": "function"
    },
    {
      "inputs": [
        {
          "internalType": "address",
          "name": "recipient",
          "type": "address"
        },
        {
          "internalType": "uint256",
          "name": "amount",
          "type": "uint256"
        }
      ],
      "name": "transfer",
      "outputs": [
        {
          "internalType": "bool",
          "name": "success",
          "type": "bool"
        }
      ],
      "stateMutability": "nonpayable",
      "type": "function"
    },
    {
      "inputs": [
        {
          "internalType": "address",
          "name": "sender",
          "type": "address"
        },
        {
          "internalType": "address",
          "name": "recipient",
          "type": "address"
        },
        {
          "internalType": "uint256",
          "name": "amount",
          "type": "uint256"
        }
      ],
      "name": "transferFrom",
      "outputs": [
        {
          "internalType": "bool",
          "name": "success",
          "type": "bool"
        }
      ],
      "stateMutability": "nonpayable",
      "type": "function"
    },
    {
      "inputs": [
        {
          "internalType": "address",
          "name": "newOwner",
          "type": "address"
        }
      ],
      "name": "transferOwnership",
      "outputs": [],
      "stateMutability": "nonpayable",
      "type": "function"
    }
  ],
  "bytecode": "0x60806040523480156200001157600080fd5b50604051620016af380380620016af83398101604081905262000034916200024e565b6200003f336200008b565b825162000054906001906020860190620000db565b5081516200006a906002906020850190620000db565b506003805460ff191660ff9290921691909117905550504260055562000310565b600080546001600160a01b038381166001600160a01b0319831681178455604051919092169283917f8be0079c531659141344cd1fd0a4f28419497f9722a3daafe3b4186f6b6457e09190a35050565b828054620000e990620002d3565b90600052602060002090601f0160209004810192826200010d576000855562000158565b82601f106200012857805160ff191683800117855562000158565b8280016001018555821562000158579182015b82811115620001585782518255916020019190600101906200013b565b50620001669291506200016a565b5090565b5b808211156200016657600081556001016200016b565b634e487b7160e01b600052604160045260246000fd5b600082601f830112620001a957600080fd5b81516001600160401b0380821115620001c657620001c662000181565b604051601f8301601f19908116603f01168101908282118183101715620001f157620001f162000181565b816040528381526020925086838588010111156200020e57600080fd5b600091505b8382101562000232578582018301518183018401529082019062000213565b83821115620002445760008385830101525b9695505050505050565b6000806000606084860312156200026457600080fd5b83516001600160401b03808211156200027c57600080fd5b6200028a8783880162000197565b94506020860151915080821115620002a157600080fd5b50620002b08682870162000197565b925050604084015160ff81168114620002c857600080fd5b809150509250925092565b600181811c90821680620002e857607f821691505b602082108114156200030a57634e487b7160e01b600052602260045260246000fd5b50919050565b61138f80620003206000396000f3fe608060405234801561001057600080fd5b50600436106101a95760003560e01c806384e7e3d3116100f9578063b5931f7c11610097578063e6cb901311610071578063e6cb90131461038f578063ecc6d96f146103a2578063edc1053d146103c5578063f2fde38b146103cd57600080fd5b8063b5931f7c14610330578063d05c78da14610343578063dd62ed3e1461035657600080fd5b80639d463520116100d35780639d463520146102ee578063a293d1e8146102f7578063a6bb80191461030a578063a9059cbb1461031d57600080fd5b806384e7e3d3146102c35780638da5cb5b146102cb57806395d89b41146102e657600080fd5b806323b872dd116101665780635e57966d116101405780635e57966d1461026a57806370a082311461027d578063715018a6146102a65780637d520c22146102b057600080fd5b806323b872dd1461022f578063313ce567146102425780633eaaf86b1461026157600080fd5b806306fdde03146101ae578063095ea7b3146101cc5780631249c58b146101ef57806312600aa3146101f757806318160ddd1461020a5780631a1244c41461021c575b600080fd5b6101b66103e0565b6040516101c39190610e41565b60405180910390f35b6101df6101da366004610eb2565b61046e565b60405190151581526020016101c3565b6101df610559565b6101b6610205366004610f88565b6105e5565b6004545b6040519081526020016101c3565b6101df61022a366004610fec565b610721565b6101df61023d366004611028565b61075a565b60035461024f9060ff1681565b60405160ff90911681526020016101c3565b61020e60045481565b6101b6610278366004611064565b610846565b61020e61028b366004611064565b6001600160a01b031660009081526007602052604090205490565b6102ae61088a565b005b6101b66102be36600461107f565b61089e565b61020e600181565b6000546040516001600160a01b0390911681526020016101c3565b6101b6610a43565b61020e60055481565b61020e6103053660046110d0565b610a50565b6101df610318366004610eb2565b610a69565b6101df61032b366004610eb2565b610b27565b61020e61033e3660046110d0565b610c10565b61020e6103513660046110d0565b610c28565b61020e6103643660046110f2565b6001600160a01b03918216600090815260086020908152604080832093909416825291909152205490565b61020e61039d3660046110d0565b610c54565b6101df6103b0366004611064565b60066020526000908152604090205460ff1681565b61020e606481565b6102ae6103db366004611064565b610c6f565b600180546103ed90611125565b80601f016020809104026020016040519081016040528092919081815260200182805461041990611125565b80156104665780601f1061043b57610100808354040283529160200191610466565b820191906000526020600020905b81548152906001019060200180831161044957829003601f168201915b505050505081565b60006001600160a01b0383166104d65760405162461bcd60e51b815260206004820152602260248201527f45524332303a20617070726f766520746f20746865207a65726f206164647265604482015261737360f01b60648201526084015b60405180910390fd5b3360009081526008602090815260408083206001600160a01b038716845290915281208054849290610509908490611176565b90915550506040518281526001600160a01b0384169033907f8c5be1e5ebec7d5bd14f71427d1e84f3dd0314c0f7b2291e5b200ac8c7c3b925906020015b60405180910390a35060015b92915050565b6000806005544261056a919061118e565b90506000606461057b6001846111a5565b61058591906111c7565b905080156105e0576003546105b39030906105a49060ff16600a6112ca565b6105ae90846111c7565b610ce8565b60016105bf81846111a5565b6105c991906111c7565b600560008282546105da9190611176565b90915550505b505090565b80518251606091849184916000916105fd9190611176565b67ffffffffffffffff81111561061557610615610edc565b6040519080825280601f01601f19166020018201604052801561063f576020820181803683370190505b50905060005b83518110156106a657838181518110610660576106606112d9565b602001015160f81c60f81b82828151811061067d5761067d6112d9565b60200101906001600160f81b031916908160001a9053508061069e816112ef565b915050610645565b5060005b8251811015610717578281815181106106c5576106c56112d9565b602001015160f81c60f81b828286516106de9190611176565b815181106106ee576106ee6112d9565b60200101906001600160f81b031916908160001a9053508061070f816112ef565b9150506106aa565b5095945050505050565b600061072b610d97565b506001600160a01b0382166000908152600660205260409020805482151560ff19909116179055600192915050565b6001600160a01b03831660009081526008602090815260408083203384529091528120546107889083610a50565b6001600160a01b0385166000818152600860209081526040808320338452825280832094909455918152600790915220546107c39083610a50565b6001600160a01b0380861660009081526007602052604080822093909355908516815220546107f29083610c54565b6001600160a01b03808516600081815260076020526040908190209390935591519086169060008051602061133a833981519152906108349086815260200190565b60405180910390a35060019392505050565b604051606082811b6bffffffffffffffffffffffff191660208301529060009060340160405160208183030381529060405290506108838161089e565b9392505050565b610892610d97565b61089c6000610df1565b565b60408051808201909152601081526f181899199a1a9b1b9c1cb0b131b232b360811b60208201528151606091906000906108d99060026111c7565b67ffffffffffffffff8111156108f1576108f1610edc565b6040519080825280601f01601f19166020018201604052801561091b576020820181803683370190505b50905060005b8451811015610a3b5782600486838151811061093f5761093f6112d9565b016020015182516001600160f81b031990911690911c60f81c908110610967576109676112d9565b01602001516001600160f81b031916826109828360026111c7565b81518110610992576109926112d9565b60200101906001600160f81b031916908160001a905350828582815181106109bc576109bc6112d9565b602091010151815160f89190911c600f169081106109dc576109dc6112d9565b01602001516001600160f81b031916826109f78360026111c7565b610a02906001611176565b81518110610a1257610a126112d9565b60200101906001600160f81b031916908160001a90535080610a33816112ef565b915050610921565b509392505050565b600280546103ed90611125565b600082821115610a5f57600080fd5b610883828461118e565b33600090815260066020908152604080832054815160608101909252602f80835260ff909116151560011492610aab92919061130b9083013961020533610846565b90610ac95760405162461bcd60e51b81526004016104cd9190610e41565b50610ad2610559565b503060008181526008602090815260408083203384529091529020839055610afb90848461075a565b506040518281526001600160a01b03841690309060008051602061133a83398151915290602001610547565b60006001600160a01b038316610b8b5760405162461bcd60e51b815260206004820152602360248201527f45524332303a207472616e7366657220746f20746865207a65726f206164647260448201526265737360e81b60648201526084016104cd565b33600090815260076020526040902054610ba59083610a50565b33600090815260076020526040808220929092556001600160a01b03851681522054610bd19083610c54565b6001600160a01b03841660008181526007602052604090819020929092559051339060008051602061133a833981519152906105479086815260200190565b6000808211610c1e57600080fd5b61088382846111a5565b6000610c3482846111c7565b9050821580610c4b575081610c4984836111a5565b145b61055357600080fd5b6000610c608284611176565b90508281101561055357600080fd5b610c77610d97565b6001600160a01b038116610cdc5760405162461bcd60e51b815260206004820152602660248201527f4f776e61626c653a206e6577206f776e657220697320746865207a65726f206160448201526564647265737360d01b60648201526084016104cd565b610ce581610df1565b50565b6001600160a01b038216610d3e5760405162461bcd60e51b815260206004820152601f60248201527f45524332303a206d696e7420746f20746865207a65726f20616464726573730060448201526064016104cd565b8060046000828254610d509190611176565b90915550506001600160a01b03821660008181526007602090815260408083208054860190555184815260008051602061133a833981519152910160405180910390a35050565b6000546001600160a01b0316331461089c5760405162461bcd60e51b815260206004820181905260248201527f4f776e61626c653a2063616c6c6572206973206e6f7420746865206f776e657260448201526064016104cd565b600080546001600160a01b038381166001600160a01b0319831681178455604051919092169283917f8be0079c531659141344cd1fd0a4f28419497f9722a3daafe3b4186f6b6457e09190a35050565b600060208083528351808285015260005b81811015610e6e57858101830151858201604001528201610e52565b81811115610e80576000604083870101525b50601f01601f1916929092016040019392505050565b80356001600160a01b0381168114610ead57600080fd5b919050565b60008060408385031215610ec557600080fd5b610ece83610e96565b946020939093013593505050565b634e487b7160e01b600052604160045260246000fd5b600067ffffffffffffffff80841115610f0d57610f0d610edc565b604051601f8501601f19908116603f01168101908282118183101715610f3557610f35610edc565b81604052809350858152868686011115610f4e57600080fd5b858560208301376000602087830101525050509392505050565b600082601f830112610f7957600080fd5b61088383833560208501610ef2565b60008060408385031215610f9b57600080fd5b823567ffffffffffffffff80821115610fb357600080fd5b610fbf86838701610f68565b93506020850135915080821115610fd557600080fd5b50610fe285828601610f68565b9150509250929050565b60008060408385031215610fff57600080fd5b61100883610e96565b91506020830135801515811461101d57600080fd5b809150509250929050565b60008060006060848603121561103d57600080fd5b61104684610e96565b925061105460208501610e96565b9150604084013590509250925092565b60006020828403121561107657600080fd5b61088382610e96565b60006020828403121561109157600080fd5b813567ffffffffffffffff8111156110a857600080fd5b8201601f810184136110b957600080fd5b6110c884823560208401610ef2565b949350505050565b600080604083850312156110e357600080fd5b50508035926020909101359150565b6000806040838503121561110557600080fd5b61110e83610e96565b915061111c60208401610e96565b90509250929050565b600181811c9082168061113957607f821691505b6020821081141561115a57634e487b7160e01b600052602260045260246000fd5b50919050565b634e487b7160e01b600052601160045260246000fd5b6000821982111561118957611189611160565b500190565b6000828210156111a0576111a0611160565b500390565b6000826111c257634e487b7160e01b600052601260045260246000fd5b500490565b60008160001904831182151516156111e1576111e1611160565b500290565b600181815b8085111561122157816000190482111561120757611207611160565b8085161561121457918102915b93841c93908002906111eb565b509250929050565b60008261123857506001610553565b8161124557506000610553565b816001811461125b576002811461126557611281565b6001915050610553565b60ff84111561127657611276611160565b50506001821b610553565b5060208310610133831016604e8410600b84101617156112a4575081810a610553565b6112ae83836111e6565b80600019048211156112c2576112c2611160565b029392505050565b600061088360ff841683611229565b634e487b7160e01b600052603260045260246000fd5b600060001982141561130357611303611160565b506001019056fe546869732066756374696f6e2069732061626c6520746f2063616c6c20627920746865204d61737465724368656620ddf252ad1be2c89b69c2b068fc378daa952ba7f163c4a11628f55a4df523b3efa264697066735822122054a029704ae01d39eb343315903de8a4ef5690276f9c59130fb39f286834368964736f6c634300080a0033",
  "linkReferences": {},
  "deployedLinkReferences": {}
}