{
  "_format": "hh-sol-artifact-1",
  "contractName": "RestrictedAccess",
  "sourceName": "contracts/utils/RestrictedAccess.sol",
  "abi": [
    {
      "inputs": [],
      "stateMutability": "nonpayable",
      "type": "constructor"
    },
    {
      "anonymous": false,
      "inputs": [
        {
          "indexed": false,
          "internalType": "address",
          "name": "user",
          "type": "address"
        },
        {
          "indexed": false,
          "internalType": "bool",
          "name": "isAuthorized",
          "type": "bool"
        }
      ],
      "name": "AuthorizationChanged",
      "type": "event"
    },
    {
      "inputs": [
        {
          "internalType": "address",
          "name": "user",
          "type": "address"
        }
      ],
      "name": "addAuthorizedUser",
      "outputs": [],
      "stateMutability": "nonpayable",
      "type": "function"
    },
    {
      "inputs": [
        {
          "internalType": "address",
          "name": "",
          "type": "address"
        }
      ],
      "name": "authorizedUsers",
      "outputs": [
        {
          "internalType": "bool",
          "name": "",
          "type": "bool"
        }
      ],
      "stateMutability": "view",
      "type": "function"
    },
    {
      "inputs": [],
      "name": "owner",
      "outputs": [
        {
          "internalType": "address",
          "name": "",
          "type": "address"
        }
      ],
      "stateMutability": "view",
      "type": "function"
    },
    {
      "inputs": [
        {
          "internalType": "address",
          "name": "user",
          "type": "address"
        }
      ],
      "name": "removeAuthorizedUser",
      "outputs": [],
      "stateMutability": "nonpayable",
      "type": "function"
    }
  ],
  "bytecode": "0x608060405234801561001057600080fd5b50600080546001600160a01b0319163390811782558152600160208190526040909120805460ff1916909117905561029b8061004d6000396000f3fe608060405234801561001057600080fd5b506004361061004c5760003560e01c8063177d2a74146100515780631828983a1461006657806389fabc801461009e5780638da5cb5b146100b1575b600080fd5b61006461005f366004610235565b6100dc565b005b610089610074366004610235565b60016020526000908152604090205460ff1681565b60405190151581526020015b60405180910390f35b6100646100ac366004610235565b61018e565b6000546100c4906001600160a01b031681565b6040516001600160a01b039091168152602001610095565b3360009081526001602052604090205460ff166101315760405162461bcd60e51b815260206004820152600e60248201526d139bdd08185d5d1a1bdc9a5e995960921b60448201526064015b60405180910390fd5b6001600160a01b038116600081815260016020818152604092839020805460ff19168317905582519384528301527f5fe3a0cb9aeae856eac34445ace9544f3e15c21fa6f9bffeca60d662a690ca1b91015b60405180910390a150565b3360009081526001602052604090205460ff166101de5760405162461bcd60e51b815260206004820152600e60248201526d139bdd08185d5d1a1bdc9a5e995960921b6044820152606401610128565b6001600160a01b0381166000818152600160209081526040808320805460ff191690558051938452908301919091527f5fe3a0cb9aeae856eac34445ace9544f3e15c21fa6f9bffeca60d662a690ca1b9101610183565b60006020828403121561024757600080fd5b81356001600160a01b038116811461025e57600080fd5b939250505056fea2646970667358221220210c5043660141e3a708527911246d8f5e173ccc8be2c90fe38ea093c1bad1e864736f6c634300080a0033",
  "linkReferences": {},
  "deployedLinkReferences": {}
}