{
  "_format": "hh-sol-artifact-1",
  "contractName": "YocswapRouter",
  "sourceName": "contracts/YocswapRouter.sol",
  "abi": [
    {
      "inputs": [
        {
          "internalType": "address",
          "name": "_factory",
          "type": "address"
        },
        {
          "internalType": "address",
          "name": "_WETH",
          "type": "address"
        }
      ],
      "stateMutability": "nonpayable",
      "type": "constructor"
    },
    {
      "inputs": [],
      "name": "WETH",
      "outputs": [
        {
          "internalType": "address",
          "name": "",
          "type": "address"
        }
      ],
      "stateMutability": "view",
      "type": "function"
    },
    {
      "inputs": [
        {
          "internalType": "address",
          "name": "tokenA",
          "type": "address"
        },
        {
          "internalType": "address",
          "name": "tokenB",
          "type": "address"
        },
        {
          "internalType": "uint256",
          "name": "amountADesired",
          "type": "uint256"
        },
        {
          "internalType": "uint256",
          "name": "amountBDesired",
          "type": "uint256"
        },
        {
          "internalType": "uint256",
          "name": "amountAMin",
          "type": "uint256"
        },
        {
          "internalType": "uint256",
          "name": "amountBMin",
          "type": "uint256"
        },
        {
          "internalType": "address",
          "name": "to",
          "type": "address"
        },
        {
          "internalType": "uint256",
          "name": "deadline",
          "type": "uint256"
        }
      ],
      "name": "addLiquidity",
      "outputs": [
        {
          "internalType": "uint256",
          "name": "amountA",
          "type": "uint256"
        },
        {
          "internalType": "uint256",
          "name": "amountB",
          "type": "uint256"
        },
        {
          "internalType": "uint256",
          "name": "liquidity",
          "type": "uint256"
        }
      ],
      "stateMutability": "nonpayable",
      "type": "function"
    },
    {
      "inputs": [
        {
          "internalType": "address",
          "name": "token",
          "type": "address"
        },
        {
          "internalType": "uint256",
          "name": "amountTokenDesired",
          "type": "uint256"
        },
        {
          "internalType": "uint256",
          "name": "amountTokenMin",
          "type": "uint256"
        },
        {
          "internalType": "uint256",
          "name": "amountETHMin",
          "type": "uint256"
        },
        {
          "internalType": "address",
          "name": "to",
          "type": "address"
        },
        {
          "internalType": "uint256",
          "name": "deadline",
          "type": "uint256"
        }
      ],
      "name": "addLiquidityETH",
      "outputs": [
        {
          "internalType": "uint256",
          "name": "amountToken",
          "type": "uint256"
        },
        {
          "internalType": "uint256",
          "name": "amountETH",
          "type": "uint256"
        },
        {
          "internalType": "uint256",
          "name": "liquidity",
          "type": "uint256"
        }
      ],
      "stateMutability": "payable",
      "type": "function"
    },
    {
      "inputs": [],
      "name": "factory",
      "outputs": [
        {
          "internalType": "address",
          "name": "",
          "type": "address"
        }
      ],
      "stateMutability": "view",
      "type": "function"
    },
    {
      "inputs": [
        {
          "internalType": "uint256",
          "name": "amountOut",
          "type": "uint256"
        },
        {
          "internalType": "uint256",
          "name": "reserveIn",
          "type": "uint256"
        },
        {
          "internalType": "uint256",
          "name": "reserveOut",
          "type": "uint256"
        }
      ],
      "name": "getAmountIn",
      "outputs": [
        {
          "internalType": "uint256",
          "name": "amountIn",
          "type": "uint256"
        }
      ],
      "stateMutability": "pure",
      "type": "function"
    },
    {
      "inputs": [
        {
          "internalType": "uint256",
          "name": "amountIn",
          "type": "uint256"
        },
        {
          "internalType": "uint256",
          "name": "reserveIn",
          "type": "uint256"
        },
        {
          "internalType": "uint256",
          "name": "reserveOut",
          "type": "uint256"
        }
      ],
      "name": "getAmountOut",
      "outputs": [
        {
          "internalType": "uint256",
          "name": "amountOut",
          "type": "uint256"
        }
      ],
      "stateMutability": "pure",
      "type": "function"
    },
    {
      "inputs": [
        {
          "internalType": "uint256",
          "name": "amountOut",
          "type": "uint256"
        },
        {
          "internalType": "address[]",
          "name": "path",
          "type": "address[]"
        }
      ],
      "name": "getAmountsIn",
      "outputs": [
        {
          "internalType": "uint256[]",
          "name": "amounts",
          "type": "uint256[]"
        }
      ],
      "stateMutability": "view",
      "type": "function"
    },
    {
      "inputs": [
        {
          "internalType": "uint256",
          "name": "amountIn",
          "type": "uint256"
        },
        {
          "internalType": "address[]",
          "name": "path",
          "type": "address[]"
        }
      ],
      "name": "getAmountsOut",
      "outputs": [
        {
          "internalType": "uint256[]",
          "name": "amounts",
          "type": "uint256[]"
        }
      ],
      "stateMutability": "view",
      "type": "function"
    },
    {
      "inputs": [
        {
          "internalType": "address",
          "name": "tokenA",
          "type": "address"
        },
        {
          "internalType": "address",
          "name": "tokenB",
          "type": "address"
        },
        {
          "internalType": "uint256",
          "name": "amountA",
          "type": "uint256"
        }
      ],
      "name": "getExpectLiquidityAmount",
      "outputs": [
        {
          "internalType": "uint256",
          "name": "amountB",
          "type": "uint256"
        }
      ],
      "stateMutability": "view",
      "type": "function"
    },
    {
      "inputs": [
        {
          "internalType": "uint256",
          "name": "amountA",
          "type": "uint256"
        },
        {
          "internalType": "uint256",
          "name": "reserveA",
          "type": "uint256"
        },
        {
          "internalType": "uint256",
          "name": "reserveB",
          "type": "uint256"
        }
      ],
      "name": "quote",
      "outputs": [
        {
          "internalType": "uint256",
          "name": "amountB",
          "type": "uint256"
        }
      ],
      "stateMutability": "pure",
      "type": "function"
    },
    {
      "inputs": [
        {
          "internalType": "address",
          "name": "tokenA",
          "type": "address"
        },
        {
          "internalType": "address",
          "name": "tokenB",
          "type": "address"
        },
        {
          "internalType": "uint256",
          "name": "liquidity",
          "type": "uint256"
        },
        {
          "internalType": "uint256",
          "name": "amountAMin",
          "type": "uint256"
        },
        {
          "internalType": "uint256",
          "name": "amountBMin",
          "type": "uint256"
        },
        {
          "internalType": "address",
          "name": "to",
          "type": "address"
        },
        {
          "internalType": "uint256",
          "name": "deadline",
          "type": "uint256"
        }
      ],
      "name": "removeLiquidity",
      "outputs": [
        {
          "internalType": "uint256",
          "name": "amountA",
          "type": "uint256"
        },
        {
          "internalType": "uint256",
          "name": "amountB",
          "type": "uint256"
        }
      ],
      "stateMutability": "nonpayable",
      "type": "function"
    },
    {
      "inputs": [
        {
          "internalType": "address",
          "name": "token",
          "type": "address"
        },
        {
          "internalType": "uint256",
          "name": "liquidity",
          "type": "uint256"
        },
        {
          "internalType": "uint256",
          "name": "amountTokenMin",
          "type": "uint256"
        },
        {
          "internalType": "uint256",
          "name": "amountETHMin",
          "type": "uint256"
        },
        {
          "internalType": "address",
          "name": "to",
          "type": "address"
        },
        {
          "internalType": "uint256",
          "name": "deadline",
          "type": "uint256"
        }
      ],
      "name": "removeLiquidityETH",
      "outputs": [
        {
          "internalType": "uint256",
          "name": "amountToken",
          "type": "uint256"
        },
        {
          "internalType": "uint256",
          "name": "amountETH",
          "type": "uint256"
        }
      ],
      "stateMutability": "nonpayable",
      "type": "function"
    },
    {
      "inputs": [
        {
          "internalType": "address",
          "name": "token",
          "type": "address"
        },
        {
          "internalType": "uint256",
          "name": "liquidity",
          "type": "uint256"
        },
        {
          "internalType": "uint256",
          "name": "amountTokenMin",
          "type": "uint256"
        },
        {
          "internalType": "uint256",
          "name": "amountETHMin",
          "type": "uint256"
        },
        {
          "internalType": "address",
          "name": "to",
          "type": "address"
        },
        {
          "internalType": "uint256",
          "name": "deadline",
          "type": "uint256"
        }
      ],
      "name": "removeLiquidityETHSupportingFeeOnTransferTokens",
      "outputs": [
        {
          "internalType": "uint256",
          "name": "amountETH",
          "type": "uint256"
        }
      ],
      "stateMutability": "nonpayable",
      "type": "function"
    },
    {
      "inputs": [
        {
          "internalType": "address",
          "name": "token",
          "type": "address"
        },
        {
          "internalType": "uint256",
          "name": "liquidity",
          "type": "uint256"
        },
        {
          "internalType": "uint256",
          "name": "amountTokenMin",
          "type": "uint256"
        },
        {
          "internalType": "uint256",
          "name": "amountETHMin",
          "type": "uint256"
        },
        {
          "internalType": "address",
          "name": "to",
          "type": "address"
        },
        {
          "internalType": "uint256",
          "name": "deadline",
          "type": "uint256"
        },
        {
          "internalType": "bool",
          "name": "approveMax",
          "type": "bool"
        },
        {
          "internalType": "uint8",
          "name": "v",
          "type": "uint8"
        },
        {
          "internalType": "bytes32",
          "name": "r",
          "type": "bytes32"
        },
        {
          "internalType": "bytes32",
          "name": "s",
          "type": "bytes32"
        }
      ],
      "name": "removeLiquidityETHWithPermit",
      "outputs": [
        {
          "internalType": "uint256",
          "name": "amountToken",
          "type": "uint256"
        },
        {
          "internalType": "uint256",
          "name": "amountETH",
          "type": "uint256"
        }
      ],
      "stateMutability": "nonpayable",
      "type": "function"
    },
    {
      "inputs": [
        {
          "internalType": "address",
          "name": "token",
          "type": "address"
        },
        {
          "internalType": "uint256",
          "name": "liquidity",
          "type": "uint256"
        },
        {
          "internalType": "uint256",
          "name": "amountTokenMin",
          "type": "uint256"
        },
        {
          "internalType": "uint256",
          "name": "amountETHMin",
          "type": "uint256"
        },
        {
          "internalType": "address",
          "name": "to",
          "type": "address"
        },
        {
          "internalType": "uint256",
          "name": "deadline",
          "type": "uint256"
        },
        {
          "internalType": "bool",
          "name": "approveMax",
          "type": "bool"
        },
        {
          "internalType": "uint8",
          "name": "v",
          "type": "uint8"
        },
        {
          "internalType": "bytes32",
          "name": "r",
          "type": "bytes32"
        },
        {
          "internalType": "bytes32",
          "name": "s",
          "type": "bytes32"
        }
      ],
      "name": "removeLiquidityETHWithPermitSupportingFeeOnTransferTokens",
      "outputs": [
        {
          "internalType": "uint256",
          "name": "amountETH",
          "type": "uint256"
        }
      ],
      "stateMutability": "nonpayable",
      "type": "function"
    },
    {
      "inputs": [
        {
          "internalType": "address",
          "name": "tokenA",
          "type": "address"
        },
        {
          "internalType": "address",
          "name": "tokenB",
          "type": "address"
        },
        {
          "internalType": "uint256",
          "name": "liquidity",
          "type": "uint256"
        },
        {
          "internalType": "uint256",
          "name": "amountAMin",
          "type": "uint256"
        },
        {
          "internalType": "uint256",
          "name": "amountBMin",
          "type": "uint256"
        },
        {
          "internalType": "address",
          "name": "to",
          "type": "address"
        },
        {
          "internalType": "uint256",
          "name": "deadline",
          "type": "uint256"
        },
        {
          "internalType": "bool",
          "name": "approveMax",
          "type": "bool"
        },
        {
          "internalType": "uint8",
          "name": "v",
          "type": "uint8"
        },
        {
          "internalType": "bytes32",
          "name": "r",
          "type": "bytes32"
        },
        {
          "internalType": "bytes32",
          "name": "s",
          "type": "bytes32"
        }
      ],
      "name": "removeLiquidityWithPermit",
      "outputs": [
        {
          "internalType": "uint256",
          "name": "amountA",
          "type": "uint256"
        },
        {
          "internalType": "uint256",
          "name": "amountB",
          "type": "uint256"
        }
      ],
      "stateMutability": "nonpayable",
      "type": "function"
    },
    {
      "inputs": [
        {
          "internalType": "uint256",
          "name": "amountOut",
          "type": "uint256"
        },
        {
          "internalType": "address[]",
          "name": "path",
          "type": "address[]"
        },
        {
          "internalType": "address",
          "name": "to",
          "type": "address"
        },
        {
          "internalType": "uint256",
          "name": "deadline",
          "type": "uint256"
        }
      ],
      "name": "swapETHForExactTokens",
      "outputs": [
        {
          "internalType": "uint256[]",
          "name": "amounts",
          "type": "uint256[]"
        }
      ],
      "stateMutability": "payable",
      "type": "function"
    },
    {
      "inputs": [
        {
          "internalType": "uint256",
          "name": "amountOutMin",
          "type": "uint256"
        },
        {
          "internalType": "address[]",
          "name": "path",
          "type": "address[]"
        },
        {
          "internalType": "address",
          "name": "to",
          "type": "address"
        },
        {
          "internalType": "uint256",
          "name": "deadline",
          "type": "uint256"
        }
      ],
      "name": "swapExactETHForTokens",
      "outputs": [
        {
          "internalType": "uint256[]",
          "name": "amounts",
          "type": "uint256[]"
        }
      ],
      "stateMutability": "payable",
      "type": "function"
    },
    {
      "inputs": [
        {
          "internalType": "uint256",
          "name": "amountOutMin",
          "type": "uint256"
        },
        {
          "internalType": "address[]",
          "name": "path",
          "type": "address[]"
        },
        {
          "internalType": "address",
          "name": "to",
          "type": "address"
        },
        {
          "internalType": "uint256",
          "name": "deadline",
          "type": "uint256"
        }
      ],
      "name": "swapExactETHForTokensSupportingFeeOnTransferTokens",
      "outputs": [],
      "stateMutability": "payable",
      "type": "function"
    },
    {
      "inputs": [
        {
          "internalType": "uint256",
          "name": "amountIn",
          "type": "uint256"
        },
        {
          "internalType": "uint256",
          "name": "amountOutMin",
          "type": "uint256"
        },
        {
          "internalType": "address[]",
          "name": "path",
          "type": "address[]"
        },
        {
          "internalType": "address",
          "name": "to",
          "type": "address"
        },
        {
          "internalType": "uint256",
          "name": "deadline",
          "type": "uint256"
        }
      ],
      "name": "swapExactTokensForETH",
      "outputs": [
        {
          "internalType": "uint256[]",
          "name": "amounts",
          "type": "uint256[]"
        }
      ],
      "stateMutability": "nonpayable",
      "type": "function"
    },
    {
      "inputs": [
        {
          "internalType": "uint256",
          "name": "amountIn",
          "type": "uint256"
        },
        {
          "internalType": "uint256",
          "name": "amountOutMin",
          "type": "uint256"
        },
        {
          "internalType": "address[]",
          "name": "path",
          "type": "address[]"
        },
        {
          "internalType": "address",
          "name": "to",
          "type": "address"
        },
        {
          "internalType": "uint256",
          "name": "deadline",
          "type": "uint256"
        }
      ],
      "name": "swapExactTokensForETHSupportingFeeOnTransferTokens",
      "outputs": [],
      "stateMutability": "nonpayable",
      "type": "function"
    },
    {
      "inputs": [
        {
          "internalType": "uint256",
          "name": "amountIn",
          "type": "uint256"
        },
        {
          "internalType": "uint256",
          "name": "amountOutMin",
          "type": "uint256"
        },
        {
          "internalType": "address[]",
          "name": "path",
          "type": "address[]"
        },
        {
          "internalType": "address",
          "name": "to",
          "type": "address"
        },
        {
          "internalType": "uint256",
          "name": "deadline",
          "type": "uint256"
        }
      ],
      "name": "swapExactTokensForTokens",
      "outputs": [
        {
          "internalType": "uint256[]",
          "name": "amounts",
          "type": "uint256[]"
        }
      ],
      "stateMutability": "nonpayable",
      "type": "function"
    },
    {
      "inputs": [
        {
          "internalType": "uint256",
          "name": "amountIn",
          "type": "uint256"
        },
        {
          "internalType": "uint256",
          "name": "amountOutMin",
          "type": "uint256"
        },
        {
          "internalType": "address[]",
          "name": "path",
          "type": "address[]"
        },
        {
          "internalType": "address",
          "name": "to",
          "type": "address"
        },
        {
          "internalType": "uint256",
          "name": "deadline",
          "type": "uint256"
        }
      ],
      "name": "swapExactTokensForTokensSupportingFeeOnTransferTokens",
      "outputs": [],
      "stateMutability": "nonpayable",
      "type": "function"
    },
    {
      "inputs": [
        {
          "internalType": "uint256",
          "name": "amountOut",
          "type": "uint256"
        },
        {
          "internalType": "uint256",
          "name": "amountInMax",
          "type": "uint256"
        },
        {
          "internalType": "address[]",
          "name": "path",
          "type": "address[]"
        },
        {
          "internalType": "address",
          "name": "to",
          "type": "address"
        },
        {
          "internalType": "uint256",
          "name": "deadline",
          "type": "uint256"
        }
      ],
      "name": "swapTokensForExactETH",
      "outputs": [
        {
          "internalType": "uint256[]",
          "name": "amounts",
          "type": "uint256[]"
        }
      ],
      "stateMutability": "nonpayable",
      "type": "function"
    },
    {
      "inputs": [
        {
          "internalType": "uint256",
          "name": "amountOut",
          "type": "uint256"
        },
        {
          "internalType": "uint256",
          "name": "amountInMax",
          "type": "uint256"
        },
        {
          "internalType": "address[]",
          "name": "path",
          "type": "address[]"
        },
        {
          "internalType": "address",
          "name": "to",
          "type": "address"
        },
        {
          "internalType": "uint256",
          "name": "deadline",
          "type": "uint256"
        }
      ],
      "name": "swapTokensForExactTokens",
      "outputs": [
        {
          "internalType": "uint256[]",
          "name": "amounts",
          "type": "uint256[]"
        }
      ],
      "stateMutability": "nonpayable",
      "type": "function"
    },
    {
      "stateMutability": "payable",
      "type": "receive"
    }
  ],
  "bytecode": "0x60c060405234801561001057600080fd5b50604051620048e0380380620048e08339818101604052604081101561003557600080fd5b5080516020909101516001600160601b0319606092831b8116608052911b1660a05260805160601c60a05160601c6147516200018f6000398061017a5280610d425280610d7d5280610e745280611092528061153e52806116a45280611a6b5280611b655280611c1b5280611ce95280611e2f5280611eb752806120fc5280612177528061222652806122f2528061238752806123fb52806128f95280612b6c5280612bc25280612bf65280612c6a5280612e0a5280612f4d5280612fd5525080610f025280610fd9528061115852806111915280611286528061136152806113ee52806115cc528061168252806117f25280611d7c5280611ee9528061204c528061242d5280612686528061287e52806128a752806128d75280612a445280612ba05280612e9d528061300752806138a452806138e75280613d495280613ec8528061424a52806142f8528061437852506147516000f3fe60806040526004361061016a5760003560e01c806385f8c259116100d1578063baa2abde1161008a578063ded9382a11610064578063ded9382a14610b38578063e8e3370014610bab578063f305d71914610c2b578063fb3bdb4114610c71576101a3565b8063baa2abde14610a11578063c45a015514610a6e578063d06ca61f14610a83576101a3565b806385f8c259146108075780638803dbee1461083d578063ad5c4648146108d3578063ad615dec14610904578063af2979eb1461093a578063b6f9de951461098d576101a3565b806338ed17391161012357806338ed1739146104b85780634a25d94a1461054e5780635b0d5984146105e45780635c11d79514610657578063791ac947146106ed5780637ff36ab514610783576101a3565b806302751cec146101a8578063054d50d41461021457806318cbafe51461025c5780631f00ca74146103425780632195995c146103f75780632c7f814414610475576101a3565b366101a357336001600160a01b037f000000000000000000000000000000000000000000000000000000000000000016146101a157fe5b005b600080fd5b3480156101b457600080fd5b506101fb600480360360c08110156101cb57600080fd5b506001600160a01b0381358116916020810135916040820135916060810135916080820135169060a00135610cf5565b6040805192835260208301919091528051918290030190f35b34801561022057600080fd5b5061024a6004803603606081101561023757600080fd5b5080359060208101359060400135610e0f565b60408051918252519081900360200190f35b34801561026857600080fd5b506102f2600480360360a081101561027f57600080fd5b813591602081013591810190606081016040820135600160201b8111156102a557600080fd5b8201836020820111156102b757600080fd5b803590602001918460208302840111600160201b831117156102d857600080fd5b91935091506001600160a01b038135169060200135610e24565b60408051602080825283518183015283519192839290830191858101910280838360005b8381101561032e578181015183820152602001610316565b505050509050019250505060405180910390f35b34801561034e57600080fd5b506102f26004803603604081101561036557600080fd5b81359190810190604081016020820135600160201b81111561038657600080fd5b82018360208201111561039857600080fd5b803590602001918460208302840111600160201b831117156103b957600080fd5b919080806020026020016040519081016040528093929190818152602001838360200280828437600092019190915250929550611151945050505050565b34801561040357600080fd5b506101fb600480360361016081101561041b57600080fd5b506001600160a01b038135811691602081013582169160408201359160608101359160808201359160a08101359091169060c08101359060e081013515159060ff6101008201351690610120810135906101400135611187565b34801561048157600080fd5b5061024a6004803603606081101561049857600080fd5b506001600160a01b03813581169160208101359091169060400135611281565b3480156104c457600080fd5b506102f2600480360360a08110156104db57600080fd5b813591602081013591810190606081016040820135600160201b81111561050157600080fd5b82018360208201111561051357600080fd5b803590602001918460208302840111600160201b8311171561053457600080fd5b91935091506001600160a01b0381351690602001356113a3565b34801561055a57600080fd5b506102f2600480360360a081101561057157600080fd5b813591602081013591810190606081016040820135600160201b81111561059757600080fd5b8201836020820111156105a957600080fd5b803590602001918460208302840111600160201b831117156105ca57600080fd5b91935091506001600160a01b0381351690602001356114ee565b3480156105f057600080fd5b5061024a600480360361014081101561060857600080fd5b506001600160a01b0381358116916020810135916040820135916060810135916080820135169060a08101359060c081013515159060ff60e0820135169061010081013590610120013561167a565b34801561066357600080fd5b506101a1600480360360a081101561067a57600080fd5b813591602081013591810190606081016040820135600160201b8111156106a057600080fd5b8201836020820111156106b257600080fd5b803590602001918460208302840111600160201b831117156106d357600080fd5b91935091506001600160a01b038135169060200135611788565b3480156106f957600080fd5b506101a1600480360360a081101561071057600080fd5b813591602081013591810190606081016040820135600160201b81111561073657600080fd5b82018360208201111561074857600080fd5b803590602001918460208302840111600160201b8311171561076957600080fd5b91935091506001600160a01b038135169060200135611a1d565b6102f26004803603608081101561079957600080fd5b81359190810190604081016020820135600160201b8111156107ba57600080fd5b8201836020820111156107cc57600080fd5b803590602001918460208302840111600160201b831117156107ed57600080fd5b91935091506001600160a01b038135169060200135611ca1565b34801561081357600080fd5b5061024a6004803603606081101561082a57600080fd5b5080359060208101359060400135611ff4565b34801561084957600080fd5b506102f2600480360360a081101561086057600080fd5b813591602081013591810190606081016040820135600160201b81111561088657600080fd5b82018360208201111561089857600080fd5b803590602001918460208302840111600160201b831117156108b957600080fd5b91935091506001600160a01b038135169060200135612001565b3480156108df57600080fd5b506108e86120fa565b604080516001600160a01b039092168252519081900360200190f35b34801561091057600080fd5b5061024a6004803603606081101561092757600080fd5b508035906020810135906040013561211e565b34801561094657600080fd5b5061024a600480360360c081101561095d57600080fd5b506001600160a01b0381358116916020810135916040820135916060810135916080820135169060a0013561212b565b6101a1600480360360808110156109a357600080fd5b81359190810190604081016020820135600160201b8111156109c457600080fd5b8201836020820111156109d657600080fd5b803590602001918460208302840111600160201b831117156109f757600080fd5b91935091506001600160a01b0381351690602001356122ac565b348015610a1d57600080fd5b506101fb600480360360e0811015610a3457600080fd5b506001600160a01b038135811691602081013582169160408201359160608101359160808201359160a08101359091169060c00135612638565b348015610a7a57600080fd5b506108e861287c565b348015610a8f57600080fd5b506102f260048036036040811015610aa657600080fd5b81359190810190604081016020820135600160201b811115610ac757600080fd5b820183602082011115610ad957600080fd5b803590602001918460208302840111600160201b83111715610afa57600080fd5b9190808060200260200160405190810160405280939291908181526020018383602002808284376000920191909152509295506128a0945050505050565b348015610b4457600080fd5b506101fb6004803603610140811015610b5c57600080fd5b506001600160a01b0381358116916020810135916040820135916060810135916080820135169060a08101359060c081013515159060ff60e082013516906101008101359061012001356128cd565b348015610bb757600080fd5b50610c0d6004803603610100811015610bcf57600080fd5b506001600160a01b038135811691602081013582169160408201359160608101359160808201359160a08101359160c0820135169060e001356129e1565b60408051938452602084019290925282820152519081900360600190f35b610c0d600480360360c0811015610c4157600080fd5b506001600160a01b0381358116916020810135916040820135916060810135916080820135169060a00135612b1d565b6102f260048036036080811015610c8757600080fd5b81359190810190604081016020820135600160201b811115610ca857600080fd5b820183602082011115610cba57600080fd5b803590602001918460208302840111600160201b83111715610cdb57600080fd5b91935091506001600160a01b038135169060200135612dc2565b6000808242811015610d3c576040805162461bcd60e51b815260206004820152601660248201526000805160206145f5833981519152604482015290519081900360640190fd5b610d6b897f00000000000000000000000000000000000000000000000000000000000000008a8a8a308a612638565b9093509150610d7b898685613144565b7f00000000000000000000000000000000000000000000000000000000000000006001600160a01b0316632e1a7d4d836040518263ffffffff1660e01b815260040180828152602001915050600060405180830381600087803b158015610de157600080fd5b505af1158015610df5573d6000803e3d6000fd5b50505050610e0385836132ae565b50965096945050505050565b6000610e1c8484846133a6565b949350505050565b60608142811015610e6a576040805162461bcd60e51b815260206004820152601660248201526000805160206145f5833981519152604482015290519081900360640190fd5b6001600160a01b037f00000000000000000000000000000000000000000000000000000000000000001686866000198101818110610ea457fe5b905060200201356001600160a01b03166001600160a01b031614610efd576040805162461bcd60e51b815260206004820152601b60248201526000805160206145d5833981519152604482015290519081900360640190fd5b610f5b7f00000000000000000000000000000000000000000000000000000000000000008988888080602002602001604051908101604052809392919081815260200183836020028082843760009201919091525061349492505050565b91508682600184510381518110610f6e57fe5b60200260200101511015610fb35760405162461bcd60e51b81526004018080602001828103825260298152602001806146156029913960400191505060405180910390fd5b61105186866000818110610fc357fe5b905060200201356001600160a01b0316336110377f00000000000000000000000000000000000000000000000000000000000000008a8a600081811061100557fe5b905060200201356001600160a01b03168b8b600181811061102257fe5b905060200201356001600160a01b03166135d8565b8560008151811061104457fe5b6020026020010151613698565b611090828787808060200260200160405190810160405280939291908181526020018383602002808284376000920191909152503092506137f5915050565b7f00000000000000000000000000000000000000000000000000000000000000006001600160a01b0316632e1a7d4d836001855103815181106110cf57fe5b60200260200101516040518263ffffffff1660e01b815260040180828152602001915050600060405180830381600087803b15801561110d57600080fd5b505af1158015611121573d6000803e3d6000fd5b50505050611146848360018551038151811061113957fe5b60200260200101516132ae565b509695505050505050565b606061117e7f00000000000000000000000000000000000000000000000000000000000000008484613a3b565b90505b92915050565b60008060006111b77f00000000000000000000000000000000000000000000000000000000000000008f8f6135d8565b90506000876111c6578c6111ca565b6000195b6040805163d505accf60e01b815233600482015230602482015260448101839052606481018c905260ff8a16608482015260a4810189905260c4810188905290519192506001600160a01b0384169163d505accf9160e48082019260009290919082900301818387803b15801561124057600080fd5b505af1158015611254573d6000803e3d6000fd5b505050506112678f8f8f8f8f8f8f612638565b809450819550505050509b509b9950505050505050505050565b6000807f00000000000000000000000000000000000000000000000000000000000000006001600160a01b031663e6a4390586866040518363ffffffff1660e01b815260040180836001600160a01b03166001600160a01b03168152602001826001600160a01b03166001600160a01b031681526020019250505060206040518083038186803b15801561131457600080fd5b505afa158015611328573d6000803e3d6000fd5b505050506040513d602081101561133e57600080fd5b505190506001600160a01b038116611359576000915061139b565b6000806113877f00000000000000000000000000000000000000000000000000000000000000008888613b73565b91509150611396858383613c46565b935050505b509392505050565b606081428110156113e9576040805162461bcd60e51b815260206004820152601660248201526000805160206145f5833981519152604482015290519081900360640190fd5b6114477f00000000000000000000000000000000000000000000000000000000000000008988888080602002602001604051908101604052809392919081815260200183836020028082843760009201919091525061349492505050565b9150868260018451038151811061145a57fe5b6020026020010151101561149f5760405162461bcd60e51b81526004018080602001828103825260298152602001806146156029913960400191505060405180910390fd5b6114af86866000818110610fc357fe5b611146828787808060200260200160405190810160405280939291908181526020018383602002808284376000920191909152508992506137f5915050565b60608142811015611534576040805162461bcd60e51b815260206004820152601660248201526000805160206145f5833981519152604482015290519081900360640190fd5b6001600160a01b037f0000000000000000000000000000000000000000000000000000000000000000168686600019810181811061156e57fe5b905060200201356001600160a01b03166001600160a01b0316146115c7576040805162461bcd60e51b815260206004820152601b60248201526000805160206145d5833981519152604482015290519081900360640190fd5b6116257f000000000000000000000000000000000000000000000000000000000000000089888880806020026020016040519081016040528093929190818152602001838360200280828437600092019190915250613a3b92505050565b9150868260008151811061163557fe5b60200260200101511115610fb35760405162461bcd60e51b815260040180806020018281038252602581526020018061468a6025913960400191505060405180910390fd5b6000806116c87f00000000000000000000000000000000000000000000000000000000000000008d7f00000000000000000000000000000000000000000000000000000000000000006135d8565b90506000866116d7578b6116db565b6000195b6040805163d505accf60e01b815233600482015230602482015260448101839052606481018b905260ff8916608482015260a4810188905260c4810187905290519192506001600160a01b0384169163d505accf9160e48082019260009290919082900301818387803b15801561175157600080fd5b505af1158015611765573d6000803e3d6000fd5b505050506117778d8d8d8d8d8d61212b565b9d9c50505050505050505050505050565b80428110156117cc576040805162461bcd60e51b815260206004820152601660248201526000805160206145f5833981519152604482015290519081900360640190fd5b611841858560008181106117dc57fe5b905060200201356001600160a01b03163361183b7f00000000000000000000000000000000000000000000000000000000000000008989600081811061181e57fe5b905060200201356001600160a01b03168a8a600181811061102257fe5b8a613698565b60008585600019810181811061185357fe5b905060200201356001600160a01b03166001600160a01b03166370a08231856040518263ffffffff1660e01b815260040180826001600160a01b03166001600160a01b0316815260200191505060206040518083038186803b1580156118b857600080fd5b505afa1580156118cc573d6000803e3d6000fd5b505050506040513d60208110156118e257600080fd5b50516040805160208881028281018201909352888252929350611924929091899189918291850190849080828437600092019190915250889250613cf2915050565b866119d6828888600019810181811061193957fe5b905060200201356001600160a01b03166001600160a01b03166370a08231886040518263ffffffff1660e01b815260040180826001600160a01b03166001600160a01b0316815260200191505060206040518083038186803b15801561199e57600080fd5b505afa1580156119b2573d6000803e3d6000fd5b505050506040513d60208110156119c857600080fd5b50519063ffffffff613ffd16565b1015611a135760405162461bcd60e51b81526004018080602001828103825260298152602001806146156029913960400191505060405180910390fd5b5050505050505050565b8042811015611a61576040805162461bcd60e51b815260206004820152601660248201526000805160206145f5833981519152604482015290519081900360640190fd5b6001600160a01b037f00000000000000000000000000000000000000000000000000000000000000001685856000198101818110611a9b57fe5b905060200201356001600160a01b03166001600160a01b031614611af4576040805162461bcd60e51b815260206004820152601b60248201526000805160206145d5833981519152604482015290519081900360640190fd5b611b04858560008181106117dc57fe5b611b42858580806020026020016040519081016040528093929190818152602001838360200280828437600092019190915250309250613cf2915050565b604080516370a0823160e01b815230600482015290516000916001600160a01b037f000000000000000000000000000000000000000000000000000000000000000016916370a0823191602480820192602092909190829003018186803b158015611bac57600080fd5b505afa158015611bc0573d6000803e3d6000fd5b505050506040513d6020811015611bd657600080fd5b5051905086811015611c195760405162461bcd60e51b81526004018080602001828103825260298152602001806146156029913960400191505060405180910390fd5b7f00000000000000000000000000000000000000000000000000000000000000006001600160a01b0316632e1a7d4d826040518263ffffffff1660e01b815260040180828152602001915050600060405180830381600087803b158015611c7f57600080fd5b505af1158015611c93573d6000803e3d6000fd5b50505050611a1384826132ae565b60608142811015611ce7576040805162461bcd60e51b815260206004820152601660248201526000805160206145f5833981519152604482015290519081900360640190fd5b7f00000000000000000000000000000000000000000000000000000000000000006001600160a01b031686866000818110611d1e57fe5b905060200201356001600160a01b03166001600160a01b031614611d77576040805162461bcd60e51b815260206004820152601b60248201526000805160206145d5833981519152604482015290519081900360640190fd5b611dd57f00000000000000000000000000000000000000000000000000000000000000003488888080602002602001604051908101604052809392919081815260200183836020028082843760009201919091525061349492505050565b91508682600184510381518110611de857fe5b60200260200101511015611e2d5760405162461bcd60e51b81526004018080602001828103825260298152602001806146156029913960400191505060405180910390fd5b7f00000000000000000000000000000000000000000000000000000000000000006001600160a01b031663d0e30db083600081518110611e6957fe5b60200260200101516040518263ffffffff1660e01b81526004016000604051808303818588803b158015611e9c57600080fd5b505af1158015611eb0573d6000803e3d6000fd5b50505050507f00000000000000000000000000000000000000000000000000000000000000006001600160a01b031663a9059cbb611f157f00000000000000000000000000000000000000000000000000000000000000008989600081811061181e57fe5b84600081518110611f2257fe5b60200260200101516040518363ffffffff1660e01b815260040180836001600160a01b03166001600160a01b0316815260200182815260200192505050602060405180830381600087803b158015611f7957600080fd5b505af1158015611f8d573d6000803e3d6000fd5b505050506040513d6020811015611fa357600080fd5b5051611fab57fe5b611fea828787808060200260200160405190810160405280939291908181526020018383602002808284376000920191909152508992506137f5915050565b5095945050505050565b6000610e1c84848461404d565b60608142811015612047576040805162461bcd60e51b815260206004820152601660248201526000805160206145f5833981519152604482015290519081900360640190fd5b6120a57f000000000000000000000000000000000000000000000000000000000000000089888880806020026020016040519081016040528093929190818152602001838360200280828437600092019190915250613a3b92505050565b915086826000815181106120b557fe5b6020026020010151111561149f5760405162461bcd60e51b815260040180806020018281038252602581526020018061468a6025913960400191505060405180910390fd5b7f000000000000000000000000000000000000000000000000000000000000000081565b6000610e1c848484613c46565b60008142811015612171576040805162461bcd60e51b815260206004820152601660248201526000805160206145f5833981519152604482015290519081900360640190fd5b6121a0887f00000000000000000000000000000000000000000000000000000000000000008989893089612638565b604080516370a0823160e01b8152306004820152905191945061222492508a9187916001600160a01b038416916370a0823191602480820192602092909190829003018186803b1580156121f357600080fd5b505afa158015612207573d6000803e3d6000fd5b505050506040513d602081101561221d57600080fd5b5051613144565b7f00000000000000000000000000000000000000000000000000000000000000006001600160a01b0316632e1a7d4d836040518263ffffffff1660e01b815260040180828152602001915050600060405180830381600087803b15801561228a57600080fd5b505af115801561229e573d6000803e3d6000fd5b5050505061114684836132ae565b80428110156122f0576040805162461bcd60e51b815260206004820152601660248201526000805160206145f5833981519152604482015290519081900360640190fd5b7f00000000000000000000000000000000000000000000000000000000000000006001600160a01b03168585600081811061232757fe5b905060200201356001600160a01b03166001600160a01b031614612380576040805162461bcd60e51b815260206004820152601b60248201526000805160206145d5833981519152604482015290519081900360640190fd5b60003490507f00000000000000000000000000000000000000000000000000000000000000006001600160a01b031663d0e30db0826040518263ffffffff1660e01b81526004016000604051808303818588803b1580156123e057600080fd5b505af11580156123f4573d6000803e3d6000fd5b50505050507f00000000000000000000000000000000000000000000000000000000000000006001600160a01b031663a9059cbb6124597f00000000000000000000000000000000000000000000000000000000000000008989600081811061181e57fe5b836040518363ffffffff1660e01b815260040180836001600160a01b03166001600160a01b0316815260200182815260200192505050602060405180830381600087803b1580156124a957600080fd5b505af11580156124bd573d6000803e3d6000fd5b505050506040513d60208110156124d357600080fd5b50516124db57fe5b6000868660001981018181106124ed57fe5b905060200201356001600160a01b03166001600160a01b03166370a08231866040518263ffffffff1660e01b815260040180826001600160a01b03166001600160a01b0316815260200191505060206040518083038186803b15801561255257600080fd5b505afa158015612566573d6000803e3d6000fd5b505050506040513d602081101561257c57600080fd5b505160408051602089810282810182019093528982529293506125be9290918a918a918291850190849080828437600092019190915250899250613cf2915050565b876119d682898960001981018181106125d357fe5b905060200201356001600160a01b03166001600160a01b03166370a08231896040518263ffffffff1660e01b815260040180826001600160a01b03166001600160a01b0316815260200191505060206040518083038186803b15801561199e57600080fd5b600080824281101561267f576040805162461bcd60e51b815260206004820152601660248201526000805160206145f5833981519152604482015290519081900360640190fd5b60006126ac7f00000000000000000000000000000000000000000000000000000000000000008c8c6135d8565b604080516323b872dd60e01b81523360048201526001600160a01b03831660248201819052604482018d9052915192935090916323b872dd916064808201926020929091908290030181600087803b15801561270757600080fd5b505af115801561271b573d6000803e3d6000fd5b505050506040513d602081101561273157600080fd5b50506040805163226bf2d160e21b81526001600160a01b03888116600483015282516000938493928616926389afcb44926024808301939282900301818787803b15801561277e57600080fd5b505af1158015612792573d6000803e3d6000fd5b505050506040513d60408110156127a857600080fd5b508051602090910151909250905060006127c28e8e61413b565b509050806001600160a01b03168e6001600160a01b0316146127e55781836127e8565b82825b90975095508a87101561282c5760405162461bcd60e51b81526004018080602001828103825260248152602001806145876024913960400191505060405180910390fd5b8986101561286b5760405162461bcd60e51b81526004018080602001828103825260248152602001806145636024913960400191505060405180910390fd5b505050505097509795505050505050565b7f000000000000000000000000000000000000000000000000000000000000000081565b606061117e7f00000000000000000000000000000000000000000000000000000000000000008484613494565b600080600061291d7f00000000000000000000000000000000000000000000000000000000000000008e7f00000000000000000000000000000000000000000000000000000000000000006135d8565b905060008761292c578c612930565b6000195b6040805163d505accf60e01b815233600482015230602482015260448101839052606481018c905260ff8a16608482015260a4810189905260c4810188905290519192506001600160a01b0384169163d505accf9160e48082019260009290919082900301818387803b1580156129a657600080fd5b505af11580156129ba573d6000803e3d6000fd5b505050506129cc8e8e8e8e8e8e610cf5565b909f909e509c50505050505050505050505050565b60008060008342811015612a2a576040805162461bcd60e51b815260206004820152601660248201526000805160206145f5833981519152604482015290519081900360640190fd5b612a388c8c8c8c8c8c614219565b90945092506000612a6a7f00000000000000000000000000000000000000000000000000000000000000008e8e6135d8565b9050612a788d338388613698565b612a848c338387613698565b806001600160a01b0316636a627842886040518263ffffffff1660e01b815260040180826001600160a01b03166001600160a01b03168152602001915050602060405180830381600087803b158015612adc57600080fd5b505af1158015612af0573d6000803e3d6000fd5b505050506040513d6020811015612b0657600080fd5b5051949d939c50939a509198505050505050505050565b60008060008342811015612b66576040805162461bcd60e51b815260206004820152601660248201526000805160206145f5833981519152604482015290519081900360640190fd5b612b948a7f00000000000000000000000000000000000000000000000000000000000000008b348c8c614219565b90945092506000612be67f00000000000000000000000000000000000000000000000000000000000000008c7f00000000000000000000000000000000000000000000000000000000000000006135d8565b9050612bf48b338388613698565b7f00000000000000000000000000000000000000000000000000000000000000006001600160a01b031663d0e30db0856040518263ffffffff1660e01b81526004016000604051808303818588803b158015612c4f57600080fd5b505af1158015612c63573d6000803e3d6000fd5b50505050507f00000000000000000000000000000000000000000000000000000000000000006001600160a01b031663a9059cbb82866040518363ffffffff1660e01b815260040180836001600160a01b03166001600160a01b0316815260200182815260200192505050602060405180830381600087803b158015612ce857600080fd5b505af1158015612cfc573d6000803e3d6000fd5b505050506040513d6020811015612d1257600080fd5b5051612d1a57fe5b806001600160a01b0316636a627842886040518263ffffffff1660e01b815260040180826001600160a01b03166001600160a01b03168152602001915050602060405180830381600087803b158015612d7257600080fd5b505af1158015612d86573d6000803e3d6000fd5b505050506040513d6020811015612d9c57600080fd5b5051925034841015612db457612db4338534036132ae565b505096509650969350505050565b60608142811015612e08576040805162461bcd60e51b815260206004820152601660248201526000805160206145f5833981519152604482015290519081900360640190fd5b7f00000000000000000000000000000000000000000000000000000000000000006001600160a01b031686866000818110612e3f57fe5b905060200201356001600160a01b03166001600160a01b031614612e98576040805162461bcd60e51b815260206004820152601b60248201526000805160206145d5833981519152604482015290519081900360640190fd5b612ef67f000000000000000000000000000000000000000000000000000000000000000088888880806020026020016040519081016040528093929190818152602001838360200280828437600092019190915250613a3b92505050565b91503482600081518110612f0657fe5b60200260200101511115612f4b5760405162461bcd60e51b815260040180806020018281038252602581526020018061468a6025913960400191505060405180910390fd5b7f00000000000000000000000000000000000000000000000000000000000000006001600160a01b031663d0e30db083600081518110612f8757fe5b60200260200101516040518263ffffffff1660e01b81526004016000604051808303818588803b158015612fba57600080fd5b505af1158015612fce573d6000803e3d6000fd5b50505050507f00000000000000000000000000000000000000000000000000000000000000006001600160a01b031663a9059cbb6130337f00000000000000000000000000000000000000000000000000000000000000008989600081811061181e57fe5b8460008151811061304057fe5b60200260200101516040518363ffffffff1660e01b815260040180836001600160a01b03166001600160a01b0316815260200182815260200192505050602060405180830381600087803b15801561309757600080fd5b505af11580156130ab573d6000803e3d6000fd5b505050506040513d60208110156130c157600080fd5b50516130c957fe5b613108828787808060200260200160405190810160405280939291908181526020018383602002808284376000920191909152508992506137f5915050565b8160008151811061311557fe5b6020026020010151341115611fea57611fea338360008151811061313557fe5b602002602001015134036132ae565b604080516001600160a01b038481166024830152604480830185905283518084039091018152606490920183526020820180516001600160e01b031663a9059cbb60e01b178152925182516000946060949389169392918291908083835b602083106131c15780518252601f1990920191602091820191016131a2565b6001836020036101000a0380198251168184511680821785525050505050509050019150506000604051808303816000865af19150503d8060008114613223576040519150601f19603f3d011682016040523d82523d6000602084013e613228565b606091505b5091509150818015613256575080511580613256575080806020019051602081101561325357600080fd5b50515b6132a7576040805162461bcd60e51b815260206004820152601f60248201527f5472616e7366657248656c7065723a205452414e534645525f4641494c454400604482015290519081900360640190fd5b5050505050565b604080516000808252602082019092526001600160a01b0384169083906040518082805190602001908083835b602083106132fa5780518252601f1990920191602091820191016132db565b6001836020036101000a03801982511681845116808217855250505050505090500191505060006040518083038185875af1925050503d806000811461335c576040519150601f19603f3d011682016040523d82523d6000602084013e613361565b606091505b50509050806133a15760405162461bcd60e51b815260040180806020018281038252602381526020018061463e6023913960400191505060405180910390fd5b505050565b60008084116133e65760405162461bcd60e51b81526004018080602001828103825260298152602001806146616029913960400191505060405180910390fd5b6000831180156133f65750600082115b6134315760405162461bcd60e51b81526004018080602001828103825260268152602001806146d36026913960400191505060405180910390fd5b600061344485606363ffffffff61448d16565b90506000613458828563ffffffff61448d16565b9050600061347d8361347188606463ffffffff61448d16565b9063ffffffff6144f016565b905080828161348857fe5b04979650505050505050565b60606002825110156134ed576040805162461bcd60e51b815260206004820152601c60248201527f596f63737761704c6962726172793a20494e56414c49445f5041544800000000604482015290519081900360640190fd5b815167ffffffffffffffff8111801561350557600080fd5b5060405190808252806020026020018201604052801561352f578160200160208202803683370190505b509050828160008151811061354057fe5b60200260200101818152505060005b600183510381101561139b576000806135928786858151811061356e57fe5b602002602001015187866001018151811061358557fe5b6020026020010151613b73565b915091506135b48484815181106135a557fe5b602002602001015183836133a6565b8484600101815181106135c357fe5b6020908102919091010152505060010161354f565b60008060006135e7858561413b565b604080516bffffffffffffffffffffffff19606094851b811660208084019190915293851b81166034830152825160288184030181526048830184528051908501206001600160f81b031960688401529a90941b9093166069840152607d8301989098527f1ec438fe434b467aaad1b84368901098ae64185deafae82bd83cc606dffff3e8609d808401919091528851808403909101815260bd909201909752805196019590952095945050505050565b604080516001600160a01b0385811660248301528481166044830152606480830185905283518084039091018152608490920183526020820180516001600160e01b03166323b872dd60e01b17815292518251600094606094938a169392918291908083835b6020831061371d5780518252601f1990920191602091820191016136fe565b6001836020036101000a0380198251168184511680821785525050505050509050019150506000604051808303816000865af19150503d806000811461377f576040519150601f19603f3d011682016040523d82523d6000602084013e613784565b606091505b50915091508180156137b25750805115806137b257508080602001905160208110156137af57600080fd5b50515b6137ed5760405162461bcd60e51b81526004018080602001828103825260248152602001806146af6024913960400191505060405180910390fd5b505050505050565b60005b6001835103811015613a355760008084838151811061381357fe5b602002602001015185846001018151811061382a57fe5b6020026020010151915091506000613842838361413b565b509050600087856001018151811061385657fe5b60200260200101519050600080836001600160a01b0316866001600160a01b03161461388457826000613888565b6000835b91509150600060028a5103881061389f57886138e0565b6138e07f0000000000000000000000000000000000000000000000000000000000000000878c8b600201815181106138d357fe5b60200260200101516135d8565b905061390d7f000000000000000000000000000000000000000000000000000000000000000088886135d8565b6001600160a01b031663022c0d9f84848460006040519080825280601f01601f19166020018201604052801561394a576020820181803683370190505b506040518563ffffffff1660e01b815260040180858152602001848152602001836001600160a01b03166001600160a01b0316815260200180602001828103825283818151815260200191508051906020019080838360005b838110156139bb5781810151838201526020016139a3565b50505050905090810190601f1680156139e85780820380516001836020036101000a031916815260200191505b5095505050505050600060405180830381600087803b158015613a0a57600080fd5b505af1158015613a1e573d6000803e3d6000fd5b5050600190990198506137f8975050505050505050565b50505050565b6060600282511015613a94576040805162461bcd60e51b815260206004820152601c60248201527f596f63737761704c6962726172793a20494e56414c49445f5041544800000000604482015290519081900360640190fd5b815167ffffffffffffffff81118015613aac57600080fd5b50604051908082528060200260200182016040528015613ad6578160200160208202803683370190505b5090508281600183510381518110613aea57fe5b60209081029190910101528151600019015b801561139b57600080613b2c87866001860381518110613b1857fe5b602002602001015187868151811061358557fe5b91509150613b4e848481518110613b3f57fe5b6020026020010151838361404d565b846001850381518110613b5d57fe5b6020908102919091010152505060001901613afc565b6000806000613b82858561413b565b509050613b908686866135d8565b50600080613b9f8888886135d8565b6001600160a01b0316630902f1ac6040518163ffffffff1660e01b815260040160606040518083038186803b158015613bd757600080fd5b505afa158015613beb573d6000803e3d6000fd5b505050506040513d6060811015613c0157600080fd5b5080516020909101516001600160701b0391821693501690506001600160a01b0387811690841614613c34578082613c37565b81815b90999098509650505050505050565b6000808411613c865760405162461bcd60e51b81526004018080602001828103825260238152602001806145406023913960400191505060405180910390fd5b600083118015613c965750600082115b613cd15760405162461bcd60e51b81526004018080602001828103825260268152602001806146d36026913960400191505060405180910390fd5b82613ce2858463ffffffff61448d16565b81613ce957fe5b04949350505050565b60005b60018351038110156133a157600080848381518110613d1057fe5b6020026020010151858460010181518110613d2757fe5b6020026020010151915091506000613d3f838361413b565b5090506000613d6f7f000000000000000000000000000000000000000000000000000000000000000085856135d8565b9050600080600080846001600160a01b0316630902f1ac6040518163ffffffff1660e01b815260040160606040518083038186803b158015613db057600080fd5b505afa158015613dc4573d6000803e3d6000fd5b505050506040513d6060811015613dda57600080fd5b5080516020909101516001600160701b0391821693501690506000806001600160a01b038a811690891614613e10578284613e13565b83835b91509150613e71828b6001600160a01b03166370a082318a6040518263ffffffff1660e01b815260040180826001600160a01b03166001600160a01b0316815260200191505060206040518083038186803b15801561199e57600080fd5b9550613e7e8683836133a6565b945050505050600080856001600160a01b0316886001600160a01b031614613ea857826000613eac565b6000835b91509150600060028c51038a10613ec3578a613ef7565b613ef77f0000000000000000000000000000000000000000000000000000000000000000898e8d600201815181106138d357fe5b604080516000808252602082019283905263022c0d9f60e01b835260248201878152604483018790526001600160a01b038086166064850152608060848501908152845160a48601819052969750908c169563022c0d9f958a958a958a9591949193919260c486019290918190849084905b83811015613f81578181015183820152602001613f69565b50505050905090810190601f168015613fae5780820380516001836020036101000a031916815260200191505b5095505050505050600060405180830381600087803b158015613fd057600080fd5b505af1158015613fe4573d6000803e3d6000fd5b50506001909b019a50613cf59950505050505050505050565b80820382811115611181576040805162461bcd60e51b815260206004820152601560248201527464732d6d6174682d7375622d756e646572666c6f7760581b604482015290519081900360640190fd5b600080841161408d5760405162461bcd60e51b815260040180806020018281038252602a8152602001806145ab602a913960400191505060405180910390fd5b60008311801561409d5750600082115b6140d85760405162461bcd60e51b81526004018080602001828103825260268152602001806146d36026913960400191505060405180910390fd5b60006140fb60646140ef868863ffffffff61448d16565b9063ffffffff61448d16565b9050600061411460636140ef868963ffffffff613ffd16565b9050614131600182848161412457fe5b049063ffffffff6144f016565b9695505050505050565b600080826001600160a01b0316846001600160a01b0316141561418f5760405162461bcd60e51b81526004018080602001828103825260238152602001806146f96023913960400191505060405180910390fd5b826001600160a01b0316846001600160a01b0316106141af5782846141b2565b83835b90925090506001600160a01b038216614212576040805162461bcd60e51b815260206004820152601c60248201527f596f63737761704c6962726172793a205a45524f5f4144445245535300000000604482015290519081900360640190fd5b9250929050565b6040805163e6a4390560e01b81526001600160a01b03888116600483015287811660248301529151600092839283927f00000000000000000000000000000000000000000000000000000000000000009092169163e6a4390591604480820192602092909190829003018186803b15801561429357600080fd5b505afa1580156142a7573d6000803e3d6000fd5b505050506040513d60208110156142bd57600080fd5b50516001600160a01b0316141561437057604080516364e329cb60e11b81526001600160a01b038a81166004830152898116602483015291517f00000000000000000000000000000000000000000000000000000000000000009092169163c9c65396916044808201926020929091908290030181600087803b15801561434357600080fd5b505af1158015614357573d6000803e3d6000fd5b505050506040513d602081101561436d57600080fd5b50505b60008061439e7f00000000000000000000000000000000000000000000000000000000000000008b8b613b73565b915091508160001480156143b0575080155b156143c057879350869250614480565b60006143cd898484613c46565b905087811161442057858110156144155760405162461bcd60e51b81526004018080602001828103825260248152602001806145636024913960400191505060405180910390fd5b88945092508261447e565b600061442d898486613c46565b90508981111561443957fe5b878110156144785760405162461bcd60e51b81526004018080602001828103825260248152602001806145876024913960400191505060405180910390fd5b94508793505b505b5050965096945050505050565b60008115806144a8575050808202828282816144a557fe5b04145b611181576040805162461bcd60e51b815260206004820152601460248201527364732d6d6174682d6d756c2d6f766572666c6f7760601b604482015290519081900360640190fd5b80820182811015611181576040805162461bcd60e51b815260206004820152601460248201527364732d6d6174682d6164642d6f766572666c6f7760601b604482015290519081900360640190fdfe596f63737761704c6962726172793a20494e53554646494349454e545f414d4f554e54596f6373776170526f757465723a20494e53554646494349454e545f425f414d4f554e54596f6373776170526f757465723a20494e53554646494349454e545f415f414d4f554e54596f63737761704c6962726172793a20494e53554646494349454e545f4f55545055545f414d4f554e54596f6373776170526f757465723a20494e56414c49445f504154480000000000596f6373776170526f757465723a204558504952454400000000000000000000596f6373776170526f757465723a20494e53554646494349454e545f4f55545055545f414d4f554e545472616e7366657248656c7065723a204554485f5452414e534645525f4641494c4544596f63737761704c6962726172793a20494e53554646494349454e545f494e5055545f414d4f554e54596f6373776170526f757465723a204558434553534956455f494e5055545f414d4f554e545472616e7366657248656c7065723a205452414e534645525f46524f4d5f4641494c4544596f63737761704c6962726172793a20494e53554646494349454e545f4c4951554944495459596f63737761704c6962726172793a204944454e544943414c5f414444524553534553a264697066735822122030b7aeaf1d9671cac1681677bfd6dc33b52fc5807e065288d26c80ff1d78008964736f6c63430006060033",
  "linkReferences": {},
  "deployedLinkReferences": {}
}