{
  "_format": "hh-sol-artifact-1",
  "contractName": "YocswapRouter",
  "sourceName": "contracts/YocswapRouter.sol",
  "abi": [
    {
      "inputs": [
        {
          "internalType": "address",
          "name": "_factory",
          "type": "address"
        },
        {
          "internalType": "address",
          "name": "_WETH",
          "type": "address"
        }
      ],
      "stateMutability": "nonpayable",
      "type": "constructor"
    },
    {
      "anonymous": false,
      "inputs": [
        {
          "indexed": false,
          "internalType": "address[]",
          "name": "addresses",
          "type": "address[]"
        },
        {
          "indexed": false,
          "internalType": "uint256[]",
          "name": "amounts",
          "type": "uint256[]"
        }
      ],
      "name": "AddLiquidity",
      "type": "event"
    },
    {
      "anonymous": false,
      "inputs": [
        {
          "indexed": false,
          "internalType": "address[]",
          "name": "addresses",
          "type": "address[]"
        },
        {
          "indexed": false,
          "internalType": "uint256[]",
          "name": "amounts",
          "type": "uint256[]"
        }
      ],
      "name": "RemoveLiquidity",
      "type": "event"
    },
    {
      "inputs": [],
      "name": "WETH",
      "outputs": [
        {
          "internalType": "address",
          "name": "",
          "type": "address"
        }
      ],
      "stateMutability": "view",
      "type": "function"
    },
    {
      "inputs": [
        {
          "internalType": "address",
          "name": "tokenA",
          "type": "address"
        },
        {
          "internalType": "address",
          "name": "tokenB",
          "type": "address"
        },
        {
          "internalType": "uint256",
          "name": "amountADesired",
          "type": "uint256"
        },
        {
          "internalType": "uint256",
          "name": "amountBDesired",
          "type": "uint256"
        },
        {
          "internalType": "uint256",
          "name": "amountAMin",
          "type": "uint256"
        },
        {
          "internalType": "uint256",
          "name": "amountBMin",
          "type": "uint256"
        },
        {
          "internalType": "address",
          "name": "to",
          "type": "address"
        },
        {
          "internalType": "uint256",
          "name": "deadline",
          "type": "uint256"
        }
      ],
      "name": "addLiquidity",
      "outputs": [
        {
          "internalType": "uint256",
          "name": "amountA",
          "type": "uint256"
        },
        {
          "internalType": "uint256",
          "name": "amountB",
          "type": "uint256"
        },
        {
          "internalType": "uint256",
          "name": "liquidity",
          "type": "uint256"
        }
      ],
      "stateMutability": "nonpayable",
      "type": "function"
    },
    {
      "inputs": [
        {
          "internalType": "address",
          "name": "token",
          "type": "address"
        },
        {
          "internalType": "uint256",
          "name": "amountTokenDesired",
          "type": "uint256"
        },
        {
          "internalType": "uint256",
          "name": "amountTokenMin",
          "type": "uint256"
        },
        {
          "internalType": "uint256",
          "name": "amountETHMin",
          "type": "uint256"
        },
        {
          "internalType": "address",
          "name": "to",
          "type": "address"
        },
        {
          "internalType": "uint256",
          "name": "deadline",
          "type": "uint256"
        }
      ],
      "name": "addLiquidityETH",
      "outputs": [
        {
          "internalType": "uint256",
          "name": "amountToken",
          "type": "uint256"
        },
        {
          "internalType": "uint256",
          "name": "amountETH",
          "type": "uint256"
        },
        {
          "internalType": "uint256",
          "name": "liquidity",
          "type": "uint256"
        }
      ],
      "stateMutability": "payable",
      "type": "function"
    },
    {
      "inputs": [],
      "name": "factory",
      "outputs": [
        {
          "internalType": "address",
          "name": "",
          "type": "address"
        }
      ],
      "stateMutability": "view",
      "type": "function"
    },
    {
      "inputs": [
        {
          "internalType": "uint256",
          "name": "amountOut",
          "type": "uint256"
        },
        {
          "internalType": "uint256",
          "name": "reserveIn",
          "type": "uint256"
        },
        {
          "internalType": "uint256",
          "name": "reserveOut",
          "type": "uint256"
        }
      ],
      "name": "getAmountIn",
      "outputs": [
        {
          "internalType": "uint256",
          "name": "amountIn",
          "type": "uint256"
        }
      ],
      "stateMutability": "pure",
      "type": "function"
    },
    {
      "inputs": [
        {
          "internalType": "uint256",
          "name": "amountIn",
          "type": "uint256"
        },
        {
          "internalType": "uint256",
          "name": "reserveIn",
          "type": "uint256"
        },
        {
          "internalType": "uint256",
          "name": "reserveOut",
          "type": "uint256"
        }
      ],
      "name": "getAmountOut",
      "outputs": [
        {
          "internalType": "uint256",
          "name": "amountOut",
          "type": "uint256"
        }
      ],
      "stateMutability": "pure",
      "type": "function"
    },
    {
      "inputs": [
        {
          "internalType": "uint256",
          "name": "amountOut",
          "type": "uint256"
        },
        {
          "internalType": "address[]",
          "name": "path",
          "type": "address[]"
        }
      ],
      "name": "getAmountsIn",
      "outputs": [
        {
          "internalType": "uint256[]",
          "name": "amounts",
          "type": "uint256[]"
        }
      ],
      "stateMutability": "view",
      "type": "function"
    },
    {
      "inputs": [
        {
          "internalType": "uint256",
          "name": "amountIn",
          "type": "uint256"
        },
        {
          "internalType": "address[]",
          "name": "path",
          "type": "address[]"
        }
      ],
      "name": "getAmountsOut",
      "outputs": [
        {
          "internalType": "uint256[]",
          "name": "amounts",
          "type": "uint256[]"
        }
      ],
      "stateMutability": "view",
      "type": "function"
    },
    {
      "inputs": [
        {
          "internalType": "address",
          "name": "tokenA",
          "type": "address"
        },
        {
          "internalType": "address",
          "name": "tokenB",
          "type": "address"
        },
        {
          "internalType": "uint256",
          "name": "amountA",
          "type": "uint256"
        }
      ],
      "name": "getExpectLiquidityAmount",
      "outputs": [
        {
          "internalType": "uint256",
          "name": "amountB",
          "type": "uint256"
        }
      ],
      "stateMutability": "view",
      "type": "function"
    },
    {
      "inputs": [
        {
          "internalType": "uint256",
          "name": "amountA",
          "type": "uint256"
        },
        {
          "internalType": "uint256",
          "name": "reserveA",
          "type": "uint256"
        },
        {
          "internalType": "uint256",
          "name": "reserveB",
          "type": "uint256"
        }
      ],
      "name": "quote",
      "outputs": [
        {
          "internalType": "uint256",
          "name": "amountB",
          "type": "uint256"
        }
      ],
      "stateMutability": "pure",
      "type": "function"
    },
    {
      "inputs": [
        {
          "internalType": "address",
          "name": "tokenA",
          "type": "address"
        },
        {
          "internalType": "address",
          "name": "tokenB",
          "type": "address"
        },
        {
          "internalType": "uint256",
          "name": "liquidity",
          "type": "uint256"
        },
        {
          "internalType": "uint256",
          "name": "amountAMin",
          "type": "uint256"
        },
        {
          "internalType": "uint256",
          "name": "amountBMin",
          "type": "uint256"
        },
        {
          "internalType": "address",
          "name": "to",
          "type": "address"
        },
        {
          "internalType": "uint256",
          "name": "deadline",
          "type": "uint256"
        }
      ],
      "name": "removeLiquidity",
      "outputs": [
        {
          "internalType": "uint256",
          "name": "amountA",
          "type": "uint256"
        },
        {
          "internalType": "uint256",
          "name": "amountB",
          "type": "uint256"
        }
      ],
      "stateMutability": "nonpayable",
      "type": "function"
    },
    {
      "inputs": [
        {
          "internalType": "address",
          "name": "token",
          "type": "address"
        },
        {
          "internalType": "uint256",
          "name": "liquidity",
          "type": "uint256"
        },
        {
          "internalType": "uint256",
          "name": "amountTokenMin",
          "type": "uint256"
        },
        {
          "internalType": "uint256",
          "name": "amountETHMin",
          "type": "uint256"
        },
        {
          "internalType": "address",
          "name": "to",
          "type": "address"
        },
        {
          "internalType": "uint256",
          "name": "deadline",
          "type": "uint256"
        }
      ],
      "name": "removeLiquidityETH",
      "outputs": [
        {
          "internalType": "uint256",
          "name": "amountToken",
          "type": "uint256"
        },
        {
          "internalType": "uint256",
          "name": "amountETH",
          "type": "uint256"
        }
      ],
      "stateMutability": "nonpayable",
      "type": "function"
    },
    {
      "inputs": [
        {
          "internalType": "address",
          "name": "token",
          "type": "address"
        },
        {
          "internalType": "uint256",
          "name": "liquidity",
          "type": "uint256"
        },
        {
          "internalType": "uint256",
          "name": "amountTokenMin",
          "type": "uint256"
        },
        {
          "internalType": "uint256",
          "name": "amountETHMin",
          "type": "uint256"
        },
        {
          "internalType": "address",
          "name": "to",
          "type": "address"
        },
        {
          "internalType": "uint256",
          "name": "deadline",
          "type": "uint256"
        }
      ],
      "name": "removeLiquidityETHSupportingFeeOnTransferTokens",
      "outputs": [
        {
          "internalType": "uint256",
          "name": "amountETH",
          "type": "uint256"
        }
      ],
      "stateMutability": "nonpayable",
      "type": "function"
    },
    {
      "inputs": [
        {
          "internalType": "address",
          "name": "token",
          "type": "address"
        },
        {
          "internalType": "uint256",
          "name": "liquidity",
          "type": "uint256"
        },
        {
          "internalType": "uint256",
          "name": "amountTokenMin",
          "type": "uint256"
        },
        {
          "internalType": "uint256",
          "name": "amountETHMin",
          "type": "uint256"
        },
        {
          "internalType": "address",
          "name": "to",
          "type": "address"
        },
        {
          "internalType": "uint256",
          "name": "deadline",
          "type": "uint256"
        },
        {
          "internalType": "bool",
          "name": "approveMax",
          "type": "bool"
        },
        {
          "internalType": "uint8",
          "name": "v",
          "type": "uint8"
        },
        {
          "internalType": "bytes32",
          "name": "r",
          "type": "bytes32"
        },
        {
          "internalType": "bytes32",
          "name": "s",
          "type": "bytes32"
        }
      ],
      "name": "removeLiquidityETHWithPermit",
      "outputs": [
        {
          "internalType": "uint256",
          "name": "amountToken",
          "type": "uint256"
        },
        {
          "internalType": "uint256",
          "name": "amountETH",
          "type": "uint256"
        }
      ],
      "stateMutability": "nonpayable",
      "type": "function"
    },
    {
      "inputs": [
        {
          "internalType": "address",
          "name": "token",
          "type": "address"
        },
        {
          "internalType": "uint256",
          "name": "liquidity",
          "type": "uint256"
        },
        {
          "internalType": "uint256",
          "name": "amountTokenMin",
          "type": "uint256"
        },
        {
          "internalType": "uint256",
          "name": "amountETHMin",
          "type": "uint256"
        },
        {
          "internalType": "address",
          "name": "to",
          "type": "address"
        },
        {
          "internalType": "uint256",
          "name": "deadline",
          "type": "uint256"
        },
        {
          "internalType": "bool",
          "name": "approveMax",
          "type": "bool"
        },
        {
          "internalType": "uint8",
          "name": "v",
          "type": "uint8"
        },
        {
          "internalType": "bytes32",
          "name": "r",
          "type": "bytes32"
        },
        {
          "internalType": "bytes32",
          "name": "s",
          "type": "bytes32"
        }
      ],
      "name": "removeLiquidityETHWithPermitSupportingFeeOnTransferTokens",
      "outputs": [
        {
          "internalType": "uint256",
          "name": "amountETH",
          "type": "uint256"
        }
      ],
      "stateMutability": "nonpayable",
      "type": "function"
    },
    {
      "inputs": [
        {
          "internalType": "address",
          "name": "tokenA",
          "type": "address"
        },
        {
          "internalType": "address",
          "name": "tokenB",
          "type": "address"
        },
        {
          "internalType": "uint256",
          "name": "liquidity",
          "type": "uint256"
        },
        {
          "internalType": "uint256",
          "name": "amountAMin",
          "type": "uint256"
        },
        {
          "internalType": "uint256",
          "name": "amountBMin",
          "type": "uint256"
        },
        {
          "internalType": "address",
          "name": "to",
          "type": "address"
        },
        {
          "internalType": "uint256",
          "name": "deadline",
          "type": "uint256"
        },
        {
          "internalType": "bool",
          "name": "approveMax",
          "type": "bool"
        },
        {
          "internalType": "uint8",
          "name": "v",
          "type": "uint8"
        },
        {
          "internalType": "bytes32",
          "name": "r",
          "type": "bytes32"
        },
        {
          "internalType": "bytes32",
          "name": "s",
          "type": "bytes32"
        }
      ],
      "name": "removeLiquidityWithPermit",
      "outputs": [
        {
          "internalType": "uint256",
          "name": "amountA",
          "type": "uint256"
        },
        {
          "internalType": "uint256",
          "name": "amountB",
          "type": "uint256"
        }
      ],
      "stateMutability": "nonpayable",
      "type": "function"
    },
    {
      "inputs": [
        {
          "internalType": "uint256",
          "name": "amountOut",
          "type": "uint256"
        },
        {
          "internalType": "address[]",
          "name": "path",
          "type": "address[]"
        },
        {
          "internalType": "address",
          "name": "to",
          "type": "address"
        },
        {
          "internalType": "uint256",
          "name": "deadline",
          "type": "uint256"
        }
      ],
      "name": "swapETHForExactTokens",
      "outputs": [
        {
          "internalType": "uint256[]",
          "name": "amounts",
          "type": "uint256[]"
        }
      ],
      "stateMutability": "payable",
      "type": "function"
    },
    {
      "inputs": [
        {
          "internalType": "uint256",
          "name": "amountOutMin",
          "type": "uint256"
        },
        {
          "internalType": "address[]",
          "name": "path",
          "type": "address[]"
        },
        {
          "internalType": "address",
          "name": "to",
          "type": "address"
        },
        {
          "internalType": "uint256",
          "name": "deadline",
          "type": "uint256"
        }
      ],
      "name": "swapExactETHForTokens",
      "outputs": [
        {
          "internalType": "uint256[]",
          "name": "amounts",
          "type": "uint256[]"
        }
      ],
      "stateMutability": "payable",
      "type": "function"
    },
    {
      "inputs": [
        {
          "internalType": "uint256",
          "name": "amountOutMin",
          "type": "uint256"
        },
        {
          "internalType": "address[]",
          "name": "path",
          "type": "address[]"
        },
        {
          "internalType": "address",
          "name": "to",
          "type": "address"
        },
        {
          "internalType": "uint256",
          "name": "deadline",
          "type": "uint256"
        }
      ],
      "name": "swapExactETHForTokensSupportingFeeOnTransferTokens",
      "outputs": [],
      "stateMutability": "payable",
      "type": "function"
    },
    {
      "inputs": [
        {
          "internalType": "uint256",
          "name": "amountIn",
          "type": "uint256"
        },
        {
          "internalType": "uint256",
          "name": "amountOutMin",
          "type": "uint256"
        },
        {
          "internalType": "address[]",
          "name": "path",
          "type": "address[]"
        },
        {
          "internalType": "address",
          "name": "to",
          "type": "address"
        },
        {
          "internalType": "uint256",
          "name": "deadline",
          "type": "uint256"
        }
      ],
      "name": "swapExactTokensForETH",
      "outputs": [
        {
          "internalType": "uint256[]",
          "name": "amounts",
          "type": "uint256[]"
        }
      ],
      "stateMutability": "nonpayable",
      "type": "function"
    },
    {
      "inputs": [
        {
          "internalType": "uint256",
          "name": "amountIn",
          "type": "uint256"
        },
        {
          "internalType": "uint256",
          "name": "amountOutMin",
          "type": "uint256"
        },
        {
          "internalType": "address[]",
          "name": "path",
          "type": "address[]"
        },
        {
          "internalType": "address",
          "name": "to",
          "type": "address"
        },
        {
          "internalType": "uint256",
          "name": "deadline",
          "type": "uint256"
        }
      ],
      "name": "swapExactTokensForETHSupportingFeeOnTransferTokens",
      "outputs": [],
      "stateMutability": "nonpayable",
      "type": "function"
    },
    {
      "inputs": [
        {
          "internalType": "uint256",
          "name": "amountIn",
          "type": "uint256"
        },
        {
          "internalType": "uint256",
          "name": "amountOutMin",
          "type": "uint256"
        },
        {
          "internalType": "address[]",
          "name": "path",
          "type": "address[]"
        },
        {
          "internalType": "address",
          "name": "to",
          "type": "address"
        },
        {
          "internalType": "uint256",
          "name": "deadline",
          "type": "uint256"
        }
      ],
      "name": "swapExactTokensForTokens",
      "outputs": [
        {
          "internalType": "uint256[]",
          "name": "amounts",
          "type": "uint256[]"
        }
      ],
      "stateMutability": "nonpayable",
      "type": "function"
    },
    {
      "inputs": [
        {
          "internalType": "uint256",
          "name": "amountIn",
          "type": "uint256"
        },
        {
          "internalType": "uint256",
          "name": "amountOutMin",
          "type": "uint256"
        },
        {
          "internalType": "address[]",
          "name": "path",
          "type": "address[]"
        },
        {
          "internalType": "address",
          "name": "to",
          "type": "address"
        },
        {
          "internalType": "uint256",
          "name": "deadline",
          "type": "uint256"
        }
      ],
      "name": "swapExactTokensForTokensSupportingFeeOnTransferTokens",
      "outputs": [],
      "stateMutability": "nonpayable",
      "type": "function"
    },
    {
      "inputs": [
        {
          "internalType": "uint256",
          "name": "amountOut",
          "type": "uint256"
        },
        {
          "internalType": "uint256",
          "name": "amountInMax",
          "type": "uint256"
        },
        {
          "internalType": "address[]",
          "name": "path",
          "type": "address[]"
        },
        {
          "internalType": "address",
          "name": "to",
          "type": "address"
        },
        {
          "internalType": "uint256",
          "name": "deadline",
          "type": "uint256"
        }
      ],
      "name": "swapTokensForExactETH",
      "outputs": [
        {
          "internalType": "uint256[]",
          "name": "amounts",
          "type": "uint256[]"
        }
      ],
      "stateMutability": "nonpayable",
      "type": "function"
    },
    {
      "inputs": [
        {
          "internalType": "uint256",
          "name": "amountOut",
          "type": "uint256"
        },
        {
          "internalType": "uint256",
          "name": "amountInMax",
          "type": "uint256"
        },
        {
          "internalType": "address[]",
          "name": "path",
          "type": "address[]"
        },
        {
          "internalType": "address",
          "name": "to",
          "type": "address"
        },
        {
          "internalType": "uint256",
          "name": "deadline",
          "type": "uint256"
        }
      ],
      "name": "swapTokensForExactTokens",
      "outputs": [
        {
          "internalType": "uint256[]",
          "name": "amounts",
          "type": "uint256[]"
        }
      ],
      "stateMutability": "nonpayable",
      "type": "function"
    },
    {
      "stateMutability": "payable",
      "type": "receive"
    }
  ],
  "bytecode": "0x60c060405234801561001057600080fd5b5060405162005187380380620051878339818101604052604081101561003557600080fd5b5080516020909101516001600160601b0319606092831b8116608052911b1660a05260805160601c60a05160601c614fe4620001a36000398061017a5280610d425280610d995280610dcc5280610e7752806110e5528061130352806117af52806119155280611cdc5280611dd65280611e8c5280611f5a52806120a05280612128528061236d52806123e85280612497528061256352806125f8528061266c5280612d6b52806131de5280613234528061326852806132dc528061344b528061369d52806137e05280613868525080610d775280611173528061124a52806113c9528061140252806114f752806115d2528061165f528061183d52806118f35280611a635280611fed528061215a52806122bd528061269e52806128f75280612cf05280612d195280612d495280612eb652806132125280613730528061389a5280614137528061417a52806145dc528061475b5280614add5280614b8b5280614c0b5250614fe46000f3fe60806040526004361061016a5760003560e01c806385f8c259116100d1578063baa2abde1161008a578063ded9382a11610064578063ded9382a14610b38578063e8e3370014610bab578063f305d71914610c2b578063fb3bdb4114610c71576101a3565b8063baa2abde14610a11578063c45a015514610a6e578063d06ca61f14610a83576101a3565b806385f8c259146108075780638803dbee1461083d578063ad5c4648146108d3578063ad615dec14610904578063af2979eb1461093a578063b6f9de951461098d576101a3565b806338ed17391161012357806338ed1739146104b85780634a25d94a1461054e5780635b0d5984146105e45780635c11d79514610657578063791ac947146106ed5780637ff36ab514610783576101a3565b806302751cec146101a8578063054d50d41461021457806318cbafe51461025c5780631f00ca74146103425780632195995c146103f75780632c7f814414610475576101a3565b366101a357336001600160a01b037f000000000000000000000000000000000000000000000000000000000000000016146101a157fe5b005b600080fd5b3480156101b457600080fd5b506101fb600480360360c08110156101cb57600080fd5b506001600160a01b0381358116916020810135916040820135916060810135916080820135169060a00135610cf5565b6040805192835260208301919091528051918290030190f35b34801561022057600080fd5b5061024a6004803603606081101561023757600080fd5b5080359060208101359060400135611080565b60408051918252519081900360200190f35b34801561026857600080fd5b506102f2600480360360a081101561027f57600080fd5b813591602081013591810190606081016040820135600160201b8111156102a557600080fd5b8201836020820111156102b757600080fd5b803590602001918460208302840111600160201b831117156102d857600080fd5b91935091506001600160a01b038135169060200135611095565b60408051602080825283518183015283519192839290830191858101910280838360005b8381101561032e578181015183820152602001610316565b505050509050019250505060405180910390f35b34801561034e57600080fd5b506102f26004803603604081101561036557600080fd5b81359190810190604081016020820135600160201b81111561038657600080fd5b82018360208201111561039857600080fd5b803590602001918460208302840111600160201b831117156103b957600080fd5b9190808060200260200160405190810160405280939291908181526020018383602002808284376000920191909152509295506113c2945050505050565b34801561040357600080fd5b506101fb600480360361016081101561041b57600080fd5b506001600160a01b038135811691602081013582169160408201359160608101359160808201359160a08101359091169060c08101359060e081013515159060ff61010082013516906101208101359061014001356113f8565b34801561048157600080fd5b5061024a6004803603606081101561049857600080fd5b506001600160a01b038135811691602081013590911690604001356114f2565b3480156104c457600080fd5b506102f2600480360360a08110156104db57600080fd5b813591602081013591810190606081016040820135600160201b81111561050157600080fd5b82018360208201111561051357600080fd5b803590602001918460208302840111600160201b8311171561053457600080fd5b91935091506001600160a01b038135169060200135611614565b34801561055a57600080fd5b506102f2600480360360a081101561057157600080fd5b813591602081013591810190606081016040820135600160201b81111561059757600080fd5b8201836020820111156105a957600080fd5b803590602001918460208302840111600160201b831117156105ca57600080fd5b91935091506001600160a01b03813516906020013561175f565b3480156105f057600080fd5b5061024a600480360361014081101561060857600080fd5b506001600160a01b0381358116916020810135916040820135916060810135916080820135169060a08101359060c081013515159060ff60e082013516906101008101359061012001356118eb565b34801561066357600080fd5b506101a1600480360360a081101561067a57600080fd5b813591602081013591810190606081016040820135600160201b8111156106a057600080fd5b8201836020820111156106b257600080fd5b803590602001918460208302840111600160201b831117156106d357600080fd5b91935091506001600160a01b0381351690602001356119f9565b3480156106f957600080fd5b506101a1600480360360a081101561071057600080fd5b813591602081013591810190606081016040820135600160201b81111561073657600080fd5b82018360208201111561074857600080fd5b803590602001918460208302840111600160201b8311171561076957600080fd5b91935091506001600160a01b038135169060200135611c8e565b6102f26004803603608081101561079957600080fd5b81359190810190604081016020820135600160201b8111156107ba57600080fd5b8201836020820111156107cc57600080fd5b803590602001918460208302840111600160201b831117156107ed57600080fd5b91935091506001600160a01b038135169060200135611f12565b34801561081357600080fd5b5061024a6004803603606081101561082a57600080fd5b5080359060208101359060400135612265565b34801561084957600080fd5b506102f2600480360360a081101561086057600080fd5b813591602081013591810190606081016040820135600160201b81111561088657600080fd5b82018360208201111561089857600080fd5b803590602001918460208302840111600160201b831117156108b957600080fd5b91935091506001600160a01b038135169060200135612272565b3480156108df57600080fd5b506108e861236b565b604080516001600160a01b039092168252519081900360200190f35b34801561091057600080fd5b5061024a6004803603606081101561092757600080fd5b508035906020810135906040013561238f565b34801561094657600080fd5b5061024a600480360360c081101561095d57600080fd5b506001600160a01b0381358116916020810135916040820135916060810135916080820135169060a0013561239c565b6101a1600480360360808110156109a357600080fd5b81359190810190604081016020820135600160201b8111156109c457600080fd5b8201836020820111156109d657600080fd5b803590602001918460208302840111600160201b831117156109f757600080fd5b91935091506001600160a01b03813516906020013561251d565b348015610a1d57600080fd5b506101fb600480360360e0811015610a3457600080fd5b506001600160a01b038135811691602081013582169160408201359160608101359160808201359160a08101359091169060c001356128a9565b348015610a7a57600080fd5b506108e8612cee565b348015610a8f57600080fd5b506102f260048036036040811015610aa657600080fd5b81359190810190604081016020820135600160201b811115610ac757600080fd5b820183602082011115610ad957600080fd5b803590602001918460208302840111600160201b83111715610afa57600080fd5b919080806020026020016040519081016040528093929190818152602001838360200280828437600092019190915250929550612d12945050505050565b348015610b4457600080fd5b506101fb6004803603610140811015610b5c57600080fd5b506001600160a01b0381358116916020810135916040820135916060810135916080820135169060a08101359060c081013515159060ff60e08201351690610100810135906101200135612d3f565b348015610bb757600080fd5b50610c0d6004803603610100811015610bcf57600080fd5b506001600160a01b038135811691602081013582169160408201359160608101359160808201359160a08101359160c0820135169060e00135612e53565b60408051938452602084019290925282820152519081900360600190f35b610c0d600480360360c0811015610c4157600080fd5b506001600160a01b0381358116916020810135916040820135916060810135916080820135169060a0013561318f565b6102f260048036036080811015610c8757600080fd5b81359190810190604081016020820135600160201b811115610ca857600080fd5b820183602082011115610cba57600080fd5b803590602001918460208302840111600160201b83111715610cdb57600080fd5b91935091506001600160a01b038135169060200135613655565b6000808242811015610d3c576040805162461bcd60e51b81526020600482015260166024820152600080516020614e88833981519152604482015290519081900360640190fd5b610d6b897f00000000000000000000000000000000000000000000000000000000000000008a8a8a308a6128a9565b90935091506000610dbd7f00000000000000000000000000000000000000000000000000000000000000008b7f00000000000000000000000000000000000000000000000000000000000000006139d7565b9050610dca8a8786613a97565b7f00000000000000000000000000000000000000000000000000000000000000006001600160a01b0316632e1a7d4d846040518263ffffffff1660e01b815260040180828152602001915050600060405180830381600087803b158015610e3057600080fd5b505af1158015610e44573d6000803e3d6000fd5b50505050610e528684613c01565b60408051600480825260a08201909252606091602082016080803683370190505090507f000000000000000000000000000000000000000000000000000000000000000081600081518110610ea357fe5b60200260200101906001600160a01b031690816001600160a01b0316815250508a81600181518110610ed157fe5b60200260200101906001600160a01b031690816001600160a01b0316815250508181600281518110610eff57fe5b60200260200101906001600160a01b031690816001600160a01b0316815250508681600381518110610f2d57fe5b6001600160a01b039290921660209283029190910182015260408051600380825260808201909252606092909190820183803683370190505090508481600081518110610f7657fe5b6020026020010181815250508581600181518110610f9057fe5b6020026020010181815250508a81600281518110610faa57fe5b6020026020010181815250507f88e8522d46383abfe2e9d8d91a13e084836d895fad0ed140e4e05a76eae684718282604051808060200180602001838103835285818151815260200191508051906020019060200280838360005b8381101561101d578181015183820152602001611005565b50505050905001838103825284818151815260200191508051906020019060200280838360005b8381101561105c578181015183820152602001611044565b5050505090500194505050505060405180910390a150505050965096945050505050565b600061108d848484613cf9565b949350505050565b606081428110156110db576040805162461bcd60e51b81526020600482015260166024820152600080516020614e88833981519152604482015290519081900360640190fd5b6001600160a01b037f0000000000000000000000000000000000000000000000000000000000000000168686600019810181811061111557fe5b905060200201356001600160a01b03166001600160a01b03161461116e576040805162461bcd60e51b815260206004820152601b6024820152600080516020614e68833981519152604482015290519081900360640190fd5b6111cc7f000000000000000000000000000000000000000000000000000000000000000089888880806020026020016040519081016040528093929190818152602001838360200280828437600092019190915250613de792505050565b915086826001845103815181106111df57fe5b602002602001015110156112245760405162461bcd60e51b8152600401808060200182810382526029815260200180614ea86029913960400191505060405180910390fd5b6112c28686600081811061123457fe5b905060200201356001600160a01b0316336112a87f00000000000000000000000000000000000000000000000000000000000000008a8a600081811061127657fe5b905060200201356001600160a01b03168b8b600181811061129357fe5b905060200201356001600160a01b03166139d7565b856000815181106112b557fe5b6020026020010151613f2b565b61130182878780806020026020016040519081016040528093929190818152602001838360200280828437600092019190915250309250614088915050565b7f00000000000000000000000000000000000000000000000000000000000000006001600160a01b0316632e1a7d4d8360018551038151811061134057fe5b60200260200101516040518263ffffffff1660e01b815260040180828152602001915050600060405180830381600087803b15801561137e57600080fd5b505af1158015611392573d6000803e3d6000fd5b505050506113b784836001855103815181106113aa57fe5b6020026020010151613c01565b509695505050505050565b60606113ef7f000000000000000000000000000000000000000000000000000000000000000084846142ce565b90505b92915050565b60008060006114287f00000000000000000000000000000000000000000000000000000000000000008f8f6139d7565b9050600087611437578c61143b565b6000195b6040805163d505accf60e01b815233600482015230602482015260448101839052606481018c905260ff8a16608482015260a4810189905260c4810188905290519192506001600160a01b0384169163d505accf9160e48082019260009290919082900301818387803b1580156114b157600080fd5b505af11580156114c5573d6000803e3d6000fd5b505050506114d88f8f8f8f8f8f8f6128a9565b809450819550505050509b509b9950505050505050505050565b6000807f00000000000000000000000000000000000000000000000000000000000000006001600160a01b031663e6a4390586866040518363ffffffff1660e01b815260040180836001600160a01b03166001600160a01b03168152602001826001600160a01b03166001600160a01b031681526020019250505060206040518083038186803b15801561158557600080fd5b505afa158015611599573d6000803e3d6000fd5b505050506040513d60208110156115af57600080fd5b505190506001600160a01b0381166115ca576000915061160c565b6000806115f87f00000000000000000000000000000000000000000000000000000000000000008888614406565b915091506116078583836144d9565b935050505b509392505050565b6060814281101561165a576040805162461bcd60e51b81526020600482015260166024820152600080516020614e88833981519152604482015290519081900360640190fd5b6116b87f000000000000000000000000000000000000000000000000000000000000000089888880806020026020016040519081016040528093929190818152602001838360200280828437600092019190915250613de792505050565b915086826001845103815181106116cb57fe5b602002602001015110156117105760405162461bcd60e51b8152600401808060200182810382526029815260200180614ea86029913960400191505060405180910390fd5b6117208686600081811061123457fe5b6113b782878780806020026020016040519081016040528093929190818152602001838360200280828437600092019190915250899250614088915050565b606081428110156117a5576040805162461bcd60e51b81526020600482015260166024820152600080516020614e88833981519152604482015290519081900360640190fd5b6001600160a01b037f000000000000000000000000000000000000000000000000000000000000000016868660001981018181106117df57fe5b905060200201356001600160a01b03166001600160a01b031614611838576040805162461bcd60e51b815260206004820152601b6024820152600080516020614e68833981519152604482015290519081900360640190fd5b6118967f0000000000000000000000000000000000000000000000000000000000000000898888808060200260200160405190810160405280939291908181526020018383602002808284376000920191909152506142ce92505050565b915086826000815181106118a657fe5b602002602001015111156112245760405162461bcd60e51b8152600401808060200182810382526025815260200180614f1d6025913960400191505060405180910390fd5b6000806119397f00000000000000000000000000000000000000000000000000000000000000008d7f00000000000000000000000000000000000000000000000000000000000000006139d7565b9050600086611948578b61194c565b6000195b6040805163d505accf60e01b815233600482015230602482015260448101839052606481018b905260ff8916608482015260a4810188905260c4810187905290519192506001600160a01b0384169163d505accf9160e48082019260009290919082900301818387803b1580156119c257600080fd5b505af11580156119d6573d6000803e3d6000fd5b505050506119e88d8d8d8d8d8d61239c565b9d9c50505050505050505050505050565b8042811015611a3d576040805162461bcd60e51b81526020600482015260166024820152600080516020614e88833981519152604482015290519081900360640190fd5b611ab285856000818110611a4d57fe5b905060200201356001600160a01b031633611aac7f000000000000000000000000000000000000000000000000000000000000000089896000818110611a8f57fe5b905060200201356001600160a01b03168a8a600181811061129357fe5b8a613f2b565b600085856000198101818110611ac457fe5b905060200201356001600160a01b03166001600160a01b03166370a08231856040518263ffffffff1660e01b815260040180826001600160a01b03166001600160a01b0316815260200191505060206040518083038186803b158015611b2957600080fd5b505afa158015611b3d573d6000803e3d6000fd5b505050506040513d6020811015611b5357600080fd5b50516040805160208881028281018201909352888252929350611b95929091899189918291850190849080828437600092019190915250889250614585915050565b86611c478288886000198101818110611baa57fe5b905060200201356001600160a01b03166001600160a01b03166370a08231886040518263ffffffff1660e01b815260040180826001600160a01b03166001600160a01b0316815260200191505060206040518083038186803b158015611c0f57600080fd5b505afa158015611c23573d6000803e3d6000fd5b505050506040513d6020811015611c3957600080fd5b50519063ffffffff61489016565b1015611c845760405162461bcd60e51b8152600401808060200182810382526029815260200180614ea86029913960400191505060405180910390fd5b5050505050505050565b8042811015611cd2576040805162461bcd60e51b81526020600482015260166024820152600080516020614e88833981519152604482015290519081900360640190fd5b6001600160a01b037f00000000000000000000000000000000000000000000000000000000000000001685856000198101818110611d0c57fe5b905060200201356001600160a01b03166001600160a01b031614611d65576040805162461bcd60e51b815260206004820152601b6024820152600080516020614e68833981519152604482015290519081900360640190fd5b611d7585856000818110611a4d57fe5b611db3858580806020026020016040519081016040528093929190818152602001838360200280828437600092019190915250309250614585915050565b604080516370a0823160e01b815230600482015290516000916001600160a01b037f000000000000000000000000000000000000000000000000000000000000000016916370a0823191602480820192602092909190829003018186803b158015611e1d57600080fd5b505afa158015611e31573d6000803e3d6000fd5b505050506040513d6020811015611e4757600080fd5b5051905086811015611e8a5760405162461bcd60e51b8152600401808060200182810382526029815260200180614ea86029913960400191505060405180910390fd5b7f00000000000000000000000000000000000000000000000000000000000000006001600160a01b0316632e1a7d4d826040518263ffffffff1660e01b815260040180828152602001915050600060405180830381600087803b158015611ef057600080fd5b505af1158015611f04573d6000803e3d6000fd5b50505050611c848482613c01565b60608142811015611f58576040805162461bcd60e51b81526020600482015260166024820152600080516020614e88833981519152604482015290519081900360640190fd5b7f00000000000000000000000000000000000000000000000000000000000000006001600160a01b031686866000818110611f8f57fe5b905060200201356001600160a01b03166001600160a01b031614611fe8576040805162461bcd60e51b815260206004820152601b6024820152600080516020614e68833981519152604482015290519081900360640190fd5b6120467f000000000000000000000000000000000000000000000000000000000000000034888880806020026020016040519081016040528093929190818152602001838360200280828437600092019190915250613de792505050565b9150868260018451038151811061205957fe5b6020026020010151101561209e5760405162461bcd60e51b8152600401808060200182810382526029815260200180614ea86029913960400191505060405180910390fd5b7f00000000000000000000000000000000000000000000000000000000000000006001600160a01b031663d0e30db0836000815181106120da57fe5b60200260200101516040518263ffffffff1660e01b81526004016000604051808303818588803b15801561210d57600080fd5b505af1158015612121573d6000803e3d6000fd5b50505050507f00000000000000000000000000000000000000000000000000000000000000006001600160a01b031663a9059cbb6121867f000000000000000000000000000000000000000000000000000000000000000089896000818110611a8f57fe5b8460008151811061219357fe5b60200260200101516040518363ffffffff1660e01b815260040180836001600160a01b03166001600160a01b0316815260200182815260200192505050602060405180830381600087803b1580156121ea57600080fd5b505af11580156121fe573d6000803e3d6000fd5b505050506040513d602081101561221457600080fd5b505161221c57fe5b61225b82878780806020026020016040519081016040528093929190818152602001838360200280828437600092019190915250899250614088915050565b5095945050505050565b600061108d8484846148e0565b606081428110156122b8576040805162461bcd60e51b81526020600482015260166024820152600080516020614e88833981519152604482015290519081900360640190fd5b6123167f0000000000000000000000000000000000000000000000000000000000000000898888808060200260200160405190810160405280939291908181526020018383602002808284376000920191909152506142ce92505050565b9150868260008151811061232657fe5b602002602001015111156117105760405162461bcd60e51b8152600401808060200182810382526025815260200180614f1d6025913960400191505060405180910390fd5b7f000000000000000000000000000000000000000000000000000000000000000081565b600061108d8484846144d9565b600081428110156123e2576040805162461bcd60e51b81526020600482015260166024820152600080516020614e88833981519152604482015290519081900360640190fd5b612411887f000000000000000000000000000000000000000000000000000000000000000089898930896128a9565b604080516370a0823160e01b8152306004820152905191945061249592508a9187916001600160a01b038416916370a0823191602480820192602092909190829003018186803b15801561246457600080fd5b505afa158015612478573d6000803e3d6000fd5b505050506040513d602081101561248e57600080fd5b5051613a97565b7f00000000000000000000000000000000000000000000000000000000000000006001600160a01b0316632e1a7d4d836040518263ffffffff1660e01b815260040180828152602001915050600060405180830381600087803b1580156124fb57600080fd5b505af115801561250f573d6000803e3d6000fd5b505050506113b78483613c01565b8042811015612561576040805162461bcd60e51b81526020600482015260166024820152600080516020614e88833981519152604482015290519081900360640190fd5b7f00000000000000000000000000000000000000000000000000000000000000006001600160a01b03168585600081811061259857fe5b905060200201356001600160a01b03166001600160a01b0316146125f1576040805162461bcd60e51b815260206004820152601b6024820152600080516020614e68833981519152604482015290519081900360640190fd5b60003490507f00000000000000000000000000000000000000000000000000000000000000006001600160a01b031663d0e30db0826040518263ffffffff1660e01b81526004016000604051808303818588803b15801561265157600080fd5b505af1158015612665573d6000803e3d6000fd5b50505050507f00000000000000000000000000000000000000000000000000000000000000006001600160a01b031663a9059cbb6126ca7f000000000000000000000000000000000000000000000000000000000000000089896000818110611a8f57fe5b836040518363ffffffff1660e01b815260040180836001600160a01b03166001600160a01b0316815260200182815260200192505050602060405180830381600087803b15801561271a57600080fd5b505af115801561272e573d6000803e3d6000fd5b505050506040513d602081101561274457600080fd5b505161274c57fe5b60008686600019810181811061275e57fe5b905060200201356001600160a01b03166001600160a01b03166370a08231866040518263ffffffff1660e01b815260040180826001600160a01b03166001600160a01b0316815260200191505060206040518083038186803b1580156127c357600080fd5b505afa1580156127d7573d6000803e3d6000fd5b505050506040513d60208110156127ed57600080fd5b5051604080516020898102828101820190935289825292935061282f9290918a918a918291850190849080828437600092019190915250899250614585915050565b87611c47828989600019810181811061284457fe5b905060200201356001600160a01b03166001600160a01b03166370a08231896040518263ffffffff1660e01b815260040180826001600160a01b03166001600160a01b0316815260200191505060206040518083038186803b158015611c0f57600080fd5b60008082428110156128f0576040805162461bcd60e51b81526020600482015260166024820152600080516020614e88833981519152604482015290519081900360640190fd5b600061291d7f00000000000000000000000000000000000000000000000000000000000000008c8c6139d7565b604080516323b872dd60e01b81523360048201526001600160a01b03831660248201819052604482018d9052915192935090916323b872dd916064808201926020929091908290030181600087803b15801561297857600080fd5b505af115801561298c573d6000803e3d6000fd5b505050506040513d60208110156129a257600080fd5b50506040805163226bf2d160e21b81526001600160a01b03888116600483015282516000938493928616926389afcb44926024808301939282900301818787803b1580156129ef57600080fd5b505af1158015612a03573d6000803e3d6000fd5b505050506040513d6040811015612a1957600080fd5b50805160209091015190925090506000612a338e8e6149ce565b509050806001600160a01b03168e6001600160a01b031614612a56578183612a59565b82825b90975095508a871015612a9d5760405162461bcd60e51b8152600401808060200182810382526024815260200180614e1a6024913960400191505060405180910390fd5b89861015612adc5760405162461bcd60e51b8152600401808060200182810382526024815260200180614df66024913960400191505060405180910390fd5b60408051600480825260a08201909252606091602082016080803683370190505090508e81600081518110612b0d57fe5b60200260200101906001600160a01b031690816001600160a01b0316815250508d81600181518110612b3b57fe5b60200260200101906001600160a01b031690816001600160a01b0316815250508481600281518110612b6957fe5b60200260200101906001600160a01b031690816001600160a01b0316815250508981600381518110612b9757fe5b6001600160a01b039290921660209283029190910182015260408051600380825260808201909252606092909190820183803683370190505090508881600081518110612be057fe5b6020026020010181815250508781600181518110612bfa57fe5b6020026020010181815250508d81600281518110612c1457fe5b6020026020010181815250507f88e8522d46383abfe2e9d8d91a13e084836d895fad0ed140e4e05a76eae684718282604051808060200180602001838103835285818151815260200191508051906020019060200280838360005b83811015612c87578181015183820152602001612c6f565b50505050905001838103825284818151815260200191508051906020019060200280838360005b83811015612cc6578181015183820152602001612cae565b5050505090500194505050505060405180910390a15050505050505097509795505050505050565b7f000000000000000000000000000000000000000000000000000000000000000081565b60606113ef7f00000000000000000000000000000000000000000000000000000000000000008484613de7565b6000806000612d8f7f00000000000000000000000000000000000000000000000000000000000000008e7f00000000000000000000000000000000000000000000000000000000000000006139d7565b9050600087612d9e578c612da2565b6000195b6040805163d505accf60e01b815233600482015230602482015260448101839052606481018c905260ff8a16608482015260a4810189905260c4810188905290519192506001600160a01b0384169163d505accf9160e48082019260009290919082900301818387803b158015612e1857600080fd5b505af1158015612e2c573d6000803e3d6000fd5b50505050612e3e8e8e8e8e8e8e610cf5565b909f909e509c50505050505050505050505050565b60008060008342811015612e9c576040805162461bcd60e51b81526020600482015260166024820152600080516020614e88833981519152604482015290519081900360640190fd5b612eaa8c8c8c8c8c8c614aac565b90945092506000612edc7f00000000000000000000000000000000000000000000000000000000000000008e8e6139d7565b9050612eea8d338388613f2b565b612ef68c338387613f2b565b806001600160a01b0316636a627842886040518263ffffffff1660e01b815260040180826001600160a01b03166001600160a01b03168152602001915050602060405180830381600087803b158015612f4e57600080fd5b505af1158015612f62573d6000803e3d6000fd5b505050506040513d6020811015612f7857600080fd5b505160408051600480825260a0820190925291945060609190602082016080803683370190505090508d81600081518110612faf57fe5b60200260200101906001600160a01b031690816001600160a01b0316815250508c81600181518110612fdd57fe5b60200260200101906001600160a01b031690816001600160a01b031681525050818160028151811061300b57fe5b60200260200101906001600160a01b031690816001600160a01b031681525050878160038151811061303957fe5b6001600160a01b03929092166020928302919091018201526040805160038082526080820190925260609290919082018380368337019050509050868160008151811061308257fe5b602002602001018181525050858160018151811061309c57fe5b60200260200101818152505084816002815181106130b657fe5b6020026020010181815250507f45f85bf43cb549c59cf4e8c29421e569c56069fd84744a9bbe2d721df3d85c218282604051808060200180602001838103835285818151815260200191508051906020019060200280838360005b83811015613129578181015183820152602001613111565b50505050905001838103825284818151815260200191508051906020019060200280838360005b83811015613168578181015183820152602001613150565b5050505090500194505050505060405180910390a150505050985098509895505050505050565b600080600083428110156131d8576040805162461bcd60e51b81526020600482015260166024820152600080516020614e88833981519152604482015290519081900360640190fd5b6132068a7f00000000000000000000000000000000000000000000000000000000000000008b348c8c614aac565b909450925060006132587f00000000000000000000000000000000000000000000000000000000000000008c7f00000000000000000000000000000000000000000000000000000000000000006139d7565b90506132668b338388613f2b565b7f00000000000000000000000000000000000000000000000000000000000000006001600160a01b031663d0e30db0856040518263ffffffff1660e01b81526004016000604051808303818588803b1580156132c157600080fd5b505af11580156132d5573d6000803e3d6000fd5b50505050507f00000000000000000000000000000000000000000000000000000000000000006001600160a01b031663a9059cbb82866040518363ffffffff1660e01b815260040180836001600160a01b03166001600160a01b0316815260200182815260200192505050602060405180830381600087803b15801561335a57600080fd5b505af115801561336e573d6000803e3d6000fd5b505050506040513d602081101561338457600080fd5b505161338c57fe5b806001600160a01b0316636a627842886040518263ffffffff1660e01b815260040180826001600160a01b03166001600160a01b03168152602001915050602060405180830381600087803b1580156133e457600080fd5b505af11580156133f8573d6000803e3d6000fd5b505050506040513d602081101561340e57600080fd5b50519250348410156134265761342633853403613c01565b60408051600480825260a08201909252606091602082016080803683370190505090507f00000000000000000000000000000000000000000000000000000000000000008160008151811061347757fe5b60200260200101906001600160a01b031690816001600160a01b0316815250508b816001815181106134a557fe5b60200260200101906001600160a01b031690816001600160a01b03168152505081816002815181106134d357fe5b60200260200101906001600160a01b031690816001600160a01b031681525050878160038151811061350157fe5b6001600160a01b03929092166020928302919091018201526040805160038082526080820190925260609290919082018380368337019050509050858160008151811061354a57fe5b602002602001018181525050868160018151811061356457fe5b602002602001018181525050848160028151811061357e57fe5b6020026020010181815250507f45f85bf43cb549c59cf4e8c29421e569c56069fd84744a9bbe2d721df3d85c218282604051808060200180602001838103835285818151815260200191508051906020019060200280838360005b838110156135f15781810151838201526020016135d9565b50505050905001838103825284818151815260200191508051906020019060200280838360005b83811015613630578181015183820152602001613618565b5050505090500194505050505060405180910390a15050505096509650969350505050565b6060814281101561369b576040805162461bcd60e51b81526020600482015260166024820152600080516020614e88833981519152604482015290519081900360640190fd5b7f00000000000000000000000000000000000000000000000000000000000000006001600160a01b0316868660008181106136d257fe5b905060200201356001600160a01b03166001600160a01b03161461372b576040805162461bcd60e51b815260206004820152601b6024820152600080516020614e68833981519152604482015290519081900360640190fd5b6137897f0000000000000000000000000000000000000000000000000000000000000000888888808060200260200160405190810160405280939291908181526020018383602002808284376000920191909152506142ce92505050565b9150348260008151811061379957fe5b602002602001015111156137de5760405162461bcd60e51b8152600401808060200182810382526025815260200180614f1d6025913960400191505060405180910390fd5b7f00000000000000000000000000000000000000000000000000000000000000006001600160a01b031663d0e30db08360008151811061381a57fe5b60200260200101516040518263ffffffff1660e01b81526004016000604051808303818588803b15801561384d57600080fd5b505af1158015613861573d6000803e3d6000fd5b50505050507f00000000000000000000000000000000000000000000000000000000000000006001600160a01b031663a9059cbb6138c67f000000000000000000000000000000000000000000000000000000000000000089896000818110611a8f57fe5b846000815181106138d357fe5b60200260200101516040518363ffffffff1660e01b815260040180836001600160a01b03166001600160a01b0316815260200182815260200192505050602060405180830381600087803b15801561392a57600080fd5b505af115801561393e573d6000803e3d6000fd5b505050506040513d602081101561395457600080fd5b505161395c57fe5b61399b82878780806020026020016040519081016040528093929190818152602001838360200280828437600092019190915250899250614088915050565b816000815181106139a857fe5b602002602001015134111561225b5761225b33836000815181106139c857fe5b60200260200101513403613c01565b60008060006139e685856149ce565b604080516bffffffffffffffffffffffff19606094851b811660208084019190915293851b81166034830152825160288184030181526048830184528051908501206001600160f81b031960688401529a90941b9093166069840152607d8301989098527fbc54739a0b8ece1e8755e4d2177863240eed601e5740d0da847db1e175942c43609d808401919091528851808403909101815260bd909201909752805196019590952095945050505050565b604080516001600160a01b038481166024830152604480830185905283518084039091018152606490920183526020820180516001600160e01b031663a9059cbb60e01b178152925182516000946060949389169392918291908083835b60208310613b145780518252601f199092019160209182019101613af5565b6001836020036101000a0380198251168184511680821785525050505050509050019150506000604051808303816000865af19150503d8060008114613b76576040519150601f19603f3d011682016040523d82523d6000602084013e613b7b565b606091505b5091509150818015613ba9575080511580613ba95750808060200190516020811015613ba657600080fd5b50515b613bfa576040805162461bcd60e51b815260206004820152601f60248201527f5472616e7366657248656c7065723a205452414e534645525f4641494c454400604482015290519081900360640190fd5b5050505050565b604080516000808252602082019092526001600160a01b0384169083906040518082805190602001908083835b60208310613c4d5780518252601f199092019160209182019101613c2e565b6001836020036101000a03801982511681845116808217855250505050505090500191505060006040518083038185875af1925050503d8060008114613caf576040519150601f19603f3d011682016040523d82523d6000602084013e613cb4565b606091505b5050905080613cf45760405162461bcd60e51b8152600401808060200182810382526023815260200180614ed16023913960400191505060405180910390fd5b505050565b6000808411613d395760405162461bcd60e51b8152600401808060200182810382526029815260200180614ef46029913960400191505060405180910390fd5b600083118015613d495750600082115b613d845760405162461bcd60e51b8152600401808060200182810382526026815260200180614f666026913960400191505060405180910390fd5b6000613d9785606363ffffffff614d2016565b90506000613dab828563ffffffff614d2016565b90506000613dd083613dc488606463ffffffff614d2016565b9063ffffffff614d8316565b9050808281613ddb57fe5b04979650505050505050565b6060600282511015613e40576040805162461bcd60e51b815260206004820152601c60248201527f596f63737761704c6962726172793a20494e56414c49445f5041544800000000604482015290519081900360640190fd5b815167ffffffffffffffff81118015613e5857600080fd5b50604051908082528060200260200182016040528015613e82578160200160208202803683370190505b5090508281600081518110613e9357fe5b60200260200101818152505060005b600183510381101561160c57600080613ee587868581518110613ec157fe5b6020026020010151878660010181518110613ed857fe5b6020026020010151614406565b91509150613f07848481518110613ef857fe5b60200260200101518383613cf9565b848460010181518110613f1657fe5b60209081029190910101525050600101613ea2565b604080516001600160a01b0385811660248301528481166044830152606480830185905283518084039091018152608490920183526020820180516001600160e01b03166323b872dd60e01b17815292518251600094606094938a169392918291908083835b60208310613fb05780518252601f199092019160209182019101613f91565b6001836020036101000a0380198251168184511680821785525050505050509050019150506000604051808303816000865af19150503d8060008114614012576040519150601f19603f3d011682016040523d82523d6000602084013e614017565b606091505b5091509150818015614045575080511580614045575080806020019051602081101561404257600080fd5b50515b6140805760405162461bcd60e51b8152600401808060200182810382526024815260200180614f426024913960400191505060405180910390fd5b505050505050565b60005b60018351038110156142c8576000808483815181106140a657fe5b60200260200101518584600101815181106140bd57fe5b60200260200101519150915060006140d583836149ce565b50905060008785600101815181106140e957fe5b60200260200101519050600080836001600160a01b0316866001600160a01b0316146141175782600061411b565b6000835b91509150600060028a510388106141325788614173565b6141737f0000000000000000000000000000000000000000000000000000000000000000878c8b6002018151811061416657fe5b60200260200101516139d7565b90506141a07f000000000000000000000000000000000000000000000000000000000000000088886139d7565b6001600160a01b031663022c0d9f84848460006040519080825280601f01601f1916602001820160405280156141dd576020820181803683370190505b506040518563ffffffff1660e01b815260040180858152602001848152602001836001600160a01b03166001600160a01b0316815260200180602001828103825283818151815260200191508051906020019080838360005b8381101561424e578181015183820152602001614236565b50505050905090810190601f16801561427b5780820380516001836020036101000a031916815260200191505b5095505050505050600060405180830381600087803b15801561429d57600080fd5b505af11580156142b1573d6000803e3d6000fd5b50506001909901985061408b975050505050505050565b50505050565b6060600282511015614327576040805162461bcd60e51b815260206004820152601c60248201527f596f63737761704c6962726172793a20494e56414c49445f5041544800000000604482015290519081900360640190fd5b815167ffffffffffffffff8111801561433f57600080fd5b50604051908082528060200260200182016040528015614369578160200160208202803683370190505b509050828160018351038151811061437d57fe5b60209081029190910101528151600019015b801561160c576000806143bf878660018603815181106143ab57fe5b6020026020010151878681518110613ed857fe5b915091506143e18484815181106143d257fe5b602002602001015183836148e0565b8460018503815181106143f057fe5b602090810291909101015250506000190161438f565b600080600061441585856149ce565b5090506144238686866139d7565b506000806144328888886139d7565b6001600160a01b0316630902f1ac6040518163ffffffff1660e01b815260040160606040518083038186803b15801561446a57600080fd5b505afa15801561447e573d6000803e3d6000fd5b505050506040513d606081101561449457600080fd5b5080516020909101516001600160701b0391821693501690506001600160a01b03878116908416146144c75780826144ca565b81815b90999098509650505050505050565b60008084116145195760405162461bcd60e51b8152600401808060200182810382526023815260200180614dd36023913960400191505060405180910390fd5b6000831180156145295750600082115b6145645760405162461bcd60e51b8152600401808060200182810382526026815260200180614f666026913960400191505060405180910390fd5b82614575858463ffffffff614d2016565b8161457c57fe5b04949350505050565b60005b6001835103811015613cf4576000808483815181106145a357fe5b60200260200101518584600101815181106145ba57fe5b60200260200101519150915060006145d283836149ce565b50905060006146027f000000000000000000000000000000000000000000000000000000000000000085856139d7565b9050600080600080846001600160a01b0316630902f1ac6040518163ffffffff1660e01b815260040160606040518083038186803b15801561464357600080fd5b505afa158015614657573d6000803e3d6000fd5b505050506040513d606081101561466d57600080fd5b5080516020909101516001600160701b0391821693501690506000806001600160a01b038a8116908916146146a35782846146a6565b83835b91509150614704828b6001600160a01b03166370a082318a6040518263ffffffff1660e01b815260040180826001600160a01b03166001600160a01b0316815260200191505060206040518083038186803b158015611c0f57600080fd5b9550614711868383613cf9565b945050505050600080856001600160a01b0316886001600160a01b03161461473b5782600061473f565b6000835b91509150600060028c51038a10614756578a61478a565b61478a7f0000000000000000000000000000000000000000000000000000000000000000898e8d6002018151811061416657fe5b604080516000808252602082019283905263022c0d9f60e01b835260248201878152604483018790526001600160a01b038086166064850152608060848501908152845160a48601819052969750908c169563022c0d9f958a958a958a9591949193919260c486019290918190849084905b838110156148145781810151838201526020016147fc565b50505050905090810190601f1680156148415780820380516001836020036101000a031916815260200191505b5095505050505050600060405180830381600087803b15801561486357600080fd5b505af1158015614877573d6000803e3d6000fd5b50506001909b019a506145889950505050505050505050565b808203828111156113f2576040805162461bcd60e51b815260206004820152601560248201527464732d6d6174682d7375622d756e646572666c6f7760581b604482015290519081900360640190fd5b60008084116149205760405162461bcd60e51b815260040180806020018281038252602a815260200180614e3e602a913960400191505060405180910390fd5b6000831180156149305750600082115b61496b5760405162461bcd60e51b8152600401808060200182810382526026815260200180614f666026913960400191505060405180910390fd5b600061498e6064614982868863ffffffff614d2016565b9063ffffffff614d2016565b905060006149a76063614982868963ffffffff61489016565b90506149c460018284816149b757fe5b049063ffffffff614d8316565b9695505050505050565b600080826001600160a01b0316846001600160a01b03161415614a225760405162461bcd60e51b8152600401808060200182810382526023815260200180614f8c6023913960400191505060405180910390fd5b826001600160a01b0316846001600160a01b031610614a42578284614a45565b83835b90925090506001600160a01b038216614aa5576040805162461bcd60e51b815260206004820152601c60248201527f596f63737761704c6962726172793a205a45524f5f4144445245535300000000604482015290519081900360640190fd5b9250929050565b6040805163e6a4390560e01b81526001600160a01b03888116600483015287811660248301529151600092839283927f00000000000000000000000000000000000000000000000000000000000000009092169163e6a4390591604480820192602092909190829003018186803b158015614b2657600080fd5b505afa158015614b3a573d6000803e3d6000fd5b505050506040513d6020811015614b5057600080fd5b50516001600160a01b03161415614c0357604080516364e329cb60e11b81526001600160a01b038a81166004830152898116602483015291517f00000000000000000000000000000000000000000000000000000000000000009092169163c9c65396916044808201926020929091908290030181600087803b158015614bd657600080fd5b505af1158015614bea573d6000803e3d6000fd5b505050506040513d6020811015614c0057600080fd5b50505b600080614c317f00000000000000000000000000000000000000000000000000000000000000008b8b614406565b91509150816000148015614c43575080155b15614c5357879350869250614d13565b6000614c608984846144d9565b9050878111614cb35785811015614ca85760405162461bcd60e51b8152600401808060200182810382526024815260200180614df66024913960400191505060405180910390fd5b889450925082614d11565b6000614cc08984866144d9565b905089811115614ccc57fe5b87811015614d0b5760405162461bcd60e51b8152600401808060200182810382526024815260200180614e1a6024913960400191505060405180910390fd5b94508793505b505b5050965096945050505050565b6000811580614d3b57505080820282828281614d3857fe5b04145b6113f2576040805162461bcd60e51b815260206004820152601460248201527364732d6d6174682d6d756c2d6f766572666c6f7760601b604482015290519081900360640190fd5b808201828110156113f2576040805162461bcd60e51b815260206004820152601460248201527364732d6d6174682d6164642d6f766572666c6f7760601b604482015290519081900360640190fdfe596f63737761704c6962726172793a20494e53554646494349454e545f414d4f554e54596f6373776170526f757465723a20494e53554646494349454e545f425f414d4f554e54596f6373776170526f757465723a20494e53554646494349454e545f415f414d4f554e54596f63737761704c6962726172793a20494e53554646494349454e545f4f55545055545f414d4f554e54596f6373776170526f757465723a20494e56414c49445f504154480000000000596f6373776170526f757465723a204558504952454400000000000000000000596f6373776170526f757465723a20494e53554646494349454e545f4f55545055545f414d4f554e545472616e7366657248656c7065723a204554485f5452414e534645525f4641494c4544596f63737761704c6962726172793a20494e53554646494349454e545f494e5055545f414d4f554e54596f6373776170526f757465723a204558434553534956455f494e5055545f414d4f554e545472616e7366657248656c7065723a205452414e534645525f46524f4d5f4641494c4544596f63737761704c6962726172793a20494e53554646494349454e545f4c4951554944495459596f63737761704c6962726172793a204944454e544943414c5f414444524553534553a2646970667358221220b011b1bf0b740214b3dd03b628a50764126e19b2bf9912ed7388c60d0136cf3664736f6c63430006060033",
  "linkReferences": {},
  "deployedLinkReferences": {}
}