{
  "_format": "hh-sol-artifact-1",
  "contractName": "YUSD",
  "sourceName": "contracts/YUSD.sol",
  "abi": [
    {
      "inputs": [
        {
          "internalType": "address",
          "name": "_WETH",
          "type": "address"
        },
        {
          "internalType": "address",
          "name": "_YOC",
          "type": "address"
        },
        {
          "internalType": "address",
          "name": "_YocSwapRouter",
          "type": "address"
        },
        {
          "internalType": "address",
          "name": "_admin",
          "type": "address"
        },
        {
          "internalType": "address",
          "name": "_aggregator",
          "type": "address"
        }
      ],
      "stateMutability": "nonpayable",
      "type": "constructor"
    },
    {
      "anonymous": false,
      "inputs": [
        {
          "indexed": true,
          "internalType": "address",
          "name": "tokenOwner",
          "type": "address"
        },
        {
          "indexed": true,
          "internalType": "address",
          "name": "spender",
          "type": "address"
        },
        {
          "indexed": false,
          "internalType": "uint256",
          "name": "tokens",
          "type": "uint256"
        }
      ],
      "name": "Approval",
      "type": "event"
    },
    {
      "anonymous": false,
      "inputs": [
        {
          "indexed": false,
          "internalType": "address",
          "name": "user",
          "type": "address"
        },
        {
          "indexed": false,
          "internalType": "uint256",
          "name": "YUSDAmount",
          "type": "uint256"
        },
        {
          "indexed": false,
          "internalType": "uint256",
          "name": "ETHAmount",
          "type": "uint256"
        },
        {
          "indexed": false,
          "internalType": "uint256",
          "name": "YOCAmount",
          "type": "uint256"
        }
      ],
      "name": "Burn",
      "type": "event"
    },
    {
      "anonymous": false,
      "inputs": [
        {
          "indexed": false,
          "internalType": "uint256",
          "name": "transferETHAmount",
          "type": "uint256"
        },
        {
          "indexed": false,
          "internalType": "uint256",
          "name": "transferYOCAmount",
          "type": "uint256"
        },
        {
          "indexed": false,
          "internalType": "bool",
          "name": "",
          "type": "bool"
        }
      ],
      "name": "Function1",
      "type": "event"
    },
    {
      "anonymous": false,
      "inputs": [
        {
          "indexed": false,
          "internalType": "bool",
          "name": "isETHtoYOC",
          "type": "bool"
        },
        {
          "indexed": false,
          "internalType": "uint256",
          "name": "transferredAmount",
          "type": "uint256"
        }
      ],
      "name": "Function2",
      "type": "event"
    },
    {
      "anonymous": false,
      "inputs": [
        {
          "indexed": false,
          "internalType": "address",
          "name": "user",
          "type": "address"
        },
        {
          "indexed": false,
          "internalType": "uint256",
          "name": "YUSDAmount",
          "type": "uint256"
        },
        {
          "indexed": false,
          "internalType": "uint256",
          "name": "PaidAmount",
          "type": "uint256"
        }
      ],
      "name": "Mint",
      "type": "event"
    },
    {
      "anonymous": false,
      "inputs": [
        {
          "indexed": true,
          "internalType": "address",
          "name": "previousOwner",
          "type": "address"
        },
        {
          "indexed": true,
          "internalType": "address",
          "name": "newOwner",
          "type": "address"
        }
      ],
      "name": "OwnershipTransferred",
      "type": "event"
    },
    {
      "anonymous": false,
      "inputs": [
        {
          "indexed": false,
          "internalType": "bool",
          "name": "state",
          "type": "bool"
        }
      ],
      "name": "SetAutoFunction1Action",
      "type": "event"
    },
    {
      "anonymous": false,
      "inputs": [
        {
          "indexed": true,
          "internalType": "address",
          "name": "from",
          "type": "address"
        },
        {
          "indexed": true,
          "internalType": "address",
          "name": "to",
          "type": "address"
        },
        {
          "indexed": false,
          "internalType": "uint256",
          "name": "tokens",
          "type": "uint256"
        }
      ],
      "name": "Transfer",
      "type": "event"
    },
    {
      "inputs": [],
      "name": "WETH",
      "outputs": [
        {
          "internalType": "address",
          "name": "",
          "type": "address"
        }
      ],
      "stateMutability": "view",
      "type": "function"
    },
    {
      "inputs": [],
      "name": "YOC",
      "outputs": [
        {
          "internalType": "address",
          "name": "",
          "type": "address"
        }
      ],
      "stateMutability": "view",
      "type": "function"
    },
    {
      "inputs": [],
      "name": "_burnSupply",
      "outputs": [
        {
          "internalType": "uint256",
          "name": "",
          "type": "uint256"
        }
      ],
      "stateMutability": "view",
      "type": "function"
    },
    {
      "inputs": [],
      "name": "_totalSupply",
      "outputs": [
        {
          "internalType": "uint256",
          "name": "",
          "type": "uint256"
        }
      ],
      "stateMutability": "view",
      "type": "function"
    },
    {
      "inputs": [],
      "name": "admin",
      "outputs": [
        {
          "internalType": "address",
          "name": "",
          "type": "address"
        }
      ],
      "stateMutability": "view",
      "type": "function"
    },
    {
      "inputs": [
        {
          "internalType": "address",
          "name": "owner",
          "type": "address"
        },
        {
          "internalType": "address",
          "name": "spender",
          "type": "address"
        }
      ],
      "name": "allowance",
      "outputs": [
        {
          "internalType": "uint256",
          "name": "",
          "type": "uint256"
        }
      ],
      "stateMutability": "view",
      "type": "function"
    },
    {
      "inputs": [
        {
          "internalType": "address",
          "name": "spender",
          "type": "address"
        },
        {
          "internalType": "uint256",
          "name": "amount",
          "type": "uint256"
        }
      ],
      "name": "approve",
      "outputs": [
        {
          "internalType": "bool",
          "name": "",
          "type": "bool"
        }
      ],
      "stateMutability": "nonpayable",
      "type": "function"
    },
    {
      "inputs": [],
      "name": "autoFunction1Action",
      "outputs": [
        {
          "internalType": "bool",
          "name": "",
          "type": "bool"
        }
      ],
      "stateMutability": "view",
      "type": "function"
    },
    {
      "inputs": [
        {
          "internalType": "address",
          "name": "account",
          "type": "address"
        }
      ],
      "name": "balanceOf",
      "outputs": [
        {
          "internalType": "uint256",
          "name": "",
          "type": "uint256"
        }
      ],
      "stateMutability": "view",
      "type": "function"
    },
    {
      "inputs": [
        {
          "internalType": "uint256",
          "name": "_amount",
          "type": "uint256"
        }
      ],
      "name": "burn",
      "outputs": [
        {
          "internalType": "bool",
          "name": "success",
          "type": "bool"
        }
      ],
      "stateMutability": "nonpayable",
      "type": "function"
    },
    {
      "inputs": [
        {
          "internalType": "string",
          "name": "a",
          "type": "string"
        },
        {
          "internalType": "string",
          "name": "b",
          "type": "string"
        }
      ],
      "name": "concatStrings",
      "outputs": [
        {
          "internalType": "string",
          "name": "",
          "type": "string"
        }
      ],
      "stateMutability": "pure",
      "type": "function"
    },
    {
      "inputs": [],
      "name": "decimals",
      "outputs": [
        {
          "internalType": "uint8",
          "name": "",
          "type": "uint8"
        }
      ],
      "stateMutability": "view",
      "type": "function"
    },
    {
      "inputs": [],
      "name": "function1",
      "outputs": [
        {
          "internalType": "bool",
          "name": "success",
          "type": "bool"
        }
      ],
      "stateMutability": "nonpayable",
      "type": "function"
    },
    {
      "inputs": [],
      "name": "function2",
      "outputs": [
        {
          "internalType": "bool",
          "name": "success",
          "type": "bool"
        }
      ],
      "stateMutability": "nonpayable",
      "type": "function"
    },
    {
      "inputs": [
        {
          "internalType": "uint256",
          "name": "_amount",
          "type": "uint256"
        }
      ],
      "name": "getETHAmountForMint",
      "outputs": [
        {
          "internalType": "uint256",
          "name": "",
          "type": "uint256"
        }
      ],
      "stateMutability": "view",
      "type": "function"
    },
    {
      "inputs": [],
      "name": "getETHPrice",
      "outputs": [
        {
          "internalType": "uint256",
          "name": "",
          "type": "uint256"
        }
      ],
      "stateMutability": "view",
      "type": "function"
    },
    {
      "inputs": [],
      "name": "getReblancedDetailByFunction2",
      "outputs": [
        {
          "internalType": "bool",
          "name": "isETHtoYOC",
          "type": "bool"
        },
        {
          "internalType": "uint256",
          "name": "transferredAmount",
          "type": "uint256"
        }
      ],
      "stateMutability": "view",
      "type": "function"
    },
    {
      "inputs": [],
      "name": "lastMintTime",
      "outputs": [
        {
          "internalType": "uint256",
          "name": "",
          "type": "uint256"
        }
      ],
      "stateMutability": "view",
      "type": "function"
    },
    {
      "inputs": [
        {
          "internalType": "uint256",
          "name": "_amount",
          "type": "uint256"
        }
      ],
      "name": "mint",
      "outputs": [
        {
          "internalType": "bool",
          "name": "success",
          "type": "bool"
        }
      ],
      "stateMutability": "payable",
      "type": "function"
    },
    {
      "inputs": [],
      "name": "name",
      "outputs": [
        {
          "internalType": "string",
          "name": "",
          "type": "string"
        }
      ],
      "stateMutability": "view",
      "type": "function"
    },
    {
      "inputs": [],
      "name": "owner",
      "outputs": [
        {
          "internalType": "address",
          "name": "",
          "type": "address"
        }
      ],
      "stateMutability": "view",
      "type": "function"
    },
    {
      "inputs": [],
      "name": "price",
      "outputs": [
        {
          "internalType": "uint256",
          "name": "",
          "type": "uint256"
        }
      ],
      "stateMutability": "view",
      "type": "function"
    },
    {
      "inputs": [],
      "name": "rate",
      "outputs": [
        {
          "internalType": "uint256",
          "name": "",
          "type": "uint256"
        }
      ],
      "stateMutability": "view",
      "type": "function"
    },
    {
      "inputs": [],
      "name": "renounceOwnership",
      "outputs": [],
      "stateMutability": "nonpayable",
      "type": "function"
    },
    {
      "inputs": [
        {
          "internalType": "uint256",
          "name": "a",
          "type": "uint256"
        },
        {
          "internalType": "uint256",
          "name": "b",
          "type": "uint256"
        }
      ],
      "name": "safeAdd",
      "outputs": [
        {
          "internalType": "uint256",
          "name": "c",
          "type": "uint256"
        }
      ],
      "stateMutability": "pure",
      "type": "function"
    },
    {
      "inputs": [
        {
          "internalType": "uint256",
          "name": "a",
          "type": "uint256"
        },
        {
          "internalType": "uint256",
          "name": "b",
          "type": "uint256"
        }
      ],
      "name": "safeDiv",
      "outputs": [
        {
          "internalType": "uint256",
          "name": "c",
          "type": "uint256"
        }
      ],
      "stateMutability": "pure",
      "type": "function"
    },
    {
      "inputs": [
        {
          "internalType": "uint256",
          "name": "a",
          "type": "uint256"
        },
        {
          "internalType": "uint256",
          "name": "b",
          "type": "uint256"
        }
      ],
      "name": "safeMul",
      "outputs": [
        {
          "internalType": "uint256",
          "name": "c",
          "type": "uint256"
        }
      ],
      "stateMutability": "pure",
      "type": "function"
    },
    {
      "inputs": [
        {
          "internalType": "uint256",
          "name": "a",
          "type": "uint256"
        },
        {
          "internalType": "uint256",
          "name": "b",
          "type": "uint256"
        }
      ],
      "name": "safeSub",
      "outputs": [
        {
          "internalType": "uint256",
          "name": "c",
          "type": "uint256"
        }
      ],
      "stateMutability": "pure",
      "type": "function"
    },
    {
      "inputs": [
        {
          "internalType": "address",
          "name": "_admin",
          "type": "address"
        }
      ],
      "name": "setAdmin",
      "outputs": [],
      "stateMutability": "nonpayable",
      "type": "function"
    },
    {
      "inputs": [
        {
          "internalType": "bool",
          "name": "state",
          "type": "bool"
        }
      ],
      "name": "setAutoFunction1Action",
      "outputs": [
        {
          "internalType": "bool",
          "name": "",
          "type": "bool"
        }
      ],
      "stateMutability": "nonpayable",
      "type": "function"
    },
    {
      "inputs": [],
      "name": "symbol",
      "outputs": [
        {
          "internalType": "string",
          "name": "",
          "type": "string"
        }
      ],
      "stateMutability": "view",
      "type": "function"
    },
    {
      "inputs": [],
      "name": "totalSupply",
      "outputs": [
        {
          "internalType": "uint256",
          "name": "",
          "type": "uint256"
        }
      ],
      "stateMutability": "view",
      "type": "function"
    },
    {
      "inputs": [
        {
          "internalType": "address",
          "name": "recipient",
          "type": "address"
        },
        {
          "internalType": "uint256",
          "name": "amount",
          "type": "uint256"
        }
      ],
      "name": "transfer",
      "outputs": [
        {
          "internalType": "bool",
          "name": "success",
          "type": "bool"
        }
      ],
      "stateMutability": "nonpayable",
      "type": "function"
    },
    {
      "inputs": [
        {
          "internalType": "address",
          "name": "sender",
          "type": "address"
        },
        {
          "internalType": "address",
          "name": "recipient",
          "type": "address"
        },
        {
          "internalType": "uint256",
          "name": "amount",
          "type": "uint256"
        }
      ],
      "name": "transferFrom",
      "outputs": [
        {
          "internalType": "bool",
          "name": "success",
          "type": "bool"
        }
      ],
      "stateMutability": "nonpayable",
      "type": "function"
    },
    {
      "inputs": [
        {
          "internalType": "address",
          "name": "newOwner",
          "type": "address"
        }
      ],
      "name": "transferOwnership",
      "outputs": [],
      "stateMutability": "nonpayable",
      "type": "function"
    }
  ],
  "bytecode": "0x60c06040526000805460ff60a01b1916600360a11b17815560018190556002556003805460ff191690553480156200003657600080fd5b50604051620031603803806200316083398101604081905262000059916200012c565b6200006433620000bf565b6001600160a01b0394851660805292841660a0526003805491851661010002610100600160a81b0319909216919091179055600480549284166001600160a01b0319938416179055600580549190931691161790556200019c565b600080546001600160a01b038381166001600160a01b0319831681178455604051919092169283917f8be0079c531659141344cd1fd0a4f28419497f9722a3daafe3b4186f6b6457e09190a35050565b80516001600160a01b03811681146200012757600080fd5b919050565b600080600080600060a086880312156200014557600080fd5b62000150866200010f565b945062000160602087016200010f565b935062000170604087016200010f565b925062000180606087016200010f565b915062000190608087016200010f565b90509295509295909350565b60805160a051612eef620002716000396000818161068901528181610a1f01528181610aba01528181610c8a01528181610d8e0152818161100001528181611093015281816113dd015281816114af0152818161174d0152818161183f0152818161195201528181611b7701528181611c1201528181611e5601528181611ee9015261217301526000818161053a01528181610b0e01528181610c36015281816110e701528181611389015281816116f90152818161189301528181611c6601528181611f3d015261211f0152612eef6000f3fe6080604052600436106102045760003560e01c80638da5cb5b11610118578063b3a0860e116100a0578063e6cb90131161006f578063e6cb9013146105fc578063f2fde38b1461061c578063f48650a91461063c578063f851a44014610652578063fd01ea9f1461067757600080fd5b8063b3a0860e1461055c578063b5931f7c14610576578063d05c78da14610596578063dd62ed3e146105b657600080fd5b8063a0712d68116100e7578063a0712d68146104c0578063a293d1e8146104d3578063a607a8d9146104f3578063a9059cbb14610508578063ad5c46481461052857600080fd5b80638da5cb5b1461046357806395d89b41146102095780639d46352014610495578063a035b1fe146104ab57600080fd5b80633920a5031161019b578063704b6c021161016a578063704b6c02146103b557806370a08231146103d7578063715018a61461040d57806378728c7314610422578063788103d61461043757600080fd5b80633920a5031461033f5780633ca3addd1461035f5780633eaaf86b1461037f57806342966c681461039557600080fd5b806323b872dd116101d757806323b872dd146102c257806329a71964146102e25780632c4e722e146102f7578063313ce5671461030c57600080fd5b806306fdde0314610209578063095ea7b31461024f57806312600aa31461027f57806318160ddd1461029f575b600080fd5b34801561021557600080fd5b5061023960405180604001604052806004815260200163165554d160e21b81525081565b60405161024691906127a5565b60405180910390f35b34801561025b57600080fd5b5061026f61026a366004612811565b6106ab565b6040519015158152602001610246565b34801561028b57600080fd5b5061023961029a3660046128f2565b610796565b3480156102ab57600080fd5b506102b46108d2565b604051908152602001610246565b3480156102ce57600080fd5b5061026f6102dd366004612956565b6108e9565b3480156102ee57600080fd5b5061026f6109d5565b34801561030357600080fd5b506102b4610fde565b34801561031857600080fd5b5060005461032d90600160a01b900460ff1681565b60405160ff9091168152602001610246565b34801561034b57600080fd5b5061026f61035a3660046129a0565b6111ed565b34801561036b57600080fd5b506102b461037a3660046129bd565b61126c565b34801561038b57600080fd5b506102b460015481565b3480156103a157600080fd5b5061026f6103b03660046129bd565b61129f565b3480156103c157600080fd5b506103d56103d03660046129d6565b61164b565b005b3480156103e357600080fd5b506102b46103f23660046129d6565b6001600160a01b031660009081526007602052604090205490565b34801561041957600080fd5b506103d561167b565b34801561042e57600080fd5b5061026f61168f565b34801561044357600080fd5b5061044c611b2b565b604080519215158352602083019190915201610246565b34801561046f57600080fd5b506000546001600160a01b03165b6040516001600160a01b039091168152602001610246565b3480156104a157600080fd5b506102b460065481565b3480156104b757600080fd5b506102b4611e34565b61026f6104ce3660046129bd565b61207e565b3480156104df57600080fd5b506102b46104ee3660046129f1565b6122a7565b3480156104ff57600080fd5b506102b46122c7565b34801561051457600080fd5b5061026f610523366004612811565b61234d565b34801561053457600080fd5b5061047d7f000000000000000000000000000000000000000000000000000000000000000081565b34801561056857600080fd5b5060035461026f9060ff1681565b34801561058257600080fd5b506102b46105913660046129f1565b612436565b3480156105a257600080fd5b506102b46105b13660046129f1565b61244e565b3480156105c257600080fd5b506102b46105d1366004612a13565b6001600160a01b03918216600090815260086020908152604080832093909416825291909152205490565b34801561060857600080fd5b506102b46106173660046129f1565b61247a565b34801561062857600080fd5b506103d56106373660046129d6565b612495565b34801561064857600080fd5b506102b460025481565b34801561065e57600080fd5b5060035461047d9061010090046001600160a01b031681565b34801561068357600080fd5b5061047d7f000000000000000000000000000000000000000000000000000000000000000081565b60006001600160a01b0383166107135760405162461bcd60e51b815260206004820152602260248201527f45524332303a20617070726f766520746f20746865207a65726f206164647265604482015261737360f01b60648201526084015b60405180910390fd5b3360009081526008602090815260408083206001600160a01b038716845290915281208054849290610746908490612a5c565b90915550506040518281526001600160a01b0384169033907f8c5be1e5ebec7d5bd14f71427d1e84f3dd0314c0f7b2291e5b200ac8c7c3b925906020015b60405180910390a35060015b92915050565b80518251606091849184916000916107ae9190612a5c565b67ffffffffffffffff8111156107c6576107c661283b565b6040519080825280601f01601f1916602001820160405280156107f0576020820181803683370190505b50905060005b83518110156108575783818151811061081157610811612a74565b602001015160f81c60f81b82828151811061082e5761082e612a74565b60200101906001600160f81b031916908160001a9053508061084f81612a8a565b9150506107f6565b5060005b82518110156108c85782818151811061087657610876612a74565b602001015160f81c60f81b8282865161088f9190612a5c565b8151811061089f5761089f612a74565b60200101906001600160f81b031916908160001a905350806108c081612a8a565b91505061085b565b5095945050505050565b60006002546001546108e49190612aa5565b905090565b6001600160a01b038316600090815260086020908152604080832033845290915281205461091790836122a7565b6001600160a01b03851660008181526008602090815260408083203384528252808320949094559181526007909152205461095290836122a7565b6001600160a01b038086166000908152600760205260408082209390935590851681522054610981908361247a565b6001600160a01b038085166000818152600760205260409081902093909355915190861690600080516020612e9a833981519152906109c39086815260200190565b60405180910390a35060019392505050565b60035460009061010090046001600160a01b03163314610a075760405162461bcd60e51b815260040161070a90612abc565b6040516370a0823160e01b81523060048201526000907f00000000000000000000000000000000000000000000000000000000000000006001600160a01b0316906370a0823190602401602060405180830381865afa158015610a6e573d6000803e3d6000fd5b505050506040513d601f19601f82011682018060405250810190610a929190612af3565b60408051600280825260608201835292935060009290916020830190803683370190505090507f000000000000000000000000000000000000000000000000000000000000000081600081518110610aec57610aec612a74565b60200260200101906001600160a01b031690816001600160a01b0316815250507f000000000000000000000000000000000000000000000000000000000000000081600181518110610b4057610b40612a74565b6001600160a01b03928316602091820292909201015260055460405163d06ca61f60e01b8152600092919091169063d06ca61f90610b849086908690600401612b50565b600060405180830381865afa158015610ba1573d6000803e3d6000fd5b505050506040513d6000823e601f3d908101601f19168201604052610bc99190810190612b71565b9050600081600181518110610be057610be0612a74565b602002602001015147610bf39190612a5c565b905060006064610c0483604b612c17565b610c0e9190612c4c565b60408051600280825260608201835292935060009290916020830190803683370190505090507f000000000000000000000000000000000000000000000000000000000000000081600081518110610c6857610c68612a74565b60200260200101906001600160a01b031690816001600160a01b0316815250507f000000000000000000000000000000000000000000000000000000000000000081600181518110610cbc57610cbc612a74565b6001600160a01b0392831660209182029290920101526005546000911663d06ca61f6064610ceb876019612c17565b610cf59190612c4c565b846040518363ffffffff1660e01b8152600401610d13929190612b50565b600060405180830381865afa158015610d30573d6000803e3d6000fd5b505050506040513d6000823e601f3d908101601f19168201604052610d589190810190612b71565b9050600081600181518110610d6f57610d6f612a74565b6020026020010151905087811015610f11576003546001600160a01b037f000000000000000000000000000000000000000000000000000000000000000081169163a9059cbb9161010090910416610dc7848c612aa5565b6040516001600160e01b031960e085901b1681526001600160a01b03909216600483015260248201526044016020604051808303816000875af1158015610e12573d6000803e3d6000fd5b505050506040513d601f19601f82011682018060405250810190610e369190612c60565b504784811115610ecf5760035461010090046001600160a01b03166108fc610e5e8784612aa5565b6040518115909202916000818181858888f19350505050158015610e86573d6000803e3d6000fd5b50600080516020612e7a833981519152610ea08683612aa5565b610eaa848c612aa5565b60408051928352602083019190915260019082015260600160405180910390a1610f0b565b600080516020612e7a8339815191526000610eea848c612aa5565b60408051928352602083019190915260009082015260600160405180910390a15b50610fcf565b4784811115610f9e5760035461010090046001600160a01b03166108fc610f388784612aa5565b6040518115909202916000818181858888f19350505050158015610f60573d6000803e3d6000fd5b50600080516020612e7a833981519152610f7a8683612aa5565b604080519182526000602083018190529082015260600160405180910390a1610fcd565b60408051600080825260208201819052818301529051600080516020612e7a8339815191529181900360600190a15b505b60019850505050505050505090565b6040516370a0823160e01b815230600482015260009081906001600160a01b037f000000000000000000000000000000000000000000000000000000000000000016906370a0823190602401602060405180830381865afa158015611047573d6000803e3d6000fd5b505050506040513d601f19601f8201168201806040525081019061106b9190612af3565b60408051600280825260608201835292935060009290916020830190803683370190505090507f0000000000000000000000000000000000000000000000000000000000000000816000815181106110c5576110c5612a74565b60200260200101906001600160a01b031690816001600160a01b0316815250507f00000000000000000000000000000000000000000000000000000000000000008160018151811061111957611119612a74565b6001600160a01b03928316602091820292909201015260055460405163d06ca61f60e01b8152600092919091169063d06ca61f9061115d9086908690600401612b50565b600060405180830381865afa15801561117a573d6000803e3d6000fd5b505050506040513d6000823e601f3d908101601f191682016040526111a29190810190612b71565b90506000816001815181106111b9576111b9612a74565b6020026020010151476111cc9190612a5c565b9050806111da476064612c17565b6111e49190612c4c565b94505050505090565b60035460009061010090046001600160a01b0316331461121f5760405162461bcd60e51b815260040161070a90612abc565b6003805460ff19168315159081179091556040519081527f4664180853367dd8fc991788f17bedc985ba7b8c8af1eeb64c46d8c65be05cd49060200160405180910390a15060015b919050565b60006112766122c7565b61128383620f4240612c17565b61129590670de0b6b3a7640000612c17565b6107909190612c4c565b600080546112b890600160a01b900460ff16600a612d61565b6112c29083612c17565b3360009081526007602052604090205410156113145760405162461bcd60e51b8152602060048201526011602482015270125b9cdd59999a58da595b9d08165554d1607a1b604482015260640161070a565b600061131e611e34565b9050620f42408111156113315750620f42405b600061133b6122c7565b6113458386612c17565b61135790670de0b6b3a7640000612c17565b6113619190612c4c565b60408051600280825260608201835292935060009290916020830190803683370190505090507f0000000000000000000000000000000000000000000000000000000000000000816000815181106113bb576113bb612a74565b60200260200101906001600160a01b031690816001600160a01b0316815250507f00000000000000000000000000000000000000000000000000000000000000008160018151811061140f5761140f612a74565b6001600160a01b0392831660209182029290920101526005546000911663d06ca61f606461143e866019612c17565b6114489190612c4c565b846040518363ffffffff1660e01b8152600401611466929190612b50565b600060405180830381865afa158015611483573d6000803e3d6000fd5b505050506040513d6000823e601f3d908101601f191682016040526114ab9190810190612b71565b90507f00000000000000000000000000000000000000000000000000000000000000006001600160a01b031663a9059cbb33836001815181106114f0576114f0612a74565b60200260200101516040518363ffffffff1660e01b81526004016115299291906001600160a01b03929092168252602082015260400190565b6020604051808303816000875af1158015611548573d6000803e3d6000fd5b505050506040513d601f19601f8201168201806040525081019061156c9190612c60565b50336108fc606461157e86604b612c17565b6115889190612c4c565b6040518115909202916000818181858888f193505050501580156115b0573d6000803e3d6000fd5b506115bb338761250e565b7f743033787f4738ff4d6a7225ce2bd0977ee5f86b91a902a58f5e4d0b297b4644338760646115eb87604b612c17565b6115f59190612c4c565b8460018151811061160857611608612a74565b602090810291909101810151604080516001600160a01b03909616865291850193909352830152606082015260800160405180910390a150600195945050505050565b611653612613565b600380546001600160a01b0390921661010002610100600160a81b0319909216919091179055565b611683612613565b61168d600061266d565b565b60035460009061010090046001600160a01b031633146116c15760405162461bcd60e51b815260040161070a90612abc565b6000806116cc611b2b565b91509150811561181c576040805160028082526060820183526000926020830190803683370190505090507f00000000000000000000000000000000000000000000000000000000000000008160008151811061172b5761172b612a74565b60200260200101906001600160a01b031690816001600160a01b0316815250507f00000000000000000000000000000000000000000000000000000000000000008160018151811061177f5761177f612a74565b6001600160a01b03928316602091820292909201015260055416637ff36ab583600084306117af42610e10612a5c565b6040518663ffffffff1660e01b81526004016117ce9493929190612d70565b60006040518083038185885af11580156117ec573d6000803e3d6000fd5b50505050506040513d6000823e601f3d908101601f191682016040526118159190810190612b71565b5050611ae7565b6040805160028082526060820183526000926020830190803683370190505090507f00000000000000000000000000000000000000000000000000000000000000008160008151811061187157611871612a74565b60200260200101906001600160a01b031690816001600160a01b0316815250507f0000000000000000000000000000000000000000000000000000000000000000816001815181106118c5576118c5612a74565b6001600160a01b0392831660209182029290920101526005546040516307c0329d60e21b81526000929190911690631f00ca74906119099086908690600401612b50565b600060405180830381865afa158015611926573d6000803e3d6000fd5b505050506040513d6000823e601f3d908101601f1916820160405261194e9190810190612b71565b90507f00000000000000000000000000000000000000000000000000000000000000006001600160a01b031663095ea7b3600560009054906101000a90046001600160a01b0316836000815181106119a8576119a8612a74565b60200260200101516040518363ffffffff1660e01b81526004016119e19291906001600160a01b03929092168252602082015260400190565b6020604051808303816000875af1158015611a00573d6000803e3d6000fd5b505050506040513d601f19601f82011682018060405250810190611a249190612c60565b5060055481516001600160a01b03909116906318cbafe5908390600090611a4d57611a4d612a74565b6020026020010151600085600360019054906101000a90046001600160a01b031642610e10611a7c9190612a5c565b6040518663ffffffff1660e01b8152600401611a9c959493929190612da5565b6000604051808303816000875af1158015611abb573d6000803e3d6000fd5b505050506040513d6000823e601f3d908101601f19168201604052611ae39190810190612b71565b5050505b604080518315158152602081018390527f40bc71a5762ad20067081581649b69adab745f2a33ed0e0d225a70e3a3d7bbdc910160405180910390a160019250505090565b600354600090819061010090046001600160a01b03163314611b5f5760405162461bcd60e51b815260040161070a90612abc565b6040516370a0823160e01b81523060048201526000907f00000000000000000000000000000000000000000000000000000000000000006001600160a01b0316906370a0823190602401602060405180830381865afa158015611bc6573d6000803e3d6000fd5b505050506040513d601f19601f82011682018060405250810190611bea9190612af3565b60408051600280825260608201835292935060009290916020830190803683370190505090507f000000000000000000000000000000000000000000000000000000000000000081600081518110611c4457611c44612a74565b60200260200101906001600160a01b031690816001600160a01b0316815250507f000000000000000000000000000000000000000000000000000000000000000081600181518110611c9857611c98612a74565b6001600160a01b03928316602091820292909201015260055460405163d06ca61f60e01b8152600092919091169063d06ca61f90611cdc9086908690600401612b50565b600060405180830381865afa158015611cf9573d6000803e3d6000fd5b505050506040513d6000823e601f3d908101601f19168201604052611d219190810190612b71565b9050600081600181518110611d3857611d38612a74565b602002602001015147611d4b9190612a5c565b905060006064611d5c83604b612c17565b611d669190612c4c565b905047811015611d855760019650611d7e8147612aa5565b9550611e2b565b6005546000906001600160a01b0316631f00ca74611da34785612aa5565b876040518363ffffffff1660e01b8152600401611dc1929190612b50565b600060405180830381865afa158015611dde573d6000803e3d6000fd5b505050506040513d6000823e601f3d908101601f19168201604052611e069190810190612b71565b90506000975080600081518110611e1f57611e1f612a74565b60200260200101519650505b50505050509091565b6040516370a0823160e01b815230600482015260009081906001600160a01b037f000000000000000000000000000000000000000000000000000000000000000016906370a0823190602401602060405180830381865afa158015611e9d573d6000803e3d6000fd5b505050506040513d601f19601f82011682018060405250810190611ec19190612af3565b60408051600280825260608201835292935060009290916020830190803683370190505090507f000000000000000000000000000000000000000000000000000000000000000081600081518110611f1b57611f1b612a74565b60200260200101906001600160a01b031690816001600160a01b0316815250507f000000000000000000000000000000000000000000000000000000000000000081600181518110611f6f57611f6f612a74565b6001600160a01b03928316602091820292909201015260055460405163d06ca61f60e01b8152600092919091169063d06ca61f90611fb39086908690600401612b50565b600060405180830381865afa158015611fd0573d6000803e3d6000fd5b505050506040513d6000823e601f3d908101601f19168201604052611ff89190810190612b71565b90506000670de0b6b3a764000061200d6122c7565b8360018151811061202057612020612a74565b6020026020010151476120339190612a5c565b61203d9190612c17565b6120479190612c4c565b60005490915061206290600160a01b900460ff16600a612d61565b61206a6108d2565b6120749190612c4c565b6111e49082612c4c565b600080620f424061208d6122c7565b6120979085612c4c565b6120a19190612c4c565b6120b390670de0b6b3a7640000612c17565b9050803410156120fc5760405162461bcd60e51b8152602060048201526014602482015273125b9cdd59999a58da595b9d081c185e5b595b9d60621b604482015260640161070a565b6040805160028082526060820183526000926020830190803683370190505090507f00000000000000000000000000000000000000000000000000000000000000008160008151811061215157612151612a74565b60200260200101906001600160a01b031690816001600160a01b0316815250507f0000000000000000000000000000000000000000000000000000000000000000816001815181106121a5576121a5612a74565b6001600160a01b03928316602091820292909201015260055416637ff36ab560646121d1346019612c17565b6121db9190612c4c565b600084306121eb42610e10612a5c565b6040518663ffffffff1660e01b815260040161220a9493929190612d70565b60006040518083038185885af1158015612228573d6000803e3d6000fd5b50505050506040513d6000823e601f3d908101601f191682016040526122519190810190612b71565b5061225c33856126bd565b60408051338152602081018690529081018390527f4c209b5fc8ad50758f13e2e1088ba56a560dff690a1c6fef26394f4c03821c4f9060600160405180910390a15060019392505050565b6000828211156122b657600080fd5b6122c08284612aa5565b9392505050565b6004805460408051633fabe5a360e21b8152905160009384936001600160a01b03169263feaf968c928183019260a0928290030181865afa158015612310573d6000803e3d6000fd5b505050506040513d601f19601f820116820180604052508101906123349190612dfb565b5050509150506064816123479190612e4b565b91505090565b60006001600160a01b0383166123b15760405162461bcd60e51b815260206004820152602360248201527f45524332303a207472616e7366657220746f20746865207a65726f206164647260448201526265737360e81b606482015260840161070a565b336000908152600760205260409020546123cb90836122a7565b33600090815260076020526040808220929092556001600160a01b038516815220546123f7908361247a565b6001600160a01b038416600081815260076020526040908190209290925590513390600080516020612e9a833981519152906107849086815260200190565b600080821161244457600080fd5b6122c08284612c4c565b600061245a8284612c17565b905082158061247157508161246f8483612c4c565b145b61079057600080fd5b60006124868284612a5c565b90508281101561079057600080fd5b61249d612613565b6001600160a01b0381166125025760405162461bcd60e51b815260206004820152602660248201527f4f776e61626c653a206e6577206f776e657220697320746865207a65726f206160448201526564647265737360d01b606482015260840161070a565b61250b8161266d565b50565b6001600160a01b0382166125645760405162461bcd60e51b815260206004820152601f60248201527f45524332303a206d696e7420746f20746865207a65726f206164647265737300604482015260640161070a565b60005461257c90600160a01b900460ff16600a612d61565b6125869082612c17565b600260008282546125979190612a5c565b9091555050600080546001600160a01b038416808352600760205260408320805460ff600160a01b948590048116600a90810a880290920390925584549293600080516020612e9a833981519152936125f4939190041690612d61565b6125fe9085612c17565b60405190815260200160405180910390a35050565b6000546001600160a01b0316331461168d5760405162461bcd60e51b815260206004820181905260248201527f4f776e61626c653a2063616c6c6572206973206e6f7420746865206f776e6572604482015260640161070a565b600080546001600160a01b038381166001600160a01b0319831681178455604051919092169283917f8be0079c531659141344cd1fd0a4f28419497f9722a3daafe3b4186f6b6457e09190a35050565b6001600160a01b0382166127135760405162461bcd60e51b815260206004820152601f60248201527f45524332303a206d696e7420746f20746865207a65726f206164647265737300604482015260640161070a565b60005461272b90600160a01b900460ff16600a612d61565b6127359082612c17565b600160008282546127469190612a5c565b9091555050600080546001600160a01b038416808352600760205260408320805460ff600160a01b948590048116600a90810a8802929092019092558454929493600080516020612e9a833981519152936125f4939190041690612d61565b600060208083528351808285015260005b818110156127d2578581018301518582016040015282016127b6565b818111156127e4576000604083870101525b50601f01601f1916929092016040019392505050565b80356001600160a01b038116811461126757600080fd5b6000806040838503121561282457600080fd5b61282d836127fa565b946020939093013593505050565b634e487b7160e01b600052604160045260246000fd5b604051601f8201601f1916810167ffffffffffffffff8111828210171561287a5761287a61283b565b604052919050565b600082601f83011261289357600080fd5b813567ffffffffffffffff8111156128ad576128ad61283b565b6128c0601f8201601f1916602001612851565b8181528460208386010111156128d557600080fd5b816020850160208301376000918101602001919091529392505050565b6000806040838503121561290557600080fd5b823567ffffffffffffffff8082111561291d57600080fd5b61292986838701612882565b9350602085013591508082111561293f57600080fd5b5061294c85828601612882565b9150509250929050565b60008060006060848603121561296b57600080fd5b612974846127fa565b9250612982602085016127fa565b9150604084013590509250925092565b801515811461250b57600080fd5b6000602082840312156129b257600080fd5b81356122c081612992565b6000602082840312156129cf57600080fd5b5035919050565b6000602082840312156129e857600080fd5b6122c0826127fa565b60008060408385031215612a0457600080fd5b50508035926020909101359150565b60008060408385031215612a2657600080fd5b612a2f836127fa565b9150612a3d602084016127fa565b90509250929050565b634e487b7160e01b600052601160045260246000fd5b60008219821115612a6f57612a6f612a46565b500190565b634e487b7160e01b600052603260045260246000fd5b6000600019821415612a9e57612a9e612a46565b5060010190565b600082821015612ab757612ab7612a46565b500390565b6020808252601c908201527f596f7520617265206e6f7420616e2061646d696e6973747261746f7200000000604082015260600190565b600060208284031215612b0557600080fd5b5051919050565b600081518084526020808501945080840160005b83811015612b455781516001600160a01b031687529582019590820190600101612b20565b509495945050505050565b828152604060208201526000612b696040830184612b0c565b949350505050565b60006020808385031215612b8457600080fd5b825167ffffffffffffffff80821115612b9c57600080fd5b818501915085601f830112612bb057600080fd5b815181811115612bc257612bc261283b565b8060051b9150612bd3848301612851565b8181529183018401918481019088841115612bed57600080fd5b938501935b83851015612c0b57845182529385019390850190612bf2565b98975050505050505050565b6000816000190483118215151615612c3157612c31612a46565b500290565b634e487b7160e01b600052601260045260246000fd5b600082612c5b57612c5b612c36565b500490565b600060208284031215612c7257600080fd5b81516122c081612992565b600181815b80851115612cb8578160001904821115612c9e57612c9e612a46565b80851615612cab57918102915b93841c9390800290612c82565b509250929050565b600082612ccf57506001610790565b81612cdc57506000610790565b8160018114612cf25760028114612cfc57612d18565b6001915050610790565b60ff841115612d0d57612d0d612a46565b50506001821b610790565b5060208310610133831016604e8410600b8410161715612d3b575081810a610790565b612d458383612c7d565b8060001904821115612d5957612d59612a46565b029392505050565b60006122c060ff841683612cc0565b848152608060208201526000612d896080830186612b0c565b6001600160a01b03949094166040830152506060015292915050565b85815284602082015260a060408201526000612dc460a0830186612b0c565b6001600160a01b0394909416606083015250608001529392505050565b805169ffffffffffffffffffff8116811461126757600080fd5b600080600080600060a08688031215612e1357600080fd5b612e1c86612de1565b9450602086015193506040860151925060608601519150612e3f60808701612de1565b90509295509295909350565b600082612e5a57612e5a612c36565b600160ff1b821460001984141615612e7457612e74612a46565b50059056fe34a67787fc475ba005a04954c15089862de2764e26f0139d84edab94c5363820ddf252ad1be2c89b69c2b068fc378daa952ba7f163c4a11628f55a4df523b3efa2646970667358221220ec0311443386014d92de67d9f76a01c0f0d2acf099a7412fa6855fb96af1f9c864736f6c634300080a0033",
  "linkReferences": {},
  "deployedLinkReferences": {}
}