{
  "_format": "hh-sol-artifact-1",
  "contractName": "YUSD",
  "sourceName": "contracts/YUSD.sol",
  "abi": [
    {
      "inputs": [
        {
          "internalType": "address",
          "name": "_WETH",
          "type": "address"
        },
        {
          "internalType": "address",
          "name": "_YOC",
          "type": "address"
        },
        {
          "internalType": "address",
          "name": "_YocSwapRouter",
          "type": "address"
        },
        {
          "internalType": "address",
          "name": "_admin",
          "type": "address"
        },
        {
          "internalType": "address",
          "name": "_aggregator",
          "type": "address"
        }
      ],
      "stateMutability": "nonpayable",
      "type": "constructor"
    },
    {
      "anonymous": false,
      "inputs": [
        {
          "indexed": true,
          "internalType": "address",
          "name": "tokenOwner",
          "type": "address"
        },
        {
          "indexed": true,
          "internalType": "address",
          "name": "spender",
          "type": "address"
        },
        {
          "indexed": false,
          "internalType": "uint256",
          "name": "tokens",
          "type": "uint256"
        }
      ],
      "name": "Approval",
      "type": "event"
    },
    {
      "anonymous": false,
      "inputs": [
        {
          "indexed": false,
          "internalType": "address",
          "name": "user",
          "type": "address"
        },
        {
          "indexed": false,
          "internalType": "uint256",
          "name": "YUSDAmount",
          "type": "uint256"
        },
        {
          "indexed": false,
          "internalType": "uint256",
          "name": "ETHAmount",
          "type": "uint256"
        },
        {
          "indexed": false,
          "internalType": "uint256",
          "name": "YOCAmount",
          "type": "uint256"
        }
      ],
      "name": "Burn",
      "type": "event"
    },
    {
      "anonymous": false,
      "inputs": [
        {
          "indexed": false,
          "internalType": "uint256",
          "name": "transferETHAmount",
          "type": "uint256"
        },
        {
          "indexed": false,
          "internalType": "uint256",
          "name": "transferYOCAmount",
          "type": "uint256"
        },
        {
          "indexed": false,
          "internalType": "bool",
          "name": "",
          "type": "bool"
        }
      ],
      "name": "Function1",
      "type": "event"
    },
    {
      "anonymous": false,
      "inputs": [
        {
          "indexed": false,
          "internalType": "bool",
          "name": "isETHtoYOC",
          "type": "bool"
        },
        {
          "indexed": false,
          "internalType": "uint256",
          "name": "transferredAmount",
          "type": "uint256"
        }
      ],
      "name": "Function2",
      "type": "event"
    },
    {
      "anonymous": false,
      "inputs": [
        {
          "indexed": false,
          "internalType": "address",
          "name": "user",
          "type": "address"
        },
        {
          "indexed": false,
          "internalType": "uint256",
          "name": "YUSDAmount",
          "type": "uint256"
        },
        {
          "indexed": false,
          "internalType": "uint256",
          "name": "PaidAmount",
          "type": "uint256"
        }
      ],
      "name": "Mint",
      "type": "event"
    },
    {
      "anonymous": false,
      "inputs": [
        {
          "indexed": true,
          "internalType": "address",
          "name": "previousOwner",
          "type": "address"
        },
        {
          "indexed": true,
          "internalType": "address",
          "name": "newOwner",
          "type": "address"
        }
      ],
      "name": "OwnershipTransferred",
      "type": "event"
    },
    {
      "anonymous": false,
      "inputs": [
        {
          "indexed": false,
          "internalType": "bool",
          "name": "state",
          "type": "bool"
        }
      ],
      "name": "SetAutoFunction1Action",
      "type": "event"
    },
    {
      "anonymous": false,
      "inputs": [
        {
          "indexed": true,
          "internalType": "address",
          "name": "from",
          "type": "address"
        },
        {
          "indexed": true,
          "internalType": "address",
          "name": "to",
          "type": "address"
        },
        {
          "indexed": false,
          "internalType": "uint256",
          "name": "tokens",
          "type": "uint256"
        }
      ],
      "name": "Transfer",
      "type": "event"
    },
    {
      "inputs": [],
      "name": "WETH",
      "outputs": [
        {
          "internalType": "address",
          "name": "",
          "type": "address"
        }
      ],
      "stateMutability": "view",
      "type": "function"
    },
    {
      "inputs": [],
      "name": "YOC",
      "outputs": [
        {
          "internalType": "address",
          "name": "",
          "type": "address"
        }
      ],
      "stateMutability": "view",
      "type": "function"
    },
    {
      "inputs": [],
      "name": "_burnSupply",
      "outputs": [
        {
          "internalType": "uint256",
          "name": "",
          "type": "uint256"
        }
      ],
      "stateMutability": "view",
      "type": "function"
    },
    {
      "inputs": [],
      "name": "_totalSupply",
      "outputs": [
        {
          "internalType": "uint256",
          "name": "",
          "type": "uint256"
        }
      ],
      "stateMutability": "view",
      "type": "function"
    },
    {
      "inputs": [],
      "name": "admin",
      "outputs": [
        {
          "internalType": "address",
          "name": "",
          "type": "address"
        }
      ],
      "stateMutability": "view",
      "type": "function"
    },
    {
      "inputs": [
        {
          "internalType": "address",
          "name": "owner",
          "type": "address"
        },
        {
          "internalType": "address",
          "name": "spender",
          "type": "address"
        }
      ],
      "name": "allowance",
      "outputs": [
        {
          "internalType": "uint256",
          "name": "",
          "type": "uint256"
        }
      ],
      "stateMutability": "view",
      "type": "function"
    },
    {
      "inputs": [
        {
          "internalType": "address",
          "name": "spender",
          "type": "address"
        },
        {
          "internalType": "uint256",
          "name": "amount",
          "type": "uint256"
        }
      ],
      "name": "approve",
      "outputs": [
        {
          "internalType": "bool",
          "name": "",
          "type": "bool"
        }
      ],
      "stateMutability": "nonpayable",
      "type": "function"
    },
    {
      "inputs": [],
      "name": "autoFunction1Action",
      "outputs": [
        {
          "internalType": "bool",
          "name": "",
          "type": "bool"
        }
      ],
      "stateMutability": "view",
      "type": "function"
    },
    {
      "inputs": [
        {
          "internalType": "address",
          "name": "account",
          "type": "address"
        }
      ],
      "name": "balanceOf",
      "outputs": [
        {
          "internalType": "uint256",
          "name": "",
          "type": "uint256"
        }
      ],
      "stateMutability": "view",
      "type": "function"
    },
    {
      "inputs": [
        {
          "internalType": "uint256",
          "name": "_amount",
          "type": "uint256"
        }
      ],
      "name": "burn",
      "outputs": [
        {
          "internalType": "bool",
          "name": "success",
          "type": "bool"
        }
      ],
      "stateMutability": "nonpayable",
      "type": "function"
    },
    {
      "inputs": [
        {
          "internalType": "string",
          "name": "a",
          "type": "string"
        },
        {
          "internalType": "string",
          "name": "b",
          "type": "string"
        }
      ],
      "name": "concatStrings",
      "outputs": [
        {
          "internalType": "string",
          "name": "",
          "type": "string"
        }
      ],
      "stateMutability": "pure",
      "type": "function"
    },
    {
      "inputs": [],
      "name": "decimals",
      "outputs": [
        {
          "internalType": "uint8",
          "name": "",
          "type": "uint8"
        }
      ],
      "stateMutability": "view",
      "type": "function"
    },
    {
      "inputs": [],
      "name": "function1",
      "outputs": [
        {
          "internalType": "bool",
          "name": "success",
          "type": "bool"
        }
      ],
      "stateMutability": "nonpayable",
      "type": "function"
    },
    {
      "inputs": [],
      "name": "function2",
      "outputs": [
        {
          "internalType": "bool",
          "name": "success",
          "type": "bool"
        }
      ],
      "stateMutability": "nonpayable",
      "type": "function"
    },
    {
      "inputs": [
        {
          "internalType": "uint256",
          "name": "_amount",
          "type": "uint256"
        }
      ],
      "name": "getETHAmountForMint",
      "outputs": [
        {
          "internalType": "uint256",
          "name": "",
          "type": "uint256"
        }
      ],
      "stateMutability": "view",
      "type": "function"
    },
    {
      "inputs": [],
      "name": "getETHPrice",
      "outputs": [
        {
          "internalType": "uint256",
          "name": "",
          "type": "uint256"
        }
      ],
      "stateMutability": "view",
      "type": "function"
    },
    {
      "inputs": [],
      "name": "getReblancedDetailByFunction2",
      "outputs": [
        {
          "internalType": "bool",
          "name": "isETHtoYOC",
          "type": "bool"
        },
        {
          "internalType": "uint256",
          "name": "transferredAmount",
          "type": "uint256"
        }
      ],
      "stateMutability": "view",
      "type": "function"
    },
    {
      "inputs": [],
      "name": "lastMintTime",
      "outputs": [
        {
          "internalType": "uint256",
          "name": "",
          "type": "uint256"
        }
      ],
      "stateMutability": "view",
      "type": "function"
    },
    {
      "inputs": [
        {
          "internalType": "uint256",
          "name": "_amount",
          "type": "uint256"
        }
      ],
      "name": "mint",
      "outputs": [
        {
          "internalType": "bool",
          "name": "success",
          "type": "bool"
        }
      ],
      "stateMutability": "payable",
      "type": "function"
    },
    {
      "inputs": [],
      "name": "name",
      "outputs": [
        {
          "internalType": "string",
          "name": "",
          "type": "string"
        }
      ],
      "stateMutability": "view",
      "type": "function"
    },
    {
      "inputs": [],
      "name": "owner",
      "outputs": [
        {
          "internalType": "address",
          "name": "",
          "type": "address"
        }
      ],
      "stateMutability": "view",
      "type": "function"
    },
    {
      "inputs": [],
      "name": "price",
      "outputs": [
        {
          "internalType": "uint256",
          "name": "",
          "type": "uint256"
        }
      ],
      "stateMutability": "view",
      "type": "function"
    },
    {
      "inputs": [],
      "name": "rate",
      "outputs": [
        {
          "internalType": "uint256",
          "name": "",
          "type": "uint256"
        }
      ],
      "stateMutability": "view",
      "type": "function"
    },
    {
      "inputs": [],
      "name": "renounceOwnership",
      "outputs": [],
      "stateMutability": "nonpayable",
      "type": "function"
    },
    {
      "inputs": [
        {
          "internalType": "uint256",
          "name": "a",
          "type": "uint256"
        },
        {
          "internalType": "uint256",
          "name": "b",
          "type": "uint256"
        }
      ],
      "name": "safeAdd",
      "outputs": [
        {
          "internalType": "uint256",
          "name": "c",
          "type": "uint256"
        }
      ],
      "stateMutability": "pure",
      "type": "function"
    },
    {
      "inputs": [
        {
          "internalType": "uint256",
          "name": "a",
          "type": "uint256"
        },
        {
          "internalType": "uint256",
          "name": "b",
          "type": "uint256"
        }
      ],
      "name": "safeDiv",
      "outputs": [
        {
          "internalType": "uint256",
          "name": "c",
          "type": "uint256"
        }
      ],
      "stateMutability": "pure",
      "type": "function"
    },
    {
      "inputs": [
        {
          "internalType": "uint256",
          "name": "a",
          "type": "uint256"
        },
        {
          "internalType": "uint256",
          "name": "b",
          "type": "uint256"
        }
      ],
      "name": "safeMul",
      "outputs": [
        {
          "internalType": "uint256",
          "name": "c",
          "type": "uint256"
        }
      ],
      "stateMutability": "pure",
      "type": "function"
    },
    {
      "inputs": [
        {
          "internalType": "uint256",
          "name": "a",
          "type": "uint256"
        },
        {
          "internalType": "uint256",
          "name": "b",
          "type": "uint256"
        }
      ],
      "name": "safeSub",
      "outputs": [
        {
          "internalType": "uint256",
          "name": "c",
          "type": "uint256"
        }
      ],
      "stateMutability": "pure",
      "type": "function"
    },
    {
      "inputs": [
        {
          "internalType": "address",
          "name": "_admin",
          "type": "address"
        }
      ],
      "name": "setAdmin",
      "outputs": [],
      "stateMutability": "nonpayable",
      "type": "function"
    },
    {
      "inputs": [
        {
          "internalType": "bool",
          "name": "state",
          "type": "bool"
        }
      ],
      "name": "setAutoFunction1Action",
      "outputs": [
        {
          "internalType": "bool",
          "name": "",
          "type": "bool"
        }
      ],
      "stateMutability": "nonpayable",
      "type": "function"
    },
    {
      "inputs": [],
      "name": "symbol",
      "outputs": [
        {
          "internalType": "string",
          "name": "",
          "type": "string"
        }
      ],
      "stateMutability": "view",
      "type": "function"
    },
    {
      "inputs": [],
      "name": "totalSupply",
      "outputs": [
        {
          "internalType": "uint256",
          "name": "",
          "type": "uint256"
        }
      ],
      "stateMutability": "view",
      "type": "function"
    },
    {
      "inputs": [
        {
          "internalType": "address",
          "name": "recipient",
          "type": "address"
        },
        {
          "internalType": "uint256",
          "name": "amount",
          "type": "uint256"
        }
      ],
      "name": "transfer",
      "outputs": [
        {
          "internalType": "bool",
          "name": "success",
          "type": "bool"
        }
      ],
      "stateMutability": "nonpayable",
      "type": "function"
    },
    {
      "inputs": [
        {
          "internalType": "address",
          "name": "sender",
          "type": "address"
        },
        {
          "internalType": "address",
          "name": "recipient",
          "type": "address"
        },
        {
          "internalType": "uint256",
          "name": "amount",
          "type": "uint256"
        }
      ],
      "name": "transferFrom",
      "outputs": [
        {
          "internalType": "bool",
          "name": "success",
          "type": "bool"
        }
      ],
      "stateMutability": "nonpayable",
      "type": "function"
    },
    {
      "inputs": [
        {
          "internalType": "address",
          "name": "newOwner",
          "type": "address"
        }
      ],
      "name": "transferOwnership",
      "outputs": [],
      "stateMutability": "nonpayable",
      "type": "function"
    },
    {
      "stateMutability": "payable",
      "type": "receive"
    }
  ],
  "bytecode": "0x60c06040526000805460ff60a01b1916600360a11b17815560018190556002556003805460ff191690553480156200003657600080fd5b5060405162002c8c38038062002c8c83398101604081905262000059916200012c565b6200006433620000bf565b6001600160a01b0394851660805292841660a0526003805491851661010002610100600160a81b0319909216919091179055600480549284166001600160a01b0319938416179055600580549190931691161790556200019c565b600080546001600160a01b038381166001600160a01b0319831681178455604051919092169283917f8be0079c531659141344cd1fd0a4f28419497f9722a3daafe3b4186f6b6457e09190a35050565b80516001600160a01b03811681146200012757600080fd5b919050565b600080600080600060a086880312156200014557600080fd5b62000150866200010f565b945062000160602087016200010f565b935062000170604087016200010f565b925062000180606087016200010f565b915062000190608087016200010f565b90509295509295909350565b60805160a051612a37620002556000396000818161069401528181610a4e01528181610ae401528181610c5801528181610ceb0152818161103501528181611107015281816113a50152818161149701528181611554015281816116e00152818161177b015281816119bf01528181611a520152611cdb01526000818161054501528181610d3f01528181610fe101528181611351015281816114eb015281816117cf01528181611aa60152611c870152612a376000f3fe6080604052600436106102085760003560e01c80638da5cb5b11610118578063b3a0860e116100a0578063e6cb90131161006f578063e6cb901314610607578063f2fde38b14610627578063f48650a914610647578063f851a4401461065d578063fd01ea9f1461068257600080fd5b8063b3a0860e14610567578063b5931f7c14610581578063d05c78da146105a1578063dd62ed3e146105c157600080fd5b8063a0712d68116100e7578063a0712d68146104cb578063a293d1e8146104de578063a607a8d9146104fe578063a9059cbb14610513578063ad5c46481461053357600080fd5b80638da5cb5b1461046e57806395d89b41146102145780639d463520146104a0578063a035b1fe146104b657600080fd5b80633920a5031161019b578063704b6c021161016a578063704b6c02146103c057806370a08231146103e2578063715018a61461041857806378728c731461042d578063788103d61461044257600080fd5b80633920a5031461034a5780633ca3addd1461036a5780633eaaf86b1461038a57806342966c68146103a057600080fd5b806323b872dd116101d757806323b872dd146102cd57806329a71964146102ed5780632c4e722e14610302578063313ce5671461031757600080fd5b806306fdde0314610214578063095ea7b31461025a57806312600aa31461028a57806318160ddd146102aa57600080fd5b3661020f57005b600080fd5b34801561022057600080fd5b5061024460405180604001604052806004815260200163165554d160e21b81525081565b604051610251919061230d565b60405180910390f35b34801561026657600080fd5b5061027a610275366004612379565b6106b6565b6040519015158152602001610251565b34801561029657600080fd5b506102446102a536600461245a565b6107a1565b3480156102b657600080fd5b506102bf6108dd565b604051908152602001610251565b3480156102d957600080fd5b5061027a6102e83660046124be565b6108f4565b3480156102f957600080fd5b5061027a6109e0565b34801561030e57600080fd5b506102bf610c36565b34801561032357600080fd5b5060005461033890600160a01b900460ff1681565b60405160ff9091168152602001610251565b34801561035657600080fd5b5061027a610365366004612508565b610e45565b34801561037657600080fd5b506102bf610385366004612525565b610ec4565b34801561039657600080fd5b506102bf60015481565b3480156103ac57600080fd5b5061027a6103bb366004612525565b610ef7565b3480156103cc57600080fd5b506103e06103db36600461253e565b6112a3565b005b3480156103ee57600080fd5b506102bf6103fd36600461253e565b6001600160a01b031660009081526007602052604090205490565b34801561042457600080fd5b506103e06112d3565b34801561043957600080fd5b5061027a6112e7565b34801561044e57600080fd5b50610457611694565b604080519215158352602083019190915201610251565b34801561047a57600080fd5b506000546001600160a01b03165b6040516001600160a01b039091168152602001610251565b3480156104ac57600080fd5b506102bf60065481565b3480156104c257600080fd5b506102bf61199d565b61027a6104d9366004612525565b611be7565b3480156104ea57600080fd5b506102bf6104f9366004612559565b611e0f565b34801561050a57600080fd5b506102bf611e2f565b34801561051f57600080fd5b5061027a61052e366004612379565b611eb5565b34801561053f57600080fd5b506104887f000000000000000000000000000000000000000000000000000000000000000081565b34801561057357600080fd5b5060035461027a9060ff1681565b34801561058d57600080fd5b506102bf61059c366004612559565b611f9e565b3480156105ad57600080fd5b506102bf6105bc366004612559565b611fb6565b3480156105cd57600080fd5b506102bf6105dc36600461257b565b6001600160a01b03918216600090815260086020908152604080832093909416825291909152205490565b34801561061357600080fd5b506102bf610622366004612559565b611fe2565b34801561063357600080fd5b506103e061064236600461253e565b611ffd565b34801561065357600080fd5b506102bf60025481565b34801561066957600080fd5b506003546104889061010090046001600160a01b031681565b34801561068e57600080fd5b506104887f000000000000000000000000000000000000000000000000000000000000000081565b60006001600160a01b03831661071e5760405162461bcd60e51b815260206004820152602260248201527f45524332303a20617070726f766520746f20746865207a65726f206164647265604482015261737360f01b60648201526084015b60405180910390fd5b3360009081526008602090815260408083206001600160a01b0387168452909152812080548492906107519084906125c4565b90915550506040518281526001600160a01b0384169033907f8c5be1e5ebec7d5bd14f71427d1e84f3dd0314c0f7b2291e5b200ac8c7c3b925906020015b60405180910390a35060015b92915050565b80518251606091849184916000916107b991906125c4565b67ffffffffffffffff8111156107d1576107d16123a3565b6040519080825280601f01601f1916602001820160405280156107fb576020820181803683370190505b50905060005b83518110156108625783818151811061081c5761081c6125dc565b602001015160f81c60f81b828281518110610839576108396125dc565b60200101906001600160f81b031916908160001a9053508061085a816125f2565b915050610801565b5060005b82518110156108d357828181518110610881576108816125dc565b602001015160f81c60f81b8282865161089a91906125c4565b815181106108aa576108aa6125dc565b60200101906001600160f81b031916908160001a905350806108cb816125f2565b915050610866565b5095945050505050565b60006002546001546108ef919061260d565b905090565b6001600160a01b03831660009081526008602090815260408083203384529091528120546109229083611e0f565b6001600160a01b03851660008181526008602090815260408083203384528252808320949094559181526007909152205461095d9083611e0f565b6001600160a01b03808616600090815260076020526040808220939093559085168152205461098c9083611fe2565b6001600160a01b0380851660008181526007602052604090819020939093559151908616906000805160206129e2833981519152906109ce9086815260200190565b60405180910390a35060019392505050565b60035460009061010090046001600160a01b03163314610a125760405162461bcd60e51b815260040161071590612624565b60006064610a2147604661265b565b610a2b9190612690565b6040516370a0823160e01b81523060048201529091506000906001600160a01b037f000000000000000000000000000000000000000000000000000000000000000016906370a0823190602401602060405180830381865afa158015610a95573d6000803e3d6000fd5b505050506040513d601f19601f82011682018060405250810190610ab991906126a4565b905060006064610aca83604661265b565b610ad49190612690565b6003549091506001600160a01b037f000000000000000000000000000000000000000000000000000000000000000081169163a9059cbb9161010090910416610b1d848661260d565b6040516001600160e01b031960e085901b1681526001600160a01b03909216600483015260248201526044016020604051808303816000875af1158015610b68573d6000803e3d6000fd5b505050506040513d601f19601f82011682018060405250810190610b8c91906126bd565b50600354479061010090046001600160a01b03166108fc610bad868461260d565b6040518115909202916000818181858888f19350505050158015610bd5573d6000803e3d6000fd5b507f34a67787fc475ba005a04954c15089862de2764e26f0139d84edab94c5363820610c01858361260d565b610c0b848661260d565b60408051928352602083019190915260019082015260600160405180910390a1600194505050505090565b6040516370a0823160e01b815230600482015260009081906001600160a01b037f000000000000000000000000000000000000000000000000000000000000000016906370a0823190602401602060405180830381865afa158015610c9f573d6000803e3d6000fd5b505050506040513d601f19601f82011682018060405250810190610cc391906126a4565b60408051600280825260608201835292935060009290916020830190803683370190505090507f000000000000000000000000000000000000000000000000000000000000000081600081518110610d1d57610d1d6125dc565b60200260200101906001600160a01b031690816001600160a01b0316815250507f000000000000000000000000000000000000000000000000000000000000000081600181518110610d7157610d716125dc565b6001600160a01b03928316602091820292909201015260055460405163d06ca61f60e01b8152600092919091169063d06ca61f90610db5908690869060040161271e565b600060405180830381865afa158015610dd2573d6000803e3d6000fd5b505050506040513d6000823e601f3d908101601f19168201604052610dfa919081019061273f565b9050600081600181518110610e1157610e116125dc565b602002602001015147610e2491906125c4565b905080610e3247606461265b565b610e3c9190612690565b94505050505090565b60035460009061010090046001600160a01b03163314610e775760405162461bcd60e51b815260040161071590612624565b6003805460ff19168315159081179091556040519081527f4664180853367dd8fc991788f17bedc985ba7b8c8af1eeb64c46d8c65be05cd49060200160405180910390a15060015b919050565b6000610ece611e2f565b610edb83620f424061265b565b610eed90670de0b6b3a764000061265b565b61079b9190612690565b60008054610f1090600160a01b900460ff16600a6128c9565b610f1a908361265b565b336000908152600760205260409020541015610f6c5760405162461bcd60e51b8152602060048201526011602482015270125b9cdd59999a58da595b9d08165554d1607a1b6044820152606401610715565b6000610f7661199d565b9050620f4240811115610f895750620f42405b6000610f93611e2f565b610f9d838661265b565b610faf90670de0b6b3a764000061265b565b610fb99190612690565b60408051600280825260608201835292935060009290916020830190803683370190505090507f000000000000000000000000000000000000000000000000000000000000000081600081518110611013576110136125dc565b60200260200101906001600160a01b031690816001600160a01b0316815250507f000000000000000000000000000000000000000000000000000000000000000081600181518110611067576110676125dc565b6001600160a01b0392831660209182029290920101526005546000911663d06ca61f606461109686601961265b565b6110a09190612690565b846040518363ffffffff1660e01b81526004016110be92919061271e565b600060405180830381865afa1580156110db573d6000803e3d6000fd5b505050506040513d6000823e601f3d908101601f19168201604052611103919081019061273f565b90507f00000000000000000000000000000000000000000000000000000000000000006001600160a01b031663a9059cbb3383600181518110611148576111486125dc565b60200260200101516040518363ffffffff1660e01b81526004016111819291906001600160a01b03929092168252602082015260400190565b6020604051808303816000875af11580156111a0573d6000803e3d6000fd5b505050506040513d601f19601f820116820180604052508101906111c491906126bd565b50336108fc60646111d686604b61265b565b6111e09190612690565b6040518115909202916000818181858888f19350505050158015611208573d6000803e3d6000fd5b506112133387612076565b7f743033787f4738ff4d6a7225ce2bd0977ee5f86b91a902a58f5e4d0b297b46443387606461124387604b61265b565b61124d9190612690565b84600181518110611260576112606125dc565b602090810291909101810151604080516001600160a01b03909616865291850193909352830152606082015260800160405180910390a150600195945050505050565b6112ab61217b565b600380546001600160a01b0390921661010002610100600160a81b0319909216919091179055565b6112db61217b565b6112e560006121d5565b565b60035460009061010090046001600160a01b031633146113195760405162461bcd60e51b815260040161071590612624565b600080611324611694565b915091508115611474576040805160028082526060820183526000926020830190803683370190505090507f000000000000000000000000000000000000000000000000000000000000000081600081518110611383576113836125dc565b60200260200101906001600160a01b031690816001600160a01b0316815250507f0000000000000000000000000000000000000000000000000000000000000000816001815181106113d7576113d76125dc565b6001600160a01b03928316602091820292909201015260055416637ff36ab5836000843061140742610e106125c4565b6040518663ffffffff1660e01b815260040161142694939291906128d8565b60006040518083038185885af1158015611444573d6000803e3d6000fd5b50505050506040513d6000823e601f3d908101601f1916820160405261146d919081019061273f565b5050611650565b6040805160028082526060820183526000926020830190803683370190505090507f0000000000000000000000000000000000000000000000000000000000000000816000815181106114c9576114c96125dc565b60200260200101906001600160a01b031690816001600160a01b0316815250507f00000000000000000000000000000000000000000000000000000000000000008160018151811061151d5761151d6125dc565b6001600160a01b03928316602091820292909201015260055460405163095ea7b360e01b81529082166004820152602481018490527f00000000000000000000000000000000000000000000000000000000000000009091169063095ea7b3906044016020604051808303816000875af115801561159f573d6000803e3d6000fd5b505050506040513d601f19601f820116820180604052508101906115c391906126bd565b506005546001600160a01b03166318cbafe583600084306115e642610e106125c4565b6040518663ffffffff1660e01b815260040161160695949392919061290d565b6000604051808303816000875af1158015611625573d6000803e3d6000fd5b505050506040513d6000823e601f3d908101601f1916820160405261164d919081019061273f565b50505b604080518315158152602081018390527f40bc71a5762ad20067081581649b69adab745f2a33ed0e0d225a70e3a3d7bbdc910160405180910390a160019250505090565b600354600090819061010090046001600160a01b031633146116c85760405162461bcd60e51b815260040161071590612624565b6040516370a0823160e01b81523060048201526000907f00000000000000000000000000000000000000000000000000000000000000006001600160a01b0316906370a0823190602401602060405180830381865afa15801561172f573d6000803e3d6000fd5b505050506040513d601f19601f8201168201806040525081019061175391906126a4565b60408051600280825260608201835292935060009290916020830190803683370190505090507f0000000000000000000000000000000000000000000000000000000000000000816000815181106117ad576117ad6125dc565b60200260200101906001600160a01b031690816001600160a01b0316815250507f000000000000000000000000000000000000000000000000000000000000000081600181518110611801576118016125dc565b6001600160a01b03928316602091820292909201015260055460405163d06ca61f60e01b8152600092919091169063d06ca61f90611845908690869060040161271e565b600060405180830381865afa158015611862573d6000803e3d6000fd5b505050506040513d6000823e601f3d908101601f1916820160405261188a919081019061273f565b90506000816001815181106118a1576118a16125dc565b6020026020010151476118b491906125c4565b9050600060646118c583604b61265b565b6118cf9190612690565b9050478110156118ee57600196506118e7814761260d565b9550611994565b6005546000906001600160a01b0316631f00ca7461190c478561260d565b876040518363ffffffff1660e01b815260040161192a92919061271e565b600060405180830381865afa158015611947573d6000803e3d6000fd5b505050506040513d6000823e601f3d908101601f1916820160405261196f919081019061273f565b90506000975080600081518110611988576119886125dc565b60200260200101519650505b50505050509091565b6040516370a0823160e01b815230600482015260009081906001600160a01b037f000000000000000000000000000000000000000000000000000000000000000016906370a0823190602401602060405180830381865afa158015611a06573d6000803e3d6000fd5b505050506040513d601f19601f82011682018060405250810190611a2a91906126a4565b60408051600280825260608201835292935060009290916020830190803683370190505090507f000000000000000000000000000000000000000000000000000000000000000081600081518110611a8457611a846125dc565b60200260200101906001600160a01b031690816001600160a01b0316815250507f000000000000000000000000000000000000000000000000000000000000000081600181518110611ad857611ad86125dc565b6001600160a01b03928316602091820292909201015260055460405163d06ca61f60e01b8152600092919091169063d06ca61f90611b1c908690869060040161271e565b600060405180830381865afa158015611b39573d6000803e3d6000fd5b505050506040513d6000823e601f3d908101601f19168201604052611b61919081019061273f565b90506000670de0b6b3a7640000611b76611e2f565b83600181518110611b8957611b896125dc565b602002602001015147611b9c91906125c4565b611ba6919061265b565b611bb09190612690565b600054909150611bcb90600160a01b900460ff16600a6128c9565b611bd36108dd565b611bdd9190612690565b610e3c9082612690565b600080611bf2611e2f565b611bff84620f424061265b565b611c1190670de0b6b3a764000061265b565b611c1b9190612690565b905080341015611c645760405162461bcd60e51b8152602060048201526014602482015273125b9cdd59999a58da595b9d081c185e5b595b9d60621b6044820152606401610715565b6040805160028082526060820183526000926020830190803683370190505090507f000000000000000000000000000000000000000000000000000000000000000081600081518110611cb957611cb96125dc565b60200260200101906001600160a01b031690816001600160a01b0316815250507f000000000000000000000000000000000000000000000000000000000000000081600181518110611d0d57611d0d6125dc565b6001600160a01b03928316602091820292909201015260055416637ff36ab56064611d3934601961265b565b611d439190612690565b60008430611d5342610e106125c4565b6040518663ffffffff1660e01b8152600401611d7294939291906128d8565b60006040518083038185885af1158015611d90573d6000803e3d6000fd5b50505050506040513d6000823e601f3d908101601f19168201604052611db9919081019061273f565b50611dc43385612225565b60408051338152602081018690529081018390527f4c209b5fc8ad50758f13e2e1088ba56a560dff690a1c6fef26394f4c03821c4f9060600160405180910390a15060019392505050565b600082821115611e1e57600080fd5b611e28828461260d565b9392505050565b6004805460408051633fabe5a360e21b8152905160009384936001600160a01b03169263feaf968c928183019260a0928290030181865afa158015611e78573d6000803e3d6000fd5b505050506040513d601f19601f82011682018060405250810190611e9c9190612963565b505050915050606481611eaf91906129b3565b91505090565b60006001600160a01b038316611f195760405162461bcd60e51b815260206004820152602360248201527f45524332303a207472616e7366657220746f20746865207a65726f206164647260448201526265737360e81b6064820152608401610715565b33600090815260076020526040902054611f339083611e0f565b33600090815260076020526040808220929092556001600160a01b03851681522054611f5f9083611fe2565b6001600160a01b0384166000818152600760205260409081902092909255905133906000805160206129e28339815191529061078f9086815260200190565b6000808211611fac57600080fd5b611e288284612690565b6000611fc2828461265b565b9050821580611fd9575081611fd78483612690565b145b61079b57600080fd5b6000611fee82846125c4565b90508281101561079b57600080fd5b61200561217b565b6001600160a01b03811661206a5760405162461bcd60e51b815260206004820152602660248201527f4f776e61626c653a206e6577206f776e657220697320746865207a65726f206160448201526564647265737360d01b6064820152608401610715565b612073816121d5565b50565b6001600160a01b0382166120cc5760405162461bcd60e51b815260206004820152601f60248201527f45524332303a206d696e7420746f20746865207a65726f2061646472657373006044820152606401610715565b6000546120e490600160a01b900460ff16600a6128c9565b6120ee908261265b565b600260008282546120ff91906125c4565b9091555050600080546001600160a01b038416808352600760205260408320805460ff600160a01b948590048116600a90810a8802909203909255845492936000805160206129e28339815191529361215c9391900416906128c9565b612166908561265b565b60405190815260200160405180910390a35050565b6000546001600160a01b031633146112e55760405162461bcd60e51b815260206004820181905260248201527f4f776e61626c653a2063616c6c6572206973206e6f7420746865206f776e65726044820152606401610715565b600080546001600160a01b038381166001600160a01b0319831681178455604051919092169283917f8be0079c531659141344cd1fd0a4f28419497f9722a3daafe3b4186f6b6457e09190a35050565b6001600160a01b03821661227b5760405162461bcd60e51b815260206004820152601f60248201527f45524332303a206d696e7420746f20746865207a65726f2061646472657373006044820152606401610715565b60005461229390600160a01b900460ff16600a6128c9565b61229d908261265b565b600160008282546122ae91906125c4565b9091555050600080546001600160a01b038416808352600760205260408320805460ff600160a01b948590048116600a90810a88029290920190925584549294936000805160206129e28339815191529361215c9391900416906128c9565b600060208083528351808285015260005b8181101561233a5785810183015185820160400152820161231e565b8181111561234c576000604083870101525b50601f01601f1916929092016040019392505050565b80356001600160a01b0381168114610ebf57600080fd5b6000806040838503121561238c57600080fd5b61239583612362565b946020939093013593505050565b634e487b7160e01b600052604160045260246000fd5b604051601f8201601f1916810167ffffffffffffffff811182821017156123e2576123e26123a3565b604052919050565b600082601f8301126123fb57600080fd5b813567ffffffffffffffff811115612415576124156123a3565b612428601f8201601f19166020016123b9565b81815284602083860101111561243d57600080fd5b816020850160208301376000918101602001919091529392505050565b6000806040838503121561246d57600080fd5b823567ffffffffffffffff8082111561248557600080fd5b612491868387016123ea565b935060208501359150808211156124a757600080fd5b506124b4858286016123ea565b9150509250929050565b6000806000606084860312156124d357600080fd5b6124dc84612362565b92506124ea60208501612362565b9150604084013590509250925092565b801515811461207357600080fd5b60006020828403121561251a57600080fd5b8135611e28816124fa565b60006020828403121561253757600080fd5b5035919050565b60006020828403121561255057600080fd5b611e2882612362565b6000806040838503121561256c57600080fd5b50508035926020909101359150565b6000806040838503121561258e57600080fd5b61259783612362565b91506125a560208401612362565b90509250929050565b634e487b7160e01b600052601160045260246000fd5b600082198211156125d7576125d76125ae565b500190565b634e487b7160e01b600052603260045260246000fd5b6000600019821415612606576126066125ae565b5060010190565b60008282101561261f5761261f6125ae565b500390565b6020808252601c908201527f596f7520617265206e6f7420616e2061646d696e6973747261746f7200000000604082015260600190565b6000816000190483118215151615612675576126756125ae565b500290565b634e487b7160e01b600052601260045260246000fd5b60008261269f5761269f61267a565b500490565b6000602082840312156126b657600080fd5b5051919050565b6000602082840312156126cf57600080fd5b8151611e28816124fa565b600081518084526020808501945080840160005b838110156127135781516001600160a01b0316875295820195908201906001016126ee565b509495945050505050565b82815260406020820152600061273760408301846126da565b949350505050565b6000602080838503121561275257600080fd5b825167ffffffffffffffff8082111561276a57600080fd5b818501915085601f83011261277e57600080fd5b815181811115612790576127906123a3565b8060051b91506127a18483016123b9565b81815291830184019184810190888411156127bb57600080fd5b938501935b838510156127d9578451825293850193908501906127c0565b98975050505050505050565b600181815b80851115612820578160001904821115612806576128066125ae565b8085161561281357918102915b93841c93908002906127ea565b509250929050565b6000826128375750600161079b565b816128445750600061079b565b816001811461285a576002811461286457612880565b600191505061079b565b60ff841115612875576128756125ae565b50506001821b61079b565b5060208310610133831016604e8410600b84101617156128a3575081810a61079b565b6128ad83836127e5565b80600019048211156128c1576128c16125ae565b029392505050565b6000611e2860ff841683612828565b8481526080602082015260006128f160808301866126da565b6001600160a01b03949094166040830152506060015292915050565b85815284602082015260a06040820152600061292c60a08301866126da565b6001600160a01b0394909416606083015250608001529392505050565b805169ffffffffffffffffffff81168114610ebf57600080fd5b600080600080600060a0868803121561297b57600080fd5b61298486612949565b94506020860151935060408601519250606086015191506129a760808701612949565b90509295509295909350565b6000826129c2576129c261267a565b600160ff1b8214600019841416156129dc576129dc6125ae565b50059056feddf252ad1be2c89b69c2b068fc378daa952ba7f163c4a11628f55a4df523b3efa2646970667358221220878c24a0a4a75e6ad10095e8976c1452d63c16760a8cf60344edba5401be519164736f6c634300080a0033",
  "linkReferences": {},
  "deployedLinkReferences": {}
}