{
  "_format": "hh-sol-artifact-1",
  "contractName": "YUSD",
  "sourceName": "contracts/YUSD.sol",
  "abi": [
    {
      "inputs": [
        {
          "internalType": "address",
          "name": "_WETH",
          "type": "address"
        },
        {
          "internalType": "address",
          "name": "_YOC",
          "type": "address"
        },
        {
          "internalType": "address",
          "name": "_YocSwapRouter",
          "type": "address"
        },
        {
          "internalType": "address",
          "name": "_admin",
          "type": "address"
        },
        {
          "internalType": "address",
          "name": "_aggregator",
          "type": "address"
        }
      ],
      "stateMutability": "nonpayable",
      "type": "constructor"
    },
    {
      "anonymous": false,
      "inputs": [
        {
          "indexed": true,
          "internalType": "address",
          "name": "tokenOwner",
          "type": "address"
        },
        {
          "indexed": true,
          "internalType": "address",
          "name": "spender",
          "type": "address"
        },
        {
          "indexed": false,
          "internalType": "uint256",
          "name": "tokens",
          "type": "uint256"
        }
      ],
      "name": "Approval",
      "type": "event"
    },
    {
      "anonymous": false,
      "inputs": [
        {
          "indexed": false,
          "internalType": "address",
          "name": "user",
          "type": "address"
        },
        {
          "indexed": false,
          "internalType": "uint256",
          "name": "YUSDAmount",
          "type": "uint256"
        },
        {
          "indexed": false,
          "internalType": "uint256",
          "name": "ETHAmount",
          "type": "uint256"
        },
        {
          "indexed": false,
          "internalType": "uint256",
          "name": "YOCAmount",
          "type": "uint256"
        }
      ],
      "name": "Burn",
      "type": "event"
    },
    {
      "anonymous": false,
      "inputs": [
        {
          "indexed": false,
          "internalType": "uint256",
          "name": "transferETHAmount",
          "type": "uint256"
        },
        {
          "indexed": false,
          "internalType": "uint256",
          "name": "transferYOCAmount",
          "type": "uint256"
        },
        {
          "indexed": false,
          "internalType": "bool",
          "name": "",
          "type": "bool"
        }
      ],
      "name": "Function1",
      "type": "event"
    },
    {
      "anonymous": false,
      "inputs": [
        {
          "indexed": false,
          "internalType": "bool",
          "name": "isETHtoYOC",
          "type": "bool"
        },
        {
          "indexed": false,
          "internalType": "uint256",
          "name": "transferredAmount",
          "type": "uint256"
        }
      ],
      "name": "Function2",
      "type": "event"
    },
    {
      "anonymous": false,
      "inputs": [
        {
          "indexed": false,
          "internalType": "address",
          "name": "user",
          "type": "address"
        },
        {
          "indexed": false,
          "internalType": "uint256",
          "name": "YUSDAmount",
          "type": "uint256"
        },
        {
          "indexed": false,
          "internalType": "uint256",
          "name": "PaidAmount",
          "type": "uint256"
        }
      ],
      "name": "Mint",
      "type": "event"
    },
    {
      "anonymous": false,
      "inputs": [
        {
          "indexed": true,
          "internalType": "address",
          "name": "previousOwner",
          "type": "address"
        },
        {
          "indexed": true,
          "internalType": "address",
          "name": "newOwner",
          "type": "address"
        }
      ],
      "name": "OwnershipTransferred",
      "type": "event"
    },
    {
      "anonymous": false,
      "inputs": [
        {
          "indexed": false,
          "internalType": "bool",
          "name": "state",
          "type": "bool"
        }
      ],
      "name": "SetAutoFunction1Action",
      "type": "event"
    },
    {
      "anonymous": false,
      "inputs": [
        {
          "indexed": true,
          "internalType": "address",
          "name": "from",
          "type": "address"
        },
        {
          "indexed": true,
          "internalType": "address",
          "name": "to",
          "type": "address"
        },
        {
          "indexed": false,
          "internalType": "uint256",
          "name": "tokens",
          "type": "uint256"
        }
      ],
      "name": "Transfer",
      "type": "event"
    },
    {
      "inputs": [],
      "name": "WETH",
      "outputs": [
        {
          "internalType": "address",
          "name": "",
          "type": "address"
        }
      ],
      "stateMutability": "view",
      "type": "function"
    },
    {
      "inputs": [],
      "name": "YOC",
      "outputs": [
        {
          "internalType": "address",
          "name": "",
          "type": "address"
        }
      ],
      "stateMutability": "view",
      "type": "function"
    },
    {
      "inputs": [],
      "name": "_burnSupply",
      "outputs": [
        {
          "internalType": "uint256",
          "name": "",
          "type": "uint256"
        }
      ],
      "stateMutability": "view",
      "type": "function"
    },
    {
      "inputs": [],
      "name": "_totalSupply",
      "outputs": [
        {
          "internalType": "uint256",
          "name": "",
          "type": "uint256"
        }
      ],
      "stateMutability": "view",
      "type": "function"
    },
    {
      "inputs": [],
      "name": "admin",
      "outputs": [
        {
          "internalType": "address",
          "name": "",
          "type": "address"
        }
      ],
      "stateMutability": "view",
      "type": "function"
    },
    {
      "inputs": [
        {
          "internalType": "address",
          "name": "owner",
          "type": "address"
        },
        {
          "internalType": "address",
          "name": "spender",
          "type": "address"
        }
      ],
      "name": "allowance",
      "outputs": [
        {
          "internalType": "uint256",
          "name": "",
          "type": "uint256"
        }
      ],
      "stateMutability": "view",
      "type": "function"
    },
    {
      "inputs": [
        {
          "internalType": "address",
          "name": "spender",
          "type": "address"
        },
        {
          "internalType": "uint256",
          "name": "amount",
          "type": "uint256"
        }
      ],
      "name": "approve",
      "outputs": [
        {
          "internalType": "bool",
          "name": "",
          "type": "bool"
        }
      ],
      "stateMutability": "nonpayable",
      "type": "function"
    },
    {
      "inputs": [],
      "name": "autoFunction1Action",
      "outputs": [
        {
          "internalType": "bool",
          "name": "",
          "type": "bool"
        }
      ],
      "stateMutability": "view",
      "type": "function"
    },
    {
      "inputs": [
        {
          "internalType": "address",
          "name": "account",
          "type": "address"
        }
      ],
      "name": "balanceOf",
      "outputs": [
        {
          "internalType": "uint256",
          "name": "",
          "type": "uint256"
        }
      ],
      "stateMutability": "view",
      "type": "function"
    },
    {
      "inputs": [
        {
          "internalType": "uint256",
          "name": "_amount",
          "type": "uint256"
        }
      ],
      "name": "burn",
      "outputs": [
        {
          "internalType": "bool",
          "name": "success",
          "type": "bool"
        }
      ],
      "stateMutability": "nonpayable",
      "type": "function"
    },
    {
      "inputs": [
        {
          "internalType": "string",
          "name": "a",
          "type": "string"
        },
        {
          "internalType": "string",
          "name": "b",
          "type": "string"
        }
      ],
      "name": "concatStrings",
      "outputs": [
        {
          "internalType": "string",
          "name": "",
          "type": "string"
        }
      ],
      "stateMutability": "pure",
      "type": "function"
    },
    {
      "inputs": [],
      "name": "decimals",
      "outputs": [
        {
          "internalType": "uint8",
          "name": "",
          "type": "uint8"
        }
      ],
      "stateMutability": "view",
      "type": "function"
    },
    {
      "inputs": [],
      "name": "function1",
      "outputs": [
        {
          "internalType": "bool",
          "name": "success",
          "type": "bool"
        }
      ],
      "stateMutability": "nonpayable",
      "type": "function"
    },
    {
      "inputs": [],
      "name": "function2",
      "outputs": [
        {
          "internalType": "bool",
          "name": "success",
          "type": "bool"
        }
      ],
      "stateMutability": "nonpayable",
      "type": "function"
    },
    {
      "inputs": [
        {
          "internalType": "uint256",
          "name": "_amount",
          "type": "uint256"
        }
      ],
      "name": "getETHAmountForMint",
      "outputs": [
        {
          "internalType": "uint256",
          "name": "",
          "type": "uint256"
        }
      ],
      "stateMutability": "view",
      "type": "function"
    },
    {
      "inputs": [],
      "name": "getETHPrice",
      "outputs": [
        {
          "internalType": "uint256",
          "name": "",
          "type": "uint256"
        }
      ],
      "stateMutability": "view",
      "type": "function"
    },
    {
      "inputs": [],
      "name": "getReblancedDetailByFunction2",
      "outputs": [
        {
          "internalType": "bool",
          "name": "isETHtoYOC",
          "type": "bool"
        },
        {
          "internalType": "uint256",
          "name": "transferredAmount",
          "type": "uint256"
        }
      ],
      "stateMutability": "view",
      "type": "function"
    },
    {
      "inputs": [
        {
          "internalType": "uint256",
          "name": "_amount",
          "type": "uint256"
        }
      ],
      "name": "getYOCAmountForMint",
      "outputs": [
        {
          "internalType": "uint256",
          "name": "",
          "type": "uint256"
        }
      ],
      "stateMutability": "view",
      "type": "function"
    },
    {
      "inputs": [],
      "name": "lastMintTime",
      "outputs": [
        {
          "internalType": "uint256",
          "name": "",
          "type": "uint256"
        }
      ],
      "stateMutability": "view",
      "type": "function"
    },
    {
      "inputs": [
        {
          "internalType": "uint256",
          "name": "_amount",
          "type": "uint256"
        }
      ],
      "name": "mint",
      "outputs": [
        {
          "internalType": "bool",
          "name": "success",
          "type": "bool"
        }
      ],
      "stateMutability": "payable",
      "type": "function"
    },
    {
      "inputs": [
        {
          "internalType": "uint256",
          "name": "_amount",
          "type": "uint256"
        }
      ],
      "name": "mintWithYOC",
      "outputs": [
        {
          "internalType": "bool",
          "name": "success",
          "type": "bool"
        }
      ],
      "stateMutability": "nonpayable",
      "type": "function"
    },
    {
      "inputs": [],
      "name": "name",
      "outputs": [
        {
          "internalType": "string",
          "name": "",
          "type": "string"
        }
      ],
      "stateMutability": "view",
      "type": "function"
    },
    {
      "inputs": [],
      "name": "owner",
      "outputs": [
        {
          "internalType": "address",
          "name": "",
          "type": "address"
        }
      ],
      "stateMutability": "view",
      "type": "function"
    },
    {
      "inputs": [],
      "name": "price",
      "outputs": [
        {
          "internalType": "uint256",
          "name": "",
          "type": "uint256"
        }
      ],
      "stateMutability": "view",
      "type": "function"
    },
    {
      "inputs": [],
      "name": "rate",
      "outputs": [
        {
          "internalType": "uint256",
          "name": "",
          "type": "uint256"
        }
      ],
      "stateMutability": "view",
      "type": "function"
    },
    {
      "inputs": [],
      "name": "renounceOwnership",
      "outputs": [],
      "stateMutability": "nonpayable",
      "type": "function"
    },
    {
      "inputs": [
        {
          "internalType": "uint256",
          "name": "a",
          "type": "uint256"
        },
        {
          "internalType": "uint256",
          "name": "b",
          "type": "uint256"
        }
      ],
      "name": "safeAdd",
      "outputs": [
        {
          "internalType": "uint256",
          "name": "c",
          "type": "uint256"
        }
      ],
      "stateMutability": "pure",
      "type": "function"
    },
    {
      "inputs": [
        {
          "internalType": "uint256",
          "name": "a",
          "type": "uint256"
        },
        {
          "internalType": "uint256",
          "name": "b",
          "type": "uint256"
        }
      ],
      "name": "safeDiv",
      "outputs": [
        {
          "internalType": "uint256",
          "name": "c",
          "type": "uint256"
        }
      ],
      "stateMutability": "pure",
      "type": "function"
    },
    {
      "inputs": [
        {
          "internalType": "uint256",
          "name": "a",
          "type": "uint256"
        },
        {
          "internalType": "uint256",
          "name": "b",
          "type": "uint256"
        }
      ],
      "name": "safeMul",
      "outputs": [
        {
          "internalType": "uint256",
          "name": "c",
          "type": "uint256"
        }
      ],
      "stateMutability": "pure",
      "type": "function"
    },
    {
      "inputs": [
        {
          "internalType": "uint256",
          "name": "a",
          "type": "uint256"
        },
        {
          "internalType": "uint256",
          "name": "b",
          "type": "uint256"
        }
      ],
      "name": "safeSub",
      "outputs": [
        {
          "internalType": "uint256",
          "name": "c",
          "type": "uint256"
        }
      ],
      "stateMutability": "pure",
      "type": "function"
    },
    {
      "inputs": [
        {
          "internalType": "address",
          "name": "_admin",
          "type": "address"
        }
      ],
      "name": "setAdmin",
      "outputs": [],
      "stateMutability": "nonpayable",
      "type": "function"
    },
    {
      "inputs": [
        {
          "internalType": "bool",
          "name": "state",
          "type": "bool"
        }
      ],
      "name": "setAutoFunction1Action",
      "outputs": [
        {
          "internalType": "bool",
          "name": "",
          "type": "bool"
        }
      ],
      "stateMutability": "nonpayable",
      "type": "function"
    },
    {
      "inputs": [],
      "name": "symbol",
      "outputs": [
        {
          "internalType": "string",
          "name": "",
          "type": "string"
        }
      ],
      "stateMutability": "view",
      "type": "function"
    },
    {
      "inputs": [],
      "name": "totalSupply",
      "outputs": [
        {
          "internalType": "uint256",
          "name": "",
          "type": "uint256"
        }
      ],
      "stateMutability": "view",
      "type": "function"
    },
    {
      "inputs": [
        {
          "internalType": "address",
          "name": "recipient",
          "type": "address"
        },
        {
          "internalType": "uint256",
          "name": "amount",
          "type": "uint256"
        }
      ],
      "name": "transfer",
      "outputs": [
        {
          "internalType": "bool",
          "name": "success",
          "type": "bool"
        }
      ],
      "stateMutability": "nonpayable",
      "type": "function"
    },
    {
      "inputs": [
        {
          "internalType": "address",
          "name": "sender",
          "type": "address"
        },
        {
          "internalType": "address",
          "name": "recipient",
          "type": "address"
        },
        {
          "internalType": "uint256",
          "name": "amount",
          "type": "uint256"
        }
      ],
      "name": "transferFrom",
      "outputs": [
        {
          "internalType": "bool",
          "name": "success",
          "type": "bool"
        }
      ],
      "stateMutability": "nonpayable",
      "type": "function"
    },
    {
      "inputs": [
        {
          "internalType": "address",
          "name": "newOwner",
          "type": "address"
        }
      ],
      "name": "transferOwnership",
      "outputs": [],
      "stateMutability": "nonpayable",
      "type": "function"
    },
    {
      "stateMutability": "payable",
      "type": "receive"
    }
  ],
  "bytecode": "0x60c06040526000805460ff60a01b1916600360a11b17815560018190556002556003805460ff191690553480156200003657600080fd5b50604051620031083803806200310883398101604081905262000059916200012c565b6200006433620000bf565b6001600160a01b0394851660805292841660a0526003805491851661010002610100600160a81b0319909216919091179055600480549284166001600160a01b0319938416179055600580549190931691161790556200019c565b600080546001600160a01b038381166001600160a01b0319831681178455604051919092169283917f8be0079c531659141344cd1fd0a4f28419497f9722a3daafe3b4186f6b6457e09190a35050565b80516001600160a01b03811681146200012757600080fd5b919050565b600080600080600060a086880312156200014557600080fd5b62000150866200010f565b945062000160602087016200010f565b935062000170604087016200010f565b925062000180606087016200010f565b915062000190608087016200010f565b90509295509295909350565b60805160a051612e896200027f600039600081816106ea01528181610aa401528181610b3a01528181610cae01528181610d410152818161108b0152818161115d0152818161132a015281816113ad015281816114800152818161170b015281816117fd015281816118ba01528181611a4601528181611ae101528181611d2501528181611db801528181612019015261232601526000818161057b01528181610d9501528181611037015281816114d4015281816116b70152818161185101528181611b3501528181611e0c01528181611fc501526122d20152612e896000f3fe60806040526004361061021e5760003560e01c80638da5cb5b11610123578063b3a0860e116100ab578063e6cb90131161006f578063e6cb90131461065d578063f2fde38b1461067d578063f48650a91461069d578063f851a440146106b3578063fd01ea9f146106d857600080fd5b8063b3a0860e1461059d578063b5931f7c146105b7578063cf4800c0146105d7578063d05c78da146105f7578063dd62ed3e1461061757600080fd5b8063a0712d68116100f2578063a0712d6814610501578063a293d1e814610514578063a607a8d914610534578063a9059cbb14610549578063ad5c46481461056957600080fd5b80638da5cb5b146104a457806395d89b411461022a5780639d463520146104d6578063a035b1fe146104ec57600080fd5b80633ca3addd116101a6578063704b6c0211610175578063704b6c02146103f657806370a0823114610418578063715018a61461044e57806378728c7314610463578063788103d61461047857600080fd5b80633ca3addd146103805780633eaaf86b146103a057806342966c68146103b657806348d8ae20146103d657600080fd5b806323b872dd116101ed57806323b872dd146102e357806329a71964146103035780632c4e722e14610318578063313ce5671461032d5780633920a5031461036057600080fd5b806306fdde031461022a578063095ea7b31461027057806312600aa3146102a057806318160ddd146102c057600080fd5b3661022557005b600080fd5b34801561023657600080fd5b5061025a60405180604001604052806004815260200163165554d160e21b81525081565b604051610267919061275f565b60405180910390f35b34801561027c57600080fd5b5061029061028b3660046127cb565b61070c565b6040519015158152602001610267565b3480156102ac57600080fd5b5061025a6102bb3660046128ac565b6107f7565b3480156102cc57600080fd5b506102d5610933565b604051908152602001610267565b3480156102ef57600080fd5b506102906102fe366004612910565b61094a565b34801561030f57600080fd5b50610290610a36565b34801561032457600080fd5b506102d5610c8c565b34801561033957600080fd5b5060005461034e90600160a01b900460ff1681565b60405160ff9091168152602001610267565b34801561036c57600080fd5b5061029061037b36600461295a565b610e9b565b34801561038c57600080fd5b506102d561039b366004612977565b610f1a565b3480156103ac57600080fd5b506102d560015481565b3480156103c257600080fd5b506102906103d1366004612977565b610f4d565b3480156103e257600080fd5b506102906103f1366004612977565b6112f9565b34801561040257600080fd5b50610416610411366004612990565b611609565b005b34801561042457600080fd5b506102d5610433366004612990565b6001600160a01b031660009081526007602052604090205490565b34801561045a57600080fd5b50610416611639565b34801561046f57600080fd5b5061029061164d565b34801561048457600080fd5b5061048d6119fa565b604080519215158352602083019190915201610267565b3480156104b057600080fd5b506000546001600160a01b03165b6040516001600160a01b039091168152602001610267565b3480156104e257600080fd5b506102d560065481565b3480156104f857600080fd5b506102d5611d03565b61029061050f366004612977565b611f4d565b34801561052057600080fd5b506102d561052f3660046129ab565b6120f7565b34801561054057600080fd5b506102d5612117565b34801561055557600080fd5b506102906105643660046127cb565b61219d565b34801561057557600080fd5b506104be7f000000000000000000000000000000000000000000000000000000000000000081565b3480156105a957600080fd5b506003546102909060ff1681565b3480156105c357600080fd5b506102d56105d23660046129ab565b612286565b3480156105e357600080fd5b506102d56105f2366004612977565b61229e565b34801561060357600080fd5b506102d56106123660046129ab565b612408565b34801561062357600080fd5b506102d56106323660046129cd565b6001600160a01b03918216600090815260086020908152604080832093909416825291909152205490565b34801561066957600080fd5b506102d56106783660046129ab565b612434565b34801561068957600080fd5b50610416610698366004612990565b61244f565b3480156106a957600080fd5b506102d560025481565b3480156106bf57600080fd5b506003546104be9061010090046001600160a01b031681565b3480156106e457600080fd5b506104be7f000000000000000000000000000000000000000000000000000000000000000081565b60006001600160a01b0383166107745760405162461bcd60e51b815260206004820152602260248201527f45524332303a20617070726f766520746f20746865207a65726f206164647265604482015261737360f01b60648201526084015b60405180910390fd5b3360009081526008602090815260408083206001600160a01b0387168452909152812080548492906107a7908490612a16565b90915550506040518281526001600160a01b0384169033907f8c5be1e5ebec7d5bd14f71427d1e84f3dd0314c0f7b2291e5b200ac8c7c3b925906020015b60405180910390a35060015b92915050565b805182516060918491849160009161080f9190612a16565b67ffffffffffffffff811115610827576108276127f5565b6040519080825280601f01601f191660200182016040528015610851576020820181803683370190505b50905060005b83518110156108b85783818151811061087257610872612a2e565b602001015160f81c60f81b82828151811061088f5761088f612a2e565b60200101906001600160f81b031916908160001a905350806108b081612a44565b915050610857565b5060005b8251811015610929578281815181106108d7576108d7612a2e565b602001015160f81c60f81b828286516108f09190612a16565b8151811061090057610900612a2e565b60200101906001600160f81b031916908160001a9053508061092181612a44565b9150506108bc565b5095945050505050565b60006002546001546109459190612a5f565b905090565b6001600160a01b038316600090815260086020908152604080832033845290915281205461097890836120f7565b6001600160a01b0385166000818152600860209081526040808320338452825280832094909455918152600790915220546109b390836120f7565b6001600160a01b0380861660009081526007602052604080822093909355908516815220546109e29083612434565b6001600160a01b038085166000818152600760205260409081902093909355915190861690600080516020612e3483398151915290610a249086815260200190565b60405180910390a35060019392505050565b60035460009061010090046001600160a01b03163314610a685760405162461bcd60e51b815260040161076b90612a76565b60006064610a77476046612aad565b610a819190612ae2565b6040516370a0823160e01b81523060048201529091506000906001600160a01b037f000000000000000000000000000000000000000000000000000000000000000016906370a0823190602401602060405180830381865afa158015610aeb573d6000803e3d6000fd5b505050506040513d601f19601f82011682018060405250810190610b0f9190612af6565b905060006064610b20836046612aad565b610b2a9190612ae2565b6003549091506001600160a01b037f000000000000000000000000000000000000000000000000000000000000000081169163a9059cbb9161010090910416610b738486612a5f565b6040516001600160e01b031960e085901b1681526001600160a01b03909216600483015260248201526044016020604051808303816000875af1158015610bbe573d6000803e3d6000fd5b505050506040513d601f19601f82011682018060405250810190610be29190612b0f565b50600354479061010090046001600160a01b03166108fc610c038684612a5f565b6040518115909202916000818181858888f19350505050158015610c2b573d6000803e3d6000fd5b507f34a67787fc475ba005a04954c15089862de2764e26f0139d84edab94c5363820610c578583612a5f565b610c618486612a5f565b60408051928352602083019190915260019082015260600160405180910390a1600194505050505090565b6040516370a0823160e01b815230600482015260009081906001600160a01b037f000000000000000000000000000000000000000000000000000000000000000016906370a0823190602401602060405180830381865afa158015610cf5573d6000803e3d6000fd5b505050506040513d601f19601f82011682018060405250810190610d199190612af6565b60408051600280825260608201835292935060009290916020830190803683370190505090507f000000000000000000000000000000000000000000000000000000000000000081600081518110610d7357610d73612a2e565b60200260200101906001600160a01b031690816001600160a01b0316815250507f000000000000000000000000000000000000000000000000000000000000000081600181518110610dc757610dc7612a2e565b6001600160a01b03928316602091820292909201015260055460405163d06ca61f60e01b8152600092919091169063d06ca61f90610e0b9086908690600401612b70565b600060405180830381865afa158015610e28573d6000803e3d6000fd5b505050506040513d6000823e601f3d908101601f19168201604052610e509190810190612b91565b9050600081600181518110610e6757610e67612a2e565b602002602001015147610e7a9190612a16565b905080610e88476064612aad565b610e929190612ae2565b94505050505090565b60035460009061010090046001600160a01b03163314610ecd5760405162461bcd60e51b815260040161076b90612a76565b6003805460ff19168315159081179091556040519081527f4664180853367dd8fc991788f17bedc985ba7b8c8af1eeb64c46d8c65be05cd49060200160405180910390a15060015b919050565b6000610f24612117565b610f3183620f4240612aad565b610f4390670de0b6b3a7640000612aad565b6107f19190612ae2565b60008054610f6690600160a01b900460ff16600a612d1b565b610f709083612aad565b336000908152600760205260409020541015610fc25760405162461bcd60e51b8152602060048201526011602482015270125b9cdd59999a58da595b9d08165554d1607a1b604482015260640161076b565b6000610fcc611d03565b9050620f4240811115610fdf5750620f42405b6000610fe9612117565b610ff38386612aad565b61100590670de0b6b3a7640000612aad565b61100f9190612ae2565b60408051600280825260608201835292935060009290916020830190803683370190505090507f00000000000000000000000000000000000000000000000000000000000000008160008151811061106957611069612a2e565b60200260200101906001600160a01b031690816001600160a01b0316815250507f0000000000000000000000000000000000000000000000000000000000000000816001815181106110bd576110bd612a2e565b6001600160a01b0392831660209182029290920101526005546000911663d06ca61f60646110ec866019612aad565b6110f69190612ae2565b846040518363ffffffff1660e01b8152600401611114929190612b70565b600060405180830381865afa158015611131573d6000803e3d6000fd5b505050506040513d6000823e601f3d908101601f191682016040526111599190810190612b91565b90507f00000000000000000000000000000000000000000000000000000000000000006001600160a01b031663a9059cbb338360018151811061119e5761119e612a2e565b60200260200101516040518363ffffffff1660e01b81526004016111d79291906001600160a01b03929092168252602082015260400190565b6020604051808303816000875af11580156111f6573d6000803e3d6000fd5b505050506040513d601f19601f8201168201806040525081019061121a9190612b0f565b50336108fc606461122c86604b612aad565b6112369190612ae2565b6040518115909202916000818181858888f1935050505015801561125e573d6000803e3d6000fd5b5061126933876124c8565b7f743033787f4738ff4d6a7225ce2bd0977ee5f86b91a902a58f5e4d0b297b46443387606461129987604b612aad565b6112a39190612ae2565b846001815181106112b6576112b6612a2e565b602090810291909101810151604080516001600160a01b03909616865291850193909352830152606082015260800160405180910390a150600195945050505050565b6000806113058361229e565b6040516323b872dd60e01b8152336004820152306024820152604481018290529091507f00000000000000000000000000000000000000000000000000000000000000006001600160a01b0316906323b872dd906064016020604051808303816000875af115801561137b573d6000803e3d6000fd5b505050506040513d601f19601f8201168201806040525081019061139f9190612b0f565b506005546001600160a01b037f000000000000000000000000000000000000000000000000000000000000000081169163095ea7b3911660646113e385604b612aad565b6113ed9190612ae2565b6040516001600160e01b031960e085901b1681526001600160a01b03909216600483015260248201526044016020604051808303816000875af1158015611438573d6000803e3d6000fd5b505050506040513d601f19601f8201168201806040525081019061145c9190612b0f565b506040805160028082526060820183526000926020830190803683370190505090507f0000000000000000000000000000000000000000000000000000000000000000816000815181106114b2576114b2612a2e565b60200260200101906001600160a01b031690816001600160a01b0316815250507f00000000000000000000000000000000000000000000000000000000000000008160018151811061150657611506612a2e565b6001600160a01b039283166020918202929092010152600554166318cbafe5606461153285604b612aad565b61153c9190612ae2565b6000843061154c42610e10612a16565b6040518663ffffffff1660e01b815260040161156c959493929190612d2a565b6000604051808303816000875af115801561158b573d6000803e3d6000fd5b505050506040513d6000823e601f3d908101601f191682016040526115b39190810190612b91565b506115be33856125cd565b60408051338152602081018690529081018390527f4c209b5fc8ad50758f13e2e1088ba56a560dff690a1c6fef26394f4c03821c4f9060600160405180910390a15060019392505050565b6116116126b5565b600380546001600160a01b0390921661010002610100600160a81b0319909216919091179055565b6116416126b5565b61164b600061270f565b565b60035460009061010090046001600160a01b0316331461167f5760405162461bcd60e51b815260040161076b90612a76565b60008061168a6119fa565b9150915081156117da576040805160028082526060820183526000926020830190803683370190505090507f0000000000000000000000000000000000000000000000000000000000000000816000815181106116e9576116e9612a2e565b60200260200101906001600160a01b031690816001600160a01b0316815250507f00000000000000000000000000000000000000000000000000000000000000008160018151811061173d5761173d612a2e565b6001600160a01b03928316602091820292909201015260055416637ff36ab5836000843061176d42610e10612a16565b6040518663ffffffff1660e01b815260040161178c9493929190612d66565b60006040518083038185885af11580156117aa573d6000803e3d6000fd5b50505050506040513d6000823e601f3d908101601f191682016040526117d39190810190612b91565b50506119b6565b6040805160028082526060820183526000926020830190803683370190505090507f00000000000000000000000000000000000000000000000000000000000000008160008151811061182f5761182f612a2e565b60200260200101906001600160a01b031690816001600160a01b0316815250507f00000000000000000000000000000000000000000000000000000000000000008160018151811061188357611883612a2e565b6001600160a01b03928316602091820292909201015260055460405163095ea7b360e01b81529082166004820152602481018490527f00000000000000000000000000000000000000000000000000000000000000009091169063095ea7b3906044016020604051808303816000875af1158015611905573d6000803e3d6000fd5b505050506040513d601f19601f820116820180604052508101906119299190612b0f565b506005546001600160a01b03166318cbafe5836000843061194c42610e10612a16565b6040518663ffffffff1660e01b815260040161196c959493929190612d2a565b6000604051808303816000875af115801561198b573d6000803e3d6000fd5b505050506040513d6000823e601f3d908101601f191682016040526119b39190810190612b91565b50505b604080518315158152602081018390527f40bc71a5762ad20067081581649b69adab745f2a33ed0e0d225a70e3a3d7bbdc910160405180910390a160019250505090565b600354600090819061010090046001600160a01b03163314611a2e5760405162461bcd60e51b815260040161076b90612a76565b6040516370a0823160e01b81523060048201526000907f00000000000000000000000000000000000000000000000000000000000000006001600160a01b0316906370a0823190602401602060405180830381865afa158015611a95573d6000803e3d6000fd5b505050506040513d601f19601f82011682018060405250810190611ab99190612af6565b60408051600280825260608201835292935060009290916020830190803683370190505090507f000000000000000000000000000000000000000000000000000000000000000081600081518110611b1357611b13612a2e565b60200260200101906001600160a01b031690816001600160a01b0316815250507f000000000000000000000000000000000000000000000000000000000000000081600181518110611b6757611b67612a2e565b6001600160a01b03928316602091820292909201015260055460405163d06ca61f60e01b8152600092919091169063d06ca61f90611bab9086908690600401612b70565b600060405180830381865afa158015611bc8573d6000803e3d6000fd5b505050506040513d6000823e601f3d908101601f19168201604052611bf09190810190612b91565b9050600081600181518110611c0757611c07612a2e565b602002602001015147611c1a9190612a16565b905060006064611c2b83604b612aad565b611c359190612ae2565b905047811015611c545760019650611c4d8147612a5f565b9550611cfa565b6005546000906001600160a01b0316631f00ca74611c724785612a5f565b876040518363ffffffff1660e01b8152600401611c90929190612b70565b600060405180830381865afa158015611cad573d6000803e3d6000fd5b505050506040513d6000823e601f3d908101601f19168201604052611cd59190810190612b91565b90506000975080600081518110611cee57611cee612a2e565b60200260200101519650505b50505050509091565b6040516370a0823160e01b815230600482015260009081906001600160a01b037f000000000000000000000000000000000000000000000000000000000000000016906370a0823190602401602060405180830381865afa158015611d6c573d6000803e3d6000fd5b505050506040513d601f19601f82011682018060405250810190611d909190612af6565b60408051600280825260608201835292935060009290916020830190803683370190505090507f000000000000000000000000000000000000000000000000000000000000000081600081518110611dea57611dea612a2e565b60200260200101906001600160a01b031690816001600160a01b0316815250507f000000000000000000000000000000000000000000000000000000000000000081600181518110611e3e57611e3e612a2e565b6001600160a01b03928316602091820292909201015260055460405163d06ca61f60e01b8152600092919091169063d06ca61f90611e829086908690600401612b70565b600060405180830381865afa158015611e9f573d6000803e3d6000fd5b505050506040513d6000823e601f3d908101601f19168201604052611ec79190810190612b91565b90506000670de0b6b3a7640000611edc612117565b83600181518110611eef57611eef612a2e565b602002602001015147611f029190612a16565b611f0c9190612aad565b611f169190612ae2565b600054909150611f3190600160a01b900460ff16600a612d1b565b611f39610933565b611f439190612ae2565b610e929082612ae2565b600080611f5983610f1a565b905080341015611fa25760405162461bcd60e51b8152602060048201526014602482015273125b9cdd59999a58da595b9d081c185e5b595b9d60621b604482015260640161076b565b6040805160028082526060820183526000926020830190803683370190505090507f000000000000000000000000000000000000000000000000000000000000000081600081518110611ff757611ff7612a2e565b60200260200101906001600160a01b031690816001600160a01b0316815250507f00000000000000000000000000000000000000000000000000000000000000008160018151811061204b5761204b612a2e565b6001600160a01b03928316602091820292909201015260055416637ff36ab56064612077346019612aad565b6120819190612ae2565b6000843061209142610e10612a16565b6040518663ffffffff1660e01b81526004016120b09493929190612d66565b60006040518083038185885af11580156120ce573d6000803e3d6000fd5b50505050506040513d6000823e601f3d908101601f191682016040526115b39190810190612b91565b60008282111561210657600080fd5b6121108284612a5f565b9392505050565b6004805460408051633fabe5a360e21b8152905160009384936001600160a01b03169263feaf968c928183019260a0928290030181865afa158015612160573d6000803e3d6000fd5b505050506040513d601f19601f820116820180604052508101906121849190612db5565b5050509150506064816121979190612e05565b91505090565b60006001600160a01b0383166122015760405162461bcd60e51b815260206004820152602360248201527f45524332303a207472616e7366657220746f20746865207a65726f206164647260448201526265737360e81b606482015260840161076b565b3360009081526007602052604090205461221b90836120f7565b33600090815260076020526040808220929092556001600160a01b038516815220546122479083612434565b6001600160a01b038416600081815260076020526040908190209290925590513390600080516020612e34833981519152906107e59086815260200190565b600080821161229457600080fd5b6121108284612ae2565b6000806122aa83610f1a565b60408051600280825260608201835292935060009290916020830190803683370190505090507f00000000000000000000000000000000000000000000000000000000000000008160008151811061230457612304612a2e565b60200260200101906001600160a01b031690816001600160a01b0316815250507f00000000000000000000000000000000000000000000000000000000000000008160018151811061235857612358612a2e565b6001600160a01b03928316602091820292909201015260055460405163d06ca61f60e01b8152600092919091169063d06ca61f9061239c9086908690600401612b70565b600060405180830381865afa1580156123b9573d6000803e3d6000fd5b505050506040513d6000823e601f3d908101601f191682016040526123e19190810190612b91565b9050806001815181106123f6576123f6612a2e565b60200260200101519350505050919050565b60006124148284612aad565b905082158061242b5750816124298483612ae2565b145b6107f157600080fd5b60006124408284612a16565b9050828110156107f157600080fd5b6124576126b5565b6001600160a01b0381166124bc5760405162461bcd60e51b815260206004820152602660248201527f4f776e61626c653a206e6577206f776e657220697320746865207a65726f206160448201526564647265737360d01b606482015260840161076b565b6124c58161270f565b50565b6001600160a01b03821661251e5760405162461bcd60e51b815260206004820152601f60248201527f45524332303a206d696e7420746f20746865207a65726f206164647265737300604482015260640161076b565b60005461253690600160a01b900460ff16600a612d1b565b6125409082612aad565b600260008282546125519190612a16565b9091555050600080546001600160a01b038416808352600760205260408320805460ff600160a01b948590048116600a90810a880290920390925584549293600080516020612e34833981519152936125ae939190041690612d1b565b6125b89085612aad565b60405190815260200160405180910390a35050565b6001600160a01b0382166126235760405162461bcd60e51b815260206004820152601f60248201527f45524332303a206d696e7420746f20746865207a65726f206164647265737300604482015260640161076b565b60005461263b90600160a01b900460ff16600a612d1b565b6126459082612aad565b600160008282546126569190612a16565b9091555050600080546001600160a01b038416808352600760205260408320805460ff600160a01b948590048116600a90810a8802929092019092558454929493600080516020612e34833981519152936125ae939190041690612d1b565b6000546001600160a01b0316331461164b5760405162461bcd60e51b815260206004820181905260248201527f4f776e61626c653a2063616c6c6572206973206e6f7420746865206f776e6572604482015260640161076b565b600080546001600160a01b038381166001600160a01b0319831681178455604051919092169283917f8be0079c531659141344cd1fd0a4f28419497f9722a3daafe3b4186f6b6457e09190a35050565b600060208083528351808285015260005b8181101561278c57858101830151858201604001528201612770565b8181111561279e576000604083870101525b50601f01601f1916929092016040019392505050565b80356001600160a01b0381168114610f1557600080fd5b600080604083850312156127de57600080fd5b6127e7836127b4565b946020939093013593505050565b634e487b7160e01b600052604160045260246000fd5b604051601f8201601f1916810167ffffffffffffffff81118282101715612834576128346127f5565b604052919050565b600082601f83011261284d57600080fd5b813567ffffffffffffffff811115612867576128676127f5565b61287a601f8201601f191660200161280b565b81815284602083860101111561288f57600080fd5b816020850160208301376000918101602001919091529392505050565b600080604083850312156128bf57600080fd5b823567ffffffffffffffff808211156128d757600080fd5b6128e38683870161283c565b935060208501359150808211156128f957600080fd5b506129068582860161283c565b9150509250929050565b60008060006060848603121561292557600080fd5b61292e846127b4565b925061293c602085016127b4565b9150604084013590509250925092565b80151581146124c557600080fd5b60006020828403121561296c57600080fd5b81356121108161294c565b60006020828403121561298957600080fd5b5035919050565b6000602082840312156129a257600080fd5b612110826127b4565b600080604083850312156129be57600080fd5b50508035926020909101359150565b600080604083850312156129e057600080fd5b6129e9836127b4565b91506129f7602084016127b4565b90509250929050565b634e487b7160e01b600052601160045260246000fd5b60008219821115612a2957612a29612a00565b500190565b634e487b7160e01b600052603260045260246000fd5b6000600019821415612a5857612a58612a00565b5060010190565b600082821015612a7157612a71612a00565b500390565b6020808252601c908201527f596f7520617265206e6f7420616e2061646d696e6973747261746f7200000000604082015260600190565b6000816000190483118215151615612ac757612ac7612a00565b500290565b634e487b7160e01b600052601260045260246000fd5b600082612af157612af1612acc565b500490565b600060208284031215612b0857600080fd5b5051919050565b600060208284031215612b2157600080fd5b81516121108161294c565b600081518084526020808501945080840160005b83811015612b655781516001600160a01b031687529582019590820190600101612b40565b509495945050505050565b828152604060208201526000612b896040830184612b2c565b949350505050565b60006020808385031215612ba457600080fd5b825167ffffffffffffffff80821115612bbc57600080fd5b818501915085601f830112612bd057600080fd5b815181811115612be257612be26127f5565b8060051b9150612bf384830161280b565b8181529183018401918481019088841115612c0d57600080fd5b938501935b83851015612c2b57845182529385019390850190612c12565b98975050505050505050565b600181815b80851115612c72578160001904821115612c5857612c58612a00565b80851615612c6557918102915b93841c9390800290612c3c565b509250929050565b600082612c89575060016107f1565b81612c96575060006107f1565b8160018114612cac5760028114612cb657612cd2565b60019150506107f1565b60ff841115612cc757612cc7612a00565b50506001821b6107f1565b5060208310610133831016604e8410600b8410161715612cf5575081810a6107f1565b612cff8383612c37565b8060001904821115612d1357612d13612a00565b029392505050565b600061211060ff841683612c7a565b85815284602082015260a060408201526000612d4960a0830186612b2c565b6001600160a01b0394909416606083015250608001529392505050565b848152608060208201526000612d7f6080830186612b2c565b6001600160a01b03949094166040830152506060015292915050565b805169ffffffffffffffffffff81168114610f1557600080fd5b600080600080600060a08688031215612dcd57600080fd5b612dd686612d9b565b9450602086015193506040860151925060608601519150612df960808701612d9b565b90509295509295909350565b600082612e1457612e14612acc565b600160ff1b821460001984141615612e2e57612e2e612a00565b50059056feddf252ad1be2c89b69c2b068fc378daa952ba7f163c4a11628f55a4df523b3efa2646970667358221220c46c768d28a4491d068da4dc1bcb997e207a68eca664f5f2b909b4f921070eb764736f6c634300080a0033",
  "linkReferences": {},
  "deployedLinkReferences": {}
}