{
  "_format": "hh-sol-artifact-1",
  "contractName": "YocStaking",
  "sourceName": "contracts/YocStaking.sol",
  "abi": [
    {
      "inputs": [
        {
          "internalType": "contract IERC20",
          "name": "_token",
          "type": "address"
        },
        {
          "internalType": "contract IYOCMasterChef",
          "name": "_masterchef",
          "type": "address"
        },
        {
          "internalType": "address",
          "name": "_admin",
          "type": "address"
        },
        {
          "internalType": "address",
          "name": "_treasury",
          "type": "address"
        },
        {
          "internalType": "uint256",
          "name": "_pid",
          "type": "uint256"
        },
        {
          "internalType": "bool",
          "name": "_isYocToken",
          "type": "bool"
        }
      ],
      "stateMutability": "nonpayable",
      "type": "constructor"
    },
    {
      "anonymous": false,
      "inputs": [
        {
          "indexed": true,
          "internalType": "address",
          "name": "sender",
          "type": "address"
        },
        {
          "indexed": false,
          "internalType": "uint256",
          "name": "amount",
          "type": "uint256"
        },
        {
          "indexed": false,
          "internalType": "uint256",
          "name": "shares",
          "type": "uint256"
        },
        {
          "indexed": false,
          "internalType": "uint256",
          "name": "lastDepositedTime",
          "type": "uint256"
        }
      ],
      "name": "Deposit",
      "type": "event"
    },
    {
      "anonymous": false,
      "inputs": [
        {
          "indexed": true,
          "internalType": "address",
          "name": "sender",
          "type": "address"
        },
        {
          "indexed": false,
          "internalType": "uint256",
          "name": "amount",
          "type": "uint256"
        }
      ],
      "name": "Harvest",
      "type": "event"
    },
    {
      "anonymous": false,
      "inputs": [],
      "name": "Init",
      "type": "event"
    },
    {
      "anonymous": false,
      "inputs": [
        {
          "indexed": false,
          "internalType": "address",
          "name": "admin",
          "type": "address"
        }
      ],
      "name": "NewAdmin",
      "type": "event"
    },
    {
      "anonymous": false,
      "inputs": [
        {
          "indexed": false,
          "internalType": "address",
          "name": "treasury",
          "type": "address"
        }
      ],
      "name": "NewTreasury",
      "type": "event"
    },
    {
      "anonymous": false,
      "inputs": [
        {
          "indexed": false,
          "internalType": "uint256",
          "name": "withdrawFee",
          "type": "uint256"
        }
      ],
      "name": "NewWithdrawFee",
      "type": "event"
    },
    {
      "anonymous": false,
      "inputs": [
        {
          "indexed": false,
          "internalType": "uint256",
          "name": "withdrawFeePeriod",
          "type": "uint256"
        }
      ],
      "name": "NewWithdrawFeePeriod",
      "type": "event"
    },
    {
      "anonymous": false,
      "inputs": [
        {
          "indexed": true,
          "internalType": "address",
          "name": "previousOwner",
          "type": "address"
        },
        {
          "indexed": true,
          "internalType": "address",
          "name": "newOwner",
          "type": "address"
        }
      ],
      "name": "OwnershipTransferred",
      "type": "event"
    },
    {
      "anonymous": false,
      "inputs": [],
      "name": "Pause",
      "type": "event"
    },
    {
      "anonymous": false,
      "inputs": [
        {
          "indexed": false,
          "internalType": "address",
          "name": "account",
          "type": "address"
        }
      ],
      "name": "Paused",
      "type": "event"
    },
    {
      "anonymous": false,
      "inputs": [],
      "name": "Unpause",
      "type": "event"
    },
    {
      "anonymous": false,
      "inputs": [
        {
          "indexed": false,
          "internalType": "address",
          "name": "account",
          "type": "address"
        }
      ],
      "name": "Unpaused",
      "type": "event"
    },
    {
      "anonymous": false,
      "inputs": [
        {
          "indexed": true,
          "internalType": "address",
          "name": "sender",
          "type": "address"
        },
        {
          "indexed": false,
          "internalType": "uint256",
          "name": "amount",
          "type": "uint256"
        },
        {
          "indexed": false,
          "internalType": "uint256",
          "name": "shares",
          "type": "uint256"
        }
      ],
      "name": "Withdraw",
      "type": "event"
    },
    {
      "inputs": [],
      "name": "MAX_WITHDRAW_FEE",
      "outputs": [
        {
          "internalType": "uint256",
          "name": "",
          "type": "uint256"
        }
      ],
      "stateMutability": "view",
      "type": "function"
    },
    {
      "inputs": [],
      "name": "MAX_WITHDRAW_FEE_PERIOD",
      "outputs": [
        {
          "internalType": "uint256",
          "name": "",
          "type": "uint256"
        }
      ],
      "stateMutability": "view",
      "type": "function"
    },
    {
      "inputs": [],
      "name": "MIN_DEPOSIT_AMOUNT",
      "outputs": [
        {
          "internalType": "uint256",
          "name": "",
          "type": "uint256"
        }
      ],
      "stateMutability": "view",
      "type": "function"
    },
    {
      "inputs": [],
      "name": "MIN_WITHDRAW_AMOUNT",
      "outputs": [
        {
          "internalType": "uint256",
          "name": "",
          "type": "uint256"
        }
      ],
      "stateMutability": "view",
      "type": "function"
    },
    {
      "inputs": [],
      "name": "PERCENT_PRECISION",
      "outputs": [
        {
          "internalType": "uint256",
          "name": "",
          "type": "uint256"
        }
      ],
      "stateMutability": "view",
      "type": "function"
    },
    {
      "inputs": [],
      "name": "PRECISION_FACTOR",
      "outputs": [
        {
          "internalType": "uint256",
          "name": "",
          "type": "uint256"
        }
      ],
      "stateMutability": "view",
      "type": "function"
    },
    {
      "inputs": [],
      "name": "PRECISION_FACTOR_SHARE",
      "outputs": [
        {
          "internalType": "uint256",
          "name": "",
          "type": "uint256"
        }
      ],
      "stateMutability": "view",
      "type": "function"
    },
    {
      "inputs": [],
      "name": "admin",
      "outputs": [
        {
          "internalType": "address",
          "name": "",
          "type": "address"
        }
      ],
      "stateMutability": "view",
      "type": "function"
    },
    {
      "inputs": [],
      "name": "balanceOf",
      "outputs": [
        {
          "internalType": "uint256",
          "name": "",
          "type": "uint256"
        }
      ],
      "stateMutability": "view",
      "type": "function"
    },
    {
      "inputs": [],
      "name": "calculateTotalPendingYOCRewards",
      "outputs": [
        {
          "internalType": "uint256",
          "name": "",
          "type": "uint256"
        }
      ],
      "stateMutability": "view",
      "type": "function"
    },
    {
      "inputs": [
        {
          "internalType": "uint256",
          "name": "_amount",
          "type": "uint256"
        }
      ],
      "name": "deposit",
      "outputs": [],
      "stateMutability": "nonpayable",
      "type": "function"
    },
    {
      "inputs": [],
      "name": "depositFee",
      "outputs": [
        {
          "internalType": "uint256",
          "name": "",
          "type": "uint256"
        }
      ],
      "stateMutability": "view",
      "type": "function"
    },
    {
      "inputs": [],
      "name": "getPricePerFullShare",
      "outputs": [
        {
          "internalType": "uint256",
          "name": "",
          "type": "uint256"
        }
      ],
      "stateMutability": "view",
      "type": "function"
    },
    {
      "inputs": [
        {
          "internalType": "address",
          "name": "_token",
          "type": "address"
        }
      ],
      "name": "inCaseTokensGetStuck",
      "outputs": [],
      "stateMutability": "nonpayable",
      "type": "function"
    },
    {
      "inputs": [
        {
          "internalType": "contract IERC20",
          "name": "dummyToken",
          "type": "address"
        }
      ],
      "name": "init",
      "outputs": [],
      "stateMutability": "nonpayable",
      "type": "function"
    },
    {
      "inputs": [],
      "name": "masterchef",
      "outputs": [
        {
          "internalType": "contract IYOCMasterChef",
          "name": "",
          "type": "address"
        }
      ],
      "stateMutability": "view",
      "type": "function"
    },
    {
      "inputs": [],
      "name": "owner",
      "outputs": [
        {
          "internalType": "address",
          "name": "",
          "type": "address"
        }
      ],
      "stateMutability": "view",
      "type": "function"
    },
    {
      "inputs": [],
      "name": "pause",
      "outputs": [],
      "stateMutability": "nonpayable",
      "type": "function"
    },
    {
      "inputs": [],
      "name": "paused",
      "outputs": [
        {
          "internalType": "bool",
          "name": "",
          "type": "bool"
        }
      ],
      "stateMutability": "view",
      "type": "function"
    },
    {
      "inputs": [
        {
          "internalType": "address",
          "name": "_user",
          "type": "address"
        }
      ],
      "name": "pendingReward",
      "outputs": [
        {
          "internalType": "uint256",
          "name": "",
          "type": "uint256"
        }
      ],
      "stateMutability": "view",
      "type": "function"
    },
    {
      "inputs": [],
      "name": "renounceOwnership",
      "outputs": [],
      "stateMutability": "nonpayable",
      "type": "function"
    },
    {
      "inputs": [
        {
          "internalType": "address",
          "name": "_admin",
          "type": "address"
        }
      ],
      "name": "setAdmin",
      "outputs": [],
      "stateMutability": "nonpayable",
      "type": "function"
    },
    {
      "inputs": [
        {
          "internalType": "address",
          "name": "_treasury",
          "type": "address"
        }
      ],
      "name": "setTreasury",
      "outputs": [],
      "stateMutability": "nonpayable",
      "type": "function"
    },
    {
      "inputs": [
        {
          "internalType": "uint256",
          "name": "_withdrawFee",
          "type": "uint256"
        }
      ],
      "name": "setWithdrawFee",
      "outputs": [],
      "stateMutability": "nonpayable",
      "type": "function"
    },
    {
      "inputs": [
        {
          "internalType": "uint256",
          "name": "_withdrawFeePeriod",
          "type": "uint256"
        }
      ],
      "name": "setWithdrawFeePeriod",
      "outputs": [],
      "stateMutability": "nonpayable",
      "type": "function"
    },
    {
      "inputs": [],
      "name": "token",
      "outputs": [
        {
          "internalType": "contract IERC20",
          "name": "",
          "type": "address"
        }
      ],
      "stateMutability": "view",
      "type": "function"
    },
    {
      "inputs": [],
      "name": "totalShares",
      "outputs": [
        {
          "internalType": "uint256",
          "name": "",
          "type": "uint256"
        }
      ],
      "stateMutability": "view",
      "type": "function"
    },
    {
      "inputs": [
        {
          "internalType": "address",
          "name": "newOwner",
          "type": "address"
        }
      ],
      "name": "transferOwnership",
      "outputs": [],
      "stateMutability": "nonpayable",
      "type": "function"
    },
    {
      "inputs": [],
      "name": "treasury",
      "outputs": [
        {
          "internalType": "address",
          "name": "",
          "type": "address"
        }
      ],
      "stateMutability": "view",
      "type": "function"
    },
    {
      "inputs": [],
      "name": "unpause",
      "outputs": [],
      "stateMutability": "nonpayable",
      "type": "function"
    },
    {
      "inputs": [
        {
          "internalType": "address",
          "name": "",
          "type": "address"
        }
      ],
      "name": "userInfo",
      "outputs": [
        {
          "internalType": "uint256",
          "name": "shares",
          "type": "uint256"
        },
        {
          "internalType": "uint256",
          "name": "lastDepositedTime",
          "type": "uint256"
        },
        {
          "internalType": "uint256",
          "name": "yocAtLastUserAction",
          "type": "uint256"
        },
        {
          "internalType": "uint256",
          "name": "lastUserActionTime",
          "type": "uint256"
        }
      ],
      "stateMutability": "view",
      "type": "function"
    },
    {
      "inputs": [
        {
          "internalType": "uint256",
          "name": "_shares",
          "type": "uint256"
        }
      ],
      "name": "withdraw",
      "outputs": [],
      "stateMutability": "nonpayable",
      "type": "function"
    },
    {
      "inputs": [],
      "name": "withdrawAll",
      "outputs": [],
      "stateMutability": "nonpayable",
      "type": "function"
    },
    {
      "inputs": [
        {
          "internalType": "uint256",
          "name": "_amount",
          "type": "uint256"
        }
      ],
      "name": "withdrawByAmount",
      "outputs": [],
      "stateMutability": "nonpayable",
      "type": "function"
    },
    {
      "inputs": [],
      "name": "withdrawFee",
      "outputs": [
        {
          "internalType": "uint256",
          "name": "",
          "type": "uint256"
        }
      ],
      "stateMutability": "view",
      "type": "function"
    },
    {
      "inputs": [],
      "name": "withdrawFeePeriod",
      "outputs": [
        {
          "internalType": "uint256",
          "name": "",
          "type": "uint256"
        }
      ],
      "stateMutability": "view",
      "type": "function"
    },
    {
      "inputs": [],
      "name": "yocPoolPID",
      "outputs": [
        {
          "internalType": "uint256",
          "name": "",
          "type": "uint256"
        }
      ],
      "stateMutability": "view",
      "type": "function"
    }
  ],
  "bytecode": "0x60c06040526002805460ff191660011790556013600781905560085562093a806009553480156200002f57600080fd5b50604051620020003803806200200083398101604081905262000052916200012b565b6200005d33620000c2565b6000805460ff60a01b191690556001600160a01b0395861660805293851660a052600480546001600160a01b031990811694871694909417905560058054909316919094161790556006919091556002805460ff1916911515919091179055620001b7565b600080546001600160a01b038381166001600160a01b0319831681178455604051919092169283917f8be0079c531659141344cd1fd0a4f28419497f9722a3daafe3b4186f6b6457e09190a35050565b6001600160a01b03811681146200012857600080fd5b50565b60008060008060008060c087890312156200014557600080fd5b8651620001528162000112565b6020880151909650620001658162000112565b6040880151909550620001788162000112565b60608801519094506200018b8162000112565b608088015160a089015191945092508015158114620001a957600080fd5b809150509295509295509295565b60805160a051611dcf620002316000396000818161047c015281816105b90152818161065701528181610c7c015281816118a2015261194b0152600081816104a3015281816109e701528181610d19015281816112b0015281816112f5015281816115a4015281816115fa015261166c0152611dcf6000f3fe608060405234801561001057600080fd5b50600436106102275760003560e01c80638456cb5911610130578063def68a9c116100b8578063f40f0f521161007c578063f40f0f5214610451578063f851a44014610464578063fb1db27814610477578063fc0c546a1461049e578063ffe8e372146104c557600080fd5b8063def68a9c14610406578063df10b4e614610419578063e941fa7814610422578063f0f442601461042b578063f2fde38b1461043e57600080fd5b8063b6ac642a116100ff578063b6ac642a146103c4578063b6b55f25146103d7578063ca590f02146103ea578063ccd34cd5146103f2578063d4b0de2f146103fe57600080fd5b80638456cb59146103a3578063853828b6146103ab5780638da5cb5b146103b3578063b68578441461029c57600080fd5b80635521e9bf116101b3578063704b6c0211610182578063704b6c0214610365578063715018a614610378578063722713f714610380578063731ff24a1461038857806377c7b8fc1461039b57600080fd5b80635521e9bf146103015780635c975abb1461031457806361d027b31461033157806367a527931461035c57600080fd5b80632cfc5f01116101fa5780632cfc5f01146102ca5780632e1a7d4d146102d45780633043443b146102e75780633a98ef39146102f05780633f4ba83a146102f957600080fd5b80631959a0021461022c57806319ab453c146102875780631ea30fef1461029c5780631efac1b8146102b7575b600080fd5b61026261023a366004611bfb565b6001602081905260009182526040909120805491810154600282015460039092015490919084565b6040805194855260208501939093529183015260608201526080015b60405180910390f35b61029a610295366004611bfb565b6104ce565b005b6102a96509184e72a00081565b60405190815260200161027e565b61029a6102c5366004611c1f565b6106e8565b6102a962093a8081565b61029a6102e2366004611c1f565b6107c7565b6102a960065481565b6102a960035481565b61029a610823565b61029a61030f366004611c1f565b610888565b600054600160a01b900460ff16604051901515815260200161027e565b600554610344906001600160a01b031681565b6040516001600160a01b03909116815260200161027e565b6102a960075481565b61029a610373366004611bfb565b610916565b61029a6109bb565b6102a96109cf565b6102a96b204fce5e3e2502611000000081565b6102a9610a5f565b61029a610ab1565b61029a610b16565b6000546001600160a01b0316610344565b61029a6103d2366004611c1f565b610b2f565b61029a6103e5366004611c1f565b610bf8565b6102a9610c4f565b6102a964e8d4a5100081565b6102a9603281565b61029a610414366004611bfb565b610ced565b6102a960095481565b6102a960085481565b61029a610439366004611bfb565b610e2c565b61029a61044c366004611bfb565b610ef3565b6102a961045f366004611bfb565b610f69565b600454610344906001600160a01b031681565b6103447f000000000000000000000000000000000000000000000000000000000000000081565b6103447f000000000000000000000000000000000000000000000000000000000000000081565b6102a961271081565b6104d6610fdb565b6040516370a0823160e01b81523360048201526000906001600160a01b038316906370a0823190602401602060405180830381865afa15801561051d573d6000803e3d6000fd5b505050506040513d601f19601f820116820180604052508101906105419190611c38565b90508061058d5760405162461bcd60e51b8152602060048201526015602482015274042616c616e6365206d75737420657863656564203605c1b60448201526064015b60405180910390fd5b6105a26001600160a01b038316333084611035565b60405163095ea7b360e01b81526001600160a01b037f0000000000000000000000000000000000000000000000000000000000000000811660048301526024820183905283169063095ea7b3906044016020604051808303816000875af1158015610611573d6000803e3d6000fd5b505050506040513d601f19601f820116820180604052508101906106359190611c51565b50600654604051631c57762b60e31b81526004810191909152602481018290527f00000000000000000000000000000000000000000000000000000000000000006001600160a01b03169063e2bbb15890604401600060405180830381600087803b1580156106a357600080fd5b505af11580156106b7573d6000803e3d6000fd5b50506040517f57a86f7d14ccde89e22870afe839e3011216827daa9b24e18629f0a1e9d6cc14925060009150a15050565b6004546001600160a01b031633146107125760405162461bcd60e51b815260040161058490611c73565b62093a8081111561078b5760405162461bcd60e51b815260206004820152603d60248201527f7769746864726177466565506572696f642063616e6e6f74206265206d6f726560448201527f207468616e204d41585f57495448445241575f4645455f504552494f440000006064820152608401610584565b60098190556040518181527fb89ddaddb7435be26824cb48d2d0186c9525a2e1ec057abcb502704cdc0686cc906020015b60405180910390a150565b6107cf6110a6565b600081116108155760405162461bcd60e51b81526020600482015260136024820152724e6f7468696e6720746f20776974686472617760681b6044820152606401610584565b6108208160006110f3565b50565b6004546001600160a01b0316331461084d5760405162461bcd60e51b815260040161058490611c73565b6108556113a0565b61085d6113f0565b6040517f7805862f689e2f13df9f062ff482ad3ad112aca9e0847911ed832e158c525b3390600090a1565b6108906110a6565b6509184e72a000811161090b5760405162461bcd60e51b815260206004820152603860248201527f576974686472617720616d6f756e74206d75737420626520677265617465722060448201527f7468616e204d494e5f57495448445241575f414d4f554e5400000000000000006064820152608401610584565b6108206000826110f3565b61091e610fdb565b6001600160a01b03811661096d5760405162461bcd60e51b815260206004820152601660248201527543616e6e6f74206265207a65726f206164647265737360501b6044820152606401610584565b600480546001600160a01b0319166001600160a01b0383169081179091556040519081527f71614071b88dee5e0b2ae578a9dd7b2ebbe9ae832ba419dc0242cd065a290b6c906020016107bc565b6109c3610fdb565b6109cd6000611445565b565b6040516370a0823160e01b81523060048201526000907f00000000000000000000000000000000000000000000000000000000000000006001600160a01b0316906370a0823190602401602060405180830381865afa158015610a36573d6000803e3d6000fd5b505050506040513d601f19601f82011682018060405250810190610a5a9190611c38565b905090565b6000600354600014610aa457600354610a76610c4f565b610a7e6109cf565b610a889190611cae565b610a9a90670de0b6b3a7640000611cc6565b610a5a9190611ce5565b50670de0b6b3a764000090565b6004546001600160a01b03163314610adb5760405162461bcd60e51b815260040161058490611c73565b610ae36110a6565b610aeb611495565b6040517f6985a02210a168e66602d3235cb6db0e70f92b3ba4d376a33c0f3d9434bff62590600090a1565b336000908152600160205260409020546109cd906107c7565b6004546001600160a01b03163314610b595760405162461bcd60e51b815260040161058490611c73565b6032811115610bc35760405162461bcd60e51b815260206004820152603060248201527f77697468647261774665652063616e6e6f74206265206d6f7265207468616e2060448201526f4d41585f57495448445241575f46454560801b6064820152608401610584565b60088190556040518181527fd5fe46099fa396290a7f57e36c3c3c8774e2562c18ed5d1dcc0fa75071e03f1d906020016107bc565b610c006110a6565b60008111610c455760405162461bcd60e51b8152602060048201526012602482015271139bdd1a1a5b99c81d1bc819195c1bdcda5d60721b6044820152606401610584565b61082081336114d8565b6006546040516369e0f35760e11b8152600481019190915230602482015260009081906001600160a01b037f0000000000000000000000000000000000000000000000000000000000000000169063d3c1e6ae90604401602060405180830381865afa158015610cc3573d6000803e3d6000fd5b505050506040513d601f19601f82011682018060405250810190610ce79190611c38565b92915050565b6004546001600160a01b03163314610d175760405162461bcd60e51b815260040161058490611c73565b7f00000000000000000000000000000000000000000000000000000000000000006001600160a01b0316816001600160a01b03161415610da75760405162461bcd60e51b815260206004820152602560248201527f546f6b656e2063616e6e6f742062652073616d65206173206465706f736974206044820152643a37b5b2b760d91b6064820152608401610584565b6040516370a0823160e01b81523060048201526000906001600160a01b038316906370a0823190602401602060405180830381865afa158015610dee573d6000803e3d6000fd5b505050506040513d601f19601f82011682018060405250810190610e129190611c38565b9050610e286001600160a01b0383163383611778565b5050565b6004546001600160a01b03163314610e565760405162461bcd60e51b815260040161058490611c73565b6001600160a01b038116610ea55760405162461bcd60e51b815260206004820152601660248201527543616e6e6f74206265207a65726f206164647265737360501b6044820152606401610584565b600580546001600160a01b0319166001600160a01b0383169081179091556040519081527fafa147634b29e2c7bd53ce194256b9f41cfb9ba3036f2b822fdd1d965beea086906020016107bc565b610efb610fdb565b6001600160a01b038116610f605760405162461bcd60e51b815260206004820152602660248201527f4f776e61626c653a206e6577206f776e657220697320746865207a65726f206160448201526564647265737360d01b6064820152608401610584565b61082081611445565b6001600160a01b0381166000908152600160208181526040808420815160808101835281548152938101549284019290925260028201549083015260030154606082015281610fb6610c4f565b600354835191925090610fc99083611cc6565b610fd39190611ce5565b949350505050565b6000546001600160a01b031633146109cd5760405162461bcd60e51b815260206004820181905260248201527f4f776e61626c653a2063616c6c6572206973206e6f7420746865206f776e65726044820152606401610584565b6040516001600160a01b03808516602483015283166044820152606481018290526110a09085906323b872dd60e01b906084015b60408051601f198184030181529190526020810180516001600160e01b03166001600160e01b0319909316929092179091526117ad565b50505050565b600054600160a01b900460ff16156109cd5760405162461bcd60e51b815260206004820152601060248201526f14185d5cd8589b194e881c185d5cd95960821b6044820152606401610584565b33600090815260016020526040902080548311156111535760405162461bcd60e51b815260206004820152601f60248201527f576974686472617720616d6f756e7420657863656564732062616c616e6365006044820152606401610584565b805483906000906111706b204fce5e3e2502611000000084611cc6565b61117a9190611ce5565b905061118461187f565b61118d336119fd565b8415801561119b5750600084115b156111dc5760006111aa6109cf565b905080600354866111bb9190611cc6565b6111c59190611ce5565b84549093508311156111d657835492505b50611203565b82546b204fce5e3e25026110000000906111f69083611cc6565b6112009190611ce5565b91505b6000600354836112116109cf565b61121b9190611cc6565b6112259190611ce5565b90508284600001600082825461123b9190611d07565b9250508190555082600360008282546112549190611d07565b9091555050600954600185015461126b9190611cae565b4210801561127b575060025460ff165b156112e85760085460006127106112928385611cc6565b61129c9190611ce5565b6005549091506112d9906001600160a01b037f00000000000000000000000000000000000000000000000000000000000000008116911683611778565b6112e38184611d07565b925050505b61131c6001600160a01b037f0000000000000000000000000000000000000000000000000000000000000000163383611778565b83541561134e5760035461132e6109cf565b855461133a9190611cc6565b6113449190611ce5565b6002850155611356565b600060028501555b426003850155604080518281526020810185905233917ff279e6a1f5e320cca91135676d9cb6e44ca8a08c0b88342bcdb1144f6511b56891015b60405180910390a2505050505050565b600054600160a01b900460ff166109cd5760405162461bcd60e51b815260206004820152601460248201527314185d5cd8589b194e881b9bdd081c185d5cd95960621b6044820152606401610584565b6113f86113a0565b6000805460ff60a01b191690557f5db9ee0a495bf2e6ff9c91a7834c1ba4fdd244a5e8aa4e537bd38aeae4b073aa335b6040516001600160a01b03909116815260200160405180910390a1565b600080546001600160a01b038381166001600160a01b0319831681178455604051919092169283917f8be0079c531659141344cd1fd0a4f28419497f9722a3daafe3b4186f6b6457e09190a35050565b61149d6110a6565b6000805460ff60a01b1916600160a01b1790557f62e78cea01bee320cd4e420270b5ea74000d11b0c9f74754ebdbfc544b05a2586114283390565b6001600160a01b0381166000908152600160205260409020805415806114fe5750600083115b15611577576509184e72a00083116115775760405162461bcd60e51b815260206004820152603660248201527f4465706f73697420616d6f756e74206d757374206265206772656174657220746044820152751a185b8813525397d1115413d4d25517d05353d5539560521b6064820152608401610584565b61157f61187f565b6003546115cf5760006115906109cf565b6005549091506115cd906001600160a01b037f00000000000000000000000000000000000000000000000000000000000000008116911683611778565b505b6115d8826119fd565b60008060006115e56109cf565b90508515611697576116226001600160a01b037f000000000000000000000000000000000000000000000000000000000000000016863089611035565b60025486925060ff16611697576000612710600754846116429190611cc6565b61164c9190611ce5565b90506116588184611d07565b600554909350611695906001600160a01b037f00000000000000000000000000000000000000000000000000000000000000008116911683611778565b505b600354156116bf5780600354836116ae9190611cc6565b6116b89190611ce5565b92506116c3565b8192505b828460000160008282546116d79190611cae565b909155505085156116e9574260018501555b82600360008282546116fb9190611cae565b909155505060035461170b6109cf565b85546117179190611cc6565b6117219190611ce5565b600285015542600385018190556040805188815260208101869052908101919091526001600160a01b038616907f36af321ec8d3c75236829c5317affd40ddb308863a1236d2d277a4025cccee1e90606001611390565b6040516001600160a01b0383166024820152604481018290526117a890849063a9059cbb60e01b90606401611069565b505050565b6000611802826040518060400160405280602081526020017f5361666545524332303a206c6f772d6c6576656c2063616c6c206661696c6564815250856001600160a01b0316611ac69092919063ffffffff16565b8051909150156117a857808060200190518101906118209190611c51565b6117a85760405162461bcd60e51b815260206004820152602a60248201527f5361666545524332303a204552433230206f7065726174696f6e20646964206e6044820152691bdd081cdd58d8d9595960b21b6064820152608401610584565b6006546040516369e0f35760e11b815260048101919091523060248201526000907f00000000000000000000000000000000000000000000000000000000000000006001600160a01b03169063d3c1e6ae90604401602060405180830381865afa1580156118f1573d6000803e3d6000fd5b505050506040513d601f19601f820116820180604052508101906119159190611c38565b905080156108205760006119276109cf565b600654604051630441a3e760e41b81526004810191909152600060248201529091507f00000000000000000000000000000000000000000000000000000000000000006001600160a01b03169063441a3e7090604401600060405180830381600087803b15801561199757600080fd5b505af11580156119ab573d6000803e3d6000fd5b5050505060006119b96109cf565b9050337fc9695243a805adb74c91f28311176c65b417e842d5699893cef56d18bfa48cba6119e78484611d07565b60405190815260200160405180910390a2505050565b6001600160a01b0381166000908152600160205260409020805415610e28576000600354611a296109cf565b8354611a359190611cc6565b611a3f9190611ce5565b9050816000015460036000828254611a579190611d07565b90915550506000808355611a696109cf565b90506000600354600014611a9f57611a818383611d07565b600354611a8e9085611cc6565b611a989190611ce5565b9050611aa2565b50815b80845560038054829190600090611aba908490611cae565b90915550505050505050565b6060610fd3848460008585600080866001600160a01b03168587604051611aed9190611d4a565b60006040518083038185875af1925050503d8060008114611b2a576040519150601f19603f3d011682016040523d82523d6000602084013e611b2f565b606091505b5091509150611b4087838387611b4b565b979650505050505050565b60608315611bb7578251611bb0576001600160a01b0385163b611bb05760405162461bcd60e51b815260206004820152601d60248201527f416464726573733a2063616c6c20746f206e6f6e2d636f6e74726163740000006044820152606401610584565b5081610fd3565b610fd38383815115611bcc5781518083602001fd5b8060405162461bcd60e51b81526004016105849190611d66565b6001600160a01b038116811461082057600080fd5b600060208284031215611c0d57600080fd5b8135611c1881611be6565b9392505050565b600060208284031215611c3157600080fd5b5035919050565b600060208284031215611c4a57600080fd5b5051919050565b600060208284031215611c6357600080fd5b81518015158114611c1857600080fd5b6020808252600b908201526a61646d696e3a207775743f60a81b604082015260600190565b634e487b7160e01b600052601160045260246000fd5b60008219821115611cc157611cc1611c98565b500190565b6000816000190483118215151615611ce057611ce0611c98565b500290565b600082611d0257634e487b7160e01b600052601260045260246000fd5b500490565b600082821015611d1957611d19611c98565b500390565b60005b83811015611d39578181015183820152602001611d21565b838111156110a05750506000910152565b60008251611d5c818460208701611d1e565b9190910192915050565b6020815260008251806020840152611d85816040850160208701611d1e565b601f01601f1916919091016040019291505056fea264697066735822122007a60e3ca84db1846da5dc67b7ec9b0315085089293f3d648780d4516ed6ceff64736f6c634300080a0033",
  "linkReferences": {},
  "deployedLinkReferences": {}
}