{
  "_format": "hh-sol-artifact-1",
  "contractName": "YocStaking",
  "sourceName": "contracts/YocStaking.sol",
  "abi": [
    {
      "inputs": [
        {
          "internalType": "contract IERC20",
          "name": "_token",
          "type": "address"
        },
        {
          "internalType": "contract IYOCMasterChef",
          "name": "_masterchef",
          "type": "address"
        },
        {
          "internalType": "address",
          "name": "_admin",
          "type": "address"
        },
        {
          "internalType": "address",
          "name": "_treasury",
          "type": "address"
        },
        {
          "internalType": "uint256",
          "name": "_pid",
          "type": "uint256"
        },
        {
          "internalType": "bool",
          "name": "_isYocToken",
          "type": "bool"
        }
      ],
      "stateMutability": "nonpayable",
      "type": "constructor"
    },
    {
      "anonymous": false,
      "inputs": [
        {
          "indexed": true,
          "internalType": "address",
          "name": "sender",
          "type": "address"
        },
        {
          "indexed": false,
          "internalType": "uint256",
          "name": "amount",
          "type": "uint256"
        },
        {
          "indexed": false,
          "internalType": "uint256",
          "name": "shares",
          "type": "uint256"
        },
        {
          "indexed": false,
          "internalType": "uint256",
          "name": "lastDepositedTime",
          "type": "uint256"
        }
      ],
      "name": "Deposit",
      "type": "event"
    },
    {
      "anonymous": false,
      "inputs": [
        {
          "indexed": true,
          "internalType": "address",
          "name": "sender",
          "type": "address"
        },
        {
          "indexed": false,
          "internalType": "uint256",
          "name": "amount",
          "type": "uint256"
        }
      ],
      "name": "Harvest",
      "type": "event"
    },
    {
      "anonymous": false,
      "inputs": [],
      "name": "Init",
      "type": "event"
    },
    {
      "anonymous": false,
      "inputs": [
        {
          "indexed": false,
          "internalType": "address",
          "name": "admin",
          "type": "address"
        }
      ],
      "name": "NewAdmin",
      "type": "event"
    },
    {
      "anonymous": false,
      "inputs": [
        {
          "indexed": false,
          "internalType": "address",
          "name": "treasury",
          "type": "address"
        }
      ],
      "name": "NewTreasury",
      "type": "event"
    },
    {
      "anonymous": false,
      "inputs": [
        {
          "indexed": false,
          "internalType": "uint256",
          "name": "withdrawFee",
          "type": "uint256"
        }
      ],
      "name": "NewWithdrawFee",
      "type": "event"
    },
    {
      "anonymous": false,
      "inputs": [
        {
          "indexed": false,
          "internalType": "uint256",
          "name": "withdrawFeePeriod",
          "type": "uint256"
        }
      ],
      "name": "NewWithdrawFeePeriod",
      "type": "event"
    },
    {
      "anonymous": false,
      "inputs": [
        {
          "indexed": true,
          "internalType": "address",
          "name": "previousOwner",
          "type": "address"
        },
        {
          "indexed": true,
          "internalType": "address",
          "name": "newOwner",
          "type": "address"
        }
      ],
      "name": "OwnershipTransferred",
      "type": "event"
    },
    {
      "anonymous": false,
      "inputs": [],
      "name": "Pause",
      "type": "event"
    },
    {
      "anonymous": false,
      "inputs": [
        {
          "indexed": false,
          "internalType": "address",
          "name": "account",
          "type": "address"
        }
      ],
      "name": "Paused",
      "type": "event"
    },
    {
      "anonymous": false,
      "inputs": [],
      "name": "Unpause",
      "type": "event"
    },
    {
      "anonymous": false,
      "inputs": [
        {
          "indexed": false,
          "internalType": "address",
          "name": "account",
          "type": "address"
        }
      ],
      "name": "Unpaused",
      "type": "event"
    },
    {
      "anonymous": false,
      "inputs": [
        {
          "indexed": true,
          "internalType": "address",
          "name": "sender",
          "type": "address"
        },
        {
          "indexed": false,
          "internalType": "uint256",
          "name": "amount",
          "type": "uint256"
        },
        {
          "indexed": false,
          "internalType": "uint256",
          "name": "shares",
          "type": "uint256"
        }
      ],
      "name": "Withdraw",
      "type": "event"
    },
    {
      "inputs": [],
      "name": "MAX_WITHDRAW_FEE",
      "outputs": [
        {
          "internalType": "uint256",
          "name": "",
          "type": "uint256"
        }
      ],
      "stateMutability": "view",
      "type": "function"
    },
    {
      "inputs": [],
      "name": "MAX_WITHDRAW_FEE_PERIOD",
      "outputs": [
        {
          "internalType": "uint256",
          "name": "",
          "type": "uint256"
        }
      ],
      "stateMutability": "view",
      "type": "function"
    },
    {
      "inputs": [],
      "name": "MIN_DEPOSIT_AMOUNT",
      "outputs": [
        {
          "internalType": "uint256",
          "name": "",
          "type": "uint256"
        }
      ],
      "stateMutability": "view",
      "type": "function"
    },
    {
      "inputs": [],
      "name": "MIN_WITHDRAW_AMOUNT",
      "outputs": [
        {
          "internalType": "uint256",
          "name": "",
          "type": "uint256"
        }
      ],
      "stateMutability": "view",
      "type": "function"
    },
    {
      "inputs": [],
      "name": "PERCENT_PRECISION",
      "outputs": [
        {
          "internalType": "uint256",
          "name": "",
          "type": "uint256"
        }
      ],
      "stateMutability": "view",
      "type": "function"
    },
    {
      "inputs": [],
      "name": "PRECISION_FACTOR",
      "outputs": [
        {
          "internalType": "uint256",
          "name": "",
          "type": "uint256"
        }
      ],
      "stateMutability": "view",
      "type": "function"
    },
    {
      "inputs": [],
      "name": "PRECISION_FACTOR_SHARE",
      "outputs": [
        {
          "internalType": "uint256",
          "name": "",
          "type": "uint256"
        }
      ],
      "stateMutability": "view",
      "type": "function"
    },
    {
      "inputs": [],
      "name": "admin",
      "outputs": [
        {
          "internalType": "address",
          "name": "",
          "type": "address"
        }
      ],
      "stateMutability": "view",
      "type": "function"
    },
    {
      "inputs": [],
      "name": "balanceOf",
      "outputs": [
        {
          "internalType": "uint256",
          "name": "",
          "type": "uint256"
        }
      ],
      "stateMutability": "view",
      "type": "function"
    },
    {
      "inputs": [],
      "name": "calculateTotalPendingYOCRewards",
      "outputs": [
        {
          "internalType": "uint256",
          "name": "",
          "type": "uint256"
        }
      ],
      "stateMutability": "view",
      "type": "function"
    },
    {
      "inputs": [
        {
          "internalType": "uint256",
          "name": "_amount",
          "type": "uint256"
        }
      ],
      "name": "deposit",
      "outputs": [],
      "stateMutability": "nonpayable",
      "type": "function"
    },
    {
      "inputs": [],
      "name": "depositFee",
      "outputs": [
        {
          "internalType": "uint256",
          "name": "",
          "type": "uint256"
        }
      ],
      "stateMutability": "view",
      "type": "function"
    },
    {
      "inputs": [],
      "name": "getPricePerFullShare",
      "outputs": [
        {
          "internalType": "uint256",
          "name": "",
          "type": "uint256"
        }
      ],
      "stateMutability": "view",
      "type": "function"
    },
    {
      "inputs": [
        {
          "internalType": "address",
          "name": "_token",
          "type": "address"
        }
      ],
      "name": "inCaseTokensGetStuck",
      "outputs": [],
      "stateMutability": "nonpayable",
      "type": "function"
    },
    {
      "inputs": [
        {
          "internalType": "contract IERC20",
          "name": "dummyToken",
          "type": "address"
        }
      ],
      "name": "init",
      "outputs": [],
      "stateMutability": "nonpayable",
      "type": "function"
    },
    {
      "inputs": [],
      "name": "masterchef",
      "outputs": [
        {
          "internalType": "contract IYOCMasterChef",
          "name": "",
          "type": "address"
        }
      ],
      "stateMutability": "view",
      "type": "function"
    },
    {
      "inputs": [],
      "name": "owner",
      "outputs": [
        {
          "internalType": "address",
          "name": "",
          "type": "address"
        }
      ],
      "stateMutability": "view",
      "type": "function"
    },
    {
      "inputs": [],
      "name": "pause",
      "outputs": [],
      "stateMutability": "nonpayable",
      "type": "function"
    },
    {
      "inputs": [],
      "name": "paused",
      "outputs": [
        {
          "internalType": "bool",
          "name": "",
          "type": "bool"
        }
      ],
      "stateMutability": "view",
      "type": "function"
    },
    {
      "inputs": [],
      "name": "renounceOwnership",
      "outputs": [],
      "stateMutability": "nonpayable",
      "type": "function"
    },
    {
      "inputs": [
        {
          "internalType": "address",
          "name": "_admin",
          "type": "address"
        }
      ],
      "name": "setAdmin",
      "outputs": [],
      "stateMutability": "nonpayable",
      "type": "function"
    },
    {
      "inputs": [
        {
          "internalType": "address",
          "name": "_treasury",
          "type": "address"
        }
      ],
      "name": "setTreasury",
      "outputs": [],
      "stateMutability": "nonpayable",
      "type": "function"
    },
    {
      "inputs": [
        {
          "internalType": "uint256",
          "name": "_withdrawFee",
          "type": "uint256"
        }
      ],
      "name": "setWithdrawFee",
      "outputs": [],
      "stateMutability": "nonpayable",
      "type": "function"
    },
    {
      "inputs": [
        {
          "internalType": "uint256",
          "name": "_withdrawFeePeriod",
          "type": "uint256"
        }
      ],
      "name": "setWithdrawFeePeriod",
      "outputs": [],
      "stateMutability": "nonpayable",
      "type": "function"
    },
    {
      "inputs": [],
      "name": "token",
      "outputs": [
        {
          "internalType": "contract IERC20",
          "name": "",
          "type": "address"
        }
      ],
      "stateMutability": "view",
      "type": "function"
    },
    {
      "inputs": [],
      "name": "totalShares",
      "outputs": [
        {
          "internalType": "uint256",
          "name": "",
          "type": "uint256"
        }
      ],
      "stateMutability": "view",
      "type": "function"
    },
    {
      "inputs": [
        {
          "internalType": "address",
          "name": "newOwner",
          "type": "address"
        }
      ],
      "name": "transferOwnership",
      "outputs": [],
      "stateMutability": "nonpayable",
      "type": "function"
    },
    {
      "inputs": [],
      "name": "treasury",
      "outputs": [
        {
          "internalType": "address",
          "name": "",
          "type": "address"
        }
      ],
      "stateMutability": "view",
      "type": "function"
    },
    {
      "inputs": [],
      "name": "unpause",
      "outputs": [],
      "stateMutability": "nonpayable",
      "type": "function"
    },
    {
      "inputs": [
        {
          "internalType": "address",
          "name": "",
          "type": "address"
        }
      ],
      "name": "userInfo",
      "outputs": [
        {
          "internalType": "uint256",
          "name": "shares",
          "type": "uint256"
        },
        {
          "internalType": "uint256",
          "name": "lastDepositedTime",
          "type": "uint256"
        },
        {
          "internalType": "uint256",
          "name": "yocAtLastUserAction",
          "type": "uint256"
        },
        {
          "internalType": "uint256",
          "name": "lastUserActionTime",
          "type": "uint256"
        }
      ],
      "stateMutability": "view",
      "type": "function"
    },
    {
      "inputs": [
        {
          "internalType": "uint256",
          "name": "_shares",
          "type": "uint256"
        }
      ],
      "name": "withdraw",
      "outputs": [],
      "stateMutability": "nonpayable",
      "type": "function"
    },
    {
      "inputs": [],
      "name": "withdrawAll",
      "outputs": [],
      "stateMutability": "nonpayable",
      "type": "function"
    },
    {
      "inputs": [
        {
          "internalType": "uint256",
          "name": "_amount",
          "type": "uint256"
        }
      ],
      "name": "withdrawByAmount",
      "outputs": [],
      "stateMutability": "nonpayable",
      "type": "function"
    },
    {
      "inputs": [],
      "name": "withdrawFee",
      "outputs": [
        {
          "internalType": "uint256",
          "name": "",
          "type": "uint256"
        }
      ],
      "stateMutability": "view",
      "type": "function"
    },
    {
      "inputs": [],
      "name": "withdrawFeePeriod",
      "outputs": [
        {
          "internalType": "uint256",
          "name": "",
          "type": "uint256"
        }
      ],
      "stateMutability": "view",
      "type": "function"
    },
    {
      "inputs": [],
      "name": "yocPoolPID",
      "outputs": [
        {
          "internalType": "uint256",
          "name": "",
          "type": "uint256"
        }
      ],
      "stateMutability": "view",
      "type": "function"
    }
  ],
  "bytecode": "0x60c06040526002805460ff191660011790556019600755600a60085562093a806009553480156200002f57600080fd5b5060405162001fdd38038062001fdd83398101604081905262000052916200012b565b6200005d33620000c2565b6000805460ff60a01b191690556001600160a01b0395861660805293851660a052600480546001600160a01b031990811694871694909417905560058054909316919094161790556006919091556002805460ff1916911515919091179055620001b7565b600080546001600160a01b038381166001600160a01b0319831681178455604051919092169283917f8be0079c531659141344cd1fd0a4f28419497f9722a3daafe3b4186f6b6457e09190a35050565b6001600160a01b03811681146200012857600080fd5b50565b60008060008060008060c087890312156200014557600080fd5b8651620001528162000112565b6020880151909650620001658162000112565b6040880151909550620001788162000112565b60608801519094506200018b8162000112565b608088015160a089015191945092508015158114620001a957600080fd5b809150509295509295509295565b60805160a051611dac620002316000396000818161045e0152818161059b0152818161063901528181610c5e0152818161181201526118bb015260008181610485015281816109c901528181610cfb0152818161122001528181611265015281816115140152818161156a01526115dc0152611dac6000f3fe608060405234801561001057600080fd5b506004361061021c5760003560e01c80638456cb5911610125578063def68a9c116100ad578063f2fde38b1161007c578063f2fde38b14610433578063f851a44014610446578063fb1db27814610459578063fc0c546a14610480578063ffe8e372146104a757600080fd5b8063def68a9c146103fb578063df10b4e61461040e578063e941fa7814610417578063f0f442601461042057600080fd5b8063b6ac642a116100f4578063b6ac642a146103b9578063b6b55f25146103cc578063ca590f02146103df578063ccd34cd5146103e7578063d4b0de2f146103f357600080fd5b80638456cb5914610398578063853828b6146103a05780638da5cb5b146103a8578063b68578441461029157600080fd5b80635521e9bf116101a8578063704b6c0211610177578063704b6c021461035a578063715018a61461036d578063722713f714610375578063731ff24a1461037d57806377c7b8fc1461039057600080fd5b80635521e9bf146102f65780635c975abb1461030957806361d027b31461032657806367a527931461035157600080fd5b80632cfc5f01116101ef5780632cfc5f01146102bf5780632e1a7d4d146102c95780633043443b146102dc5780633a98ef39146102e55780633f4ba83a146102ee57600080fd5b80631959a0021461022157806319ab453c1461027c5780631ea30fef146102915780631efac1b8146102ac575b600080fd5b61025761022f366004611bd8565b6001602081905260009182526040909120805491810154600282015460039092015490919084565b6040805194855260208501939093529183015260608201526080015b60405180910390f35b61028f61028a366004611bd8565b6104b0565b005b61029e6509184e72a00081565b604051908152602001610273565b61028f6102ba366004611bfc565b6106ca565b61029e62093a8081565b61028f6102d7366004611bfc565b6107a9565b61029e60065481565b61029e60035481565b61028f610805565b61028f610304366004611bfc565b61086a565b600054600160a01b900460ff166040519015158152602001610273565b600554610339906001600160a01b031681565b6040516001600160a01b039091168152602001610273565b61029e60075481565b61028f610368366004611bd8565b6108f8565b61028f61099d565b61029e6109b1565b61029e6b204fce5e3e2502611000000081565b61029e610a41565b61028f610a93565b61028f610af8565b6000546001600160a01b0316610339565b61028f6103c7366004611bfc565b610b11565b61028f6103da366004611bfc565b610bda565b61029e610c31565b61029e64e8d4a5100081565b61029e603281565b61028f610409366004611bd8565b610ccf565b61029e60095481565b61029e60085481565b61028f61042e366004611bd8565b610e0e565b61028f610441366004611bd8565b610ed5565b600454610339906001600160a01b031681565b6103397f000000000000000000000000000000000000000000000000000000000000000081565b6103397f000000000000000000000000000000000000000000000000000000000000000081565b61029e6103e881565b6104b8610f4b565b6040516370a0823160e01b81523360048201526000906001600160a01b038316906370a0823190602401602060405180830381865afa1580156104ff573d6000803e3d6000fd5b505050506040513d601f19601f820116820180604052508101906105239190611c15565b90508061056f5760405162461bcd60e51b8152602060048201526015602482015274042616c616e6365206d75737420657863656564203605c1b60448201526064015b60405180910390fd5b6105846001600160a01b038316333084610fa5565b60405163095ea7b360e01b81526001600160a01b037f0000000000000000000000000000000000000000000000000000000000000000811660048301526024820183905283169063095ea7b3906044016020604051808303816000875af11580156105f3573d6000803e3d6000fd5b505050506040513d601f19601f820116820180604052508101906106179190611c2e565b50600654604051631c57762b60e31b81526004810191909152602481018290527f00000000000000000000000000000000000000000000000000000000000000006001600160a01b03169063e2bbb15890604401600060405180830381600087803b15801561068557600080fd5b505af1158015610699573d6000803e3d6000fd5b50506040517f57a86f7d14ccde89e22870afe839e3011216827daa9b24e18629f0a1e9d6cc14925060009150a15050565b6004546001600160a01b031633146106f45760405162461bcd60e51b815260040161056690611c50565b62093a8081111561076d5760405162461bcd60e51b815260206004820152603d60248201527f7769746864726177466565506572696f642063616e6e6f74206265206d6f726560448201527f207468616e204d41585f57495448445241575f4645455f504552494f440000006064820152608401610566565b60098190556040518181527fb89ddaddb7435be26824cb48d2d0186c9525a2e1ec057abcb502704cdc0686cc906020015b60405180910390a150565b6107b1611016565b600081116107f75760405162461bcd60e51b81526020600482015260136024820152724e6f7468696e6720746f20776974686472617760681b6044820152606401610566565b610802816000611063565b50565b6004546001600160a01b0316331461082f5760405162461bcd60e51b815260040161056690611c50565b610837611310565b61083f611360565b6040517f7805862f689e2f13df9f062ff482ad3ad112aca9e0847911ed832e158c525b3390600090a1565b610872611016565b6509184e72a00081116108ed5760405162461bcd60e51b815260206004820152603860248201527f576974686472617720616d6f756e74206d75737420626520677265617465722060448201527f7468616e204d494e5f57495448445241575f414d4f554e5400000000000000006064820152608401610566565b610802600082611063565b610900610f4b565b6001600160a01b03811661094f5760405162461bcd60e51b815260206004820152601660248201527543616e6e6f74206265207a65726f206164647265737360501b6044820152606401610566565b600480546001600160a01b0319166001600160a01b0383169081179091556040519081527f71614071b88dee5e0b2ae578a9dd7b2ebbe9ae832ba419dc0242cd065a290b6c9060200161079e565b6109a5610f4b565b6109af60006113b5565b565b6040516370a0823160e01b81523060048201526000907f00000000000000000000000000000000000000000000000000000000000000006001600160a01b0316906370a0823190602401602060405180830381865afa158015610a18573d6000803e3d6000fd5b505050506040513d601f19601f82011682018060405250810190610a3c9190611c15565b905090565b6000600354600014610a8657600354610a58610c31565b610a606109b1565b610a6a9190611c8b565b610a7c90670de0b6b3a7640000611ca3565b610a3c9190611cc2565b50670de0b6b3a764000090565b6004546001600160a01b03163314610abd5760405162461bcd60e51b815260040161056690611c50565b610ac5611016565b610acd611405565b6040517f6985a02210a168e66602d3235cb6db0e70f92b3ba4d376a33c0f3d9434bff62590600090a1565b336000908152600160205260409020546109af906107a9565b6004546001600160a01b03163314610b3b5760405162461bcd60e51b815260040161056690611c50565b6032811115610ba55760405162461bcd60e51b815260206004820152603060248201527f77697468647261774665652063616e6e6f74206265206d6f7265207468616e2060448201526f4d41585f57495448445241575f46454560801b6064820152608401610566565b60088190556040518181527fd5fe46099fa396290a7f57e36c3c3c8774e2562c18ed5d1dcc0fa75071e03f1d9060200161079e565b610be2611016565b60008111610c275760405162461bcd60e51b8152602060048201526012602482015271139bdd1a1a5b99c81d1bc819195c1bdcda5d60721b6044820152606401610566565b6108028133611448565b6006546040516369e0f35760e11b8152600481019190915230602482015260009081906001600160a01b037f0000000000000000000000000000000000000000000000000000000000000000169063d3c1e6ae90604401602060405180830381865afa158015610ca5573d6000803e3d6000fd5b505050506040513d601f19601f82011682018060405250810190610cc99190611c15565b92915050565b6004546001600160a01b03163314610cf95760405162461bcd60e51b815260040161056690611c50565b7f00000000000000000000000000000000000000000000000000000000000000006001600160a01b0316816001600160a01b03161415610d895760405162461bcd60e51b815260206004820152602560248201527f546f6b656e2063616e6e6f742062652073616d65206173206465706f736974206044820152643a37b5b2b760d91b6064820152608401610566565b6040516370a0823160e01b81523060048201526000906001600160a01b038316906370a0823190602401602060405180830381865afa158015610dd0573d6000803e3d6000fd5b505050506040513d601f19601f82011682018060405250810190610df49190611c15565b9050610e0a6001600160a01b03831633836116e8565b5050565b6004546001600160a01b03163314610e385760405162461bcd60e51b815260040161056690611c50565b6001600160a01b038116610e875760405162461bcd60e51b815260206004820152601660248201527543616e6e6f74206265207a65726f206164647265737360501b6044820152606401610566565b600580546001600160a01b0319166001600160a01b0383169081179091556040519081527fafa147634b29e2c7bd53ce194256b9f41cfb9ba3036f2b822fdd1d965beea0869060200161079e565b610edd610f4b565b6001600160a01b038116610f425760405162461bcd60e51b815260206004820152602660248201527f4f776e61626c653a206e6577206f776e657220697320746865207a65726f206160448201526564647265737360d01b6064820152608401610566565b610802816113b5565b6000546001600160a01b031633146109af5760405162461bcd60e51b815260206004820181905260248201527f4f776e61626c653a2063616c6c6572206973206e6f7420746865206f776e65726044820152606401610566565b6040516001600160a01b03808516602483015283166044820152606481018290526110109085906323b872dd60e01b906084015b60408051601f198184030181529190526020810180516001600160e01b03166001600160e01b03199093169290921790915261171d565b50505050565b600054600160a01b900460ff16156109af5760405162461bcd60e51b815260206004820152601060248201526f14185d5cd8589b194e881c185d5cd95960821b6044820152606401610566565b33600090815260016020526040902080548311156110c35760405162461bcd60e51b815260206004820152601f60248201527f576974686472617720616d6f756e7420657863656564732062616c616e6365006044820152606401610566565b805483906000906110e06b204fce5e3e2502611000000084611ca3565b6110ea9190611cc2565b90506110f46117ef565b6110fd3361196d565b8415801561110b5750600084115b1561114c57600061111a6109b1565b9050806003548661112b9190611ca3565b6111359190611cc2565b845490935083111561114657835492505b50611173565b82546b204fce5e3e25026110000000906111669083611ca3565b6111709190611cc2565b91505b6000600354836111816109b1565b61118b9190611ca3565b6111959190611cc2565b9050828460000160008282546111ab9190611ce4565b9250508190555082600360008282546111c49190611ce4565b909155505060095460018501546111db9190611c8b565b421080156111eb575060025460ff165b156112585760085460006103e86112028385611ca3565b61120c9190611cc2565b600554909150611249906001600160a01b037f000000000000000000000000000000000000000000000000000000000000000081169116836116e8565b6112538184611ce4565b925050505b61128c6001600160a01b037f00000000000000000000000000000000000000000000000000000000000000001633836116e8565b8354156112be5760035461129e6109b1565b85546112aa9190611ca3565b6112b49190611cc2565b60028501556112c6565b600060028501555b426003850155604080518281526020810185905233917ff279e6a1f5e320cca91135676d9cb6e44ca8a08c0b88342bcdb1144f6511b56891015b60405180910390a2505050505050565b600054600160a01b900460ff166109af5760405162461bcd60e51b815260206004820152601460248201527314185d5cd8589b194e881b9bdd081c185d5cd95960621b6044820152606401610566565b611368611310565b6000805460ff60a01b191690557f5db9ee0a495bf2e6ff9c91a7834c1ba4fdd244a5e8aa4e537bd38aeae4b073aa335b6040516001600160a01b03909116815260200160405180910390a1565b600080546001600160a01b038381166001600160a01b0319831681178455604051919092169283917f8be0079c531659141344cd1fd0a4f28419497f9722a3daafe3b4186f6b6457e09190a35050565b61140d611016565b6000805460ff60a01b1916600160a01b1790557f62e78cea01bee320cd4e420270b5ea74000d11b0c9f74754ebdbfc544b05a2586113983390565b6001600160a01b03811660009081526001602052604090208054158061146e5750600083115b156114e7576509184e72a00083116114e75760405162461bcd60e51b815260206004820152603660248201527f4465706f73697420616d6f756e74206d757374206265206772656174657220746044820152751a185b8813525397d1115413d4d25517d05353d5539560521b6064820152608401610566565b6114ef6117ef565b60035461153f5760006115006109b1565b60055490915061153d906001600160a01b037f000000000000000000000000000000000000000000000000000000000000000081169116836116e8565b505b6115488261196d565b60008060006115556109b1565b90508515611607576115926001600160a01b037f000000000000000000000000000000000000000000000000000000000000000016863089610fa5565b60025486925060ff166116075760006103e8600754846115b29190611ca3565b6115bc9190611cc2565b90506115c88184611ce4565b600554909350611605906001600160a01b037f000000000000000000000000000000000000000000000000000000000000000081169116836116e8565b505b6003541561162f57806003548361161e9190611ca3565b6116289190611cc2565b9250611633565b8192505b828460000160008282546116479190611c8b565b90915550508515611659574260018501555b826003600082825461166b9190611c8b565b909155505060035461167b6109b1565b85546116879190611ca3565b6116919190611cc2565b600285015542600385018190556040805188815260208101869052908101919091526001600160a01b038616907f36af321ec8d3c75236829c5317affd40ddb308863a1236d2d277a4025cccee1e90606001611300565b6040516001600160a01b03831660248201526044810182905261171890849063a9059cbb60e01b90606401610fd9565b505050565b6000611772826040518060400160405280602081526020017f5361666545524332303a206c6f772d6c6576656c2063616c6c206661696c6564815250856001600160a01b0316611a369092919063ffffffff16565b80519091501561171857808060200190518101906117909190611c2e565b6117185760405162461bcd60e51b815260206004820152602a60248201527f5361666545524332303a204552433230206f7065726174696f6e20646964206e6044820152691bdd081cdd58d8d9595960b21b6064820152608401610566565b6006546040516369e0f35760e11b815260048101919091523060248201526000907f00000000000000000000000000000000000000000000000000000000000000006001600160a01b03169063d3c1e6ae90604401602060405180830381865afa158015611861573d6000803e3d6000fd5b505050506040513d601f19601f820116820180604052508101906118859190611c15565b905080156108025760006118976109b1565b600654604051630441a3e760e41b81526004810191909152600060248201529091507f00000000000000000000000000000000000000000000000000000000000000006001600160a01b03169063441a3e7090604401600060405180830381600087803b15801561190757600080fd5b505af115801561191b573d6000803e3d6000fd5b5050505060006119296109b1565b9050337fc9695243a805adb74c91f28311176c65b417e842d5699893cef56d18bfa48cba6119578484611ce4565b60405190815260200160405180910390a2505050565b6001600160a01b0381166000908152600160205260409020805415610e0a5760006003546119996109b1565b83546119a59190611ca3565b6119af9190611cc2565b90508160000154600360008282546119c79190611ce4565b909155505060008083556119d96109b1565b90506000600354600014611a0f576119f18383611ce4565b6003546119fe9085611ca3565b611a089190611cc2565b9050611a12565b50815b80845560038054829190600090611a2a908490611c8b565b90915550505050505050565b6060611a458484600085611a4d565b949350505050565b606082471015611aae5760405162461bcd60e51b815260206004820152602660248201527f416464726573733a20696e73756666696369656e742062616c616e636520666f6044820152651c8818d85b1b60d21b6064820152608401610566565b600080866001600160a01b03168587604051611aca9190611d27565b60006040518083038185875af1925050503d8060008114611b07576040519150601f19603f3d011682016040523d82523d6000602084013e611b0c565b606091505b5091509150611b1d87838387611b28565b979650505050505050565b60608315611b94578251611b8d576001600160a01b0385163b611b8d5760405162461bcd60e51b815260206004820152601d60248201527f416464726573733a2063616c6c20746f206e6f6e2d636f6e74726163740000006044820152606401610566565b5081611a45565b611a458383815115611ba95781518083602001fd5b8060405162461bcd60e51b81526004016105669190611d43565b6001600160a01b038116811461080257600080fd5b600060208284031215611bea57600080fd5b8135611bf581611bc3565b9392505050565b600060208284031215611c0e57600080fd5b5035919050565b600060208284031215611c2757600080fd5b5051919050565b600060208284031215611c4057600080fd5b81518015158114611bf557600080fd5b6020808252600b908201526a61646d696e3a207775743f60a81b604082015260600190565b634e487b7160e01b600052601160045260246000fd5b60008219821115611c9e57611c9e611c75565b500190565b6000816000190483118215151615611cbd57611cbd611c75565b500290565b600082611cdf57634e487b7160e01b600052601260045260246000fd5b500490565b600082821015611cf657611cf6611c75565b500390565b60005b83811015611d16578181015183820152602001611cfe565b838111156110105750506000910152565b60008251611d39818460208701611cfb565b9190910192915050565b6020815260008251806020840152611d62816040850160208701611cfb565b601f01601f1916919091016040019291505056fea264697066735822122040e5293f7e386f81b0fe12b801e02ac39873b2ed8b4b02809cf4c84f3fd813b664736f6c634300080a0033",
  "linkReferences": {},
  "deployedLinkReferences": {}
}